:020000040800F2
:1000000000A60120014E0208450200084702000830
:100010004B0200084F0200085302000800000000D5
:100020000000000000000000000000009D0100082A
:100030005702000800000000E10100081B7E0208D2
:100040001B4E02081B4E02081B4E02081B4E0208E4
:100050001B4E02081B4E02081B4E02081B4E0208D4
:10006000AB040008EF0400081B4E02081B03000845
:10007000FD0200085D0300081B4E0208750200081F
:100080001B4E0208810200081B4E02081B4E02088C
:100090001B4E02081B4E02081B4E02081B4E020894
:1000A0001B4E0208C7030008F30300081B4E02089A
:1000B000F5030008230400084F0400081B4E020843
:1000C0001B4E02081B4E02081B4E0208A704000824
:1000D0001B4E02085D0200081B4E02081B4E020860
:1000E0001B4E02081B4E02081B4E02081B4E020844
:1000F0001B4E02081B4E02081B4E02083903000863
:100100001B4E02081B4E02087B040008A9040008CD
:100110001B4E02081B4E020899030008A5030008A5
:100120001B4E02089B020008CF0200081B4E02086B
:100130001B4E02081B4E02081B4E02081B4E0208F3
:100140001B4E02081B4E02081B4E02081B4E0208E3
:10015000EF0200081B4E02081B4E02081B4E02084D
:100160001B4E02081B4E02081B4E02081B4E0208C3
:100170001B4E02081B4E02081B4E02081B4E0208B3
:100180001B4E02081B4E0208DFF80CD029F000F9C4
:1001900000480047C94A020800A60120234B1968FD
:1001A0000868B0E8F04F80F309884FF0000080F352
:1001B000118870470000000003480068006880F361
:1001C000088862B600DF00BF08ED00E0DFF80C0031
:1001D000016841F470010160704700BF88ED00E0E4
:1001E000EFF30980114B1A681EF0100F08BF20EDC5
:1001F000108A20E9F04F106008B54FF0140080F32A
:10020000118828F0D2F94FF0000080F31188BDE882
:10021000084019680868B0E8F04F1EF0100F08BFDA
:10022000B0EC108A80F30988704700BFFC050020FD
:10023000EFF311804FF0140181F31188704780F3C0
:1002400011887047704700BFFEE700BFFEE700BFA0
:10025000FEE700BFFEE770477047704710B540F2F9
:100260002551A34826F0EDFE18B12021A04826F024
:10027000DFFE10BD10B59F499F4825F017FE10BD49
:1002800010B59E499C48303025F0E6FD20B19B49D1
:100290009948303025F00AFE10BD10B598499948AC
:1002A00025F0DAFD90B19649964825F0FFFD02F061
:1002B00003F900219048303825F024FD08219148A9
:1002C00025F041FD01218F4825F01CFD10BD10B522
:1002D0008D498C48183025F0E9FD8C4840788B49D1
:1002E000097840EA012000B28949088010BD10B5A4
:1002F00088498448603025F0D9FD10BD10B580498B
:100300007D48483825F0A8FD30B17D497A48483805
:1003100025F0CCFD00F0B9FA10BD10B57E49764845
:10032000603825F099FD30B17B497348603825F07D
:10033000BDFD02F0C1F810BD10B578496E484830D7
:1003400025F08AFD48B100216B48483025F0DAFCE1
:1003500072496948483025F0A9FD10BD10B56A49B9
:100360006548303825F078FDA8B1674962483038D3
:1003700025F09CFD01F063FD00215F48303825F039
:10038000C1FC08215C48303825F0DDFC01215A48C9
:10039000303825F0B7FC10BD10B50121604826F0BB
:1003A000ADFB10BD10B501215E4826F0A7FB7A20F9
:1003B0004F49888001215C4826F052FD01215B48AD
:1003C00026F04EFD10BD10B50121594826F096FBD0
:1003D0005748008800F0100028B156480068401EB9
:1003E0005449086004E053480068401C51490860C3
:1003F00010BD704710B50121880726F07FFB4FF034
:100400008040008800F0100028B14B480068401E72
:100410004949086004E048480068401C46490860B3
:1004200010BD10B50121454826F068FB43480088FF
:1004300000F0100028B142480068401E40490860A2
:1004400004E03F480068401C3D49086010BD10B5FD
:1004500001213C4826F052FB3A48008800F0100089
:1004600028B139480068401E3749086004E0364822
:100470000068401C3449086010BD10B501213348A4
:1004800026F03CFB3148008800F0100028B13048CD
:100490000068401E2E49086004E02D480068401C9A
:1004A0002B49086010BD7047704710B5042025F037
:1004B00095FDD8B12021274824F019FE04212648B3
:1004C00024F0F0FD012804D10021164825F096FE05
:1004D00009E00421204824F0E5FD20B9114825F069
:1004E00091FE1E49086004201D49086010BD704738
:1004F0000010014020800020706002400080202019
:10050000008800102864024000802010BA080020F3
:100510008C0000200088002020800010008000282F
:10052000001000400014004000480040001401404A
:10053000000001406C00002070000020000400401A
:10054000740000200008004088000020000C0040DB
:100550007800002000000240000C024068000020EB
:10056000143C014070B50446204628F007FC0546BF
:100570002146F94828F009FCA8B140F22B12214687
:10058000F54828F0EFFB0021F44825F0BBFBF248CA
:10059000F2490C310860F148B838C0F8BC5001216C
:1005A000EE4825F0AFFB70BD70B50446002510E0A5
:1005B000605D68B1615DEA4826F07DFC00BF802186
:1005C000E74826F028FD0028F9D0681CC5B200E0F5
:1005D00070BDEDE770B5044600250FE05CB1214623
:1005E000DF4826F068FC00BF8021DD4826F013FDBF
:1005F0000028F9D000E070BD681CC5B2032DEDDB0A
:1006000000BFF8E713B50C460020FFF7E3FFD5A0C5
:10061000FFF7CAFF2346D4A29621D44828F0F6FE5D
:10062000D248FFF7C1FFD2A0FFF7BEFFCEA29621AE
:10063000CE48009B28F0EAFECC48FFF7B5FFCEA0DD
:10064000FFF7B2FFFF20FFF7C5FFFF20FFF7C2FF54
:10065000FF20FFF7BFFF1CBD70B505460C46C1A0CB
:10066000FFF7A2FF2246C0A1C04828F0E7FEBF481E
:10067000FFF79AFFBEA0FFF797FF2846FFF794FF0A
:10068000BDA0FFF791FFFF20FFF7A4FF70BD77B576
:1006900085B00546FF26B6A103C9CDE90301B6A082
:1006A00000680290AFA00068019000240AE00020DA
:1006B000B2490855B2490855AC490855A6490855EC
:1006C000601CC4B21E2CF2DB0A20A8490870FF206F
:1006D00048708870C870A4A1A948079A28F0AEFE97
:1006E000A74901A828F032FB01A9A04828F02EFB59
:1006F00003A99E4828F02AFB29469C4828F026FB9F
:1007000099A19F48069A28F099FE9D49974828F09C
:100710001DFB02A9954828F019FBFF209749087096
:1007200048708870914828F011FB9048FFF71AFF35
:1007300008B070BDF7B584B005460E46FF278CA102
:1007400003C9CDE902018CA00068019085A0006872
:100750000090002408E00020884908558849085581
:1007600082490855601CC4B20A2CF4DB0A207F4978
:100770000870FF2048708870C8707BA18048069A76
:1007800028F05CFE7E49684628F0E0FA6946774822
:1007900028F0DCFA02A9754828F0D8FA29467348EF
:1007A00028F0D4FA3146714828F0D0FA01A96F48F0
:1007B00028F0CCFAFF20714908704870887000203A
:1007C000C8700871694828F0C1FA6848FFF7CAFE86
:1007D00007B0F0BD01B58EB06AA2322101A80E9B10
:1007E00028F014FE01A8FFF7BDFE0FB000BD73B5E1
:1007F00084B00546FF265EA103C9CDE902015EA0D3
:100800000068019057A00068009000240AE00020D2
:100810005A4908555A490855544908554E490855EA
:10082000601CC4B21E2CF2DB0A2050490870FF2065
:1008300048708870C8704CA15148059A28F0FEFD98
:100840004F49684628F082FA6946484828F07EFAFF
:1008500002A9464828F07AFA2946444828F076FA50
:100860004749424828F072FA01A9404828F06EFA38
:10087000FF2042490870487088703C4828F066FAAA
:100880003A48FFF76FFE06B070BD10B52DED0C8B2A
:1008900082B03F4800783E49497808443C4989780D
:1008A00008443B49C978084439490979084438491A
:1008B000497908443649897908443549C979084451
:1008C0003349097A0844C0B201903148007A00F0F7
:1008D0000F0000909FED2F0AB0EE40DA2C48407ACE
:1008E0000199884272D12A48007A00F00F000D2841
:1008F0006CD127488078C0F17F0000EE100AB8EE76
:10090000C08A2348C078813800EE100AF8EEC08A09
:10091000B5EEC08AF1EE10FA03D1B7EE000AB0EEE0
:10092000408AF5EEC08AF1EE10FA03D1B7EE000A64
:10093000F0EE408ABDEEC80A10EE102A002A01DB54
:10094000134600E05342BDEEE80A10EE100A0028FC
:1009500022DB044621E0000072070020B86002405C
:100960000050004074000000256400003C06002098
:100970002E7478743D22000022000000220700201F
:10098000FA0600206A302E76616C3D256400000076
:10099000FB080020DB0F49404442191901EBD173D9
:1009A0005B10FE4C2360BDEEE80A10EE101A002921
:1009B00001DB0A4600E04A42322A0FDABDEEC80ADD
:1009C00010EE100A002802DB024601E02FE042424E
:1009D000322A03DA0020F249086030E018EE900A6B
:1009E00028F099FB41EC1B0B18EE100A28F093FB42
:1009F00041EC1C0BB0EE4B1AF0EE6B1AB0EE4C0A49
:100A0000F0EE6C0A28F0C8FEB0EE40AAF0EE60AA44
:100A10009FEDE40B53EC102B51EC1A0B28F06AFA03
:100A200041EC190B28F058FBDD49086007E09DF800
:100A300000000D2803D00021DC4826F011FA02B096
:100A4000BDEC0C8B10BDDA48007A00F00F000D28C9
:100A500006D1D748007800F0010008B10D2070479A
:100A60000020FCE7D248007800F0100008B1002018
:100A700070470120FCE71CB54FF0804025F0C2FB19
:100A8000CC49096840EA01400C2190FBF1F000904C
:100A9000002418E04FF0804025F0B4FBC5490968F8
:100AA00040EA01400C2190FBF1F00190DDE90021CA
:100AB000881A002801DB014600E04142052900DADE
:100AC000641C01980090022CE4DB019840421CBD9C
:100AD0001CB5B94825F096FBB849096840EA0140C1
:100AE0000C2190FBF1F00090002417E0B24825F0B3
:100AF00089FBB249096840EA01400C2190FBF1F002
:100B00000190DDE90021881A002801DB014600E0A0
:100B10004142052900DA641C01980090022CE5DBB3
:100B200001981CBD1CB5A64825F06CFBA5490968B9
:100B300040EA01400C2190FBF1F00090002417E006
:100B40009F4825F05FFB9F49096840EA01400C215E
:100B500090FBF1F00190DDE90021881A002801DB0B
:100B6000014600E04142052900DA641C019800902A
:100B7000022CE5DB01981CBD1CB5934825F042FB17
:100B80009249096840EA01400C2190FBF1F0009085
:100B9000002417E08C4825F035FB8C49096840EAB1
:100BA00001400C2190FBF1F00190DDE90021881A51
:100BB000002801DB014600E04142052900DA641CFF
:100BC00001980090022CE5DB01981CBD01B581B0B5
:100BD00000200090019800EBC0004000009002E06F
:100BE0000098401E009000980028F9D10CBD01B576
:100BF00081B00020009044F2506101984843009079
:100C000002E00098401E009000980028F9D10CBD29
:100C10001CB501211F2024F029FC4FF6FF70009025
:100C200001208DF8040000208DF8060001208DF8C9
:100C3000070003208DF805006946654824F0D0F9C7
:100C40004FF6FF70009001208DF8040000208DF811
:100C5000060001208DF8070003208DF80500694685
:100C60005C4824F0BDF94FF6FF70009001208DF82C
:100C7000040000208DF8060001208DF807000320F5
:100C80008DF805006946544824F0AAF91CBD1CB52E
:100C900001217E2024F0EAFB4FF4CE50009000208A
:100CA0008DF8040001208DF8070002208DF8050062
:100CB00069464A4824F094F94FF6C7400090002056
:100CC0008DF8040001208DF8070002208DF8050042
:100CD00069463F4824F084F94FF471700090002079
:100CE0008DF8040001208DF8070002208DF8050022
:100CF0006946384824F074F94CF60340009000200F
:100D00008DF8040001208DF8070002208DF8050001
:100D10006946314824F064F94FF4266000900020C1
:100D20008DF8040001208DF8070002208DF80500E1
:100D300069462B4824F054F91CBD1FB54FF4E06000
:100D400024F070F836208DF8000000208DF80100A6
:100D50008DF8020001208DF80300684624F067F842
:100D60000121102024F0B5FB3220ADF8040040F240
:100D7000E73002900020ADF80C00ADF8060001A9A4
:100D8000184825F0F2F90121164825F0B7FE012296
:100D90001146144825F08AFE002125E0CC000020F1
:100DA000C800002000000080A9E781400048004002
:100DB000FB080020700000200004004074000020A8
:100DC0000008004088000020000C0040780000204F
:100DD0000004024000080240000C024000000240F3
:100DE0000010024000100040FE4825F007FA0121E3
:100DF000FC4825F043FA1FBD1FB54FF4E06024F016
:100E000011F837208DF8000000208DF801008DF8D2
:100E1000020001208DF80300684624F008F8012143
:100E2000202024F056FB3220ADF8040040F2E730D9
:100E300002900020ADF80C00ADF8060001A9EA48C8
:100E400025F093F90121E84825F058FE01221146CA
:100E5000E54825F02BFE0021E34825F0CFF90121DC
:100E6000E14825F00BFA1FBD00B58BB0012102202F
:100E700024F040FB01210C2024F0F8FA0322062183
:100E8000DA4824F038F903220721D84824F033F94E
:100E900003220821D54824F02EF903220921D34842
:100EA00024F029F94FF47070069002208DF81C0090
:100EB00003208DF81D0000208DF81E0001208DF804
:100EC0001F0006A9C94824F08BF8A420ADF8200023
:100ED00040F6B83009904FF48070ADF8280000203B
:100EE000ADF8220008A9C24825F03FF96020ADF80E
:100EF00004000120ADF8060000200390ADF81000BA
:100F00000121BB4825F0BAF90021B94825F076F94E
:100F100001A9B74825F0BEF901A9B54825F0F3F9B4
:100F200001A9B34825F03CFA01A9B14825F09EFA81
:100F30000121AF4825F093FD0BB000BD00B58BB08B
:100F40000121082024F0C5FA0121084624F08EFA78
:100F500002220021A74824F0CEF802220121A54850
:100F600024F0C9F802221146A24824F0C4F8022253
:100F70000321A04824F0BFF80F20069002208DF82E
:100F80001C0003208DF81D0000208DF81E0001209C
:100F90008DF81F0006A9974824F022F8BA20ADF872
:100FA000200042F2107009900020ADF82800ADF842
:100FB000220008A9904825F0D8F86020ADF8040078
:100FC0000120ADF8060000200390ADF810000121CB
:100FD000894825F053F90021874825F00FF901A928
:100FE000854825F057F901A9834825F08CF901A916
:100FF000814825F0D5F901A97F4825F037FA01216C
:101000007D4825F02CFD0BB000BD00B58BB0012153
:10101000042024F05EFA01210D2024F027FA022298
:101020000C21764824F067F802220D21734824F041
:1010300062F802220E21714824F05DF802220F218D
:101040006E4824F058F84FF47040069002208DF856
:101050001C0003208DF81D0000208DF81E000120CB
:101060008DF81F0006A9654823F0BAFFA420ADF84B
:10107000200040F6B83009904FF48070ADF8280099
:101080000020ADF8220008A95D4825F06EF8602028
:10109000ADF804000120ADF8060000200390ADF883
:1010A00010000121564825F0E9F80021544825F0A8
:1010B000A5F801A9524825F0EDF801A9504825F0FE
:1010C00022F901A94E4825F06BF901A94C4825F0F9
:1010D000CDF90BB000BD00B589B00121080424F0A2
:1010E00009FA0121084624F0C1F9032211464148BA
:1010F00024F001F8032202213E4823F0FCFF0C20DB
:10110000019002208DF8080003208DF809000020CE
:101110008DF80A0001208DF80B0001A9354823F055
:101120005FFF0020ADF818004FF6FF700790002019
:10113000ADF82000ADF81A0006A9324825F015F8E0
:101140000420ADF80C000020ADF80E00C820ADF86A
:1011500014000120ADF8100003A92A4825F0DCFB9B
:1011600000231A460321284825F073FD0121264853
:1011700025F0C4FC01221146234825F097FC0121EB
:10118000204825F07BF800211F4825F037F809B0EA
:1011900000BD00B589B00121084624F09AF901216B
:1011A000022024F096F90121032024F05FF90122A6
:1011B0000F21104823F09FFF01220321134823F041
:1011C0009AFF02220421114823F095FF02220521F3
:1011D0000E4823F090FF3820019002208DF808007F
:1011E000032015E0001000400014004000080240F9
:1011F0000004014000000240000C0040000C0240CE
:10120000000800400000014000400140000402408E
:101210008DF8090000208DF80A0001208DF80B00E0
:1012200001A9FE4823F0DCFE4FF4004001900220AB
:101230008DF8080003208DF8090000208DF80A00C1
:1012400001208DF80B0001A9F54823F0C9FE00200C
:10125000ADF818004FF6FF7007900020ADF82000A1
:10126000ADF81A0006A94FF0804024F07EFF06A9D1
:10127000EC4824F07AFF0420ADF80C000220ADF811
:101280000E001420ADF814000120ADF8100003A9E1
:10129000800725F041FB03A9E24825F03DFB02232E
:1012A0001A460321580725F0D4FC02231A460321CD
:1012B000DC4825F0CEFC0121880725F01FFC012128
:1012C000D84825F01BFC01221146900725F0EEFBC3
:1012D00001221146D34825F0E9FB0121880724F0BB
:1012E000CDFF0121CF4824F0C9FF00214FF08040FD
:1012F00024F084FF0021CB4824F080FF4FF4C0602D
:1013000023F090FD1D208DF8000003208DF80100D2
:1013100000208DF8020001208DF80300684623F0BC
:1013200086FD1C208DF8000004208DF801000020AF
:101330008DF8020001208DF80300684623F077FD48
:1013400009B000BD00B589B00121084624F0D2F8EB
:101350000121102024F08AF84FF42060019002202F
:101360008DF8080003208DF8090000208DF80A0090
:1013700001208DF80B0001A9AB4823F031FE0122BA
:101380000921A94823F0B7FE01220B21A64823F02A
:10139000B2FE0020ADF818004FF6FF700790002055
:1013A000ADF82000ADF81A0006A9A04824F0DDFE33
:1013B0000420ADF80C000020ADF80E000A20ADF8B6
:1013C00014000120ADF8100003A9984825F0A4FAF4
:1013D00000231A460321954825F03BFC0121934840
:1013E00025F08CFB01221146904825F05FFB01217E
:1013F0008E4825F083FB012211468C4825F056FBD0
:1014000001218A4824F03AFF0021884824F0F6FEA2
:101410004FF4C06023F006FD19208DF80000012074
:101420008DF8010000208DF8020001208DF80300E6
:10143000684623F0FCFC09B000BD00B589B001216D
:10144000042024F046F80121082024F00FF84FF47E
:101450004050019002208DF8080003208DF809000B
:1014600000208DF80A0001208DF80B0001A97048BA
:1014700023F0B6FD0020ADF818004FF6FF7007907E
:101480000020ADF82000ADF81A0006A9694824F044
:101490006CFE02220C21664823F02DFE02220D2153
:1014A000634823F028FE0420ADF80C000220ADF8BC
:1014B0000E00C820ADF814000120ADF8100003A9FB
:1014C0005C4825F029FA02231A460321594825F0E1
:1014D000C0FB0121574825F011FB01221146554858
:1014E00025F0E4FA0121534824F0C8FE00215148B8
:1014F00024F084FE00204F491431088001204D491A
:1015000008804FF4C06023F08DFC1E208DF8000091
:1015100004208DF8010000208DF8020001208DF8D4
:101520000300684623F083FC09B000BD00B589B014
:101530000121082023F0CDFF0121084623F096FF6A
:101540000320019002208DF8080003208DF8090087
:1015500000208DF80A0001208DF80B0001A9304809
:1015600023F03EFD0020ADF818004FF6FF70079005
:101570000020ADF82000ADF81A0006A92E4824F08E
:10158000F4FD02220021264823F0B5FD02220121AC
:10159000234823F0B0FD0420ADF80C000220ADF884
:1015A0000E00C820ADF814000120ADF8100003A90A
:1015B000214825F0B1F902231A4603211E4825F0DF
:1015C00048FB01211C4825F099FA012211461A48CE
:1015D00025F06CFA0121184824F050FE002116482D
:1015E00024F00CFE00201449143108800120124917
:1015F00008804FF4C06023F015FC32208DF8000005
:1016000004208DF8010000208DF8020001208DF8E3
:101610000300684623F00BFC09B000BD0004024043
:1016200000000240000400400010024000000140A1
:10163000000C024000080040000C004000B59BB0C8
:101640000121FE4823F012FF0121080223F052FF7E
:1016500000200290FA480390FA4804900020059078
:101660000E200690002007904FF480600890400004
:10167000099080000A9040110B9040020C900020CD
:101680000D9001200E9000200F90109002A9EE48BE
:1016900024F0FEFA0121EC4824F034FBFC200090F9
:1016A00003208DF8040000208DF807006946E74804
:1016B00023F096FC4FF44070009003208DF8040056
:1016C00000208DF807006946E14823F089FC3F209F
:1016D000009003208DF8040000208DF80700694673
:1016E000DC4823F07DFC002011904FF44030129034
:1016F00000201390149011A824F030F84FF080705F
:10170000159001208DF858008DF859000020179091
:10171000189019900E208DF8680015A9C8484C380B
:1017200023F0EDFF072301220221C5484C3824F0A5
:101730006CF8072302220321C1484C3824F065F8D5
:10174000072303220421BE484C3824F05EF8072307
:1017500004220521BA484C3824F057F80723052203
:101760000621B7484C3824F050F8072306221946C2
:10177000B3484C3824F049F807231A460821B048EA
:101780004C3824F042F8072308220921AC484C3891
:1017900024F03BF8072309220A21A9484C3824F0F9
:1017A00034F807230A220B21A5484C3824F02DF8E1
:1017B00007230B220C21A2484C3824F026F80723DB
:1017C0000C220D219E484C3824F01FF807230D22CF
:1017D0000E219B484C3824F018F807230E220F21C5
:1017E00097484C3824F011F8012195484C3824F0E2
:1017F000B7F8012192484C3824F0A7F8012190480D
:101800004C3823F0C2FF8E484C3824F05AF81BB0F5
:1018100000BD08B54FF4E06023F004FB25208DF8EF
:10182000000000208DF801008DF8020001208DF8E5
:101830000300684623F0FBFA08BD10B596B00446D5
:101840000121102023F056FE0121084623F00EFE50
:101850000121880523F00AFE4FF4C06000900220A9
:101860008DF8040000208DF806008DF80700022096
:101870008DF805006946754823F0B2FB072209215F
:10188000724823F038FC07220A21704823F033FC09
:1018900002940020ADF80C00ADF80E00ADF8100079
:1018A000ADF814000C20ADF8120002A96A4825F02A
:1018B0004FFA0121684825F0D3FA4FF4A06023F0D5
:1018C000B1FA3A208DF8180000208DF819008DF833
:1018D0001A0001208DF81B0006A823F0A8FA5A4828
:1018E000303024F033F94FF00060079000200A9068
:1018F0005A4809900A200B905748001D0890002074
:101900000C904FF480600D9000200E900F904FF4DB
:1019100080701090400211900420129003201390C8
:1019200000201490159007A94748303024F0B0F9F2
:1019300001224021484825F040FB01221021424865
:10194000303024F06CFA01213F48303024F0DAF9CD
:1019500016B010BD10B596B004460121480523F01D
:1019600085FD0121480423F0B4FD0121082023F066
:101970007DFD6020009002208DF8040000208DF88D
:1019800006008DF8070002208DF8050069463448EE
:1019900023F026FB07220521314823F0ACFB072268
:1019A00006212F4823F0A7FB02940020ADF80C007D
:1019B000ADF80E00ADF81000ADF814000C20ADF835
:1019C000120002A9274825F0C3F90121254825F076
:1019D00047FA4FF4A06023F025FA11208DF8180083
:1019E00000208DF819008DF81A0001208DF81B00D9
:1019F00006A823F01CFA1C4824F0A8F84FF0006059
:101A0000079040200A901948099050200B901548E3
:101A1000001D089000200C904FF480600D90002075
:101A20000E900F904FF4807010904002119004209F
:101A30001290032013900020149019E0070040003A
:101A40004C2001409E08002010640240000002402B
:101A5000000402400008024000100140BA080020C3
:101A6000000C024000440040A0600240040000203E
:101A7000159007A9FE4824F00BF901228021FD48AA
:101A800025F09BFA01228021FA4825F096FA0122DE
:101A90001021F74824F0C3F90121F54824F032F968
:101AA00016B010BD10B596B004460121880423F08D
:101AB00010FD0121082023F0D9FC0121480523F065
:101AC000D5FC4FF44070009002208DF804000020F7
:101AD0008DF806008DF8070002208DF80500694694
:101AE000E54823F07DFA07220821E34823F003FBB1
:101AF00007220921E04823F0FEFA02940020ADF805
:101B00000C00ADF80E00ADF81000ADF814000C207C
:101B1000ADF8120002A9D94825F01AF90121D748D9
:101B200025F09EF94FF4A06023F07CF90C208DF88D
:101B3000180000208DF819008DF81A0001208DF88A
:101B40001B0006A823F073F9C948783823F0FEFF7C
:101B50004FF00060079000200A90C94809900A20C1
:101B60000B90C648001D089000200C904FF4806038
:101B70000D9000200E900F904FF480701090400256
:101B800011900420129003201390002014901590BF
:101B900007A9B748783824F07BF801224021B748DC
:101BA00025F00BFA01224021B44825F006FA012263
:101BB0001021AF48783824F032F90121AC48783848
:101BC00024F0A0F816B010BD10B596B0044601215F
:101BD000C80423F07EFC0121042023F047FC0121EE
:101BE000480523F043FC4FF44060009002208DF83C
:101BF000040000208DF806008DF8070002208DF803
:101C0000050069469F4823F0EBF908220A219D4808
:101C100023F071FA08220B219A4823F06CFA0294FF
:101C20000020ADF80C00ADF80E00ADF81000ADF8D6
:101C300014000C20ADF8120002A9934825F088F892
:101C40000121914825F00CF94FF4A06023F0EAF847
:101C50000D208DF8180003208DF8190001208DF853
:101C60001A008DF81B0006A823F0E1F880486038C0
:101C700023F06CFF4FF00060079000200A9083482B
:101C8000099008200B908048001D089000200C90BF
:101C90004FF480600D9000200E900F9010904FF444
:101CA0000030119000201290032013900020149017
:101CB000159007A96E48603823F0EAFF0122402101
:101CC000714825F07AF9012280216F4825F075F9D5
:101CD000012210216648603824F0A1F801216448EF
:101CE000603824F00FF816B010BD70B5684C246849
:101CF000642C00DB70BD674C248804EB8404664DC3
:101D00002C446070634C248804EB84042C44A17040
:101D1000604C248804EB84042C44E2705D4C2488DD
:101D200004EB84042C4423715A4C2488641C6425DD
:101D300094FBF5F605FB1644564D2C80544C246854
:101D4000641C534D2C6000BFD4E701465048006826
:101D500008B9002070475148008800EB80004E4AC7
:101D6000104402680A60007908710120F2E7014618
:101D70004748006808B9002070474848008800EBD1
:101D80008000454A104402680A600079087143489F
:101D90000088401C642290FBF2F302FB13003F4AD0
:101DA00010803B480068401E394A10600120E3E77C
:101DB0000CB56846FFF7DBFF0020394908700CBD01
:101DC0000346012B03DB062B01DC18467047012973
:101DD00003DB062901DC0846F8E7012A03DB062AB3
:101DE00001DC1046F2E70020F0E710B52D48C07F77
:101DF00040F004002B49C8774FF4FA6026F052FBFC
:101E00002848C07F40F008002649C8774FF4FA60A0
:101E100026F048FB2348C07F40F040002149C877A6
:101E20004FF4FA6026F03EFB1E48C07F40F01000E1
:101E30001C49C8774FF4FA6026F034FB10BD10B58A
:101E400012480078114949780844104989780844B3
:101E50000E49C97808440D49097908440B49497964
:101E60000844C4B20948007802281DD010BD000003
:101E7000A060024000440040000C024000480040C6
:101E8000FB08002000080240004C0040BF02002078
:101E9000DC020020E00200200A090020E20200200B
:101EA000E502002004000020FE48C079032800D08D
:101EB00010BDFC488079A0427DD1FA484078FA49AB
:101EC0000870F8488078F9490870F648C078F849F1
:101ED0000870F4480079F7490870F2484079F649EB
:101EE0000870F1480078012808D1F04800780228ED
:101EF00004D108460078F149086028E1EA480078F2
:101F0000022807D1E9480078012803D10020EC49D4
:101F100008601CE1E448007802280AD1E348007810
:101F20000A2806D1E2480078012802D1E549086074
:101F30000DE1DD48007802280AD1DC4800780A2843
:101F400006D1DB480078022802D1DE490860FEE0B5
:101F5000D548007802280AD1D4480078092806D14B
:101F6000D3480078012802D1D7490860EFE0CE4875
:101F7000007802280AD1CD480078092806D1CC483B
:101F80000078022802D1D0490860E0E0C648007815
:101F9000022856D1C5480078022852D1C648037895
:101FA000C4480278C2480178C0480078FFF79DFE17
:101FB000C648C07F00E0C1E040F00200C349C877D6
:101FC000BB48007880B9BB480078012807D0B948E1
:101FD0000078022803D0B7480078032804D1BC4811
:101FE0000068401CBA490860B148007804280BD149
:101FF000B0480078052807D10120B6490860AE48EE
:102000000078B54908600CE0A9480078042808D198
:10201000A8480078062804D10020AE490860AF49DE
:102020000860A3480078052891D1A24800780528C7
:1020300006D10120A94908609F480078A649086098
:1020400085E09948007802281BD198480078032839
:1020500017D1994802789748017895480078FFF79A
:10206000AFFE9F4908609948C07F40F00200974941
:10207000C8779B480068002869D00120994908600A
:1020800065E089480078022823D188480078042830
:102090001FD18748007801280BD186480078012895
:1020A00007D1914908608948C07F40F00200874904
:1020B000C8777F4800788D4908607E4800788C4951
:1020C00008607D4800788B490860012086490860D7
:1020D0003DE075480078022821D174480078052831
:1020E0001DD173480078012809D172480078012871
:1020F00005D171480078012801D17F4908606C48FA
:102100000078022823D16B48007802281FD16A4842
:1021100000787849086001207849086017E0624833
:102120000078032813D16148007803280FD1604854
:10213000007803280BD1FFF758FE08E0FF205B4929
:1021400008705B4908705B4908705B49087000BF04
:10215000AEE65F480068022803D1012068490860A4
:1021600002E0002066490860704710B596B004464A
:102170000121480523F07AF90121080523F0A9F986
:1021800001210C2023F072F90420009002208DF828
:10219000040000208DF806008DF8070002208DF85D
:1021A00005006946574822F01BFF4FF4805000900D
:1021B00002208DF8040000208DF806008DF807003D
:1021C00002208DF8050069464F4822F009FF0822D9
:1021D00002214C4822F08FFF08220C214A4822F0AD
:1021E0008AFF4FF4A06022F01DFE2F208DF818000A
:1021F00005208DF819008DF81A0001208DF81B00BC
:1022000006A822F014FE0B208DF8180005208DF88A
:1022100019008DF81A0001208DF81B0006A822F085
:1022200006FE02940020ADF80C00ADF80E00ADF8EB
:102230001000ADF814000C20ADF8120002A93348CC
:1022400024F086FD0121314824F00AFE304823F0B5
:102250007DFC4FF00060079040200A902D480990C7
:102260000A200B902948001D089000200C904FF484
:1022700080600D9000200E900F9010904FF4003071
:1022800011900020129003201390002014901590BC
:1022900007A91F4823F0FCFC1D48A83823F056FC72
:1022A0003AE00000BF020020C7020020C802002060
:1022B000C9020020CA020020CB020020F802002040
:1022C000FC0200201803002020030020040000204E
:1022D00028030020E8020020F4020020F002002081
:1022E00000030020240300201C030020040300201E
:1022F000080300200C03002010030020140300201A
:1023000050020020000C0240000802400050004033
:10231000B8600240720700204FF000600790002074
:102320000A90F748099005200B90F6480890002085
:102330000C904FF480600D9000200E900F90109044
:102340004FF40030119000201290032013900020D1
:102350001490159007A9EC4823F09AFC01228021E3
:10236000E848001F24F029FE01224021E548001F13
:1023700024F023FE01221021E348A83023F04FFD72
:1023800001221021E04823F04AFD0121DE48A83057
:1023900023F0B8FC0121DC4823F0B4FC16B010BDDA
:1023A00010B596B004460121202023F0A3F80121A6
:1023B000042023F05BF80121880523F057F8C020A2
:1023C000009002208DF8040000208DF806008DF8A2
:1023D000070002208DF805006946CC4822F000FE77
:1023E00008220621C94822F086FE08220721C74894
:1023F00022F081FE02940020ADF80C00ADF80E0032
:10240000ADF81000ADF814000C20ADF8120002A9D0
:10241000BF4824F09DFC0121BD4824F021FD4FF46C
:10242000A06022F0FFFC39208DF8180003208DF801
:10243000190001208DF81A008DF81B0006A822F063
:10244000F6FCB44823F082FB4FF020600790002098
:102450000A90B148099008200B90AD48001D0890E3
:1024600000200C904FF480600D9000200E900F9093
:1024700010904FF400301190002012900320139020
:1024800000201490159007A9A24823F001FC012216
:1024900040219F4824F091FD012280219C4824F096
:1024A0008CFD012210219B4823F0B9FC01219948A1
:1024B00023F028FC16B010BD97490978964A527847
:1024C0001144954A92781144934AD2781144924A21
:1024D00012791144904A52791144C8B28E49097850
:1024E000022900D070478C49C979032900D0F9E747
:1024F00089498979814218D187494978874A117079
:1025000085498978864A11708349C978854A11704E
:1025100081490979844A11707F494979834A117048
:1025200081490978824A117006E0FF217D4A1170C5
:102530007D4A11707D4A117000BFD3E700B585B0A8
:102540000121082022F092FF0121880322F0D2FF0E
:1025500000208DF8100001208DF813000C2003904E
:1025600003A9744822F03CFD0221032024F0BEFDA3
:102570000420009000208DF8040010208DF8050044
:1025800001208DF80600684623F0C2FC08208DF873
:10259000080000208DF809008DF80A0001208DF850
:1025A0000B0002A822F043FC05B000BD70B5044644
:1025B0000D46012C0BD129465F4824F07CFC00BF5E
:1025C00040215D4824F027FD0028F9D038E0032C95
:1025D0000BD12946594824F06EFC00BF40215748D2
:1025E00024F019FD0028F9D02AE0042C0BD129464B
:1025F000534824F060FC00BF4021514824F00BFDFB
:102600000028F9D01CE0052C0DD129463D48001FBB
:1026100024F051FC00BF40213A48001F24F0FBFC8D
:102620000028F8D00CE0062C0AD12946384824F0BE
:1026300042FC00BF4021364824F0EDFC0028F9D0D0
:1026400070BD2DE9F04702240125022600274FF036
:1026500000084FF0030960193044384440443949B8
:102660000978084400F0FF0A21460420FFF79EFF86
:1026700029460420FFF79AFF31460420FFF796FF12
:1026800039460420FFF792FF41460420FFF78EFFF2
:102690002C4801780420FFF789FF51460420FFF7FA
:1026A00085FF49460420FFF781FFBDE8F087002041
:1026B0002549486225490860254908602549086080
:1026C0007047002020494862204908604FF080414F
:1026D00048622149086021490860214908601C4975
:1026E00008601C4908601F4908601F49086070475E
:1026F00000204FF080414862174908607047000091
:10270000FE0A002004500040106002400008024011
:1027100000140140286402402C03002034030020F0
:102720003503002036030020370300203803002043
:1027300039030020000C0240001001400048004016
:10274000004C0040F8020020000001406C00002016
:10275000240800408800002070000020240400406D
:1027600074000020240C0040780000200020FE4966
:102770000860FE490860704710B50020FC490870E9
:10278000002407E061210120FFF710FF3220FEF74F
:102790002EFA641C022CF5D30120F54908707A202A
:1027A000F449087010BD10B50020F34908700024EA
:1027B00007E061210320FFF7F9FE3220FEF717FA48
:1027C000641C022CF5D30120EB4908707A20EB49F8
:1027D000087010BD2DE9F14FAEB0E9A02D9000209A
:1027E0002C908DF888008DF860002E9829283DD215
:1027F000DFE800F0153D464D545B626970777E85D9
:102800008C939AA1A8FDFCFBFAF9F8F7F6F5F4F31E
:10281000F2F1F0EFEEEDECEBEAE9E8E7E600022199
:10282000E04822F03FFC88B100224FF40041DE482E
:1028300022F056FC4FF40041DB4822F040FC0446F5
:1028400000222146D9A0FDF722FF0FE00122D1038B
:10285000D54822F045FC4FF40041D34822F02FFC2C
:10286000044600222146D9A0FDF711FF3BE30122D7
:10287000DE48B0F900004142DDA0FDF708FF32E379
:102880000222DD480168DDA0FDF701FF2BE30322F2
:10289000DD480168DDA0FDF7FAFE24E30422E048EC
:1028A0000168E0A0FDF7F3FE1DE30522E0480168A2
:1028B000E0A0FDF7ECFE16E30622E2480168E2A084
:1028C000FDF7E5FE0FE30722E2480168E2A0FDF70D
:1028D000DEFE08E30822E4480168E4A0FDF7D7FE25
:1028E00001E30922E5480168E5A0FDF7D0FEFAE220
:1028F0000A22E7480168E7A0FDF7C9FEF3E20B22D0
:10290000E7480168E7A0FDF7C2FEECE20C22E948C7
:102910000168E9A0FDF7BBFEE5E20D22EB48016886
:10292000EBA0FDF7B4FEDEE20E22ED480168EDA05B
:10293000FDF7ADFED7E2EF4841890F22EEA0FDF78B
:10294000A6FED0E20121F04822F0ACFB4FF400518A
:102950001790954822F0A6FB04460221EA4822F08F
:10296000A1FB05464FF480418F4822F09BFB0646B1
:102970000421E54822F096FB4FF400411690E2480E
:1029800022F090FB07460821DF4822F08BFB8046AF
:102990004FF48041DC4822F085FB81461021DA4863
:1029A00022F080FB4FF400511590D74822F07AFBBB
:1029B00082460821D54822F075FB4FF4805117E07C
:1029C0008AE282E27AE272E266E25EE256E24AE29B
:1029D00040E236E22CE222E216E20AE2FDE1F1E117
:1029E000E4E1D7E1CFE1C2E1BAE1B2E1AAE13CE042
:1029F0001490C54822F056FB10211390C34822F0D2
:102A000051FB4FF480611290BF4822F04BFB83468C
:102A10008021BD4822F046FB4FF480711190BA48E6
:102A200022F040FB10901798CDE90B65CDE90D40E1
:102A30001698CDE90798CDE90970DDE913121598CC
:102A4000CDE9042A03910690DDE91101CDE901B138
:102A50000090AFA2282122A8109B26F0D7FC1022BC
:102A600022A9B4A0FDF766FE3DE280214D4822F088
:102A700019FB044601214B4822F014FB0546402176
:102A8000484822F00FFB06464FF400419F4822F0D1
:102A900009FB07464FF48051A74822F003FB80460C
:102AA0004FF480613F4822F0FDFA81464FF4006107
:102AB000A14822F0F7FA4FF400611790394822F04C
:102AC000F1FA82464FF48061904822F0EBFA834697
:102AD0004FF48051334822F0E5FA4FF4006116902C
:102AE0008A4822F0DFFA4FF4005115902D4822F069
:102AF000D9FA4FF480411490844822F0D3FA4FF46D
:102B000080411390274822F0CDFA4FF48071129043
:102B1000894822F0C7FA4FF400411190214822F071
:102B2000C1FACDE90B76CDE90D5410901798CDE997
:102B300007A0CDE90998DDE915211498CDE9051B19
:102B4000CDE90302DDE911121398CDE900120290DC
:102B50006FA2282122A8109B26F058FC112222A93E
:102B600076A0FDF7E7FDBEE12404004074000020DC
:102B7000910000209000002093000020920000208F
:102B80003131313131313131313131313131313135
:102B90003131313131313031313131313131313126
:102BA000000000000004024000080240524F424F63
:102BB0005420322044414E4720434841592053413C
:102BC0004E2058414E483A2020200000524F424F9C
:102BD0005420322044414E4720434841592053411C
:102BE0004E20444F3A202020000000008C0000209E
:102BF000494D553A00000000A40000204C617A6560
:102C00007220706861690000B800002054726F2063
:102C10006368616E205472756F633A200000000093
:102C2000A00000204C617A657220747261692000F6
:102C3000BC00002054726F206368616E2053617580
:102C40003A202000980000204C617A657220736160
:102C500075200000C000002054726F20646179204C
:102C600074617920312000009C0000204C617A655D
:102C700072207472756F632000000000C400002091
:102C800054726F20646179207461792032200000D1
:102C9000200300206D6F6465206261632033200093
:102CA000B000002054726F20786F617920746179D0
:102CB00020000000180300206D6F64655F63686189
:102CC000795F72756E673A20000000000C030020E7
:102CD0006E6861745F6461745F686F7020000000EB
:102CE0001C0300206D6F6465206E68617420686F3E
:102CF000702000009E0800205175616E675F74723D
:102D00006F203A200000000000100240000C02403A
:102D1000256425642564256425642564256425646B
:102D2000256425642564256425642564256425645B
:102D300000000000493A000000000240696E323A8B
:102D4000000000001222F9480168F9A0FDF79FFC7D
:102D5000C9E01322FB480168FBA0FDF798FCC2E024
:102D60001422FC480168FCA0FDF791FCBBE04FF485
:102D70000061FE4822F096F9044615222146FCA087
:102D8000FDF785FCAFE0FE48018A1622FDA0FDF7A5
:102D90007EFCA8E04FF40071F44822F083F9044669
:102DA00017222146FAA0FDF772FC9CE04FF4007157
:102DB000FB4822F077F9044618222146F9A0FDF7D6
:102DC00066FC90E02021E94822F06CF904461922C3
:102DD0002146F8A0FDF75BFC85E04FF48071F048D8
:102DE00022F060F904461A222146F6A0FDF74FFCB6
:102DF00079E04021DD4822F055F904461B222146A6
:102E0000F4A0FDF744FC6EE00121F64822F04AF9F7
:102E100004461C222146F4A0FDF739FC63E0FDF7CF
:102E200057FE04461D222146F1A0FDF730FC5AE072
:102E3000FDF721FE04461E222146F1A0FDF727FCE6
:102E400051E0FDF799FE04461F222146F0A0FDF750
:102E50001EFC48E0FDF766FE044620222146F0A055
:102E6000FDF715FC3FE04021CD4822F01BF9044658
:102E700021222146EEA0FDF70AFC34E02222F04890
:102E80000168F0A0FDF703FC2DE02322F048016863
:102E9000F0A0FDF7FCFB26E08021C14822F002F9FA
:102EA000044624222146EEA0FDF7F1FB1BE025227B
:102EB000F0480168F0A0FDF7EAFB14E02622F14893
:102EC0000168F1A0FDF7E3FB0DE02722F24801685D
:102ED000F2A0FDF7DCFB06E02822F3480168F3A02E
:102EE000FDF7D5FB00BF00BF2FB0BDE8F08F10B5D8
:102EF0000121F14822F006FF10BD01B5EF4800683E
:102F00000099884203DD0020EC49086004E0EB48AA
:102F10000068401CE9490860E8480068FFF75AFC6F
:102F200008BD01B59DF80000052801DA002008BDA4
:102F30009DF80000FBE730B504461D4624B9E04883
:102F40000078E04BD87011E0002C07DDE0B2FFF70D
:102F5000E8FFDC4BD8700020987007E06342D8B2DD
:102F6000FFF7DFFFD74BD8700120987021B9D44804
:102F70000078D44BD87111E0002907DDC8B2FFF703
:102F8000D0FFD04BD8710120987107E04B42D8B2E6
:102F9000FFF7C7FFCB4BD8710020987122B9C84802
:102FA0000078C84BD87211E0002A07DDD0B2FFF7D5
:102FB000B8FFC44BD8720120987207E05342D8B2D0
:102FC000FFF7AFFFBF4BD8720020987225B9BC48FD
:102FD0000078BC4BD87311E0002D07DDE8B2FFF795
:102FE000A0FFB84BD8730120987307E06B42D8B2AA
:102FF000FFF797FFB34BD8730020987330BDB14AE9
:10300000D070D071D072D0737047AE48C0780328AA
:103010000DDAAC48C079032809DAAA48C07A032837
:1030200005DAA848C07B032801DA01207047002098
:10303000FCE70120A44908607047A448006847F2F3
:103040003051884201D0012070470020FCE710B5C4
:10305000FFF792FB10BD9E48B0F900004042704758
:10306000B5EEC00AF1EE10FA09D29A48D0ED000A86
:1030700070EE600AFDEEE00A10EE900A7047954887
:10308000D0ED000A70EE200AFDEEE00A10EE900A84
:10309000F4E710B52DED0A8B044624B99FED8E0A96
:1030A000BDEC0A8B10BD002C25DA8C48006826F098
:1030B00002F841EC190B204625F0FDFF41EC1C0BFA
:1030C0009FED870B53EC102B25F014FF41EC1B0BED
:1030D0009FED850B53EC102B25F006FF41EC1A0BEE
:1030E00053EC192B25F078FF41EC180B26F03EF835
:1030F00000EE100AD4E77948006825F0DCFF41ECC7
:10310000190B204625F0D7FF41EC1C0B9FED740BEB
:1031100053EC102B25F0EEFE41EC1B0B9FED720BD8
:1031200053EC102B25F03FFEE2E00000DC02002013
:10313000636F756E745F646174615F75617274341E
:1031400020000000F8020020626C6F636B5F706803
:10315000613A2000F40200207365655F52315F74AC
:1031600072656E5F72756E6720000000001002408D
:1031700043425F4E616E675F7472616920000000B8
:103180009E0800205175616E675F74726F32200077
:1031900043425F4E616E675F7068616900000000C6
:1031A00000080240636865636B5F686F705F313A67
:1031B00000000000636865636B5F686F705F323AA0
:1031C00020000000636865636B5F686F705F333A6F
:1031D00020000000636865636B5F686F705F343A5E
:1031E00020000000000C0240537461727400000063
:1031F000454E434F4445525F465228292000000067
:10320000454E434F4445525F464C2829200000005C
:10321000454E434F4445525F52522829200000003A
:10322000454E434F4445525F524C28292000000030
:1032300063687579656E5F646F695F543320000061
:103240000003002069645F6461745F686F70200030
:1032500004030020646F5F6C656368200000000059
:10326000636865636B5F6461745F686F705F54323D
:1032700020000000E80000204761705468616E671C
:1032800020000000D80200206E67616E675F7175D4
:10329000615F6F33200000004C0200206B745F6C94
:1032A0006162616E20000000400300206368656376
:1032B0006B5F74696D652000A0600240840000208F
:1032C0008803002004000020EC030020B00300204D
:1032D0008C00002048030020000000009C03002018
:1032E000333333333333C33F9A9999999999C93F0B
:1032F00041EC1A0B53EC192B25F06EFE41EC180B28
:1033000025F034FF00EE100ACAE6F0EE400AF5EEB2
:10331000C00AF1EE10FA02DBB0EE600A7047B1EEBF
:10332000600AFBE70146002901DB08467047484276
:10333000FCE70146FE48D0ED000AF1EE600AFD48C8
:10334000D0ED001A80EEA11A00EE901AF8EEE01A05
:10335000F748D0ED000A41EE210AB0EE600AFDEE1A
:10336000C00A10EE900A7047B0EE402ADFEDF22A54
:10337000B0EE620AB5EEC02AF1EE10FA03D2F1EE19
:10338000422AB0EE622AF5EEC00AF1EE10FA03D23C
:10339000F1EE602AF0EE620AB5EEC01AF1EE10FA14
:1033A00003D2F1EE412AB0EE621AF5EEC01AF1EE48
:1033B00010FA03D2F1EE612AF0EE621AB4EEC02ADE
:1033C000F1EE10FA01DDB0EE420AF4EEC00AF1EEC1
:1033D00010FA01DDB0EE600AB4EEC01AF1EE10FA98
:1033E00001DDB0EE410AF4EEC01AF1EE10FA01DD93
:1033F000B0EE610A7047D14800687047D048006855
:10340000704710B52DED028BB0EE408ACD480068B4
:1034100047F2305188420ED11FED510ACA4880ED63
:10342000000ACA4880ED000AC94880ED000AC94870
:1034300080ED000A4AE0C8480068C8490968401A97
:10344000C0490968081A00EE100AB8EEC00AF0EE8A
:10345000408AC348D0ED000A88EEA00AC148D0EDEA
:10346000000A30EE200AC048D0ED000A20EE200A03
:10347000F0EE408AB0EE680A26F02EFBF0EE000A6D
:1034800020EE200AB04880ED000AB0EE680A26F06F
:103490007BFAF0EE000A20EE200AAC4880ED000A2C
:1034A000A94890ED000AB148D0ED000A30EE200A9C
:1034B000A84880ED000AA54890ED000AAB48D0ED81
:1034C000000A30EE600AA24880ED000AB5EEC08A1C
:1034D000F1EE10FA73D0A6480068052820D2DFE884
:1034E00000F003203A546F009A4890ED000A30EE45
:1034F000080A80ED000A964890ED000A30EE480A6E
:1035000080ED000A914890ED000A30EE080A80ED47
:10351000000A8D4890ED000A30EE480A80ED000A5E
:1035200068E08B4890ED000A30EE480A80ED000A12
:10353000864890ED000A30EE080A80ED000A8248C5
:1035400090ED000A8B48D0ED000A08EE600A7E4834
:1035500080ED000A4EE07F4890ED000A30EE080A48
:1035600080ED000A794890ED000A8248D0ED000A0B
:1035700008EE200A754880ED000A734890ED000AB5
:1035800030EE480A80ED000A34E0724890ED000AFF
:1035900030EE080A80ED000A6D4890ED000A75488B
:1035A000D0ED000A08EE600A694880ED000A66481E
:1035B00090ED000A30EE480A80ED000A1AE01AE0A9
:1035C000644890ED000A6B48D0ED000A08EE200A2E
:1035D000604880ED000A5E4890ED000A30EE480A2F
:1035E00080ED000A594890ED000A30EE080A80ED9F
:1035F000000A00BF00BF5448D0ED001A534890EDB8
:10360000001A5348D0ED000A524890ED000AFFF727
:10361000ABFE5948D0ED000AF8EEE00A80EE801AC1
:10362000BDEEC10A554880ED000A44480068534980
:103630000968884203DD514800684049086001205C
:103640004F490860BDEC028B10BD10B50446002048
:103650004C4908604C480460FCB9002037490860B8
:103660001FEDE30A414880ED000A47F2305035492A
:103670000860464908601FEDE80A454880ED000AE9
:1036800000203B490860434908602D4908604249D1
:1036900008601FEDEF0AFFF7B4FE10BD10B53C48FF
:1036A00090ED000AB5EEC00AF1EE10FA05D13048EF
:1036B000006810B93748006890B11FEDF90A344826
:1036C00080ED000A00202A4908603249086022483B
:1036D0000068224908602E4890ED000AFFF791FE2D
:1036E00010BD1348C0ED000A124880ED000A704773
:1036F00070B52DED028B05460C46B0EE408A1148A0
:103700000068A8420BD11F480068A04207D11748A3
:1037100090ED000AB4EE480AF1EE10FA4FD01948C5
:1037200004600648006810B905200449086035E0C7
:1037300080030020840300206F12833A9C03002042
:10374000C8030020B0030020E8030020E4030020A9
:10375000E0030020DC030020D0030020BC03002095
:10376000600300206C03002090030020C4030020AD
:10377000980300205003002044030020A4030020ED
:1037800094030020A0030020A8030020B40300201D
:10379000C0030020B8030020EC030020FA480068B2
:1037A000FA490860FA4880ED008AFA48056000206E
:1037B000F9490860F94890ED000AFFF722FEBDECD8
:1037C000028B70BD70B52DED028B0446B0EE408AC1
:1037D0000D46F3480068A0420BD1F04890ED000A76
:1037E000B4EE480AF1EE10FA03D1EE480068A842A0
:1037F0003AD0E848006847F23051884225D1282065
:10380000E9490860E948006810B90A20E7490860FA
:1038100047F23050844218DA0120E5490860B5EEDD
:10382000C08AF1EE10FA03DDD7480068A04208DC38
:10383000B5EEC08AF1EE10FA07D2D3480068A04274
:1038400003DAB1EE480AB0EE408AD5480460D548A4
:103850000560D24880ED008A0020CF490860CF483B
:1038600090ED000AFFF7CDFDBDEC028B70BD10B5E9
:103870002DED028BB0EE408A04462146B0EE480A98
:1038800047F23050FFF79EFFBDEC028B10BD70B5C4
:1038900004460D469FEDC70A29462046FFF728FF3C
:1038A00070BD70B52DED088BF0EE408A0446B0EE89
:1038B000608AB0EE419AC04890ED000AB8EEC00AA6
:1038C000B4EE680AF1EE10FA0DD1B7480068A042D4
:1038D00009D1B34890ED000AB8EEC00AB4EE480A28
:1038E000F1EE10FA5ED0BDEEE80AB34880ED000AB2
:1038F000A54991ED000AB8EEC00A38EEC00ABDEE47
:10390000C00A10EE100A9FEDAB0A2146FFF7F0FE49
:103910009D4890ED000AB8EEC00A38EE400ABDEEB0
:10392000C00A10EE105A002D01DB284600E0684264
:10393000642814DD944890ED000AB8EEC00AB4EE95
:10394000C08AF1EE10FA02DDB0EE490A01E0B1EEF4
:10395000490A10EE101A084625F0DDFB13E08A48EC
:1039600090ED000AB8EEC00A38EE400A10EE101AC8
:10397000084625F0D0FB41EC1B0B9FED900B53EC60
:10398000102B25F0B7FA41EC1A0B25F0EFFB09EEEE
:10399000900A0021B0EE690AFDEEC80A10EE900A06
:1039A000FFF710FFBDEC088B70BD10B580480068B4
:1039B00001283DDD7A490968734A1268881AFFF7C1
:1039C000B1FC0A280CDA7A4801680068401C784A81
:1039D0001060B1F5FA7F2BDD0020FFF736FE10BD39
:1039E00073480068FA2808DD05206F4908606F49B0
:1039F0000860FB206E49086004E005206A49086001
:103A00006A4908606048006865490968884205DDC0
:103A1000BFEE000A614880ED000A04E0B7EE000A3C
:103A20005E4880ED000A5D4890ED000AFFF7E9FC72
:103A300000BFD4E710B52DED028B554890ED000A7C
:103A4000B5EEC00AF1EE10FA08D15848006828B166
:103A50005348006847F23051884202DBBDEC028BCC
:103A600010BD4E4890ED000AB5EEC00AF1EE10FA16
:103A70007ED04848006847F23051884279D14748A3
:103A800090ED000AB5EEC00AF1EE10FA08DD4448E8
:103A900000684C490968401A3B490968884210DBB4
:103AA0003E4890ED000AB5EEC00AF1EE10FA6AD277
:103AB0003B4800684349096808443349096888421B
:103AC00061DD3B48006803285CDA354909682E4A05
:103AD0001268881AFFF726FC082816DA30480068B2
:103AE000394908600020314908602F4908609FED7E
:103AF000310A2A4880ED000A02202D490860274833
:103B000090ED000AFFF77DFCA8E7254800681E49F4
:103B1000096888425CDD254890ED000AB8EEC00ACD
:103B20001E48D0ED000A60EE200A264890ED000AFB
:103B3000B8EEC00AC0EE801AB0EE611AB0EE410ACB
:103B4000FFF7E3FB164909680F4A1268881AFFF766
:103B5000E9FB00EE900AB8EEE01A1C48D0ED000A2E
:103B600040EE010A114890ED000AB8EEC00A01E0EB
:103B7000CBE068E080EE801AB0EE418AB0EE480AF1
:103B8000FFF73FFCC0E058E0D0030020BC0300205A
:103B9000C4030020B0030020AC030020C0030020B9
:103BA000B803002098030020A00300209C030020FD
:103BB000C803002000000000B40300207B14AE47BF
:103BC000E17A743F7C030020CC0300205C030020DA
:103BD000FE4890ED000AB8EEC00AFD48D0ED000A9C
:103BE00060EE200AFB4890ED000AB8EEC00AC0EE75
:103BF000801AB0EE611AB0EE410AFFF786FBF64973
:103C00000968F64A1268881AFFF78CFB00EE900AE2
:103C1000B8EEE01AF248D0ED000A50EE410AEB4847
:103C200090ED000AB8EEC00A80EE801AB0EE418A2C
:103C3000B0EE480AFFF7E5FB66E0E54890ED000AC4
:103C4000FFF7DFFB60E0E24890ED000AB5EEC00A46
:103C5000F1EE10FA1FDDE04890ED000AB8EEC00A60
:103C6000DA48D0ED000AF8EEE00AD94890ED001AE3
:103C700000EEC10ADB48D0ED000AF8EEE00A70EE73
:103C8000600AD64890ED000AB8EEC00AF4EEC00A09
:103C9000F1EE10FA27D3CE4890ED000AB5EEC00A37
:103CA000F1EE10FA2BD2CC4890ED000AB8EEC00A23
:103CB000C648D0ED000AF8EEE00AC54890ED001ABB
:103CC00000EEC10AC748D0ED000AF8EEE00A70EE37
:103CD000200AC24890ED000AB8EEC00AF4EEC00A0D
:103CE000F1EE10FA0BDDBC490968BC4A1268881A6B
:103CF000FFF7CFF9B0EE408AFFF783FB04E0B4484A
:103D000090ED000AFFF77DFBA8E6B7490968B34AC2
:103D10001268881AFFF7BDF9B0EE408AFFF771FB11
:103D200000BF9BE600B5B1480068022815DA1FED18
:103D30005F0AAF4880ED000A1FED620AA44880EDDB
:103D4000000A0020AB49086047F23050AA490860D9
:103D5000AA4908600020A0490860A9480068401CE2
:103D6000A7490860A7490968884204DAA64800689C
:103D7000FFF745F90EE0A3480068A1490860A34891
:103D8000006820B1A0480068FFF739F902E0002080
:103D9000FFF735F900BD9A4A1268521C984B1A6019
:103DA000824207DD894A12680A44884B1A60002261
:103DB000934B1A6070472DE9F041FFF74CF98749A2
:103DC0000860FFF7F2FD92480068002821DD7F4877
:103DD00000688F49096888422AD07C4800688C496D
:103DE000096888420EDA794800688A490968884279
:103DF0001EDA76480068FFF79CFA04460121FFF7B7
:103E0000CAFF15E04FF0FF3183480068FFF7C3FF9A
:103E10000EE06E480068002806DD6FF001017F4863
:103E20000068FFF7B8FF03E0FFF77CFFBDE8F08113
:103E30007B48006869490968884205D0FFF7FAFDA8
:103E4000664800687649086076480068F0B35F48C5
:103E5000D0ED000AF8EEE00A734890ED001A60EE2B
:103E6000810AB0EE600AFFF7FBF804465748D0ED30
:103E7000000AF8EEE00A6D4890ED001A60EE810A43
:103E8000B0EE600AFFF7ECF805465048D0ED000AA6
:103E9000F8EEE00A664890ED001A60EE810AB0EE96
:103EA000600AFFF7DDF806464848D0ED000AF8EE54
:103EB000E00A604890ED001A60EE810AB0EE600AF8
:103EC000FFF7CEF8074623462A4600E002E03146D7
:103ED000FFF731F800BFA9E7574801680068401CA8
:103EE000554A1060462907D25448408B5449096806
:103EF0000844534908600BE0514800684621B0FB74
:103F0000F1F05049086000204B4908604C490860B6
:103F10004D4801680068401C4B4A1060462907D292
:103F20004648008B494909680844484908600BE045
:103F3000464800684621B0FBF1F045490860002082
:103F40004149086041490860424801680068401CD6
:103F5000404A1060462907D23848808A3E4909689D
:103F600008443D4908600BE03B4800684621B0FB2F
:103F7000F1F03A4908600020364908603649086087
:103F8000374801680068401C354A1060462907D24E
:103F90002A48C08A334909680844324908600BE05E
:103FA000304800684621B0FBF1F02F49086000203E
:103FB0002B4908602B4908602C4801680068401CA8
:103FC0002A4A106032295AD21C4851E09C03002032
:103FD000C00300207C030020B8030020D003002091
:103FE0005C03002078030020BC030020C8030020ED
:103FF000C403002098030020B0030020B403002075
:10400000AC0300208C03002088030020EC03002078
:10401000A0030020A4030020D8030020A803002050
:10402000D403002094030020E8030020E4030020D0
:10403000E0030020DC0300203C0500209E08002057
:10404000400500209800002044050020480500207D
:104050009C0000204C05002050050020A4000020FA
:104060005405002058050020A00000205C05002019
:104070004089FD4909680844FB4908600BE0FA489B
:1040800000683221B0FBF1F0F84908600020F849DF
:104090000860F5490860F74801680068401CF54A67
:1040A0001060322907D2F448C088F44909680844EE
:1040B000F24908600BE0F14800683221B0FBF1F0F2
:1040C000EF4908600020EB490860EC490860ED48C2
:1040D00001680068401CEB4A1060322907D2E648AC
:1040E0008088E94909680844E74908600BE0E64828
:1040F00000683221B0FBF1F0E44908600020E1499A
:104100000860E1490860E24801680068401CE04A34
:104110001060462907D2D8480089DE49096808445A
:10412000DC4908600BE0DB4800684621B0FBF1F099
:10413000D94908600020D6490860D6490860D748A8
:1041400001680068401CD54A1060462907D2CA4859
:104150000088D34909680844D14908600BE0D04879
:1041600000684621B0FBF1F0CE4908600020CB4941
:104170000860CB490860CC4801680068401CCA4A06
:104180001060462907D2BC484088C84909680844DD
:10419000C64908600BE0C54800684621B0FBF1F055
:1041A000C34908600020C0490860C04908607047E2
:1041B000C0480068B5490968401A03EE100AB8EE15
:1041C000C33AF0EE430ABC4890ED003A23EE203AA1
:1041D000F0EE432AB7480068B8490968884203DA14
:1041E000B6480068B3490860B2480068B449096835
:1041F000884203DDB2480068AE490860BDEEE03A8F
:1042000013EE100A002801DB014600E041420429B8
:104210007EDDAC4890ED003A33EE203A80ED003A76
:1042200090ED003ADFEDA83AB4EEE33AF1EE10FA81
:1042300003DD9FEDA53A80ED003AA24890ED003AEB
:10424000DFEDA23AB4EEE33AF1EE10FA03D29FEDBD
:104250009F3A80ED003A9E4890ED003A9948D0EDA3
:10426000003A23EE232A9B4890ED003A30EEC33A01
:104270009948D0ED003A63EE231A9648C0ED000A43
:1042800032EE823A33EE213A944880ED003AF5EE70
:10429000C00AF1EE10FA03D201209149887502E0BC
:1042A00000208F4988758D4991ED003ABDEEC33AE3
:1042B00013EE100A002801DB014600E0414203EE44
:1042C000101AB8EEC33AF0EE083A23EE230A8548F6
:1042D00090ED003AB8EEC33AB4EEC30AF1EE10FA2C
:1042E00005DD90ED003AB8EEC33AB0EE430AB3EE06
:1042F000043AB4EEC30AF1EE10FA03D2B3EE043A74
:10430000B0EE430A784890ED003A30EE431A00E0F0
:1043100029E09FED763AB4EEC31AF1EE10FA08DD0B
:1043200090ED003ADFED713A33EE233AB0EE430AF6
:104330000FE09FED6F3AB4EEC31AF1EE10FA08D217
:10434000694890ED003ADFED693A33EE633AB0EE3A
:10435000430A654880ED000ABCEEC03A13EE100A2D
:104360005F49C87513E09FED633A564880ED003A07
:104370009FED603A574880ED003A02205849C875D1
:10438000002088759FED5B3A574880ED003A7047F2
:10439000594800683A490968401A03EE100AB8EE15
:1043A000C33AB0EE430A554890ED003A23EE003A86
:1043B000F0EE432A5048006851490968884203DA00
:1043C0004F4800684C4908604B4800684D490968EF
:1043D000884203DD4B48006847490860BDEEC03A9B
:1043E00013EE100A002801DB014600E041420429D7
:1043F00039DD454890ED003A33EE003A80ED003A61
:1044000090ED003ADFED303AB4EEE33AF1EE10FA17
:1044100003DD9FED2D3A80ED003A3B4890ED003AE8
:10442000DFED2A3AB4EEE33AF1EE10FA03D29FED53
:10443000273A80ED003A354890ED003A3248D0ED09
:10444000003A23EE232A324890ED003A30EE433A08
:104450003048D0ED003A63EE231A2D4880ED000A73
:1044600032EE823A58E0C6E060050020A800002045
:104470005C050020740500209E08002078050020BF
:10448000BC0000207C05002080050020B800002032
:104490008405002088050020B00000209C05002035
:1044A000A0050020C0000020A4050020A8050020D1
:1044B000C400002060040020BC0400205804002038
:1044C0005C040020C80400200000FA430000FAC386
:1044D000C0040020CC040020C4040020D00400202C
:1044E0000400002098040020D40400209A99193F69
:1044F0009A9919BF000000006C040020D804002025
:104500006404002068040020E4040020DC0400208F
:10451000E8040020E004002033EE213AFB4880ED5F
:10452000003AB5EEC00AF1EE10FA03D20020F849C5
:10453000887402E00120F6498874F44991ED003A4C
:10454000BDEEC33A13EE100A002801DB014600E07D
:10455000414203EE101AB8EEC33AF0EE083A63EEA9
:10456000230AEC4890ED003AB8EEC33AF4EEC30AE1
:10457000F1EE10FA05DD90ED003AB8EEC33AF0EE38
:10458000430AB3EE043AF4EEC30AF1EE10FA03D292
:10459000B3EE043AF0EE430ADF4890ED003A30EE15
:1045A000C31A1FED2E3AB4EEC31AF1EE10FA08DD6D
:1045B00090ED003A5FED333A33EE233AF0EE430AE2
:1045C0000FE01FED353AB4EEC31AF1EE10FA08D23F
:1045D000D14890ED003A5FED3B3A33EE633AF0EEAE
:1045E000430ACD48C0ED000ABCEEE03A13EE100AD3
:1045F000C749C87413E01FED413AC84880ED003A3E
:104600001FED443AC64880ED003A0220C049C87404
:10461000012088741FED493ABF4880ED003A704789
:10462000C0480068C0490968884203DABE4800688B
:10463000BC490860BB480068BC490968884203DD82
:10464000BA480068B7490860B9490968B54A1268AC
:10465000881A002801DB014600E04142042931DDCF
:10466000B3480068AF490968884203DD0020A849C3
:10467000887602E00120A6498876AD490968A94AF2
:104680001268881A002801DB014600E0414201EB74
:1046900081018900A74A116010460068A64909688F
:1046A000884203DDA448006811460860A1480068FC
:1046B000642802DA64209F4908609E480078944983
:1046C000C87602E000209249C87670479B4800688F
:1046D0009B490968884203DA99480068974908604D
:1046E0009648006897490968884203DD9548006844
:1046F0009249086094490968904A1268881A00280B
:1047000001DB014600E04142042933DD8E480068A8
:104710008A490968884204DD00207D4981F82A0021
:1047200003E001207A4981F82A0087490968834A11
:104730001268881A002801DB014600E04142162277
:1047400051437C4A116010460068804909688842DC
:1047500003DD7E480068114608607648006832280C
:1047600002DA32207349086072480078684981F89B
:104770002B0003E00020664981F82B00704710B53C
:104780007348006873490968884203DA7148006811
:104790006F4908606E4800686F490968884203DD08
:1047A0006D4800686A4908606C4B1B68684C246857
:1047B0001A1B002A01DB134600E05342022B4EDD98
:1047C0005B4B1B68664C2468191B002901DB0B46F8
:1047D00000E04B42142B42DA5B4B1B68614C2468AF
:1047E000181B002801DB034600E04342142B36DA95
:1047F0005A48006856490968884204DD0120444946
:1048000081F8260003E00020414981F82600534941
:1048100009684F4A1268881A002801DB014600E047
:10482000414201EB4101434A1160104600684E4984
:104830000968884203DD4C480068114608603D481D
:104840000068322802DA32203A4908603948007894
:104850002F4981F8270000204449086006E0002025
:104860002B4981F8270001204049086010BD322003
:10487000284908603E490860704750202549086073
:104880003B49086070478C2022490860384908601D
:104890007047E6201F49086035490860704700B539
:1048A0000246FFF7F0FF334802603348026000BD64
:1048B00000B50246FFF7DBFF2E4802602E4802607B
:1048C00000BD00B50246FFF7D8FF2A4802602A481B
:1048D000026000BD00B50246FFF7DBFF254802601D
:1048E0002548026000BD70B5FA20134908601C48D5
:1048F00000680C490860FA201449086019480068EB
:104900000E49086000201D4908606FE0EC0400209B
:104910000400002094040020F0040020E40400209F
:10492000E8040020840400207C040020800400208F
:10493000C0000020F8040020A00400209004002003
:10494000880400208C040020C4000020A40400205F
:10495000780400207004002074040020B0000020BF
:10496000B4010020B80100209C0400205404002061
:1049700098040020600400206C0400201C04002027
:1049800006E0012023F08EFDFCF76CF800B927E06B
:10499000FC4B1B68FC4C2468191B002901DB0B46EF
:1049A00000E04B42F94C2468F94D2D68621B02EB84
:1049B000D2746410A342E4DCF64B1B68F64C246806
:1049C0001B1B032493FBF4F4F44B1B68F44D2D687C
:1049D000581B002801DB034600E043429C42D0DB29
:1049E00000BFF0480068401CEE490860ED480068D0
:1049F0003228C5DB70BDEC48006878B9EB48006828
:104A000060B9EB48006848B9EA48006830B9EA483C
:104A1000C07F40F08000E849C8773DE0E248006888
:104A200001280FD1E148006860B9E148006848B941
:104A3000E048006830B9E048C07F40F02000DE491F
:104A4000C87729E0D8480068012810D1D748006805
:104A500001280CD1D648006848B9D648006830B95A
:104A6000D548C07F40F08000D349C87714E0CE48D5
:104A70000068012810D1CD48006801280CD1CC482D
:104A80000068012808D1CB48006828B9CA48C07F0F
:104A900040F02000C849C877704710B5C248006888
:104AA000002852D1C148006800284ED1C048006893
:104AB00000284AD1BF480068002846D123E00421DD
:104AC000BE4820F0EFFA70B98021BD4820F0EAFA24
:104AD00048B99FEDBC1ADFEDBC0A0E209FEDBB0A62
:104AE000FEF7DFFE08E09FEDB71ADFEDB70A0F20F3
:104AF0009FEDB70AFEF7D5FE012023F0D3FCFBF7AC
:104B0000B1FF00B906E04FF48071B24820F0CAFA54
:104B10000028D4D000BFFFF76EFF9FEDAA1ADFED8B
:104B2000AA0A0A209FEDAC0AFEF7BBFE06E00120B0
:104B300023F0B8FCFBF796FF00B905E004219F487D
:104B400020F0B0FA0028F2D006E19748006801286A
:104B500051D19648006800284DD195480068D8BBCF
:104B600094480068C0BB23E00421944820F09AFADE
:104B700070B98021924820F095FA48B99FED911ABA
:104B8000DFED910A0E209FED910AFEF78AFE08E004
:104B90009FED8C1ADFED8C0A0F209FED8D0AFEF73A
:104BA00080FE012023F07EFCFBF75CFF00B906E0ED
:104BB0004FF48071874820F075FA0028D4D000BFE8
:104BC000FFF719FF9FED7F1ADFED7F0A0A209FEDA7
:104BD000820AFEF766FE07E00DE0012023F062FC8A
:104BE000FBF740FF00B905E00421744820F05AFAB1
:104BF0000028F2D0B0E06C480068012853D16B481F
:104C0000006801284FD16A480068E0BB6948006825
:104C1000C8BB24E04FF400616E4820F043FA70B93D
:104C20000121674820F03EFA48B99FED661ADFED92
:104C3000660A0E209FED690AFEF733FE08E09FED3D
:104C4000611ADFED610A0F209FED610AFEF729FE70
:104C5000012023F027FCFBF705FF00B906E04FF425
:104C600080715C4820F01EFA0028D3D000BFFFF707
:104C7000C2FE9FED541ADFED540A0A209FED580A38
:104C8000FEF70FFE07E00EE0012023F00BFCFBF720
:104C9000E9FE00B906E04FF400614E4820F002FA48
:104CA0000028F1D058E040480068012854D13F481E
:104CB0000068012850D13E48006801284CD13D4889
:104CC0000068C8BB24E04FF40061424820F0EAF9D4
:104CD00070B901213A4820F0E5F948B99FED391A39
:104CE000DFED390A0E209FED3D0AFEF7DAFD08E000
:104CF0009FED341ADFED340A0F209FED350AFEF7E1
:104D0000D0FD012023F0CEFBFBF7ACFE00B906E09E
:104D10004FF480712F4820F0C5F90028D3D000BF90
:104D2000FFF769FE9FED271ADFED270A0A209FEDA6
:104D30002C0AFEF7B6FD07E00EE0012023F0B2FBDF
:104D4000FBF790FE00B906E04FF40061214820F027
:104D5000A9F90028F1D000BF0020FEF776FC10BDB5
:104D60002DE9F04105460E46FFF78DFD1D48006810
:104D7000F5301D4908601D480068F5301C49086081
:104D800000244DE0C000002084040020B401002075
:104D90007C040020B801002088040020C40000200A
:104DA000900400201C040020500200205402002027
:104DB000580200205C020020040000200010024085
:104DC000000402403333333F00006144008009C4D3
:104DD000000061C4000002400000164300C0C1C4CE
:104DE0000080D444580400206004002064040020A3
:104DF0006C04002006E0012023F054FBFBF732FE98
:104E000000B90BE0F9490968F94A1268881A0028C4
:104E100001DB014600E041420F29ECDC00BF641CCD
:104E2000322CE7DB9FEDF31A00EE106AF8EEC00AB1
:104E3000122000EE105AB8EEC00AFEF732FD002430
:104E400010E006E0012023F02DFBFBF70BFE00B97C
:104E500006E04FF48071E84820F024F90128F1D0F1
:104E600000BF641C962CECDB9FEDE21A00EE106A8A
:104E7000F8EEC00A0C2000EE105AB8EEC00AFEF799
:104E800010FD002417E006E0012023F00BFBFBF7E8
:104E9000E9FD00B90DE04FF48071D74820F002F928
:104EA0000128F1D04FF48051D34820F0FBF80028BE
:104EB000EAD000BF641C962CE5DB0020FEF7C5FBA2
:104EC000E620CE490860CE480068401DC849086009
:104ED000002415E006E0012023F0E4FAFBF7C2FD10
:104EE00000B90BE0C1490968C14A1268881A002854
:104EF00001DB014600E041421E29ECDC00BF641CDE
:104F0000322CE7DB4FF42F7023F0CCFA1FED531A4D
:104F100000EE106AF8EEC00A162000EE105AB8EE45
:104F2000C00AFEF7BEFC40F2A46023F0BBFA0024E6
:104F300015E006E0012023F0B5FAFBF793FD00B978
:104F40000BE08021AF4820F0ADF8012805D1012108
:104F5000AC4820F0A7F80128ECD000BF641CB4F5E1
:104F60007A7FE6DB40F2145023F09CFA3220A3490A
:104F70000860A3480068401D9D4908609FED9D1A88
:104F800000EE106AF8EEC00A192000EE105AB8EED2
:104F9000C00AFEF786FC00240FE006E0022023F0A2
:104FA00081FAFBF75FFD00B905E00121964820F08A
:104FB00079F80128F2D000BF641C40F22620844218
:104FC000EBDB9FED8C1A00EE106AF8EEC00A0A20A7
:104FD00000EE105AB8EEC00AFEF763FC002410E0A1
:104FE00006E0012023F05EFAFBF73CFD00B906E085
:104FF0004FF40051844820F055F80128F1D000BF4B
:10500000641CB4F57A7FEBDB0020FEF71EFBE62084
:105010007E4908607E480068401D7E490860322055
:105020007649086076480068401D71490860002490
:1050300015E006E0012023F035FAFBF713FD00B977
:105040000BE075490968734A1268881A002801DB69
:10505000014600E041421429ECDC00BF641CFA2C3C
:10506000E7DB9FED6E1A00EE106AF8EEC00A102022
:1050700000EE105AB8EEC00AFEF713FC002416E04A
:1050800006E0012023F00EFAFBF7ECFC00B90CE07F
:105090004FF40061584820F005F8012805D104219B
:1050A00059481FF0FFFF0128EBD000BF641C40F6F9
:1050B000F6108442E4DBFDF704FB06E0052023F054
:1050C000F1F9FBF7CFFC00B914E0FBF701FD8046D6
:1050D000FBF7D1FC071E01DB384600E07842B8F14F
:1050E000000F01DB414601E0C8F100010844B0F5C2
:1050F000D27FE3DB00BF002410E006E0012023F0B4
:10510000D1F9FBF7AFFC00B906E04FF480413E480F
:105110001FF0C8FF0128F1D000BF641C40F6F61054
:105120008442EADBFFF7B5FB40F209103949086019
:105130002F4908609FED391A00EE106AF8EEC00A98
:10514000102000EE105AB8EEC00AFEF7AAFB0024A9
:105150000FE006E0012023F0A5F9FBF783FC00B97E
:1051600005E0102128481FF09DFF0128F2D000BF64
:10517000641C642CEDDB40F2DC5023F093F900203A
:10518000FEF763FABDE8F08110B505210420FDF7B4
:105190000DFA2348C07F40F002002149C877002063
:1051A0002049086011E006E0012023F07BF9FBF7BD
:1051B00059FC00B903E01C4800680128F4D000BF86
:1051C00018480068401C1749086016480068FA280B
:1051D000E9DB1348C07F00F0FD001149C8770120CA
:1051E0001149086000201149086010BDBC00002072
:1051F0006C040020CDCC4C3F000002409404002001
:1052000064040020000402400010024098040020C2
:105210005804002060040020B80000206666663F45
:10522000040000201C040020F0020020EC020020FA
:105230002DE9F0472DED028B81460F461646984624
:105240009DED0A8ADDE90B459FEDF91AF8EEC80AD3
:10525000102000EE106AB8EEC00AFEF722FB4046AE
:1052600023F020F90020FEF7F0F900219FEDF10A6C
:105270004846FEF7A7FA06E0012023F013F9FBF7F2
:10528000F1FB00B903E0FEF7B9F80028F4D100BF44
:105290000020FEF7DAF9FFF7F6FAE7480068FA307F
:1052A000E6490860E6480068FA30E64908600020F0
:1052B000E549086019E006E0012023F0F3F8FBF768
:1052C000D1FB00B90BE0E1490968DE4A1268881A8F
:1052D000002801DB014600E041420F29ECDC00BF61
:1052E000D9480068401CD8490860D748006832286F
:1052F000E1DB1FED401A00EE105AF8EEC00A142050
:1053000000EE104AB8EEC00AFEF7CBFA0020CE49F4
:10531000086014E006E0012023F0C4F8FBF7A2FBCC
:1053200000B906E04FF48071C9481FF0BBFE0128A8
:10533000F1D000BFC4480068401CC3490860C2489F
:1053400000689628E6DB1FED551A00EE105AF8EEBD
:10535000C00A0E2000EE104AB8EEC00AFEF7A1FA0D
:105360000020B94908601BE006E0012023F09AF80C
:10537000FBF778FB00B90DE04FF48071B4481FF0E3
:1053800091FE0128F1D04FF48051B1481FF08AFE00
:105390000028EAD000BFAC480068401CAA49086059
:1053A000A94800689628DFDB0020FEF74EF9A948DF
:1053B0000068012801D1FFF7E7FE29462046FFF7E4
:1053C000CFFC0020FEF741F900219FED9A0A3846F4
:1053D000FEF7F8F906E0012023F064F8FBF742FB42
:1053E00000B903E0FEF70AF80028F4D100BF00205E
:1053F000FEF72BF9BDEC028BBDE8F08770B50546D2
:105400000E46FFF746FA8C48006808308B49086062
:105410008B48006808308B490860002415E006E0DE
:10542000012023F03FF8FBF71DFB00B90BE0874993
:105430000968844A1268881A002801DB014600E0E6
:1054400041420A29ECDC00BF641C322CE7DBB7EEDA
:10545000001A00EE106AF8EEC00A0F2000EE105A93
:10546000B8EEC00AFEF71DFA002410E006E00120A5
:1054700023F018F8FBF7F6FA00B906E04FF4807154
:1054800073481FF00FFE0028F1D000BF641CB4F574
:105490007A7FEBDBB7EE001A00EE106AF8EEC00A76
:1054A0000A2000EE105AB8EEC00AFEF7FAF90024FE
:1054B00021E006E0012022F0F5FFFBF7D3FA00B966
:1054C00017E04FF4807162481FF0ECFD0028F1D026
:1054D000402161481FF0E6FD0028EBD080215E48A6
:1054E0001FF0E0FD28B901215B481FF0DBFD00281B
:1054F000E0D000BF641CB4F57A7FDADB4FF496701D
:1055000022F0D0FF0020FEF7A0F8F02053490860F9
:105510004B480068FA304B490860002415E006E06B
:10552000012022F0BFFFFBF79DFA00B90BE04749CD
:105530000968444A1268881A002801DB014600E025
:1055400041421E29ECDC00BF641CFA2CE7DBB7EEFD
:10555000001A00EE106AF8EEC00A1E2000EE105A83
:10556000B8EEC00AFEF79DF900240FE006E0022025
:1055700022F098FFFBF776FA00B905E001213848E0
:105580001FF090FD0028F2D000BF641C40F22620DE
:105590008442EBDBB7EE001A00EE106AF8EEC00AA8
:1055A000102000EE105AB8EEC00AFEF77AF9002477
:1055B00010E006E0012022F075FFFBF753FA00B976
:1055C00006E04FF4005126481FF06CFD0028F1D092
:1055D00000BF641C40F226208442EADB16480068C3
:1055E000401D16490860B7EE001A00EE106AF8EE8A
:1055F000C00A0A2000EE105AB8EEC00AFEF751F9B0
:10560000002410E006E0012022F04CFFFBF72AFA0C
:1056100000B906E04FF4804111481FF043FD002817
:10562000F1D000BF641CB4F5FA7FEBDB002431E05D
:105630003333333F9A99993F580400206004002087
:10564000640400206C0400201C040020BC00002026
:1056500000000240EC0200200004024094040020FC
:105660000010024006E0012022F01CFFFBF7FAF9CF
:1056700000B90DE04FF48041FA481FF013FD0028F7
:10568000F1D04FF40051F7481FF00CFD0028EAD08C
:1056900000BF641CB4F5FA7FE4DB002410E006E0F0
:1056A000012022F0FFFEFBF7DDF900B906E04FF420
:1056B0008041EC481FF0F6FC0028F1D000BF641CCC
:1056C000B4F5FA7FEBDB0020FDF7BFFFF020E649E1
:1056D0000860E6480068FA30E5490860002415E0F3
:1056E00006E0012022F0DEFEFBF7BCF900B90BE07A
:1056F000E0490968DE4A1268881A002801DB014681
:1057000000E041421E29ECDC00BF641C322CE7DBC8
:10571000B7EE001A00EE106AF8EEC00A0F2000EE95
:10572000105AB8EEC00AFEF7BCF806E0012022F0DD
:10573000B9FEFBF797F900B905E01021C9481FF041
:10574000B1FC0028F2D000BF4FF4487022F0AAFE4E
:105750001420FDF77AFF70BD2DE9F0472DED028B87
:1057600081460F46144698469DED0A8ADDE90B56A0
:105770004FF4AF70FFF7A5F80020FDF766FFB6EE17
:10578000001AF8EEC80A102000EE104AB8EEC00A5F
:10579000FEF787F8404622F085FE0020FDF755FF12
:1057A00000211FED5C0A4846FEF70CF806E00120D8
:1057B00022F078FEFBF756F900B903E0FDF71EFE74
:1057C0000028F4D100BF0020FDF73FFF40F2091090
:1057D000FFF765F80020A849086019E006E00120FD
:1057E00022F060FEFBF73EF900B90BE0A34909681F
:1057F000A34A1268881A002801DB014600E04142F2
:105800000A29ECDC00BF9C480068401C9A490860EB
:10581000994800683228E1DBB7EE001A00EE106A02
:10582000F8EEC00A0F2000EE105AB8EEC00AFEF7DC
:1058300038F800209049086014E006E0012022F0CA
:1058400031FEFBF70FF900B906E04FF480718D4887
:105850001FF028FC0028F1D000BF87480068401CDA
:105860008549086084480068B0F57A7FE5DB9620BA
:1058700022F018FE0020FDF7E8FE834800680128AA
:1058800001D1FFF781FC31462846FFF7B7FD002024
:10589000FDF7DBFE00211FED990A3846FDF792FF68
:1058A00006E0012022F0FEFDFBF7DCF800B903E082
:1058B000FDF7A4FD0028F4D100BF0020FDF7C5FED0
:1058C000BDEC028BBDE8F08770B570480568704884
:1058D000066840F23520FEF7E2FF6E4800680028B7
:1058E0004DD16D480068002849D16C4800680028F7
:1058F00045D16B480068002841D15F49086037E016
:105900001DE068480068A84209DD1FEDB71ADFED09
:10591000660A0E209FED650AFDF7C3FF08E01FED44
:10592000BC1ADFED610A0A209FED610AFDF7B9FF9D
:10593000012022F0B7FDFBF795F800B912E04FF413
:10594000805150481FF0AEFB0028DAD04B48006869
:105950004B490968441A002C01DB204600E06042F4
:105960001E28CEDC00BF44480068401C4249086045
:105970004148006840F20E618842C1DB22E145489F
:10598000006801284CD144480068C0BB4348006807
:10599000A8BB4348006890BB00203749086038E046
:1059A0001DE040480068A84209DD1FEDDF1ADFED69
:1059B0003E0A0E209FED3D0AFDF773FF08E01FED44
:1059C000E41ADFED390A0A209FED390AFDF769FF75
:1059D000012022F067FDFBF745F800B913E04FF412
:1059E000805128481FF05EFB0028DAD02348006869
:1059F00023490968441A002C02DB204601E00FE02D
:105A000060421E28CDDC00BF1B480068401C1A49BC
:105A100008601948006840F20E618842C0DBD1E09E
:105A20001C48006801287BD11B480068012877D1F9
:105A30001A480068A8B91A48006890B900200E49B1
:105A4000086066E04CE01B480068B04238DD9FED1E
:105A50001A1ADFED150A0E209FED180AFDF721FF37
:105A600037E05DE000100240980400205804002058
:105A700060040020B80000201C040020BC000020AE
:105A80006C04002000000240EC020020A80100206D
:105A9000B0010020500200205402002058020020D3
:105AA0005C020020A000002000006144008022C4AD
:105AB000000061C4A40000203333333F00C0C1C4E0
:105AC0001FED031A5FED080A0A201FED070AFDF714
:105AD000E8FE012022F0E6FCFAF7C4FF00B912E06C
