:020000040800F2
:10000000C8A301206DA800084502000847020008A7
:100010004B0200084F0200085302000800000000D5
:100020000000000000000000000000009D0100082A
:100030005702000800000000E101000887D800080E
:1000400087A8000887A8000887A8000887A80008D4
:1000500087A8000887A8000887A8000887A80008C4
:10006000A9040008ED04000887A800081903000887
:10007000FB0200085B03000887A80008750200085F
:1000800087A800088102000887A8000887A8000840
:1000900087A8000887A8000887A8000887A8000884
:1000A00087A80008C5030008F103000887A8000816
:1000B000F3030008210400084D04000887A8000885
:1000C00087A8000887A8000887A80008A5040008DA
:1000D00087A800085D02000887A8000887A8000814
:1000E00087A8000887A8000887A8000887A8000834
:1000F00087A8000887A8000887A800083703000819
:1001000087A8000887A8000879040008A704000849
:1001100087A8000887A8000897030008A303000821
:1001200087A800089B020008CD02000887A80008E5
:1001300087A8000887A8000887A8000887A80008E3
:1001400087A8000887A8000887A8000887A80008D3
:10015000ED02000887A8000887A8000887A8000803
:1001600087A8000887A8000887A8000887A80008B3
:1001700087A8000887A8000887A8000887A80008A3
:1001800087A8000887A80008DFF80CD00EF01EFE34
:100190000048004757A50008C8A30120234B196851
:1001A0000868B0E8F04F80F309884FF0000080F352
:1001B000118870470000000003480068006880F361
:1001C000088862B600DF00BF08ED00E0DFF80C0031
:1001D000016841F470010160704700BF88ED00E0E4
:1001E000EFF30980114B1A681EF0100F08BF20EDC5
:1001F000108A20E9F04F106008B54FF0140080F32A
:1002000011880DF008FF4FF0000080F31188BDE861
:10021000084019680868B0E8F04F1EF0100F08BFDA
:10022000B0EC108A80F30988704700BF54040020A6
:10023000EFF311804FF0140181F31188704780F3C0
:1002400011887047704700BFFEE700BFFEE700BFA0
:10025000FEE700BFFEE770477047704710B540F2F9
:100260002551A3480CF023FC18B12021A0480CF024
:1002700015FC10BD10B59F499F480BF04DFB10BDFC
:1002800010B59E499C4830300BF01CFB20B19B49B7
:10029000994830300BF040FB10BD10B59849994893
:1002A0000BF010FB88B1964996480BF035FB01F036
:1002B00046FF002193480BF05BFA042191480BF0B4
:1002C00078FA01218F480BF053FA10BD10B58E4912
:1002D0008C4818300BF020FB8C4840788B4909780B
:1002E00040EA012000B28A49088010BD10B5894952
:1002F000844860300BF010FB10BD10B580497E487B
:1003000048380BF0DFFA30B17D497B4848380BF0B4
:1003100003FB00F0B9FA10BD10B57F49764860388C
:100320000BF0D0FA30B17C49734860380BF0F4FA26
:1003300001F005FF10BD10B578496F4848300BF04B
:10034000C1FA48B100216C4848300BF011FA7349EA
:10035000694848300BF0E0FA10BD10B56A496648AC
:1003600030380BF0AFFAA8B16749634830380BF06A
:10037000D3FA01F0F8FC00215F4830380BF0F8F9AF
:1003800008215D4830380BF014FA01215A48303802
:100390000BF0EEF910BD10B5012161480CF0E4F846
:1003A00010BD10B501215F480CF0DEF87A205049ED
:1003B000888001215C480CF089FA01215B480CF02F
:1003C00085FA10BD10B5012159480CF0CDF85848F8
:1003D000008800F0100028B156480068401E5549BA
:1003E000086004E053480068401C5249086010BD92
:1003F000704710B5012188070CF0B6F84FF0804027
:10040000008800F0100028B14B480068401E4A499F
:10041000086004E048480068401C4749086010BD77
:1004200010B5012145480CF09FF84448008800F0C1
:10043000100028B142480068401E4149086004E0AD
:100440003F480068401C3E49086010BD10B50121BE
:100450003C480CF089F83B48008800F0100028B1B7
:1004600039480068401E3849086004E03648006892
:10047000401C3549086010BD10B5012133480CF00F
:1004800073F83248008800F0100028B13048006846
:10049000401E2F49086004E02D480068401C2C498C
:1004A000086010BD7047704710B504200BF0CCFAFF
:1004B000D8B1202127480AF050FB042126480AF031
:1004C00027FB012804D1002116480BF0CDFB09E0E1
:1004D000042121480AF01CFB20B912480BF0C8FB8C
:1004E0001E49086004201E49086010BD70470000C6
:1004F0000010014020800020706002400080202019
:100500000088001028640240008020107C06002033
:100510008C0000200088002020800010008000282F
:10052000001000400014004000480040001401404A
:10053000000001406C00002070000020000400401A
:10054000740000200008004088000020000C0040DB
:100550007800002000000240000C024068000020EB
:10056000143C014070B5044620460EF03DF90546A6
:100570002146F8480EF03FF9A0B195222146F548F2
:100580000EF026F90021F4480BF0F2F8F148F24998
:100590000C310860F048B838C0F8BC500121EE4872
:1005A0000BF0E6F870BD70B50446002510E0605D04
:1005B00068B1615DE9480CF0B4F900BF8021E748FB
:1005C0000CF05FFA0028F9D0681CC5B200E070BDDD
:1005D000EDE770B5044600250FE05CB12146DF4829
:1005E0000CF09FF900BF8021DC480CF04AFA00288B
:1005F000F9D000E070BD681CC5B2032DEDDB00BF73
:10060000F8E713B50C460020FFF7E3FFD4A0FFF78F
:10061000CAFF2346D3A29621D3480EF015FCD24838
:10062000FFF7C1FFD1A0FFF7BEFFCEA29621CE48B3
:10063000009B0EF009FCCC48FFF7B5FFCDA0FFF7FB
:10064000B2FFFF20FFF7C5FFFF20FFF7C2FFFF202B
:10065000FFF7BFFF1CBD70B505460C46C0A0FFF7F5
:10066000A2FF2246BFA1C0480EF006FCBE48FFF71D
:100670009AFFBEA0FFF797FF2846FFF794FFBDA0A3
:10068000FFF791FFFF20FFF7A4FF70BD77B585B09E
:100690000546FF26B5A103C9CDE90301B5A0006851
:1006A0000290AFA00068019000240AE00020B24947
:1006B0000855B2490855AC490855A6490855601C6B
:1006C000C4B21E2CF2DB0A20A7490870FF20487034
:1006D0008870C870A3A1A948079A0EF0CDFBA7495E
:1006E00001A80EF069F801A99F480EF065F803A96A
:1006F0009D480EF061F829469B480EF05DF899A1DF
:100700009E48069A0EF0B8FB9C4997480EF054F8A4
:1007100002A995480EF050F8FF20974908704870DC
:10072000887091480EF048F88F48FFF71BFF08B01B
:1007300070BDF7B584B005460E46FF278BA103C9EF
:10074000CDE902018BA00068019085A000680090AF
:10075000002408E000208849085588490855824946
:100760000855601CC4B20A2CF4DB0A207E490870CC
:10077000FF2048708870C8707AA18048069A0EF0F1
:100780007BFB7E4968460EF017F8694676480EF006
:1007900013F802A974480EF00FF8294672480EF0BB
:1007A0000BF8314670480EF007F801A96E480EF0BC
:1007B00003F8FF2070490870487088700020C870E6
:1007C000087169480DF0F8FF6748FFF7CBFE07B0E6
:1007D000F0BD01B58EB06AA2322101A80E9B0EF0C9
:1007E00033FB01A8FFF7BEFE0FB000BD73B584B0A8
:1007F0000546FF265DA103C9CDE902015DA00068A1
:10080000019057A00068009000240AE000205A4997
:1008100008555A490855544908554E490855601C11
:10082000C4B21E2CF2DB0A204F490870FF2048702A
:100830008870C8704BA15148059A0EF01DFB4F49B6
:1008400068460DF0B9FF694647480DF0B5FF02A9AB
:1008500045480DF0B1FF294643480DF0ADFF47492B
:1008600041480DF0A9FF01A93F480DF0A5FFFF2069
:1008700041490870487088703B480DF09DFF3A4828
:10088000FFF770FE06B070BD10B52DED0C8B82B079
:100890003E4800783D49497808443C4989780844F5
:1008A0003A49C978084439490979084437494979A6
:1008B00008443649897908443449C9790844334998
:1008C000097A0844C0B201903048007A00F00F0065
:1008D00000909FED2F0AB0EE40DA2C48407A019943
:1008E000884271D12948007A00F00F000D286BD1A1
:1008F00026488078C0F17F0000EE100AB8EEC08A6A
:100900002248C078813800EE100AF8EEC08AB5EEB1
:10091000C08AF1EE10FA03D1B7EE000AB0EE408AB9
:10092000F5EEC08AF1EE10FA03D1B7EE000AF0EE50
:10093000408ABDEEC80A10EE102A002A01DB1346D9
:1009400000E05342BDEEE80A10EE100A002821DB59
:10095000044620E0CA050020B86002400050004074
:100960007400000025640000940400202E74787444
:100970003D220000220000007A05002052050020E0
:100980006A302E76616C3D2564000000BD060020B3
:10099000DB0F49404442191901EBD1735B10F94C4C
:1009A0002360BDEEE80A10EE101A002901DB0A46AA
:1009B00000E04A42322A0FDABDEEC80A10EE100AF1
:1009C000002802DB024601E02FE04242322A03DA2D
:1009D0000020ED49086030E018EE900A0EF0D1F8E2
:1009E00041EC1B0B18EE100A0EF0CBF841EC1C0B7F
:1009F000B0EE4B1AF0EE6B1AB0EE4C0AF0EE6C0A49
:100A00000EF0E6FBB0EE40AAF0EE60AA9FEDDF0B21
:100A100053EC102B51EC1A0B0DF0A2FF41EC190B0B
:100A20000EF090F8D849086007E09DF800000D2806
:100A300003D00021D7480BF049FF02B0BDEC0C8B6E
:100A400010BDD548007A00F00F000D2806D1D2481D
:100A5000007800F0010008B10D2070470020FCE78D
:100A6000CD48007800F0100008B100207047012048
:100A7000FCE71CB54FF080400BF0FAF8C749096855
:100A800040EA01400C2190FBF1F00090002418E0B6
:100A90004FF080400BF0ECF8C049096840EA014093
:100AA0000C2190FBF1F00190DDE90021881A00286B
:100AB00001DB014600E04142052900DA641C01988F
:100AC0000090022CE4DB019840421CBD1CB5B448E8
:100AD0000BF0CEF8B349096840EA01400C2190FBC5
:100AE000F1F00090002417E0AD480BF0C1F8AD49DB
:100AF000096840EA01400C2190FBF1F00190DDE92A
:100B00000021881A002801DB014600E04142052946
:100B100000DA641C01980090022CE5DB01981CBDF2
:100B20001CB5A1480BF0A4F8A049096840EA0140AF
:100B30000C2190FBF1F00090002417E09A480BF094
:100B400097F89A49096840EA01400C2190FBF1F0BE
:100B50000190DDE90021881A002801DB014600E050
:100B60004142052900DA641C01980090022CE5DB63
:100B700001981CBD1CB58E480BF07AF88D490968A8
:100B800040EA01400C2190FBF1F00090002417E0B6
:100B900087480BF06DF88749096840EA01400C214D
:100BA00090FBF1F00190DDE90021881A002801DBBB
:100BB000014600E04142052900DA641C01980090DA
:100BC000022CE5DB01981CBD01B581B0002000902E
:100BD000019800EBC0004000009002E00098401E29
:100BE000009000980028F9D10CBD01B581B000201B
:100BF000009044F2506101984843009002E0009850
:100C0000401E009000980028F9D10CBD1CB50121B0
:100C10001F200AF061F94FF6FF70009001208DF857
:100C2000040000208DF8060001208DF80700032045
:100C30008DF805006946604809F008FF4FF6FF701F
:100C4000009001208DF8040000208DF8060001209E
:100C50008DF8070003208DF805006946574809F014
:100C6000F5FE4FF6FF70009001208DF80400002083
:100C70008DF8060001208DF8070003208DF805008F
:100C800069464F4809F0E2FE1CBD1CB501217E20DB
:100C90000AF022F94FF4CE50009000208DF80400A5
:100CA00001208DF8070002208DF8050069464548AF
:100CB00009F0CCFE4FF6C740009000208DF80400EC
:100CC00001208DF8070002208DF8050069463A489A
:100CD00009F0BCFE0420009000208DF804000120E3
:100CE0008DF8070002208DF805006946334809F0A9
:100CF000ADFE4FF44C40009000208DF80400012020
:100D00008DF8070002208DF8050069462C4809F08F
:100D10009DFE1CBD1FB54FF4E06009F0B9FD362003
:100D20008DF8000000208DF801008DF802000120F0
:100D30008DF80300684609F0B0FD012110200AF08B
:100D4000FEF83220ADF8040040F2E73002900020B7
:100D5000ADF80C00ADF8060001A91B480AF03BFFF6
:100D6000012119480BF000FC0122114616480BF036
:100D7000D3FB002114480AF077FF012112480AF042
:100D8000B3FF1FBDCC000020C80000200000008081
:100D9000A9E7814000480040BD0600207000002007
:100DA000000400407400002000080040880000207B
:100DB000000C0040780000200004024000080240BF
:100DC000000C024000000240001000401FB54FF42C
:100DD000E06009F05DFD37208DF8000000208DF8FF
:100DE00001008DF8020001208DF80300684609F02B
:100DF00054FD012120200AF0A2F83220ADF80400B1
:100E000040F2E73002900020ADF80C00ADF806008B
:100E100001A9FE480AF0DFFE0121FC480BF0A4FB0B
:100E200001221146F9480BF077FB0021F7480AF040
:100E30001BFF0121F5480AF057FF1FBD00B58BB01D
:100E4000012102200AF08CF801210C200AF044F85C
:100E500003220621EE4809F084FE03220721EC4814
:100E600009F07FFE03220821E94809F07AFE0322F7
:100E70000921E74809F075FE4FF4707006900220D2
:100E80008DF81C0003208DF81D0000208DF81E0039
:100E900001208DF81F0006A9DD4809F0D7FDA42028
:100EA000ADF8200040F6B83009904FF48070ADF8EE
:100EB00028000020ADF8220008A9D6480AF08BFED1
:100EC0006020ADF804000120ADF80600002003907A
:100ED000ADF810000121CF480AF006FF0021CD48EF
:100EE0000AF0C2FE01A9CB480AF00AFF01A9C948CD
:100EF0000AF03FFF01A9C7480AF088FF01A9C548C9
:100F00000AF0EAFF0121C3480BF0DFFA0BB000BD85
:100F100000B58BB0012108200AF011F80121084624
:100F200009F0DAFF02220021BB4809F01AFE022272
:100F30000121B94809F015FE02221146B64809F010
:100F400010FE02220321B44809F00BFE0F20069088
:100F500002208DF81C0003208DF81D0000208DF864
:100F60001E0001208DF81F0006A9AB4809F06EFD98
:100F7000BA20ADF8200042F2107009900020ADF8C0
:100F80002800ADF8220008A9A4480AF024FE602039
:100F9000ADF804000120ADF8060000200390ADF884
:100FA000100001219D480AF09FFE00219B480AF095
:100FB0005BFE01A999480AF0A3FE01A997480AF02F
:100FC000D8FE01A995480AF021FF01A993480AF02B
:100FD00083FF012191480BF078FA0BB000BD00B5FA
:100FE0008BB00121042009F0AAFF01210D2009F096
:100FF00073FF02220C218A4809F0B3FD02220D2161
:10100000874809F0AEFD02220E21854809F0A9FDAE
:1010100002220F21824809F0A4FD4FF4704006908F
:1010200002208DF81C0003208DF81D0000208DF893
:101030001E0001208DF81F0006A9794809F006FD61
:10104000A420ADF8200040F6B83009904FF480702D
:10105000ADF828000020ADF8220008A971480AF078
:10106000BAFD6020ADF804000120ADF806000020B4
:101070000390ADF8100001216A480AF035FE002106
:1010800068480AF0F1FD01A966480AF039FE01A995
:1010900064480AF06EFE01A962480AF0B7FE01A991
:1010A00060480AF019FF0BB000BD00B589B00121FE
:1010B000080409F055FF0121084609F00DFF03223D
:1010C0001146554809F04DFD03220221524809F00E
:1010D00048FD0C20019002208DF8080003208DF8B7
:1010E000090000208DF80A0001208DF80B0001A9ED
:1010F000494809F0ABFC0020ADF818004FF6FF702E
:1011000007900020ADF82000ADF81A0006A9464867
:101110000AF061FD0420ADF80C000020ADF80E00CF
:10112000C820ADF814000120ADF8100003A93E4816
:101130000BF028F900231A4603213C480BF0BFFAB4
:1011400001213A480BF010FA0122114637480BF002
:10115000E3F9012134480AF0C7FD002133480AF0C1
:1011600083FD09B000BD00B589B00121084609F032
:10117000E6FE0121022009F0E2FE0121032009F030
:10118000ABFE01220F21244809F0EBFC01220321D0
:10119000274809F0E6FC02220421254809F0E1FC79
:1011A00002220521224809F0DCFC382001900220AF
:1011B0008DF8080003208DF8090000208DF80A0042
:1011C00001208DF80B0001A9194809F03FFC4FF4EC
:1011D0000040019002208DF8080003208DF80900DE
:1011E00000208DF80A0001208DF80B0001A90A48A3
:1011F00009F02CFC0020ADF818004FF6FF700790A6
:101200000020ADF82000ADF81A0013E000140040F3
:10121000000802400004014000000240000C0040B1
:10122000000C024000080040000001400040014066
:101230000004024006A94FF080400AF0CCFC06A949
:10124000FE480AF0C8FC0420ADF80C000220ADF8FE
:101250000E001420ADF814000120ADF8100003A911
:1012600080070BF08FF803A9F4480BF08BF80223EA
:101270001A46032158070BF022FA02231A460321CB
:10128000EE480BF01CFA012188070BF06DF90121E3
:10129000EA480BF069F90122114690070BF03CF97E
:1012A00001221146E5480BF037F9012188070AF0C1
:1012B0001BFD0121E1480AF017FD00214FF080409D
:1012C0000AF0D2FC0021DD480AF0CEFC4FF4C060E9
:1012D00009F0DEFA1D208DF8000003208DF80100D2
:1012E00000208DF8020001208DF80300684609F007
:1012F000D4FA1C208DF8000004208DF80100002095
:101300008DF8020001208DF80300684609F0C5FA47
:1013100009B000BD00B589B00121084609F020FEE2
:101320000121102009F0D8FD4FF420600190022027
:101330008DF8080003208DF8090000208DF80A00C0
:1013400001208DF80B0001A9BD4809F07FFB0122A7
:101350000921BB4809F005FC01220B21B84809F01E
:1013600000FC0020ADF818004FF6FF700790002039
:10137000ADF82000ADF81A0006A9B2480AF02BFC1F
:101380000420ADF80C000020ADF80E000A20ADF8E6
:1013900014000120ADF8100003A9AA480AF0F2FFDA
:1013A00000231A460321A7480BF089F90121A5481B
:1013B0000BF0DAF801221146A2480BF0ADF801213A
:1013C000A0480BF0D1F8012211469E480BF0A4F87A
:1013D00001219C480AF088FC00219A480AF044FC4C
:1013E0004FF4C06009F054FA19208DF80000012074
:1013F0008DF8010000208DF8020001208DF8030017
:10140000684609F04AFA09B000BD00B589B001216B
:10141000042009F094FD0121082009F05DFD4FF43E
:101420004050019002208DF8080003208DF809003B
:1014300000208DF80A0001208DF80B0001A98248D8
:1014400009F004FB0020ADF818004FF6FF7007907C
:101450000020ADF82000ADF81A0006A97B480AF07C
:10146000BAFB02220C21784809F07BFB02220D21F5
:10147000754809F076FB0420ADF80C000220ADF8A9
:101480000E00C820ADF814000120ADF8100003A92B
:101490006E480AF077FF02231A4603216B480BF0CF
:1014A0000EF9012169480BF05FF8012211466748E7
:1014B0000BF032F8012165480AF016FC0021634860
:1014C0000AF0D2FB002061491431088001205F49F5
:1014D00008804FF4C06009F0DBF91E208DF8000091
:1014E00004208DF8010000208DF8020001208DF805
:1014F0000300684609F0D1F909B000BD00B589B014
:101500000121082009F01BFD0121084609F0E4FC37
:101510000320019002208DF8080003208DF80900B7
:1015200000208DF80A0001208DF80B0001A9484821
:1015300009F08CFA0020ADF818004FF6FF70079004
:101540000020ADF82000ADF81A0006A941480AF0C5
:1015500042FB022200213E4809F003FB0222012146
:101560003B4809F0FEFA0420ADF80C000220ADF86B
:101570000E00C820ADF814000120ADF8100003A93A
:1015800034480AF0FFFE02231A46032131480BF0CB
:1015900096F801212F480AF0E7FF012211462D4855
:1015A0000AF0BAFF01212B480AF09EFB00212948CE
:1015B0000AF05AFB002027491431088001202549F0
:1015C00008804FF4C06009F063F932208DF8000004
:1015D00004208DF8010000208DF8020001208DF814
:1015E0000300684609F059F909B000BD00B59BB089
:1015F0000121194809F070FC0121080209F0B0FC32
:101600000020029015480390154804900020059092
:101610000E200690002007904FF480600890400054
:10162000099080000A9040110B9040020C9000201D
:101630000D9001200E9000200F9013E00004004058
:101640000010024000000140000C02400008004071
:1016500000000240000C0040070040004C20014008
:1016600060060020109002A9FE480AF047F8012108
:10167000FC480AF07DF8FC20009003208DF804005F
:1016800000208DF807006946F74809F0DFF94FF4AC
:101690004070009003208DF8040000208DF80700B2
:1016A0006946F24809F0D2F93F20009003208DF8F6
:1016B000040000208DF807006946ED4809F0C6F9DE
:1016C000002011904FF4403012900020139014909D
:1016D00011A809F079FD4FF08070159001208DF868
:1016E00058008DF8590000201790189019900E207E
:1016F0008DF8680015A9DF4809F037FD072301229E
:101700000221DC4809F0B7FD072302220321D94852
:1017100009F0B1FD072303220421D64809F0ABFDEF
:10172000072304220521D34809F0A5FD072305223C
:101730000621D04809F09FFD072306221946CD480F
:1017400009F099FD07231A460821CA4809F093FDBC
:10175000072308220921C74809F08DFD0723092224
:101760000A21C44809F087FD07230A220B21C1483A
:1017700009F081FD07230B220C21BE4809F07BFDF7
:1017800007230C220D21BB4809F075FD07230D220C
:101790000E21B84809F06FFD07230E220F21B5482E
:1017A00009F069FD0121B34809F010FE0121B1489B
:1017B00009F001FE0121AF4809F01DFDAD4809F017
:1017C000B6FD1BB000BD08B54FF4E06009F060F84D
:1017D00025208DF8000000208DF801008DF8020012
:1017E00001208DF80300684609F057F808BD10B5D0
:1017F00096B004460121102009F0B2FB01210846F1
:1018000009F06AFB0121880509F066FB4FF4C0600E
:10181000009002208DF8040000208DF806008DF85D
:10182000070002208DF8050069468F4809F00EF97F
:10183000072209218C4809F094F907220A218A48D5
:1018400009F08FF902940020ADF80C00ADF80E00FD
:10185000ADF81000ADF814000C20ADF8120002A98C
:1018600085480AF0ABFF012183480BF02FF84FF4B5
:10187000A06009F00DF83A208DF8180000208DF8CE
:1018800019008DF81A0001208DF81B0006A809F038
:1018900004F87448303009F08FFE4FF00060079074
:1018A00000200A90754809900A200B907248001D8C
:1018B000089000200C904FF480600D9000200E9056
:1018C0000F904FF4807010904002119004201290FD
:1018D0000320139000201490159007A96148303020
:1018E00009F00CFF0122402163480BF09CF8012213
:1018F00010215C48303009F0C8FF012159483030D0
:1019000009F036FF16B010BD10B596B0044601219F
:10191000480509F0E1FA0121480409F010FB012112
:10192000082009F0D9FA6020009002208DF8040008
:1019300000208DF806008DF8070002208DF80500C4
:1019400069464F4809F082F8072205214C4809F002
:1019500008F9072206214A4809F003F902940020F9
:10196000ADF80C00ADF80E00ADF81000ADF81400A5
:101970000C20ADF8120002A942480AF01FFF012115
:1019800040480AF0A3FF4FF4A06008F081FF112047
:101990008DF8180000208DF819008DF81A0001202C
:1019A0008DF81B0006A808F078FF374809F004FE00
:1019B0004FF00060079040200A9034480990502072
:1019C0000B903048001D089000200C904FF4806070
:1019D0000D9000200E900F904FF4807010904002F8
:1019E0001190042012900320139000201490159061
:1019F00007A9254809F082FE0122802121480BF029
:101A000012F8012280211F480BF00DF8012210214D
:101A10001D4809F03AFF01211B4809F0A9FE16B044
:101A200010BD10B596B004460121880409F087FA6C
:101A30000121082009F050FA0121480509F04CFA6B
:101A40004FF44070009002208DF8040000208DF8C3
:101A500006008DF8070002208DF805006946084849
:101A600016E0000010640240000002400004024042
:101A70000008024000200140001001407C060020C8
:101A8000000C024000440040A0600240040000201E
:101A900008F0DCFF07220821FE4809F062F807225F
:101AA0000921FC4809F05DF802940020ADF80C0013
:101AB000ADF80E00ADF81000ADF814000C20ADF834
:101AC000120002A9F4480AF079FE0121F2480AF056
:101AD000FDFE4FF4A06008F0DBFE0C208DF818002E
:101AE00000208DF819008DF81A0001208DF81B00D8
:101AF00006A808F0D2FEE94809F05EFD4FF000604C
:101B0000079000200A90E64809900A200B90E248CE
:101B1000001D089000200C904FF480600D90002074
:101B20000E900F904FF4807010904002119004209E
:101B300012900320139000201490159007A9D74805
:101B400009F0DCFD01224021D3480AF06CFF01229C
:101B50004021D1480AF067FF01221021CF4809F047
:101B600094FE0121CD4809F003FE16B010BD10B55A
:101B700096B004460121C80409F0E1F901210420CE
:101B800009F0AAF90121480509F0A6F94FF44060CF
:101B9000009002208DF8040000208DF806008DF8DA
:101BA000070002208DF805006946BE4808F04EFF88
:101BB00008220A21BB4808F0D4FF08220B21B948AB
:101BC00008F0CFFF02940020ADF80C00ADF80E0035
:101BD000ADF81000ADF814000C20ADF8120002A909
:101BE000B1480AF0EBFD0121AF480AF06FFE4FF457
:101BF000A06008F04DFE0D208DF8180003208DF830
:101C0000190001208DF81A008DF81B0006A808F0B5
:101C100044FEA248183009F0CFFC4FF00060079056
:101C200000200A90A148099008200B909E48001DB2
:101C3000089000200C904FF480600D9000200E90D2
:101C40000F9010904FF4003011900020129003205C
:101C5000139000201490159007A99048183009F0AF
:101C60004DFD0122402190480AF0DDFE0122802135
:101C70008D480AF0D8FE012210218848183009F05A
:101C800004FE01218548183009F072FD16B010BD20
:101C900070B5874C2468642C00DB70BD854C2488AB
:101CA00004EB8404844D2C446070824C248804EB43
:101CB00084042C44A1707F4C248804EB84042C44BD
:101CC000E2707C4C248804EB84042C442371794C0E
:101CD0002488641C642594FBF5F605FB1644754DB9
:101CE0002C80734C2468641C714D2C6000BFD4E7B9
:101CF00001466F48006808B9002070476F480088A7
:101D000000EB80006C4A104402680A600079087198
:101D10000120F2E701466648006808B900207047D4
:101D20006648008800EB8000634A104402680A603D
:101D30000079087161480088401C642290FBF2F32E
:101D400002FB13005D4A108059480068401E584A43
:101D500010600120E3E70CB56846FFF7DBFF0020C9
:101D6000574908700CBD10B5504800784F49497864
:101D700008444E49897808444C49C97808444B497D
:101D800009790844494949790844C4B24748007868
:101D9000022800D010BD4548C079032800D0F9E7DB
:101DA00042488079A0422FD1404840784549087088
:101DB0003E488078444908703C48C07843490870E0
:101DC0003A480079424908703848407941490870DA
:101DD0003D480078012804D13D4800783E4908700C
:101DE0001BE039480078022803D0374800780328E0
:101DF00013D138480378364802783448017832489D
:101E00000078FFF745FF08E0FF202F4908702F49B1
:101E100008702F4908702F49087000BFBAE710B545
:101E200096B004460121480509F056F8012108053D
:101E300009F085F801210C2009F04EF804200090EB
:101E400002208DF8040000208DF806008DF80700B0
:101E500002208DF8050069460E4808F0F7FD4FF4A2
:101E60008050009002208DF8040000208DF80600BC
:101E70008DF8070002208DF805006946094808F032
:101E8000E5FD08220221034808F06BFE08220C2120
:101E9000044823E0000C0240004800402860024053
:101EA000BD06002000080240004C0040AF010020A9
:101EB000BC010020C0010020CC060020C20100208F
:101EC000C5010020B7010020B8010020B9010020A1
:101ED000BA010020BB010020C601002008F041FE2D
:101EE0004FF4A06008F0D4FC2F208DF818000520D6
:101EF0008DF819008DF81A0001208DF81B0006A836
:101F000008F0CBFC0B208DF8180005208DF8190087
:101F10008DF81A0001208DF81B0006A808F0BDFC02
:101F200002940020ADF80C00ADF80E00ADF81000E2
:101F3000ADF814000C20ADF8120002A9F8480AF020
:101F40003DFC0121F6480AF0C1FCF64809F034FBDB
:101F50004FF00060079040200A90F34809900A2053
:101F60000B90EF48001D089000200C904FF480600B
:101F70000D9000200E900F9010904FF400301190B3
:101F8000002012900320139000201490159007A9B0
:101F9000E44809F0B3FBE348A83809F00DFB4FF023
:101FA0000060079000200A90E048099005200B90FF
:101FB000DB48001D089000200C904FF480600D90CD
:101FC00000200E900F9010904FF4003011900020E0
:101FD00012900320139000201490159007A9D14867
:101FE000A83809F08BFB01228021CD480AF01BFDA7
:101FF00001224021CA480AF016FD01221021C948D9
:1020000009F043FC01221021C648A83809F03DFC24
:102010000121C44809F0ACFB0121C248A83809F0ED
:10202000A7FB16B010BD10B596B0044601212020C4
:1020300008F096FF0121042008F04EFF01218805D9
:1020400008F04AFFC020009002208DF80400002014
:102050008DF806008DF8070002208DF8050069460E
:10206000B34808F0F3FC08220621B14808F079FDD6
:1020700008220721AE4808F074FD02940020ADF854
:102080000C00ADF80E00ADF81000ADF814000C20F7
:10209000ADF8120002A9A7480AF090FB0121A5485B
:1020A0000AF014FC4FF4A06008F0F2FB39208DF820
:1020B000180003208DF8190001208DF81A008DF802
:1020C0001B0006A808F0E9FB9B4809F075FA4FF0E1
:1020D0002060079000200A909848099004200B90F7
:1020E0009448001D089000200C904FF480600D90E3
:1020F00000200E900F9010904FF4003011900020AF
:1021000012900320139000201490159007A98A487C
:1021100009F0F4FA0122402186480AF084FC0122E9
:10212000802184480AF07FFC01221021824809F0B6
:10213000ACFB0121804809F01BFB16B010BD0CB5AB
:102140000020019000907D480078022812D17B4841
:10215000407801907948C0787849897840EA012030
:1021600000909DF8040076490870BDF8000075499C
:10217000088004E0042072490870724908800CBD90
:1021800000B585B00121082008F0A6FE01218803D2
:1021900008F0E6FE00208DF8100001208DF81300F5
:1021A0000C20039003A9684808F050FC022103208A
:1021B0000AF0D2FC0420009000208DF804001020CA
:1021C0008DF8050001208DF80600684609F0D6FB61
:1021D00008208DF8080000208DF809008DF80A000D
:1021E00001208DF80B0002A808F057FB05B000BDD8
:1021F00070B504460D46012C0BD1294653480AF010
:1022000090FB00BF402151480AF03BFC0028F9D068
:1022100028E0032C0BD129464D480AF082FB00BF71
:1022200040214B480AF02DFC0028F9D01AE0042C7C
:102230000BD1294647480AF074FB00BF40214548AE
:102240000AF01FFC0028F9D00CE0052C0AD1294621
:1022500033480AF066FB00BF402131480AF011FC08
:102260000028F9D070BD00203B4948623B49086016
:102270003B4908603B490860704700203649486286
:10228000364908604FF08041486237490860374955
:1022900008603749086032490860324908603549AA
:1022A000086035490860704700204FF0804148625F
:1022B0002D490860704700202C4908602C490860AF
:1022C000704710B500202D490870002407E06121F7
:1022D0000120FFF78DFF3220FEF787FC641C022CE3
:1022E000F5D30120254908707A202549087010BDD2
:1022F00010B5002023490870002407E06121032065
:10230000FFF776FF3220FEF770FC641C022CF5D339
:1023100001201C4908707A201B49087010BD00007C
:1023200000500040B8600240CA050020C0080020EC
:10233000000802400014014028640240C701002048
:10234000CB010020CC010020000C02400010014015
:1023500000480040004C0040000001406C0000209C
:102360002408004088000020700000202404004061
:1023700074000020240C0040780000209100002010
:102380009000002093000020920000202DE9F14FE2
:10239000AEB0F6A02D9000202C908DF888008DF81E
:1023A00060002E98152833D2DFE800F00B333A4155
:1023B000484F565F68717A818A91989FA6FDFCFB11
:1023C000FA000221F24808F0A3FB88B100224FF482
:1023D0000041F04808F0BAFB4FF40041ED4808F026
:1023E000A4FB044600222146EBA0FEF74FF90FE0C4
:1023F0000122D103E74808F0A9FB4FF40041E5486A
:1024000008F093FB044600222146EBA0FEF73EF9BC
:1024100085E10122F0480168F0A0FEF737F97EE17E
:102420000222F3480168F3A0FEF730F977E10322B6
:10243000F4480168F4A0FEF729F970E10422F64897
:102440000168F6A0FEF722F969E10522F748016864
:10245000F7A0FEF71BF962E1FEF70BFB044606222C
:102460002146F7A0FEF712F959E1FEF72FFB0446CB
:1024700007222146F5A0FEF709F950E1FEF77AFBA5
:10248000044608222146F4A0FEF700F947E1FEF7D2
:1024900047FB044609222146F2A0FEF7F7F83EE189
:1024A0000A22F3480168F3A0FEF7F0F837E10B22A7
:1024B000F548B0F900004142F4A0FEF7E7F82EE13C
:1024C0000C22F4480168F4A0FEF7E0F827E10D22A1
:1024D000F4480168F4A0FEF7D9F820E10E22F5488F
:1024E0000168F5A0FEF7D2F819E10F22F54801685E
:1024F000F5A0FEF7CBF812E10121F74808F008FB40
:102500004FF400511790A34808F002FB0446022143
:10251000F14808F0FDFA05464FF480419D4808F067
:10252000F7FA06460421EC4808F0F2FA4FF40041AD
:102530001690E94808F0ECFA07460821E64808F04A
:10254000E7FA80464FF48041E34808F0E1FA81461B
:102550001021E14808F0DCFA4FF400511590DE48F4
:1025600008F0D6FA82460821DC4808F0D1FA4FF488
:1025700080511490D84808F0CBFA10211390D74816
:1025800008F0C6FA4FF480611290D34808F0C0FA00
:1025900083468021D04808F0BBFA4FF4807103E0F5
:1025A000B6E0AEE0A6E026E01190CB4808F0B0FA25
:1025B00010901798CDE90B65CDE90D401698CDE93F
:1025C0000798CDE90970DDE914211398CDE9042AB3
:1025D00006910390DDE91101CDE901B10090C0A29F
:1025E000282122A8109B0CF02FFC102222A9C5A0A4
:1025F000FEF79FF893E08021654808F089FA0446C9
:102600000121634808F084FA05464021604808F03B
:102610007FFA06464FF40041B04808F079FA0746C1
:102620004FF48051B84808F073FA80464FF4806147
:10263000574808F06DFA81464FF40061B24808F03F
:1026400067FA4FF400611790514808F061FA82462A
:102650004FF48061A14808F05BFA83464FF4805143
:102660004B4808F055FA4FF4006116909B4808F06B
:102670004FFA4FF400511590454808F049FA4FF4CD
:1026800080411490954808F043FA4FF4804113902C
:102690003F4808F03DFA4FF4807112909A4808F0D4
:1026A00037FA4FF400411190394808F031FACDE97A
:1026B0000B76CDE90D5410901798CDE907A0CDE920
:1026C0000998DDE914121698CDE9050BCDE903123E
:1026D000DDE911121398CDE90012029080A22821A1
:1026E00022A8109B0CF0B0FB112222A987A0FEF7B4
:1026F00020F814E012228748016887A0FDF7C6FF82
:102700000DE013226F4801686FA0FDF7BFFF06E0E0
:1027100014226C4801686CA0FDF7B8FF00BF00BF31
:102720002FB0BDE8F08F10B50121804809F020F8E6
:1027300010BD01B57E4800680099884203DD002085
:102740007B49086004E07A480068401C78490860CA
:1027500077480068FFF71AFE08BD01B59DF8000034
:10276000052801DA002008BDE4E0000031313131F4
:102770003131313131313131313131313131313149
:1027800031313031313131313131313100000000FE
:102790000004024000080240524F424F54203220B1
:1027A00044414E4720434841592053414E2058410F
:1027B0004E483A2020200000524F424F54203220F1
:1027C00044414E4720434841592053414E20444FF5
:1027D0003A20202000000000B800002054726F2032
:1027E0006368616E205472756F633A2000000000C8
:1027F000BC00002054726F206368616E20536175C5
:102800003A202000B000002054726F20786F617968
:102810002074617920000000C000002054726F20F5
:10282000646179207461792031200000C4000020A7
:1028300054726F2064617920746179203220000025
:10284000454E434F4445525F464C2000454E434F52
:102850004445525F46522000454E434F4445525F27
:1028600052522000454E434F4445525F524C200087
:10287000BC010020636F756E745F646174615F7585
:1028800061727434200000008C000020494D553ADC
:1028900000000000A40000204C617A65722070687E
:1028A00061690000A00000204C617A65722074729A
:1028B00061692000980000204C617A657220736184
:1028C000750000009C0000204C617A6572207472D3
:1028D000756F63200000000000100240000C0240F1
:1028E00025642564256425642564256425642564A0
:1028F0002564256425642564256425642564256490
:1029000000000000493A000000000240696E323ABF
:1029100000000000E400002054696E486965755F9E
:102920004761705468616E673A200000A060024001
:10293000840000209DF8000008BD30B504461D4607
:1029400024B9FE480078FE4BD87011E0002C07DD5A
:10295000E0B2FFF702FFFA4BD8700020987007E052
:102960006342D8B2FFF7F9FEF54BD870012098709A
:1029700021B9F2480078F24BD87111E0002907DD47
:10298000C8B2FFF7EAFEEE4BD8710120987107E05C
:102990004B42D8B2FFF7E1FEE94BD87100209871A5
:1029A00022B9E6480078E64BD87211E0002A07DD2C
:1029B000D0B2FFF7D2FEE24BD8720120987207E046
:1029C0005342D8B2FFF7C9FEDD4BD872002098728F
:1029D00025B9DA480078DA4BD87311E0002D07DD0D
:1029E000E8B2FFF7BAFED64BD8730120987307E020
:1029F0006B42D8B2FFF7B1FED14BD8730020987369
:102A000030BDCF4AD070D071D072D0737047CC48EF
:102A1000C07803280DDACA48C079032809DAC84803
:102A2000C07A032805DAC648C07B032801DA0120F2
:102A300070470020FCE70120C24908607047C24887
:102A4000006847F23051884201D0012070470020D1
:102A5000FCE710B5FFF735FC10BDBC48B0F900002D
:102A600040427047B5EEC00AF1EE10FA09D2B848FC
:102A7000D0ED000A70EE600AFDEEE00A10EE900A5A
:102A80007047B348D0ED000A70EE200AFDEEE00A70
:102A900010EE900AF4E710B52DED0A8B044624B928
:102AA0009FEDAC0ABDEC0A8B10BD002C25DAAA48BC
:102AB00000680CF036F841EC190B20460CF031F8A8
:102AC00041EC1C0B9FEDA50B53EC102B0BF048FFBA
:102AD00041EC1B0B9FEDA30B53EC102B0BF03AFFBB
:102AE00041EC1A0B53EC192B0BF0ACFF41EC180B1B
:102AF0000CF05AF800EE100AD4E7974800680CF082
:102B000010F841EC190B20460CF00BF841EC1C0BB3
:102B10009FED920B53EC102B0BF022FF41EC1B0BA3
:102B20009FED900B53EC102B0BF073FE41EC1A0B46
:102B300053EC192B0BF086FF41EC180B0CF034F81A
:102B400000EE100AAEE7F0EE400AF5EEC00AF1EE34
:102B500010FA02DBB0EE600A7047B1EE600AFBE7E4
:102B60000146002901DB084670474842FCE7014660
:102B70007E48D0ED000AF1EE600A7D48D0ED001AE3
:102B800080EEA11A00EE901AF8EEE01A7748D0ED28
:102B9000000A41EE210AB0EE600AFDEEC00A10EE16
:102BA000900A7047B0EE402ADFED722AB0EE620A5A
:102BB000B5EEC02AF1EE10FA03D2F1EE422AB0EEE1
:102BC000622AF5EEC00AF1EE10FA03D2F1EE602AA5
:102BD000F0EE620AB5EEC01AF1EE10FA03D2F1EE91
:102BE000412AB0EE621AF5EEC01AF1EE10FA03D2E5
:102BF000F1EE612AF0EE621AB4EEC02AF1EE10FA9C
:102C000001DDB0EE420AF4EEC00AF1EE10FA01DD89
:102C1000B0EE600AB4EEC01AF1EE10FA01DDB0EECB
:102C2000410AF4EEC01AF1EE10FA01DDB0EE610ACD
:102C300070474948006870474F480068704710B5B2
:102C40002DED028BB0EE408A3F48006847F23051CC
:102C500088420ED19FED3F0A484880ED000A48485F
:102C600080ED000A474880ED000A474880ED000AE1
:102C70004AE04648006846490968401A32490968EE
:102C8000081A00EE100AB8EEC00AF0EE408A414879
:102C9000D0ED000A88EEA00A3F48D0ED000A30EEE1
:102CA000200A3E48D0ED000A20EE200AF0EE408ACD
:102CB000B0EE680A0CF02CFCF0EE000A20EE200AC0
:102CC0002E4880ED000AB0EE680A0CF079FBF0EEB9
:102CD000000A20EE200A2A4880ED000A274890EDDD
:102CE000000A2F48D0ED000A30EE200A264880ED79
:102CF000000A234890ED000A2948D0ED000A30EE82
:102D0000600A204880ED000AB5EEC08AF1EE10FAA4
:102D100077D024480068052858D2DFE800F003582F
:102D2000738DA700184890ED000A30EE080A80ED78
:102D3000000A144890ED000A36E000002802002046
:102D4000040000208C020020500200208C00002093
:102D5000E8010020000000003C0200209A999999A7
:102D60009999B93F333333333333D33F20020020B3
:102D7000240200206F12833A68020020880200209B
:102D800084020020800200207C02002070020020CB
:102D90005C020020000200200C0200203002002013
:102DA000640200203802002030EE480A80ED000A5C
:102DB000FA4890ED000A30EE080A80ED000AF84863
:102DC00090ED000A30EE480A80ED000A68E0F54810
:102DD00090ED000A30EE480A80ED000AEF4890EDD1
:102DE000000A30EE080A80ED000AED4890ED000A76
:102DF000ED48D0ED000A08EE600AE94880ED000ACF
:102E00004EE04EE0E94890ED000A30EE080A80ED11
:102E1000000AE24890ED000AE348D0ED000A08EE0F
:102E2000200ADE4880ED000ADD4890ED000A30EE11
:102E3000480A80ED000A33E0DC4890ED000A30EEED
:102E4000080A80ED000AD74890ED000AD648D0ED78
:102E5000000A08EE600AD34880ED000AD04890EDE1
:102E6000000A30EE480A80ED000A19E0CF4890EDE4
:102E7000000ACD48D0ED000A08EE200ACB4880EDCC
:102E8000000AC84890ED000A30EE480A80ED000ABA
:102E9000C24890ED000A30EE080A80ED000A00BF3B
:102EA00000BFBF48D0ED001ABC4890ED001ABD48E5
:102EB000D0ED000ABD4890ED000AFFF773FEBC4854
:102EC000D0ED000AF8EEE00A80EE801ABDEEC10AED
:102ED000B84880ED000AB8480068B64909688842D9
:102EE00003DDB4480068B44908600120B3490860B4
:102EF000BDEC028B10BD10B504460020B04908603F
:102F0000B0480460FCB90020AB4908601FED6F0AAF
:102F1000AD4880ED000A47F23050AC490860AC493A
:102F200008601FED740AAB4880ED000A0020AA4932
:102F30000860AA490860AA490860AA4908601FED0C
:102F40007B0AFFF77CFE10BD10B5A24890ED000A89
:102F5000B5EEC00AF1EE10FA05D19F48006810B92D
:102F60009E48006890B11FED850A9A4880ED000ADE
:102F7000002099490860994908609B4800689B496E
:102F80000860944890ED000AFFF759FE10BD98487C
:102F9000C0ED000A974880ED000A704770B52DED2E
:102FA000028B05460C46B0EE408A88480068A8426D
:102FB0000BD183480068A04207D1834890ED000AF6
:102FC000B4EE480AF1EE10FA18D07D4804607A4851
:102FD000006810B905207849086083480068834973
:102FE0000860794880ED008A7848056000208249B1
:102FF0000860784890ED000AFFF721FEBDEC028BD7
:1030000070BD70B52DED028B0446B0EE408A0D46C2
:1030100072480068A0420BD16E4890ED000AB4EEF1
:10302000480AF1EE10FA03D16B480068A8423AD082
:103030006648006847F23051884225D11E20604919
:1030400008605D48006810B90A205B49086047F2D3
:103050003050844218DA012061490860B5EEC08A18
:10306000F1EE10FA03DD60480068A04208DCB5EE1E
:10307000C08AF1EE10FA07D25B480068A04203DA7A
:10308000B1EE480AB0EE408A5448046052480560E8
:10309000504880ED008A0020574908604D4890ED67
:1030A000000AFFF7CCFDBDEC028B70BD10B52DED15
:1030B000028BB0EE408A04462146B0EE480A47F241
:1030C0003050FFF79EFFBDEC028B10BD70B504467B
:1030D0000D461FEDE00A29462046FFF75FFF70BD51
:1030E00070B52DED088BF0EE408A0446B0EE608A94
:1030F000B0EE419A364890ED000AB8EEC00AB4EE40
:10310000680AF1EE10FA0DD12D480068A04209D1ED
:10311000324890ED000AB8EEC00AB4EE480AF1EE6B
:1031200010FA6BD0BDEEE80A294880ED000A2E495E
:1031300091ED000AB8EEC00A38EEC00ABDEEC00A32
:1031400010EE100A1FEDFD0A2146FFF727FF264863
:1031500090ED000AB8EEC00A38EE400ABDEEC00A93
:1031600010EE105A002D01DB284600E0684264286A
:1031700045DD1D4890ED000AB8EEC00AB4EEC08AE5
:10318000F1EE10FA02DDB0EE490A01E0B1EE490AB3
:1031900010EE101A08460BF0F4FC44E08402002004
:1031A0008802002080020020F00100207C02002024
:1031B000E4010020440200203C02002034020020F0
:1031C000400200204802002064020020500200203B
:1031D0005402002060020020380200205802002023
:1031E000680200208C020020700200205C02002097
:1031F00020020020240200204C02002022E0FA4895
:1032000090ED000AB8EEC00A38EE400A10EE101A2F
:1032100008460BF0B6FC41EC1B0B9FEDF40B53EC96
:10322000102B0BF09DFB41EC1A0B0BF0BDFC09EED3
:10323000900A0021B0EE690AFDEEC80A10EE900A6D
:10324000FFF7DFFEBDEC088B70BD10B5E9480068E4
:1032500001283DDDE8490968E34A1268881AFFF74A
:103260007FFC06280CDAE34801680068401CE14A4C
:103270001060B1F5FA7F2BDD0020FFF73CFE10BD9A
:10328000DC480068FA2808DD0520DC490860DC49D4
:103290000860FB20D749086004E00520D749086092
:1032A000D7490860D0480068D3490968884205DDDD
:1032B000BFEE000AD34880ED000A04E0B7EE000A32
:1032C000D04880ED000ACF4890ED000AFFF7B7FC28
:1032D00000BFD4E710B52DED028BCB4890ED000A6E
:1032E000B5EEC00AF1EE10FA08D1C548006828B161
:1032F000C148006847F23051884202DBBDEC028BC6
:1033000010BDC04890ED000AB5EEC00AF1EE10FA0B
:103310007ED0BE48006847F23051884279D1B94822
:1033200090ED000AB5EEC00AF1EE10FA08DDB248E1
:103330000068B7490968401AAB490968884210DB40
:10334000B04890ED000AB5EEC00AF1EE10FA7CD25A
:10335000A9480068AE4909680844A3490968884239
:1033600073DDA448006803285CDAA34909689E4A13
:103370001268881AFFF7F4FB0A2816DA9E480068DC
:10338000A449086000209E4908609C4908609FEDA0
:10339000A20A9C4880ED000A0220964908609948DC
:1033A00090ED000AFFF74BFCA8E7934800688E49B0
:1033B0000968884237DD924890ED000AB8EEC00AED
:1033C0009048D0ED000A60EE200A914890ED000A86
:1033D000B8EEC00AC0EE801AB0EE611AB0EE410A33
:1033E000FFF7B1FB844909687F4A1268881AFFF722
:1033F000B7FB00EE900AB8EEE01A8848D0ED000A5C
:1034000040EE010A7E4890ED000AB8EEC00A01E0E5
:10341000A8E045E080EE801AB0EE418AB0EE480A9E
:10342000FFF70DFC9DE0764890ED000AB8EEC00A6B
:103430007448D0ED000A60EE200A754890ED000A4D
:10344000B8EEC00AC0EE801A00E023E0B0EE611AC8
:10345000B0EE410AFFF777FB67490968624A1268D4
:10346000881AFFF77DFB00EE900AB8EEE01A6B4871
:10347000D0ED000A50EE410A614890ED000AB8EE26
:10348000C00A80EE801AB0EE418AB0EE480AFFF71B
:10349000D6FB66E05B4890ED000AFFF7D0FB60E0EA
:1034A000584890ED000AB5EEC00AF1EE10FA1FDDA3
:1034B000514890ED000AB8EEC00A5148D0ED000A1C
:1034C000F8EEE00A4F4890ED001A00EEC10A5448A9
:1034D000D0ED000AF8EEE00A70EE600A424890ED86
:1034E000000AB8EEC00AF4EEC00AF1EE10FA27D3D3
:1034F000444890ED000AB5EEC00AF1EE10FA2BD266
:103500003D4890ED000AB8EEC00A3D48D0ED000AF3
:10351000F8EEE00A3B4890ED001A00EEC10A404880
:10352000D0ED000AF8EEE00A70EE200A2E4890ED89
:10353000000AB8EEC00AF4EEC00AF1EE10FA0BDD94
:103540002D490968284A1268881AFFF7A4FAB0EED4
:10355000408AFFF774FB04E02A4890ED000AFFF769
:103560006EFBCBE62F4909681F4A1268881AFFF7DD
:1035700092FAB0EE408AFFF762FB00BFBEE600B5EC
:103580001C480068022815DA9FED230A1E4880EDCA
:10359000000A9FED210A1B4880ED000A0020224905
:1035A000086047F23050194908602049086000203F
:1035B000114908601E480068401C1D4908601D49EB
:1035C0000968884204DA1C480068FFF71AFA3BE0F1
:1035D00018480068164908601848006880B3164803
:1035E0000068FFF70EFA2FE0700200207B14AE4750
:1035F000E17A743F68020020580200204002002057
:103600003C020020600200206402002050020020E2
:103610001C0200206C02002000000000FC010020C1
:10362000180200205C020020380200205402002012
:103630004C0200202C020020280200208C020020D6
:10364000FFE70020FFF7DDF900BDF84A1268521CC1
:10365000F64B1A60824207DDF54A12680A44F44BC1
:103660001A600022F14B1A6070472DE9F041FFF714
:10367000F4F9F0490860FFF7E8FDEF48006800281A
:1036800021DDEB480068EC49096888422AD0E84807
:103690000068E949096888420EDAE5480068E749A8
:1036A000096888421EDAE2480068FFF760FA0446BB
:1036B0000121FFF7CAFF15E04FF0FF31E048006835
:1036C000FFF7C3FF0EE0DA480068002806DD4FF080
:1036D000FF31DC480068FFF7B8FF03E0FFF74FFF5A
:1036E000BDE8F081D8480068D2490968884205D011
:1036F000FFF7F0FDCF480068D3490860D348006861
:10370000F0B3CB48D0ED000AF8EEE00AD04890EDD7
:10371000001A60EE810AB0EE600AFFF7A3F90446D2
:10372000C348D0ED000AF8EEE00ACA4890ED001A4E
:1037300060EE810AB0EE600AFFF794F90546BC48D6
:10374000D0ED000AF8EEE00AC34890ED001A60EEF2
:10375000810AB0EE600AFFF785F90646B448D0ED5D
:10376000000AF8EEE00ABD4890ED001A60EE810A0A
:10377000B0EE600AFFF776F9074623462A4600E0D6
:1037800002E03146FFF7D9F800BFA9E7B448016865
:103790000068401CB24A1060462907D2B148408BED
:1037A000B14909680844B04908600BE0AE480068B8
:1037B0004621B0FBF1F0AD4908600020A84908603F
:1037C000A9490860AA4801680068401CA84A10601E
:1037D000462907D2A348008BA64909680844A54991
:1037E00008600BE0A34800684621B0FBF1F0A24955
:1037F000086000209E4908609E4908609F48016853
:103800000068401C9D4A1060462907D295480088F0
:103810009B49096808449A4908600BE09848006889
:103820004621B0FBF1F097490860002093490860F9
:1038300093490860944801680068401C924A1060EF
:10384000462907D2874840889049096808448F492B
:1038500008600BE08D4800684621B0FBF1F08C4910
:103860000860002088490860884908608948016824
:103870000068401C874A1060322907D27948008AC4
:10388000854909680844844908600BE0824800685B
:103890003221B0FBF1F08149086000207D490860C9
:1038A0007D4908607E4801680068401C7C4A1060C1
:1038B000322907D26B48C0887A4909680844794997
:1038C00008600BE0774800683221B0FBF1F07649E0
:1038D00008600020724908607249086073480168F6
:1038E0000068401C714A1060322907D25D48808808
:1038F0006F49096808446E4908600BE06C4800682D
:103900003221B0FBF1F06B49086000206749086084
:1039100067490860684801680068401C664A106092
:10392000462907D24F480089644909680844634919
:1039300008600BE0614800684621B0FBF1F0604987
:10394000086000205C4908605C4908605D480168C7
:103950000068401C5B4A1060462907D241484089F4
:10396000594909680844584908600BE056480068FE
:103970004621B0FBF1F0554908600020514908602C
:1039800051490860524801680068401C504A106064
:10399000462907D23348408A4E49096808444D49B0
:1039A00008600BE04B4800684621B0FBF1F04A4943
:1039B000086000204649086046490860704747484B
:1039C000006847490968884203DA45480068434966
:1039D00008604248006843490968884203DD41485D
:1039E00000683E490860334909683C4A1268881AF1
:1039F000002801DB014600E04142022915DD2D4887
:103A0000006836490968884203DD01203649887517
:103A100002E0002034498875264909682F4A126857
:103A2000881A002862DB014661E07AE04C0200203F
:103A30003C020020700200204002002044020020CE
:103A40007802002048020020740200203402002086
:103A50008802002084020020800200207C020020D6
:103A600094030020600600209803002098000020A6
:103A70009C030020A00300209C000020A403002041
:103A8000A8030020A4000020AC030020B003002005
:103A9000A0000020B4030020B8030020A8000020EC
:103AA000CC030020D0030020BC000020D403002061
:103AB000D8030020B8000020DC030020E003002031
:103AC000B0000020F4030020F8030020C000002014
:103AD000FC03002000040020C4000020FC020020A1
:103AE000F4020020F802002004000020414201EB13
:103AF0004101FE4A116010460068FD49096888428C
:103B000003DDFB48006811460860F84800681E287D
:103B100002DA1E20F5490860F4480078F549C875B6
:103B200002E00020F349C8757047F3480068F34984
:103B30000968884203DAF1480068EF490860EE48F6
:103B40000068EF490968884203DDED480068EA49EA
:103B50000860EC490968E84A1268881A002801DB05
:103B6000014600E04142022930DDE6480068E249B2
:103B70000968884203DD0020DE49887402E00120E4
:103B8000DC498874DF490968DB4A1268881A002812
:103B900001DB014600E0414201EB4101D34A1160E3
:103BA00010460068D8490968884203DDD648006895
:103BB00011460860CD480068142802DA1420CB4969
:103BC0000860CA480078CB49C87402E00020C9499F
:103BD000C8747047CD480068CD490968884203DA47
:103BE000CB480068C9490860C8480068C9490968E5
:103BF000884203DDC7480068C4490860C6490968AF
:103C0000C24A1268881A002801DB014600E04142DE
:103C1000042931DDC0480068BC490968884203DDD9
:103C20000120B449887602E00020B2498876BA497A
:103C30000968B64A1268881A002801DB014600E0CC
:103C4000414201EB81018900A84A116010460068D9
:103C5000B2490968884203DDB0480068114608602F
:103C6000A2480068C82802DAC820A04908609F4816
:103C70000078A049C87602E000209E49C8767047C7
:103C8000A7480068A7490968884203DAA548006880
:103C9000A3490860A2480068A3490968884203DD77
:103CA000A14800689E490860A04909689C4A1268BA
:103CB000881A002801DB014600E04142042934DD76
:103CC0009A48006896490968884204DD01208949BC
:103CD00081F82A0003E00020864981F82A009349F0
:103CE00009688F4A1268881A002801DB014600E043
:103CF000414201EB810189007C4A11601046006855
:103D00008B490968884203DD8948006811460860CC
:103D100076480068C82802DAC820744908607348E9
:103D20000078744981F82B0003E00020714981F884
:103D30002B00704710B57F4800687F4909688842AA
:103D400003DA7D4800687B4908607A4800687B494F
:103D50000968884203DD7948006876490860784B35
:103D60001B68744C24681A1B002A01DB134600E010
:103D70005342012B49DD684B1B68724C2468191BA8
:103D8000002901DB0B4600E04B42142B3DDA674B68
:103D90001B686D4C2468181B002801DB034600E0FB
:103DA0004342142B31DA6648006862490968884248
:103DB00004DD01204F4981F8260003E000204D4931
:103DC00081F826005E4909685A4A1268881A002854
:103DD00001DB014600E04142444A116010460068A0
:103DE0005A490968884203DD58480068114608604E
:103DF0003E480068462802DA46203C4908603B48B5
:103E000000783C4981F8270003E00020394981F817
:103E1000270010BD70B59FED4E1ADFED4E0A05204C
:103E20009FED4D0AFFF75CF9FEF727FA06E0012047
:103E30000AF06EF8FCF714FE00B912E0FCF746FE3B
:103E40000546FCF716FE041E01DB204600E060423A
:103E5000002D01DB294600E069420844B0F52F7FC0
:103E6000E5DB00BF0020FFF746F870BD252026499E
:103E7000086030201E49086070472E2022490860E3
:103E80003E201B49086070473B201F4908605120B5
:103E900017490860704768201B4908608C20144946
:103EA0000860704700B50246FFF7F5FFD01C2B49AC
:103EB00008601148026000BD10B52948006898B933
:103EC0002848006880B92848006868B92748006811
:103ED00050B9B6EE001ADFED1F0A05209FED1E0A4D
:103EE000FFF7FEF8002043E061E000005C030020E3
:103EF00034030020040000200803002000030020F9
:103F000004030020BC000020300300202003002018
:103F1000180300201C030020C00000203C030020E8
:103F20002C0300202403002028030020C4000020CC
:103F300040030020140300200C0300201003002085
:103F4000B0000020680100206C0100203803002030
:103F50009A99993E0000614400000000FC02002094
:103F6000D0010020D4010020D8010020DC01002075
:103F7000F849086013E006E0012009F0C9FFFCF7EA
:103F80006FFD00B905E00121F34806F0C1FD0028EE
:103F9000F2D000BFEF480068401CEE490860ED48D1
:103FA00000689628E7DB0020FEF7A5FFA4E0EB48B9
:103FB0000068012832D1EA48006870BBE94800680F
:103FC00058BBE948006840BBB6EE001A5FED1F0A17
:103FD00005201FED1F0AFFF783F80020DD49086068
:103FE00013E006E0012009F093FFFCF739FD00B96A
:103FF00005E00121D84806F08BFD0028F2D000BF73
:10400000D4480068401CD3490860D248006896280C
:10401000E7DB0020FEF76FFF6EE0FFE7CF480068A8
:10402000012832D1CE48006801282ED1CD48006841
:1040300058BBCD48006840BBB6EE001A5FED3B0AA6
:1040400005209FEDCA0AFFF74BF80020C149086020
:1040500013E006E0012009F05BFFFCF701FD00B969
:1040600005E00421C24806F053FD0028F2D000BF4D
:10407000B8480068401CB7490860B64800689628F0
:10408000E7DB0020FEF737FF36E0B4480068012880
:1040900032D1B348006801282ED1B2480068012807
:1040A0002AD1B148006838BBB6EE001A5FED570A56
:1040B00005209FEDAE0AFFF713F80020A549086020
:1040C00013E006E0012009F023FFFCF7C9FC00B96A
:1040D00005E00421A64806F01BFD0028F2D000BF31
:1040E0009C480068401C9B4908609A4800689628D4
:1040F000E7DB0020FEF7FFFE10BD9848006878B9A6
:104100009748006860B99748006848B996480068C1
:1041100030B99848C07F40F004009649C87752E013
:104120008E480068012816D18D48006898B98D48DE
:10413000006880B98C48006868B964208E490860BE
:104140008E4800688E4908608A48C07F40F00800A9
:104150008849C87737E081480068012817D180482E
:104160000068012813D17F48006880B97E48006844
:1041700068B9642080490860804800688049086008
:104180007C48C07F40F040007A49C8771BE0734804
:104190000068012817D172480068012813D17148BE
:1041A000006801280FD17048006860B96420724926
:1041B000086074480068724908606E48C07F40F02B
:1041C00010006C49C877704770B573206E4908605D
:1041D0008C206E4908606E480068FA306D490860AE
:1041E0006D480068F5306D490860002415E006E070
:1041F000012009F08DFEFCF733FC00B90BE06849A3
:104200000968664A1268881A002801DB014600E046
:1042100041420A29ECDC00BF641C322CE7DBB6EE1D
:10422000001A5FEDB40A08209FED5E0AFEF758FF02
:10423000002410E006E0012009F06AFEFCF710FC03
:1042400000B906E04FF48071574806F061FC012880
:10425000F1D000BF641CFA2CECDB3C20FEF74BFED7
:10426000FA20494908604C480068C01E4B49086064
:10427000002415E006E0012009F04AFEFCF7F0FBFF
:1042800000B90BE046490968444A1268881A0028B8
:1042900001DB014600E041420A29ECDC00BF641C5E
:1042A000322CE7DB40F6B83009F032FE9FED3F1AC2
:1042B0005FEDD80A0C209FED3B0AFEF711FF0024AA
:1042C0000FE006E0022009F023FEFCF7C9FB00B96D
:1042D00005E00121264806F01BFC0128F2D000BFB2
:1042E000641C40F226208442EBDB1E202649086035
:1042F000294800680A3029490860002410E006E0D7
:10430000012009F005FEFCF7ABFB00B906E04FF415
:104310000051174806F0FCFB0128F1D000BF641CD7
:1043200040F226208442EADB0020FEF7E4FDFA207A
:104330001649086016480068C01C16490860002429
:1043400044E035E0012009F0E3FDFCF789FB00B90A
:104350003AE02DE0BC02002000040240D001002021
:10436000D4010020D8010020DC0100200000E1443D
:1043700000100240040000203803002058010020F3
:1043800014030020540100203003002034030020D7
:10439000F4020020FC02002000030020080300209B
:1043A000BC000020000061C400000240CDCC4C3EA7
:1043B000F7490968F74A1268881A002801DB0146A4
:1043C00000E041420A29BDDC00BF641CFA2CB8DBC6
:1043D00040F6B83009F09CFD1FED0C1ADFEDEE0A37
:1043E00007201FED100AFEF77BFE002410E006E018
:1043F000012009F08DFDFCF733FB00B906E04FF416
:104400008051E64806F084FB0128F1D000BF641C0F
:10441000FA2CECDBFDF731FF06E0052009F078FD12
:10442000FCF71EFB00B912E0FCF750FB0646FCF758
:1044300020FB051E01DB284600E06842002E01DB60
:10444000314600E071420844B0F5C87FE5DB00BFAB
:104450006420D34908608C20D24908604FF48270F0
:10446000CC490860D04908601FED301ADFEDCA0A58
:1044700006201FED340AFEF733FE00240FE006E0AD
:10448000012009F045FDFCF7EBFA00B905E0102129
:10449000C64806F03DFB0128F2D000BF641C642C26
:1044A000EDDB0020FEF727FDFFF727FE70BD10B5FE
:1044B0000246101E01DB044600E044422146142956
:1044C00000DD1421022901DA042010BD01EB4100B6
:1044D000400048434FF4C87490FBF4F0031D1846A5
:1044E000F3E72DE9F04104460D460020B04908608D
:1044F00036E026E0AF480068071B3846FFF7D7FFD5
:104500000646AC480068001B002809DDB6EE001A1C
:10451000DFEDA10A30469FEDA80AFEF7E1FD10E0AD
:10452000A4480068001B09D5B6EE001ADFED9A0A10
:1045300030461FED720AFEF7D3FD02E00020FEF7C1
:10454000DAFC9C490968081B002801DB014600E0F1
:1045500041420129CEDC96480068401C944908601D
:1045600093480068A842C4DBBDE8F08170B5992685
:104570009248046892480568FFF726FE4FF4FF70E2
:10458000FFF790FC00208A49086012E006E0FCF783
:1045900067FA00B907E0012009F0BAFC8948006811
:1045A000B0F5FA7FF3DB00BF81480068401C80490A
:1045B00008607F4800689628E8DBB6EE001ADFED59
:1045C000760A08201FED890AFEF78AFD0020784947
:1045D000086013E006E0FCF743FA00B908E00120A8
:1045E00009F096FC4021784806F092FA0028F2D0B3
:1045F00000BF6F480068401C6D4908606C48006847
:1046000040F20E618842E5DB0020FEF774FC6F4843
:104610000068012860D16E48006898B96D4800684C
:1046200080B96D48006868B96C48006850B94FF4AB
:104630007A712046FFF755FF0020FEF75CFCFFF77C
:10464000E9FB49E062480068012813D1614800682D
:1046500080B96148006868B96048006850B94FF493
:104660007A712046FFF73DFF0020FEF744FCFFF77C
:10467000D1FB31E056480068012814D15548006844
:10468000012810D15448006868B95448006850B9EE
:104690004FF47A712846FFF724FF0020FEF72BFC29
:1046A000FFF7B8FB18E04A480068012814D14948D0
:1046B0000068012810D14848006801280CD14748FB
:1046C000006848B94FF47A712846FFF70AFF0020C6
:1046D000FEF711FCFFF79EFB40F23520FFF7E2FBEF
:1046E0000020FEF708FC70BD10B5FFF76DFD40F22D
:1046F0000910FFF7D7FB9FED3A1ADFED270A0820D4
:104700001FEDD80AFEF7ECFC00202949086013E0F1
:1047100006E0012009F0FCFBFCF7A2F900B905E076
:104720004021294806F0F4F90028F2D000BF2048C3
:104730000068401C1E4908601D480068FA28E7DB35
:104740000020FEF7D8FB4FF4FA6009F0E1FB1F48A8
:104750000068012801D1FFF7AFFB10BD70B5174805
:10476000046817480568FFF72FFD40F20910FFF7AE
:1047700099FB9FED1C1ADFED080A08201FEDF70AD0
:10478000FEF7AEFC00200A49086040E033E000007C
:10479000B8000020FC02002000006144000002403C
:1047A00030030020340300200803002000100240E2
:1047B000BC020020A0000020000000005C010020DE
:1047C00060010020BC00002000040240E400002042
:1047D000D0010020D4010020D8010020DC010020FD
:1047E000CDCCCC3D9A99993E012009F091FBFCF784
:1047F00037F900B905E04021FE4806F089F90028A4
:10480000F2D000BFFC480068401CFB490860FA4831
:104810000068FA28BADB0020FEF76DFB4FF4FA605F
:1048200009F076FBF5480068012810D1F4480068CB
:1048300070B9F448006858B9F348006840B9F348C3
:10484000006828B94FF47A712046FFF74AFE82E0EB
:10485000EB48006801280ED1EA48006858B9EA48D8
:10486000006840B9E948006828B94FF47A712046D9
:10487000FFF737FE6FE0E2480068012833D1E148D6
:10488000006801282FD1E048006860BBDF4800685D
:1048900048BBB6EE001A5FED400A05209FEDDC0A2A
:1048A000FEF71EFC0020D449086014E006E0012059
:1048B00009F02EFBFCF7D4F800B906E04FF40061D4
:1048C000D44806F025F90028F1D000BFCA48006896
:1048D000401CC9490860C84800689628E6DB0020EB
:1048E000FEF709FB37E0C6480068012833D1C54808
:1048F000006801282FD1C448006801282BD1C34883
:10490000006840BBB6EE001A5FED5D0A05209FED22
:10491000C00AFEF7E5FB0020B749086014E006E096
:10492000012009F0F5FAFCF79BF800B906E04FF416
:104930000061B84806F0ECF80028F1D000BFAE489E
:104940000068401CAC490860AB4800689628E6DB6C
:104950000020FEF7D0FA70BD2DE9F05F82460D46CB
:1049600014461E46DDE90B9BDDF82880AA4909683C
:10497000881B002801DB014600E0414201FB0BF7E8
:104980004F4500DD4F46A4480068801B404510DAC3
:10499000E81B00EE900AF8EEE00AB0EE600A1FEDA8
:1049A0006F1A00EE904AF8EEE00A5046FEF798FBC8
:1049B00022E099480068801B404510DDE81900EEB0
:1049C000900AF8EEE00AB0EE600A1FED7A1A00EEE7
:1049D000904AF8EEE00A5046FEF782FB0CE01FED2D
:1049E0007F1A00EE104AF8EEC00A504600EE105A48
:1049F000B8EEC00AFEF774FBBDE8F09FFEB59A263C
:104A0000FFF7E2FB00207C49086021E014E032203F
:104A100040F2262102223346CDE9002102907F4A4E
:104A20007E4914390720FFF797FF012009F070FA3B
:104A3000FCF716F800B905E01021794806F068F88F
:104A40000028E4D000BF6C480068401C6A49086038
:104A500069480068B0F57A7FD8DB0020FEF74BFA92
:104A60009FED701ADFED700A05201FEDB50AFEF705
:104A700037FBFDF702FC06E0012009F049FAFBF7DD
:104A8000EFFF00B911E0FCF775F80546FCF748F8B0
:104A9000041E01DB204600E06042002D01DB2946B8
:104AA00000E0694208449628E6DB00BF0020FEF7DC
:104AB00022FAFEBD3EB59A24FFF786FB00204E4940
:104AC00008601CE011E0322040F226210222234639
:104AD000CDE900210290514A504914390720FFF7CF
:104AE0003BFFFBF7BDFF00B903E050480068192801
:104AF000E9DC00BF40480068401C3F4908603E4870
:104B00000068B0F57A7FDDDB00203B4908601CE0DF
:104B100011E0322040F2262102222346CDE9002175
:104B200002903E4A3D4914390720FFF715FFFBF775
:104B300097FF00B903E03E4800689428E9DC00BF15
:104B40002D480068401C2C4908602B480068B0F5CF
:104B50007A7FDDDB0020FEF7CEF96420354908605E
:104B60008C20354908604FF4967034490860344908
:104B700008603EBD70B5012032490860002032490E
:104B800081F82B005A202B49086082202A490860AE
:104B90002E480068001F294908602D480068001F42
:104BA00027490860002415E006E0012009F0B0F96B
:104BB000FBF756FF00B90BE026490968204A126846
:104BC000881A002801DB014600E041420A29ECDC9A
:104BD00000BF641CFA2CE7DB0020FEF78CF99FED88
:104BE000111ADFED1D0A0A209FED0F0AFEF778FA71
:104BF000002444E000040240BC020020E400002045
:104C0000D0010020D4010020D8010020DC010020C8
:104C10000000E14400000240A000002090FCFFFFE3
:104C200000100240CDCC4C3E000061C49C0000202E
:104C3000AC0000203003002034030020FC020020E0
:104C4000080300209003002004000020F802002048
:104C500004030020BC0000200000614406E00120A5
:104C600009F056F9FBF7FCFE00B906E04FF480713D
:104C7000FB4805F04DFF0128F1D000BF641C40F255
:104C800026208442EADBFDF7F8FA06E0052009F069
:104C90003FF9FBF7E5FE00B912E0FBF717FF064608
:104CA000FBF7E7FE051E01DB284600E06842002E08
:104CB00001DB314600E071420844B0F5967FE5DB48
:104CC00000BF0F20FEF717F9DC20E6490860E64830
:104CD0000068C01EE5490860002415E006E00520D4
:104CE00009F016F9FBF7BCFE00B90BE0E0490968D2
:104CF000DE4A1268881A002801DB014600E04142C2
:104D00000A29ECDC00BF641C322CE7DB40F6B8302B
:104D100009F0FEF81FED3D1A5FED310A0C201FED82
:104D20003E0AFEF7DDF900240FE006E0022009F05C
:104D3000EFF8FBF795FE00B905E00121CD4805F03D
:104D4000E7FE0128F2D000BF641C40F22620844216
:104D5000EBDB1E20C3490860C34800680A30C34922
:104D60000860002410E006E0012009F0D1F8FBF70C
:104D700077FE00B906E04FF40051BE4805F0C8FECA
:104D80000128F1D000BF641C40F226208442EADBF7
:104D90000020FEF7B0F8FA20B7490860B74800686D
:104DA000C01CB7490860002415E006E0012009F0A6
:104DB000AFF8FBF755FE00B90BE0B2490968B04AFD
:104DC0001268881A002801DB014600E041420A29E6
:104DD000ECDC00BF641CFA2CE7DB40F6B83009F0CD
:104DE00097F81FED701A5FED640A07201FED720A35
:104DF000FEF776F9002410E006E0012009F088F8BB
:104E0000FBF72EFE00B906E04FF48051944805F000
:104E10007FFE0128F1D000BF641CFA2CECDBFDF70B
:104E20002CFA06E0052009F073F8FBF719FE00B92B
:104E300012E0FBF74BFE0646FBF71BFE051E01DBEF
:104E4000284600E06842002E01DB314600E0714256
:104E50000844B0F5C87FE5DB00BF642081490860E5
:104E60008C20854908604FF48270854908607F492D
:104E700008601FED941A5FED880A06201FED960A60
:104E8000FEF72EF900240FE006E0012009F040F8BB
:104E9000FBF7E6FD00B905E01021764805F038FE85
:104EA0000128F2D000BF641C642CEDDB00207649A1
:104EB0000860FEF720F8FFF720F970BD10B5FFF786
:104EC00059FE40F20910FEF7EDFF9FED701A5FEDFD
:104ED0009E0A08201FEDAC0AFEF702F900206C497B
:104EE000086013E006E0012009F012F8FBF7B8FDB6
:104EF00000B905E04021674805F00AFE0028F2D01D
:104F000000BF63480068401C614908606048006851
:104F1000FA28E7DB0020FDF7EEFF4FF4FA6008F017
:104F2000F7FF5D480068012802D1FEF7C5FF00BF0A
:104F300010BD10B5FFF71EFE4FF4FF70FEF7B2FF75
:104F40009FED521A5FEDBC0A08201FEDC90AFEF75B
:104F5000C7F800204E49086012E006E0FBF780FD2C
:104F600000B907E0012008F0D3FF41480068B0F520
:104F7000FA7FF3DB00BF46480068401C44490860E4
:104F8000434800689628E8DB00204149086016E0A5
:104F900009E0012008F0BCFFFBF762FD00B908E062
:104FA000012008F0B5FF40213A4805F0B1FD012885
:104FB000EFD000BF36480068401C354908603448CF
:104FC000006840F20E618842E2DB0020FDF793FFAB
:104FD0004FF4FA6008F09CFF2F480068012801D1C7
:104FE000FEF76AFF4FF41170FEF75CFF0020FDF73B
:104FF00082FF10BD70B564201A49086082201E49E6
:1050000008601E4800680A301D490860164800689C
:105010000A3016490860002415E006E0012008F077
:1050200077FFFBF71DFD00B90BE0114909680F4A36
:105030001268881A002801DB014600E04142082975
:10504000ECDC00BF641C322CE7DB9FED141ADFEDB3
:10505000140A07209FED130AFEF742F8002433E0FC
:10506000000002403003002000030020080300205D
:10507000BC0000200010024034030020F402002095
:10508000FC020020B800002090030020CDCCCC3DD5
:10509000BC02002000040240E4000020CDCC4CBE45
:1050A00000006144000061C406E0052008F030FF04
:1050B000FBF7D6FC00B905E04021F64805F028FDD5
:1050C0000028F2D000BF641CFA2CEDDB4FF4FA602C
:1050D00008F01EFFF0480068401DF04908601FED11
:1050E000111A5FED110A07201FED120AFDF7F8FFF4
:1050F000FDF7C3F806E0012008F00AFFFBF7B0FC5B
:1051000000B912E0FBF7E2FC0646FBF7B2FC051E15
:1051100001DB284600E06842002E01DB314600E05A
:1051200071420844B0F5487FE5DB00BF0020FDF781
:10513000E2FE9620DA490860D7480068F030D74987
:105140000860002415E006E0012008F0E1FEFBF70E
:1051500087FC00B90BE0D3490968D04A1268881A65
:10516000002801DB014600E041423C29ECDC00BFA5
:10517000641C322CE7DB1E20C9490860002415E0BE
:1051800006E0012008F0C4FEFBF76AFC00B90BE062
:10519000C4490968C14A1268881A002801DB01461F
:1051A00000E041420629ECDC00BF641C322CE7DB46
:1051B0004FF4FA6008F0ACFE1FED481A5FED480AA4
:1051C00007201FED480AFDF78BFF002410E006E0E2
:1051D000012008F09DFEFBF743FC00B906E04FF408
:1051E0000051B14805F094FC0028F1D000BF641CC8
:1051F00040F226208442EADBAC480068401DAC49FE
:105200000860002415E006E0012008F081FEFBF7AD
:1052100027FC00B90BE04FF48051A64805F078FC5C
:1052200028B90421A04805F073FC0028ECD000BF89
:10523000641CB4F57A7FE6DB4FF47A6008F068FE10
:105240000020FDF758FE96209B49086097480068AB
:10525000F03097490860002415E006E0012008F0CE
:1052600057FEFBF7FDFB00B90BE094490968904A33
:105270001268881A002801DB014600E041423C29FF
:10528000ECDC00BF641C322CE7DB14208A49086088
:10529000002415E006E0012008F03AFEFBF7E0FBF1
:1052A00000B90BE085490968814A1268881A00280C
:1052B00001DB014600E041420629ECDC00BF641C32
:1052C000322CE7DB1FED8B1A5FED8B0A0A201FEDF6
:1052D0008B0AFDF705FF00240FE006E0012008F02F
:1052E00017FEFBF7BDFB00B905E010216E4805F085
:1052F0000FFC0028F2D000BF641C962CEDDB0020D0
:10530000FDF7F9FDFEF7F9FE70BD10B5FFF772FE6F
:1053100010BD2DE9F0419A27A1264FF0E208FFF7D2
:1053200069FE4FF4FF70FEF7BDFDB6EE001A5FEDAB
:10533000A40A08201FEDA50AFDF7D2FE002060494F
:10534000086012E006E0FBF78BFB00B907E00120E4
:1053500008F0DEFD53480068B0F5FA7FF3DB00BFCC
:1053600057480068401C5649086055480068962810
:10537000E8DB00205249086013E006E0FBF770FB11
:1053800000B908E0012008F0C3FD4021414805F0C4
:10539000BFFB0128F2D000BF49480068401C4849C3
:1053A00008604748006840F20E618842E5DB002053
:1053B000FDF7A1FD4348006801283AD14248006842
:1053C000C0BB42480068A8BB4148006890BB414848
:1053D000006878BB4FF47A713046FFF782F89FED92
:1053E0003E1A5FEDD10A05201FEDD20AFDF778FEC7
:1053F000FCF743FF06E0012008F08AFDFBF730FBD5
:1054000000B912E0FBF762FB0546FBF732FB041E16
:1054100001DB204600E06042002D01DB294600E070
:1054200069420844B0F52F7FE5DB00BF0020FDF79F
:1054300062FDD0E0FFE72448006801285DD12348E1
:10544000006830BB2248006818BB2248006800BBD7
:105450004FF47A713046FFF744F89FED1F1A5FED65
:10546000F00A05201FEDF10AFDF73AFEFCF705FFF3
:1054700006E0012008F04CFDFBF7F2FA00B937E036
:10548000FBF724FB0546FBF7F4FA041E26DB204657
:1054900025E032E000040240000300200803002061
:1054A00030030020BC00002000100240F402002065
:1054B000FC0200200000024034030020B80000205D
:1054C000BC020020E4000020D0010020D401002014
:1054D000D8010020DC0100209A99993E6042002DFD
:1054E00001DB294600E069420844B0F52F7FC0DBAC
:1054F00000BF0020FDF7FFFC6DE0FE4800680128BA
:1055000032D1FD48006801282ED1FC48006858BB04
:10551000FB48006840BBB6EE001ADFEDFA0A052032
:105520009FEDF90AFDF7DCFD0020F849086013E063
:1055300006E0012008F0ECFCFBF792FA00B905E068
:105540000421F34805F0E4FA0028F2D000BFEF4848
:105550000068401CED490860EC4800689628E7DBCD
:105560000020FDF7C8FC36E0E2480068012832D18F
:10557000E148006801282ED1E048006801282AD1BE
:10558000DF48006838BBB6EE001ADFEDDE0A052002
:105590009FEDDD0AFDF7A4FD0020DC49086013E063
:1055A00006E0012008F0B4FCFBF75AFA00B905E068
:1055B0000421D74805F0ACFA0028F2D000BFD34848
:1055C0000068401CD1490860D04800689628E7DB95
:1055D0000020FDF790FC40F23520FEF763FC002030
:1055E000FDF789FCBDE8F0810EB5FFF703FD002053
:1055F000C64908601CE011E0322040F22621022258
:105600002A23CDE900210290C24AC2491439072059
:10561000FFF7A2F9FBF724FA00B903E0BE480068DF
:105620001928E9DC00BFB9480068401CB749086088
:10563000B6480068B0F57A7FDDDB0020B34908602A
:105640001CE011E0322040F2262102222A23CDE97B
:1056500000210290AF4AAF4914390720FFF77CF9C7
:10566000FBF7FEF900B903E0AC4800689428E9DCD8
:1056700000BFA6480068401CA4490860A348006811
:10568000B0F57A7FDDDB0020FDF735FC7820A449FA
:1056900008608C20A34908604FF48270A24908601A
:1056A000A24908600EBD2DE9F05F82460D46144602
:1056B0001E46DDE90B9BDDF828809D490968881BA3
:1056C000002801DB014600E0414201FB0BF74F459A
:1056D00000DD4F4696480068801B404510DAE81B05
:1056E00000EE900AF8EEE00AB0EE600A1FED861AAE
:1056F00000EE904AF8EEE00A5046FDF7F1FC22E099
:105700008B480068801B404510DDE81900EE900AC8
:10571000F8EEE00AB0EE600A1FED911A00EE904A32
:10572000F8EEE00A5046FDF7DBFC0CE01FED961AA0
:1057300000EE104AF8EEC00A504600EE105AB8EEDD
:10574000C00AFDF7CDFCBDE8F09F3EB5FFF752FC67
:1057500000206E49086021E014E0322040F226214A
:1057600002220C23CDE9002102906A4A69491439CA
:105770000720FFF798FF012008F0CAFBFBF770F93C
:1057800000B905E01021624805F0C2F90028E4D014
:1057900000BF5E480068401C5C4908605B480068C8
:1057A000B0F57A7FD8DB0020FDF7A5FB9FED611AED
:1057B000DFED610A05209FED530AFDF791FCFCF730
:1057C0005CFD06E0012008F0A3FBFBF749F900B9F6
:1057D00011E0FBF7CFF90546FBF7A2F9041E01DB48
:1057E000204600E06042002D01DB294600E06942CE
:1057F00008449628E6DB00BF0020FDF77CFB3EBD99
:105800002DE9F04104460D4600204049086036E08D
:1058100026E047480068071B3846FEF748FE064664
:1058200043480068001B002809DDB6EE001ADFEDD2
:10583000350A30469FED340AFDF752FC10E03C4833
:105840000068001B09D5B6EE001ADFED2E0A3046BF
:105850009FED3A0AFDF744FC02E00020FDF74BFB08
:1058600033490968081B002801DB014600E041427A
:105870000129CEDC25480068401C244908602348E3
:105880000068A842C4DBBDE8F08110B52C4804686C
:10589000FFF7B0FB40F20910FEF704FB1FEDF21A10
:1058A000DFED180A08209FED240AFDF719FC0020FF
:1058B0001649086013E006E0012008F029FBFBF719
:1058C000CFF800B905E040211E4805F021F9002875
:1058D000F2D000BF0D480068401C0C4908600B481E
:1058E0000068FA28E7DB0020FDF705FB4FF4FA60BB
:1058F0002AE00000D0010020D4010020D8010020BF
:10590000DC010020000061440000E144BC020020F2
:105910000010024090FCFFFF9C000020AC00002023
:105920003003002034030020FC0200200803002084
:10593000A4000020CDCC4C3E000061C4000000005B
:10594000640100200004024008F0E2FAFE4800680A
:10595000012833D1FD48006888BBFD48006870BB52
:10596000FC48006858BBFC48006840BBB6EE001A13
:105970005FED1C0A05201FED0F0AFDF7B1FB0020AB
:10598000F649086013E006E0012008F0C1FAFBF7D1
:1059900067F800B905E00121F14805F0B9F80028E1
:1059A000F2D000BFED480068401CEC490860EB48AD
:1059B00000689628E7DB0020FDF79DFA5EE0FFE730
:1059C000E2480068012831D1E148006870BBE14835
:1059D000006858BBE048006840BBB6EE001A5FEDB7
:1059E000370A05201FED2B0AFDF77AFB0020DB4963
:1059F000086013E006E0012008F08AFAFBF730F8AF
:105A000000B905E00121D64805F082F80028F2D05F
:105A100000BFD2480068401CD0490860CF480068E9
:105A20009628E7DB0020FDF766FA27E0C748006804
:105A300001280FD1C648006801280BD1C54800686D
:105A400040B9C548006828B94FF47A712046FFF77D
:105A5000D7FE13E0BD48006801280FD1BC4800689C
:105A600001280BD1BB480068012807D1BA4800685B
:105A700020B94FF47A712046FFF7C2FE10BD70B511
:105A800040F2B720FEF70EFA0020B449086013E098
:105A900006E0012008F03CFAFAF7E2FF00B905E061
:105AA000B048006840F2B2218842F2DB00BFAB4848
:105AB0000068401CA9490860A8480068FA28E7DB8C
:105AC000FEF71BFB1FED651A5FED720A0F201FED3D
:105AD000720AFDF705FB0020A049086012E006E00D
