:020000040800F2
:10000000D8EC0020258000084502000847020008BF
:100010004B0200084F0200085302000800000000D5
:100020000000000000000000000000009D0100082A
:100030005702000800000000E10100083FB000087E
:100040003F8000083F8000083F8000083F80000894
:100050003F8000083F8000083F8000083F80000884
:10006000A9040008ED0400083F80000819030008F7
:10007000FB0200085B0300083F80000875020008CF
:100080003F800008810200083F8000083F80000890
:100090003F8000083F8000083F8000083F80000844
:1000A0003F800008C5030008F10300083F800008F6
:1000B000F3030008210400084D0400083F800008F5
:1000C0003F8000083F8000083F800008A50400082A
:1000D0003F8000085D0200083F8000083F80000864
:1000E0003F8000083F8000083F8000083F800008F4
:1000F0003F8000083F8000083F8000083703000869
:100100003F8000083F80000879040008A704000829
:100110003F8000083F80000897030008A303000801
:100120003F8000089B020008CD0200083F800008C5
:100130003F8000083F8000083F8000083F800008A3
:100140003F8000083F8000083F8000083F80000893
:10015000ED0200083F8000083F8000083F80000853
:100160003F8000083F8000083F8000083F80000873
:100170003F8000083F8000083F8000083F80000863
:100180003F8000083F800008DFF80CD00CF07CFABC
:10019000004800474F7D0008D8EC0020234B196829
:1001A0000868B0E8F04F80F309884FF0000080F352
:1001B000118870470000000003480068006880F361
:1001C000088862B600DF00BF08ED00E0DFF80C0031
:1001D000016841F470010160704700BF88ED00E0E4
:1001E000EFF30980114B1A681EF0100F08BF20EDC5
:1001F000108A20E9F04F106008B54FF0140080F32A
:1002000011880BF0E4FA4FF0000080F31188BDE88C
:10021000084019680868B0E8F04F1EF0100F08BFDA
:10022000B0EC108A80F30988704700BFEC0300200F
:10023000EFF311804FF0140181F31188704780F3C0
:1002400011887047704700BFFEE700BFFEE700BFA0
:10025000FEE700BFFEE770477047704710B540F2F9
:100260002551A34809F0FFFF18B12021A04809F04B
:10027000F1FF10BD10B59F499F4808F029FF10BD40
:1002800010B59E499C48303008F0F8FE20B19B49DB
:100290009948303008F01CFF10BD10B598499948B6
:1002A00008F0ECFE88B19649964808F011FF01F07D
:1002B0001DFF0021934808F037FE0421914808F003
:1002C00054FE01218F4808F02FFE10BD10B58E4955
:1002D0008C48183008F0FCFE8C4840788B4909782F
:1002E00040EA012000B28A49088010BD10B5894952
:1002F0008448603008F0ECFE10BD10B580497E489F
:10030000483808F0BBFE30B17D497B48483808F0DA
:10031000DFFE00F0B9FA10BD10B57F4976486038AD
:1003200008F0ACFE30B17C497348603808F0D0FE6C
:1003300001F0DCFE10BD10B578496F48483008F078
:100340009DFE48B100216C48483008F0EDFD73492E
:100350006948483008F0BCFE10BD10B56A496648CF
:10036000303808F08BFEA8B167496348303808F090
:10037000AFFE01F0E4FC00215F48303808F0D4FD06
:1003800008215D48303808F0F0FD01215A48303826
:1003900008F0CAFD10BD10B50121614809F0C0FC8C
:1003A00010BD10B501215F4809F0BAFC7A20504910
:1003B000888001215C4809F065FE01215B4809F055
:1003C00061FE10BD10B50121594809F0A9FC58483B
:1003D000008800F0100028B156480068401E5549BA
:1003E000086004E053480068401C5249086010BD92
:1003F000704710B50121880709F092FC4FF080404A
:10040000008800F0100028B14B480068401E4A499F
:10041000086004E048480068401C4749086010BD77
:1004200010B50121454809F07BFC4448008800F0E4
:10043000100028B142480068401E4149086004E0AD
:100440003F480068401C3E49086010BD10B50121BE
:100450003C4809F065FC3B48008800F0100028B1DA
:1004600039480068401E3849086004E03648006892
:10047000401C3549086010BD10B50121334809F012
:100480004FFC3248008800F0100028B13048006866
:10049000401E2F49086004E02D480068401C2C498C
:1004A000086010BD7047704710B5042008F0A8FE22
:1004B000D8B12021274807F02CFF0421264807F057
:1004C00003FF012804D10021164808F0A9FF09E024
:1004D0000421214807F0F8FE20B9124808F0A4FFD3
:1004E0001E49086004201E49086010BD70470000C6
:1004F0000010014020800020706002400080202019
:100500000088001028640240008020100C060020A3
:100510008C0000200088002020800010008000282F
:10052000001000400014004000480040001401404A
:10053000000001406C00002070000020000400401A
:10054000740000200008004088000020000C0040DB
:100550007800002000000240000C024068000020EB
:10056000143C014070B5044620460BF019FD0546C9
:100570002146F8480BF01BFDA0B195222146F54815
:100580000BF002FD0021F44808F0CEFCF148F249DE
:100590000C310860F048B838C0F8BC500121EE4872
:1005A00008F0C2FC70BD70B50446002510E0605D27
:1005B00068B1615DE94809F090FD00BF8021E7481E
:1005C00009F03BFE0028F9D0681CC5B200E070BD00
:1005D000EDE770B5044600250FE05CB12146DF4829
:1005E00009F07BFD00BF8021DC4809F026FE0028D1
:1005F000F9D000E070BD681CC5B2032DEDDB00BF73
:10060000F8E713B50C460020FFF7E3FFD4A0FFF78F
:10061000CAFF2346D3A29621D3480CF073F8D248E0
:10062000FFF7C1FFD1A0FFF7BEFFCEA29621CE48B3
:10063000009B0CF067F8CC48FFF7B5FFCDA0FFF7A3
:10064000B2FFFF20FFF7C5FFFF20FFF7C2FFFF202B
:10065000FFF7BFFF1CBD70B505460C46C0A0FFF7F5
:10066000A2FF2246BFA1C0480CF064F8BE48FFF7C5
:100670009AFFBEA0FFF797FF2846FFF794FFBDA0A3
:10068000FFF791FFFF20FFF7A4FF70BD77B585B09E
:100690000546FF26B5A103C9CDE90301B5A0006851
:1006A0000290AFA00068019000240AE00020B24947
:1006B0000855B2490855AC490855A6490855601C6B
:1006C000C4B21E2CF2DB0A20A7490870FF20487034
:1006D0008870C870A3A1A948079A0CF02BF8A74905
:1006E00001A80BF045FC01A99F480BF041FC03A9B0
:1006F0009D480BF03DFC29469B480BF039FC99A125
:100700009E48069A0CF016F89C4997480BF030FC6E
:1007100002A995480BF02CFCFF20974908704870FF
:10072000887091480BF024FC8F48FFF71BFF08B03E
:1007300070BDF7B584B005460E46FF278BA103C9EF
:10074000CDE902018BA00068019085A000680090AF
:10075000002408E000208849085588490855824946
:100760000855601CC4B20A2CF4DB0A207E490870CC
:10077000FF2048708870C8707AA18048069A0BF0F4
:10078000D9FF7E4968460BF0F3FB694676480BF0CB
:10079000EFFB02A974480BF0EBFB294672480BF003
:1007A000E7FB314670480BF0E3FB01A96E480BF004
:1007B000DFFBFF2070490870487088700020C87007
:1007C000087169480BF0D4FB6748FFF7CBFE07B010
:1007D000F0BD01B58EB06AA2322101A80E9B0BF0CC
:1007E00091FF01A8FFF7BEFE0FB000BD73B584B046
:1007F0000546FF265DA103C9CDE902015DA00068A1
:10080000019057A00068009000240AE000205A4997
:1008100008555A490855544908554E490855601C11
:10082000C4B21E2CF2DB0A204F490870FF2048702A
:100830008870C8704BA15148059A0BF07BFF4F4957
:1008400068460BF095FB694647480BF091FB02A9FF
:1008500045480BF08DFB294643480BF089FB47497F
:1008600041480BF085FB01A93F480BF081FBFF20BD
:1008700041490870487088703B480BF079FB3A4852
:10088000FFF770FE06B070BD10B52DED0C8B82B079
:100890003E4800783D49497808443C4989780844F5
:1008A0003A49C978084439490979084437494979A6
:1008B00008443649897908443449C9790844334998
:1008C000097A0844C0B201903048007A00F00F0065
:1008D00000909FED2F0AB0EE40DA2C48407A019943
:1008E000884271D12948007A00F00F000D286BD1A1
:1008F00026488078C0F17F0000EE100AB8EEC08A6A
:100900002248C078813800EE100AF8EEC08AB5EEB1
:10091000C08AF1EE10FA03D1B7EE000AB0EE408AB9
:10092000F5EEC08AF1EE10FA03D1B7EE000AF0EE50
:10093000408ABDEEC80A10EE102A002A01DB1346D9
:1009400000E05342BDEEE80A10EE100A002821DB59
:10095000044620E062050020B860024000500040DC
:1009600074000000256400002C0400202E747874AC
:100970003D2200002200000012050020EA040020B1
:100980006A302E76616C3D25640000004D06002023
:10099000DB0F49404442191901EBD1735B10F94C4C
:1009A0002360BDEEE80A10EE101A002901DB0A46AA
:1009B00000E04A42322A0FDABDEEC80A10EE100AF1
:1009C000002802DB024601E02FE04242322A03DA2D
:1009D0000020ED49086030E018EE900A0BF0ADFC05
:1009E00041EC1B0B18EE100A0BF0A7FC41EC1C0BA2
:1009F000B0EE4B1AF0EE6B1AB0EE4C0AF0EE6C0A49
:100A00000CF046F8B0EE40AAF0EE60AA9FEDDF0BC6
:100A100053EC102B51EC1A0B0BF07EFB41EC190B35
:100A20000BF06CFCD849086007E09DF800000D2829
:100A300003D00021D74809F025FB02B0BDEC0C8B98
:100A400010BDD548007A00F00F000D2806D1D2481D
:100A5000007800F0010008B10D2070470020FCE78D
:100A6000CD48007800F0100008B100207047012048
:100A7000FCE71CB54FF0804008F0D6FCC749096878
:100A800040EA01400C2190FBF1F00090002418E0B6
:100A90004FF0804008F0C8FCC049096840EA0140B6
:100AA0000C2190FBF1F00190DDE90021881A00286B
:100AB00001DB014600E04142052900DA641C01988F
:100AC0000090022CE4DB019840421CBD1CB5B448E8
:100AD00008F0AAFCB349096840EA01400C2190FBE8
:100AE000F1F00090002417E0AD4808F09DFCAD49FE
:100AF000096840EA01400C2190FBF1F00190DDE92A
:100B00000021881A002801DB014600E04142052946
:100B100000DA641C01980090022CE5DB01981CBDF2
:100B20001CB5A14808F080FCA049096840EA0140D2
:100B30000C2190FBF1F00090002417E09A4808F097
:100B400073FC9A49096840EA01400C2190FBF1F0DE
:100B50000190DDE90021881A002801DB014600E050
:100B60004142052900DA641C01980090022CE5DB63
:100B700001981CBD1CB58E4808F056FC8D490968CB
:100B800040EA01400C2190FBF1F00090002417E0B6
:100B9000874808F049FC8749096840EA01400C2170
:100BA00090FBF1F00190DDE90021881A002801DBBB
:100BB000014600E04142052900DA641C01980090DA
:100BC000022CE5DB01981CBD01B581B0002000902E
:100BD000019800EBC0004000009002E00098401E29
:100BE000009000980028F9D10CBD01B581B000201B
:100BF000009044F2506101984843009002E0009850
:100C0000401E009000980028F9D10CBD1CB50121B0
:100C10001F2007F03DFD4FF6FF70009001208DF87A
:100C2000040000208DF8060001208DF80700032045
:100C30008DF805006946604807F0E4FA4FF6FF704A
:100C4000009001208DF8040000208DF8060001209E
:100C50008DF8070003208DF805006946574807F016
:100C6000D1FA4FF6FF70009001208DF804000020AB
:100C70008DF8060001208DF8070003208DF805008F
:100C800069464F4807F0BEFA1CBD1CB501217E2005
:100C900007F0FEFC4FF4CE50009000208DF80400C9
:100CA00001208DF8070002208DF8050069464548AF
:100CB00007F0A8FA4FF6C740009000208DF8040016
:100CC00001208DF8070002208DF8050069463A489A
:100CD00007F098FA0420009000208DF8040001200D
:100CE0008DF8070002208DF805006946334807F0AB
:100CF00089FA4FF44C40009000208DF80400012048
:100D00008DF8070002208DF8050069462C4807F091
:100D100079FA1CBD1FB54FF4E06007F095F9362055
:100D20008DF8000000208DF801008DF802000120F0
:100D30008DF80300684607F08CF90121102007F0B8
:100D4000DAFC3220ADF8040040F2E73002900020D7
:100D5000ADF80C00ADF8060001A91B4808F017FB20
:100D60000121194808F0DCFF01221146164808F05D
:100D7000AFFF0021144808F053FB0121124808F08E
:100D80008FFB1FBDC8000020C400002000000080B1
:100D9000A9E78140004800404D0600207000002077
:100DA000000400407400002000080040880000207B
:100DB000000C0040780000200004024000080240BF
:100DC000000C024000000240001000401FB54FF42C
:100DD000E06007F039F937208DF8000000208DF829
:100DE00001008DF8020001208DF80300684607F02D
:100DF00030F90121202007F07EFC3220ADF80400FC
:100E000040F2E73002900020ADF80C00ADF806008B
:100E100001A9FE4808F0BBFA0121FC4808F080FF58
:100E200001221146F94808F053FF0021F74808F065
:100E3000F7FA0121F54808F033FB1FBD00B58BB070
:100E40000121022007F068FC01210C2007F020FCA2
:100E500003220621EE4807F060FA03220721EC483E
:100E600007F05BFA03220821E94807F056FA03224B
:100E70000921E74807F051FA4FF4707006900220FC
:100E80008DF81C0003208DF81D0000208DF81E0039
:100E900001208DF81F0006A9DD4807F0B3F9A42052
:100EA000ADF8200040F6B83009904FF48070ADF8EE
:100EB00028000020ADF8220008A9D64808F067FAFB
:100EC0006020ADF804000120ADF80600002003907A
:100ED000ADF810000121CF4808F0E2FA0021CD481A
:100EE00008F09EFA01A9CB4808F0E6FA01A9C94822
:100EF00008F01BFB01A9C74808F064FB01A9C5481D
:100F000008F0C6FB0121C34808F0BBFE0BB000BDD2
:100F100000B58BB00121082007F0EDFB0121084648
:100F200007F0B6FB02220021BB4807F0F6F90222C7
:100F30000121B94807F0F1F902221146B64807F03D
:100F4000ECF902220321B44807F0E7F90F200690DC
:100F500002208DF81C0003208DF81D0000208DF864
:100F60001E0001208DF81F0006A9AB4807F04AF9C2
:100F7000BA20ADF8200042F2107009900020ADF8C0
:100F80002800ADF8220008A9A44808F000FA602063
:100F9000ADF804000120ADF8060000200390ADF884
:100FA000100001219D4808F07BFA00219B4808F0C1
:100FB00037FA01A9994808F07FFA01A9974808F083
:100FC000B4FA01A9954808F0FDFA01A9934808F080
:100FD0005FFB0121914808F054FE0BB000BD00B545
:100FE0008BB00121042007F086FB01210D2007F0C2
:100FF0004FFB02220C218A4807F08FF902220D21B3
:10100000874807F08AF902220E21854807F085F902
:1010100002220F21824807F080F94FF470400690B9
:1010200002208DF81C0003208DF81D0000208DF893
:101030001E0001208DF81F0006A9794807F0E2F88C
:10104000A420ADF8200040F6B83009904FF480702D
:10105000ADF828000020ADF8220008A9714808F07A
:1010600096F96020ADF804000120ADF806000020DC
:101070000390ADF8100001216A4808F011FA002130
:10108000684808F0CDF901A9664808F015FA01A9E9
:10109000644808F04AFA01A9624808F093FA01A9E5
:1010A000604808F0F5FA0BB000BD00B589B0012129
:1010B000080407F031FB0121084607F0E9FA032292
:1010C0001146554807F029F903220221524807F03A
:1010D00024F90C20019002208DF8080003208DF8DF
:1010E000090000208DF80A0001208DF80B0001A9ED
:1010F000494807F087F80020ADF818004FF6FF7058
:1011000007900020ADF82000ADF81A0006A9464867
:1011100008F03DF90420ADF80C000020ADF80E00F9
:10112000C820ADF814000120ADF8100003A93E4816
:1011300008F004FD00231A4603213C4808F09BFEFA
:1011400001213A4808F0ECFD01221146374808F029
:10115000BFFD0121344808F0A3F90021334808F00D
:101160005FF909B000BD00B589B00121084607F05C
:10117000C2FA0121022007F0BEFA0121032007F084
:1011800087FA01220F21244807F0C7F80122032122
:10119000274807F0C2F802220421254807F0BDF8CD
:1011A00002220521224807F0B8F8382001900220D9
:1011B0008DF8080003208DF8090000208DF80A0042
:1011C00001208DF80B0001A9194807F01BF84FF416
:1011D0000040019002208DF8080003208DF80900DE
:1011E00000208DF80A0001208DF80B0001A90A48A3
:1011F00007F008F80020ADF818004FF6FF700790D0
:101200000020ADF82000ADF81A0013E000140040F3
:10121000000802400004014000000240000C0040B1
:10122000000C024000080040000001400040014066
:101230000004024006A94FF0804008F0A8F806A973
:10124000FE4808F0A4F80420ADF80C000220ADF828
:101250000E001420ADF814000120ADF8100003A911
:10126000800708F06BFC03A9F44808F067FC022330
:101270001A460321580708F0FEFD02231A460321EF
:10128000EE4808F0F8FD0121880708F049FD01212A
:10129000EA4808F045FD01221146900708F018FDC4
:1012A00001221146E54808F013FD0121880708F0E6
:1012B000F7F80121E14808F0F3F800214FF08040F1
:1012C00008F0AEF80021DD4808F0AAF84FF4C0603D
:1012D00006F0BAFE1D208DF8000003208DF80100F5
:1012E00000208DF8020001208DF80300684606F00A
:1012F000B0FE1C208DF8000004208DF801000020B5
:101300008DF8020001208DF80300684606F0A1FE6A
:1013100009B000BD00B589B00121084607F0FCF90D
:101320000121102007F0B4F94FF420600190022051
:101330008DF8080003208DF8090000208DF80A00C0
:1013400001208DF80B0001A9BD4806F05BFF0122CA
:101350000921BB4806F0E1FF01220B21B84806F045
:10136000DCFF0020ADF818004FF6FF70079000205A
:10137000ADF82000ADF81A0006A9B24808F007F849
:101380000420ADF80C000020ADF80E000A20ADF8E6
:1013900014000120ADF8100003A9AA4808F0CEFB04
:1013A00000231A460321A74808F065FD0121A5483E
:1013B00008F0B6FC01221146A24808F089FC012180
:1013C000A04808F0ADFC012211469E4808F080FCC0
:1013D00001219C4808F064F800219A4808F020F8A0
:1013E0004FF4C06006F030FE19208DF80000012097
:1013F0008DF8010000208DF8020001208DF8030017
:10140000684606F026FE09B000BD00B589B001218E
:10141000042007F070F90121082007F039F94FF492
:101420004050019002208DF8080003208DF809003B
:1014300000208DF80A0001208DF80B0001A98248D8
:1014400006F0E0FE0020ADF818004FF6FF700790A0
:101450000020ADF82000ADF81A0006A97B4807F07F
:1014600096FF02220C21784806F057FF02220D2138
:10147000754806F052FF0420ADF80C000220ADF8CC
:101480000E00C820ADF814000120ADF8100003A92B
:101490006E4808F053FB02231A4603216B4808F0FC
:1014A000EAFC0121694808F03BFC0122114667482B
:1014B00008F00EFC0121654807F0F2FF00216348A7
:1014C00007F0AEFF002061491431088001205F4918
:1014D00008804FF4C06006F0B7FD1E208DF80000B4
:1014E00004208DF8010000208DF8020001208DF805
:1014F0000300684606F0ADFD09B000BD00B589B037
:101500000121082007F0F7F80121084607F0C0F88C
:101510000320019002208DF8080003208DF80900B7
:1015200000208DF80A0001208DF80B0001A9484821
:1015300006F068FE0020ADF818004FF6FF70079027
:101540000020ADF82000ADF81A0006A9414807F0C8
:101550001EFF022200213E4806F0DFFE022201218A
:101560003B4806F0DAFE0420ADF80C000220ADF88E
:101570000E00C820ADF814000120ADF8100003A93A
:10158000344808F0DBFA02231A460321314808F0F8
:1015900072FC01212F4808F0C3FB012211462D489F
:1015A00008F096FB01212B4807F07AFF002129481B
:1015B00007F036FF00202749143108800120254913
:1015C00008804FF4C06006F03FFD32208DF8000027
:1015D00004208DF8010000208DF8020001208DF814
:1015E0000300684606F035FD09B000BD00B59BB0AC
:1015F0000121194807F04CF80121080207F08CF886
:101600000020029015480390154804900020059092
:101610000A200690002007904FF480600890400058
:10162000099080000A9040110B9040020C9000201D
:101630000D9001200E9000200F9013E00004004058
:101640000010024000000140000C02400008004071
:1016500000000240000C0040050040004C2001400A
:10166000F8050020109002A9FE4807F023FC012194
:10167000FC4807F059FCFC20009003208DF8040082
:1016800000208DF807006946F74806F0BBFD3C20B6
:10169000009003208DF8040000208DF807006946B3
:1016A000F24806F0AFFD00201190129013901490B4
:1016B00011A807F065F94FF08070159001208DF8A2
:1016C00058008DF8590000201790189019900A20A2
:1016D0008DF8680015A9E64807F023F900230122D8
:1016E0000221E34807F0A3F9002302220321E04886
:1016F00007F09DF9002303220421DD4807F097F944
:10170000002304220521DA4807F091F9002305227D
:101710000621D74807F08BF9002306220721D44879
:1017200007F085F9002307220C21D14807F07FF943
:10173000002308220D21CE4807F079F90023092261
:101740000E21CB4807F073F900230A220F21C84865
:1017500007F06DF90121C64807F014FA0121C448C9
:1017600007F005FA0121C24807F021F9C04807F047
:10177000BAF91BB000BD08B54FF4E06006F064FC98
:1017800025208DF8000000208DF801008DF8020062
:1017900001208DF80300684606F05BFC08BD10B51B
:1017A00096B004460121102006F0B6FF012108463C
:1017B00006F06EFF0121880506F06AFF4FF4C06055
:1017C000009002208DF8040000208DF806008DF8AE
:1017D000070002208DF805006946A34806F012FDB7
:1017E00007220921A04806F098FD07220A219E48F9
:1017F00006F093FD02940020ADF80C00ADF80E0049
:10180000ADF81000ADF814000C20ADF8120002A9DC
:10181000984808F0AFFB0121964808F033FC4FF4DC
:10182000A06006F011FC3A208DF8180000208DF819
:1018300019008DF81A0001208DF81B0006A806F08B
:1018400008FC8848303007F093FA4FF000600790AA
:1018500000200A90884809900A200B908548001DB6
:10186000089000200C904FF480600D9000200E90A6
:101870000F904FF48070109040021190042012904D
:101880000320139000201490159007A9754830305C
:1018900007F010FB01224021764808F0A0FC01224D
:1018A00010217048303007F0CCFB01216D483030FA
:1018B00007F03AFB16B010BD10B596B004460121F2
:1018C000480506F0E5FE0121480406F014FF012159
:1018D000082006F0DDFE6020009002208DF8040054
:1018E00000208DF806008DF8070002208DF8050015
:1018F0006946624806F086FC072205215F4806F02B
:101900000CFD072206215D4806F007FD0294002029
:10191000ADF80C00ADF80E00ADF81000ADF81400F5
:101920000C20ADF8120002A9554808F023FB012154
:10193000534808F0A7FB4FF4A06006F085FB112088
:101940008DF8180000208DF819008DF81A0001207C
:101950008DF81B0006A806F07CFB4A4807F008FA41
:101960004FF00060079040200A90474809905020AF
:101970000B904348001D089000200C904FF48060AD
:101980000D9000200E900F904FF480701090400248
:1019900011900420129003201390002014901590B1
:1019A00007A9384807F086FA01228021344808F058
:1019B00016FC01228021324808F011FC012210217E
:1019C000304807F03EFB01212E4807F0ADFA16B073
:1019D00010BD10B596B004460121880406F08BFEB8
:1019E0000121082006F054FE0121480506F050FEB2
:1019F0004FF44070009002208DF8040000208DF814
:101A000006008DF8070002208DF8050069461B4886
:101A100006F0F8FB07220821184806F07EFC072292
:101A20000921164806F079FC02940020ADF80C005C
:101A3000ADF80E00ADF81000ADF814000C20ADF8B4
:101A4000120002A9114808F095FA01210F4808F088
:101A500019FB4FF4A06006F0F7FA0C208DF818007F
:101A6000002015E01064024000000240000802401F
:101A700000200140001001400C060020000C024034
:101A800000440040A06002400400002000480040E4
:101A90008DF819008DF81A0001208DF81B0006A89A
:101AA00006F0D7FAFE4807F063F94FF000600790A0
:101AB00000200A90FB4809900A200B90FA480890F1
:101AC00000200C904FF480600D9000200E900F903D
:101AD0004FF4807010904002119004201290032067
:101AE000139000201490159007A9ED4807F0E2F933
:101AF00001224021EC48001F08F071FB0122402127
:101B0000E948001F08F06BFB01221021E44807F0B0
:101B100098FA0121E24807F007FA16B010BD10B597
:101B200096B004460121C80406F0E5FD0121042019
:101B300006F0AEFD0121480506F0AAFD4FF4406015
:101B4000009002208DF8040000208DF806008DF82A
:101B5000070002208DF805006946D44806F052FBC4
:101B600008220A21D14806F0D8FB08220B21CF48D1
:101B700006F0D3FB02940020ADF80C00ADF80E0087
:101B8000ADF81000ADF814000C20ADF8120002A959
:101B9000C74808F0EFF90121C54808F073FA4FF47F
:101BA000A06006F051FA0D208DF8180003208DF882
:101BB000190001208DF81A008DF81B0006A806F008
:101BC00048FAB748183007F0D3F84FF00060079094
:101BD00000200A90B748099008200B90B448001DD7
:101BE000089000200C904FF480600D9000200E9023
:101BF0000F9010904FF400301190002012900320AD
:101C0000139000201490159007A9A548183007F0EC
:101C100051F901224021A64808F0E1FA0122802171
:101C2000A34808F0DCFA012210219D48183007F083
:101C300008FA01219A48183007F076F916B010BD5D
:101C400030B59D4B1B68642B00DB30BD9B4B1B8864
:101C500003EB83039A4C23449870984B1B8803EB47
:101C600083032344D970954B1B8803EB83032344E0
:101C70001A71924B1B885B1C642493FBF4F504FBE4
:101C800015338E4C23808C4B1B685B1C8A4C236065
:101C900000BFDAE701468848006808B900207047AD
:101CA0008848008800EB8000854A104402680A607A
:101CB000007908710120F2E701467F48006808B901
:101CC000002070477F48008800EB80007C4A104469
:101CD00002680A60007908717A480088401C642212
:101CE00090FBF2F302FB1300764A10807248006802
:101CF000401E714A10600120E3E70CB5724800787D
:101D000000B10CBD6846FFF7C5FF70B19DF8040037
:101D10006E4908709DF802006D4908709DF8030037
:101D20006C49087001206849087000BFE9E70CB5EC
:101D30006846FFF7C1FF0020634908700CBD10B56D
:101D40005C4800785B49497808445A4989780844D6
:101D50005849C97808445749097908445549497987
:101D60000844C4B253480078022800D010BD51483E
:101D7000C079032800D0F9E74E488079A0421CD1F1
:101D80004C484078544908704A4880785349087054
:101D90004848C0784E490870464800794D49087057
:101DA000444840794E49087008460278494801780D
:101DB00047480078FFF744FF06E0FF2044490870D9
:101DC000444908704649087000BFCFE710B596B087
:101DD00004460121480506F05BFC0121080506F0D8
:101DE0008AFC01210C2006F053FC04200090022004
:101DF0008DF8040000208DF806008DF80700022001
:101E00008DF805006946374806F0FCF94FF480501C
:101E1000009002208DF8040000208DF806008DF857
:101E2000070002208DF805006946204806F0EAF90F
:101E3000082202212B4806F070FA08220C211B48C8
:101E400006F06BFA4FF4A06006F0FEF82F208DF834
:101E5000180005208DF819008DF81A0001208DF862
:101E60001B0006A806F0F5F80B208DF818000520D9
:101E70008DF819008DF81A0001208DF81B0006A8B6
:101E800006F0E7F802940020ADF80C00ADF80E0063
:101E9000ADF81000ADF814000C20ADF8120023E0EE
:101EA000286002404D06002004480040000802401F
:101EB000004C00407F0100208C0100209001002098
:101EC0005C06002092010020950100209401002072
:101ED000890100208A01002087010020880100205C
:101EE0008B010020000C024002A9F84808F042F8DB
:101EF0000121F64808F0C6F8F54806F039FF4FF022
:101F00000060079040200A90F24809900A200B9048
:101F1000EE48001D089000200C904FF480600D905A
:101F200000200E900F9010904FF400301190002080
:101F300012900320139000201490159007A9E448F4
:101F400006F0B8FFE248A83806F012FF4FF0006034
:101F5000079000200A90E048099005200B90DB488C
:101F6000001D089000200C904FF480600D90002020
:101F70000E900F9010904FF40030119000201290AE
:101F80000320139000201490159007A9D048A8387A
:101F900006F090FF01228021CC4808F020F90122B0
:101FA0004021CA4808F01BF901221021C84807F057
:101FB00048F801221021C648A83807F042F801214C
:101FC000C34806F0B1FF0121C148A83806F0ACFFB4
:101FD00016B010BD10B596B004460121202006F0C1
:101FE0009BFB0121042006F053FB0121880506F02C
:101FF0004FFBC020009002208DF8040000208DF8D7
:1020000006008DF8070002208DF805006946B348E8
:1020100006F0F8F808220621B04806F07EF90822FA
:102020000721AE4806F079F902940020ADF80C00C3
:10203000ADF80E00ADF81000ADF814000C20ADF8AE
:10204000120002A9A64807F095FF0121A44808F054
:1020500019F84FF4A06005F0F7FF39208DF818004B
:1020600003208DF8190001208DF81A008DF81B004F
:1020700006A805F0EEFF9B4806F07AFE4FF02060C0
:10208000079000200A909848099004200B909448EB
:10209000001D089000200C904FF480600D900020EF
:1020A0000E900F9010904FF400301190002012907D
:1020B0000320139000201490159007A9894806F07A
:1020C000F9FE01224021864808F089F8012280218A
:1020D000834808F084F801221021824806F0B1FFFD
:1020E0000121804806F020FF16B010BD0CB500207D
:1020F000019000907C480078022812D17A484078FC
:1021000001907948C0787849897840EA01200090A8
:102110009DF8040075490870BDF8000074490880F6
:1021200004E0042071490870714908800CBD00B5B5
:1021300085B00121082006F0ABFA0121880306F0E2
:10214000EBFA00208DF8100001208DF813000C2010
:10215000039003A9674806F055F80221032008F010
:10216000D7F80420009000208DF8040010208DF88E
:10217000050001208DF80600684606F0DBFF082008
:102180008DF8080000208DF809008DF80A00012064
:102190008DF80B0002A805F05CFF05B000BD70B51E
:1021A00004460D46012C0BD12946534807F095FFF4
:1021B00000BF4021504808F040F80028F9D028E03E
:1021C000032C0BD129464D4807F087FF00BF402163
:1021D0004A4808F032F80028F9D01AE0042C0BD154
:1021E0002946474807F079FF00BF4021444808F0DE
:1021F00024F80028F9D00CE0052C0AD129463348F0
:1022000007F06BFF00BF4021304808F016F80028A7
:10221000F9D070BD00203B4948623B4908603B490A
:1022200008603B49086070470020364948623649DB
:1022300008604FF0804148623649086036490860BE
:1022400036490860314908603149086034490860FE
:1022500034490860704700204FF0804148622D49A2
:102260000860704700202C4908602C4908607047BE
:1022700010B500202C490870002407E061210120DE
:10228000FFF78DFF3220FEF7B0FC641C022CF5D363
:102290000120254908707A202449087010BD10B526
:1022A000002023490870002407E061210320FFF784
:1022B00076FF3220FEF799FC641C022CF5D3012036
:1022C0001B4908707A201B49087010BD005000405F
:1022D000B86002406205002050080020000802405B
:1022E0000014014028640240960100209A01002059
:1022F0009C010020000C02400010014000480040FA
:10230000004C0040000001406C0000202408004008
:102310008800002070000020240400407400002089
:10232000240C004078000020910000209000002044
:1023300093000020920000202DE9F14FAEB0FAA0EA
:102340002D9000202C908DF888008DF860002E983C
:10235000122831D2DFE800F00931383F464D545D94
:10236000666F787F868D949BA4FE0221F74805F066
:10237000ABFF88B100224FF40041F54805F0C2FFE1
:102380004FF40041F24805F0ACFF0446002221461C
:10239000F0A0FEF77BF90FE00122D103EC4805F035
:1023A000B1FF4FF40041EA4805F09BFF04460022CC
:1023B0002146F0A0FEF76AF96BE10122F5480168B9
:1023C000F5A0FEF763F964E10222F8480168F8A07D
:1023D000FEF75CF95DE10322F9480168F9A0FEF718
:1023E00055F956E10422FB480168FBA0FEF74EF9BF
:1023F0004FE10522FC480168FCA0FEF747F948E1DF
:10240000FEF737FB044606222146FDA0FEF73EF903
:102410003FE1FEF75BFB044607222146FBA0FEF7E7
:1024200035F936E1FEF7A6FB044608222146FAA05C
:10243000FEF72CF92DE1FEF773FB04460922214635
:10244000F8A0FEF723F924E10A22F9480168F9A06F
:10245000FEF71CF91DE10B22F9480168F9A0FEF70F
:1024600015F916E10C22FB480168FBA0FEF70EF9F6
:102470000FE10D22FB480168FBA0FEF707F908E118
:102480000E22FD480168FDA0FEF700F901E10F22D0
:10249000FD48B0F900004142FCA0FEF7F7F8F8E073
:1024A0000121FC4805F010FF4FF400511790A84897
:1024B00005F00AFF04460221F64805F005FF05462F
:1024C0004FF48041A24805F0FFFE06460421F14882
:1024D00005F0FAFE4FF400411690EE4805F0F4FEC8
:1024E00007460821EB4805F0EFFE80464FF4804197
:1024F000E84805F0E9FE81461021E64805F0E4FED3
:102500004FF400511590E34805F0DEFE82460821A5
:10251000E14805F0D9FE4FF480511490DD4805F0F4
:10252000D3FE10211390DC4805F0CEFE4FF48061FD
:102530001290D84805F0C8FE83468021D54805F0A2
:10254000C3FE4FF480711190D24805F0BDFE10908B
:10255000179800E020E0CDE90B65CDE90D40169815
:10256000CDE90798CDE90970DDE914211398CDE98B
:10257000042A06910390DDE91110CDE9001B0290B9
:10258000C6A2282122A8109B0AF0BCF8102222A97A
:10259000CBA0FEF7CEF87CE080216C4805F094FEDD
:1025A00004460121694805F08FFE05464021674831
:1025B00005F08AFE06464FF40041B74805F084FE58
:1025C00007464FF48051BF4805F07EFE80464FF429
:1025D00080615E4805F078FE81464FF40061B9489D
:1025E00005F072FE4FF400611790584805F06CFE3C
:1025F00082464FF48061A84805F066FE83464FF49A
:102600008051524805F060FE4FF400611690A248D8
:1026100005F05AFE4FF4005115904C4805F054FE59
:102620004FF4804114909C4805F04EFE4FF48041D9
:102630001390464805F048FE4FF480711290A1486F
:1026400005F042FE4FF400411190404805F03CFE79
:10265000CDE90B76CDE90D5410901798CDE907A080
:10266000CDE9099814A807C803ABA3E80708DDE97A
:1026700011121398CDE90012029088A2282122A8F5
:10268000109B0AF03FF8112222A98FA0FEF751F803
:1026900000BF00BF2FB0BDE8F08F10B501218C48FE
:1026A00006F042FC10BD01B58A48006800998842D6
:1026B00003DD00208749086004E086480068401C6C
:1026C0008449086083480068FFF736FE08BD01B5FD
:1026D0009DF80000052801DA002008BD9DF80000E3
:1026E000FBE730B504461D4624B97B4800787B4B98
:1026F000D87011E0002C07DDE0B2FFF7E8FF774B60
:10270000D8700020987007E06342D8B2FFF7DFFF6F
:10271000724BD8700120987021B96F4800786F4BC8
:10272000D871EFE0DCE0000031313131313131314D
:10273000313131313131313131313131313130318A
:1027400031313131313131310000000000040240BB
:1027500000080240524F424F5420322044414E471D
:1027600020434841592053414E2058414E483A2079
:1027700020200000524F424F5420322044414E4707
:1027800020434841592053414E20444F3A202020B5
:1027900000000000B800002054726F206368616E72
:1027A000205472756F633A2000000000BC000020C6
:1027B00054726F206368616E205361753A20200067
:1027C000B000002054726F20786F617920746179B5
:1027D00020000000A401002064615F6C61795F74D7
:1027E00061793220000000008C010020636F756E5B
:1027F000745F646174615F75617274200000000031
:10280000454E434F4445525F464C2000454E434F92
:102810004445525F46522000454E434F4445525F67
:1028200052522000454E434F4445525F524C2000C7
:10283000A40000204C617A65722070686169000014
:102840009C0000204C617A6572207472756F632061
:1028500000000000A00000204C617A6572207472B4
:1028600061692000AC0000204C617A6572207472AE
:10287000756F63206E686F00A80000205175616E4F
:10288000672074726F3A00008C000020494D553A61
:102890000000000000100240000C02402564256486
:1028A00025642564256425642564256425642564E0
:1028B00025642564256425642564256400000000E2
:1028C000493A000000000240696E323A0000000000
:1028D000A060024084000020F001002004000020DD
:1028E000002907DDC8B2FFF7F2FEFE4BD8710120C8
:1028F000987107E04B42D8B2FFF7E9FEF94BD87167
:102900000020987122B9F8480078F64BD87211E08F
:10291000002A07DDD0B2FFF7DAFEF24BD8720120B1
:10292000987207E05342D8B2FFF7D1FEED4BD87250
:102930000020987225B9EC480078EA4BD87311E072
:10294000002D07DDE8B2FFF7C2FEE64BD873012089
:10295000987307E06B42D8B2FFF7B9FEE14BD8732A
:102960000020987330BDDF4AD070D071D072D07320
:102970007047DC48C07803280DDADA48C0790328AC
:1029800009DAD848C07A032805DAD648C07B03287C
:1029900001DA012070470020FCE70120D3490860DC
:1029A0007047D348006847F23051884201D0012077
:1029B00070470020FCE710B5FFF75AFC10BDCD486A
:1029C000B0F9000040427047B5EEC00AF1EE10FACF
:1029D00009D2C948D0ED000A70EE600AFDEEE00AA7
:1029E00010EE900A7047C448D0ED000A70EE200A3D
:1029F000FDEEE00A10EE900AF4E710B52DED0A8B1B
:102A0000044624B99FEDBD0ABDEC0A8B10BD002C15
:102A100025DABB48006809F060FC41EC190B204640
:102A200009F05BFC41EC1C0B9FEDB60B53EC102B3B
:102A300009F072FB41EC1B0B9FEDB40B53EC102B18
:102A400009F064FB41EC1A0B53EC192B09F0D6FB8F
:102A500041EC180B09F084FC00EE100AD4E7A848FA
:102A6000006809F03AFC41EC190B204609F035FCEE
:102A700041EC1C0B9FEDA30B53EC102B09F04CFB0E
:102A800041EC1B0B9FEDA10B53EC102B09F09DFAB1
:102A900041EC1A0B53EC192B09F0B0FB41EC180B6D
:102AA00009F05EFC00EE100AAEE7F0EE400AF5EE2B
:102AB000C00AF1EE10FA02DBB0EE600A7047B1EE28
:102AC000600AFBE70146002901DB084670474842DF
:102AD000FCE701468F48D0ED000AF1EE600A8E480F
:102AE000D0ED001A80EEA11A00EE901AF8EEE01A6E
:102AF0008848D0ED000A41EE210AB0EE600AFDEEF2
:102B0000C00A10EE900A7047B0EE402ADFED832A2B
:102B1000B0EE620AB5EEC02AF1EE10FA03D2F1EE81
:102B2000422AB0EE622AF5EEC00AF1EE10FA03D2A4
:102B3000F1EE602AF0EE620AB5EEC01AF1EE10FA7C
:102B400003D2F1EE412AB0EE621AF5EEC01AF1EEB0
:102B500010FA03D2F1EE612AF0EE621AB4EEC02A46
:102B6000F1EE10FA01DDB0EE420AF4EEC00AF1EE29
:102B700010FA01DDB0EE600AB4EEC01AF1EE10FA00
:102B800001DDB0EE410AF4EEC01AF1EE10FA01DDFB
:102B9000B0EE610A70475A480068704760480068A4
:102BA000704710B52DED028BB0EE408A504800689A
:102BB00047F2305188420ED19FED500A594880EDBE
:102BC000000A594880ED000A584880ED000A58482C
:102BD00080ED000A4AE05748006857490968401AE2
:102BE00043490968081A00EE100AB8EEC00AF0EE70
:102BF000408A5248D0ED000A88EEA00A5048D0ED35
:102C0000000A30EE200A4F48D0ED000A20EE200ADC
:102C1000F0EE408AB0EE680A0AF0DAF8F0EE000A48
:102C200020EE200A3F4880ED000AB0EE680A0AF064
:102C300027F8F0EE000A20EE200A3B4880ED000A5B
:102C4000384890ED000A4048D0ED000A30EE200AE6
:102C5000374880ED000A344890ED000A3A48D0ED3C
:102C6000000A30EE600A314880ED000AB5EEC08AF5
:102C7000F1EE10FA35D035480068052820D2DFE89B
:102C800000F00320728CA600294890ED000A30EE77
:102C9000080A80ED000A254890ED000A30EE480A47
:102CA00080ED000A204890ED000A30EE080A80ED21
:102CB000000A1C4890ED000A30EE480A80ED000A38
:102CC0009FE01A4890ED000A30EE480A80ED000AB5
:102CD000154890ED000A30EE080A80ED000A114810
:102CE00036E08FE004000020F001002054020020B4
:102CF000180200208C000020B0010020000000001D
:102D0000040200209A9999999999B93F3333333342
:102D10003333D33FE8010020EC0100206F12833AE7
:102D200030020020500200204C0200204802002007
:102D3000440200203802002024020020C8010020A4
:102D4000D4010020F80100202C0200200002002005
:102D500090ED000AFD48D0ED000A08EE600AFC483C
:102D600080ED000A4DE0FB4890ED000A30EE080AC5
:102D700080ED000AF84890ED000AF448D0ED000A12
:102D800008EE200AF44880ED000AF14890ED000AB0
:102D900030EE480A80ED000A33E0EE4890ED000A7C
:102DA00030EE080A80ED000AEC4890ED000AE74892
:102DB000D0ED000A08EE600AE84880ED000AE44819
:102DC00090ED000A30EE480A80ED000A19E0E14873
:102DD00090ED000ADD48D0ED000A08EE200ADD483B
:102DE00080ED000ADD4890ED000A30EE480A80EDE3
:102DF000000AD94890ED000A30EE080A80ED000A7A
:102E000000BF00BFD248D0ED001AD34890ED001AA1
:102E1000D248D0ED000ACF4890ED000AFFF774FECB
:102E2000CF48D0ED000AF8EEE00A80EE801ABDEE41
:102E3000C10ACC4880ED000ACB480068C94909683E
:102E4000884203DDC7480068C74908600120C749B8
:102E50000860BDEC028B10BD10B504460020C449CB
:102E60000860C4480460FCB90020BF4908601FED39
:102E70005D0AC14880ED000A47F23050BF49086042
:102E8000BF4908601FED630ABE4880ED000A0020BC
:102E9000BD490860BD490860BD490860BD4908607A
:102EA0001FED6A0AFFF77DFE10BD10B5B54890ED25
:102EB000000AB5EEC00AF1EE10FA05D1B24800687A
:102EC00010B9B248006890B11FED740AAD4880EDAA
:102ED000000A0020AC490860AC490860AE480068B0
:102EE000AE490860A74890ED000AFFF75AFE10BDF2
:102EF000AB48C0ED000AAB4880ED000A704770B5E2
:102F00002DED028B05460C46B0EE408A9B480068CA
:102F1000A8420BD196480068A04207D1964890ED90
:102F2000000AB4EE480AF1EE10FA18D09048046096
:102F30008D48006810B905208B49086096480068E4
:102F4000964908608C4880ED008A8C480560002016
:102F5000954908608B4890ED000AFFF722FEBDEC12
:102F6000028B70BD70B52DED028B0446B0EE408A29
:102F70000D4686480068A0420BD1824890ED000AB9
:102F8000B4EE480AF1EE10FA03D17F480068A84277
:102F90003AD07A48006847F23051884225D11E2045
:102FA000734908607048006810B90A206E490860CB
:102FB00047F23050844218DA012075490860B5EEB6
:102FC000C08AF1EE10FA03DD73480068A04208DC05
:102FD000B5EEC08AF1EE10FA07D26F480068A04241
:102FE00003DAB1EE480AB0EE408A684804606648E9
:102FF0000560644880ED008A00206B4908606148E4
:1030000090ED000AFFF7CDFDBDEC028B70BD10B551
:103010002DED028BB0EE408A04462146B0EE480A00
:1030200047F23050FFF79EFFBDEC028B10BD70B52C
:1030300004460D461FEDCF0A29462046FFF75FFFE5
:1030400070BD70B52DED088BF0EE408A0446B0EEF1
:10305000608AB0EE419A4A4890ED000AB8EEC00A84
:10306000B4EE680AF1EE10FA0DD141480068A042B2
:1030700009D1464890ED000AB8EEC00AB4EE480AFD
:10308000F1EE10FA5ED0BDEEE80A3D4880ED000A90
:10309000414991ED000AB8EEC00A38EEC00ABDEE13
:1030A000C00A10EE100A1FEDEB0A2146FFF727FFBA
:1030B000394890ED000AB8EEC00A38EE400ABDEE7D
:1030C000C00A10EE105A002D01DB284600E06842CD
:1030D000642814DD304890ED000AB8EEC00AB4EE62
:1030E000C08AF1EE10FA02DDB0EE490A01E0B1EE5D
:1030F000490A10EE101A084609F01FF913E0264895
:1031000090ED000AB8EEC00A38EE400A10EE101A30
:10311000084609F012F941EC1B0B9FED240B53EC10
:10312000102B08F0F9FF41EC1A0B09F019F909EE20
:10313000900A0021B0EE690AFDEEC80A10EE900A6E
:10314000FFF710FFBDEC088B70BD0000B801002038
:1031500050020020440200204C02002048020020BF
:10316000AC0100200C02002004020020FC01002021
:1031700008020020100200202C020020180200206B
:103180001C02002028020020000200202002002053
:1031900030020020540200203802002024020020C7
:1031A000E8010020EC010020140200207B14AE474F
:1031B000E17A743F10B5FE48006801283DDDFD4905
:1031C0000968FD4A1268881AFFF77CFC06280CDAA9
:1031D000F74801680068401CF54A1060B1F5FA7FB5
:1031E0002BDD0020FFF738FE10BDF1480068FA28FB
:1031F00008DD0520F1490860F1490860FB20EC4931
:10320000086004E00520ED490860ED490860EA48DF
:103210000068E8490968884205DDBFEE000AE94810
:1032200080ED000A04E0B7EE000AE64880ED000AEF
:10323000E44890ED000AFFF7B4FC00BFD4E710B5F6
:103240002DED028BE04890ED000AB5EEC00AF1EEDC
:1032500010FA08D1DA48006828B1D648006847F269
:103260003051884202DBBDEC028B10BDD54890ED99
:10327000000AB5EEC00AF1EE10FA7CD0D34800681F
:1032800047F23051884277D1CE4890ED000AB5EE32
:10329000C00AF1EE10FA08DDC6480068CC4909689A
:1032A000401AC5490968884210DBC64890ED000AFB
:1032B000B5EEC00AF1EE10FA7ED2BE480068C449ED
:1032C00009680844BC490968884275DDB848006847
:1032D00003285CDAB7490968B74A1268881AFFF709
:1032E000F1FB0A2816DAB3480068BA4908600020E2
:1032F000B3490860B14908609FEDB70AB14880ED55
:10330000000A0220AA490860AE4890ED000AFFF7C3
:1033100048FCA8E7A7480068A7490968884237DD44
:10332000A74890ED000AB8EEC00AA648D0ED000A02
:1033300060EE200AA64890ED000AB8EEC00AC0EE82
:10334000801AB0EE611AB0EE410AFFF7AEFB994960
:103350000968994A1268881AFFF7B4FB00EE900AD0
:10336000B8EEE01A9D48D0ED000A40EE010A9448FC
:1033700090ED000A01E0AAE047E0B8EEC00A80EE56
:10338000801AB0EE418AB0EE480AFFF70AFC9DE0D1
:103390008B4890ED000AB8EEC00A8A48D0ED000ACA
:1033A00060EE200A8A4890ED000AB8EEC00AC0EE2E
:1033B000801AB0EE611A00E021E0B0EE410AFFF79A
:1033C00074FB7C4909687C4A1268881AFFF77AFB0B
:1033D00000EE900AB8EEE01A8048D0ED000A50EEF8
:1033E000410A774890ED000AB8EEC00A80EE801AD4
:1033F000B0EE418AB0EE480AFFF7D3FB66E07148B1
:1034000090ED000AFFF7CDFB60E06E4890ED000AFA
:10341000B5EEC00AF1EE10FA1FDD664890ED000A25
:10342000B8EEC00A6648D0ED000AF8EEE00A65483A
:1034300090ED001A00EEC10A6948D0ED000AF8EEDE
:10344000E00A70EE600A5C4890ED000AB8EEC00A2F
:10345000F4EEC00AF1EE10FA27D35A4890ED000AB4
:10346000B5EEC00AF1EE10FA2BD2524890ED000AE8
:10347000B8EEC00A5248D0ED000AF8EEE00A514812
:1034800090ED001A00EEC10A5548D0ED000AF8EEA2
:10349000E00A70EE200A484890ED000AB8EEC00A33
:1034A000F4EEC00AF1EE10FA0BDD42490968424A17
:1034B0001268881AFFF7A1FAB0EE408AFFF771FB95
:1034C00004E0404890ED000AFFF76BFBCBE645496E
:1034D0000968394A1268881AFFF78FFAB0EE408AF5
:1034E000FFF75FFB00BFBEE600B531480068022869
:1034F00015DA9FED390A344880ED000A9FED360A4F
:10350000304880ED000A00203749086047F230500B
:103510002E49086035490860002026490860344873
:103520000068401C3249086032490968884204DA60
:1035300031480068FFF717FA0EE02E4800682C4962
:1035400008602E48006820B12B480068FFF70BFA8E
:1035500002E00020FFF707FA00BD254A1268521C5E
:10356000234B1A60824207DD154A12680A44144B45
:103570001A6000221E4B1A6070472DE9F041FFF7D8
:103580001EFA0D490860FFF715FE0C480068002878
:103590004ADD0B48006809490968884253D0084849
:1035A000006806490968884237DA0548006827E05C
:1035B00030020020200200203802002008020020F3
:1035C00004020020280200202C0200201802002003
:1035D000E40100203402002000000000C4010020AB
:1035E000E001002024020020000200201C02002034
:1035F00014020020F4010020F001002054020020F9
:10360000FE49096888421EDAFD480068FFF761FA42
:1036100004460121FFF7A1FF15E04FF0FF31F94803
:103620000068FFF79AFF0EE0F5480068002806DD05
:103630004FF0FF31F4480068FFF78FFF03E0FFF71A
:1036400053FFBDE8F081F1480068F14909688842FC
:1036500005D0FFF7F4FDEE480068EC490860ED483E
:103660000068E8B3E648D0ED000AF8EEE00AEA4860
:1036700090ED001A60EE810AB0EE600AFFF7A4F93F
:103680000446DF48D0ED000AF8EEE00AE34890ED8A
:10369000001A60EE810AB0EE600AFFF795F9054660
:1036A000D748D0ED000AF8EEE00ADD4890ED001AA8
:1036B00060EE810AB0EE600AFFF786F90646D04850
:1036C000D0ED000AF8EEE00AD64890ED001A60EE60
:1036D000810AB0EE600AFFF777F90746234600E05B
:1036E00003E02A463146FEF7FCFF00BFA9E7CE49BA
:1036F000CE4A126841F82200CC490968491C1422BC
:1037000091FBF2F302FB1311C84A11607047C748DE
:1037100000681330142290FBF2F302FB1301C2483D
:1037200050F82100704710B52DED0C8B0446A4F124
:103730006400002801DB014600E0414200EE101A5F
:10374000F8EEC08A18EE900A08F0F7FD41EC1D0B68
:103750009FEDB70B53EC102B08F0DEFC41EC1C0B7B
:10376000B0EE4C0AF0EE6C0A09F03AFCB0EE40BA4A
:10377000F0EE60BA9FEDB00B53EC102B51EC1B0B2D
:1037800008F0CAFC41EC1A0B9FEDAD0B53EC102B6B
:1037900008F01BFC41EC190B08F0E2FD08EE100AE2
:1037A000B0EE480ABDEC0C8B10BD70B52DED028B50
:1037B00005462846FFF79BFFA348C079E8B1FFF70D
:1037C000A6FF0446622C04DB662C02DC0020FFF717
:1037D0006CFB2046FFF7A7FFB0EE408A632C05DAAA
:1037E0000020B1EE480AFFF712FC06E0652C04DD6C
:1037F0000020B0EE480AFFF70AFCBDEC028B70BD5A
:1038000010B52DED088BF0EE408A1FED8D0AF0EE1D
:10381000409A1FED8F0AB0EE408A28EEA80A10EEFB
:10382000101A084608F089FD41EC1B0BB0EE4B0A5C
:10383000F0EE6B0A09F094FBB0EE40AAF0EE60AA3D
:1038400051EC1A0B08F08CFD09EE100A9FED7F0A6F
:10385000C9EE000A9FED7E0A20EE800AB0EE408A93
:103860009FED7C0AB4EEC08AF1EE10FA04DD9FED04
:10387000790AB0EE408A0AE09FED770AB4EEC08A7A
:10388000F1EE10FA03D29FED740AB0EE408ABDEE5D
:10389000C80A724880ED000A0068714908606F48E4
:1038A00090ED000AB8EEC00A6E48D0ED000A20EE96
:1038B000200AF2EE040A80EE201ABDEEC10A084684
:1038C00080ED000ABDEC088B10BD674801680068F8
:1038D000401C654A1060462907D2644880896449C3
:1038E00009680844624908600BE0614800684621A5
:1038F000B0FBF1F05F49086000205B4908605C495B
:1039000008605D4801680068401C5B4A10604629F9
:1039100007D25648C0895949096808445749086080
:103920000BE0564800684621B0FBF1F054490860AE
:1039300000205149086051490860524801680068F8
:10394000401C504A1060462907D2484800884E491A
:10395000096808444C4908600BE04B480068462160
:10396000B0FBF1F04949086000204649086046492B
:103970000860474801680068401C454A10604629B5
:1039800007D23A48008A4349096808444149086017
:103990000BE0404800684621B0FBF1F03E4908606A
:1039A00000203B4908603B4908603C4801680068CA
:1039B000401C3A4A1060322907D22C4840893849C5
:1039C00009680844364908600BE035480068322130
:1039D000B0FBF1F0334908600020304908603049FD
:1039E0000860314801680068401C2F4A1060322985
:1039F00062D21E48C0882D49096859E00C02002097
:103A00000402002040020020100200203C0200209E
:103A100038020020FC010020500200204C0200204F
:103A200048020020440200205C080020F802002028
:103A30009A9999999999A93F9A9999999999E93F48
:103A40009A9999999999C93F4D06002000401C45C3
:103A50000000B44200007A4300004842EC0200201B
:103A6000F0020020F402002044030020F8050020AA
:103A7000480300209C0000204C030020500300203D
:103A8000A40000206403002068030020AC00002094
:103A90005403002058030020A00000205C030020F5
:103AA00060030020A8000020740300207803002099
:103AB0000844F64908600BE0F44800683221B0FB86
:103AC000F1F0F34908600020F2490860EF4908600E
:103AD000F14801680068401CEF4A1060322907D2A3
:103AE000EE488088EE4909680844ED4908600BE01B
:103AF000EB4800683221B0FBF1F0EA490860002091
:103B0000E5490860E6490860E74801680068401C2C
:103B1000E54A1060322907D2E0480089E349096884
:103B20000844E24908600BE0E04800683221B0FB3D
:103B3000F1F0DF4908600020DB490860DB490860DC
:103B40007047DC480068DC490968884203DADA48D3
:103B50000068D8490860D7480068D8490968884291
:103B600003DDD6480068D3490860CE490968D14AC8
:103B70001268881A002801DB014600E0414205294D
:103B800030DDC8480068CB490968884203DD002061
:103B9000CB49887502E00120C9498875C149096887
:103BA000C44A1268881A002801DB014600E041423D
:103BB00001EB4101C34A116010460068C24909681F
:103BC000884203DDC048006811460860BD480068AF
:103BD0001E2802DA1E20BB490860BA480078B8499E
:103BE000C87502E00020B649C8757047B74800683C
:103BF000B7490968884203DAB5480068B3490860E4
:103C0000B2480068B3490968884203DDB1480068DA
:103C1000AE4908609E490968AC4A1268881A0028B3
:103C200001DB014600E04142052930DD984800688B
:103C3000A6490968884203DD0120A149887402E091
:103C400000209F49887492490968A04A1268881A1E
:103C5000002801DB014600E0414201EB4101994AA5
:103C60001160104600689C490968884203DD9A4843
:103C700000681146086093480068322802DA322052
:103C8000904908608F4800788D49C87402E0002090
:103C90008B49C874704710B590480068904909680E
:103CA000884203DA8E4800688C4908608B480068B7
:103CB0008C490968884203DD8A48006887490860A2
:103CC0007B48006885490968441A002C01DB2046BE
:103CD00000E06042022841DD8021834804F0F4FACC
:103CE000D8BB4021804804F0EFFAB0BB01217E48E8
:103CF00004F0EAFA88BB6E4800687849096888428F
:103D000004DD01206E4981F8260003E000206C49A3
:103D100081F8260066490968704A1268881A0028E6
:103D200001DB014600E04142664A1160104600682E
:103D30006E490968884203DD6C48006811460860D6
:103D400060480068322802DA32205E4908605D4827
:103D500000785B4981F8270004E0FFE7002058491C
:103D600081F8270010BD70B564205B4908608C2085
:103D7000554908604FF4E6704E49086053490860A1
:103D800000240EE006E0012007F09EFCFCF768FE30
:103D900000B904E043480068B0F5E37FF3DD00BFFD
:103DA000641C322CEEDB00240FE006E0012007F05B
:103DB0008BFCFCF755FE00B905E010214C4804F0DF
:103DC00083FA0028F2D000BF641CFA2CEDDB9FEDD3
:103DD000491ADFED490A0F209FED470AFFF731F935
:103DE00000240FE006E0012007F06EFCFCF738FE2F
:103DF00000B905E010213E4804F066FA0128F2D02F
:103E000000BF641CFA2CEDDBFEF70EFA06E0012081
:103E100007F05AFCFCF724FE00B907E0FCF7AAFE05
:103E20000546FCF77DFE28443228F0DB00BF002069
:103E3000FFF712F8DF201F49086000240DE006E0BC
:103E4000012007F041FCFCF70BFE00B903E0154828
:103E50000068E428F4DC00BF641C322CEFDB4FF474
:103E6000F5701A4908609FED231ADFED230A0F2031
:103E70009FED210AFFF7E5F8002449E03FE001202B
:103E800007F022FCFCF7ECFDC0BB3FE0780300200C
:103E9000BC000020740300207C030020F8050020F3
:103EA00080030020B8000020840300208803002045
:103EB000B0000020C4020020BC020020C00200208C
:103EC000040000200C030020E4020020D0020020A7
:103ED000C8020020CC020020E0020020DC0200200A
:103EE000D4020020D802002000040240E802002092
:103EF00000100240CDCC4C3E000061C4FFE74FF4FF
:103F00000051FE4804F0E0F90128B8D000BF641C5D
:103F100040F226208442B1DBF020F9490860FEF728
:103F200083F906E0052007F0CFFBFCF799FD00B907
:103F300008E0FCF7CBFD0546FCF79BFD2844B0F5F7
:103F4000967FEFDB00BF0020FEF786FFE820ED49FB
:103F5000086000240DE006E0012007F0B5FBFCF747
:103F60007FFD00B903E0E8480068EB28F4DC00BFFF
:103F7000641CFA2CEFDB1FED211A5FED210A0C20E7
:103F80001FED230AFFF75DF8002410E006E0012092
:103F900007F09AFBFCF764FD00B906E04FF40061FE
:103FA000DA4804F091F90128F1D000BF641C962C86
:103FB000ECDBF020D34908600020FEF74DFF6420C1
:103FC000D34908608C20D34908604FF48270CC49F3
:103FD0000860CC49086070BD2DE9F05F82460D464F
:103FE00014461E46DDE90B9BDDF82880CA490968A6
:103FF000881B002801DB014600E0414201FB0BF772
:104000004F4500DD4F46C4480068801B404510DA2C
:10401000E81B00EE900AF8EEE00AB0EE600A9FEDB1
:10402000BF1A00EE904AF8EEE00A5046FFF709F892
:1040300022E0B9480068801B404510DDE81900EE19
:10404000900AF8EEE00AB0EE600A9FEDB41A00EEB6
:10405000904AF8EEE00A5046FEF7F3FF0CE09FEDC1
:10406000AF1A00EE104AF8EEC00A504600EE105AA1
:10407000B8EEC00AFEF7E5FFBDE8F09F3EB564204C
:10408000A34908608C20A34908604FF4E6709C495E
:1040900008609C49086000240EE006E0012007F05B
:1040A00013FBFCF7DDFC00B904E09D480068B0F5A7
:1040B000E37FF3DD00BF641C322CEEDB00240FE055
:1040C00006E0012007F000FBFCF7CAFC00B905E0A0
:1040D00010218A4804F0F8F80028F2D000BF641CD0
:1040E000FA2CEDDB1FED7D1A5FED7D0A0F201FED31
:1040F0007E0AFEF7A6FF00240FE006E0012007F08D
:10410000E3FAFCF7ADFC00B905E010217B4804F0B0
:10411000DBF80128F2D000BF641CFA2CEDDBFEF7BF
:1041200083F806E0012007F0CFFAFCF799FC00B90C
:1041300007E0FCF71FFD0546FCF7F2FC2844322897
:10414000F0DB00BF0020FEF787FEDF206C4908602F
:1041500000240DE006E0012007F0B6FAFCF780FC31
:1041600000B903E06E480068E428F4DC00BF641C7A
:10417000322CEFDB4FF4F570624908601FEDA31A93
:104180005FEDA30A0F201FEDA40AFEF75AFF0024DB
:1041900010E006E0012007F097FAFCF761FC00B997
:1041A00006E04FF40051554804F08EF80128F1D094
:1041B00000BF641C40F226208442EADBF020504914
:1041C0000860FEF731F806E0052007F07DFAFCF7FD
:1041D00047FC00B908E0FCF779FC0546FCF749FC10
:1041E0002844B0F5967FEFDB00BF0020FEF734FED9
:1041F000E8204449086000240DE006E0012007F0B3
:1042000063FAFCF72DFC00B903E03F480068EB2897
:10421000F4DC00BF641CFA2CEFDB1FEDCA1A5FED63
:10422000CA0A0C201FEDCC0AFEF70BFF002410E099
:1042300006E0012007F048FAFCF712FC00B906E09E
:104240004FF40061314804F03FF80128F1D000BF7D
:10425000641C962CECDBF0202A4908600020FEF755
:10426000FBFD4FF48270264908602649086000244F
:1042700017E010E00F20962102220E23CDE9002145
:104280000290284A274914390720FFF7A5FEFCF7BA
:10429000E7FB00B903E0244800681928EADC00BF06
:1042A000641CB4F57A7FE4DB002417E010E00F20F3
:1042B000962102220E23CDE900210290194A1949C4
:1042C00014390720FFF788FEFCF7CAFB00B903E0AA
:1042D000164800689428EADC00BF641CB4F57A7FB5
:1042E000E4DB0020FEF7B8FD6420094908608C205B
:1042F000084908604FF48270014919E0001002403B
:10430000C4020020D0020020BC00002000000240B7
:10431000E0020020E4020020A40000209A99993EC7
:10432000B800002090FCFFFF9C000020AC000020A3
:104330000860F84908603EBD2DE9F05F82460D46F1
:1043400014461E46DDE90B9BDDF82880F24909681A
:10435000881B002801DB014600E0414201FB0BF70E
:104360004F4500DD4F46EC480068801B404510DAA1
:10437000E81900EE900AF8EEE00AB0EE600A1FEDD0
:10438000191A00EE904AF8EEE00A5046FEF759FE80
:1043900022E0E1480068801B404510DDE81B00EE8C
:1043A000900AF8EEE00AB0EE600A1FED241A00EE63
:1043B000904AF8EEE00A5046FEF743FE0CE01FED8F
:1043C000291A00EE104AF8EEC00A504600EE105AC4
:1043D000B8EEC00AFEF735FEBDE8F09F3EB564209A
:1043E000CE4908608C20CE4908604FF4E670CD4974
:1043F0000860C849086000240EE006E0012007F0CC
:1044000063F9FCF72DFB00B904E0C7480068B0F57C
:10441000E37FF3DD00BF641C322CEEDB00240FE0F1
:1044200006E0012007F050F9FCF71AFB00B905E09F
:104430001021BE4803F048FF0028F2D000BF641CE2
:10444000FA2CEDDB9FEDBA1ADFEDBA0A0F209FEDD3
:10445000B90AFEF7F6FD00240FE006E0012007F0A0
:1044600033F9FCF7FDFA00B905E01021AF4803F07D
:104470002BFF0128F2D000BF641CFA2CEDDBFDF706
:10448000D3FE06E0012007F01FF9FCF7E9FA00B9B6
:1044900007E0FCF76FFB0546FCF742FB2844322897
:1044A000F0DB00BF0020FEF7D7FCDF209D4908604D
:1044B00000240DE006E0012007F006F9FCF7D0FA31
:1044C00000B903E098480068E428F4DC00BF641CED
:1044D000322CEFDB4FF4F5708E4908609FED941A93
:1044E000DFED940A0F209FED930AFEF7AAFD00244A
:1044F00010E006E0012007F0E7F8FCF7B1FA00B998
:1045000006E04FF40051894803F0DEFE0128F1D0A7
:1045100000BF641C40F226208442EADBF02081497F
:104520000860FDF781FE06E0052007F0CDF8FCF7F6
:1045300097FA00B908E0FCF7C9FA0546FCF799FAC2
:104540002844B0F5967FEFDB00BF0020FEF784FC27
:10455000E8207049086000240DE006E0012007F023
:10456000B3F8FCF77DFA00B903E073480068EB2864
:10457000F4DC00BF641CFA2CEFDB9FED6D1ADFED5D
:104580006D0A0C209FED6B0AFEF75BFD002410E026
:1045900006E0012007F098F8FCF762FA00B906E09F
:1045A0004FF40061654803F08FFE0128F1D000BF91
:1045B000641C962CECDB0020FEF74EFC4FF482705E
:1045C0005849086053490860002417E010E00F20A4
:1045D000962102222223CDE900210290584A58490F
:1045E00014390720FFF7A8FEFCF73AFA00B903E0F8
:1045F000544800681928EADC00BF641CB4F57A7FCF
:10460000E4DB002417E010E00F2096210222222391
:10461000CDE9002102904A4A494914390720FFF7A1
:104620008BFEFCF71DFA00B903E0474800689428A8
:10463000EADC00BF641CB4F57A7FE4DB0020FEF7FF
:104640000BFC6420354908608C20354908604FF424
:104650008270344908602F4908603EBD70B56420FF
:104660002E4908608C202E49086040F2B2202D4966
:1046700008602849086000240EE006E0052007F0E5
:1046800023F8FCF7EDF900B904E027480068B0F51D
:104690002C7FF3DB00BF641CFA2CEEDB9FED241AA9
:1046A000DFED240A0A209FED230AFEF7CAFC00244E
:1046B0000FE006E0012007F007F8FCF7D1F900B998
:1046C00005E01021194803F0FFFD0128F2D000BFDA
:1046D000641C40F226208442EBDBFDF7A5FD06E0DA
:1046E000052006F0F1FFFCF7BBF900B908E0FCF784
:1046F00041FA0546FCF714FA2844B0F5967FEFDB43
:1047000000BF0020FEF7A8FBDF2006490860002458
:104710002AE00000D0020020A0000020E0020020DB
:10472000E4020020C4020020B80000200010024073
:10473000CDCC4C3E000061C4BC0000200000024013
:1047400090FCFFFF9C000020AC00002006E005204C
:1047500006F0BAFFFCF784F900B903E0FE480068F0
:10476000E428F4DC00BF641C322CEFDB0020FEF7F1
:1047700073FB40F2B320F94908601FED131A5FED97
:10478000130A0F201FED150AFEF75BFC002410E052
:1047900006E0012006F098FFFCF762F900B906E098
:1047A0004FF40051EE4803F08FFD0128F1D000BF17
:1047B000641C40F226208442EADBF020E9490860CC
:1047C000FDF732FD06E0052006F07EFFFCF748F914
:1047D00000B908E0FCF77AF90546FCF74AF92844E5
:1047E000B0F5E67FEFDB00BF0020FEF735FBE820E9
:1047F000DA49086000240DE006E0052006F064FFB9
:10480000FCF72EF900B903E0D7480068EB28F4DC88
:1048100000BF641CFA2CEFDB0020FEF71DFB1FED30
:104820003C1A5FED3C0A0C201FED3E0AFEF709FC26
:10483000002410E006E0012006F046FFFCF710F926
:1048400000B906E04FF40061C84803F03DFD0128BF
:10485000F1D000BF641C962CECDB0020FEF7FCFAC4
:1048600070BD70B56420C24908608C20C1490860E1
:10487000EE20BC490860B949086000240FE006E05A
:10488000052006F021FFFCF7EBF800B905E0102148
:10489000B34803F019FD0128F2D000BF641CFA2CC4
:1048A000EDDB1FED5D1A5FED5D0A07201FED5F0A6E
:1048B000FEF7C7FB00240FE006E0052006F004FF2A
:1048C000FCF7CEF800B905E01021A54803F0FCFC88
:1048D0000028F2D000BF641CFA2CEDDBFDF7A4FC2D
:1048E00006E0012006F0F0FEFCF7BAF800B913E08C
:1048F000FCF740F90646FCF713F9051E01DB2846D4
:1049000000E06842002E01DB314600E071420844BD
:1049100040F27E418842E4DB00BF0020FEF79CFAB3
:104920004FF4E6708F49086000240EE006E0052091
:1049300006F0CAFEFCF794F800B904E08648006867
:10494000B0F5E57FF3DB00BF641CFA2CEEDB002042
:10495000FEF782FA1FED8A1A5FED8A0A07201FED23
:104960008B0AFEF76EFB002410E006E0012006F043
:10497000ABFEFCF775F800B906E04FF4005178483B
:1049800003F0A2FC0028F1D000BF641C40F22620F6
:104990008442EADBFDF748FC06E0012006F094FEC5
:1049A000FCF75EF800B912E0FCF790F80646FCF759
:1049B00060F8051E01DB284600E06842002E01DB9E
:1049C000314600E071420844B0F5C86FE5DB00BF36
:1049D0000020FEF741FA4FF4E670604908600024B9
:1049E0000EE006E0052006F06FFEFCF739F800B98E
:1049F00004E05D480068B0F5E57FF3DB00BF641CB0
:104A0000FA2CEEDB0020FEF727FA1FEDB71A5FED58
:104A1000B70A0A201FEDB90AFEF713FB002410E0C5
:104A200006E0012006F050FEFCF71AF800B906E097
:104A30004FF400614D4803F047FC0028F1D000BF5F
:104A4000641C962CECDB1E20FEF706FA70BDFEB54A
:104A50006420474908608C2046490860EE2041499F
:104A600008603E49086000240FE006E0052006F0DB
:104A70002BFEFBF7F5FF00B905E01021384803F0E5
:104A800023FC0128F2D000BF641CFA2CEDDB1FEDE3
:104A9000D81A5FEDD80A07201FEDDA0AFEF7D1FA1F
:104AA00000240FE006E0052006F00EFEFBF7D8FF1D
:104AB00000B905E010212A4803F006FC0028F2D0D6
:104AC00000BF641CFA2CEDDBFDF7AEFB06E0012015
:104AD00006F0FAFDFBF7C4FF00B913E0FCF74AF853
:104AE0000646FCF71DF8051E01DB284600E068427B
:104AF000002E01DB314600E07142084440F27E4165
:104B00008842E4DB00BF0020FEF7A6F94FF4E67010
:104B10001449086000240EE006E0052006F0D4FDEC
:104B2000FBF79EFF00B904E00B480068B0F5E57F95
:104B3000F3DB00BF641CFA2CEEDB0020FEF78CF9DF
:104B40009FED0D1ADFED0D0A07209FED0C0AFEF711
:104B500078FA002425E00000B8000020D0020020F0
:104B600000100240C4020020BC00002000000240EF
:104B7000E0020020E4020020CDCC4C3E000061C4E5
:104B800006E0012006F0A0FDFBF76AFF00B906E091
:104B90004FF40051FE4803F097FB0028F1D000BF0E
:104BA000641C40F226208442EADBFDF73DFB06E070
:104BB000012006F089FDFBF753FF00B912E0FBF777
:104BC00085FF0646FBF755FF051E01DB284600E082
:104BD0006842002E01DB314600E071420844B0F526
:104BE000C86FE5DB00BF0020FEF736F94FF4E67032
:104BF000E849086000240EE006E0052006F064FDA8
:104C0000FBF72EFF00B904E0E3480068B0F5E57F4C
:104C1000F3DB00BF641CFA2CEEDB0020FEF71CF96E
:104C20001FED2B1A5FED2B0A0A201FED2C0AFEF751
:104C300008FA002410E006E0012006F045FDFBF72D
:104C40000FFF00B906E04FF40061D44803F03CFBCD
:104C50000028F1D000BF641C962CECDB1E20FEF770
:104C6000FBF84FF48270CE490860CA4908600024FE
:104C700017E010E00F20962102220D23CDE900213C
:104C80000290C84AC74914390720FFF7A5F9FBF776
:104C9000E7FE00B903E0C44800681928EADC00BF59
:104CA000641CB4F57A7FE4DB002417E010E00F20E9
:104CB000962102220D23CDE900210290B94AB9497B
:104CC00014390720FFF738FBFBF7CAFE00B903E0F1
:104CD000B64800689428EADC00BF641CB4F57A7F0B
:104CE000E4DB0020FEF7B8F86420B14908608C20AE
:104CF000B04908604FF48270A9490860A54908606E
:104D0000FEBDFEB56420AA4908608C20A949086050
:104D1000EE20A34908609F49086000240FE006E0E8
:104D2000052006F0D1FCFBF79BFE00B905E0102141
:104D3000974803F0C9FA0128F2D000BF641CFA2C8E
:104D4000EDDB0F20962102222223CDE900210290E3
:104D5000944A944914390A20FFF7EEFA00240FE030
:104D600006E0052006F0B0FCFBF77AFE00B905E08E
:104D70001021874803F0A8FA0028F2D000BF641C75
:104D8000FA2CEDDBFDF750FA06E0012006F09CFC62
:104D9000FBF766FE00B913E0FBF7ECFE0646FBF7F7
:104DA000BFFE051E01DB284600E06842002E01DB45
:104DB000314600E07142084440F27E418842E4DB23
:104DC00000BF0020FEF748F84FF4E6707449086011
:104DD00000240EE006E0052006F076FCFBF740FE1E
:104DE00000B904E074480068B0F5E57FF3DB00BF6C
:104DF000641CFA2CEEDB0020FEF72EF80F20962123
:104E000002222223CDE900210290664A6549143925
:104E10000A20FFF791FA002410E006E0012006F0D6
:104E200053FCFBF71DFE00B906E04FF40051584853
:104E300003F04AFA0028F1D000BF641C40F226209B
:104E40008442EADBFDF7F0F906E0012006F03CFCC5
:104E5000FBF706FE00B912E0FBF738FE0646FBF74B
:104E600008FE051E01DB284600E06842002E01DB3B
:104E7000314600E071420844B0F5C86FE5DB00BF81
:104E80000020FDF7E9FF4FF4E67042490860002476
:104E90000EE006E0052006F017FCFBF7E1FD00B987
:104EA00004E03D480068B0F5E57FF3DB00BF641C1B
:104EB000FA2CEEDB0020FDF7CFFF1FEDD11A5FEDDE
:104EC000D10A0A201FEDD30AFEF7BBF8002410E038
:104ED00006E0012006F0F8FBFBF7C2FD00B906E092
:104EE0004FF400612D4803F0EFF90028F1D000BF26
:104EF000641C962CECDB1E20FDF7AEFF4FF4827095
:104F00002749086023490860002417E010E00F20BB
:104F1000962102222223CDE900210290214A214933
:104F200014390720FFF708FAFBF79AFD00B903E0F0
:104F30001D4800681928EADC00BF641CB4F57A7FBC
:104F4000E4DB002417E010E00F2096210222222348
:104F5000CDE900210290134A124914390720FFF7C6
:104F6000EBF9FBF77DFD00B903E0104800689428D9
:104F7000EADC00BF641CB4F57A7FE4DB0020FDF7B7
:104F80006BFF64200A4908608C200A49086015E01C
:104F900000100240D0020020BC00002000000240AF
:104FA000C402002090FCFFFF9C000020AC00002009
:104FB000E0020020E4020020B80000204FF48270DC
:104FC000FE490860FE490860FEBD70B56420FD49D9
:104FD00008608C20FC490860EE20F8490860F84918
:104FE000086000240FE006E0052006F06DFBFBF7EB
:104FF00037FD00B905E01021F44803F065F90128F8
:10500000F2D000BF641CFA2CEDDB9FEDF11ADFED4E
:10501000F10A07209FEDEF0AFEF713F800240FE0D6
:1050200006E0052006F050FBFBF71AFD00B905E08D
:105030001021E64803F048F90028F2D000BF641CB4
:10504000FA2CEDDBFDF7F0F806E0012006F03CFB62
:10505000FBF706FD00B913E0FBF78CFD0646FBF7F6
:105060005FFD051E01DB284600E06842002E01DBE3
:10507000314600E07142084440F27E418842E4DB60
:1050800000BF0020FDF7E8FE40F2B220CB490860E7
:1050900000240FE006E0052006F016FBFBF7E0FC1D
:1050A00000B905E0CC48006840F2AE218842F2DB4E
:1050B00000BF641CFA2CEDDB0020FDF7CDFE9FED58
:1050C000C41ADFEDC40A07209FEDC20AFDF7B9FF3D
:1050D000002410E006E0012006F0F6FAFBF7C0FC21
:1050E00000B906E04FF40051B84803F0EDF800288D
:1050F000F1D000BF641C40F226208442EADBFDF7B9
:1051000093F806E0012006F0DFFAFBF7A9FC00B9EE
:1051100012E0FBF7DBFC0646FBF7ABFC051E01DBF0
:10512000284600E06842002E01DB314600E0714273
:105130000844B0F5C86FE5DB00BF0020FDF78CFE2A
:1051400040F2B2209E49086000240FE006E00520EE
:1051500006F0BAFAFBF784FC00B905E09F48006846
:1051600040F2AE218842F2DB00BF641CFA2CEDDB7A
:105170000020FDF771FE9FED961ADFED960A0A20DA
:105180009FED940AFDF75DFF002410E006E001208A
:1051900006F09AFAFBF764FC00B906E04FF40061F0
:1051A0008F4803F091F80028F1D000BF641C962CC2
:1051B000ECDB1E20FDF750FE70BD2DE9F05F82464E
:1051C0000D4614461E46DDE90B9BDDF82880854917
:1051D0000968881B002801DB014600E0414201FB11
:1051E0000BF74F4500DD4F467E480068801B404569
:1051F00010DAE81B00EE900AF8EEE00AB0EE600A62
:105200009FED791A00EE904AF8EEE00A5046FDF75D
:1052100018FF22E073480068801B404510DDE81944
:1052200000EE900AF8EEE00AB0EE600A9FED6E1A0A
:1052300000EE904AF8EEE00A5046FDF702FF0CE05F
:105240009FED6A1A00EE104AF8EEC00A504600EED2
:10525000105AB8EEC00AFDF7F4FEBDE8F09F3EB567
:10526000642058490860A020574908604FF48770AF
:10527000524908604FF48C70514908601E2100208B
:10528000FDF7D5FE00240DE006E0052006F01CFA2F
:10529000FBF7E6FB00B103E0524800682828F4DC85
:1052A00000BF641C40F226208442EDDB1E2100205A
:1052B000FDF7BDFE00240DE006E0052006F004FA2F
:1052C000FBF7CEFB00B103E0464800684628F4DB5C
:1052D00000BF641C40F226208442EDDB1E2100202A
:1052E000FDF7A5FE00240DE006E0052006F0ECF930
:1052F000FBF7B6FB00B103E03A4800683228F4DC63
:1053000000BF641C40F226208442EDDB0020FDF744
:10531000A3FD002419E012E01E20C8210222202350
:10532000CDE900210290002231493C20FFF745FFE2
:10533000052006F0C9F9FBF793FB00B103E02D4807
:1053400000686428E8DC00BF641C40F22620844228
:10535000E1DB002419E012E01E20C82102222023F4
:10536000CDE900210290002221491420FFF725FFFA
:10537000052006F0A9F9FBF773FB00B103E01D4817
:1053800000680F28E8DC00BF641C40F2262084423D
:10539000E1DB0020FDF760FD3EBD3EB5642009491C
:1053A0000860A020084908604FF48770034908602E
:1053B0004FF48C70024908601E211DE0C4020020D9
:1053C000D0020020E0020020E40200200010024091
:1053D000CDCC4C3E000061C4B8000020BC000020D1
:1053E000000002409C0000203333333FB81E453F8D
:1053F0007CFCFFFFA00000200020FDF718FE002429
:105400000DE006E0052006F05FF9FBF729FB00B18F
:1054100003E0FA4800682828F4DC00BF641C40F26E
:1054200026208442EDDB1E210020FDF700FE002433
:105430000DE006E0052006F047F9FBF711FB00B18F
:1054400003E0EE4800684628F4DB00BF641C40F22D
:1054500026208442EDDB1E210020FDF7E8FD00241C
:105460000DE006E0052006F02FF9FBF7F9FA00B190
:1054700003E0E24800683228F4DC00BF641C40F21C
:1054800026208442EDDB0020FDF7E6FC002419E035
:1054900012E01E20C82102222023CDE90021029023
:1054A0000022D7493C20FFF788FE052006F00CF9C2
:1054B000FBF7D6FA00B103E0D24800686428E8DCC4
:1054C00000BF641C40F226208442E1DB002419E086
:1054D00012E01E20C82102222023CDE900210290E3
:1054E0000022C7491420FFF768FE052006F0ECF8FB
:1054F000FBF7B6FA00B103E0C24800680F28E8DC09
:1055000000BF641C40F226208442E1DB0020FDF74E
:10551000A3FC3EBDBC4890F8230040F00200BA490D
:1055200081F82300084690F8230000F0FE0081F87F
:1055300023007047B44890F8230040F00100B249BE
:1055400081F82300084690F8230000F0FD0081F860
:1055500023007047AC4890F8230000F0FE00AA49F1
:1055600081F82300084690F8230000F0FD0081F840
:1055700023007047A448C07F40F00100A249C877CB
:105580000846C07F00F0FD00C87770479E48C07F86
:1055900040F002009C49C8770846C07F00F0FE003A
:1055A000C87770479848C07F00F0FD009649C877DB
:1055B0000846C07F00F0FE00C87770479248C07F61
:1055C00040F040009049C8770846C07F00F0DF00F7
:1055D000C87770478C48C07F40F020008A49C87760
:1055E0000846C07F00F0BF00C87770478648C07F7C
:1055F00000F0DF008449C8770846C07F00F0BF0094
:10560000C87770478048C07F40F001007E49C87766
:105610000846C07F00F0FD00C8770846C07F40F014
:105620004000C8770846C07F00F0DF00C877084612
:1056300090F8230040F0020081F82300084690F81B
:10564000230000F0FE0081F8230070476F48407887
:1056500000F0100088B36D48407800F0020060BB95
:105660006A48C07948BB6948807930BB684800689F
:1056700068490968884221DA6448407800F00100EE
:1056800058B164480068143861490968884204DDEB
:1056900064205D4981F8270003E028205A4981F8F9
:1056A00027000120584981F82600594800685A49C6
:1056B00008600120594908603BE0FFE75348407803
:1056C00000F0080088B35148407800F0020060BB49
:1056D0004E48C07948BB4D48807930BB4C48006883
:1056E0004F490968884221DD4848407800F00100B0
:1056F00058B1474801684A4800681430814204DDC7
:105700006420414981F8270003E028203E4981F8C0
:10571000270000203C4981F826003D4800683E49AA
:10572000086001203D49086003E0FFE700203B4995
:105730000860704770B5B4203A490860FA203A49C9
:10574000086040F2DB1039490860394908600020E0
:105750003849086012E006E0052005F0B5FFFBF7C8
:105760007FF900B904E034480068B0F5EB7FF3DB63
:1057700000BF30480068401C2E4908602D48006872
:10578000FA28E8DB00202B49086019E00CE01FED47
:10579000F01A5FEDF00A07201FEDF20AFDF751FC49
:1057A000FBF75EF900B905E01021244802F08CFDFA
:1057B0000128ECD000BF1F480068401C1D4908604C
:1057C0001C480068FA28E1DBFCF72EFD0CE09FED99
:1057D0001C1ADFED1C0A07209FED1A0AFDF731FCA9
:1057E000FBF73EF900B939E0FBF7C4F90546FBF7D2
:1057F00097F9041E28DB204627E000009C000020CB
:105800007CFCFFFFA0000020040000204D060020CB
:10581000B0000020D8020020DC0200203803002065
:10582000D4020020E0020020E4020020C402002094
:10583000D002002084020020B800002000100240A6
:10584000CDCC4C3E000061C46042002D01DB2946F6
:1058500000E069420844B0F5077FB8DB00BF1E20B6
:10586000FDF7FAFAFA480068002872D19620F94943
:10587000086040F26A20F84908600020F749086093
:1058800012E006E0052005F01FFFFBF7E9F800B97C
:1058900004E0F3480068B0F5197FF3DD00BFEF487E
:1058A0000068401CED490860EC480068FA28E8DB15
:1058B0001E20FDF7D1FAFFF769FEEA48C07F40F0ED
:1058C0001000E849C877084690F8230000F0EF0080
:1058D00081F823004FF4FA6005F0F6FE0020DF495E
:1058E000086014E006E0022005F0EEFEFBF7B8F8D1
:1058F00000B906E04FF48051DB4802F0E5FC0128D6
:10590000F1D000BFD5480068401CD4490860D34896
:105910000068B0F57A7FE5DBFFF72CFED148C07F49
:1059200000F0EF00CF49C8771FED3B1A5FED3B0A4F
:105930000A209FEDCE0AFDF784FB0020C7490860CE
:1059400014E007E0022005F0BFFEFBF789F808B974
:1059500006E0C6E01021C64802F0B6FC0028F1D0EF
:1059600000BFBE480068401CBC490860BB480068D6
:10597000FA28E6DBFCF758FC06E0022005F0A4FE5E
:10598000FBF76EF800B912E0FBF7F4F80546FBF7F9
:10599000C7F8041E01DB204600E06042002D01DB59
:1059A000294600E069420844B0F5E17FE5DB00BF2D
:1059B000B420B0490860FA20AF4908604FF49670EF
:1059C000AE490860AE4908601E20FDF745FA002088
:1059D000A249086012E006E0052005F075FEFBF71D
:1059E0003FF800B904E0A7480068B0F59B7FF3DCFE
:1059F00000BF9A480068401C9849086097480068B2
:105A0000FA28E8DB00209549086013E006E0022050
:105A100005F05AFEFBF724F800B905E080219A480A
:105A200002F052FC0128F2D000BF8C480068401CF4
:105A30008A49086089480068FA28E7DB1E20FDF7DC
:105A40000BFA012082490860B4208A490860FA20D4
:105A50008949086040F2E510884908608849086073
:105A600000207E49086012E006E0052005F02CFECB
:105A7000FAF7F6FF00B904E082480068B0F5F17F5C
:105A8000F3DB00BF75480068401C74490860734828
:105A90000068FA28E8DB64206E49086040F20520BF
:105AA0006D49086000206D49086012E006E00120A1
:105AB00005F00AFEFAF7D4FF00B904E06848006870
:105AC000B0F5027FF3DA00BF64480068401C634908
:105AD000086062480068FA28E8DB1E20FDF7BCF980
