:020000040800F2
:1000000058340020615800084502000847020008E3
:100010004B0200084F0200085302000800000000D5
:100020000000000000000000000000009D0100082A
:100030005702000800000000E10100087B8800086A
:100040007B5800087B5800087B5800087B58000844
:100050007B5800087B5800087B5800087B58000834
:10006000A9040008ED0400087B58000819030008E3
:10007000FB0200085B0300087B58000875020008BB
:100080007B580008810200087B5800087B58000854
:100090007B5800087B5800087B5800087B580008F4
:1000A0007B580008C5030008F10300087B580008CE
:1000B000F3030008210400084D0400087B580008E1
:1000C0007B5800087B5800087B580008A5040008EE
:1000D0007B5800085D0200087B5800087B58000828
:1000E0007B5800087B5800087B5800087B580008A4
:1000F0007B5800087B5800087B580008370300082D
:100100007B5800087B58000879040008A704000801
:100110007B5800087B58000897030008A3030008D9
:100120007B5800089B020008CD0200087B5800089D
:100130007B5800087B5800087B5800087B58000853
:100140007B5800087B5800087B5800087B58000843
:10015000ED0200087B5800087B5800087B58000817
:100160007B5800087B5800087B5800087B58000823
:100170007B5800087B5800087B5800087B58000813
:100180007B5800087B580008DFF80CD009F082FE8D
:10019000004800478955000858340020234B19684F
:1001A0000868B0E8F04F80F309884FF0000080F352
:1001B000118870470000000003480068006880F361
:1001C000088862B600DF00BF08ED00E0DFF80C0031
:1001D000016841F470010160704700BF88ED00E0E4
:1001E000EFF30980114B1A681EF0100F08BF20EDC5
:1001F000108A20E9F04F106008B54FF0140080F32A
:10020000118808F002FF4FF0000080F31188BDE86C
:10021000084019680868B0E8F04F1EF0100F08BFDA
:10022000B0EC108A80F30988704700BFA803002053
:10023000EFF311804FF0140181F31188704780F3C0
:1002400011887047704700BFFEE700BFFEE700BFA0
:10025000FEE700BFFEE770477047704710B540F2F9
:100260002551A34807F01DFC18B12021A04807F034
:100270000FFC10BD10B59F499F4806F047FB10BD0D
:1002800010B59E499C48303006F016FB20B19B49C2
:100290009948303006F03AFB10BD10B5984999489E
:1002A00006F00AFB88B19649964806F02FFB01F04C
:1002B0003EFE0021934806F055FA0421914806F0CD
:1002C00072FA01218F4806F04DFA10BD10B58E4923
:1002D0008C48183006F01AFB8C4840788B49097816
:1002E00040EA012000B28A49088010BD10B5894952
:1002F0008448603006F00AFB10BD10B580497E4886
:10030000483806F0D9FA30B17D497B48483806F0C4
:10031000FDFA00F0B9FA10BD10B57F497648603893
:1003200006F0CAFA30B17C497348603806F0EEFA3C
:1003300001F0FDFD10BD10B578496F48483006F05A
:10034000BBFA48B100216C48483006F00BFA7349FB
:100350006948483006F0DAFA10BD10B56A496648B7
:10036000303806F0A9FAA8B167496348303806F07A
:10037000CDFA01F011FC00215F48303806F0F2F9A7
:1003800006215D48303806F00EFA01215A4830380F
:1003900006F0E8F910BD10B50121614807F0DEF85C
:1003A00010BD10B501215F4807F0D8F87A205049F8
:1003B000888001215C4807F083FA01215B4807F03F
:1003C0007FFA10BD10B50121594807F0C7F8584809
:1003D000008800F0100028B156480068401E5549BA
:1003E000086004E053480068401C5249086010BD92
:1003F000704710B50121880707F0B0F84FF0804032
:10040000008800F0100028B14B480068401E4A499F
:10041000086004E048480068401C4749086010BD77
:1004200010B50121454807F099F84448008800F0CC
:10043000100028B142480068401E4149086004E0AD
:100440003F480068401C3E49086010BD10B50121BE
:100450003C4807F083F83B48008800F0100028B1C2
:1004600039480068401E3849086004E03648006892
:10047000401C3549086010BD10B50121334807F014
:100480006DF83248008800F0100028B1304800684C
:10049000401E2F49086004E02D480068401C2C498C
:1004A000086010BD7047704710B5042006F0C6FA0A
:1004B000D8B12021274805F04AFB0421264805F041
:1004C00021FB012804D10021164806F0C7FB09E0F2
:1004D0000421214805F016FB20B9124806F0C2FBA2
:1004E0001E49086004201E49086010BD70470000C6
:1004F0000010014020800020706002400080202019
:10050000008800102864024000802010C4050020EC
:100510008400002000880020208000100080002837
:10052000001000400014004000480040001401404A
:10053000000001406400002068000020000400402A
:100540006C0000200008004080000020000C0040EB
:100550007000002000000240000C024060000020FB
:10056000143C014070B50446204609F037F90546B1
:100570002146F74809F039F9A0B195222146F448FF
:1005800009F020F90021F34806F0ECF8F048F149B1
:100590000C310860EF48B838C0F8BC500121ED4874
:1005A00006F0E0F870BD70B50446002510E0605D0F
:1005B00068B1615DE84807F0AEF900BF8021E64808
:1005C00007F059FA0028F9D0681CC5B200E070BDE8
:1005D000EDE770B5044600250FE05CB12146DE482A
:1005E00007F099F900BF8021DB4807F044FA0028A2
:1005F000F9D000E070BD681CC5B2032DEDDB00BF73
:10060000F8E713B50C460020FFF7E3FFD3A0FFF790
:10061000CAFF2346D2A29621D24809F0A7FCD148AE
:10062000FFF7C1FFD0A0FFF7BEFFCDA29621CD48B6
:10063000009B09F09BFCCB48FFF7B5FFCCA0FFF770
:10064000B2FFFF20FFF7C5FFFF20FFF7C2FFFF202B
:10065000FFF7BFFF1CBD70B505460C46BFA0FFF7F6
:10066000A2FF2246BEA1BF4809F098FCBD48FFF793
:100670009AFFBDA0FFF797FF2846FFF794FFBCA0A5
:10068000FFF791FFFF20FFF7A4FF70BD77B585B09E
:100690000546FF26B4A103C9CDE90301B4A0006853
:1006A0000290AEA00068019000240AE00020B14949
:1006B0000855B1490855AB490855A5490855601C6E
:1006C000C4B21E2CF2DB0A20A6490870FF20487035
:1006D0008870C870A2A1A848079A09F05FFCA649D3
:1006E00001A809F063F801A99E4809F05FF803A981
:1006F0009C4809F05BF829469A4809F057F898A1F8
:100700009D48069A09F04AFC9B49964809F04EF824
:1007100002A9944809F04AF8FF20964908704870E9
:100720008870904809F042F88E48FFF71BFF08B028
:1007300070BDF7B584B005460E46FF278AA103C9F0
:10074000CDE902018AA00068019084A000680090B1
:10075000002408E000208749085587490855814949
:100760000855601CC4B20A2CF4DB0A207D490870CD
:10077000FF2048708870C87079A17F48069A09F0F8
:100780000DFC7D49684609F011F86946754809F085
:100790000DF802A9734809F009F82946714809F0D3
:1007A00005F831466F4809F001F801A96D4808F0D5
:1007B000FDFFFF206F490870487088700020C870E6
:1007C0000871684808F0F2FF6648FFF7CBFE07B0F3
:1007D000F0BD01B58EB069A2322101A80E9B09F0CF
:1007E000C5FB01A8FFF7BEFE0FB000BD73B584B016
:1007F0000546FF265CA103C9CDE902015CA00068A3
:10080000019056A00068009000240AE00020594999
:10081000085559490855534908554D490855601C14
:10082000C4B21E2CF2DB0A204E490870FF2048702B
:100830008870C8704AA15048059A09F0AFFB4E492C
:10084000684608F0B3FF6946464808F0AFFF02A9C2
:10085000444808F0ABFF2946424808F0A7FF464944
:10086000404808F0A3FF01A93E4808F09FFFFF2081
:1008700040490870487088703A4808F097FF394836
:10088000FFF770FE06B070BD1CB53F4800783E49CA
:10089000497808443C49897808443B49C978084468
:1008A00039490979084438494979084436498979E8
:1008B00008443549C97908443349097A0844C0B223
:1008C00001903148007A00F00F0000909DF8000080
:1008D0000D2803D000212D4806F0F2FF1CBD2A4848
:1008E000007A00F00F000D2806D12748007800F0AC
:1008F000010008B10D2070470020FCE72248007875
:1009000000F0100008B1012070470020FCE71CB582
:100910001F4806F0A7F91F49096840EA01400C2169
:1009200090FBF1F0009000243CE0194806F09AF9A1
:100930001849096840EA01400C2190FBF1F0019050
:10094000DDE90021881A002826DB014625E00000A9
:100950001E050020B86002400050004074000000F6
:1009600025640000E80300202E7478743D22000006
:1009700022000000CE040020A60400206A302E765B
:10098000616C3D2564000000000600200048004026
:10099000000400406C0000204142052900DA641C7C
:1009A00001980090022CC0DB01981CBD1CB54FF0D3
:1009B000804006F057F9FE49096840EA01400C21E1
:1009C00090FBF1F00090002418E04FF0804006F01A
:1009D00049F9F749096840EA01400C2190FBF1F020
:1009E0000190DDE90021881A002801DB014600E0C2
:1009F0004142052900DA641C01980090022CE4DBD6
:100A000001981CBD1CB5EB4806F02CF9EA490968B1
:100A100040EA01400C2190FBF1F00090002417E027
:100A2000E44806F01FF9E449096840EA01400C2156
:100A300090FBF1F00190DDE90021881A002801DB2C
:100A4000014600E04142052900DA641C019800904B
:100A5000022CE5DB01981CBD1CB5D84806F002F954
:100A6000D749096840EA01400C2190FBF1F0009061
:100A7000002417E0D14806F0F5F8D149096840EAAA
:100A800001400C2190FBF1F00190DDE90021881A72
:100A9000002801DB014600E04142052900DA641C20
:100AA00001980090022CE5DB01981CBD01B581B0D6
:100AB00000200090019800EBC0004000009002E090
:100AC0000098401E009000980028F9D10CBD01B597
:100AD00081B00020009044F250610198484300909A
:100AE00002E00098401E009000980028F9D10CBD4B
:100AF0001CB501211F2005F0E9F94FF6FF700090A9
:100B000001208DF8040000208DF8060001208DF8EA
:100B1000070003208DF805006946AA4804F090FFFD
:100B20004FF6FF70009001208DF8040000208DF832
:100B3000060001208DF8070003208DF805006946A6
:100B4000A14804F07DFF4FF6FF70009001208DF862
:100B5000040000208DF8060001208DF80700032016
:100B60008DF805006946994804F06AFF1CBD1CB564
:100B700001217E2005F0AAF9C020009000208DF808
:100B8000040001208DF8070002208DF80500694659
:100B90008F4804F055FF0620009000208DF80400D7
:100BA00001208DF8070002208DF805006946854870
:100BB00004F046FF0420009000208DF8040001207E
:100BC0008DF8070002208DF8050069467E4804F084
:100BD00037FF1CBD1FB54FF4E06004F053FE362014
:100BE0008DF8000000208DF801008DF80200012032
:100BF0008DF80300684604F04AFE0121102005F03C
:100C000098F93220ADF8040040F2E730029000205D
:100C1000ADF80C00ADF8060001A96E4805F0D5FF4F
:100C200001216C4806F09AFC01221146694806F041
:100C30006DFC0021674806F011F80121654806F0B7
:100C40004DF81FBD1FB54FF4E06004F01BFE3720C8
:100C50008DF8000000208DF801008DF802000120C1
:100C60008DF80300684604F012FE0121202005F0F3
:100C700060F93220ADF8040040F2E7300290002025
:100C8000ADF80C00ADF8060001A9534805F09DFF32
:100C90000121514806F062FC012211464E4806F03F
:100CA00035FC00214C4805F0D9FF01214A4806F0E7
:100CB00015F81FBD00B58BB00121022005F04AF9DF
:100CC00001210C2005F002F9032206213E4804F020
:100CD00042FF032207213C4804F03DFF0322082184
:100CE000394804F038FF03220921374804F033FF64
:100CF0004FF47070069002208DF81C0003208DF8D0
:100D00001D0000208DF81E0001208DF81F0006A98F
:100D10002D4804F095FEA420ADF8200040F6B83030
:100D200009904FF48070ADF828000020ADF8220043
:100D300008A92A4805F049FF6020ADF80400012009
:100D4000ADF8060000200390ADF810000121234803
:100D500005F0C4FF0021214805F080FF01A91F48CC
:100D600005F0C8FF01A91D4805F0FDFF01A91B48BA
:100D700006F046F801A9194806F0A8F8012117481D
:100D800006F09DFB0BB000BD00B58BB00121082023
:100D900005F0CFF80121084605F098F8022200215D
:100DA0000B4804F0D8FE02220121094818E0000097
:100DB000680000200008004080000020000C004077
:100DC000700000200004024000080240000C0240B5
:100DD00000000240001000400014004000040140E8
:100DE00004F0B9FE02221146FE4804F0B4FE0222CD
:100DF0000321FC4804F0AFFE0F20069002208DF87E
:100E00001C0003208DF81D0000208DF81E0001201D
:100E10008DF81F0006A9F34804F012FEBA20ADF8C1
:100E2000200042F2107009900020ADF82800ADF8C3
:100E3000220008A9EC4805F0C8FE6020ADF80400C7
:100E40000120ADF8060000200390ADF8100001214C
:100E5000E54805F043FF0021E34805F0FFFE01A946
:100E6000E14805F047FF01A9DF4805F07CFF01A933
:100E7000DD4805F0C5FF01A9DB4806F027F8012190
:100E8000D94806F01CFB0BB000BD00B58BB00121AA
:100E9000042005F04EF801210D2005F017F802227C
:100EA0000C21D24804F057FE02220D21CF4804F055
:100EB00052FE02220E21CD4804F04DFE02220F21E7
:100EC000CA4804F048FE4FF47040069002208DF8A6
:100ED0001C0003208DF81D0000208DF81E0001204D
:100EE0008DF81F0006A9C14804F0AAFDA420ADF8A2
:100EF000200040F6B83009904FF48070ADF828001B
:100F00000020ADF8220008A9B94805F05EFE602077
:100F1000ADF804000120ADF8060000200390ADF804
:100F200010000121B24805F0D9FE0021B04805F0BB
:100F300095FE01A9AE4805F0DDFE01A9AC4805F01B
:100F400012FF01A9AA4805F05BFF01A9A84805F016
:100F5000BDFF0BB000BD00B589B00121080404F04D
:100F6000F9FF0121084604F0B1FF032211469D4814
:100F700004F0F1FD032202219A4804F0ECFD0C205C
:100F8000019002208DF8080003208DF80900002050
:100F90008DF80A0001208DF80B0001A9914804F09A
:100FA0004FFD0020ADF818004FF6FF7007900020AD
:100FB000ADF82000ADF81A0006A98E4805F005FE30
:100FC0000420ADF80C000020ADF80E00C820ADF8EC
:100FD00014000120ADF8100003A9864806F0CCF9F2
:100FE00000231A460321844806F063FB012182484E
:100FF00006F0B4FA012211467F4806F087FA012173
:101000007C4805F06BFE00217B4805F027FE09B007
:1010100000BD00B589B00121084604F08AFF012116
:10102000022004F086FF0121032004F04FFF01227B
:101030000F216C4804F08FFD012203216F4804F05A
:101040008AFD022204216D4804F085FD022205215B
:101050006A4804F080FD3820019002208DF80800D5
:1010600003208DF8090000208DF80A0001208DF87A
:101070000B0001A9614804F0E3FC4FF4004001902B
:1010800002208DF8080003208DF8090000208DF85B
:101090000A0001208DF80B0001A9524804F0D0FC91
:1010A0000020ADF818004FF6FF7007900020ADF853
:1010B0002000ADF81A0006A94FF0804005F085FD2C
:1010C00006A94F4805F081FD0420ADF80C00022070
:1010D000ADF80E001420ADF814000120ADF810009A
:1010E00003A9800706F048F903A9454806F044F92A
:1010F00002231A460321580706F0DBFA02231A4698
:1011000003213F4806F0D5FA0121880706F026FAA8
:1011100001213B4806F022FA01221146900706F011
:10112000F5F901221146364806F0F0F90121880749
:1011300005F0D4FD0121324805F0D0FD00214FF02B
:10114000804005F08BFD00212D4805F087FD4FF410
:10115000C06004F097FB1D208DF8000003208DF87F
:10116000010000208DF8020001208DF80300684680
:1011700004F08DFB1C208DF8000004208DF8010088
:1011800000208DF8020001208DF80300684604F06D
:101190007EFB09B000BD00B589B00121084604F00E
:1011A000D9FE0121102004F091FE4FF4206001903F
:1011B00002208DF8080003208DF8090000208DF82A
:1011C0000A0001208DF80B0001A90E4804F038FC3C
:1011D000012209210B4804F0BEFC01220B21094821
:1011E00012E0000000000240000C0040000C024031
:1011F000000800400000014000400140000402409F
:10120000000400400010024004F0A5FC0020ADF8EE
:1012100018004FF6FF7007900020ADF82000ADF8E1
:101220001A0006A9FE4805F0D0FC0420ADF80C0019
:101230000020ADF80E000A20ADF814000120ADF832
:10124000100003A9F64806F097F800231A46032178
:10125000F34806F02EFA0121F14806F07FF9012249
:101260001146EF4806F052F90121ED4806F076F9F3
:1012700001221146EA4806F049F90121E84805F043
:101280002DFD0021E64805F0E9FC4FF4C06004F0B4
:10129000F9FA19208DF8000001208DF801000020D6
:1012A0008DF8020001208DF80300684604F0EFFA83
:1012B00009B000BD00B589B00121042004F039FE59
:1012C0000121082004F002FE4FF44050019002205A
:1012D0008DF8080003208DF8090000208DF80A0021
:1012E00001208DF80B0001A9CE4804F0A9FB0020D5
:1012F000ADF818004FF6FF7007900020ADF8200001
:10130000ADF81A0006A9C84805F05FFC02220C21BE
:10131000C44804F020FC02220D21C24804F01BFC4A
:101320000420ADF80C000220ADF80E00C820ADF886
:1013300014000120ADF8100003A9BB4806F01CF80A
:1013400002231A460321B84806F0B3F90121B64832
:1013500006F004F901221146B34806F0D7F801213E
:10136000B14805F0BBFC0021AF4805F077FC002038
:10137000AD49143108800120AB4908804FF4C060AA
:1013800004F080FA1E208DF8000004208DF8010082
:1013900000208DF8020001208DF80300684604F05B
:1013A00076FA09B000BD00B589B00121082004F02B
:1013B000C0FD0121084604F089FD032001900220B0
:1013C0008DF8080003208DF8090000208DF80A0030
:1013D00001208DF80B0001A9944804F031FB002096
:1013E000ADF818004FF6FF7007900020ADF8200010
:1013F000ADF81A0006A98E4805F0E7FB022200218D
:101400008A4804F0A8FB02220121884804F0A3FBCB
:101410000420ADF80C000220ADF80E00C820ADF895
:1014200014000120ADF8100003A9814805F0A4FFC5
:1014300002231A4603217E4806F03BF901217C482D
:1014400006F08CF801221146794806F05FF8012178
:10145000774805F043FC0021754805F0FFFB0020AC
:101460007349143108800120714908804FF4C0602D
:1014700004F008FA32208DF8000004208DF80100F5
:1014800000208DF8020001208DF80300684604F06A
:10149000FEF909B000BD00B59BB00121654804F01C
:1014A00015FD0121080204F055FD0020029062485C
:1014B00003906248049000200590082006900020C8
:1014C00007904FF4806008904000099080000A90D7
:1014D00040110B9040020C9000200D9001200E90C6
:1014E00000200F90109002A9554805F001F9012144
:1014F000534805F037F93C20009003208DF8040094
:1015000000208DF807006946484804F099FA3C200D
:10151000009003208DF8040000208DF80700694634
:10152000484804F08DFA0020119012901390149006
:1015300011A804F043FE4FF08070159001208DF843
:1015400058008DF859000020179018901990082025
:101550008DF8680015A938484C3804F000FE0023C7
:101560000122022134484C3804F07FFE002302227D
:10157000032131484C3804F078FE00230322042173
:101580002D484C3804F071FE0023042205212A481E
:101590004C3804F06AFE002305220C2126484C3802
:1015A00004F063FE002306220D2123484C3804F08A
:1015B0005CFE002307220E211F484C3804F055FE24
:1015C000002308220F211C484C3804F04EFE012154
:1015D00019484C3804F0F4FE012117484C3804F047
:1015E000E4FE012114484C3804F0FFFD12484C3849
:1015F00004F097FE1BB000BD08B54FF4E06004F0A6
:1016000041F925208DF8000000208DF801008DF8AB
:10161000020001208DF80300684604F038F908BD87
:1016200000000140000C02400008004000000240A1
:10163000000C0040050040004C200140B405002093
:10164000106402400008024010B596B00446012123
:10165000102004F07FFC0121084604F037FC012132
:10166000880504F033FC4FF4C060009002208DF830
:10167000040000208DF806008DF8070002208DF888
:1016800005006946FE4804F0DBF907220921FC4801
:1016900004F061FA07220A21F94804F05CFA029486
:1016A0000020ADF80C00ADF80E00ADF81000ADF85C
:1016B00014000C20ADF8120002A9F24806F078F8E8
:1016C0000121F04806F0FCF84FF4A06004F0DAF8CD
:1016D0003A208DF8180000208DF819008DF81A00B6
:1016E00001208DF81B0006A804F0D1F8E64804F0AC
:1016F0005DFF4FF00060079000200A90E3480990DA
:101700000A200B90DF48001D089000200C904FF439
:1017100080600D9000200E900F904FF4807010901C
:101720004002119004201290032013900020149086
:10173000159007A9D44804F0DBFF01224021D148CD
:1017400006F06BF901221021CF4805F098F801212D
:10175000CD4805F007F816B010BD10B596B0044698
:101760000121480504F0B2FB0121480404F0E1FB2B
:101770000121082004F0AAFB6020009002208DF8CF
:10178000040000208DF806008DF8070002208DF877
:1017900005006946BE4804F053F907220521BC48FC
:1017A00004F0D9F907220621B94804F0D4F90294CB
:1017B0000020ADF80C00ADF80E00ADF81000ADF84B
:1017C00014000C20ADF8120002A9B24805F0F0FF99
:1017D0000121B04806F074F84FF4A06004F052F80C
:1017E00011208DF8180000208DF819008DF81A00CE
:1017F00001208DF81B0006A804F049F8A64804F063
:10180000D5FE4FF00060079040200A90A348099051
:1018100046200B909F48001D089000200C904FF42C
:1018200080600D9000200E900F904FF4807010900B
:101830004002119004201290032013900020149075
:10184000159007A9944804F053FF01228021914884
:1018500006F0E3F8012280218E4806F0DEF801222E
:1018600010218D4805F00BF801218B4804F07AFF18
:1018700016B010BD10B596B004460121880404F0DE
:1018800058FB0121082004F021FB0121480504F048
:101890001DFB4FF44070009002208DF804000020E2
:1018A0008DF806008DF8070002208DF805006946C6
:1018B000774804F0C5F807220821754804F04BF971
:1018C00007220921724804F046F902940020ADF87D
:1018D0000C00ADF80E00ADF81000ADF814000C20AF
:1018E000ADF8120002A96E4805F062FF01216C48B4
:1018F00005F0E6FF4FF4A06003F0C4FF0C208DF864
:10190000180000208DF819008DF81A0001208DF8BC
:101910001B0006A803F0BBFF5F48783804F046FEC2
:101920004FF00060079000200A905E4809900A205E
:101930000B905B48001D089000200C904FF48060D5
:101940000D9000200E900F904FF480701090400288
:1019500011900420129003201390002014901590F1
:1019600007A94D48783804F0C3FE012240214C48B5
:1019700006F053F801224021494806F04EF80122B2
:1019800010214548783804F07AFF01214248783820
:1019900004F0E8FE16B010BD10B596B00446012163
:1019A000C80404F0C6FA0121042004F08FFA0121D2
:1019B000480504F08BFA4FF44060009002208DF847
:1019C000040000208DF806008DF8070002208DF835
:1019D00005006946344804F033F808220A213248E9
:1019E00004F0B9F808220B212F4804F0B4F802944F
:1019F0000020ADF80C00ADF80E00ADF81000ADF809
:101A000014000C20ADF8120002A9284805F0D0FE01
:101A10000121264805F054FF4FF4A06003F032FF87
:101A20000D208DF8180003208DF8190001208DF885
:101A30001A008DF81B0006A803F029FF164860382D
:101A400004F0B4FD4FF00060079000200A901848A1
:101A5000099006200B901548001D089000200C905E
:101A60004FF480600D9000200E900F9010904FF476
:101A7000003011900020129003201390002019E0F4
:101A8000000002400010014040640240C4050020F4
:101A9000000C024000440040A0600240040000200E
:101AA000004800400006002000080240004C0040B2
:101AB000670100201490159007A9FE4804F018FE55
:101AC00001224021FC4805F0A8FF01228021FA48AC
:101AD00005F0A3FF01221021F64804F0D0FE0121F9
:101AE000F44804F03FFE16B010BD30B5F34B1B6850
:101AF000322B20DAF24B1B8803EB4303F14CE0540A
:101B0000EF4B1B8803EB430323445970EC4B1B88BA
:101B100003EB430323449A70E94B1B885B1C32247C
:101B200093FBF4F504FB1533E54C2380E34B1B6872
:101B30005B1CE24C236030BD0146E048006808B9F8
:101B400000207047E048008800EB4000DD4A104468
:101B500002880A8080788870DB480088401C322226
:101B600090FBF2F302FB1300D74A1080D3480068C1
:101B7000401ED24A10600120E3E708B5CF48006854
:101B8000002808DD6846FFF7D7FFCC480068401EF4
:101B9000CA49086000BF08BD10B5CC4800780228CB
:101BA00030D1CA48407903282CD1C8480078C749A9
:101BB00049780844C54989780844C449C978084423
:101BC000C4B2C2480079A04214D1C0484078C0498C
:101BD0000870BE488078BF490870BC48C078BE49CC
:101BE000087008460278BB480178B9480078FFF7CA
:101BF0007CFF06E02C20B6490870B6490870B6494B
:101C0000087000BF10BD10B596B00446012148050C
:101C100004F05CF90121080504F08BF901210C2086
:101C200004F054F90420009002208DF804000020F4
:101C30008DF806008DF8070002208DF80500694632
:101C4000A64803F0FDFE4FF48050009002208DF86E
:101C5000040000208DF806008DF8070002208DF8A2
:101C6000050069469E4803F0EBFE082202219B48CE
:101C700003F071FF08220C21994803F06CFF4FF428
:101C8000A06003F0FFFD2F208DF8180005208DF8CF
:101C900019008DF81A0001208DF81B0006A803F02A
:101CA000F6FD0B208DF8180005208DF819008DF831
:101CB0001A0001208DF81B0006A803F0E8FD02942D
:101CC0000020ADF80C00ADF80E00ADF81000ADF836
:101CD00014000C20ADF8120002A9824805F068FD3E
:101CE0000121804805F0ECFD7248783004F05EFC7C
:101CF0004FF00060079040200A907B4809900A202E
:101D00000B907848001D089000200C904FF48060E4
:101D10000D9000200E900F9010904FF40030119015
:101D2000002012900320139000201490159007A912
:101D30006048783004F0DCFC5E48303804F036FC53
:101D40004FF00060079000200A9068480990052035
:101D50000B906448001D089000200C904FF48060A8
:101D60000D9000200E900F9010904FF400301190C5
:101D7000002012900320139000201490159007A9C2
:101D80004C48303804F0B4FC01228021554805F05D
:101D900044FE01224021534805F03FFE012210215C
:101DA0004448783004F06BFD01221021414830385E
:101DB00004F065FD01213F48783004F0D3FC012197
:101DC0003C48303804F0CEFC16B010BD10B596B0CB
:101DD00004460121202004F0BDF80121042004F074
:101DE00075F80121880504F071F8C02000900220E8
:101DF0008DF8040000208DF806008DF80700022001
:101E00008DF805006946364803F01AFE08220621BF
:101E1000334803F0A0FE08220721314803F09BFE5F
:101E200002940020ADF80C00ADF80E00ADF81000E3
:101E3000ADF814000C20ADF8120002A92C4805F0F2
:101E4000B7FC01212A4805F03BFD4FF4A06003F0E8
:101E500019FD39208DF8180003208DF81900012094
:101E60008DF81A008DF81B0006A803F010FD21481C
:101E700004F09CFB4FF02060079000200A901E4861
:101E8000099004200B901A48001D089000200C9027
:101E90004FF480600D9000200E900F9010904FF442
:101EA0000030119000201290032013900020149015
:101EB000159023E040600240004C0040700100207B
:101EC000740100200F060020760100206701002029
:101ED0006D0100206E0100206F010020000C024007
:101EE00000080240005000401E050020A50600200A
:101EF00000140140286402407801002007A9FD4831
:101F000004F0F6FB01224021FB4805F086FD01228A
:101F10008021F94805F081FD01221021F54804F0E7
:101F2000AEFC0121F34804F01DFC16B010BD0CB549
:101F3000002001900090F1480078022812D1EF486B
:101F400040780190ED48C078EC49897840EA01205A
:101F500000909DF80400EA490870BDF80000E949C6
:101F6000088004E00420E6490870E64908800CBDBA
:101F700000B585B00121082003F0A8FF01218803E6
:101F800003F0E8FF00208DF8100001208DF8130009
:101F90000C20039003A9DC4803F052FD022103202A
:101FA00005F0D4FD0420009000208DF804001020DE
:101FB0008DF8050001208DF80600684604F0D8FC75
:101FC00008208DF8080000208DF809008DF80A001F
:101FD00001208DF80B0002A803F059FC05B000BDEC
:101FE00070B504460D46012C0BD12946C74805F0B3
:101FF00092FC00BF4021C54805F03DFD0028F9D006
:1020000028E0032C0BD12946C14805F084FC00BF11
:102010004021BF4805F02FFD0028F9D01AE0042C1C
:102020000BD12946BB4805F076FC00BF4021B948DA
:1020300005F021FD0028F9D00CE0052C0AD1294635
:10204000B54805F068FC00BF4021B34805F013FD1A
:102050000028F9D070BD0020B0494862B04908603E
:10206000B0490860B049086070470020AB49486239
:10207000AB4908604FF080414862AC490860AC4908
:102080000860AC490860A7490860A7490860AA49E8
:102090000860AA490860704700204FF080414862FC
:1020A000A249086070470020A1490860A149086062
:1020B000704710B50020A2490870002407E0612194
:1020C0000120FFF78DFF3220FEF701FD641C022C7A
:1020D000F5D301209A4908707A209A49087010BDFA
:1020E00010B5002098490870002407E06121032002
:1020F000FFF776FF3220FEF7EAFC641C022CF5D3D2
:102100000120914908707A209049087010BD2DE98E
:10211000F14FAEB08EA02D9000202C908DF888004D
:102120008DF860002E98122831D2DFE800F00931D6
:102130003A41484F565F68717A7B8289909192E26A
:1021400002218C4803F0DEFC88B100224FF40041EC
:10215000894803F0F5FC4FF40041874803F0DFFCA9
:1021600004460022214685A0FEF790FA0FE00122E6
:10217000D103814803F0E4FC4FF400417E4803F0B2
:10218000CEFC04460022214684A0FEF77FFA21E21D
:1021900001228A48B0F90000414289A0FEF776FA90
:1021A00018E202228848016888A0FEF76FFA11E25F
:1021B00003228B4801688BA0FEF768FA0AE204222A
:1021C0008C4801688CA0FEF761FA03E205228E4874
:1021D00001688EA0FEF75AFAFCE1FEF798FB044670
:1021E000062221468DA0FEF751FAF3E1FEF7DEFB51
:1021F0000446072221468CA0FEF748FAEAE1FEF7E2
:102200002BFC0446082221468AA0FEF73FFAE1E1B2
:10221000FEF7F8FB04460922214689A0FEF736FAAC
:10222000D8E1D7E10B228948016889A0FEF72EFA90
:10223000D0E10C228948016889A0FEF727FAC9E19C
:102240000D228B4801688BA0FEF720FAC2E1C1E1A4
:10225000C0E101218A4803F055FC4FF4005117906A
:10226000454803F04FFC04460221854803F04AFC30
:1022700005464FF48041404803F044FC06460421E3
:102280007F4803F03FFC4FF4004116907C4803F078
:1022900039FC074608217A4803F034FC80464FF4A5
:1022A0008041774803F02EFC81461021744803F0EA
:1022B00029FC4FF400511590714803F023FC82462D
:1022C0000821114803F01EFC4FF4805114906C4813
:1022D00003F018FC102113900B4803F013FC4FF48B
:1022E00080611290664803F00DFC834680216448AB
:1022F000C8E0F2E0286402400014014078010020A8
:102300007C0100207E010020000C024000100140F2
:1023100000480040004C00400050004000000140D8
:102320006400002024080040800000206800002095
:10233000240400406C000020240C004070000020A9
:1023400089000020880000208B0000208A000020E7
:10235000313131313131313131313131313131316D
:10236000313131313131303131313131313131315E
:10237000000000000004024000080240524F424F9B
:102380005420322044414E47204348415920534174
:102390004E2058414E483A2020200000524F424FD4
:1023A0005420322044414E47204348415920534154
:1023B0004E20444F3A2020200000000084000020DE
:1023C000494D553A00000000A800002054726F20CB
:1023D0006368616E205472756F633A2000000000DC
:1023E000AC00002054726F206368616E20536175E9
:1023F0003A202000A000002054726F20786F61798D
:102400002074617920000000A400002054726F2025
:102410006E616E672074617920000000454E434F65
:102420004445525F464C2000454E434F4445525F61
:1024300046522000454E434F4445525F52522000C1
:10244000454E434F4445525F524C20009C000020B3
:102450004C617A6572207068616900009400002008
:102460004C617A6572207472756F63200000000001
:10247000980000204C617A657220747261692000B6
:102480000010024003F03EFB4FF480711190FE48B3
:1024900003F038FB10901798CDE90B65CDE90D409E
:1024A0001698CDE90798CDE90970DDE91421139854
:1024B000CDE9042A06910390DDE91110CDE9001B56
:1024C0000290F2A2282122A8109B07F04FFD1022B3
:1024D00022A9F7A0FEF72DF97CE08021F54803F052
:1024E0001EFB04460121F34803F019FB0546402179
:1024F000F04803F014FB06464FF40041EE4803F0A9
:102500000EFB07464FF48051EC4803F008FB804671
:102510004FF48061E74803F002FB81464FF400610D
:10252000E64803F0FCFA4FF400611790E14803F02D
:10253000F6FA82464FF48061DF4803F0F0FA8346F2
:102540004FF48051DB4803F0EAFA4FF40061169033
:10255000D94803F0E4FA4FF400511590D54803F040
:10256000DEFA4FF480411490D34803F0D8FA4FF4C8
:1025700080411390CF4803F0D2FA4FF4807112904B
:10258000CE4803F0CCFA4FF400411190C94803F053
:10259000C6FACDE90B76CDE90D5410901798CDE928
:1025A00007A0CDE9099814A807C803ABA3E807085A
:1025B000DDE911121398CDE900120290B3A228218F
:1025C00022A8109B07F0D2FC112222A9BCA0FEF782
:1025D000B0F800BF00BF2FB0BDE8F08F10B50121EB
:1025E000B94804F0BFF810BD01B5B84800680099BB
:1025F000884203DD0020B549086004E0B348006864
:10260000401CB2490860B1480068FFF780FD08BD72
:1026100001B59DF80000052801DA002008BD9DF8ED
:102620000000FBE730B504461D4624B9A8480078F1
:10263000A84BD87011E0002C07DDE0B2FFF7E8FFEF
:10264000A44BD8700020987007E06342D8B2FFF71F
:10265000DFFFA04BD8700120987021B99C4800780A
:102660009C4BD87111E0002907DDC8B2FFF7D0FFFD
:10267000984BD8710020987107E04B42D8B2FFF711
:10268000C7FF944BD8710120987122B99048007807
:10269000904BD87211E0002A07DDD0B2FFF7B8FFE7
:1026A0008C4BD8720120987207E05342D8B2FFF7E2
:1026B000AFFF884BD8720020987225B98448007803
:1026C000844BD87311E0002D07DDE8B2FFF7A0FFBF
:1026D000804BD8730020987307E06B42D8B2FFF7A5
:1026E00097FF7C4BD8730120987330BD794AD07026
:1026F000D071D072D07370477648C07803280DDA55
:102700007448C079032809DA7248C07A032805DAC8
:102710007048C07B032801DA012070470020FCE7E5
:1027200001206D49086070476C48006847F23051DD
:10273000884201D0012070470020FCE710B5FFF768
:10274000B8FC10BD6648B0F9000040427047B5EED5
:10275000C00AF1EE10FA09D26248D0ED000A70EE1C
:10276000600AFDEEE00A10EE900A70475D48D0ED79
:10277000000A70EE200AFDEEE00A10EE900AF4E77F
:1027800010B52DED0A8B044624B99FED570ABDEC18
:102790000A8B10BD002C25DA5448006807F0BBF9FD
:1027A00041EC190B204607F0B6F941EC1C0B9FEDEC
:1027B000500B53EC102B07F0CDF841EC1B0B9FEDA9
:1027C0004E0B53EC102B07F0BFF841EC1A0B53ECF7
:1027D000192B07F031F941EC180B07F0C0F900EEA6
:1027E000100AD4E74148006807F095F941EC190B4D
:1027F000204607F090F941EC1C0B9FED3D0B53EC8C
:10280000102B07F0A7F841EC1B0B9FED3B0B53EC93
:10281000102B06F0F8FF41EC1A0B53EC192B07F0C4
:102820000BF941EC180B07F09AF900EE100AAEE72D
:10283000F0EE400AF5EEC00AF1EE10FA02DBB0EE5F
:10284000600A7047B1EE600AFBE70146002901DB30
:10285000084670474842FCE701462948D0ED000A87
:10286000F1EE600A2748D0ED001A80EEA11A00EEC2
:10287000901AF8EEE01A2248D0ED000A41EE210A43
:10288000B0EE600A40E000000010024025642564BC
:1028900025642564256425642564256425642564F0
:1028A00025642564256425642564256400000000F2
:1028B000493A000000040240000C024000000240BF
:1028C0004F55543A00000000A06002407C000020F8
:1028D000C40100200400002028020020EC01002098
:1028E000840000208401002000000000D8010020A6
:1028F0009A9999999999B93F333333333333D33F05
:10290000BC010020C0010020FDEEC00A10EE900ABC
:102910007047B0EE402ADFEDFA2AB0EE620AB5EE5B
:10292000C02AF1EE10FA03D2F1EE422AB0EE622A8A
:10293000F5EEC00AF1EE10FA03D2F1EE602AF0EEE5
:10294000620AB5EEC01AF1EE10FA03D2F1EE412A96
:10295000B0EE621AF5EEC01AF1EE10FA03D2F1EE03
:10296000612AF0EE621AB4EEC02AF1EE10FA01DD2F
:10297000B0EE420AF4EEC00AF1EE10FA01DDB0EE5C
:10298000600AB4EEC01AF1EE10FA01DDB0EE410AB1
:10299000F4EEC01AF1EE10FA01DDB0EE610A7047F4
:1029A000D84800687047D8480068704710B52DEDCA
:1029B000028BB0EE408AD548006847F23051884219
:1029C0000ED11FED370AD24880ED000AD14880EDC4
:1029D000000AD14880ED000AD04880ED000A4AE0A4
:1029E000CF480068CF490968401AC8490968081AE1
:1029F00000EE100AB8EEC00AF0EE408ACA48D0EDE8
:102A0000000A88EEA00AC948D0ED000A30EE200A7C
:102A1000C748D0ED000A20EE200AF0EE408AB0EE62
:102A2000680A08F0CDF9F0EE000A20EE200AB84856
:102A300080ED000AB0EE680A07F0F0FAF0EE000A46
:102A400020EE200AB34880ED000AB14890ED000A5C
:102A5000B848D0ED000A30EE200AB04880ED000AF8
:102A6000AC4890ED000AB348D0ED000A30EE600AA1
:102A7000A94880ED000AB5EEC08AF1EE10FA73D0D5
:102A8000AD480068052820D2DFE800F003203A5462
:102A90006F00A24890ED000A30EE080A80ED000AAF
:102AA0009D4890ED000A30EE480A80ED000A9948F2
:102AB00090ED000A30EE080A80ED000A944890ED8F
:102AC000000A30EE480A80ED000A68E0924890ED76
:102AD000000A30EE480A80ED000A8E4890ED000AA8
:102AE00030EE080A80ED000A894890ED000A93480C
:102AF000D0ED000A08EE600A854880ED000A4EE03D
:102B0000864890ED000A30EE080A80ED000A814800
:102B100090ED000A8948D0ED000A08EE200A7D48B1
:102B200080ED000A7A4890ED000A30EE480A80ED08
:102B3000000A34E0794890ED000A30EE080A80ED92
:102B4000000A754890ED000A7C48D0ED000A08EEB6
:102B5000600A714880ED000A6D4890ED000A30EE81
:102B6000480A80ED000A1AE01AE06C4890ED000A6D
:102B70007248D0ED000A08EE200A684880ED000A8D
:102B8000654890ED000A30EE480A80ED000A614881
:102B900090ED000A30EE080A80ED000A00BF00BF89
:102BA0005B48D0ED001A5B4890ED001A5A48D0ED12
:102BB000000A5A4890ED000AFFF7ABFE6048D0EDDE
:102BC000000AF8EEE00A80EE801ABDEEC10A5D4808
:102BD00080ED000A4B4800685A490968884203DDC5
:102BE0005848006847490860012057490860BDEC13
:102BF000028B10BD10B504460020544908605448AB
:102C00000460FCB900203F4908601FEDC90A49482B
:102C100080ED000A47F230503C4908604D49086099
:102C20001FEDCF0A4C4880ED000A002042490860A1
:102C30004A49086034490860494908601FEDD60ACE
:102C4000FFF7B4FE10BD10B5434890ED000AB5EE95
:102C5000C00AF1EE10FA05D13748006810B93F48B4
:102C6000006890B11FEDE00A3B4880ED000A0020AB
:102C700031490860394908602948006829490860D5
:102C8000354890ED000AFFF791FE10BD3548C0EDC4
:102C9000000A354880ED000A704770B52DED028BB3
:102CA00005460C46B0EE408A18480068A8420BD191
:102CB00026480068A04207D11E4890ED000AB4EEF5
:102CC000480AF1EE10FA18D0204804600D48006858
:102CD00010B905200B4908601148006811490860C7
:102CE000144880ED008A0948056000201F490860EB
:102CF000194890ED000AFFF759FEBDEC028B70BD3C
:102D00006F12833AD801002004020020EC01002059
:102D100024020020200200201C02002018020020B3
:102D20000C020020F80100209C010020A8010020D6
:102D3000CC01002000020020D40100208C010020E2
:102D400080010020E0010020D0010020DC010020F3
:102D5000E4010020F0010020FC010020F40100202B
:102D600028020020BC010020C0010020E801002052
:102D700070B52DED028B0446B0EE408A0D46FE483C
:102D80000068A0420BD1FD4890ED000AB4EE480A5D
:102D9000F1EE10FA03D1FA480068A8423AD0F94897
:102DA000006847F23051884225D11E20F64908605C
:102DB000F648006810B90A20F449086047F230501C
:102DC000844218DA0120F2490860B5EEC08AF1EEBB
:102DD00010FA03DDEF480068A04208DCB5EEC08AB7
:102DE000F1EE10FA07D2EB480068A04203DAB1EE28
:102DF000480AB0EE408AE0480460E1480560DF48D8
:102E000080ED008A0020E4490860DC4890ED000A6B
:102E1000FFF7CCFDBDEC028B70BD10B52DED028B24
:102E2000B0EE408A04462146B0EE480A47F23050E0
:102E3000FFF79EFFBDEC028B10BD70B504460D463A
:102E40009FEDD60A29462046FFF727FF70BD70B5D3
:102E50002DED088BF0EE408A0446B0EE608AB0EEAD
:102E6000419ACF4890ED000AB8EEC00AB4EE680A65
:102E7000F1EE10FA0DD1C4480068A04209D1BE4855
:102E800090ED000AB8EEC00AB4EE480AF1EE10FA6E
:102E90005ED0BDEEE80AC24880ED000ABD4991ED62
:102EA000000AB8EEC00A38EEC00ABDEEC00A10EE45
:102EB000100A9FEDBA0A2146FFF7EFFEB54890EDE4
:102EC000000AB8EEC00A38EE400ABDEEC00A10EEA5
:102ED000105A002D01DB284600E06842642814DD0A
:102EE000AC4890ED000AB8EEC00AB4EEC08AF1EE2C
:102EF00010FA02DDB0EE490A01E0B1EE490A10EE27
:102F0000101A084606F018FE13E0A24890ED000AD9
:102F1000B8EEC00A38EE400A10EE101A084606F065
:102F20000BFE41EC1B0B9FED9F0B53EC102B06F09F
:102F300011FD41EC1A0B06F012FE09EE900A002179
:102F4000B0EE690AFDEEC80A10EE900AFFF710FF16
:102F5000BDEC088B70BD10B58D48006801283DDDC3
:102F6000854909688B4A1268881AFFF76EFC0628A3
:102F70000CDA874801680068401C854A1060B1F58A
:102F8000FA7F2BDD0020FFF735FE10BD804800687A
:102F9000FA2808DD05207C4908607C490860FB2090
:102FA0007B49086004E0052077490860774908609C
:102FB0007848006870490968884205DDBFEE000A5C
:102FC0006E4880ED000A04E0B7EE000A6B4880ED21
:102FD000000A6A4890ED000AFFF7E8FC00BFD4E75A
:102FE00010B52DED028B714890ED000AB5EEC00AC8
:102FF000F1EE10FA08D16548006828B15E48006813
:1030000047F23051884202DBBDEC028B10BD5B48B9
:1030100090ED000AB5EEC00AF1EE10FA7ED05948E4
:10302000006847F23051884279D1544890ED000A47
:10303000B5EEC00AF1EE10FA08DD4F4800685C49B1
:103040000968401A53490968884210DB4B4890EDE3
:10305000000AB5EEC00AF1EE10FA7CD246480068CC
:103060005349096808444B490968884273DD484858
:10307000006803285CDA40490968464A1268881AE1
:10308000FFF7E3FB0A2816DA3B4800684949086065
:1030900000203E4908603C4908609FED400A3748DF
:1030A00080ED000A02203A490860344890ED000A99
:1030B000FFF77CFCA8E73048006836490968884279
:1030C00037DD324890ED000AB8EEC00A2B48D0ED4B
:1030D000000A60EE200A364890ED000AB8EEC00AF9
:1030E000C0EE801AB0EE611AB0EE410AFFF7A0FB05
:1030F00021490968274A1268881AFFF7A6FB00EEE3
:10310000900AB8EEE01A2C48D0ED000A40EE010A11
:103110001E4890ED000AB8EEC00A01E0CBE068E07E
:1031200080EE801AB0EE418AB0EE480AFFF73EFC0E
:10313000C0E0164890ED000AB8EEC00A0F48D0ED86
:10314000000A60EE200A1A4890ED000AB8EEC00AA4
:10315000C0EE801A00E046E0B0EE611AB0EE410A1F
:10316000FFF766FB044909680A4A1268881AFFF7E4
:103170006CFB00EE900A21E0F4010020FC0100202D
:10318000D4010020EC010020DC010020D801002047
:10319000040200200C020020E801002000000000D2
:1031A000F00100207B14AE47E17A743F000200205A
:1031B000B80100200802002098010020B8EEE01AB3
:1031C000F848D0ED000A50EE410AF74890ED000AA9
:1031D000B8EEC00A80EE801AB0EE418AB0EE480A1E
:1031E000FFF7E4FB66E0F14890ED000AFFF7DEFB35
:1031F00060E0EE4890ED000AB5EEC00AF1EE10FA7C
:103200001FDDEB4890ED000AB8EEC00AE648D0EDAD
:10321000000AF8EEE00AE54890ED001A00EEC10A57
:10322000E448D0ED000AF8EEE00A70EE600AE248E9
:1032300090ED000AB8EEC00AF4EEC00AF1EE10FA02
:1032400027D3DA4890ED000AB5EEC00AF1EE10FA85
:103250002BD2D74890ED000AB8EEC00AD248D0ED84
:10326000000AF8EEE00AD14890ED001A00EEC10A1B
:10327000D048D0ED000AF8EEE00A70EE200ACE4801
:1032800090ED000AB8EEC00AF4EEC00AF1EE10FAB2
:103290000BDDC7490968C84A1268881AFFF770FA37
:1032A000B0EE408AFFF782FB04E0C04890ED000AD0
:1032B000FFF77CFBA8E6C1490968BF4A1268881A73
:1032C000FFF75EFAB0EE408AFFF770FB00BF9BE6A7
:1032D00000B5BB480068022815DA1FED500AB9484E
:1032E00080ED000A1FED530AB04880ED000A00206F
:1032F000B549086047F23050B4490860B4490860E5
:103300000020AB490860B3480068401CB149086020
:10331000B1490968884204DAB0480068FFF7E6F965
:103320000EE0AD480068AB490860AD48006820B1C8
:10333000AA480068FFF7DAF902E00020FFF7D6F9A3
:1033400000BDA44A1268521CA24B1A60824207DDDB
:10335000954A12680A44944B1A6000229D4B1A60E9
:1033600070472DE9F041FFF7EDF993490860FFF749
:10337000F2FD9C480068002821DD8B4800689949CF
:10338000096888422AD088480068964909688842B6
:103390000EDA854800689449096888421EDA824836
:1033A0000068FFF759FA04460121FFF7CAFF15E04C
:1033B0004FF0FF318D480068FFF7C3FF0EE07A48F9
:1033C0000068002806DD4FF0FF3189480068FFF7EC
:1033D000B8FF03E0FFF77CFFBDE8F0818548006897
:1033E00075490968884205D0FFF7FAFD7248006800
:1033F0008049086080480068F0B36B48D0ED000A4F
:10340000F8EEE00A7D4890ED001A60EE810AB0EE19
:10341000600AFFF79CF904466348D0ED000AF8EE15
:10342000E00A774890ED001A60EE810AB0EE600A7B
:10343000FFF78DF905465C48D0ED000AF8EEE00A8A
:10344000704890ED001A60EE810AB0EE600AFFF756
:103450007EF906465448D0ED000AF8EEE00A6A48C4
:1034600090ED001A60EE810AB0EE600AFFF76FF986
:10347000074623462A4600E002E03146FFF7D2F82D
:1034800000BFA9E76148407800F0400020B1FA2071
:103490005F4981F8330003E000205D4981F8330083
:1034A000704701B55948407800F0200040B1012034
:1034B000574981F822009DF8000081F8230011E0AF
:1034C0005248407800F0040040B10020504981F893
:1034D00022009DF8000081F8230003E002204C49FF
:1034E00081F8230008BD4B494B4A126841F822007D
:1034F00049490968491C142291FBF2F302FB13119C
:10350000454A11607047444800681330142290FB0C
:10351000F2F302FB13013F4850F82100704710B549
:103520002DED0C8B0446A4F16400002801DB01465C
:1035300000E0414200EE101AF8EEC08A18EE900A40
:1035400006F0FAFA41EC1D0B9FED340B53EC102BF7
:1035500006F000FA41EC1C0BB0EE4C0AF0EE6C0ADF
:1035600007F036FDB0EE40BAF0EE60BA9FED2D0BDD
:1035700053EC102B51EC1B0B06F0ECF941EC1A0B41
:103580009FED2A0B53EC102B06F03DF941EC190B83
:1035900006F0E5FA08EE100AB0EE480ABDEC0C8B16
:1035A00010BD000098010020D8010020FC0100207F
:1035B000F4010020B40100200C020020F8010020DA
:1035C0000402002000020020D4010020EC010020B1
:1035D000F0010020E8010020C8010020C401002003
:1035E00028020020DC010020E0010020140200205D
:1035F000E401002010020020D0010020240200205D
:10360000200200201C0200201802002000060020DA
:1036100004000020B0060020D40200209A99999955
:103620009999A93F9A9999999999E93F9A9999995C
:103630009999C93F70B52DED028B05462846FFF7D5
:1036400052FFF948C079E8B1FFF75DFF0446622CEC
:1036500004DB662C02DC0020FFF7F5FA2046FFF7BA
:103660005EFFB0EE408A632C05DA0020B1EE480A16
:10367000FFF7D3FB06E0652C04DD0020B0EE480A1E
:10368000FFF7CBFBBDEC028B70BD10B52DED0A8BA7
:10369000F0EE408A9FEDE50AB0EE40CA9FEDE30AE6
:1036A000B0EE408A9FEDE20AC8EE800A10EE904A22
:1036B000204606F041FA41EC1B0B9FEDDE1BB0EEFD
:1036C0004B0AF0EE6B0A06F053FDB0EE40AAF0EEA6
:1036D00060AA9FEDDA0B53EC102B51EC1A0B06F09D
:1036E00039F941EC190B06F03AFA08EE100A9FED91
:1036F000D50AB4EEC08AF1EE10FA04DD9FEDD10ACE
:10370000B0EE408A0AE09FEDD00AB4EEC08AF1EE36
:1037100010FA03D29FEDCC0AB0EE408A9FEDC40AA6
:1037200078EEC00A9FEDC21A80EE810ADFEDC60A6C
:1037300020EE200A10EE104A204606F0FDF941EC7A
:103740001B0B9FEDC20B53EC102B06F003F941EC61
:103750001A0B9FEDC00B53EC102B06F054F841EC04
:10376000190B06F0FCF908EE100A9FEDBC0AB4EE46
:10377000C08AF1EE10FA04DD9FEDB80AB0EE408A7F
:103780000AE09FEDB70AB4EEC08AF1EE10FA03D258
:103790009FEDB30AB0EE408ABDEEC80AB14880ED95
:1037A000000ABDEEC80AB04880ED000ABDEC0A8BE5
:1037B00010BD10B52DED088BF0EE408A9FED9B0AF1
:1037C000F0EE409A9FED990AB0EE408A28EEA80AE2
:1037D00010EE101A084606F0AFF941EC1B0BB0EEE4
:1037E0004B0AF0EE6B0A07F0B3FBB0EE40AAF0EE26
:1037F00060AA51EC1A0B06F0B2F909EE100A9FED1F
:103800009B0AC9EE000A9FED9A0A20EE800AB0EEEC
:10381000408A9FED8C0AB4EEC08AF1EE10FA04DD06
:103820009FED880AB0EE408A0AE09FED870AB4EE69
:10383000C08AF1EE10FA03D29FED830AB0EE408AFF
:10384000BDEEC80A8B4880ED000A00688A4908600E
:10385000884890ED000AB8EEC00A8848D0ED000A0A
:1038600020EE200AF2EE040A80EE201ABDEEC10A14
:10387000084680ED000ABDEC088B10BD8048016849
:103880000068401C7E4A1060642907D27D48008988
:103890007D49096808447C4908600BE07A48006863
:1038A0006421B0FBF1F07949086000207449086098
:1038B00075490860764801680068401C744A1060C9
:1038C000642907D26F4840897249096808447149E0
:1038D00008600BE06F4800686421B0FBF1F06E49AE
:1038E000086000206A4908606A4908606B480168FE
:1038F0000068401C694A1060642907D261488089C9
:10390000674909680844664908600CE06448006833
:103910003221B0FBF1F0401F6249086000205F498E
:1039200008605F490860604801680068401C5E4AA2
:103930001060782907D25348C0895C490968084457
:103940005A4908600BE0594800687821B0FBF1F053
:103950005749086000205449086054490860554898
:1039600001680068401C534A1060322907D245485C
:1039700040885149096808444F4908600BE04E48A7
:1039800000683221B0FBF1F04C4908600020494941
:103990000860494908604A4801680068401C484A74
:1039A0001060322907D23748008846490968084420
:1039B000444908600BE0434800683221B0FBF1F055
:1039C0004149086000203E4908603E4908603F4880
:1039D00001680068401C3D4A1060322907D229481E
:1039E00080883B4909680844394908600BE0384839
:1039F00000683221B0FBF1F03649086000203349FD
:103A0000086033490860344801680068401C324A45
:103A10001060322964D21B48C088304909680844C4
:103A20002E49086068E05BE000060020000000000E
:103A300000A07F459A9999999999F13F000000005B
:103A400000805A4000007A4300004842666666667D
:103A50006666E63F0000000000C082400000164499
:103A600000800944D8020020DC02002000401C45F0
:103A70000000B442C8020020CC020020D002002086
:103A800010030020B4050020140300209000002043
:103A9000180300201C0300209400002020030020B5
:103AA000240300209C000020280300202C03002079
:103AB00098000020380300203C030020AC000020C8
:103AC0004003002044030020A800002048030020F9
:103AD0004C030020A00000205003002054030020CD
:103AE000F74800683221B0FBF1F0F6490860002089
:103AF000F5490860F24908607047F4480068F449E5
:103B00000968884203DAF2480068F0490860EF4823
:103B10000068F0490968884203DDEE480068EB4917
:103B20000860ED490968E94A1268881A002801DB33
:103B3000014600E04142052930DDE7480068E349DD
:103B40000968884203DD0120E449887502E000200D
:103B5000E2498875E0490968DC4A1268881A002839
:103B600001DB014600E0414201EB4101DC4A11600A
:103B700010460068DB490968884203DDD9480068BF
:103B800011460860D64800681E2802DA1E20D44973
:103B90000860D3480078D149C87502E00020CF49B9
:103BA000C8757047D0480068D0490968884203DA70
:103BB000CE480068CC490860CB480068CC49096809
:103BC000884203DDCA480068C7490860C9490968D6
:103BD000C54A1268881A002801DB014600E041420C
:103BE000052930DDC3480068BF490968884203DD04
:103BF0000120BA49887402E00020B8498874BD49A0
:103C00000968B94A1268881A002801DB014600E0F9
:103C1000414201EB4101B24A116010460068B649C9
:103C20000968884203DDB448006811460860AC4862
:103C30000068322802DA3220A9490860A8480078D2
:103C4000A649C87402E00020A449C8747047AB4874
:103C50000068AB490968884203DAA9480068A749A7
:103C60000860A6480068A7490968884203DDA5489E
:103C70000068A2490860A4490968A04A1268881A25
:103C8000002801DB014600E04142032930DD9E4867
:103C900000689A490968884204DD01208F4981F84B
:103CA000260003E000208D4981F826009649096826
:103CB000924A1268881A002801DB014600E041425E
:103CC00001EB4101864A116010460068FA2802DDC6
:103CD000FA201146086082480068C82802DAC82025
:103CE0007F4908607E4800787C4981F8270003E01E
:103CF00000207A4981F82700704784480068844989
:103D00000968884203DA82480068804908607F4871
:103D1000006880490968884203DD7E4800687B4965
:103D2000086068490968794A1268881A002801DB26
:103D3000014600E04142032930DD624800687349D2
:103D40000968884204DD0020644981F82A0003E004
:103D50000120624981F82A005A4909686B4A1268B1
:103D6000881A002801DB014600E0414201EB4101D5
:103D70005B4A116010460068FA2802DDFA201146FD
:103D8000086057480068322802DA32205449086037
:103D900053480078514981F82B0003E000204F4937
:103DA00081F82B00704710B5BE2053490860FA20F7
:103DB0004C4908604FF4EB70444908604A49086078
:103DC000002410E006E0012005F09CF8FCF796FDC9
:103DD00000B106E04FF400414F4801F093FE002887
:103DE000F1D000BF641C40F226208442EADB14219B
:103DF0000020FFF722F8002410E006E0012005F083
:103E000081F8FCF77BFD00B106E04FF40041424829
:103E100001F078FE0128F1D000BF641C40F226209A
:103E20008442EADB0020FEF7E5FEEB20274908602C
:103E300000240EE006E0052005F064F8FCF75EFDC6
:103E400000B104E024480068B0F5967FF3DC00BFC1
:103E5000641C322CEEDB14210020FEF7EEFF002460
:103E60000FE006E0012005F04DF8FCF747FD00B13A
:103E700005E00421284801F045FE0128F2D000BFEA
:103E8000641C40F226208442EBDBF5200F490860D9
:103E9000FEF7EBF806E0052005F034F8FCF72EFD00
:103EA00000B104E0FCF7D8FDB0F5AF7FF3DB00BF55
:103EB0000020FEF79FFEE6200B49086000243CE04E
:103EC00054030020A400002050030020980200208A
:103ED0009002002094020020A8000020040000208E
:103EE000E8020020C4020020A40200209C0200205E
:103EF000A0020020AC000020C0020020B002002080
:103F0000A8020020AC020020A0000020BC0200207B
:103F1000B4020020B80200200010024006E0052094
:103F200004F0F0FFFCF7EAFC00B104E0F748006899
:103F3000B0F5967FF3DC00BF641CFA2CEEDB0C219D
:103F40000020FEF77AFFFEF790F806E0052004F067
:103F5000D9FFFCF7D3FC00B105E0FCF7D8FC40F238
:103F600052318842F2DB00BF0020FEF743FEF5200D
:103F7000E749086014210020FEF75FFF00240FE0EE
:103F800006E0012004F0BEFFFCF7B8FC00B105E03C
:103F90000121E04801F0B6FD0128F2D000BF641C09
:103FA000962CEDDB4FF48C70DB490860D849086033
:103FB0000020FEF71FFE10BD10B5AA20D7490860EB
:103FC000FA20D749086040F2B220D3490860D049AE
:103FD000086000240FE006E0052004F093FFFCF7E2
:103FE0008DFC00B105E0CF48006840F2AD21884269
:103FF000F2DC00BF641CFA2CEDDB0A210020FEF786
:104000001CFF002410E006E0012004F07BFFFCF719
:1040100075FC00B106E04FF40041BE4801F072FDAE
:104020000128F1D000BF641C40F226208442EADB64
:104030000020FEF7DFFDEB20B749086000240EE00A
:1040400006E0052004F05EFFFCF758FC00B104E038
:10405000B4480068B0F5967FF3DC00BF641C322CD6
:10406000EEDB14210020FEF7E8FE00240FE006E05E
:10407000012004F047FFFCF741FC00B105E00421FA
:10408000A44801F03FFD0128F2D000BF641C40F2BB
:1040900026208442EBDBF5209F490860FDF7E5FF11
:1040A00006E0052004F02EFFFCF728FC00B104E038
:1040B000FCF7D2FCB0F5AF7FF3DB00BF0020FEF7CA
:1040C00099FDE6209249086000240EE006E00520F4
:1040D00004F018FFFCF712FC00B104E08B48006804
:1040E000B0F5967FF3DC00BF641CFA2CEEDB1421E4
:1040F0000020FEF7A2FEFDF7B8FF06E0052004F061
:1041000001FFFCF7FBFB00B104E0FCF700FCB0F59D
:10411000167FF3DB00BF0020FEF76CFDF5207C4925
:10412000086014210020FEF788FE00240FE006E05E
:10413000012004F0E7FEFCF7E1FB00B105E00121FE
:10414000744801F0DFFC0128F2D000BF641C962CFB
:10415000EDDB4FF4EB70704908606D49086000209A
:10416000FEF748FD10BD10B5B4206C490860FA2078
:104170006B490860EB2068490860654908600024C5
:1041800010E006E0052004F0BDFEFCF7B7FB00B12F
:1041900006E04FF400415F4801F0B4FC0128F1D083
:1041A00000BF641CFA2CECDB14210020FEF745FE56
:1041B000002410E006E0012004F0A4FEFCF79EFBC2
:1041C00000B106E04FF40041524801F09BFC00288A
:1041D000F1D000BF641CFA2CECDBFDF746FF06E0D3
:1041E000052004F08FFEFCF789FB00B105E0FCF729
:1041F00033FC40F22B218842F2DB00BF0020FEF7A7
:10420000F9FC4FF4EB704449086000240EE006E02E
:10421000052004F077FEFCF771FB00B104E0414893
:104220000068B0F5E67FF3DB00BF641CFA2CEEDB20
:1042300014210020FEF701FE00240FE006E001201B
:1042400004F060FEFCF75AFB00B105E004213148A0
:1042500001F058FC0028F2D000BF641C40F2262078
:104260008442EBDBFDF701FF06E0052004F04AFE87
:10427000FCF744FB00B104E0FCF798FBB0F57A7F53
:10428000F3DB00BF0020FEF7B5FC40F2D11020495F
:10429000086000240EE006E0052004F033FEFCF781
:1042A0002DFB00B104E019480068B0F5E37FF3DDB1
:1042B00000BF641CFA2CEEDB14210020FEF7BDFDCC
:1042C00000240FE006E0012004F01CFEFCF716FBC2
:1042D00000B105E001210F4801F014FC0028F2D0E4
:1042E00000BF641C962CEDDB0020FEF783FC10BDA4
:1042F00010B5BE2009490860FA2009490860F0207D
:10430000054908600249086000241EE0AC00002056
:10431000A40200200010024098020020C0020020E9
:10432000C4020020A800002006E0052004F0EAFDF9
:10433000FCF7E4FA00B106E04FF40041F74801F061
:10434000E1FB0128F1D000BF641CFA2CECDB142146
:104350000020FEF772FD002410E006E0012004F0CA
:10436000D1FDFCF7CBFA00B106E04FF40041EB4879
:1043700001F0C8FB0028F1D000BF641CFA2CECDB74
:10438000FDF773FE06E0052004F0BCFDFCF7B6FA6D
:1043900000B105E0FCF760FB40F226218842F2DB29
:1043A00000BF0020FEF726FC40F2B220DC49086086
:1043B00000240EE006E0052004F0A4FDFCF79EFAC0
:1043C00000B104E0D7480068B0F52A7FF3DB00BFF6
:1043D000641CFA2CEEDB9FEDD41ADFEDD30A0A2021
:1043E0009FEDD10AFEF733FD0A210020FEF725FDDF
:1043F00000240FE006E0012004F084FDFCF77EFAC3
:1044000000B105E00421C54801F07CFB0028F2D092
:1044100000BF641C40F226208442EBDBFDF725FE42
:1044200006E0052004F06EFDFCF768FA00B105E037
:10443000FCF7BCFA40F24C418842F2DB00BF00209E
:10444000FEF7D8FB40F2B220B849086000240EE025
:1044500006E0052004F056FDFCF750FA00B104E038
:10446000B3480068B0F52B7FF3DD00BF641CFA2C65
:10447000EEDB9FEDAD1ADFEDAC0A0A209FEDAA0A34
:10448000FEF7E5FC00240FE006E0012004F03AFD11
:10449000FCF734FA00B105E00121A04801F032FB3D
:1044A0000028F2D000BF641C962CEDDB0020FEF744
:1044B000A1FB10BD10B5FA209E490860AA209E49B4
:1044C000086040F2762096490860984908604FF4E9
:1044D000FA709A49086002E0032004F013FD98493D
:1044E0000968964A1268881A002801DB014600E034
:1044F00041420529F0DC4FF4CD7092490860FA2062
:10450000914981F82F0002E0032004F0FBFC8F4961
:1045100009688C4A1268881A002801DB014600E00D
:1045200041420529F0DC40F24E207D490860401DE3
:104530007E4908604FF4FA5004F0E4FC4FF44870F0
:104540008049086002E0032004F0DCFC7F49096830
:104550007C4A1268881A002801DB014600E04142CB
:104560000529F0DC0122D103794801F0E9FA40F293
:104570001B307249086002E0032004F0C3FC70495C
:1045800009686E4A1268881A002801DB014600E0BB
:1045900041420529F0DC00224FF400416C4801F053
:1045A000CFFA43F6982004F0ADFC4FF4487065490B
:1045B000086002E0032004F0A5FC64490968614A30
:1045C0001268881A002801DB014600E041420529F3
:1045D000F0DC10BD2DE9F05F82460D4614461E4604
:1045E000DDE90B9BDDF828805A490968881B002803
:1045F00001DB014600E0414201FB0BF74F4500DDC6
:104600004F4654480068801B404510DAE81B00EE16
:10461000900AF8EEE00AB0EE600A9FED4F1A00EE45
:10462000904AF8EEE00A5046FEF711FC22E04948B5
:104630000068801B404510DDE81900EE900AF8EE96
:10464000E00AB0EE600A9FED441A00EE904AF8EEE0
:10465000E00A5046FEF7FBFB0CE09FED401A00EE2F
:10466000104AF8EEC00A504600EE105AB8EEC00AE2
:10467000FEF7EDFBBDE8F09F2DE9F05F82460D46A9
:1046800014461E46DDE90B9BDDF828803449096895
:10469000881B002801DB014600E0414201FB0BF7CB
:1046A0004F4500DD4F462E480068801B404510DA1C
:1046B000E81B00EE900AF8EEE00AB0EE600A9FED0B
:1046C000261A00EE904AF8EEE00A5046FEF7BFFBCD
:1046D00022E023480068801B404510DDE81900EE09
:1046E000900AF8EEE00AB0EE600A9FED1B1A00EEA9
:1046F000904AF8EEE00A5046FEF7A9FB0CE09FED69
:10470000171A00EE104AF8EEC00A504600EE105A92
:10471000B8EEC00AFEF79BFBBDE8F09F0010024018
:1047200098020020A800002000000000A402002041
:10473000AC000020C0020020C4020020B002002013
:10474000A0000020BC02002004000020A4000020E3
:10475000000C02409C0000203333333FB81E453F1D
:10476000940000203EB56420FC490860A020FC496C
:1047700008604FF48770FB4908604FF48C70FA4969
:1047800008601E210020FEF758FB00240DE006E023
:10479000052004F0B7FBFCF7B1F800B103E0F348E3
:1047A00000682828F4DC00BF641C40F22620844204
:1047B000EDDB1E210020FEF740FB00240DE006E0AB
:1047C000052004F09FFBFCF799F800B103E0E748EF
:1047D00000684628F4DB00BF641C40F226208442B7
:1047E000EDDB1E210020FEF728FB00240DE006E093
:1047F000052004F087FBFCF781F800B103E0DB48FB
:1048000000683228F4DC00BF641C40F22620844299
:10481000EDDB0020FEF7EEF9002419E012E01E2087
:10482000C82102222023CDE9002102900022D04994
:104830003C20FFF721FF052004F064FBFCF75EF845
:1048400000B103E0CB4800686428E8DC00BF641CCA
:1048500040F226208442E1DB002419E012E01E2011
:10486000C82102222023CDE9002102900022C04964
:104870001420FFF701FF052004F044FBFCF73EF88D
:1048800000B103E0BB4800680F28E8DC00BF641CEF
:1048900040F226208442E1DB0020FEF7ABF93EBD6A
:1048A0003EB56420AD490860A020AD4908604FF4D2
:1048B0008770AC4908604FF48C70AB4908601E21CA
:1048C0000020FEF7BAFA00240DE006E0052004F00F
:1048D00019FBFCF713F800B103E0A448006828288E
:1048E000F4DC00BF641C40F226208442EDDB1E2174
:1048F0000020FEF7A2FA00240DE006E0052004F0F7
:1049000001FBFBF7FBFF00B103E098480068462875
:10491000F4DB00BF641C40F226208442EDDB1E2144
:104920000020FEF78AFA00240DE006E0052004F0DE
:10493000E9FAFBF7E3FF00B103E08C480068322896
:10494000F4DC00BF641C40F226208442EDDB002032
:10495000FEF750F9002419E012E01E20C8210222BF
:104960002023CDE900210290002281493C20FFF75D
:1049700083FE052004F0C6FAFBF7C0FF00B103E098
:104980007C4800686428E8DC00BF641C40F22620F4
:104990008442E1DB002419E012E01E20C82102223B
:1049A0002023CDE900210290002271491420FFF755
:1049B00063FE052004F0A6FAFBF7A0FF00B103E0B8
:1049C0006C4800680F28E8DC00BF641C40F2262019
:1049D0008442E1DB0020FEF70DF93EBD73B52DEDFD
:1049E000028B282505261FEDB00AB0EE408A6248EA
:1049F0000079322805DB60480079C82801DC0120F5
:104A000000E0002004465C48407800F0010030B12E
:104A10009DF80C501FEDB00AB0EE408A05E09DF8FD
:104A20000850B6EE000AB0EE408A5348007800F015
:104A3000080098B15048007800F0100070B94E4856
:104A4000007800F0200048B94B48007800F04000A2
:104A500020B929460020FEF7F0F9C3E04648007867
:104A600000F00800A0B94448007800F0100078B1C8
:104A70004148007800F0200050B93F48007800F02D
:104A8000400028B929464FF4E160FEF7D6F9A9E0C5
:104A90003948007800F00800A0B93748007800F0E5
:104AA000100078B93448007800F0200050B1324846
:104AB000007800F0400028B929464FF46170FEF7F5
:104AC000BCF98FE02C48007800F0080098B92A481B
:104AD000007800F0100070B92748007800F020003E
:104AE00048B92548007800F0400020B12946204808
:104AF000FEF7A3F976E02048007800F00800A0B1A6
:104B00001D48007800F0100078B91B48007800F0CC
:104B1000200050B11848007800F0400028B929461C
:104B20004FF4E170FEF789F95CE01348007800F07B
:104B3000080028B31048007800F0100000BB0E48B1
:104B4000007800F02000D8B90B48007800F0400051
:104B5000B0B129460948FEF770F943E0C0020020D1
:104B6000C402002098020020A4020020940000202B
:104B70007CFCFFFF98000020000600203EFEFFFFA7
:104B8000FE48007800F00800A0B9FC48007800F06A
:104B9000100078B1F948007800F0200050B1F748D3
:104BA000007800F0400028B9294640F24650FEF750
:104BB00044F917E0F148007800F0080090B9EF4898
:104BC000007800F0100068B1EC48007800F0200098
:104BD00040B9EA48007800F0400018B12946E8489A
:104BE000FEF72BF9E548007800F00800F8B9E34833
:104BF000007800F01000D0B9E048007800F0200004
:104C0000A8B9DE48007800F0400080B97CB1FDF71B
:104C10008BFD60B1D948407800F0400038B9D748E2
:104C2000407800F0200010B90520FDF7E3FF14B133
:104C3000FEF709F827E0D148007932280EDAFDF7AF
:104C400073FD28B10020B1EE480AFEF7E6F81AE03D
:104C50000020B1EE480AFEF7E0F814E0C7480079FA
:104C6000C8280EDDFDF760FD28B10020B0EE480A2F
:104C7000FEF7D3F807E00020B0EE480AFEF7CDF8C3
:104C800001E0FDF7E0FFBDEC028B7CBD0EB54FF4FB
:104C9000E670BC490860BC49086017E0BB48006882
:104CA0002D2807DA40F26A20B649086040F27A20DF
:104CB000B549086014204FF4AF7102221223CDE9E8
:104CC0000021029000221146FFF784FCAF480068E3
:104CD0001928E3DC19E001221146AD4800F030FF4D
:104CE00040F26A20A749086040F27A20A64908608D
:104CF00014204FF4AF7102221223CDE9002102905B
:104D0000002211460F20FFF765FCA0480068082824
:104D1000E1DC03210020FEF790F84FF4966004F0E8
:104D2000F1F800224FF40061994800F009FF4FF4B8
:104D30007A6004F0E7F81420FDF75CFF00220121FF
:104D4000934800F0FDFE40F28A208E4908608E49AB
:104D500008600EBD0EB54FF4E6708A4908608A49B6
:104D6000086018E0894800682D2807DA40F26A20B8
:104D7000844908604FF42070834908601E2040F287
:104D8000712101222823CDE9002102900022114641
:104D90000F20FFF71FFC7D4800681928E2DC19E0AE
:104DA000012211467A4800F0CBFE40F26A20754994
:104DB00008604FF42170744908601E204FF4AF71F1
:104DC00001222823CDE900210290002211460A2069
:104DD000FFF700FC6D4800680B28E1DC9FED6D1AC1
:104DE000DFED6C0A0A209FED6B0AFEF730F840F603
:104DF000C41004F087F80A20FDF7FCFE00224FF4EF
:104E00000061634800F09CFE4FF47A6004F07AF889
:104E1000002201215E4800F093FE40F28A205949A9
:104E20000860594908600EBD0EB518E05748006883
:104E3000372807DA40F26A20524908604FF42070A0
:104E4000514908605A2040F2113102223D23CDE938
:104E500000210290002211461920FFF7BBFB4B48AE
:104E600000681928E2DC19E001221146484800F0E8
:104E700067FE40F26A20434908604FF421704249BE
:104E800008605A2040F2113102223D23CDE9002171
:104E90000290002211460F20FFF79CFB3B48006860
:104EA0000828E1DC03210020FDF7C7FF40F2DC50B9
:104EB00004F028F800224FF40061354800F040FE6D
:104EC00040F6B83004F01EF80A20FDF793FE0022E9
:104ED00001212F4800F034FE40F28A202949086061
:104EE000294908600EBD0EB518E0284800682D2835
:104EF00007DA40F26A202349086040F27A2022490A
:104F00000860502040F26B3102225123CDE900218C
:104F10000290002211461920FFF75CFB1B48006835
:104F20001928E2DC19E001221146194800F008FEB8
:104F300040F26A201349086040F27A201249086062
:104F4000502040F26B3102225123CDE90021029022
:104F5000002211460F20FFF73DFB0C48006808288F
:104F6000E1DC03210020FDF768FF40F2DC5003F094
:104F7000C9FF00224FF4006105480DE00006002043
:104F8000BAFAFFFF98020020A4020020940000203B
:104F9000000402400000000000F0D2FD4FF47A60EF
:104FA00003F0B0FF0A20FDF725FE00220121FA4898
:104FB00000F0C6FD40F28A20F8490860F849086010
:104FC0000EBD0EB511E032204FF42F7102224FF4C6
:104FD000CD73CDE900210290002211463C20FFF75D
:104FE000F9FAFBF78BFC00B903E0EE4800688C2867
:104FF000E9DC00BF1BE0EB480068912805DA40F2CD
:10500000AD20E6490860E649086028204FF4AF71FA
:1050100002224FF4D273CDE9002102900022114602
:105020001E20FFF7D7FAFBF769FC00B903E0DD4863
:1050300000680C28DFDC00BFFEF7BEFF052003F090
:1050400061FFFFF790F8FDF710F81FED2E1A5FEDE6
:105050002F0A1E201FED310AFDF7F9FE0020D2496C
:1050600008601EE011E0052003F04CFFFBF79EFCFA
:10507000B0F5617F05DD4FF4E670C8490860C849A6
:105080000860FBF73BFC00B905E0FBF78FFC40F242
:105090004C418842E7DB00BFC3480068401CC2495E
:1050A0000860C1480068FA28DCDBFEF77CFE0520BA
:1050B00003F028FFFFF757F8FCF7D7FF1FED4B1A57
:1050C0005FED4C0A1E201FED4D0AFDF7C0FE0020CB
:1050D000B54908601DE010E0052003F013FFFBF761
:1050E00065FCB0F5617F04DDEB20AC490860AC499C
:1050F0000860FBF703FC00B905E0FBF757FC40F242
:105100004C418842E8DB00BFA7480068401CA64924
:105110000860A5480068FA28DDDBFFF724F8FCF7F3
:10512000A4FF1FED641A5FED650A1E201FED670ADC
:10513000FDF78DFE00209C4908601DE010E0052071
:1051400003F0E0FEFBF732FCB0F5617F04DDEB20FD
:105150009249086092490860FBF7D0FB00B905E06E
:10516000FBF724FC40F24C418842E8DB00BF8E484C
:105170000068401C8C4908608B480068FA28DDDB19
:105180000020FDF737FD0EBD10B5FEF70CFE052023
:1051900003F0B8FEFEF707FE0020FDF72BFD10BD63
:1051A0000EB50FE02820FA2102228723CDE9002145
:1051B0000290002211463C20FFF70CFAFBF79EFB01
:1051C00000B903E0774800688C28EBDC00BF19E0E9
:1051D00074480068962805DA40F2AD206F490860EF
:1051E0006F4908601E20FA2102228F23CDE9002199
:1051F0000290002211462320FFF7ECF9FBF77EFB1B
:1052000000B903E0674800680C28E1DC00BFFEF746
:10521000D3FE052003F076FEFEF7C5FD052003F062
:1052200071FEFCF722FF1FEDA51A5FEDA60A1E20F6
:105230001FEDA80AFDF70BFE00205B4908601DE08A
:1052400010E0052003F05EFEFBF7B0FBB0F57A7FBF
:1052500004DDEB205149086051490860FBF74EFB23
:1052600000B905E0FBF7A2FB40F6FC018842E8DB51
:1052700000BF4D480068401C4B4908604A48006820
:10528000FA28DDDBFEF76FFFFCF7EFFE1FEDBF1A1C
:105290005FEDC00A1E201FEDC10AFDF7D8FD0020FA
:1052A000414908601DE010E0052003F02BFEFBF7EC
:1052B0007DFBB0F5617F04DDEB203849086038499B
:1052C0000860FBF71BFB00B905E0FBF76FFB40F242
:1052D0004C418842E8DB00BF33480068401C32493B
:1052E000086031480068FA28DDDBFEF73CFFFCF778
:1052F000BCFE1FEDD81A5FEDD90A1E201FEDDB0A98
:10530000FDF7A5FD0020284908601DE010E00520FC
:1053100003F0F8FDFBF74AFBB0F5617F04DDEB20FD
:105320001E4908601E490860FBF7E8FA00B905E06D
:10533000FBF73CFB40F24C418842E8DB00BF1A48D7
:105340000068401C1849086017480068FA28DDDB2F
:10535000FEF709FFFCF789FE1FEDF21A5FEDF30A75
:105360001E201FEDF40AFDF772FD00200E490860B3
:1053700028E01BE0052003F0C5FDFBF717FBB0F5A7
:10538000617F04DDEB200549086005490860FBF7F3
:10539000B5FA58B910E0000000040240980200205D
:1053A000A40200209400002058020020FBF7FEFA1F
:1053B00040F24C418842DDDB00BF82480068401C5F
:1053C000804908607F480068FA28D2DB0020FDF79A
:1053D00011FC0EBD10B5044600BF80217A4802F0D2
:1053E0004AFB0028F9D02146774802F094FA10BD14
:1053F00038B505462A4675A1684604F0CFFD6C46CF
:1054000003E02078FFF7E6FF641C20780028F8D13D
:1054100038BD09E01120FDF7E7F801216D4802F0E1
:105420004FFA0F2003F06EFDF4E70CE0FEF726FACA
:10543000FEF763FBFEF7B6FBFEF709FCFEF75DFC2B
:10544000032003F05FFDF1E702E0032003F05AFDC3
:10545000FBE704E0FDF785FF032003F053FDF9E7C8
:105460001FB5FBF745FBFBF782FBFBF7D2FDFBF714
:1054700092FEFBF798FFFBF71DFFFCF70CF8FBF71C
:10548000E1FB4FF4E130FCF7DFF84FF4E130FCF7DB
:1054900064F94FF4E130FCF7EDF94FF4E130FCF73B
:1054A0007BFA4FF46120FCF7AEFBFDF747F90020D3
:1054B00049490860FCF7D9FD1420484908603C20A0
:1054C000474908604FF4E170464908604649086062
:1054D0004FF4FA70454908604FF461704449086020
:1054E000002000900190029003464FF4807241A189
:1054F0000390454803F0C7FA002000900190029005
:1055000003464FF4807241A10390454803F0BBFA73
:10551000002000900190029003464FF4807241A158
:105520000390454803F0AFFA2DE024E0282107203E
:10553000FFF754FA4148407800F0200008B1FEF728
:1055400032FC3E48407800F0100008B1FEF734FD10
:105550003A48407800F0080008B1FEF704FE3748EA
:10556000407800F0040008B1FEF7C2FE3348C0796D
:1055700008B1FFF7F7F83148007800F00100002883
:10558000D4D1FDF737FBD0E71FB500200090019084
:10559000029003464FF4807229A103902B4803F038
:1055A00072FA002000900190029003464FF480723E
:1055B00027A10390294803F066FA03F07DFE00203E
:1055C00004B010BD580200200010014025303258B0
:1055D0002000000000480040C4000020C00200205D
:1055E000C402002098020020A4020020B002002083
:1055F000BC0200207461736B526F626F74416E6104
:105600006C79746963730000535400087461736BA0
:10561000446965754B6869656E436F436175000049
:10562000495400087461736B446965754B6869651A
:105630006E436F43617531002B5400080006002053
:105640007461736B4D61696E000000006154000865
:105650007461736B4779726F000000001354000887
:105660000CB50020019000907248006840F4803032
:105670007049086000BF6F48006800F40030009077
:105680000198401C0190009818B90198B0F5A06FDE
:10569000F1D16848006800F4003010B1012000909A
:1056A00001E0002000900098012846D16148403078
:1056B000006840F080505F49403108605E480068F3
:1056C00040F480405C4908605A48083000685949F5
:1056D000083108600846006840F400400860084649
:1056E000006840F4A05008605448091F0860081F73
:1056F000006840F08070091F086000BF4D480068D6
:1057000000F000700028F9D040F205604C490860B4
:1057100048480830006820F0030046490831086016
:105720000846006840F00200086000BF41480830A9
:10573000006800F00C000828F8D10CBD10B53D48F9
:10574000006840F001003B490860002039490831F9
:105750000860384800683B490840364908603A48C4
:10576000091D0860081F006820F48020091F0860D8
:10577000002030490C310860FFF772FF4FF00060E5
:105780003249086010BD70B50020002202230024B9
:105790000221284D08352D6805F00C0020B10428A1
:1057A00006D0082834D107E0294D2A4E356033E071
:1057B000294D284E35602FE01E4D2D1D2D68C5F357
:1057C00080541C4D2D1D2D6805F03F0154B1224D14
:1057D000B5FBF1F5174E361D3668C6F3881605FB86
:1057E00006F209E01A4DB5FBF1F5124E361D36688A
:1057F000C6F3881605FB06F20E4D2D1D2D68C5F368
:1058000001456D1C6B00B2FBF3F5124E356003E0F1
:105810000F4D104E356000BF00BF064D08352D6896
:10582000C5F303150D4E705D0A4D2D68C540094E38
:10583000356070BD003802400070004008544007D9
:10584000003C0240FFFFF6FE1030002408ED00E0AF
:105850000024F4005803002000127A005C030020AA
:105860000648804706480047FEE7FEE7FEE7FEE7FA
:10587000FEE7FEE7FEE7FEE7FEE7FEE73D5700082E
:105880008901000832490143324A1160704770B5FE
:10589000002100230F22C4781CB32E4C246804F48A
:1058A000E064C4F5E064C4F30721C1F10404E3B289
:1058B0000A4144789C40E1B28478144021430C07AB
:1058C000210E254C05786155047804F01F0501244C
:1058D000AC4005786D11AD0005F1E025C5F800413B
:1058E00009E0047804F01F050124AC401B4D067844
:1058F000761145F8264070BD194A0A400243154BFF
:105900001B1F1A60704739B1124A121D12680243F8
:10591000104B1B1D1A6006E00E4A121D12688243CE
:105920000C4B1B1D1A607047042808D14FF0E02172
:10593000096941F004014FF0E022116107E04FF0E6
:10594000E021096921F004014FF0E0221161704764
:105950000000FA050CED00E000E400E080E100E06A
:1059600080FFFF1F10B504468C48844208D10121F6
:10597000084600F000FB0021012000F0FCFA5EE088
:105980008748844208D10121022000F0F4FA002166
:10599000022000F0F0FA52E08248844208D101214E
:1059A000042000F0E8FA0021042000F0E4FA46E0C8
:1059B0007D48844208D10121082000F0DCFA002152
:1059C000082000F0D8FA3AE07848844208D1012152
:1059D000102000F0D0FA0021102000F0CCFA2EE0C8
:1059E0007348844208D10121202000F0C4FA00212C
:1059F000202000F0C0FA22E06E48844208D1012144
:105A0000402000F0B8FA0021402000F0B4FA16E07F
:105A10006948844208D10121802000F0ACFA0021BD
:105A2000802000F0A8FA0AE06448844207D10121EE
:105A3000801500F0A0FA0021A01500F09CFA10BD1E
:105A4000F0B50A4600210023002400BF3DE00125F7
:105A500005FA01F3156805EA03049C4234D1056890
:105A60004F000326BE40B543056015794E00B54092
:105A70000668354305601579012D02D01579022D90
:105A800016D185684F000326BE40B5438560557921
:105A90004E00B540866835438560456801268E40D6
:105AA000B5434560456896798E40B6B2354345604A
:105AB000C5684F000326BE40B543C560D5794E008A
:105AC000B540C6683543C560491C1029BFD3F0BD39
:105AD0004FF6FF7101600021017141718171C17147
