:020000040800F2
:1000000088A401206956010845020008470200083B
:100010004B0200084F0200085302000800000000D5
:100020000000000000000000000000009D0100082A
:100030005702000800000000E10100088386010863
:100040008356010883560108835601088356010828
:100050008356010883560108835601088356010818
:10006000AB040008EF040008835601081B030008D6
:10007000FD0200085D0300088356010875020008B0
:10008000835601088102000883560108835601083F
:1000900083560108835601088356010883560108D8
:1000A00083560108C7030008F303000883560108BC
:1000B000F5030008230400084F04000883560108D4
:1000C000835601088356010883560108A7040008D7
:1000D000835601085D020008835601088356010813
:1000E0008356010883560108835601088356010888
:1000F0008356010883560108835601083903000816
:1001000083560108835601087B040008A9040008EF
:10011000835601088356010899030008A5030008C7
:10012000835601089B020008CF020008835601088D
:100130008356010883560108835601088356010837
:100140008356010883560108835601088356010827
:10015000EF02000883560108835601088356010800
:100160008356010883560108835601088356010807
:1001700083560108835601088356010883560108F7
:100180008356010883560108DFF80CD019F01CFDD6
:1001900000480047BF53010888A40120234B196879
:1001A0000868B0E8F04F80F309884FF0000080F352
:1001B000118870470000000003480068006880F361
:1001C000088862B600DF00BF08ED00E0DFF80C0031
:1001D000016841F470010160704700BF88ED00E0E4
:1001E000EFF30980114B1A681EF0100F08BF20EDC5
:1001F000108A20E9F04F106008B54FF0140080F32A
:10020000118818F006FE4FF0000080F31188BDE859
:10021000084019680868B0E8F04F1EF0100F08BFDA
:10022000B0EC108A80F30988704700BF14050020E5
:10023000EFF311804FF0140181F31188704780F3C0
:1002400011887047704700BFFEE700BFFEE700BFA0
:10025000FEE700BFFEE770477047704710B540F2F9
:100260002551A34817F021FB18B12021A04817F011
:1002700013FB10BD10B59F499F4816F04BFA10BDF7
:1002800010B59E499C48303016F01AFA20B19B49AF
:100290009948303016F03EFA10BD10B5984999488B
:1002A00016F00EFA90B19649964816F033FA01F01E
:1002B000DFFF00219048303816F058F908219148A6
:1002C00016F075F901218F4816F050F910BD10B5E0
:1002D0008D498C48183016F01DFA8C4840788B49AF
:1002E000097840EA012000B28949088010BD10B5A4
:1002F00088498448603016F00DFA10BD10B5804969
:100300007D48483816F0DCF930B17D497A484838E4
:1003100016F000FA00F0B8FA10BD10B57E49764824
:10032000603816F0CDF930B17B497348603816F06B
:10033000F1F901F09DFF10BD10B578496E484830C5
:1003400016F0BEF948B100216B48483016F00EF99E
:1003500072496948483016F0DDF910BD10B56A4998
:100360006548303816F0ACF9A8B1674962483038B2
:1003700016F0D0F901F076FD00215F48303816F014
:10038000F5F808215C48303816F011F901215A4877
:10039000303816F0EBF810BD10B50121604816F0AA
:1003A000E1FF10BD10B501215E4816F0DBFF7A2099
:1003B0004F49888001215C4817F086F901215B488C
:1003C00017F082F910BD10B50121594816F0CAFF87
:1003D0005748008800F0100028B156480068401EB9
:1003E0005449086004E053480068401C51490860C3
:1003F00010BD704710B50121880716F0B3FF4FF00C
:100400008040008800F0100028B14B480068401E72
:100410004949086004E048480068401C46490860B3
:1004200010BD10B50121454816F09CFF43480088D7
:1004300000F0100028B142480068401E40490860A2
:1004400004E03F480068401C3D49086010BD10B5FD
:1004500001213C4816F086FF3A48008800F0100061
:1004600028B139480068401E3749086004E0364822
:100470000068401C3449086010BD10B501213348A4
:1004800016F070FF3148008800F0100028B13048A5
:100490000068401E2E49086004E02D480068401C9A
:1004A0002B49086010BD7047704710B5042016F046
:1004B000C9F9D8B12021274815F04DFA0421264862
:1004C00015F024FA012804D10021164816F0CAFAC2
:1004D00009E00421204815F019FA20B9114816F056
:1004E000C5FA1E49086004201D49086010BD704708
:1004F0000010014020800020706002400080202019
:100500000088001028640240008020103C07002072
:100510008C0000200088002020800010008000282F
:10052000001000400014004000480040001401404A
:10053000000001406C00002070000020000400401A
:10054000740000200008004088000020000C0040DB
:100550007800002000000240000C024068000020EB
:10056000143C014070B50446204619F03BF805469E
:100570002146F84819F03DF8A0B195222146F548EA
:1005800019F024F80021F44815F0F0FFF148F24981
:100590000C310860F048B838C0F8BC500121EE4872
:1005A00015F0E4FF70BD70B50446002510E0605DF5
:1005B00068B1615DE94817F0B2F800BF8021E748F3
:1005C00017F05DF90028F9D0681CC5B200E070BDD5
:1005D000EDE770B5044600250FE05CB12146DF4829
:1005E00017F09DF800BF8021DC4817F048F900287B
:1005F000F9D000E070BD681CC5B2032DEDDB00BF73
:10060000F8E713B50C460020FFF7E3FFD4A0FFF78F
:10061000CAFF2346D3A29621D34819F013FBD24830
:10062000FFF7C1FFD1A0FFF7BEFFCEA29621CE48B3
:10063000009B19F007FBCC48FFF7B5FFCDA0FFF7F3
:10064000B2FFFF20FFF7C5FFFF20FFF7C2FFFF202B
:10065000FFF7BFFF1CBD70B505460C46C0A0FFF7F5
:10066000A2FF2246BFA1C04819F004FBBE48FFF715
:100670009AFFBEA0FFF797FF2846FFF794FFBDA0A3
:10068000FFF791FFFF20FFF7A4FF70BD77B585B09E
:100690000546FF26B5A103C9CDE90301B5A0006851
:1006A0000290AFA00068019000240AE00020B24947
:1006B0000855B2490855AC490855A6490855601C6B
:1006C000C4B21E2CF2DB0A20A7490870FF20487034
:1006D0008870C870A3A1A948079A19F0CBFAA74956
:1006E00001A818F067FF01A99F4818F063FF03A94C
:1006F0009D4818F05FFF29469B4818F05BFF99A1C1
:100700009E48069A19F0B6FA9C49974818F052FF8D
:1007100002A9954818F04EFFFF20974908704870CD
:100720008870914818F046FF8F48FFF71BFF08B00C
:1007300070BDF7B584B005460E46FF278BA103C9EF
:10074000CDE902018BA00068019085A000680090AF
:10075000002408E000208849085588490855824946
:100760000855601CC4B20A2CF4DB0A207E490870CC
:10077000FF2048708870C8707AA18048069A19F0E6
:1007800079FA7E49684618F015FF6946764818F0F0
:1007900011FF02A9744818F00DFF2946724818F09D
:1007A00009FF3146704818F005FF01A96E4818F09E
:1007B00001FFFF2070490870487088700020C870E1
:1007C0000871694818F0F6FE6748FFF7CBFE07B0DE
:1007D000F0BD01B58EB06AA2322101A80E9B19F0BE
:1007E00031FA01A8FFF7BEFE0FB000BD73B584B0AB
:1007F0000546FF265DA103C9CDE902015DA00068A1
:10080000019057A00068009000240AE000205A4997
:1008100008555A490855544908554E490855601C11
:10082000C4B21E2CF2DB0A204F490870FF2048702A
:100830008870C8704BA15148059A19F01BFA4F49AE
:10084000684618F0B7FE6946474818F0B3FE02A99B
:10085000454818F0AFFE2946434818F0ABFE47491B
:10086000414818F0A7FE01A93F4818F0A3FEFF2059
:1008700041490870487088703B4818F09BFE3A4820
:10088000FFF770FE06B070BD10B52DED0C8B82B079
:100890003E4800783D49497808443C4989780844F5
:1008A0003A49C978084439490979084437494979A6
:1008B00008443649897908443449C9790844334998
:1008C000097A0844C0B201903048007A00F00F0065
:1008D00000909FED2F0AB0EE40DA2C48407A019943
:1008E000884271D12948007A00F00F000D286BD1A1
:1008F00026488078C0F17F0000EE100AB8EEC08A6A
:100900002248C078813800EE100AF8EEC08AB5EEB1
:10091000C08AF1EE10FA03D1B7EE000AB0EE408AB9
:10092000F5EEC08AF1EE10FA03D1B7EE000AF0EE50
:10093000408ABDEEC80A10EE102A002A01DB1346D9
:1009400000E05342BDEEE80A10EE100A002821DB59
:10095000044620E08A060020B860024000500040B3
:100960007400000025640000540500202E74787483
:100970003D220000220000003A060020120600205E
:100980006A302E76616C3D25640000007D070020F2
:10099000DB0F49404442191901EBD1735B10F94C4C
:1009A0002360BDEEE80A10EE101A002901DB0A46AA
:1009B00000E04A42322A0FDABDEEC80A10EE100AF1
:1009C000002802DB024601E02FE04242322A03DA2D
:1009D0000020ED49086030E018EE900A18F0CFFFD3
:1009E00041EC1B0B18EE100A18F0C9FF41EC1C0B70
:1009F000B0EE4B1AF0EE6B1AB0EE4C0AF0EE6C0A49
:100A000019F0E6FAB0EE40AAF0EE60AA9FEDDF0B17
:100A100053EC102B51EC1A0B18F0A0FE41EC190B03
:100A200018F08EFFD849086007E09DF800000D28F7
:100A300003D00021D74816F047FE02B0BDEC0C8B66
:100A400010BDD548007A00F00F000D2806D1D2481D
:100A5000007800F0010008B10D2070470020FCE78D
:100A6000CD48007800F0100008B100207047012048
:100A7000FCE71CB54FF0804015F0F8FFC749096846
:100A800040EA01400C2190FBF1F00090002418E0B6
:100A90004FF0804015F0EAFFC049096840EA014084
:100AA0000C2190FBF1F00190DDE90021881A00286B
:100AB00001DB014600E04142052900DA641C01988F
:100AC0000090022CE4DB019840421CBD1CB5B448E8
:100AD00015F0CCFFB349096840EA01400C2190FBB6
:100AE000F1F00090002417E0AD4815F0BFFFAD49CC
:100AF000096840EA01400C2190FBF1F00190DDE92A
:100B00000021881A002801DB014600E04142052946
:100B100000DA641C01980090022CE5DB01981CBDF2
:100B20001CB5A14815F0A2FFA049096840EA0140A0
:100B30000C2190FBF1F00090002417E09A4815F08A
:100B400095FF9A49096840EA01400C2190FBF1F0B9
:100B50000190DDE90021881A002801DB014600E050
:100B60004142052900DA641C01980090022CE5DB63
:100B700001981CBD1CB58E4815F078FF8D49096899
:100B800040EA01400C2190FBF1F00090002417E0B6
:100B9000874815F06BFF8749096840EA01400C213E
:100BA00090FBF1F00190DDE90021881A002801DBBB
:100BB000014600E04142052900DA641C01980090DA
:100BC000022CE5DB01981CBD01B581B0002000902E
:100BD000019800EBC0004000009002E00098401E29
:100BE000009000980028F9D10CBD01B581B000201B
:100BF000009044F2506101984843009002E0009850
:100C0000401E009000980028F9D10CBD1CB50121B0
:100C10001F2015F05FF84FF6FF70009001208DF84F
:100C2000040000208DF8060001208DF80700032045
:100C30008DF805006946604814F006FE4FF6FF7017
:100C4000009001208DF8040000208DF8060001209E
:100C50008DF8070003208DF805006946574814F009
:100C6000F3FD4FF6FF70009001208DF80400002086
:100C70008DF8060001208DF8070003208DF805008F
:100C800069464F4814F0E0FD1CBD1CB501217E20D3
:100C900015F020F84FF4CE50009000208DF804009D
:100CA00001208DF8070002208DF8050069464548AF
:100CB00014F0CAFD4FF6C740009000208DF80400E4
:100CC00001208DF8070002208DF8050069463A489A
:100CD00014F0BAFD0420009000208DF804000120DB
:100CE0008DF8070002208DF805006946334814F09E
:100CF000ABFD4FF44C40009000208DF80400012023
:100D00008DF8070002208DF8050069462C4814F084
:100D10009BFD1CBD1FB54FF4E06014F0B7FC3620FE
:100D20008DF8000000208DF801008DF802000120F0
:100D30008DF80300684614F0AEFC0121102014F079
:100D4000FCFF3220ADF8040040F2E73002900020B2
:100D5000ADF80C00ADF8060001A91B4815F039FEEE
:100D60000121194816F0FEFA01221146164816F024
:100D7000D1FA0021144815F075FE0121124815F032
:100D8000B1FE1FBDCC000020C80000200000008084
:100D9000A9E78140004800407D0700207000002046
:100DA000000400407400002000080040880000207B
:100DB000000C0040780000200004024000080240BF
:100DC000000C024000000240001000401FB54FF42C
:100DD000E06014F05BFC37208DF8000000208DF8F7
:100DE00001008DF8020001208DF80300684614F020
:100DF00052FC0121202014F0A0FF3220ADF80400A5
:100E000040F2E73002900020ADF80C00ADF806008B
:100E100001A9FE4815F0DDFD0121FC4816F0A2FAFB
:100E200001221146F94816F075FA0021F74815F02D
:100E300019FE0121F54815F055FE1FBD00B58BB018
:100E40000121022014F08AFF01210C2014F042FF3E
:100E500003220621EE4814F082FD03220721EC480C
:100E600014F07DFD03220821E94814F078FD0322E7
:100E70000921E74814F073FD4FF4707006900220CA
:100E80008DF81C0003208DF81D0000208DF81E0039
:100E900001208DF81F0006A9DD4814F0D5FCA42020
:100EA000ADF8200040F6B83009904FF48070ADF8EE
:100EB00028000020ADF8220008A9D64815F089FDC9
:100EC0006020ADF804000120ADF80600002003907A
:100ED000ADF810000121CF4815F004FE0021CD48E7
:100EE00015F0C0FD01A9CB4815F008FE01A9C948BD
:100EF00015F03DFE01A9C74815F086FE01A9C548B9
:100F000015F0E8FE0121C34816F0DDF90BB000BD75
:100F100000B58BB00121082014F00FFF0121084615
:100F200014F0D8FE02220021BB4814F018FD022262
:100F30000121B94814F013FD02221146B64814F0FD
:100F40000EFD02220321B44814F009FD0F20069083
:100F500002208DF81C0003208DF81D0000208DF864
:100F60001E0001208DF81F0006A9AB4814F06CFC90
:100F7000BA20ADF8200042F2107009900020ADF8C0
:100F80002800ADF8220008A9A44815F022FD602031
:100F9000ADF804000120ADF8060000200390ADF884
:100FA000100001219D4815F09DFD00219B4815F082
:100FB00059FD01A9994815F0A1FD01A9974815F01F
:100FC000D6FD01A9954815F01FFE01A9934815F01B
:100FD00081FE0121914816F076F90BB000BD00B5F5
:100FE0008BB00121042014F0A8FE01210D2014F083
:100FF00071FE02220C218A4814F0B1FC02220D215C
:10100000874814F0ACFC02220E21854814F0A7FC9E
:1010100002220F21824814F0A2FC4FF47040069087
:1010200002208DF81C0003208DF81D0000208DF893
:101030001E0001208DF81F0006A9794814F004FC59
:10104000A420ADF8200040F6B83009904FF480702D
:10105000ADF828000020ADF8220008A9714815F06D
:10106000B8FC6020ADF804000120ADF806000020B7
:101070000390ADF8100001216A4815F033FD0021FE
:10108000684815F0EFFC01A9664815F037FD01A985
:10109000644815F06CFD01A9624815F0B5FD01A981
:1010A000604815F017FE0BB000BD00B589B00121F6
:1010B000080414F053FE0121084614F00BFE03222D
:1010C0001146554814F04BFC03220221524814F0FB
:1010D00046FC0C20019002208DF8080003208DF8BA
:1010E000090000208DF80A0001208DF80B0001A9ED
:1010F000494814F0A9FB0020ADF818004FF6FF7026
:1011000007900020ADF82000ADF81A0006A9464867
:1011100015F05FFC0420ADF80C000020ADF80E00C7
:10112000C820ADF814000120ADF8100003A93E4816
:1011300016F026F800231A4603213C4816F0BDF9A4
:1011400001213A4816F00EF901221146374816F0EF
:10115000E1F80121344815F0C5FC0021334815F0B1
:1011600081FC09B000BD00B589B00121084614F02A
:10117000E4FD0121022014F0E0FD0121032014F020
:10118000A9FD01220F21244814F0E9FB01220321CB
:10119000274814F0E4FB02220421254814F0DFFB69
:1011A00002220521224814F0DAFB382001900220A7
:1011B0008DF8080003208DF8090000208DF80A0042
:1011C00001208DF80B0001A9194814F03DFB4FF4E4
:1011D0000040019002208DF8080003208DF80900DE
:1011E00000208DF80A0001208DF80B0001A90A48A3
:1011F00014F02AFB0020ADF818004FF6FF7007909E
:101200000020ADF82000ADF81A0013E000140040F3
:10121000000802400004014000000240000C0040B1
:10122000000C024000080040000001400040014066
:101230000004024006A94FF0804015F0CAFB06A941
:10124000FE4815F0C6FB0420ADF80C000220ADF8F6
:101250000E001420ADF814000120ADF8100003A911
:10126000800715F08DFF03A9F44815F089FF0223CC
:101270001A460321580716F020F902231A460321C3
:10128000EE4816F01AF90121880716F06BF80121D3
:10129000EA4816F067F801221146900716F03AF86E
:1012A00001221146E54816F035F80121880715F0AE
:1012B00019FC0121E14815F015FC00214FF0804098
:1012C00015F0D0FB0021DD4815F0CCFB4FF4C060D9
:1012D00014F0DCF91D208DF8000003208DF80100CA
:1012E00000208DF8020001208DF80300684614F0FC
:1012F000D2F91C208DF8000004208DF80100002098
:101300008DF8020001208DF80300684614F0C3F93F
:1013100009B000BD00B589B00121084614F01EFDDA
:101320000121102014F0D6FC4FF42060019002201F
:101330008DF8080003208DF8090000208DF80A00C0
:1013400001208DF80B0001A9BD4814F07DFA01229F
:101350000921BB4814F003FB01220B21B84814F00B
:10136000FEFA0020ADF818004FF6FF70079000203D
:10137000ADF82000ADF81A0006A9B24815F029FB17
:101380000420ADF80C000020ADF80E000A20ADF8E6
:1013900014000120ADF8100003A9AA4815F0F0FED2
:1013A00000231A460321A74816F087F80121A54813
:1013B00015F0D8FF01221146A24815F0ABFF01211C
:1013C000A04815F0CFFF012211469E4815F0A2FF5C
:1013D00001219C4815F086FB00219A4815F042FB3C
:1013E0004FF4C06014F052F919208DF8000001206C
:1013F0008DF8010000208DF8020001208DF8030017
:10140000684614F048F909B000BD00B589B0012163
:10141000042014F092FC0121082014F05BFC4FF42E
:101420004050019002208DF8080003208DF809003B
:1014300000208DF80A0001208DF80B0001A98248D8
:1014400014F002FA0020ADF818004FF6FF70079074
:101450000020ADF82000ADF81A0006A97B4815F071
:10146000B8FA02220C21784814F079FA02220D21F0
:10147000754814F074FA0420ADF80C000220ADF8A1
:101480000E00C820ADF814000120ADF8100003A92B
:101490006E4815F075FE02231A4603216B4816F0BC
:1014A0000CF80121694815F05DFF012211466748DB
:1014B00015F030FF0121654815F014FB0021634849
:1014C00015F0D0FA002061491431088001205F49ED
:1014D00008804FF4C06014F0D9F81E208DF8000089
:1014E00004208DF8010000208DF8020001208DF805
:1014F0000300684614F0CFF809B000BD00B589B00C
:101500000121082014F019FC0121084614F0E2FB27
:101510000320019002208DF8080003208DF80900B7
:1015200000208DF80A0001208DF80B0001A9484821
:1015300014F08AF90020ADF818004FF6FF700790FC
:101540000020ADF82000ADF81A0006A9414815F0BA
:1015500040FA022200213E4814F001FA0222012141
:101560003B4814F0FCF90420ADF80C000220ADF863
:101570000E00C820ADF814000120ADF8100003A93A
:10158000344815F0FDFD02231A460321314815F0B9
:1015900094FF01212F4815F0E5FE012211462D4848
:1015A00015F0B8FE01212B4815F09CFA00212948BE
:1015B00015F058FA002027491431088001202549E8
:1015C00008804FF4C06014F061F832208DF80000FC
:1015D00004208DF8010000208DF8020001208DF814
:1015E0000300684614F057F809B000BD00B59BB081
:1015F0000121194814F06EFB0121080214F0AEFB22
:101600000020029015480390154804900020059092
:101610000E200690002007904FF480600890400054
:10162000099080000A9040110B9040020C9000201D
:101630000D9001200E9000200F9013E00004004058
:101640000010024000000140000C02400008004071
:1016500000000240000C0040070040004C20014008
:1016600020070020109002A9FE4814F045FF012138
:10167000FC4814F07BFFFC20009003208DF8040050
:1016800000208DF807006946F74814F0DDF84FF4A4
:101690004070009003208DF8040000208DF80700B2
:1016A0006946F24814F0D0F83F20009003208DF8EE
:1016B000040000208DF807006946ED4814F0C4F8D6
:1016C000002011904FF4403012900020139014909D
:1016D00011A814F077FC4FF08070159001208DF860
:1016E00058008DF8590000201790189019900E207E
:1016F0008DF8680015A9DF4814F035FC0723012296
:101700000221DC4814F0B5FC072302220321D9484A
:1017100014F0AFFC072303220421D64814F0A9FCDF
:10172000072304220521D34814F0A3FC0723052234
:101730000621D04814F09DFC072306221946CD4807
:1017400014F097FC07231A460821CA4814F091FCAC
:10175000072308220921C74814F08BFC072309221C
:101760000A21C44814F085FC07230A220B21C14832
:1017700014F07FFC07230B220C21BE4814F079FCE7
:1017800007230C220D21BB4814F073FC07230D2204
:101790000E21B84814F06DFC07230E220F21B54826
:1017A00014F067FC0121B34814F00EFD0121B1488B
:1017B00014F0FFFC0121AF4814F01BFCAD4814F0FD
:1017C000B4FC1BB000BD08B54FF4E06013F05EFF41
:1017D00025208DF8000000208DF801008DF8020012
:1017E00001208DF80300684613F055FF08BD10B5C1
:1017F00096B004460121102014F0B0FA01210846E9
:1018000014F068FA0121880514F064FA4FF4C060FE
:10181000009002208DF8040000208DF806008DF85D
:10182000070002208DF8050069468F4814F00CF877
:10183000072209218C4814F092F807220A218A48CD
:1018400014F08DF802940020ADF80C00ADF80E00F5
:10185000ADF81000ADF814000C20ADF8120002A98C
:10186000854815F0A9FE0121834815F02DFF4FF49E
:10187000A06013F00BFF3A208DF8180000208DF8BF
:1018800019008DF81A0001208DF81B0006A813F02E
:1018900002FF7448303014F08DFD4FF00060079067
:1018A00000200A90754809900A200B907248001D8C
:1018B000089000200C904FF480600D9000200E9056
:1018C0000F904FF4807010904002119004201290FD
:1018D0000320139000201490159007A96148303020
:1018E00014F00AFE01224021634815F09AFF0122FC
:1018F00010215C48303014F0C6FE012159483030C8
:1019000014F034FE16B010BD10B596B00446012197
:10191000480514F0DFF90121480414F00EFA012102
:10192000082014F0D7F96020009002208DF8040000
:1019300000208DF806008DF8070002208DF80500C4
:1019400069464F4813F080FF072205214C4814F0E8
:1019500006F8072206214A4814F001F802940020F4
:10196000ADF80C00ADF80E00ADF81000ADF81400A5
:101970000C20ADF8120002A9424815F01DFE01210D
:10198000404815F0A1FE4FF4A06013F07FFE112037
:101990008DF8180000208DF819008DF81A0001202C
:1019A0008DF81B0006A813F076FE374814F002FDF0
:1019B0004FF00060079040200A9034480990502072
:1019C0000B903048001D089000200C904FF4806070
:1019D0000D9000200E900F904FF4807010904002F8
:1019E0001190042012900320139000201490159061
:1019F00007A9254814F080FD01228021214815F017
:101A000010FF012280211F4815F00BFF0122102139
:101A10001D4814F038FE01211B4814F0A7FD16B034
:101A200010BD10B596B004460121880414F085F964
:101A30000121082014F04EF90121480514F04AF95B
:101A40004FF44070009002208DF8040000208DF8C3
:101A500006008DF8070002208DF805006946084849
:101A600016E0000010640240000002400004024042
:101A70000008024000200140001001403C07002007
:101A8000000C024000440040A0600240040000201E
:101A900013F0DAFE07220821FE4813F060FF072248
:101AA0000921FC4813F05BFF02940020ADF80C0004
:101AB000ADF80E00ADF81000ADF814000C20ADF834
:101AC000120002A9F44815F077FD0121F24815F043
:101AD000FBFD4FF4A06013F0D9FD0C208DF8180029
:101AE00000208DF819008DF81A0001208DF81B00D8
:101AF00006A813F0D0FDE94814F05CFC4FF000603C
:101B0000079000200A90E64809900A200B90E248CE
:101B1000001D089000200C904FF480600D90002074
:101B20000E900F904FF4807010904002119004209E
:101B300012900320139000201490159007A9D74805
:101B400014F0DAFC01224021D34815F06AFE01228C
:101B50004021D14815F065FE01221021CF4814F034
:101B600092FD0121CD4814F001FD16B010BD10B555
:101B700096B004460121C80414F0DFF801210420C6
:101B800014F0A8F80121480514F0A4F84FF44060BF
:101B9000009002208DF8040000208DF806008DF8DA
:101BA000070002208DF805006946BE4813F04CFE80
:101BB00008220A21BB4813F0D2FE08220B21B948A3
:101BC00013F0CDFE02940020ADF80C00ADF80E002D
:101BD000ADF81000ADF814000C20ADF8120002A909
:101BE000B14815F0E9FC0121AF4815F06DFD4FF447
:101BF000A06013F04BFD0D208DF8180003208DF828
:101C0000190001208DF81A008DF81B0006A813F0AA
:101C100042FDA248183014F0CDFB4FF00060079051
:101C200000200A90A148099008200B909E48001DB2
:101C3000089000200C904FF480600D9000200E90D2
:101C40000F9010904FF4003011900020129003205C
:101C5000139000201490159007A99048183014F0A4
:101C60004BFC01224021904815F0DBFD0122802130
:101C70008D4815F0D6FD012210218848183014F047
:101C800002FD01218548183014F070FC16B010BD1B
:101C900070B5874C2468642C00DB70BD854C2488AB
:101CA00004EB8404844D2C446070824C248804EB43
:101CB00084042C44A1707F4C248804EB84042C44BD
:101CC000E2707C4C248804EB84042C442371794C0E
:101CD0002488641C642594FBF5F605FB1644754DB9
:101CE0002C80734C2468641C714D2C6000BFD4E7B9
:101CF00001466F48006808B9002070476F480088A7
:101D000000EB80006C4A104402680A600079087198
:101D10000120F2E701466648006808B900207047D4
:101D20006648008800EB8000634A104402680A603D
:101D30000079087161480088401C642290FBF2F32E
:101D400002FB13005D4A108059480068401E584A43
:101D500010600120E3E70CB56846FFF7DBFF0020C9
:101D6000574908700CBD70B504460D46012C0BD1C7
:101D70002946544815F0D3FC00BF4021514815F0C6
:101D80007EFD0028F9D036E0032C0BD129464248CD
:101D900015F0C5FC00BF40213F4815F070FD00283C
:101DA000F9D028E0042C0BD129463F4815F0B7FCA8
:101DB00000BF40213C4815F062FD0028F9D01AE030
:101DC000052C0BD12946404815F0A9FC00BF402145
:101DD0003D4815F054FD0028F9D00CE0062C0AD13E
:101DE00029463A4815F09BFC00BF4021374815F0C2
:101DF00046FD0028F9D070BD2DE9F04702240125E9
:101E0000022600274FF000084FF003096019304404
:101E1000384440442E490978084400F0FF0A21461E
:101E20000620FFF7A0FF29460620FFF79CFF31465A
:101E30000620FFF798FF39460620FFF794FF41463A
:101E40000620FFF790FF224801780620FFF78BFF5E
:101E500051460620FFF787FF49460620FFF783FF1C
:101E6000BDE8F08710B5114800781049497808445A
:101E70000E49897808440D49C97808440B49097905
:101E800008440A4949790844C4B20848007802283D
:101E900020D010BD000C02400048004028600240E5
:101EA0007D07002000080240004C0040470200204F
:101EB00054020020580200208C0700205A02002003
:101EC0005D0200200010014000500040001401405D
:101ED00060020020FE48C079032800D010BDFC48F5
:101EE0008079A0424ED1FA484078FA490870F84803
:101EF0008078F9490870F648C078F8490870F448C5
:101F00000079F7490870F2484079F6490870F148BD
:101F1000007801280AD1F0480078022806D1084646
:101F20000078F1490860FFF767FF34E0E94800787E
:101F3000022807D1E8480078012803D10020EB49A6
:101F4000086028E0E348007802280ED1E2480078D3
:101F500002280AD1E3480378E1480278DF48017893
:101F6000DD480078FFF794FE15E0DA480078022893
:101F700011D1D948007803280DD1DA480078DC491E
:101F8000086008E0FF20D4490870D4490870D4499B
:101F90000870D449087000BFA0E710B596B0044699
:101FA0000121480513F096FE0121080513F0C5FE36
:101FB00001210C2013F08EFE0420009002208DF8E9
:101FC000040000208DF806008DF8070002208DF82F
:101FD00005006946C74813F037FC4FF48050009065
:101FE00002208DF8040000208DF806008DF807000F
:101FF00002208DF805006946BF4813F025FC082231
:102000000221BC4813F0ABFC08220C21BA4813F0A3
:10201000A6FC4FF4A06013F039FB2F208DF81800B8
:1020200005208DF819008DF81A0001208DF81B008D
:1020300006A813F030FB0B208DF8180005208DF852
:1020400019008DF81A0001208DF81B0006A813F066
:1020500022FB02940020ADF80C00ADF80E00ADF8A4
:102060001000ADF814000C20ADF8120002A9A3482E
:1020700015F0A2FA0121A14815F026FBA04814F0A2
:1020800099F94FF00060079040200A909D48099010
:102090000A200B909948001D089000200C904FF4E6
:1020A00080600D9000200E900F9010904FF4003043
:1020B000119000201290032013900020149015908E
:1020C00007A98F4814F018FA8D48A83814F072F94F
:1020D0004FF00060079000200A908B48099005207F
:1020E0000B908648001D089000200C904FF48060F3
:1020F0000D9000200E900F9010904FF40030119032
:10210000002012900320139000201490159007A92E
:102110007B48A83814F0F0F901228021774815F0A7
:1021200080FB01224021754815F07BFB0122102124
:10213000734814F0A8FA012210217148A83814F04D
:10214000A2FA01216E4814F011FA01216C48A83856
:1021500014F00CFA16B010BD10B596B0044601216B
:10216000202013F0FBFD0121042013F0B3FD012119
:10217000880513F0AFFDC020009002208DF8040008
:1021800000208DF806008DF8070002208DF805006C
:102190006946594813F058FB08220621564813F0A7
:1021A000DEFB08220721544813F0D9FB02940020DB
:1021B000ADF80C00ADF80E00ADF81000ADF814004D
:1021C0000C20ADF8120002A9504815F0F5F90121D4
:1021D0004E4815F079FA4FF4A06013F057FA392001
:1021E0008DF8180003208DF8190001208DF81A00D1
:1021F0008DF81B0006A813F04EFA454814F0DAF8E3
:102200004FF02060079000200A9042480990082073
:102210000B903E48001D089000200C904FF4806009
:102220000D9000200E900F9010904FF40030119000
:10223000002012900320139000201490159007A9FD
:10224000334814F059F901224021304815F0E9FAD9
:10225000012280212D4815F0E4FA012210212C489A
:1022600014F011FA01212A4814F080F916B010BDBB
:1022700028490978274A52781144264A927811440D
:10228000244AD2781144234A12791144214A5279BE
:102290001144C8B21F490978022900D070471D496E
:1022A000C979032900D0F9E71A498979814245D1D2
:1022B00018494978184A117016498978174A1170D7
:1022C0001449C978164A117012490979154A2BE048
:1022D000470200204F02002050020020510200203F
:1022E00052020020530200206002002064020020FD
:1022F00068020020000C024000080240005000402C
:10230000B86002408A0600208009002000140140C5
:10231000286402406C020020740200207502002034
:1023200076020020770200201170FE494979FE4AAA
:102330001170FE490978FE4A117006E0FF21FD4A3E
:102340001170FA4A1170F84A117000BFA6E700B583
:1023500085B00121082013F0BDFC0121880313F092
:10236000FDFC00208DF8100001208DF813000C20DA
:10237000039003A9F04813F067FA0221032015F037
:10238000E9FA0420009000208DF8040010208DF858
:10239000050001208DF80600684614F0EDF90820CC
:1023A0008DF8080000208DF809008DF80A00012042
:1023B0008DF80B0002A813F06EF905B000BD0020E7
:1023C000DE494862DE490860DE490860DE4908608F
:1023D00070470020D9494862D94908604FF08041D0
:1023E0004862DA490860DA490860DA490860D54984
:1023F0000860D5490860D8490860D8490860704726
:1024000000204FF080414862D049086070470020AA
:10241000CF490860CF490860704710B50020D04907
:102420000870002407E061210120FFF79CFC3220A6
:10243000FEF7DBFB641C022CF5D30120C8490870B1
:102440007A20C849087010BD10B50020C649087030
:10245000002407E061210320FFF785FC3220FEF70E
:10246000C4FB641C022CF5D30120BF4908707A20FC
:10247000BE49087010BD2DE9F14FAEB0BCA02D9043
:1024800000202C908DF888008DF860002E9815287B
:1024900033D2DFE800F00B333C434A51585F666D9E
:1024A000747B828B949BA2FEFDFCFB000221B94849
:1024B00013F02CFA88B100224FF40041B64813F013
:1024C00043FA4FF40041B44813F02DFA04460022B9
:1024D0002146B2A0FEF7DAF80FE00122D103AE48A0
:1024E00013F032FA4FF40041AB4813F01CFA0446E3
:1024F00000222146B1A0FEF7C9F87DE20122B748CB
:10250000B0F900004142B6A0FEF7C0F874E2022222
:10251000B5480168B5A0FEF7B9F86DE20322B848E6
:102520000168B8A0FEF7B2F866E20422B948016873
:10253000B9A0FEF7ABF85FE20522BB480168BBA07B
:10254000FEF7A4F858E20622BC480168BCA0FEF7DA
:102550009DF851E20722BE480168BEA0FEF796F83A
:102560004AE20822BE480168BEA0FEF78FF843E2A7
:102570000922BF480168BFA0FEF788F83CE20A22A2
:10258000BF480168BFA0FEF781F835E20B22C148C1
:102590000168C1A0FEF77AF82EE2FEF76AFA044657
:1025A0000C222146C1A0FEF771F825E2FEF78EFA53
:1025B00004460D222146C0A0FEF768F81CE20E2258
:1025C000C0480168C0A0FEF761F815E20F22C148BB
:1025D0000168C1A0FEF75AF80EE20121C14813F0CC
:1025E00095F94FF4005117906B4813F08FF904469A
:1025F0000221BC4813F08AF905464FF48041664831
:1026000013F084F906460421B64813F07FF94FF41D
:1026100000411690B34813F079F907460821B148F4
:1026200013F074F980464FF48041AE4813F06EF910
:1026300081461021AB4813F069F94FF40051159011
:10264000A84813F063F9824608213B4813F05EF96D
:102650004FF480511490A34813F058F910211390AF
:10266000354813F053F94FF4806112909D4813F0F0
:102670004DF9834680219B4813F048F94FF480714F
:102680001190984813F042F9109003E0ACE1A4E1F6
:102690009CE121E01798CDE90B65CDE90D40169836
:1026A000CDE90798CDE90970DDE913121598CDE958
:1026B000042A03910690DDE91110CDE9001B029078
:1026C00089A2282122A8109B17F0BCFA102222A967
:1026D0008EA0FEF72EF88FE180212E4813F016F918
:1026E000044601212B4813F011F9054640212948E1
:1026F00013F00CF906464FF400410F4813F006F9A9
:1027000007464FF48051824813F000F980464FF499
:102710008061204813F0FAF881464FF400617C484C
:10272000F8E000006C020020780200207702002010
:102730007902002076020020000C024000000140D7
:102740006C00002024080040880000207000002059
:102750002404004074000020240C00407800002075
:1027600091000020900000209300002092000020A3
:102770003131313131313131313131313131313149
:10278000313131313131303131313131313131313A
:10279000000000000004024000080240524F424F77
:1027A0005420322044414E47204348415920534150
:1027B0004E2058414E483A2020200000524F424FB0
:1027C0005420322044414E47204348415920534130
:1027D0004E20444F3A202020000000008C000020B2
:1027E000494D553A00000000B800002054726F2097
:1027F0006368616E205472756F633A2000000000B8
:10280000BC00002054726F206368616E20536175B4
:102810003A202000B000002054726F20786F617958
:102820002074617920000000C000002054726F20E5
:10283000646179207461792031200000C400002097
:1028400054726F2064617920746179203220000015
:10285000A40000204C617A657220706861690000F4
:10286000A00000204C617A657220747261692000BA
:10287000980000204C617A65722073617500000039
:102880009C0000204C617A6572207472756F632021
:102890000000000054020020636F756E745F646175
:1028A00074615F756172743420000000454E434FBF
:1028B0004445525F464C2000454E434F4445525FCD
:1028C00046522000940200204B545F48615F5461DF
:1028D000792000006802002069645F6461745F68A9
:1028E0006F70200000100240256425642564256473
:1028F0002564256425642564256425642564256490
:10290000256425642564256400000000493A000020
:102910000000024012F0FAFF4FF400611790FE48E9
:1029200012F0F4FF82464FF48061FC4812F0EEFF93
:1029300083464FF48051F84812F0E8FF4FF40061ED
:102940001690F64812F0E2FF4FF400511590F2484D
:1029500012F0DCFF4FF480411490F04812F0D6FFE3
:102960004FF480411390EC4812F0D0FF4FF4807187
:102970001290EB4812F0CAFF4FF400411190E64864
:1029800012F0C4FFCDE90B76CDE90D5410901798E5
:10299000CDE907A0CDE90998DDE915211498CDE925
:1029A000051BCDE90302DDE911121398CDE90012F0
:1029B0000290AFF2CC02282122A8109B17F042F916
:1029C000112222A9D7A0FDF7B4FE15E0D74841890E
:1029D0001222D7A0FDF75AFE0EE01322D848016854
:1029E000D8A0FDF753FE07E01422D9480168AFF2E2
:1029F0006C10FDF74BFE00BF00BF2FB0BDE8F08F9D
:102A000010B50121D34813F0B1FD10BD01B5D24876
:102A100000680099884203DD0020CF49086004E087
:102A2000CD480068401CCC490860CB480068FFF7DF
:102A300022FD08BD01B59DF80000052801DA00203F
:102A400008BD9DF80000FBE730B504461D4624B9DB
:102A5000C2480078C24BD87011E0002C07DDE0B20C
:102A6000FFF7E8FFBE4BD8700020987007E0634284
:102A7000D8B2FFF7DFFFBA4BD8700120987021B9A8
:102A8000B6480078B64BD87111E0002907DDC8B20E
:102A9000FFF7D0FFB24BD8710120987107E04B428D
:102AA000D8B2FFF7C7FFAE4BD8710020987122B99A
:102AB000AA480078AA4BD87211E0002A07DDD0B2EC
:102AC000FFF7B8FFA64BD8720120987207E0534277
:102AD000D8B2FFF7AFFFA24BD8720020987225B989
:102AE0009E4800789E4BD87311E0002D07DDE8B2B8
:102AF000FFF7A0FF9A4BD8730120987307E06B4251
:102B0000D8B2FFF797FF964BD8730020987330BD6B
:102B1000934AD070D071D072D07370479048C0780B
:102B200003280DDA8E48C079032809DA8C48C07A68
:102B3000032805DA8A48C07B032801DA01207047A0
:102B40000020FCE70120874908607047864800683C
:102B500047F23051884201D0012070470020FCE745
:102B600010B5FFF75AFC10BD8048B0F90000404294
:102B70007047B5EEC00AF1EE10FA09D27C48D0EDEC
:102B8000000A70EE600AFDEEE00A10EE900A70474F
:102B90007748D0ED000A70EE200AFDEEE00A10EE54
:102BA000900AF4E710B52DED0A8B044624B99FED89
:102BB000710ABDEC0A8B10BD002C25DA6E48006846
:102BC00016F0ADFE41EC190B204616F0A8FE41ECC4
:102BD0001C0B9FED6A0B53EC102B16F0BFFD41EC64
:102BE0001B0B9FED680B53EC102B16F0B1FD41EC65
:102BF0001A0B53EC192B16F023FE41EC180B16F0B0
:102C0000D1FE00EE100AD4E75B48006816F087FE9C
:102C100041EC190B204616F082FE41EC1C0B9FED97
:102C2000570B53EC102B16F099FD41EC1B0B9FED4D
:102C3000550B53EC102B16F0EAFC41EC1A0B53EC3D
:102C4000192B16F0FDFD41EC180B16F0ABFE00EE53
:102C5000100AAEE7F0EE400AF5EEC00AF1EE10FA07
:102C600002DBB0EE600A7047B1EE600AFBE7014696
:102C7000002901DB084670474842FCE7014643480B
:102C8000D0ED000AF1EE600A4148D0ED001A80EE66
:102C9000A11A00EE901AF8EEE01A3C48D0ED000AB6
:102CA00041EE210AB0EE600AFDEEC00A10EE900A75
:102CB0007047B0EE402ADFED372AB0EE620AB5EE7B
:102CC000C02AF1EE10FA03D2F1EE422AB0EE622AE7
:102CD000F5EEC00AF1EE10FA03D2F1EE602AF0EE42
:102CE000620AB5EEC01AF1EE10FA03D2F1EE412AF3
:102CF000B0EE621AF5EEC01AF1EE10FA03D2F1EE60
:102D0000612AF0EE621AB4EEC02AF1EE10FA01DD8B
:102D1000B0EE420A40E0000000040240000C024015
:102D200000000240696E323A0000000020070020D7
:102D30005175616E675F74726F203A200000000069
:102D400064020020636F5F7661745F63616E2000D0
:102D50009C000020A060024084000020E4020020CB
:102D600004000020480300200C0300208C000020F9
:102D7000A402002000000000F80200209A9999990E
:102D80009999B93F333333333333D33FDC020020D7
:102D9000E00200206F12833AF4EEC00AF1EE10FA5E
:102DA00001DDB0EE600AB4EEC01AF1EE10FA01DDFA
:102DB000B0EE410AF4EEC01AF1EE10FA01DDB0EE09
:102DC000610A7047FE4800687047FE480068704717
:102DD00010B52DED028BB0EE408AFB48006847F23B
:102DE000305188420ED11FED1D0AF84880ED000ACF
:102DF000F74880ED000AF74880ED000AF64880EDBC
:102E0000000A4AE0F5480068F5490968401AEE49A9
:102E10000968081A00EE100AB8EEC00AF0EE408AFF
:102E2000F048D0ED000A88EEA00AEF48D0ED000A85
:102E300030EE200AED48D0ED000A20EE200AF0EE38
:102E4000408AB0EE680A17F063FAF0EE000A20EE4E
:102E5000200ADE4880ED000AB0EE680A17F0B0F9EB
:102E6000F0EE000A20EE200AD94880ED000AD7488B
:102E700090ED000ADE48D0ED000A30EE200AD64878
:102E800080ED000AD24890ED000AD948D0ED000A42
:102E900030EE600ACF4880ED000AB5EEC08AF1EE50
:102EA00010FA73D0D3480068052820D2DFE800F07C
:102EB00003203A546F00C84890ED000A30EE080A2B
:102EC00080ED000AC34890ED000A30EE480A80ED1C
:102ED000000ABF4890ED000A30EE080A80ED000AB3
:102EE000BA4890ED000A30EE480A80ED000A68E02A
:102EF000B84890ED000A30EE480A80ED000AB44868
:102F000090ED000A30EE080A80ED000AAF4890ED1F
:102F1000000AB948D0ED000A08EE600AAB4880ED1F
:102F2000000A4EE0AC4890ED000A30EE080A80ED51
:102F3000000AA74890ED000AAF48D0ED000A08EE5D
:102F4000200AA34880ED000AA04890ED000A30EE68
:102F5000480A80ED000A34E09F4890ED000A30EE08
:102F6000080A80ED000A9B4890ED000AA248D0EDC7
:102F7000000A08EE600A974880ED000A934890ED39
:102F8000000A30EE480A80ED000A1AE01AE0924882
:102F900090ED000A9848D0ED000A08EE200A8E480D
:102FA00080ED000A8B4890ED000A30EE480A80ED73
:102FB000000A874890ED000A30EE080A80ED000A0A
:102FC00000BF00BF8148D0ED001A814890ED001A83
:102FD0008048D0ED000A804890ED000AFFF769FEB6
:102FE0008648D0ED000AF8EEE00A80EE801ABDEEC9
:102FF000C10A834880ED000A714800688049096869
:10300000884203DD7E4800686D49086001207D49E3
:103010000860BDEC028B10BD10B5044600207A4953
:1030200008607A480460FCB90020654908601FED1B
:10303000AF0A6F4880ED000A47F2305062490860DD
:10304000734908601FEDB50A724880ED000A002040
:1030500068490860704908605A4908606F4908600B
:103060001FEDBC0AFFF7B4FE10BD10B5694890ED26
:10307000000AB5EEC00AF1EE10FA05D15D4800680D
:1030800010B96548006890B11FEDC60A614880ED2F
:10309000000A0020574908605F4908604F480068EF
:1030A0004F4908605B4890ED000AFFF791FE10BDA4
:1030B0005B48C0ED000A5B4880ED000A704770B5C0
:1030C0002DED028B05460C46B0EE408A3E48006866
:1030D000A8420BD14C480068A04207D1444890ED6B
:1030E000000AB4EE480AF1EE10FA18D0464804601F
:1030F0003348006810B90520314908603748006836
:10310000374908603A4880ED008A2F480560002062
:10311000454908603F4890ED000AFFF759FEBDECB5
:10312000028B70BD70B52DED028B0446B0EE408A67
:103130000D4639480068A0420BD1364890ED000A90
:10314000B4EE480AF1EE10FA03D12A480068A8420A
:1031500072D01D48006847F23051884225D11E20A8
:10316000294908601648006810B90A201449086007
:1031700047F23050844218DA012012490860B5EE57
:10318000C08AF1EE10FA03DD14480068A04208DCA2
:10319000B5EEC08AF1EE10FA07D210480068A042DE
:1031A00003DAB1EE480AB0EE408A1B4804601148C9
:1031B0000560184880ED008A00201B49086036E051
:1031C000F8020020240300200C0300204403002008
:1031D000400300203C030020380300202C03002083
:1031E00018030020BC020020C8020020EC020020CE
:1031F00020030020F4020020AC020020A0020020E6
:1032000000030020F0020020FC0200200403002044
:10321000100300201C03002014030020480300209A
:10322000DC020020E00200200803002004E0FE4849
:1032300090ED000AFFF7CCFDBDEC028B70BD10B520
:103240002DED028BB0EE408A04462146B0EE480ACE
:1032500047F23050FFF766FFBDEC028B10BD70B532
:1032600004460D469FEDF10A29462046FFF727FF49
:1032700070BD70B52DED088BF0EE408A0446B0EEBF
:10328000608AB0EE419AEA4890ED000AB8EEC00AB2
:10329000B4EE680AF1EE10FA0DD1E6480068A042DB
:1032A00009D1E54890ED000AB8EEC00AB4EE480A2C
:1032B000F1EE10FA5ED0BDEEE80ADD4880ED000ABE
:1032C000DE4991ED000AB8EEC00A38EEC00ABDEE44
:1032D000C00A10EE100A9FEDD50A2146FFF7EFFE57
:1032E000D64890ED000AB8EEC00A38EE400ABDEEAE
:1032F000C00A10EE105A002D01DB284600E068429B
:10330000642814DDCD4890ED000AB8EEC00AB4EE92
:10331000C08AF1EE10FA02DDB0EE490A01E0B1EE2A
:10332000490A10EE101A084616F029FB13E0C348AC
:1033300090ED000AB8EEC00A38EE400A10EE101AFE
:10334000084616F01CFB41EC1B0B9FEDBD0B53EC2C
:10335000102B16F003FA41EC1A0B16F023FB09EEC2
:10336000900A0021B0EE690AFDEEC80A10EE900A3C
:10337000FFF7D8FEBDEC088B70BD10B5B2480068F1
:1033800001283DDDAC490968AC4A1268881AFFF78C
:103390006EFC06280CDAAC4801680068401CAA4A9A
:1033A0001060B1F5FA7F2BDD0020FFF735FE10BD70
:1033B000A5480068FA2808DD05209E490860A34951
:1033C0000860FB20A049086004E0052099490860D6
:1033D0009E4908609948006897490968884205DD58
:1033E000BFEE000A904880ED000A04E0B7EE000A44
:1033F0008D4880ED000A8C4890ED000AFFF7E8FC4C
:1034000000BFD4E710B52DED028B914890ED000A76
:10341000B5EEC00AF1EE10FA08D18C48006828B168
:103420008548006847F23051884202DBBDEC028BD0
:1034300010BD7D4890ED000AB5EEC00AF1EE10FA1D
:103440007ED08448006847F23051884279D176486E
:1034500090ED000AB5EEC00AF1EE10FA08DD7648EC
:1034600000687D490968401A74490968884210DB80
:103470006D4890ED000AB5EEC00AF1EE10FA7CD26C
:103480006D4800687449096808446C4909688842B5
:1034900073DD6D48006803285CDA67490968674A8C
:1034A0001268881AFFF7E3FB0A2816DA62480068F8
:1034B0006A4908600020654908605E4908609FED20
:1034C0005B0A594880ED000A02205F4908605648AF
:1034D00090ED000AFFF77CFCA8E7574800685749C1
:1034E0000968884237DD594890ED000AB8EEC00AF5
:1034F0004D48D0ED000A60EE200A574890ED000AD2
:10350000B8EEC00AC0EE801AB0EE611AB0EE410A01
:10351000FFF7A0FB48490968484A1268881AFFF774
:10352000A6FB00EE900AB8EEE01A4D48D0ED000A76
:1035300040EE010A454890ED000AB8EEC00A01E0ED
:10354000C9E045E080EE801AB0EE418AB0EE480A4C
:10355000FFF73EFCBEE03D4890ED000AB8EEC00A21
:103560003148D0ED000A60EE200A3B4890ED000A99
:10357000B8EEC00AC0EE801A00E023E0B0EE611A97
:10358000B0EE410AFFF766FB2B4909682B4A126827
:10359000881AFFF76CFB00EE900AB8EEE01A30488C
:1035A000D0ED000A50EE410A284890ED000AB8EE2E
:1035B000C00A80EE801AB0EE418AB0EE480AFFF7EA
:1035C00007FC87E0184890ED000AFFF701FC81E056
:1035D000154890ED000AB5EEC00AF1EE10FA1FDDB5
:1035E000154890ED000AB8EEC00A1848D0ED000A60
:1035F000F8EEE00A0C4890ED001A00EEC10A1948F6
:10360000D0ED000AF8EEE00A70EE600A0B4890ED8B
:10361000000AB8EEC00AF4EEC00AF1EE10FA48D380
:10362000014890ED000A1FE01C030020000000008C
:1036300010030020FC020020140300202C030020B3
:103640007B14AE47E17A743F24030020F802002087
:10365000200300200C030020D802002028030020B3
:10366000B8020020D4020020B5EEC00AF1EE10FA34
:103670002BD2FE4890ED000AB8EEC00AFC48D0ED0F
:10368000000AF8EEE00AFB4890ED001A00EEC10ACD
:10369000F948D0ED000AF8EEE00A70EE200AF7488B
:1036A00090ED000AB8EEC00AF4EEC00AF1EE10FA8E
:1036B0000BDDEE490968F14A1268881AFFF772FAC1
:1036C000B0EE408AFFF784FB04E0EA4890ED000A80
:1036D000FFF77EFBAAE6EA490968E84A1268881AF9
:1036E000FFF760FAB0EE408AFFF772FB00BF9DE67D
:1036F00000B5E4480068022815DA1FED340AE248F4
:1037000080ED000A1FED370ADA4880ED000A00203C
:10371000DE49086047F23050DD490860DD49086045
:103720000020D2490860DC480068401CDA49086083
:10373000DA490968884204DAD9480068FFF7E8F9ED
:103740000EE0D6480068D4490860D648006820B129
:10375000D3480068FFF7DCF902E00020FFF7D8F952
:1037600000BDCD4A1268521CCB4B1A60824207DD65
:10377000BF4A12680A44BE4B1A600022C64B1A6048
:1037800070472DE9F041FFF7EFF9BC490860FFF7FA
:10379000F4FDC5480068002821DDB5480068C2492D
:1037A000096888422AD0B2480068BF49096888423F
:1037B0000EDAAF480068BD49096888421EDAAC4895
:1037C0000068FFF75BFA04460121FFF7CAFF15E026
:1037D0004FF0FF31B6480068FFF7C3FF0EE0A44882
:1037E0000068002806DD4FF0FF31B2480068FFF79F
:1037F000B8FF03E0FFF77CFFBDE8F081AE4800684A
:103800009E490968884205D0FFF7FCFD9B48006887
:10381000A9490860A9480068F0B39548D0ED000AAE
:10382000F8EEE00AA64890ED001A60EE810AB0EECC
:10383000600AFFF79EF904468D48D0ED000AF8EEC5
:10384000E00AA04890ED001A60EE810AB0EE600A2E
:10385000FFF78FF905468648D0ED000AF8EEE00A3A
:10386000994890ED001A60EE810AB0EE600AFFF709
:1038700080F906467E48D0ED000AF8EEE00A93484B
:1038800090ED001A60EE810AB0EE600AFFF771F960
:10389000074623462A4600E002E03146FFF7D4F807
:1038A00000BFA9E78A4801680068401C884A106088
:1038B000462907D28748408B8749096808448649CA
:1038C00008600BE0844800684621B0FBF1F08349B2
:1038D000086000207E4908607F49086080480168D0
:1038E0000068401C7E4A1060462907D27948008B48
:1038F0007C49096808447B4908600BE07948006806
:103900004621B0FBF1F07849086000207449086056
:1039100074490860754801680068401C734A10606B
:10392000462907D26B48808A714909680844704962
:1039300008600BE06E4800684621B0FBF1F06D496D
:103940000860002069490860694908606A480168A0
:103950000068401C684A1060462907D25D48C08A4A
:10396000664909680844654908600BE063480068D7
:103970004621B0FBF1F06249086000205E49086012
:103980005E4908605F4801680068401C5D4A10603D
:10399000322907D24F4840895B49096808445A498F
:1039A00008600BE0584800683221B0FBF1F057493D
:1039B0000860002053490860534908605448016872
:1039C0000068401C524A1060322907D24148C08822
:1039D0005049096808444F4908600BE04D480068A9
:1039E0003221B0FBF1F04C490860002048490860E2
:1039F00048490860494801680068401C474A10600F
:103A0000322907D233488088454909680844444927
:103A100008600BE0424800683221B0FBF1F04149F8
:103A2000086000203D4908603D4908603E48016843
:103A30000068401C3C4A1060462907D2254800898E
:103A40003A4909680844394908600BE0374800687A
:103A50004621B0FBF1F03649086000203249086089
:103A60003249086033480168006865E014030020AB
:103A7000F80200201C030020D40200202C030020A8
:103A8000180300202403002020030020F40200205B
:103A90000C0300201003002008030020E80200208F
:103AA000E402002048030020FC0200200003002064
:103AB000340300200403002030030020F002002023
:103AC00044030020400300203C0300203803002072
:103AD00054040020200700205804002098000020F3
:103AE0005C040020600400209C000020640400208E
:103AF00068040020A40000206C0400207004002052
:103B0000A00000207404002078040020A8000020F9
:103B10008C04002090040020BC00002094040020AD
:103B200098040020B80000209C040020A00400207D
:103B3000B0000020B4040020401CFE4A106046295A
:103B400007D2FD480088FD4909680844FB49086020
:103B50000BE0FA4800684621B0FBF1F0F849086034
:103B60000020F4490860F5490860F64801680068DB
:103B7000401CF44A1060462907D2EF484088F249B9
:103B800009680844F04908600BE0EF4800684621E6
:103B9000B0FBF1F0ED4908600020EA490860EA490D
:103BA00008607047EA480068EA490968884203DA11
:103BB000E8480068E6490860E5480068E6490968A1
:103BC000884203DDE4480068E1490860E349096888
:103BD000DF4A1268881A002801DB014600E04142F2
:103BE000022930DDDD480068D9490968884203DDD3
:103BF0000120DB49887502E00020D9498875D74942
:103C00000968D34A1268881A002801DB014600E0DF
:103C1000414201EB4101D34A116010460068D2498C
:103C20000968884203DDD048006811460860CD4825
:103C300000681E2802DA1E20CA490860C9480078B8
:103C4000C749C87502E00020C549C8757047C74814
:103C50000068C7490968884203DAC5480068C34953
:103C60000860C2480068C3490968884203DDC1484A
:103C70000068BE490860C0490968BC4A1268881AD1
:103C8000002801DB014600E04142022930DDBA484C
:103C90000068B6490968884203DD0020B04988748D
:103CA00002E00120AE498874B3490968AF4A12683E
:103CB000881A002801DB014600E0414201EB410186
:103CC000A84A116010460068AC490968884203DDC3
:103CD000AA48006811460860A2480068142802DA61
:103CE0001420A04908609F4800789D49C87402E0EC
:103CF00000209B49C8747047A1480068A149096821
:103D0000884203DA9F4800689D4908609C48006823
:103D10009D490968884203DD9B480068984908600E
:103D200087490968964A1268881A002801DB01460B
:103D300000E04142042931DD81480068904909686A
:103D4000884203DD00208649887602E0012084490C
:103D500088767B4909688A4A1268881A002801DB3C
:103D6000014600E0414201EB810189007D4A11607A
:103D70001046006885490968884203DD8348006869
:103D80001146086077480068642802DA64207549A3
:103D90000860744800787249C87602E000207049D3
:103DA000C87670477A4800687A490968884203DA19
:103DB000784800687649086075480068764909685F
:103DC000884203DD74480068714908605F490968EA
:103DD0006F4A1268881A002801DB014600E0414260
:103DE000042934DD5948006869490968884204DDBE
:103DF00000205B4981F82A0003E00120584981F83E
:103E00002A0052490968624A1268881A002801DBB0
:103E1000014600E0414201EB81018900514A1160F5
:103E2000104600685D490968884203DD5B48006808
:103E3000114608604B480068C82802DAC820494982
:103E4000086048480078464981F82B0003E00020CC
:103E5000434981F82B00704710B55148006851491B
:103E60000968884203DA4F4800684D4908604C48A9
:103E700000684D490968884203DD4B48006848499D
:103E800008604A4B1B68464C24681A1B002A01DB59
:103E9000134600E05342022B4ADD294B1B68444C79
:103EA0002468191B002901DB0B4600E04B42142B50
:103EB0003EDA264B1B683F4C2468181B002801DBA8
:103EC000034600E04342142B7BDA3848006834494B
:103ED0000968884204DD0120214981F8260003E0B9
:103EE00000201F4981F82600304909682C4A1268D1
:103EF000881A002801DB014600E04142194A11609E
:103F0000104600682C490968884203DD2A48006889
:103F10001146086013480068322802DA322011493D
:103F20000860104800780E4981F82700002045E01D
:103F300047E00000B404002020070020B80400205F
:103F4000C0000020BC040020C0040020C4000020E9
:103F5000BC030020B4030020B8030020B8000020F8
:103F6000040000201C040020F4030020C8030020EB
:103F7000C0030020C4030020BC000020F003002088
:103F8000E0030020D8030020DC030020FC03002015
:103F9000EC030020E4030020E803002000040020DC
:103FA000D4030020CC030020D0030020B000002068
:103FB000BC010020C0010020F8030020FD4908607A
:103FC00006E00020FC4981F827000120F94908603B
:103FD00010BD2520F94908604420F9490860704760
:103FE0003A20F64908605820F54908607047432098
:103FF000F24908606420F249086070476E20EF497A
:104000000860A020EE490860704700B50246FFF73F
:10401000F5FFEC480260EC48026000BD00B50246C6
:10402000FFF7DEFFE7480260E748026000BD00B529
:104030000246FFF7DCFFE3480260E348026000BD90
:1040400010B5FA20E1490860E1480068E1490860DC
:10405000FA20E1490860E1480068E1490860002071
:10406000E049086035E006E0012014F04FFEFCF75F
:10407000F7FC00B927E0D64A1268DB4B1B68D21A5E
:10408000032392FBF3F3D94A1268D24C2468111B24
:10409000002901DB0A4600E04A429342E4DBCF4AB2
:1040A0001268D34B1B68D21A032392FBF3F3D14A55
:1040B0001268CB4C2468101B002801DB024600E08C
:1040C00042429342D0DB00BFC6480068401CC5494D
:1040D0000860C44800683228C5DB10BD10B5012057
:1040E000C5490860C548006890BBC548006878BBF2
:1040F000C448006860BBC448006848BBB6EE001AFC
:10410000DFEDC20A05209FEDC20AFFF7B2F80020DA
:10411000B449086014E006E0012014F0F7FDFCF754
:104120009FFC00B906E04FF48051BA4811F0EEFB55
:104130000028F1D000BFAB480068401CA9490860C6
:10414000A84800689628E6DB0020FEF765FFA6E099
:10415000FFE7AA480068012833D1A948006878BB66
:10416000A848006860BBA848006848BBB6EE001AC3
:10417000DFEDA60A05209FEDA60AFFF77AF80020DA
:104180009849086014E006E0012014F0BFFDFCF738
:1041900067FC00B906E04FF480519E4811F0B6FB71
:1041A0000028F1D000BF8F480068401C8D4908608E
:1041B0008C4800689628E6DB0020FEF72DFF6EE0B5
:1041C000FFE78E480068012832D18D480068012839
:1041D0002ED18C48006858BB8B48006840BBB6EEB7
:1041E000001ADFED8A0A05209FED8B0AFFF741F8E0
:1041F00000207C49086013E006E0012014F086FDF1
:10420000FCF72EFC00B905E00421844811F07EFB88
:104210000028F2D000BF73480068401C7149086054
:10422000704800689628E7DB0020FEF7F5FE36E0D0
:1042300072480068012832D17148006801282ED1E7
:104240007048006801282AD16F48006838BBB6EE74
:10425000001ADFED6E0A05209FED6F0AFFF709F8DF
:1042600000206049086013E006E0012014F04EFDD4
:10427000FCF7F6FB00B905E00421684811F046FBA5
:104280000028F2D000BF57480068401C554908601C
:10429000544800689628E7DB0020FEF7BDFE10BDFD
:1042A00056480068B0B95648006898B95548006843
:1042B00080B95548006868B9642059490860594870
:1042C0000068594908603C48C07F40F004003A4902
:1042D000C87752E049480068012816D1484800686C
:1042E00098B94848006880B94748006868B96420B0
:1042F0004B4908604D4800684B4908602E48C07F14
:1043000040F008002C49C87737E03C480068012895
:1043100017D13B480068012813D13A48006880B99A
:104320003948006868B964203D4908604048006821
:104330003D4908602048C07F40F040001E49C877D2
:104340001BE02E480068012817D12D48006801287D
:1043500013D12C48006801280FD12B48006860B9A0
:1043600064202F490860334800682F4908601248CC
:10437000C07F40F010001049C87770471F480068A0
:10438000B0B91F48006898B91E48006880B91E4837
:10439000006868B9642022490860274800682249FB
:1043A00008600548C07F40F004000349C87798E0E2
:1043B00044E00000B003002004000020F0030020CF
:1043C000F4030020BC030020C8030020FC030020ED
:1043D000BC010020E003002000040020C0010020F8
:1043E000EC03002078030020D8030020C000002048
:1043F000E4030020C4000020940200207C0200207E
:104400008002002084020020880200200000614415
:1044100000000000000002400000E14400100240E3
:10442000F803002080010020D40300208401002034
:10443000880100208C01002098010020FE480068BF
:10444000012816D1FD48006898B9FD48006880B978
:10445000FC48006868B96420FB490860FB480068B4
:10446000FB490860FB48C07F40F00800F949C87765
:1044700037E0F1480068012817D1F04800680128AA
:1044800013D1EF48006880B9EE48006868B964202D
:10449000ED490860F0480068ED490860ED48C07FCC
:1044A00040F04000EB49C8771BE0E3480068012872
:1044B00017D1E2480068012813D1E14800680128BB
:1044C0000FD1E048006860B96420DF490860E34824
:1044D0000068DF490860DF48C07F40F01000DD4918
:1044E000C8777047D448006878B9D448006860B984
:1044F000D348006848B9D348006830B9D548C07F70
:1045000040F00400D349C87753E0CB480068012845
:1045100016D1CA48006898B9C948006880B9C94826
:10452000006868B96420C8490860CD480068C84977
:104530000860C848C07F40F00800C649C87738E026
:10454000BD480068012818D1BC480068012814D172
:10455000BB48006888B9BB48006870B96420BA4994
:104560000860BF480068001FB9490860B948C07FAB
:1045700040F04000B749C8771BE0AF480068012809
:1045800017D1AE480068012813D1AD480068012852
:104590000FD1AC48006860B96420AB490860B148ED
:1045A0000068AB490860AB48C07F40F01000A949E3
:1045B000C87770472DE9F04105460E46FFF71EFD0E
:1045C000A9480068FA30A9490860A9480068F03095
:1045D000A8490860002415E006E0012014F096FBCD
:1045E000FCF73EFA00B90BE0A3490968A14A12683A
:1045F000881A002801DB014600E041420F29ECDC6B
:1046000000BF641C322CE7DB9FED9C1A00EE106AA1
:10461000F8EEC00A0C2000EE105AB8EEC00AFEF701
:1046200028FE002416E006E0012014F06FFBFCF7E2
:1046300017FA00B90CE04FF48071914811F066F957
:104640000128F1D080218F4811F060F90028EBD0CB
:1046500000BF641C40F21A408442E4DB0020FEF7F5
:10466000DBFC78208849086081480068C01E8149C9
:104670000860002415E006E0012014F047FBFCF779
:10468000EFF900B90BE07C4909687A4A1268881A88
:10469000002801DB014600E041420729ECDC00BFB5
:1046A000641C322CE7DB4FF42F7014F02FFB9FEDCE
:1046B000771A00EE106AF8EEC00A0F2000EE105ACA
:1046C000B8EEC00AFEF7D5FD40F2A46014F01EFB60
:1046D000002416E006E0012014F018FBFCF7C0F9F6
:1046E00000B90CE00121674811F010F90128F2D05F
:1046F0004FF40061624811F009F90128EBD000BFC6
:10470000641C40F21A408442E4DBB4205E49086035
:10471000574800681C30574908609FED5C1A00EE4E
:10472000106AF8EEC00A122000EE105AB8EEC00A65
:10473000FEF79FFD00240FE006E0022014F0E6FAE9
:10474000FCF78EF900B905E00121514811F0DEF8BF
:104750000128F2D000BF641C40F226208442EBDB2B
:104760004C480068012802D1FFF7BCFE0CE04A4823
:104770000068012802D1FFF701FE05E04748006804
:10478000012801D1FFF78CFD9FED401A00EE106A61
:10479000F8EEC00A0F2000EE105AB8EEC00AFEF77D
:1047A00068FD002410E006E0012014F0AFFAFCF7E9
:1047B00057F900B906E04FF40051354811F0A6F85A
:1047C0000128F1D000BF641CB4F57A7FEBDB002038
:1047D000FEF722FC32203249086023480068C01CE2
:1047E000224908604FF47A7014F090FA96202C4910
:1047F0000860002415E006E0012014F087FAFCF7B9
:104800002FF900B90BE027490968184A1268881A7D
:10481000002801DB014600E041420729ECDC00BF33
:10482000641CFA2CE7DB4FF47A7014F06FFA9FEDFA
:10483000131A00EE106A37E07C020020800200208C
:104840008402002088020020F80300209C01002040
:10485000D403002004000020A0010020A4010020B7
:104860007C01002078010020B4030020BC0300205C
:10487000C0030020C8030020BC000020CDCCCCBE6B
:104880000000024000040240F00300209A9999BE03
:1048900000100240E8000020EC000020F0000020A2
:1048A000F4030020B8000020F8EEC00A0C2000EE4F
:1048B000105AB8EEC00AFEF7DCFC00240FE006E058
:1048C000012014F023FAFCF7CBF800B905E0012130
:1048D000FE4811F01BF80128F2D000BF641CFA2C2E
:1048E000EDDBFDF776FD06E0052014F00FFAFCF78E
:1048F000B7F800B914E0FCF7E9F88046FCF7B9F81E
:10490000071E01DB384600E07842B8F1000F01DBFA
:10491000414601E0C8F100010844B0F5C87FE3DB7F
:1049200000BFFFF76BFB4FF48270E9490860E9496B
:1049300008601FED2E1A00EE106AF8EEC00A0C2077
:1049400000EE105AB8EEC00AFEF793FC00240FE008
:1049500006E0012014F0DAF9FCF782F800B905E06E
:104960001021DD4810F0D2FF0128F2D000BF641CF6
:10497000642CEDDB0020FEF74FFBBDE8F08110B5A5
:104980000246101E01DB044600E04442214619297C
:1049900000DD1921062901DA042010BDC1EBC10098
:1049A0004000484340F2712490FBF4F0031D184688
:1049B000F3E72DE9F04104460D460020C7490860A1
:1049C0003BE02AE0C6480068071B3846FFF7D7FFE0
:1049D0000646C3480068001B002809DD9FEDC11A88
:1049E000DFEDC10A30469FEDC10AFEF742FC10E040
:1049F000BB480068001B09D59FEDBA1ADFEDBA0A63
:104A000030469FEDBB0AFEF734FC02E00020FEF7C3
:104A100003FBFCF725F800B909E0B1490968081B58
:104A2000002801DB014600E041420129CADC00BF49
:104A3000AA480068401CA9490860A8480068A84224
:104A4000BFDBBDE8F08170B5AA480468AA480568D4
:104A50004FF461714842FFF7ADFDFFF7CFFAA74869
:104A60000068FA309A490860A5480068F030994912
:104A700008609FEDA41ADFED9C0A08209FEDA20AB2
:104A8000FEF7F7FB0020954908601AE006E0FBF707
:104A9000E7FF00B90FE0012014F038F94FF48071FE
:104AA0009A4810F033FF0128F1D08021874810F098
:104AB0002DFF0028EBD000BF88480068401C8749C4
:104AC00008608648006840F20E618842DEDB4FF4E1
:104AD000FA6014F01BF98E480068012803D140F2F7
:104AE0003520FFF792FA0020FEF796FA8848006812
:104AF000012822D18749086087480068F0B98748B3
:104B00000068D8B986480068C0B986480068A8B966
:104B10009FED7C1ADFED740A05209FED7B0AFEF7FE
:104B2000A8FB4FF4FA6014F0F1F84FF47A712046C4
:104B3000FFF73FFF0020FEF76FFA6AE07648006853
:104B400001281ED175480068D8B975480068C0B9F9
:104B500074480068A8B99FED6B1ADFED630A052061
:104B60009FED690AFEF785FB4FF4FA6014F0CEF86A
:104B70004FF47A712046FFF71CFF0020FEF74CFA35
:104B800047E06548006801281FD164480068012893
:104B90001BD163480068C0B962480068A8B99FED9E
:104BA000591ADFED510A05209FED570AFEF761FB08
:104BB0004FF4FA6014F0AAF84FF47A712846FFF720
:104BC000F8FE0020FEF728FA23E053480068012889
:104BD0001FD15248006801281BD1514800680128A4
:104BE00017D150480068A0B99FED461ADFED3E0A84
:104BF00005209FED450AFEF73CFB4FF4FA6014F0E8
:104C000085F84FF47A712846FFF7D3FE0020FEF7AF
:104C100003FA0020FEF700FA70BD10B53E480068A8
:104C2000002851D13D48006800284DD13C4800681B
:104C3000002849D13B48006800287CD127490860FA
:104C400019E006E0012014F061F8FBF709FF00B954
:104C50000BE0354909681F4A1268881A002801DBF1
:104C6000014600E041420A29ECDC00BF1B48006815
:104C7000401C1A49086019480068FA28E1DBB6EEC2
:104C8000001ADFED190A05209FED190AFEF7F1FA67
:104C900000201249086013E006E0012014F036F805
:104CA000FBF7DEFE00B905E004210B4810F02EFEF4
:104CB0000028F2D000BF09480068401C074908607E
:104CC00006480068962831E035E000000004024004
:104CD000BC030020C803002000100240780300201D
:104CE000A00000206666663F0000614400000000EE
:104CF0000000E144B0010020B4010020B403002012
:104D0000C00300203333333F000061C40000024081
:104D1000E8000020940200207C0200208002002095
:104D20008402002088020020BC000020B4DB0020A8
:104D3000FEF772F97BE0FE480068012877D1FD4854
:104D40000068002873D1FC49086019E006E00120E2
:104D500013F0DCFFFBF784FE00B90BE0F7490968AC
:104D6000F74A1268881A002801DB014600E0414238
:104D70000A29ECDC00BFF0480068401CEE490860DE
:104D8000ED480068FA28E1DBB6EE001A5FED2A0A6A
:104D900005201FED230AFEF76CFA0020E6490860A3
:104DA00014E006E0FBF75CFE00B909E0012013F017
:104DB000ADFF4FF48071E34810F0A8FD0028F1D05A
:104DC00000BFDD480068401CDB490860DA48006825
:104DD00040F20E618842E4DB0020FEF71DF9B6EEDA
:104DE000001A5FED3F0A05201FED3F0AFEF741FA6A
:104DF0000020D149086013E006E0012013F086FF8F
:104E0000FBF72EFE00B905E00421CF4810F07EFD2F
:104E10000028F2D000BFC8480068401CC64908609E
:104E2000C54800689628E7DB0020FEF7F5F810BDBE
:104E300000B5FFF7DCF8FF20C4490860C0490860EE
:104E400000BD10B5BA480068002865D1C0480068A8
:104E5000002861D1BF48006800285DD1BE480068C5
:104E6000002859D1F020BD490860BD480068BD49FF
:104E70000860BD48C07F40F00400BB49C877FFF719
:104E8000D7FF0020AC49086019E006E0012013F0CC
:104E90003DFFFBF7E5FD00B90BE0A8490968A84A0A
:104EA0001268881A002801DB014600E041420A2905
:104EB000ECDC00BFA0480068401C9F4908609E4889
:104EC0000068FA28E1DBB6EE001A5FED790A0520EA
:104ED0001FED7A0AFEF7CDF900209749086013E02C
:104EE00006E0012013F012FFFBF7BAFD00B905E060
:104EF00001219E4810F00AFD0028F2D000BF8E4824
:104F00000068401C8C4908608B4800689628E7DBE5
:104F10000020FEF781F886E0854800680128FAD174
:104F20008448006800287ED1F0208C4908609048B1
:104F300000688C4908608C48C07F40F010008A49A6
:104F4000C877FFF775FF00207B49086019E006E08D
:104F5000012013F0DBFEFBF783FD00B90BE077497E
:104F60000968774A1268881A002801DB014600E0C8
:104F700041420A29ECDC00BF6F480068401C6E49C2
:104F800008606D480068FA28E1DBB6EE001A5FEDB4
:104F9000AA0A05201FEDA40AFEF76BF90020664956
:104FA000086014E006E0012013F0B0FEFBF758FDA6
:104FB00000B906E04FF48071624810F0A7FC0028A9
:104FC000F1D000BF5C480068401C5B4908605A484B
:104FD00000689628E6DBB6EE001A5FEDBD0A0520F4
:104FE0001FEDBE0AFEF745F900205349086013E0A3
:104FF00006E0012013F08AFEFBF732FD00B905E060
:1050000001215A4810F082FC0028F2D000BF4A4823
:105010000068401C48490860474800689628E7DB5C
:105020000020FDF7F9FF53480068012838D1FFF749
:1050300059FAB6EE001A5FEDD40A08201FEDCE0A29
:10504000FEF717F900203C4908601AE006E0FBF77C
:1050500007FD00B90FE0012013F058FE402143483E
:1050600010F054FC0028F2D04FF48071354810F055
:105070004DFC0028EBD000BF2F480068401C2E4993
:1050800008602D48006840F20E618842DEDB002097
:10509000FDF7C2FF4FF47A7013F038FEFFF71EF8E9
:1050A00010BD10B52248006800286BD12848006860
:1050B0000028FAD1274800680028F6D12648006861
:1050C0000028F2D1C820254908602B4800682549EE
:1050D0000860FFF7ADFE00201749086019E006E000
:1050E000012013F013FEFBF7BBFC00B90BE01349E2
:1050F0000968134A1268881A002801DB014600E09B
:1051000041420A29ECDC00BF0B480068401C0A49F8
:10511000086009480068FA28E1DBB6EE001ADFED06
:10512000170A05209FED160AFEF7A3F80E482AE09D
:105130007C0200208C02002078030020BC000020AC
:10514000C80300200000024000100240BC03002001
:10515000800200208402002088020020F803002042
:1051600090010020D403002004000020000402402D
:1051700094010020E8000020A80100200000614404
:10518000000061C450E0C07F40F00400F949C877D6
:105190000020F949086014E006E0FBF761FC00B963
:1051A00009E0012013F0B2FD4FF48071F34810F0D4
:1051B000ADFB0028F1D000BFEF480068401CEE496D
:1051C0000860ED48006840F20E618842E4DB002090
:1051D000FDF722FFB6EE001A5FED180A05209FEDDD
:1051E000E80AFEF746F80020E349086014E006E00C
:1051F000012013F08BFDFBF733FC00B906E04FF400
:105200000061DE4810F082FB0028F1D000BFDA48D0
:105210000068401CD8490860D74800689628E6DB3B
:105220000020FDF7F9FE61E0D648006801285DD155
:10523000D5480068002859D1F020D4490860D448E6
:105240000068D4490860CB48C07F40F01000C949CD
:10525000C877FFF7EDFD0020C749086019E006E0B8
:10526000012013F053FDFBF7FBFB00B90BE0CA492B
:105270000968CA4A1268881A002801DB014600E062
:1052800041420A29ECDC00BFBB480068401CBA4917
:105290000860B9480068FA28E1DBB6EE001A5FED55
:1052A000490A05209FEDB60AFDF7E3FF0020B24949
:1052B000086014E006E0012013F028FDFBF7D0FBA6
:1052C00000B906E04FF40061AC4810F01FFB002865
:1052D000F1D000BFA8480068401CA7490860A64854
:1052E00000689628E6DB0020FDF796FEAC480068D3
:1052F000012838D1FFF7F6F8B6EE001A5FED610A23
:1053000008201FED610AFDF7B4FF00209A490860EC
:105310001AE006E0FBF7A4FB00B90FE0012013F050
:10532000F5FC40219F4810F0F1FA0028F2D04FF42C
:105330008071924810F0EAFA0028EBD000BF8E4846
:105340000068401C8C4908608B48006840F20E6180
:105350008842DEDB0020FDF75FFE4FF47A7013F029
:10536000D5FCFEF7BBFE10BD10B54FF4617148428D
:10537000FFF720F940F20910FEF747FE8848006861
:1053800000283CD188480068C0BB88480068A8BB9A
:105390009FED871A5FED870A0A201FED870AFDF748
:1053A00068FF0020744908601AE006E0FBF758FB2C
:1053B00000B90FE0012013F0A9FC4021794810F05A
:1053C000A5FA0028F2D04FF480716C4810F09EFAD4
:1053D0000028EBD000BF68480068401C66490860A0
:1053E0006548006840F20E618842DEDB0020FDF770
:1053F00013FE4FF47A7013F089FC49E0FFE7684828
:105400000068012837D19FED6B1A5FEDA40A0820D0
:105410001FEDA50AFDF72DFF0020574908601AE08F
:1054200006E0FBF71DFB00B90FE0012013F06EFC56
:1054300040215C4810F06AFA0028F2D04FF48071E5
:105440004E4810F063FA0028EBD000BF4A480068CD
:10545000401C494908604848006840F20E61884293
:10546000DEDB0020FDF7D8FD4FF47A7013F04EFC20
:10547000FEF734FE0CE04C480068012802D1FFF72B
:1054800010FE05E049480068012801D1FFF7D9FC6A
:1054900010BD2DE9F05F82460D4614461E46DDE93B
:1054A0000B9BDDF8288044490968881B002801DB34
:1054B000014600E0414201FB0BF74F4500DD4F463E
:1054C0003D480068801B404510DAE81B00EE900A5A
:1054D000F8EEE00AB0EE600A9FED381A00EE904A4E
:1054E000F8EEE00A5046FDF7C4FE22E032480068BC
:1054F000801B404510DDE81900EE900AF8EEE00A46
:10550000B0EE600A9FED2D1A00EE904AF8EEE00A28
:105510005046FDF7AEFE0CE09FED281A00EE104A53
:10552000F8EEC00A504600EE105AB8EEC00AFDF779
:10553000A0FEBDE8F09F3EB59A244FF46171484249
:10554000FFF738F800200C49086045E03AE03220C7
:1055500040F2262102222346CDE900210290184A7A
:10556000174914390720FFF794FFFBF779FA00B9C0
:105570002CE027E004000020780300200000024017
:105580000000E1447C0200208C020020F80300208F
:10559000AC010020D4030020BC000020C803002080
:1055A000E800002000040240EC000020F000002091
:1055B000CDCC4C3F3333333FA00000209A99993E25
:1055C00090FCFFFFF94800681928C0DC00BFF848CC
:1055D0000068401CF6490860F5480068B0F57A7F1D
:1055E000B4DB0020F24908601CE011E0322040F2F8
:1055F000262102222346CDE900210290ED4AED4901
:1056000014390720FFF745FFFBF72AFA00B903E03A
:10561000E94800689428E9DC00BFE5480068401CC0
:10562000E3490860E2480068B0F57A7FDDDB0020DE
:10563000FDF7F2FCFEF7E2FC4FF49670DF490860DC
:10564000DF4908603EBD2DE9F04105460E460120C8
:10565000DC4908600020DC4981F82B00FEF7CEFC15
:10566000DA4800680838D5490860D9480068083821
:10567000D3490860002415E006E0012013F046FB42
:10568000FBF7EEF900B90BE0D2490968CC4A126881
:10569000881A002801DB014600E041420A29ECDCBF
:1056A00000BF641CFA2CE7DB0020FDF7B5FC9FED82
:1056B000CA1A00EE106AF8EEC00A0C2000EE105A6A
:1056C000B8EEC00AFDF7D5FD00241CE006E001207D
:1056D00013F01CFBFBF7C4F900B912E04FF4807122
:1056E000BE4810F013F90128F1D04021BC4810F059
:1056F0000DF90128EBD08021B94810F007F90028F6
:10570000E5D000BF641C40F226208442DEDBFCF7BB
:1057100060FE06E0052013F0F9FAFBF7A1F900B9E5
:1057200014E0FBF7D3F98046FBF7A3F9071E01DB72
:10573000384600E07842B8F1000F01DB414601E055
:10574000C8F100010844B0F5967FE3DB00BF0020FC
:10575000FDF762FC7820A3490860A3480068C01EDA
:1057600097490860002415E006E0052013F0CEFA02
:10577000FBF776F900B90BE096490968904A126880
:10578000881A002801DB014600E041420A29ECDCCE
:1057900000BF641C322CE7DB40F6B83013F0B6FAD9
:1057A000B6EE001A00EE106AF8EEC00A0F2000EE06
:1057B000105AB8EEC00AFDF75CFD40F2A46013F089
:1057C000A5FA002416E006E0012013F09FFAFBF78B
:1057D00047F900B90CE00121814810F097F8012841
:1057E000F2D04FF400617D4810F090F80128EBD022
:1057F00000BF641C40F21A408442E4DB96207949E1
:105800000860794800681C306D490860B6EE001ADF
:1058100000EE106AF8EEC00A0F2000EE105AB8EE43
:10582000C00AFDF726FD00240FE006E0022013F079
:105830006DFAFBF715F900B905E001216B4810F08E
:1058400065F80128F2D000BF641C40F22620844293
:10585000EBDB002410E006E0012013F057FAFBF721
:10586000FFF800B906E04FF40051604810F04EF820
:105870000128F1D000BF641CB4F57A7FEBDB5C48F3
:105880000068012802D1FEF72DFE0CE0594800689F
:10589000012802D1FEF772FD05E057480068012893
:1058A00001D1FEF7FDFC0020FDF7B6FBFA205349BD
:1058B000086053480068C01C40490860002415E097
:1058C00006E0012013F022FAFBF7CAF800B90BE05A
:1058D0004C490968394A1268881A002801DB0146D8
:1058E00000E041420A29ECDC00BF641CFA2CE7DB33
:1058F00040F6B83013F00AFA9FED371A00EE106A3E
:10590000F8EEC00A142000EE105AB8EEC00AFDF7F7
:10591000B0FC00240FE006E0012013F0F7F9FBF7DC
:105920009FF800B905E001212D480FF0EFFF012895
:10593000F2D000BF641CFA2CEDDBFCF74AFD06E058
:10594000052013F0E3F9FBF78BF800B914E0FBF73F
:10595000BDF88046FBF78DF8071E01DB384600E0F6
:105960007842B8F1000F01DB414601E0C8F10001C7
:105970000844B0F5C87FE3DB00BFFEF73FFB40F211
:105980000B100E490860001F0D4908609FED121AA8
:1059900000EE106AF8EEC00A0C2000EE105AB8EEC5
:1059A000C00AFDF766FC00243EE000009C000020D9
:1059B0007803002090FCFFFFAC000020BC03002017
:1059C000C80300205004002004000020B803002079
:1059D000C4030020BC000020CDCC4C3E000002409F
:1059E00000040240F0030020C00300200010024029
:1059F000E8000020EC000020F0000020F40300206C
:105A0000B4030020B800002006E0012013F07EF966
:105A1000FBF726F800B905E01021F8480FF076FFF3
:105A20000128F2D000BF641C642CEDDB0020F44997
:105A30000860FDF7F1FABDE8F08110B54FF461712F
:105A40004842FFF700FE40F20910FEF7DEFA0020A0
:105A5000EC49086019E006E0012013F057F9FAF765
:105A6000FFFF00B90BE0E8490968E84A1268881AA4
:105A7000002801DB014600E041420A29ECDC00BFBE
:105A8000E0480068401CDF490860DE4800683228B2
:105A9000E1DBB6EE001ADFEDDE0A0A209FEDDD0A3B
:105AA000FDF7E7FB0020D74908601AE006E0012077
:105AB00013F02CF9FAF7D4FF00B90CE04021D648D6
:105AC0000FF024FF0028F2D04FF48071D3480FF07C
:105AD0001DFF0028EBD000BFCA480068401CC94920
