:020000040800F2
:1000000090A40120DD6001084502000847020008B5
:100010004B0200084F0200085302000800000000D5
:100020000000000000000000000000009D0100082A
:100030005702000800000000E1010008F7900108E5
:10004000F7600108F7600108F7600108F760010830
:10005000F7600108F7600108F7600108F760010820
:10006000AB040008EF040008F76001081B03000858
:10007000FD0200085D030008F76001087502000832
:10008000F760010881020008F7600108F7600108C5
:10009000F7600108F7600108F7600108F7600108E0
:1000A000F7600108C7030008F3030008F7600108C0
:1000B000F5030008230400084F040008F760010856
:1000C000F7600108F7600108F7600108A70400085D
:1000D000F76001085D020008F7600108F760010899
:1000E000F7600108F7600108F7600108F760010890
:1000F000F7600108F7600108F7600108390300089C
:10010000F7600108F76001087B040008A9040008F3
:10011000F7600108F760010899030008A5030008CB
:10012000F76001089B020008CF020008F760010891
:10013000F7600108F7600108F7600108F76001083F
:10014000F7600108F7600108F7600108F76001082F
:10015000EF020008F7600108F7600108F760010886
:10016000F7600108F7600108F7600108F76001080F
:10017000F7600108F7600108F7600108F7600108FF
:10018000F7600108F7600108DFF80CD01AF056FAA2
:1001900000480047AB5D010890A40120234B19687B
:1001A0000868B0E8F04F80F309884FF0000080F352
:1001B000118870470000000003480068006880F361
:1001C000088862B600DF00BF08ED00E0DFF80C0031
:1001D000016841F470010160704700BF88ED00E0E4
:1001E000EFF30980114B1A681EF0100F08BF20EDC5
:1001F000108A20E9F04F106008B54FF0140080F32A
:10020000118819F040FB4FF0000080F31188BDE821
:10021000084019680868B0E8F04F1EF0100F08BFDA
:10022000B0EC108A80F30988704700BF20050020D9
:10023000EFF311804FF0140181F31188704780F3C0
:1002400011887047704700BFFEE700BFFEE700BFA0
:10025000FEE700BFFEE770477047704710B540F2F9
:100260002551A34818F05BF818B12021A04818F0D8
:100270004DF810BD10B59F499F4816F085FF10BD81
:1002800010B59E499C48303016F054FF20B19B4970
:100290009948303016F078FF10BD10B5984999484C
:1002A00016F048FF90B19649964816F06DFF01F0A0
:1002B000F4FF00219048303816F092FE0821914852
:1002C00016F0AFFE01218F4816F08AFE10BD10B562
:1002D0008D498C48183016F057FF8C4840788B4970
:1002E000097840EA012000B28949088010BD10B5A4
:1002F00088498448603016F047FF10BD10B580492A
:100300007D48483816F016FF30B17D497A484838A4
:1003100016F03AFF00F0B8FA10BD10B57E497648E5
:10032000603816F007FF30B17B497348603816F02B
:100330002BFF01F0B2FF10BD10B578496E48483070
:1003400016F0F8FE48B100216B48483016F048FE20
:1003500072496948483016F017FF10BD10B56A4958
:100360006548303816F0E6FEA8B167496248303873
:1003700016F00AFF01F076FD00215F48303816F0D4
:100380002FFE08215C48303816F04BFE01215A48F8
:10039000303816F025FE10BD10B50121604817F069
:1003A0001BFD10BD10B501215E4817F015FD7A2028
:1003B0004F49888001215C4817F0C0FE01215B484D
:1003C00017F0BCFE10BD10B50121594817F004FD0F
:1003D0005748008800F0100028B156480068401EB9
:1003E0005449086004E053480068401C51490860C3
:1003F00010BD704710B50121880717F0EDFC4FF0D4
:100400008040008800F0100028B14B480068401E72
:100410004949086004E048480068401C46490860B3
:1004200010BD10B50121454817F0D6FC434800889F
:1004300000F0100028B142480068401E40490860A2
:1004400004E03F480068401C3D49086010BD10B5FD
:1004500001213C4817F0C0FC3A48008800F0100029
:1004600028B139480068401E3749086004E0364822
:100470000068401C3449086010BD10B501213348A4
:1004800017F0AAFC3148008800F0100028B130486D
:100490000068401E2E49086004E02D480068401C9A
:1004A0002B49086010BD7047704710B5042016F046
:1004B00003FFD8B12021274815F087FF04212648E3
:1004C00015F05EFF012804D10021164817F004F84A
:1004D00009E00421204815F053FF20B9114816F017
:1004E000FFFF1E49086004201D49086010BD7047C9
:1004F0000010014020800020706002400080202019
:100500000088001028640240008020104807002066
:100510008C0000200088002020800010008000282F
:10052000001000400014004000480040001401404A
:10053000000001406C00002070000020000400401A
:10054000740000200008004088000020000C0040DB
:100550007800002000000240000C024068000020EB
:10056000143C014070B50446204619F075FD05465F
:100570002146F84819F077FDA0B195222146F548AB
:1005800019F05EFD0021F44816F02AFDF148F24909
:100590000C310860F048B838C0F8BC500121EE4872
:1005A00016F01EFD70BD70B50446002510E0605DBC
:1005B00068B1615DE94817F0ECFD00BF8021E748B4
:1005C00017F097FE0028F9D0681CC5B200E070BD96
:1005D000EDE770B5044600250FE05CB12146DF4829
:1005E00017F0D7FD00BF8021DC4817F082FE0028FD
:1005F000F9D000E070BD681CC5B2032DEDDB00BF73
:10060000F8E713B50C460020FFF7E3FFD4A0FFF78F
:10061000CAFF2346D3A29621D3481AF04DF8D248F8
:10062000FFF7C1FFD1A0FFF7BEFFCEA29621CE48B3
:10063000009B1AF041F8CC48FFF7B5FFCDA0FFF7BB
:10064000B2FFFF20FFF7C5FFFF20FFF7C2FFFF202B
:10065000FFF7BFFF1CBD70B505460C46C0A0FFF7F5
:10066000A2FF2246BFA1C0481AF03EF8BE48FFF7DD
:100670009AFFBEA0FFF797FF2846FFF794FFBDA0A3
:10068000FFF791FFFF20FFF7A4FF70BD77B585B09E
:100690000546FF26B5A103C9CDE90301B5A0006851
:1006A0000290AFA00068019000240AE00020B24947
:1006B0000855B2490855AC490855A6490855601C6B
:1006C000C4B21E2CF2DB0A20A7490870FF20487034
:1006D0008870C870A3A1A948079A1AF005F8A7491D
:1006E00001A819F0A1FC01A99F4819F09DFC03A9DC
:1006F0009D4819F099FC29469B4819F095FC99A151
:100700009E48069A19F0F0FF9C49974819F08CFC16
:1007100002A9954819F088FCFF2097490870487095
:100720008870914819F080FC8F48FFF71BFF08B0D4
:1007300070BDF7B584B005460E46FF278BA103C9EF
:10074000CDE902018BA00068019085A000680090AF
:10075000002408E000208849085588490855824946
:100760000855601CC4B20A2CF4DB0A207E490870CC
:10077000FF2048708870C8707AA18048069A19F0E6
:10078000B3FF7E49684619F04FFC6946764819F078
:100790004BFC02A9744819F047FC2946724819F02D
:1007A00043FC3146704819F03FFC01A96E4819F02E
:1007B0003BFCFF2070490870487088700020C870AA
:1007C0000871694819F030FC6748FFF7CBFE07B0A5
:1007D000F0BD01B58EB06AA2322101A80E9B19F0BE
:1007E0006BFF01A8FFF7BEFE0FB000BD73B584B06C
:1007F0000546FF265DA103C9CDE902015DA00068A1
:10080000019057A00068009000240AE000205A4997
:1008100008555A490855544908554E490855601C11
:10082000C4B21E2CF2DB0A204F490870FF2048702A
:100830008870C8704BA15148059A19F055FF4F496F
:10084000684619F0F1FB6946474819F0EDFB02A92B
:10085000454819F0E9FB2946434819F0E5FB4749AB
:10086000414819F0E1FB01A93F4819F0DDFBFF20E9
:1008700041490870487088703B4819F0D5FB3A48E8
:10088000FFF770FE06B070BD10B52DED0C8B82B079
:100890003E4800783D49497808443C4989780844F5
:1008A0003A49C978084439490979084437494979A6
:1008B00008443649897908443449C9790844334998
:1008C000097A0844C0B201903048007A00F00F0065
:1008D00000909FED2F0AB0EE40DA2C48407A019943
:1008E000884271D12948007A00F00F000D286BD1A1
:1008F00026488078C0F17F0000EE100AB8EEC08A6A
:100900002248C078813800EE100AF8EEC08AB5EEB1
:10091000C08AF1EE10FA03D1B7EE000AB0EE408AB9
:10092000F5EEC08AF1EE10FA03D1B7EE000AF0EE50
:10093000408ABDEEC80A10EE102A002A01DB1346D9
:1009400000E05342BDEEE80A10EE100A002821DB59
:10095000044620E096060020B860024000500040A7
:100960007400000025640000600500202E74787477
:100970003D22000022000000460600201E06002046
:100980006A302E76616C3D256400000089070020E6
:10099000DB0F49404442191901EBD1735B10F94C4C
:1009A0002360BDEEE80A10EE101A002901DB0A46AA
:1009B00000E04A42322A0FDABDEEC80A10EE100AF1
:1009C000002802DB024601E02FE04242322A03DA2D
:1009D0000020ED49086030E018EE900A19F009FD9A
:1009E00041EC1B0B18EE100A19F003FD41EC1C0B37
:1009F000B0EE4B1AF0EE6B1AB0EE4C0AF0EE6C0A49
:100A00001AF01EF8B0EE40AAF0EE60AA9FEDDF0BE0
:100A100053EC102B51EC1A0B19F0DAFB41EC190BCB
:100A200019F0C8FCD849086007E09DF800000D28BF
:100A300003D00021D74817F081FB02B0BDEC0C8B2E
:100A400010BDD548007A00F00F000D2806D1D2481D
:100A5000007800F0010008B10D2070470020FCE78D
:100A6000CD48007800F0100008B100207047012048
:100A7000FCE71CB54FF0804016F032FDC74909680D
:100A800040EA01400C2190FBF1F00090002418E0B6
:100A90004FF0804016F024FDC049096840EA01404B
:100AA0000C2190FBF1F00190DDE90021881A00286B
:100AB00001DB014600E04142052900DA641C01988F
:100AC0000090022CE4DB019840421CBD1CB5B448E8
:100AD00016F006FDB349096840EA01400C2190FB7D
:100AE000F1F00090002417E0AD4816F0F9FCAD4994
:100AF000096840EA01400C2190FBF1F00190DDE92A
:100B00000021881A002801DB014600E04142052946
:100B100000DA641C01980090022CE5DB01981CBDF2
:100B20001CB5A14816F0DCFCA049096840EA014068
:100B30000C2190FBF1F00090002417E09A4816F089
:100B4000CFFC9A49096840EA01400C2190FBF1F082
:100B50000190DDE90021881A002801DB014600E050
:100B60004142052900DA641C01980090022CE5DB63
:100B700001981CBD1CB58E4816F0B2FC8D49096861
:100B800040EA01400C2190FBF1F00090002417E0B6
:100B9000874816F0A5FC8749096840EA01400C2106
:100BA00090FBF1F00190DDE90021881A002801DBBB
:100BB000014600E04142052900DA641C01980090DA
:100BC000022CE5DB01981CBD01B581B0002000902E
:100BD000019800EBC0004000009002E00098401E29
:100BE000009000980028F9D10CBD01B581B000201B
:100BF000009044F2506101984843009002E0009850
:100C0000401E009000980028F9D10CBD1CB50121B0
:100C10001F2015F099FD4FF6FF70009001208DF810
:100C2000040000208DF8060001208DF80700032045
:100C30008DF805006946604815F040FB4FF6FF70DF
:100C4000009001208DF8040000208DF8060001209E
:100C50008DF8070003208DF805006946574815F008
:100C60002DFB4FF6FF70009001208DF8040000204E
:100C70008DF8060001208DF8070003208DF805008F
:100C800069464F4815F01AFB1CBD1CB501217E209A
:100C900015F05AFD4FF4CE50009000208DF804005E
:100CA00001208DF8070002208DF8050069464548AF
:100CB00015F004FB4FF6C740009000208DF80400AB
:100CC00001208DF8070002208DF8050069463A489A
:100CD00015F0F4FA0420009000208DF804000120A3
:100CE0008DF8070002208DF805006946334815F09D
:100CF000E5FA4FF44C40009000208DF804000120EC
:100D00008DF8070002208DF8050069462C4815F083
:100D1000D5FA1CBD1FB54FF4E06015F0F1F936208F
:100D20008DF8000000208DF801008DF802000120F0
:100D30008DF80300684615F0E8F90121102015F040
:100D400036FD3220ADF8040040F2E730029000207A
:100D5000ADF80C00ADF8060001A91B4816F073FBB6
:100D60000121194817F038F801221146164817F0EA
:100D70000BF80021144816F0AFFB0121124816F0C1
:100D8000EBFB1FBDCC000020C8000020000000804D
:100D9000A9E781400048004089070020700000203A
:100DA000000400407400002000080040880000207B
:100DB000000C0040780000200004024000080240BF
:100DC000000C024000000240001000401FB54FF42C
:100DD000E06015F095F937208DF8000000208DF8BF
:100DE00001008DF8020001208DF80300684615F01F
:100DF0008CF90121202015F0DAFC3220ADF8040036
:100E000040F2E73002900020ADF80C00ADF806008B
:100E100001A9FE4816F017FB0121FC4816F0DCFF83
:100E200001221146F94816F0AFFF0021F74816F0ED
:100E300053FB0121F54816F08FFB1FBD00B58BB0A9
:100E40000121022015F0C4FC01210C2015F07CFCCE
:100E500003220621EE4815F0BCFA03220721EC48D4
:100E600015F0B7FA03220821E94815F0B2FA032277
:100E70000921E74815F0ADFA4FF470700690022092
:100E80008DF81C0003208DF81D0000208DF81E0039
:100E900001208DF81F0006A9DD4815F00FFAA420E7
:100EA000ADF8200040F6B83009904FF48070ADF8EE
:100EB00028000020ADF8220008A9D64816F0C3FA91
:100EC0006020ADF804000120ADF80600002003907A
:100ED000ADF810000121CF4816F03EFB0021CD48AF
:100EE00016F0FAFA01A9CB4816F042FB01A9C9484D
:100EF00016F077FB01A9C74816F0C0FB01A9C54849
:100F000016F022FC0121C34816F017FF0BB000BDFC
:100F100000B58BB00121082015F049FC01210846DD
:100F200015F012FC02220021BB4815F052FA0222F1
:100F30000121B94815F04DFA02221146B64815F0C4
:100F400048FA02220321B44815F043FA0F20069014
:100F500002208DF81C0003208DF81D0000208DF864
:100F60001E0001208DF81F0006A9AB4815F0A6F958
:100F7000BA20ADF8200042F2107009900020ADF8C0
:100F80002800ADF8220008A9A44816F05CFA6020F9
:100F9000ADF804000120ADF8060000200390ADF884
:100FA000100001219D4816F0D7FA00219B4816F049
:100FB00093FA01A9994816F0DBFA01A9974816F0AF
:100FC00010FB01A9954816F059FB01A9934816F0AA
:100FD000BBFB0121914816F0B0FE0BB000BD00B57F
:100FE0008BB00121042015F0E2FB01210D2015F04A
:100FF000ABFB02220C218A4815F0EBF902220D21ED
:10100000874815F0E6F902220E21854815F0E1F92E
:1010100002220F21824815F0DCF94FF4704006904F
:1010200002208DF81C0003208DF81D0000208DF893
:101030001E0001208DF81F0006A9794815F03EF921
:10104000A420ADF8200040F6B83009904FF480702D
:10105000ADF828000020ADF8220008A9714816F06C
:10106000F2F96020ADF804000120ADF80600002080
:101070000390ADF8100001216A4816F06DFA0021C6
:10108000684816F029FA01A9664816F071FA01A914
:10109000644816F0A6FA01A9624816F0EFFA01A911
:1010A000604816F051FB0BB000BD00B589B00121BE
:1010B000080415F08DFB0121084615F045FB0322BD
:1010C0001146554815F085F903220221524815F0C2
:1010D00080F90C20019002208DF8080003208DF883
:1010E000090000208DF80A0001208DF80B0001A9ED
:1010F000494815F0E3F80020ADF818004FF6FF70EE
:1011000007900020ADF82000ADF81A0006A9464867
:1011100016F099F90420ADF80C000020ADF80E008F
:10112000C820ADF814000120ADF8100003A93E4816
:1011300016F060FD00231A4603213C4816F0F7FE26
:1011400001213A4816F048FE01221146374816F0B0
:101150001BFE0121344816F0FFF90021334816F038
:10116000BBF909B000BD00B589B00121084615F0F2
:101170001EFB0121022015F01AFB0121032015F0AE
:10118000E3FA01220F21244815F023F9012203215B
:10119000274815F01EF902220421254815F019F9F7
:1011A00002220521224815F014F93820019002206E
:1011B0008DF8080003208DF8090000208DF80A0042
:1011C00001208DF80B0001A9194815F077F84FF4AC
:1011D0000040019002208DF8080003208DF80900DE
:1011E00000208DF80A0001208DF80B0001A90A48A3
:1011F00015F064F80020ADF818004FF6FF70079066
:101200000020ADF82000ADF81A0013E000140040F3
:10121000000802400004014000000240000C0040B1
:10122000000C024000080040000001400040014066
:101230000004024006A94FF0804016F004F906A908
:10124000FE4816F000F90420ADF80C000220ADF8BD
:101250000E001420ADF814000120ADF8100003A911
:10126000800716F0C7FC03A9F44816F0C3FC02235C
:101270001A460321580716F05AFE02231A46032184
:10128000EE4816F054FE0121880716F0A5FD012155
:10129000EA4816F0A1FD01221146900716F074FDF0
:1012A00001221146E54816F06FFD0121880716F06E
:1012B00053F90121E14816F04FF900214FF0804029
:1012C00016F00AF90021DD4816F006F94FF4C06067
:1012D00014F016FF1D208DF8000003208DF801008A
:1012E00000208DF8020001208DF80300684614F0FC
:1012F0000CFF1C208DF8000004208DF80100002058
:101300008DF8020001208DF80300684614F0FDFE00
:1013100009B000BD00B589B00121084615F058FAA2
:101320000121102015F010FA4FF4206001900220E6
:101330008DF8080003208DF8090000208DF80A00C0
:1013400001208DF80B0001A9BD4814F0B7FF012260
:101350000921BB4815F03DF801220B21B84815F0D2
:1013600038F80020ADF818004FF6FF700790002005
:10137000ADF82000ADF81A0006A9B24816F063F8DF
:101380000420ADF80C000020ADF80E000A20ADF8E6
:1013900014000120ADF8100003A9AA4816F02AFC99
:1013A00000231A460321A74816F0C1FD0121A548D4
:1013B00016F012FD01221146A24816F0E5FC0121AB
:1013C000A04816F009FD012211469E4816F0DCFCEB
:1013D00001219C4816F0C0F800219A4816F07CF8CC
:1013E0004FF4C06014F08CFE19208DF8000001202D
:1013F0008DF8010000208DF8020001208DF8030017
:10140000684614F082FE09B000BD00B589B0012124
:10141000042015F0CCF90121082015F095F94FF4BE
:101420004050019002208DF8080003208DF809003B
:1014300000208DF80A0001208DF80B0001A98248D8
:1014400014F03CFF0020ADF818004FF6FF70079035
:101450000020ADF82000ADF81A0006A97B4815F071
:10146000F2FF02220C21784814F0B3FF02220D2172
:10147000754814F0AEFF0420ADF80C000220ADF862
:101480000E00C820ADF814000120ADF8100003A92B
:101490006E4816F0AFFB02231A4603216B4816F084
:1014A00046FD0121694816F097FC01221146674864
:1014B00016F06AFC0121654816F04EF800216348D9
:1014C00016F00AF8002061491431088001205F49B4
:1014D00008804FF4C06014F013FE1E208DF8000049
:1014E00004208DF8010000208DF8020001208DF805
:1014F0000300684614F009FE09B000BD00B589B0CC
:101500000121082015F053F90121084615F01CF9B6
:101510000320019002208DF8080003208DF80900B7
:1015200000208DF80A0001208DF80B0001A9484821
:1015300014F0C4FE0020ADF818004FF6FF700790BD
:101540000020ADF82000ADF81A0006A9414815F0BA
:101550007AFF022200213E4814F03BFF02220121C3
:101560003B4814F036FF0420ADF80C000220ADF823
:101570000E00C820ADF814000120ADF8100003A93A
:10158000344816F037FB02231A460321314816F07F
:10159000CEFC01212F4816F01FFC012211462D48D8
:1015A00016F0F2FB01212B4815F0D6FF0021294847
:1015B00015F092FF002027491431088001202549A9
:1015C00008804FF4C06014F09BFD32208DF80000BD
:1015D00004208DF8010000208DF8020001208DF814
:1015E0000300684614F091FD09B000BD00B59BB042
:1015F0000121194815F0A8F80121080215F0E8F8B2
:101600000020029015480390154804900020059092
:101610000E200690002007904FF480600890400054
:10162000099080000A9040110B9040020C9000201D
:101630000D9001200E9000200F9013E00004004058
:101640000010024000000140000C02400008004071
:1016500000000240000C0040070040004C20014008
:101660002C070020109002A9FE4815F07FFC0121F4
:10167000FC4815F0B5FCFC20009003208DF8040018
:1016800000208DF807006946F74814F017FE4FF464
:101690004070009003208DF8040000208DF80700B2
:1016A0006946F24814F00AFE3F20009003208DF8AE
:1016B000040000208DF807006946ED4814F0FEFD97
:1016C000002011904FF4403012900020139014909D
:1016D00011A815F0B1F94FF08070159001208DF828
:1016E00058008DF8590000201790189019900E207E
:1016F0008DF8680015A9DF4815F06FF9072301225E
:101700000221DC4815F0EFF9072302220321D94812
:1017100015F0E9F9072303220421D64815F0E3F96F
:10172000072304220521D34815F0DDF907230522FC
:101730000621D04815F0D7F9072306221946CD48CF
:1017400015F0D1F907231A460821CA4815F0CBF93C
:10175000072308220921C74815F0C5F907230922E4
:101760000A21C44815F0BFF907230A220B21C148FA
:1017700015F0B9F907230B220C21BE4815F0B3F977
:1017800007230C220D21BB4815F0ADF907230D22CC
:101790000E21B84815F0A7F907230E220F21B548EE
:1017A00015F0A1F90121B34815F048FA0121B1481B
:1017B00015F039FA0121AF4815F055F9AD4815F08B
:1017C000EEF91BB000BD08B54FF4E06014F098FCD2
:1017D00025208DF8000000208DF801008DF8020012
:1017E00001208DF80300684614F08FFC08BD10B589
:1017F00096B004460121102014F0EAFF01210846AA
:1018000014F0A2FF0121880514F09EFF4FF4C06080
:10181000009002208DF8040000208DF806008DF85D
:10182000070002208DF8050069468F4814F046FD38
:10183000072209218C4814F0CCFD07220A218A488E
:1018400014F0C7FD02940020ADF80C00ADF80E00B6
:10185000ADF81000ADF814000C20ADF8120002A98C
:10186000854816F0E3FB0121834816F067FC4FF42E
:10187000A06014F045FC3A208DF8180000208DF887
:1018800019008DF81A0001208DF81B0006A814F02D
:101890003CFC7448303015F0C7FA4FF000600790F8
:1018A00000200A90754809900A200B907248001D8C
:1018B000089000200C904FF480600D9000200E9056
:1018C0000F904FF4807010904002119004201290FD
:1018D0000320139000201490159007A96148303020
:1018E00015F044FB01224021634816F0D4FC01228C
:1018F00010215C48303015F000FC0121594830308F
:1019000015F06EFB16B010BD10B596B0044601215F
:10191000480514F019FF0121480414F048FF012183
:10192000082014F011FF6020009002208DF80400C0
:1019300000208DF806008DF8070002208DF80500C4
:1019400069464F4814F0BAFC072205214C4814F0B0
:1019500040FD072206214A4814F03BFD0294002076
:10196000ADF80C00ADF80E00ADF81000ADF81400A5
:101970000C20ADF8120002A9424816F057FB0121D5
:10198000404816F0DBFB4FF4A06014F0B9FB1120C7
:101990008DF8180000208DF819008DF81A0001202C
:1019A0008DF81B0006A814F0B0FB374815F03CFA80
:1019B0004FF00060079040200A9034480990502072
:1019C0000B903048001D089000200C904FF4806070
:1019D0000D9000200E900F904FF4807010904002F8
:1019E0001190042012900320139000201490159061
:1019F00007A9254815F0BAFA01228021214816F0DE
:101A00004AFC012280211F4816F045FC01221021CA
:101A10001D4815F072FB01211B4815F0E1FA16B0C4
:101A200010BD10B596B004460121880414F0BFFE25
:101A30000121082014F088FE0121480514F084FEDD
:101A40004FF44070009002208DF8040000208DF8C3
:101A500006008DF8070002208DF805006946084849
:101A600016E0000010640240000002400004024042
:101A700000080240002001400010014048070020FB
:101A8000000C024000440040A0600240040000201E
:101A900014F014FC07220821FE4814F09AFC0722D7
:101AA0000921FC4814F095FC02940020ADF80C00CC
:101AB000ADF80E00ADF81000ADF814000C20ADF834
:101AC000120002A9F44816F0B1FA0121F24816F00A
:101AD00035FB4FF4A06014F013FB0C208DF81800B8
:101AE00000208DF819008DF81A0001208DF81B00D8
:101AF00006A814F00AFBE94815F096F94FF00060CB
:101B0000079000200A90E64809900A200B90E248CE
:101B1000001D089000200C904FF480600D90002074
:101B20000E900F904FF4807010904002119004209E
:101B300012900320139000201490159007A9D74805
:101B400015F014FA01224021D34816F0A4FB01221B
:101B50004021D14816F09FFB01221021CF4815F0FB
:101B6000CCFA0121CD4815F03BFA16B010BD10B5E6
:101B700096B004460121C80414F019FE0121042086
:101B800014F0E2FD0121480514F0DEFD4FF4406041
:101B9000009002208DF8040000208DF806008DF8DA
:101BA000070002208DF805006946BE4814F086FB48
:101BB00008220A21BB4814F00CFC08220B21B9486A
:101BC00014F007FC02940020ADF80C00ADF80E00F4
:101BD000ADF81000ADF814000C20ADF8120002A909
:101BE000B14816F023FA0121AF4816F0A7FA4FF4D6
:101BF000A06014F085FA0D208DF8180003208DF8F0
:101C0000190001208DF81A008DF81B0006A814F0A9
:101C10007CFAA248183015F007F94FF000600790E1
:101C200000200A90A148099008200B909E48001DB2
:101C3000089000200C904FF480600D9000200E90D2
:101C40000F9010904FF4003011900020129003205C
:101C5000139000201490159007A99048183015F0A3
:101C600085F901224021904816F015FB01228021C0
:101C70008D4816F010FB012210218848183015F00D
:101C80003CFA01218548183015F0AAF916B010BDAC
:101C900070B5874C2468642C00DB70BD854C2488AB
:101CA00004EB8404844D2C446070824C248804EB43
:101CB00084042C44A1707F4C248804EB84042C44BD
:101CC000E2707C4C248804EB84042C442371794C0E
:101CD0002488641C642594FBF5F605FB1644754DB9
:101CE0002C80734C2468641C714D2C6000BFD4E7B9
:101CF00001466F48006808B9002070476F480088A7
:101D000000EB80006C4A104402680A600079087198
:101D10000120F2E701466648006808B900207047D4
:101D20006648008800EB8000634A104402680A603D
:101D30000079087161480088401C642290FBF2F32E
:101D400002FB13005D4A108059480068401E584A43
:101D500010600120E3E70CB56846FFF7DBFF0020C9
:101D6000574908700CBD70B504460D46012C0BD1C7
:101D70002946544816F00DFA00BF4021514816F08C
:101D8000B8FA0028F9D036E0032C0BD12946424896
:101D900016F0FFF900BF40213F4816F0AAFA0028CC
:101DA000F9D028E0042C0BD129463F4816F0F1F970
:101DB00000BF40213C4816F09CFA0028F9D01AE0F8
:101DC000052C0BD12946404816F0E3F900BF40210D
:101DD0003D4816F08EFA0028F9D00CE0062C0AD106
:101DE00029463A4816F0D5F900BF4021374816F089
:101DF00080FA0028F9D070BD2DE9F04702240125B2
:101E0000022600274FF000084FF003096019304404
:101E1000384440442E490978084400F0FF0A21461E
:101E20000620FFF7A0FF29460620FFF79CFF31465A
:101E30000620FFF798FF39460620FFF794FF41463A
:101E40000620FFF790FF224801780620FFF78BFF5E
:101E500051460620FFF787FF49460620FFF783FF1C
:101E6000BDE8F08710B5114800781049497808445A
:101E70000E49897808440D49C97808440B49097905
:101E800008440A4949790844C4B20848007802283D
:101E900020D010BD000C02400048004028600240E5
:101EA0008907002000080240004C00404702002043
:101EB0005402002058020020980700205A020020F7
:101EC0005D0200200010014000500040001401405D
:101ED00060020020FC48C079032800D010BDFA48F9
:101EE0008079A04263D1F8484078F8490870F648F4
:101EF0008078F7490870F448C078F6490870F248CD
:101F00000079F5490870F0484079F4490870EF48C5
:101F1000007801280AD1EE480078022806D1084648
:101F20000078EF490860FFF767FF49E0E74800786D
:101F3000022807D1E6480078012803D10020E949AA
:101F400008603DE0E148007802280ED1E0480078C2
:101F500002280AD1E1480378DF480278DD48017899
:101F6000DB480078FFF794FE2AE0D8480078022882
:101F700008D1D7480078032804D1D8480078DA4936
:101F800008601DE0D1480078022819D1D0480078B7
:101F9000042815D1CF480078D4490860CE4800788D
:101FA000D3490860CD480078D249086008E0FF2096
:101FB000C7490870C7490870C7490870C749087001
:101FC00000BF8BE710B596B004460121480514F018
:101FD000BBFB0121080514F0EAFB01210C2014F0E1
:101FE000B3FB0420009002208DF8040000208DF83F
:101FF00006008DF8070002208DF805006946BE48EE
:1020000014F05CF94FF48050009002208DF8040029
:1020100000208DF806008DF8070002208DF80500DD
:102020006946B64814F04AF908220221B24814F071
:10203000D0F908220C21B14814F0CBF94FF4A0607C
:1020400014F05EF82F208DF8180005208DF8190087
:102050008DF81A0001208DF81B0006A814F055F821
:102060000B208DF8180005208DF819008DF81A0046
:1020700001208DF81B0006A814F047F802940020F8
:10208000ADF80C00ADF80E00ADF81000ADF814007E
:102090000C20ADF8120002A9994815F0C7FF0121E4
:1020A000974816F04BF8974814F0BEFE4FF00060CA
:1020B000079040200A90944809900A200B9090487D
:1020C000001D089000200C904FF480600D900020BF
:1020D0000E900F9010904FF400301190002012904D
:1020E0000320139000201490159007A9854814F040
:1020F0003DFF8448A83814F097FE4FF00060079029
:1021000000200A908148099005200B907C48001D12
:10211000089000200C904FF480600D9000200E90ED
:102120000F9010904FF40030119000201290032077
:10213000139000201490159007A97248A83814F045
:1021400015FF012280216E4816F0A5F801224021DA
:102150006B4816F0A0F8012210216A4814F0CDFF58
:10216000012210216748A83814F0C7FF01216548F3
:1021700014F036FF01216348A83814F031FF16B07F
:1021800010BD10B596B004460121202014F020FBAC
:102190000121042014F0D8FA0121880514F0D4FAA2
:1021A000C020009002208DF8040000208DF8060069
:1021B0008DF8070002208DF8050069464F4814F09D
:1021C0007DF8082206214D4814F003F90822072162
:1021D0004A4814F0FEF802940020ADF80C00ADF867
:1021E0000E00ADF81000ADF814000C20ADF8120090
:1021F00002A9474815F01AFF0121454815F09EFF36
:102200004FF4A06013F07CFF39208DF818000320F4
:102210008DF8190001208DF81A008DF81B0006A812
:1022200013F073FF3B4814F0FFFD4FF02060079060
:1022300000200A903848099008200B903448001D6F
:10224000089000200C904FF480600D9000200E90BC
:102250000F9010904FF40030119000201290032046
:10226000139000201490159007A92A4814F07EFEC0
:1022700001224021264816F00EF801228021244830
:1022800016F009F801221021224814F036FF01212E
:10229000204814F0A5FE16B010BD1F4909781E4A4B
:1022A000527811441C4A927811441B4AD278114446
:1022B000194A12791144184A52791144C8B2164980
:1022C000097802292AD07047470200204F020020D7
:1022D0005002002051020020520200205302002030
:1022E0006002002064020020680200206C020020CE
:1022F0007002002074020020000C0240000802401E
:1023000000500040B8600240960600208C09002072
:10231000001401402864024078020020F749C9797E
:10232000032900D07047F5498979814218D1F349D2
:102330004978F34A1170F1498978F24A1170EF49EE
:10234000C978F14A1170ED490979F04A1170EB49E9
:102350004979EF4A1170ED490978EE4A117006E0AB
:10236000FF21E94A1170E94A1170E94A117000BF72
:10237000D8E700B585B00121082014F0E5F9012166
:10238000880314F025FA00208DF8100001208DF844
:1023900013000C20039003A9DF4813F08FFF0221E4
:1023A000032016F011F80420009000208DF804009E
:1023B00010208DF8050001208DF80600684614F005
:1023C00015FF08208DF8080000208DF809008DF811
:1023D0000A0001208DF80B0002A813F096FE05B04C
:1023E00000BD0020CD494862CD490860CD49086054
:1023F000CD49086070470020C8494862C849086054
:102400004FF080414862C9490860C9490860C9491C
:102410000860C4490860C4490860C7490860C749E2
:102420000860704700204FF080414862BF49086053
:1024300070470020BE490860BE490860704710B56B
:102440000020BF490870002407E061210120FFF748
:102450008AFC3220FEF7C9FB641C022CF5D3012054
:10246000B74908707A20B749087010BD10B5002030
:10247000B5490870002407E061210320FFF773FCD1
:102480003220FEF7B2FB641C022CF5D30120AE49CA
:1024900008707A20AD49087010BD2DE9F14FAEB03B
:1024A000ABA02D9000202C908DF888008DF8600056
:1024B0002E98152833D2DFE800F00B333C434A5105
:1024C000585F666D747B828B949BA2FEFDFCFB00C3
:1024D0000221A84813F054FF88B100224FF40041B4
:1024E000A54813F06BFF4FF40041A34813F055FFCC
:1024F000044600222146A1A0FEF7C8F80FE0012201
:10250000D1039D4813F05AFF4FF400419A4813F04D
:1025100044FF044600222146A0A0FEF7B7F87DE262
:102520000122A648B0F900004142A5A0FEF7AEF88E
:1025300074E20222A4480168A4A0FEF7A7F86DE2A5
:102540000322A7480168A7A0FEF7A0F866E20422CC
:10255000A8480168A8A0FEF799F85FE20522AA48FA
:102560000168AAA0FEF792F858E20622AB4801687B
:10257000ABA0FEF78BF851E20722AD480168ADA091
:10258000FEF784F84AE20822AD480168ADA0FEF7E4
:102590007DF843E20922AE480168AEA0FEF776F866
:1025A0003CE20A22AE480168AEA0FEF76FF835E2C1
:1025B0000B22B0480168B0A0FEF768F82EE2FEF7E3
:1025C00058FA04460C222146B0A0FEF75FF825E237
:1025D000FEF77CFA04460D222146AFA0FEF756F81E
:1025E0001CE20E22AF480168AFA0FEF74FF815E2DB
:1025F0000F22B0480168B0A0FEF748F80EE20121B2
:10260000B04813F0BDFE4FF4005117905A4813F034
:10261000B7FE04460221AB4813F0B2FE05464FF464
:102620008041554813F0ACFE06460421A54813F03E
:10263000A7FE4FF400411690A24813F0A1FE0746F2
:102640000821A04813F09CFE80464FF480419D482D
:1026500013F096FE814610219A4813F091FE4FF434
:1026600000511590974813F08BFE824608212A48A6
:1026700013F086FE4FF480511490924813F080FEC0
:1026800010211390244813F07BFE4FF480611290C8
:102690008C4813F075FE834680218A4813F070FE43
:1026A0004FF480711190874813F06AFE109003E098
:1026B000ACE1A4E19CE11BE11798CDE90B65CDE904
:1026C0000D401698CDE90798CDE90970DDE91312A0
:1026D0001598CDE9042A03910690DDE91110CDE9A2
:1026E000001B029078A2282122A8109B17F0E4FF7B
:1026F000102222A97DA0FEF71CF88FE178020020AD
:10270000800200208102002082020020830200203B
:102710008402002085020020000C024000000140DD
:102720006C00002024080040880000207000002079
:102730002404004074000020240C00407800002095
:1027400091000020900000209300002092000020C3
:102750003131313131313131313131313131313169
:10276000313131313131303131313131313131315A
:10277000000000000004024000080240524F424F97
:102780005420322044414E47204348415920534170
:102790004E2058414E483A2020200000524F424FD0
:1027A0005420322044414E47204348415920534150
:1027B0004E20444F3A202020000000008C000020D2
:1027C000494D553A00000000B800002054726F20B7
:1027D0006368616E205472756F633A2000000000D8
:1027E000BC00002054726F206368616E20536175D5
:1027F0003A202000B000002054726F20786F617979
:102800002074617920000000C000002054726F2005
:10281000646179207461792031200000C4000020B7
:1028200054726F2064617920746179203220000035
:10283000A40000204C617A65722070686169000014
:10284000A00000204C617A657220747261692000DA
:10285000980000204C617A65722073617500000059
:102860009C0000204C617A6572207472756F632041
:102870000000000054020020636F756E745F646195
:1028800074615F756172743420000000454E434FDF
:102890004445525F464C2000454E434F4445525FED
:1028A000465220006C020020646F5F6C65636820F4
:1028B000000000006802002069645F6461745F6862
:1028C0006F70200000100240256425642564256493
:1028D00025642564256425642564256425642564B0
:1028E000256425642564256400000000493A000041
:1028F0008021F94813F044FD04460121F64813F005
:102900003FFD05464021F44813F03AFD06464FF4DA
:102910000041F24813F034FD07464FF48051F0486F
:1029200013F02EFD80464FF48061EB4813F028FD34
:1029300081464FF40061EA4813F022FD4FF4006134
:102940001790E54813F01CFD82464FF48061E34880
:1029500013F016FD83464FF48051DF4813F010FD4D
:102960004FF400611690DD4813F00AFD4FF400515A
:102970001590D94813F004FD4FF480411490D748C6
:1029800013F0FEFC4FF480411390D34813F0F8FC91
:102990004FF480711290D24813F0F2FC4FF40041D2
:1029A0001190CD4813F0ECFCCDE90B76CDE90D5438
:1029B00010901798CDE907A0CDE90998DDE9152118
:1029C0001498CDE9051BCDE90302DDE91112139836
:1029D000CDE900120290AFF21012282122A8109B1C
:1029E00017F06AFE112222A9BEA0FDF7A2FE15E093
:1029F000BE4841891222BEA0FDF748FE0EE0132218
:102A0000BF480168BFA0FDF741FE07E01422C0489F
:102A10000168AFF2B010FDF739FE00BF00BF2FB064
:102A2000BDE8F08F10B50121BA4814F0D9FA10BDF5
:102A300001B5B94800680099884203DD0020B64915
:102A4000086004E0B4480068401CB3490860B2481C
:102A50000068FFF722FD08BD01B59DF800000528BC
:102A600001DA002008BD9DF80000FBE730B5044600
:102A70001D4624B9A9480078A94BD87011E0002C54
:102A800007DDE0B2FFF7E8FFA54BD8700020987093
:102A900007E06342D8B2FFF7DFFFA14BD8700120F7
:102AA000987021B99D4800789D4BD87111E000299C
:102AB00007DDC8B2FFF7D0FF994BD871012098719C
:102AC00007E04B42D8B2FFF7C7FF954BD871002003
:102AD000987122B991480078914BD87211E0002A80
:102AE00007DDD0B2FFF7B8FF8D4BD8720120987286
:102AF00007E05342D8B2FFF7AFFF894BD8720020EE
:102B0000987225B985480078854BD87311E0002D5F
:102B100007DDE8B2FFF7A0FF814BD873012098735F
:102B200007E06B42D8B2FFF797FF7D4BD8730020C8
:102B3000987330BD7A4AD070D071D072D07370471C
:102B40007748C07803280DDA7548C079032809DA78
:102B50007348C07A032805DA7148C07B032801DA7C
:102B6000012070470020FCE701206E490860704793
:102B70006D48006847F23051884201D0012070470B
:102B80000020FCE710B5FFF75AFC10BD6748B0F90C
:102B9000000040427047B5EEC00AF1EE10FA09D2CB
:102BA0006348D0ED000A70EE600AFDEEE00A10EE18
:102BB000900A70475E48D0ED000A70EE200AFDEEE4
:102BC000E00A10EE900AF4E710B52DED0A8B0446EA
:102BD00024B99FED580ABDEC0A8B10BD002C25DAF4
:102BE0005548006817F0D5FB41EC190B204617F04B
:102BF000D0FB41EC1C0B9FED510B53EC102B17F04D
:102C0000E7FA41EC1B0B9FED4F0B53EC102B17F029
:102C1000D9FA41EC1A0B53EC192B17F04BFB41EC92
:102C2000180B17F0F9FB00EE100AD4E742480068D1
:102C300017F0AFFB41EC190B204617F0AAFB41EC53
:102C40001C0B9FED3E0B53EC102B17F0C1FA41EC1F
:102C50001B0B9FED3C0B53EC102B17F012FA41ECC1
:102C60001A0B53EC192B17F025FB41EC180B17F03E
:102C7000D3FB00EE100AAEE7F0EE400AF5EEC00A14
:102C8000F1EE10FA02DBB0EE600A7047B1EE600AB6
:102C9000FBE70146002901DB084670474842FCE794
:102CA00001462A48D0ED000AF1EE600A2848D0ED2E
:102CB000001A80EEA11A00EE901AF8EEE01A2348EE
:102CC000D0ED000A41EE210AB0EE600AFDEEC00A26
:102CD00010EE900A7047000000040240000C024011
:102CE00000000240696E323A000000002C0700200C
:102CF0005175616E675F74726F203A2000000000AA
:102D000064020020636F5F7661745F63616E200010
:102D10009C000020A060024084000020F0020020FF
:102D20000400002054030020180300208C00002021
:102D3000B002002000000000040300209A99999935
:102D40009999B93F333333333333D33FE80200200B
:102D5000EC020020B0EE402ADFEDFA2AB0EE620A63
:102D6000B5EEC02AF1EE10FA03D2F1EE422AB0EE2F
:102D7000622AF5EEC00AF1EE10FA03D2F1EE602AF3
:102D8000F0EE620AB5EEC01AF1EE10FA03D2F1EEDF
:102D9000412AB0EE621AF5EEC01AF1EE10FA03D233
:102DA000F1EE612AF0EE621AB4EEC02AF1EE10FAEA
:102DB00001DDB0EE420AF4EEC00AF1EE10FA01DDD8
:102DC000B0EE600AB4EEC01AF1EE10FA01DDB0EE1A
:102DD000410AF4EEC01AF1EE10FA01DDB0EE610A1C
:102DE0007047D94800687047D8480068704710B5E8
:102DF0002DED028BB0EE408AD548006847F2305185
:102E000088420ED11FED350AD24880ED000AD24823
:102E100080ED000AD14880ED000AD14880ED000A1B
:102E20004AE0D0480068D0490968401AC849096892
:102E3000081A00EE100AB8EEC00AF0EE408ACB483D
:102E4000D0ED000A88EEA00AC948D0ED000A30EEA5
:102E5000200AC848D0ED000A20EE200AF0EE408A91
:102E6000B0EE680A17F08CFFF0EE000A20EE200AA0
:102E7000B84880ED000AB0EE680A17F0D9FEF0EE0F
:102E8000000A20EE200AB44880ED000AB14890ED17
:102E9000000AB948D0ED000A30EE200AB04880EDB3
:102EA000000AAD4890ED000AB348D0ED000A30EEBC
:102EB000600AAA4880ED000AB5EEC08AF1EE10FA69
:102EC00073D0AE480068052820D2DFE800F0032068
:102ED0003A546F00A24890ED000A30EE080A80EDE7
:102EE000000A9E4890ED000A30EE480A80ED000A84
:102EF000994890ED000A30EE080A80ED000A9548E6
:102F000090ED000A30EE480A80ED000A68E0934830
:102F100090ED000A30EE480A80ED000A8E4890EDF0
:102F2000000A30EE080A80ED000A8A4890ED000A97
:102F30009348D0ED000A08EE600A864880ED000A4A
:102F40004EE0874890ED000A30EE080A80ED000A56
:102F5000814890ED000A8A48D0ED000A08EE200A68
:102F60007D4880ED000A7B4890ED000A30EE480A6B
:102F700080ED000A34E07A4890ED000A30EE080A4D
:102F800080ED000A754890ED000A7D48D0ED000AFA
:102F900008EE600A714880ED000A6E4890ED000A64
:102FA00030EE480A80ED000A1AE01AE06C4890ED15
:102FB000000A7348D0ED000A08EE200A684880ED48
:102FC000000A664890ED000A30EE480A80ED000ADB
:102FD000614890ED000A30EE080A80ED000A00BF5B
:102FE00000BF5C48D0ED001A5B4890ED001A5B48CA
:102FF000D0ED000A5A4890ED000AFFF7ABFE614899
:10300000D0ED000AF8EEE00A80EE801ABDEEC10AAB
:103010005D4880ED000A4C4800685B4909688842B9
:1030200003DD594800684849086001205749086095
:10303000BDEC028B10BD10B5044600205449086059
:1030400054480460FCB900203F4908601FEDC70ADE
:10305000494880ED000A47F230503D4908604E492A
:1030600008601FEDCC0A4D4880ED000A002043495E
:1030700008604B490860354908604A4908601FEDFF
:10308000D30AFFF7B4FE10BD10B5444890ED000A16
:10309000B5EEC00AF1EE10FA05D13848006810B953
:1030A0003F48006890B11FEDDD0A3C4880ED000A02
:1030B0000020324908603A4908602A4800682A49D5
:1030C0000860364890ED000AFFF791FE10BD3648C3
:1030D000C0ED000A354880ED000A704770B52DED4F
:1030E000028B05460C46B0EE408A19480068A8429B
:1030F0000BD127480068A04207D11F4890ED000A75
:10310000B4EE480AF1EE10FA18D0214804600E48D7
:10311000006810B905200C4908601248006812497F
:103120000860154880ED008A0948056000202049A4
:1031300008601A4890ED000AFFF759FEBDEC028BBB
:1031400070BD00006F12833A04030020300300209A
:1031500018030020500300204C03002048030020E7
:10316000440300203803002024030020C80200206C
:10317000D4020020F80200202C03002000030020CD
:10318000B8020020AC0200200C030020FC0200204A
:1031900008030020100300201C0300202803002047
:1031A0002003002054030020E8020020EC0200204D
:1031B0001403002070B52DED028B0446B0EE408A5A
:1031C0000D46FE480068A0420BD1FD4890ED000A74
:1031D000B4EE480AF1EE10FA03D1FA480068A842AA
:1031E0003AD0F948006847F23051884225D11E2074
:1031F000F6490860F648006810B90A20F4490860EA
:1032000047F23050844218DA0120F2490860B5EEE6
:10321000C08AF1EE10FA03DDEF480068A04208DC36
:10322000B5EEC08AF1EE10FA07D2EB480068A04272
:1032300003DAB1EE480AB0EE408AE0480460E148A3
:103240000560DF4880ED008A0020E4490860DC4822
:1032500090ED000AFFF7CBFDBDEC028B70BD10B501
:103260002DED028BB0EE408A04462146B0EE480AAE
:1032700047F23050FFF79EFFBDEC028B10BD70B5DA
:1032800004460D469FEDD60A29462046FFF726FF45
:1032900070BD70B52DED088BF0EE408A0446B0EE9F
:1032A000608AB0EE419ACF4890ED000AB8EEC00AAD
:1032B000B4EE680AF1EE10FA0DD1C4480068A042DD
:1032C00009D1BE4890ED000AB8EEC00AB4EE480A33
:1032D000F1EE10FA5ED0BDEEE80AC24880ED000AB9
:1032E000BD4991ED000AB8EEC00A38EEC00ABDEE45
:1032F000C00A10EE100A9FEDBA0A2146FFF7EEFE53
:10330000B54890ED000AB8EEC00A38EE400ABDEEAE
:10331000C00A10EE105A002D01DB284600E068427A
:10332000642814DDAC4890ED000AB8EEC00AB4EE93
:10333000C08AF1EE10FA02DDB0EE490A01E0B1EE0A
:10334000490A10EE101A084617F053F813E0A24885
:1033500090ED000AB8EEC00A38EE400A10EE101ADE
:10336000084617F046F841EC1B0B9FED9F0B53EC02
:10337000102B16F02DFF41EC1A0B17F04DF809EE4B
:10338000900A0021B0EE690AFDEEC80A10EE900A1C
:10339000FFF710FFBDEC088B70BD10B58D480068BD
:1033A00001283DDD854909688B4A1268881AFFF7B4
:1033B00070FC06280CDA874801680068401C854AC2
:1033C0001060B1F5FA7F2BDD0020FFF734FE10BD51
:1033D00080480068FA2808DD05207C4908607C499F
:1033E0000860FB207B49086004E0052077490860FD
:1033F000774908607848006870490968884205DDA7
:10340000BFEE000A6E4880ED000A04E0B7EE000A45
:103410006B4880ED000A6A4890ED000AFFF7E7FC70
:1034200000BFD4E710B52DED028B714890ED000A76
:10343000B5EEC00AF1EE10FA08D16548006828B16F
:103440005E48006847F23051884202DBBDEC028BD7
:1034500010BD5B4890ED000AB5EEC00AF1EE10FA1F
:103460007ED05948006847F23051884279D154489B
:1034700090ED000AB5EEC00AF1EE10FA08DD4F48F3
:1034800000685C490968401A53490968884210DBA2
:103490004B4890ED000AB5EEC00AF1EE10FA7CD26E
:1034A000464800685349096808444B4909688842FE
:1034B00073DD4848006803285CDA40490968464AD9
:1034C0001268881AFFF7E5FB0A2816DA3B480068FD
:1034D0004949086000203E4908603C4908609FED6A
:1034E000400A374880ED000A02203A490860344813
:1034F00090ED000AFFF77BFCA8E7304800683649EA
:103500000968884237DD324890ED000AB8EEC00AFB
:103510002B48D0ED000A60EE200A364890ED000AF4
:10352000B8EEC00AC0EE801AB0EE611AB0EE410AE1
:10353000FFF7A2FB21490968274A1268881AFFF79A
:10354000A8FB00EE900AB8EEE01A2C48D0ED000A75
:1035500040EE010A1E4890ED000AB8EEC00A01E0F4
:10356000CBE068E080EE801AB0EE418AB0EE480A07
:10357000FFF73DFCC0E0164890ED000AB8EEC00A27
:103580000F48D0ED000A60EE200A1A4890ED000ABC
:10359000B8EEC00AC0EE801A00E046E0B0EE611A54
:1035A000B0EE410AFFF768FB044909680A4A12684D
:1035B000881AFFF76EFB00EE900A21E0200300203E
:1035C0002803002000030020180300200803002027
:1035D00004030020300300203803002014030020DF
:1035E000000000001C0300207B14AE47E17A743F0A
:1035F0002C030020E402002034030020C402002039
:10360000B8EEE01AFE48D0ED000A50EE410AFD483F
:1036100090ED000AB8EEC00A80EE801AB0EE418A42
:10362000B0EE480AFFF7E3FB66E0F74890ED000ACA
:10363000FFF7DDFB60E0F44890ED000AB5EEC00A4C
:10364000F1EE10FA1FDDF14890ED000AB8EEC00A65
:10365000EC48D0ED000AF8EEE00AEB4890ED001AD5
:1036600000EEC10AEA48D0ED000AF8EEE00A70EE7A
:10367000600AE84890ED000AB8EEC00AF4EEC00A0D
:10368000F1EE10FA27D3E04890ED000AB5EEC00A3B
:10369000F1EE10FA2BD2DD4890ED000AB8EEC00A28
:1036A000D848D0ED000AF8EEE00AD74890ED001AAD
:1036B00000EEC10AD648D0ED000AF8EEE00A70EE3E
:1036C000200AD44890ED000AB8EEC00AF4EEC00A11
:1036D000F1EE10FA0BDDCD490968CE4A1268881A5E
:1036E000FFF772FAB0EE408AFFF781FB04E0C648AC
:1036F00090ED000AFFF77BFBA8E6C7490968C54AB9
:103700001268881AFFF760FAB0EE408AFFF76FFB85
:1037100000BF9BE600B5C1480068022815DA1FED1E
:10372000500ABF4880ED000A1FED530AB64880EDED
:10373000000A0020BB49086047F23050BA490860CF
:10374000BA4908600020B1490860B9480068401CC7
:10375000B7490860B7490968884204DAB648006882
:10376000FFF7E8F90EE0B3480068B1490860B348D4
:10377000006820B1B0480068FFF7DCF902E00020E3
:10378000FFF7D8F900BDAA4A1268521CA84B1A606C
:10379000824207DD9B4A12680A449A4B1A60002253
:1037A000A34B1A6070472DE9F041FFF7EFF99949F3
:1037B0000860FFF7F2FDA2480068002821DD91486B
:1037C00000689F49096888422AD08E4800689C4951
:1037D000096888420EDA8B4800689A49096888426D
:1037E0001EDA88480068FFF75BFA04460121FFF7FC
:1037F000CAFF15E04FF0FF3193480068FFF7C3FFA1
:103800000EE080480068002806DD4FF0FF318F4849
:103810000068FFF7B8FF03E0FFF77CFFBDE8F08129
:103820008B4800687B490968884205D0FFF7FAFD9C
:10383000784800688649086086480068F0B3714897
:10384000D0ED000AF8EEE00A834890ED001A60EE31
:10385000810AB0EE600AFFF79EF904466948D0ED90
:10386000000AF8EEE00A7D4890ED001A60EE810A49
:10387000B0EE600AFFF78FF905466248D0ED000A06
:10388000F8EEE00A764890ED001A60EE810AB0EE9C
:10389000600AFFF780F906465A48D0ED000AF8EEB4
:1038A000E00A704890ED001A60EE810AB0EE600AFE
:1038B000FFF771F9074623462A4600E002E0314649
:1038C000FFF7D4F800BFA9E7674801680068401C0B
:1038D000654A1060462907D26448408B64490968EC
:1038E0000844634908600BE0614800684621B0FB6A
:1038F000F1F06049086000205B4908605C4908609D
:103900005D4801680068401C5B4A1060462907D288
:103910005648008B594909680844584908600BE02B
:10392000564800684621B0FBF1F055490860002078
:103930005149086051490860524801680068401CBC
:10394000504A1060462907D24848808A4E49096883
:1039500008444D4908600BE04B4800684621B0FB25
:10396000F1F04A490860002046490860464908606D
:10397000474801680068401C454A1060462907D244
:103980003A48C08A434909680844424908600BE044
:10399000404800684621B0FBF1F03F490860002034
:1039A0003B4908603B4908603C4801680068401C8E
:1039B0003A4A1060322907D22C48408938490968B0
:1039C0000844374908600BE0354800683221B0FBF5
:1039D000F1F034490860002030490860304908603F
:1039E000314801680068401C2F4A106032295FD2BC
:1039F0001E48C0882D49096808442C49086063E0C6
:103A0000C40200200403002028030020200300201B
:103A1000E0020020380300202403002030030020AF
:103A20002C03002000030020180300201C030020AA
:103A300014030020F4020020F002002054030020B0
:103A4000080300200C030020400300201003002086
:103A50003C030020FC020020500300204C03002007
:103A60004803002044030020600400202C070020AD
:103A70006404002098000020680400206C040020EA
:103A80009C0000207004002074040020A40000208A
:103A9000780400207C040020A00000208004002086
:103AA00084040020A8000020980400209C0400202A
:103AB000FA4800683221B0FBF1F0F94908600020B3
:103AC000F8490860F5490860F74801680068401C3B
:103AD000F54A1060322907D2F4488088F449096811
:103AE0000844F34908600BE0F14800683221B0FB5C
:103AF000F1F0F04908600020EB490860EC490860EB
:103B0000ED4801680068401CEB4A1060462907D266
:103B1000E6480089E94909680844E84908600BE07B
:103B2000E64800684621B0FBF1F0E5490860002056
:103B3000E1490860E1490860E24801680068401C0A
:103B4000E04A1060462907D2D8480088DE49096853
:103B50000844DD4908600BE0DB4800684621B0FB03
:103B6000F1F0DA4908600020D6490860D6490860BB
:103B7000D74801680068401CD54A1060462907D222
:103B8000CA484088D34909680844D24908600BE014
:103B9000D04800684621B0FBF1F0CF490860002012
:103BA000CB490860CB4908607047CC480068CC49D5
:103BB0000968884203DACA480068C8490860C748EB
:103BC0000068C8490968884203DDC6480068C349DF
:103BD0000860B8490968C14A1268881A002801DBE0
:103BE000014600E04142022930DDB2480068BB498D
:103BF0000968884203DD0120BB49887502E0002086
:103C0000B9498875AB490968B44A1268881A00280E
:103C100001DB014600E0414201EB4101B34A116082
:103C200010460068B2490968884203DDB048006860
:103C300011460860AD4800681E2802DA1E20AB4914
:103C40000860AA480078A849C87502E00020A64983
:103C5000C8757047A7480068A7490968884203DA11
:103C6000A5480068A3490860A2480068A3490968FC
:103C7000884203DDA14800689E49086088490968B8
:103C80009C4A1268881A002801DB014600E0414284
:103C9000022930DD8248006896490968884203DDC0
:103CA00000209149887402E001208F4988747C4982
:103CB0000968904A1268881A002801DB014600E072
:103CC000414201EB4101894A1160104600688C496C
:103CD0000968884203DD8A48006811460860834805
:103CE0000068142802DA1420804908607F480078B0
:103CF0007D49C87402E000207B49C8747047814840
:103D0000006881490968884203DA7F4800687D4974
:103D100008607C4800687D490968884203DD7B486B
:103D200000687849086069490968764A1268881A03
:103D3000002801DB014600E04142042931DD6348EF
:103D4000006870490968884203DD0020664988766A
:103D500002E00120644988765C490968694A126872
:103D6000881A002801DB014600E0414201EB810195
:103D700089005E4A116010460068654909688842FA
:103D800003DD6348006811460860584800686428ED
:103D900002DA642055490860544800785249C876D0
:103DA00002E000205049C87670475A4800685A49D6
:103DB0000968884203DA584800685649086055483F
:103DC000006856490968884203DD54480068514933
:103DD0000860414909684F4A1268881A002801DBC7
:103DE000014600E04142042934DD3B48006849496E
:103DF0000968884204DD00203B4981F82A0003E07D
:103E00000120394981F82A0033490968414A12687A
:103E1000881A002801DB014600E0414201EB8101E4
:103E20008900324A1160104600683D49096888429D
:103E300003DD3B480068114608602C480068C8282C
:103E400002DAC8202949086028480078264981F804
:103E50002B0003E00020244981F82B00704710B5A7
:103E60003048006830490968884203DA2E48006803
:103E70002C4908602B4800682C490968884203DDFA
:103E80002A480068274908600D4B1B68254C2468A8
:103E90001A1B002A4CDB13464BE000009C04002058
:103EA000BC00002098040020A00400202C07002063
:103EB000A4040020B8000020A8040020AC040020C6
:103EC000B0000020C0040020C4040020C000002076
:103ED000C8040020CC040020C4000020C803002037
:103EE000C0030020C4030020040000202804002098
:103EF00000040020D4030020CC030020D0030020C5
:103F0000FC030020EC030020E4030020E803002071
:103F100008040020F8030020F0030020F403002030
:103F20000C040020E0030020D8030020DC03002064
:103F30005342022B4CDDF94B1B68F94C2468191BCA
:103F4000002901DB0B4600E04B42142B40DAF54B15
:103F50001B68F54C2468181B002801DB034600E0B1
:103F60004342142B34DAF1480068F1490968884269
:103F700004DD0120EF4981F8260003E00020ED492F
:103F800081F82600E9490968E94A1268881A002878
:103F900001DB014600E04142E74A1160104600683B
:103FA000E6490968884203DDE44800681146086074
:103FB000E1480068322802DA3220DF490860DE4832
:103FC0000078DC4981F827000020DD49086006E020
:103FD0000020D84981F827000120D949086010BD88
:103FE0002520D84908604420D749086070473A2006
:103FF000D44908605820D449086070474320D1490B
:1040000008606420D049086070476E20CD49086080
:10401000A020CD490860704700B50246FFF7F5FFC4
:10402000CA480260CA48026000BD00B50246FFF7F8
:10403000DEFFC6480260C648026000BD00B5024609
:10404000FFF7DCFFC1480260C148026000BD10B547
:10405000FA20C0490860B2480068BF490860FA20E9
:10406000BE490860B0480068BD4908600020BD49ED
:10407000086035E006E0012015F082FBFCF7F0FC5B
:1040800000B927E0A64A1268B74B1B68D21A03236F
:1040900092FBF3F3A14A1268AF4C2468111B00296C
:1040A00001DB0A4600E04A429342E4DB9E4A126882
:1040B000AE4B1B68D21A032392FBF3F3994A1268A2
:1040C000A74C2468101B002801DB024600E0424296
:1040D0009342D0DB00BFA3480068401CA1490860A0
:1040E000A04800683228C5DB10BD10B50120A049EA
:1040F0000860A048006890BB9F48006878BB9F4854
:10410000006860BB9E48006848BBB6EE001ADFED51
:104110009D0A05209FED9C0AFFF7BBF800209149FE
:10412000086014E006E0012015F02AFBFCF798FC7B
:1041300000B906E04FF48051944812F021F90028AC
:10414000F1D000BF87480068401C86490860854858
:1041500000689628E6DB0020FEF76DFFA6E0FFE78B
:1041600084480068012833D18348006878BB8348BD
:10417000006860BB8248006848BBB6EE001ADFEDFD
:10418000810A05209FED800AFFF783F8002075491A
:10419000086014E006E0012015F0F2FAFCF760FC7C
:1041A00000B906E04FF48051784812F0E9F8002891
:1041B000F1D000BF6B480068401C6A49086069483C
:1041C00000689628E6DB0020FEF735FF6EE0FFE78B
:1041D00068480068012832D16748006801282ED15C
:1041E0006648006858BB6648006840BBB6EE001AD7
:1041F000DFED640A05209FED660AFFF74AF800200C
:104200005849086013E006E0012015F0B9FAFCF700
:1042100027FC00B905E004215E4812F0B1F800283F
:10422000F2D000BF4F480068401C4E4908604D481E
:1042300000689628E7DB0020FEF7FDFE36E04D48DB
:104240000068012832D14C48006801282ED14B4823
:10425000006801282AD14A48006838BBB6EE001A27
:10426000DFED480A05209FED4A0AFFF712F800200B
:104270003C49086013E006E0012015F081FAFCF7E4
:10428000EFFB00B905E00421424812F079F800285C
:10429000F2D000BF33480068401C32490860314802
:1042A00000689628E7DB0020FEF7C5FE10BD314808
:1042B0000068B0B93048006898B93048006880B9E3
:1042C0002F48006868B964201C49086032480068BB
:1042D000174908601748C07F40F004001549C877A7
:1042E00096E02448006801285AD12348006898B90C
:1042F0002248006880B92248006868B964200F49E4
:104300000860264800680A4908600A48C07F40F0F3
:1043100008000849C8777BE042E00000C0000020A8
:10432000BC010020C4000020C0010020B00000201B
:10433000E0030020040000202804002004040020E2
:10434000BC030020FC03002000040020C803002060
:10435000D403002008040020EC0300200C040020FB
:10436000F803002084030020E4030020F003002071
:10437000A0020020880200208C0200209002002071
:104380009402002000006144000000000000024090
:104390000000E14400100240800100208401002060
:1043A000F9480068012817D1F8480068012813D19E
:1043B000F748006880B9F748006868B96420F64992
:1043C0000860F6480068F6490860F648C07F40F08B
:1043D0004000F449C8771BE0EB480068012817D17A
:1043E000EA480068012813D1E948006801280FD184
:1043F000E848006860B96420E7490860EA48006856
:10440000E7490860E748C07F40F01000E549C877F9
:104410007047DD480068B0B9DC48006898B9DC48EE
:10442000006880B9DB48006868B96420DA49086030
:10443000DE480068DA490860DA48C07F40F00400CE
:10444000D849C87752E0D0480068012816D1CF4833
:10445000006898B9CE48006880B9CE48006868B94D
:104460006420CD490860D2480068CD490860CD4835
:10447000C07F40F00800CB49C87737E0C2480068E9
:10448000012817D1C1480068012813D1C04800682D
:1044900080B9C048006868B96420BF490860C54851
:1044A0000068BF490860BF48C07F40F04000BD4978
:1044B000C8771BE0B4480068012817D1B3480068EA
:1044C000012813D1B248006801280FD1B148006813
:1044D00060B96420B0490860B7480068B049086016
:1044E000B048C07F40F01000AE49C8777047A6487A
:1044F000006878B9A548006860B9A548006848B95F
:10450000A448006830B9A748C07F40F00400A5491E
:10451000C87754E09C480068012816D19B48006881
:1045200098B99B48006880B99A48006868B96420C7
:1045300099490860A1480068994908609948C07F76
:1045400040F008009749C87739E08F480068012893
:1045500018D18E480068012814D18D48006888B9A8
:104560008C48006870B964208B49086093480068E3
:10457000401F8B4908608B48C07F40F0400089494C
:10458000C8771CE080480068012818D17F4800687F
:10459000012814D17E480068012810D17D480068A8
:1045A00068B964207C4908608548006808387C49FF
:1045B00008607C48C07F40F010007A49C877704797
:1045C0002DE9F04105460E46FFF71FFD7D480068C6
:1045D000FA307D4908607D480068F0307C49086009
:1045E000002415E006E0012015F0CAF8FCF738FABF
:1045F00000B90BE077490968754A1268881A0028E3
:1046000001DB014600E041420F29ECDC00BF641CE5
:10461000322CE7DB9FED701A00EE106AF8EEC00A4C
:104620000C2000EE105AB8EEC00AFEF732FE00244D
:1046300016E006E0012015F0A3F8FCF711FA00B926
:104640000CE04FF48071654811F09AFE0128F1D01A
:104650008021634811F094FE0028EBD000BF641C59
:1046600040F21A408442E4DB0020FEF7E4FC7820AC
:104670005C49086055480068C01E55490860002420
:1046800015E006E0012015F07BF8FCF7E9F900B928
:104690000BE0504909684E4A1268881A002801DB6D
:1046A000014600E041420729ECDC00BF641C322CCB
:1046B000E7DB4FF42F7015F063F89FED4B1A00EE17
:1046C000106AF8EEC00A0F2000EE105AB8EEC00AC9
:1046D000FEF7DFFD40F2A46015F052F8002416E06A
:1046E00006E0012015F04CF8FCF7BAF900B90CE02F
:1046F00001213B4811F044FE0128F2D04FF4006143
:10470000364811F03DFE0128EBD000BF641C40F29A
:104710001A408442E4DBB420324908602B48006828
:104720001C302B4908609FED301A00EE106AF8EE3D
:10473000C00A122000EE105AB8EEC00AFEF7A9FD1A
:1047400000240FE006E0022015F01AF8FCF788F9C3
:1047500000B905E00121254811F012FE0128F2D030
:1047600000BF641C40F226208442EBDB2048006836
:10477000012802D1FFF7BBFE44E01E480068012873
:104780003AD1FFF746FE3DE0880200208C0200206F
:1047900090020020940200200404002088010020E0
:1047A000E0030020040000208C010020980100207C
:1047B0009C010020A0010020A40100207C01002019
:1047C00078010020C0030020C8030020CC03002093
:1047D000D4030020BC000020CDCCCCBE00000240A1
:1047E00000040240FC0300209A9999BE0010024088
:1047F000E8000020EC000020F7480068012801D103
:10480000FFF755FD1FED081A00EE106AF8EEC00A1A
:104810000F2000EE105AB8EEC00AFEF73AFD002451
:1048200010E006E0012014F0ABFFFCF719F900B925
:1048300006E04FF40051E94811F0A2FD0128F1D043
:1048400000BF641CB4F57A7FEBDB0020FEF7F3FBBE
:104850003220E3490860E3480068C01CE249086070
:104860004FF47A7014F08CFF9620DD490860002424
:1048700015E006E0012014F083FFFCF7F1F800B921
:104880000BE0DA490968D84A1268881A002801DB67
:10489000014600E041420729ECDC00BF641CFA2C11
:1048A000E7DB4FF47A7014F06BFF1FED351A00EE62
:1048B000106AF8EEC00A0C2000EE105AB8EEC00ADA
:1048C000FEF7E7FC00240FE006E0012014F058FF9B
:1048D000FCF7C6F800B905E00121C54811F050FD0C
:1048E0000128F2D000BF641CFA2CEDDBFDF783FD3C
:1048F00006E0052014F044FFFCF7B2F800B914E01C
:10490000FCF7E4F88046FCF7B4F8071E01DB3846F4
:1049100000E07842B8F1000F01DB414601E0C8F148
:1049200000010844B0F5C87FE3DB00BFFFF76DFB73
:104930004FF48270AC490860AE4908601FED5A1A06
:1049400000EE106AF8EEC00A0C2000EE105AB8EE25
:10495000C00AFEF79EFC00240FE006E0012014F0E0
:104960000FFFFCF77DF800B905E010219B4811F01E
:1049700007FD0128F2D000BF641C642CEDDB002091
:10498000FEF759FBBDE8F08110B50246101E01DBB1
:10499000044600E044422146192900DD1921062978
:1049A00001DA042010BDC1EBC1004000484340F2D1
:1049B000712490FBF4F0031D1846F3E72DE9F04154
:1049C00004460D4600208C4908603BE02AE08B48F5
:1049D0000068071B3846FFF7D7FF06468748006880
:1049E000001B002809DD9FED861ADFED860A3046A0
:1049F0009FED850AFEF74DFC10E080480068001B23
:104A000009D59FED7F1ADFED7F0A30469FED7F0AC3
:104A1000FEF73FFC02E00020FEF70DFBFCF720F85C
:104A200000B909E075490968081B002801DB014647
:104A300000E041420129CADC00BF6F480068401C09
:104A40006D4908606C480068A842BFDBBDE8F08192
:104A500070B56F4804686F4805684FF4617148424B
:104A6000FFF7AEFDFFF7D1FA5E480068FA305E4905
:104A7000086069480068F0305E4908609FED671A79
:104A8000DFED600A08209FED660AFEF702FC0020B9
:104A9000594908601AE006E0FBF7E2FF00B90FE0B1
:104AA000012014F06DFE4FF480715E4811F068FC37
:104AB0000128F1D080214E4811F062FC0028EBD093
:104AC00000BF4D480068401C4B4908604A480068D8
:104AD00040F20E618842DEDB4FF4FA6014F050FEC3
:104AE00051480068012803D140F23520FFF794FABD
:104AF0000020FEF7A0FA4C480068012822D14B495B
:104B000008604B480068F0B94A480068D8B94A487C
:104B10000068C0B949480068A8B99FED401ADFEDA8
:104B2000390A05209FED3E0AFEF7B3FB4FF4FA6009
:104B300014F026FE4FF47A712046FFF73FFF002065
:104B4000FEF779FAA0E03A48006801281ED13948FA
:104B50000068D8B938480068C0B938480068A8B9B2
:104B60009FED2E1ADFED270A05209FED2D0AFEF797
:104B700090FB4FF4FA6014F003FE4FF47A71204674
:104B8000FFF71CFF0020FEF756FA7DE0284800687A
:104B9000012855D127480068012851D126480068CE
:104BA000C0B926480068A8B99FED1C1ADFED150AA8
:104BB00005209FED1B0AFEF76CFB4FF4FA6014F022
:104BC000DFFD4FF47A712846FFF7F8FE0020FEF76C
:104BD00032FA59E034E00000F000002000100240FA
:104BE00000040020C0030020C8030020B8000020FB
:104BF00000040240D403002084030020A000002011
:104C00006666663F00006144000000000000E14469
:104C1000B0010020B4010020CC0300203333333F27
:104C2000000061C400000240E8000020A002002053
:104C3000880200208C0200209002002094020020B4
:104C4000FE48006801281FD1FD48006801281BD1DB
:104C5000FC480068012817D1FB480068A0B91FED87
:104C6000111A5FED180A05201FED130AFEF711FB5C
:104C70004FF4FA6014F084FD4FF47A712846FFF780
:104C80009DFE0020FEF7D7F90020FEF7D4F970BD95
:104C900010B5EA480068002855D1E94800680028A6
:104CA00051D1E848006800284DD1E7480068002845
:104CB00049D1E649086019E006E0012014F060FDE2
:104CC000FBF7CEFE00B90BE0E1490968E14A126842
:104CD000881A002801DB014600E041420A29ECDC89
:104CE00000BFDA480068401CD8490860D74800680F
:104CF000FA28E1DBB6EE001A5FED3E0A05201FED53
:104D00003D0AFEF7C6FA0020D049086013E006E02D
:104D1000012014F035FDFBF7A3FE00B905E00421E6
:104D2000CD4811F02DFB0028F2D000BFC748006825
:104D3000401CC6490860C54800689628E7DB00208B
:104D4000FEF779F97BE0BD480068012877D1C348B8
:104D50000068002873D1BD49086019E006E0012011
:104D600014F00EFDFBF77CFE00B90BE0B8490968B2
:104D7000B84A1268881A002801DB014600E0414267
:104D80000A29ECDC00BFB1480068401CAF4908604C
:104D9000AE480068FA28E1DBB6EE001A5FED670A5C
:104DA00005201FED610AFEF774FA0020A74908608C
:104DB00014E006E0FBF754FE00B909E0012014F00E
:104DC000DFFC4FF48071A64811F0DAFA0028F1D028
:104DD00000BF9E480068401C9C4908609B480068D2
:104DE00040F20E618842E4DB0020FEF724F9B6EEC3
:104DF000001A5FED7C0A05201FED7C0AFEF749FAD8
:104E000000209249086013E006E0012014F0B8FC8D
:104E1000FBF726FE00B905E004218F4811F0B0FA37
:104E20000028F2D000BF89480068401C874908600C
:104E3000864800689628E7DB0020FEF7FCF810BDE6
:104E400000B5FFF7DBF8FF2086490860814908605C
:104E500000BD10B579480068002865D17848006821
:104E6000002861D17748006800285DD17648006845
:104E7000002859D1F0207C4908607C4800687C49B2
:104E800008607C48C07F40F004007A49C877FFF78B
:104E9000D7FF00206D49086019E006E0012014F0FA
:104EA0006FFCFBF7DDFD00B90BE069490968694A51
:104EB0001268881A002801DB014600E041420A29F5
:104EC000ECDC00BF61480068401C604908605F4836
:104ED0000068FA28E1DBB6EE001A5FEDB60A05209D
:104EE0001FEDB70AFEF7D5F900205849086013E016
:104EF00006E0012014F044FCFBF7B2FD00B905E028
:104F000001215D4811F03CFA0028F2D000BF4F4863
:104F10000068401C4D4908604C4800689628E7DB53
:104F20000020FEF788F886E0444800680128FAD19E
:104F30004A48006800287ED1F0204B4908604F485D
:104F400000684B4908604B48C07F40F01000494959
:104F5000C877FFF775FF00203C49086019E006E0BC
:104F6000012014F00DFCFBF77BFD00B90BE0384984
:104F70000968384A1268881A002801DB014600E0F7
:104F800041420A29ECDC00BF30480068401C2F4930
:104F900008602E480068FA28E1DBB6EE001A5FEDE3
:104FA000E70A05201FEDE20AFEF773F90020274902
:104FB000086014E006E0012014F0E2FBFBF750FD6E
:104FC00000B906E04FF48071254811F0D9F90028A6
:104FD000F1D000BF1D480068401C1C4908601B48F8
:104FE00000689628E6DBB6EE001A5FEDFA0A0520A7
:104FF0001FEDFB0AFEF74DF900201449086013E08D
:1050000006E0012014F0BCFBFBF72AFD00B905E027
:105010000121194811F0B4F90028F2D000BF0B4863
:105020000068401C09490860084800689628E7DBCA
:105030000020FEF700F81248006823E088020020F4
:105040008C020020900200209402002084030020A3
:10505000BC000020D4030020001002409802002071
:1050600000000240C803002004040020900100203A
:10507000E00300200400002000040240940100200E
:10508000E8000020012838D1FFF731FAB6EE001A07
:10509000DFEDFA0A08209FEDFA0AFEF7FAF8002081
:1050A000F84908601AE006E0FBF7DAFC00B90FE007
:1050B000012014F065FB4021F34811F061F900284C
:1050C000F2D04FF48071F14811F05AF90028EBD07A
:1050D00000BFEC480068401CEA490860E9480068E5
:1050E00040F20E618842DEDB0020FDF7A4FF4FF4A2
:1050F0007A7014F045FBFEF7F8FF10BD10B5E448D8
:105100000068002874D1E34800680028FAD1E2481A
:1051100000680028F6D1E14800680028F2D1C820D4
:10512000DF490860DF480068DF490860FFF788FE54
:105130000020D449086019E006E0012014F020FBAB
:10514000FBF78EFC00B90BE0D8490968D84A126811
:10515000881A002801DB014600E041420A29ECDC04
:1051600000BFC8480068401CC6490860C5480068C0
:10517000FA28E1DBB6EE001ADFEDC00A05209FED4C
:10518000C00AFEF786F8CB48C07F40F00400C9494A
:10519000C8770020BB49086014E006E0FBF760FC1C
:1051A00000B909E0012014F0EBFA4FF48071B74820
:1051B00011F0E6F80028F1D000BFB2480068401CAA
:1051C000B0490860AF48006840F20E618842E4DBF5
:1051D0000020FDF730FFB6EE001ADFEDA80A05202B
:1051E0009FEDB50AFEF755F80020A649086015E0C6
:1051F0001CE006E0012014F0C3FAFBF731FC00B913
:1052000006E04FF40061A14811F0BAF80028F1D08F
:1052100000BF9C480068401C9A4908609948006893
:105220009628E6DB0020FDF706FF61E0984800685D
:1052300001285DD1A1480068002859D1F020984983
:1052400008609F480068984908609A48C07F40F00D
:1052500010009849C877FFF7F3FD002089490860DE
:1052600019E006E0012014F08BFAFBF7F9FB00B916
:105270000BE08E4909688E4A1268881A002801DB03
:10528000014600E041420A29ECDC00BF7D4800688D
:10529000401C7C4908607B480068FA28E1DBB6EED8
:1052A000001ADFED760A05209FED830AFDF7F1FF76
:1052B00000207449086014E006E0012014F060FA50
:1052C000FBF7CEFB00B906E04FF400616F4811F028
:1052D00057F80028F1D000BF6A480068401C6949AF
:1052E0000860684800689628E6DB0020FDF7A3FE0A
:1052F00074480068012838D1FFF7F9F8B6EE001AB3
:10530000DFED5E0A08209FED5E0AFDF7C2FF002078
:105310005C4908601AE006E0FBF7A2FB00B90FE069
:10532000012014F02DFA4021574811F029F80028E7
:10533000F2D04FF48071554811F022F80028EBD0DC
:1053400000BF50480068401C4E4908604D48006846
:1053500040F20E618842DEDB0020FDF76CFE4FF468
:105360007A7014F00DFAFEF7C0FE10BD10B54FF4C0
:1053700061714842FFF724F940F20910FEF74CFE34
:105380005048006800283CD14F480068C0BB4F48D7
:105390000068A8BB9FED4E1ADFED380A0A209FED8A
:1053A000380AFDF776FF0020364908601AE006E06B
:1053B000FBF756FB00B90FE0012014F0E1F94021A2
:1053C000314810F0DDFF0028F2D04FF480712F48F3
:1053D00010F0D6FF0028EBD000BF2A480068401C20
:1053E000284908602748006840F20E618842DEDBE9
:1053F0000020FDF720FE4FF47A7014F0C1F978E038
:10540000FFE730480068012866D19FED321ADFEDD2
:105410001B0A08209FED1A0AFDF73BFF00201949DF
:1054200008601AE006E0FBF71BFB00B90FE0012063
:1054300014F0A6F94021144810F0A2FF0028F2D081
:105440004FF48071114810F09BFF0028EBD000BF93
:105450000C480068401C0B4908600A48006840F28C
:105460000E618842DEDB0020FDF7E5FD4FF47A7027
:1054700014F086F9FEF739FE3BE02DE000006144B0
:10548000000061C4840300200004024000000240C8
:10549000880200208C02002090020020940200204C
:1054A00004040020A8010020E0030020BC0000202C
:1054B000D4030020040000200000E14498020020F2
:1054C000AC010020E8000020EC000020F0000020EB
:1054D000CDCC4C3F3333333FFD480068012802D127
:1054E000FFF70CFE05E0FB480068012801D1FFF73B
:1054F000B0FC10BD2DE9F05F82460D4614461E46F5
:10550000DDE90B9BDDF82880F3490968881B00283A
:1055100001DB014600E0414201FB0BF74F4500DD96
:105520004F46ED480068801B404510DAE81B00EE4E
:10553000900AF8EEE00AB0EE600A9FEDE81A00EE7D
:10554000904AF8EEE00A5046FDF7A3FE22E0E2485A
:105550000068801B404510DDE81900EE900AF8EE67
:10556000E00AB0EE600A9FEDDD1A00EE904AF8EE18
:10557000E00A5046FDF78DFE0CE09FEDD81A00EED4
:10558000104AF8EEC00A504600EE105AB8EEC00AB3
:10559000FDF77FFEBDE8F09F3EB59A244FF46171A0
:1055A0004842FFF70DF80020CD4908601CE011E0EB
:1055B000322040F2262102222346CDE9002102902A
:1055C000C84AC84914390720FFF794FFFBF748FA87
:1055D00000B903E0C44800681928E9DC00BFC048EE
:1055E0000068401CBE490860BD480068B0F57A7F7D
:1055F000DDDB0020BA4908601CE011E0322040F2F7
:10560000262102222346CDE900210290B54AB54960
:1056100014390720FFF76EFFFBF722FA00B903E009
:10562000B24800689428E9DC00BFAD480068401C1F
:10563000AB490860AA480068B0F57A7FDDDB00203E
:10564000FDF7F9FCFEF7E1FC4FF49670A8490860FD
:10565000A84908603EBD2DE9F04105460E460120EF
:10566000A54908600020A54981F82B00FEF7CDFC74
:10567000A348006808389E490860A24800680838B6
:105680009C490860002415E006E0012014F078F839
:10569000FBF7E6F900B90BE09B490968954A1268E7
:1056A000881A002801DB014600E041420A29ECDCAF
:1056B00000BF641CFA2CE7DB0020FDF7BCFC9FED6B
:1056C000931A00EE106AF8EEC00A0C2000EE105A91
:1056D000B8EEC00AFDF7DDFD00241CE006E0012065
:1056E00014F04EF8FBF7BCF900B912E04FF48071EA
:1056F000874810F045FE0128F1D04021854810F080
:105700003FFE0128EBD08021824810F039FE0028AE
:10571000E5D000BF641C40F226208442DEDBFCF7AB
:105720006AFE06E0052014F02BF8FBF799F900B9A2
:1057300014E0FBF7CBF98046FBF79BF9071E01DB72
:10574000384600E07842B8F1000F01DB414601E045
:10575000C8F100010844B0F5967FE3DB00BF0020EC
:10576000FDF769FC78206C4908606C480068C01E31
:1057700060490860002415E006E0052014F000F8F8
:10578000FBF76EF900B90BE05F490968594A1268E6
:10579000881A002801DB014600E041420A29ECDCBE
:1057A00000BF641C322CE7DB40F6B83013F0E8FF92
:1057B000B6EE001A00EE106AF8EEC00A0F2000EEF6
:1057C000105AB8EEC00AFDF764FD40F2A46013F071
:1057D000D7FF002416E006E0012013F0D1FFFBF70D
:1057E0003FF900B90CE001214A4810F0C9FD012839
:1057F000F2D04FF40061464810F0C2FD0128EBD012
:1058000000BF641C40F21A408442E4DB9620424907
:105810000860424800681C3036490860B6EE001A3D
:1058200000EE106AF8EEC00A0F2000EE105AB8EE33
:10583000C00AFDF72EFD00240FE006E0022013F061
:105840009FFFFBF70DF900B905E00121344810F086
:1058500097FD0128F2D000BF641C40F2262084424C
:10586000EBDB002410E006E0012013F089FFFBF7DA
:10587000F7F800B906E04FF40051294810F080FD18
:105880000128F1D000BF641CB4F57A7FEBDB25481A
:105890000068012802D1FEF72AFE0CE00C480068DF
:1058A000012802D1FEF7B5FD05E00A48006801288D
:1058B00001D1FEF7FCFC0020FDF7BDFBFA201A49E0
:1058C00008601A480068C01C09490860002445E0C7
:1058D000EC000020F0000020A00000209A99993EE2
:1058E0008403002090FCFFFF9C000020AC000020FF
:1058F000C8030020D40300205C0400200400002022
:10590000C4030020D0030020BC000020CDCC4C3EBE
:105910000000024000040240FC030020CC030020F1
:1059200000100240E800002000040020C003002016
:1059300006E0012013F024FFFBF792F800B90BE01A
:10594000FD490968FD4A1268881A002801DB0146F2
:1059500000E041420A29ECDC00BF641CFA2CE7DBC2
:1059600040F6B83013F00CFF1FED181A00EE106A65
:10597000F8EEC00A142000EE105AB8EEC00AFDF787
:1059800088FC00240FE006E0012013F0F9FEFBF78D
:1059900067F800B905E00121E94810F0F1FC0128A1
:1059A000F2D000BF641CFA2CEDDBFCF724FD06E00E
:1059B000052013F0E5FEFBF753F800B914E0FBF700
:1059C00085F88046FBF755F8071E01DB384600E0F6
:1059D0007842B8F1000F01DB414601E0C8F1000157
:1059E0000844B0F5C87FE3DB00BFFEF70EFB40F2D2
:1059F0000B10D2490860001FD24908601FED3D1A04
:105A000000EE106AF8EEC00A0C2000EE105AB8EE54
:105A1000C00AFDF73EFC00240FE006E0012013F071
:105A2000AFFEFBF71DF800B905E01021C64810F0E5
:105A3000A7FC0128F2D000BF641C642CEDDB002021
:105A4000C2490860FDF7F7FABDE8F08110B54FF4E0
:105A500061714842FFF7FFFD40F20910FEF7DCFAE2
:105A60000020BB49086019E006E0012013F088FE21
:105A7000FAF7F6FF00B90BE0B6490968B14A1268B7
:105A8000881A002801DB014600E041420A29ECDCCB
:105A900000BFAF480068401CAD490860AC480068D2
:105AA0003228E1DBB6EE001ADFEDAB0A0A209FEDEB
:105AB000AB0AFDF7EEFB0020A54908601AE006E0FE
:105AC000012013F05DFEFAF7CBFF00B90CE0402196
:105AD0009B4810F055FC0028F2D04FF48071A0488C
