:020000040800F2
:1000000008A60120955C0208450200084702000886
:100010004B0200084F0200085302000800000000D5
:100020000000000000000000000000009D0100082A
:100030005702000800000000E1010008AF8C020830
:10004000AF5C0208AF5C0208AF5C0208AF5C02085C
:10005000AF5C0208AF5C0208AF5C0208AF5C02084C
:10006000AB040008EF040008AF5C02081B030008A3
:10007000FD0200085D030008AF5C0208750200087D
:10008000AF5C020881020008AF5C0208AF5C0208A6
:10009000AF5C0208AF5C0208AF5C0208AF5C02080C
:1000A000AF5C0208C7030008F3030008AF5C020856
:1000B000F5030008230400084F040008AF5C0208A1
:1000C000AF5C0208AF5C0208AF5C0208A70400083E
:1000D000AF5C02085D020008AF5C0208AF5C02087A
:1000E000AF5C0208AF5C0208AF5C0208AF5C0208BC
:1000F000AF5C0208AF5C0208AF5C0208390300087D
:10010000AF5C0208AF5C02087B040008A904000889
:10011000AF5C0208AF5C020899030008A503000861
:10012000AF5C02089B020008CF020008AF5C020827
:10013000AF5C0208AF5C0208AF5C0208AF5C02086B
:10014000AF5C0208AF5C0208AF5C0208AF5C02085B
:10015000EF020008AF5C0208AF5C0208AF5C020867
:10016000AF5C0208AF5C0208AF5C0208AF5C02083B
:10017000AF5C0208AF5C0208AF5C0208AF5C02082B
:10018000AF5C0208AF5C0208DFF80CD02AF04AF836
:10019000004800472B5A020808A60120234B196883
:1001A0000868B0E8F04F80F309884FF0000080F352
:1001B000118870470000000003480068006880F361
:1001C000088862B600DF00BF08ED00E0DFF80C0031
:1001D000016841F470010160704700BF88ED00E0E4
:1001E000EFF30980114B1A681EF0100F08BF20EDC5
:1001F000108A20E9F04F106008B54FF0140080F32A
:10020000118829F01CF94FF0000080F31188BDE837
:10021000084019680868B0E8F04F1EF0100F08BFDA
:10022000B0EC108A80F30988704700BF00060020F8
:10023000EFF311804FF0140181F31188704780F3C0
:1002400011887047704700BFFEE700BFFEE700BFA0
:10025000FEE700BFFEE770477047704710B540F2F9
:100260002551A34827F037FE18B12021A04827F0D8
:1002700029FE10BD10B59F499F4826F061FD10BDB5
:1002800010B59E499C48303026F030FD20B19B4986
:100290009948303026F054FD10BD10B59849994862
:1002A00026F024FD90B19649964826F049FD02F0CB
:1002B00003F900219048303826F06EFC082191485F
:1002C00026F08BFC01218F4826F066FC10BD10B58E
:1002D0008D498C48183026F033FD8C4840788B4986
:1002E000097840EA012000B28949088010BD10B5A4
:1002F00088498448603026F023FD10BD10B5804940
:100300007D48483826F0F2FC30B17D497A484838BB
:1003100026F016FD00F0B9FA10BD10B57E497648FA
:10032000603826F0E3FC30B17B497348603826F032
:1003300007FD02F0C1F810BD10B578496E4848308D
:1003400026F0D4FC48B100216B48483026F024FC4C
:1003500072496948483026F0F3FC10BD10B56A496F
:100360006548303826F0C2FCA8B167496248303889
:1003700026F0E6FC01F063FD00215F48303826F0EE
:100380000BFC08215C48303826F027FC01215A4834
:10039000303826F001FC10BD10B50121604827F06F
:1003A000F7FA10BD10B501215E4827F0F1FA7A2066
:1003B0004F49888001215C4827F09CFC01215B4863
:1003C00027F098FC10BD10B50121594827F0E0FA3C
:1003D0005748008800F0100028B156480068401EB9
:1003E0005449086004E053480068401C51490860C3
:1003F00010BD704710B50121880727F0C9FA4FF0EA
:100400008040008800F0100028B14B480068401E72
:100410004949086004E048480068401C46490860B3
:1004200010BD10B50121454827F0B2FA43480088B5
:1004300000F0100028B142480068401E40490860A2
:1004400004E03F480068401C3D49086010BD10B5FD
:1004500001213C4827F09CFA3A48008800F010003F
:1004600028B139480068401E3749086004E0364822
:100470000068401C3449086010BD10B501213348A4
:1004800027F086FA3148008800F0100028B1304883
:100490000068401E2E49086004E02D480068401C9A
:1004A0002B49086010BD7047704710B5042026F036
:1004B000DFFCD8B12021274825F063FD0421264820
:1004C00025F03AFD012804D10021164826F0E0FD70
:1004D00009E00421204825F02FFD20B9114826F01D
:1004E000DBFD1E49086004201D49086010BD7047EF
:1004F0000010014020800020706002400080202019
:10050000008800102864024000802010BE080020EF
:100510008C0000200088002020800010008000282F
:10052000001000400014004000480040001401404A
:10053000000001406C00002070000020000400401A
:10054000740000200008004088000020000C0040DB
:100550007800002000000240000C024068000020EB
:10056000143C014070B50446204629F051FB054675
:100570002146F94829F053FBA8B140F22B1221463D
:10058000F54829F039FB0021F44826F005FBF24834
:10059000F2490C310860F148B838C0F8BC5001216C
:1005A000EE4826F0F9FA70BD70B50446002510E05B
:1005B000605D68B1615DEA4827F0C7FB00BF80213C
:1005C000E74827F072FC0028F9D0681CC5B200E0AB
:1005D00070BDEDE770B5044600250FE05CB1214623
:1005E000DF4827F0B2FB00BF8021DD4827F05DFC2B
:1005F0000028F9D000E070BD681CC5B2032DEDDB0A
:1006000000BFF8E713B50C460020FFF7E3FFD5A0C5
:10061000FFF7CAFF2346D4A29621D44829F040FE12
:10062000D248FFF7C1FFD2A0FFF7BEFFCEA29621AE
:10063000CE48009B29F034FECC48FFF7B5FFCEA092
:10064000FFF7B2FFFF20FFF7C5FFFF20FFF7C2FF54
:10065000FF20FFF7BFFF1CBD70B505460C46C1A0CB
:10066000FFF7A2FF2246C0A1C04829F031FEBF48D3
:10067000FFF79AFFBEA0FFF797FF2846FFF794FF0A
:10068000BDA0FFF791FFFF20FFF7A4FF70BD77B576
:1006900085B00546FF26B6A103C9CDE90301B6A082
:1006A00000680290AFA00068019000240AE00020DA
:1006B000B2490855B2490855AC490855A6490855EC
:1006C000601CC4B21E2CF2DB0A20A8490870FF206F
:1006D00048708870C870A4A1A948079A29F0F8FD4D
:1006E000A74901A829F07CFA01A9A04829F078FAC5
:1006F00003A99E4829F074FA29469C4829F070FA0B
:1007000099A19F48069A29F0E3FD9D49974829F051
:1007100067FA02A9954829F063FAFF209749087003
:1007200048708870914829F05BFA9048FFF71AFFEB
:1007300008B070BDF7B584B005460E46FF278CA102
:1007400003C9CDE902018CA00068019085A0006872
:100750000090002408E00020884908558849085581
:1007600082490855601CC4B20A2CF4DB0A207F4978
:100770000870FF2048708870C8707BA18048069A76
:1007800029F0A6FD7E49684629F02AFA694677488D
:1007900029F026FA02A9754829F022FA2946734859
:1007A00029F01EFA3146714829F01AFA01A96F485A
:1007B00029F016FAFF2071490870487088700020EF
:1007C000C8700871694829F00BFA6848FFF7CAFE3B
:1007D00007B0F0BD01B58EB06AA2322101A80E9B10
:1007E00029F05EFD01A8FFF7BDFE0FB000BD73B597
:1007F00084B00546FF265EA103C9CDE902015EA0D3
:100800000068019057A00068009000240AE00020D2
:100810005A4908555A490855544908554E490855EA
:10082000601CC4B21E2CF2DB0A2050490870FF2065
:1008300048708870C8704CA15148059A29F048FD4D
:100840004F49684629F0CCF96946484829F0C8F96B
:1008500002A9464829F0C4F92946444829F0C0F9BC
:100860004749424829F0BCF901A9404829F0B8F9A4
:10087000FF2042490870487088703C4829F0B0F960
:100880003A48FFF76FFE06B070BD10B52DED0C8B2A
:1008900082B03F4800783E49497808443C4989780D
:1008A00008443B49C978084439490979084438491A
:1008B000497908443649897908443549C979084451
:1008C0003349097A0844C0B201903148007A00F0F7
:1008D0000F0000909FED2F0AB0EE40DA2C48407ACE
:1008E0000199884272D12A48007A00F00F000D2841
:1008F0006CD127488078C0F17F0000EE100AB8EE76
:10090000C08A2348C078813800EE100AF8EEC08A09
:10091000B5EEC08AF1EE10FA03D1B7EE000AB0EEE0
:10092000408AF5EEC08AF1EE10FA03D1B7EE000A64
:10093000F0EE408ABDEEC80A10EE102A002A01DB54
:10094000134600E05342BDEEE80A10EE100A0028FC
:1009500022DB044621E0000076070020B860024058
:100960000050004074000000256400004006002094
:100970002E7478743D22000022000000260700201B
:10098000FE0600206A302E76616C3D256400000072
:10099000FF080020DB0F49404442191901EBD173D5
:1009A0005B10FE4C2360BDEEE80A10EE101A002921
:1009B00001DB0A4600E04A42322A0FDABDEEC80ADD
:1009C00010EE100A002802DB024601E02FE042424E
:1009D000322A03DA0020F249086030E018EE900A6B
:1009E00029F0E3FA41EC1B0B18EE100A29F0DDFAAE
:1009F00041EC1C0BB0EE4B1AF0EE6B1AB0EE4C0A49
:100A0000F0EE6C0A29F010FEB0EE40AAF0EE60AAFB
:100A10009FEDE40B53EC102B51EC1A0B29F0B4F9B9
:100A200041EC190B29F0A2FADD49086007E09DF8B6
:100A300000000D2803D00021DC4827F05BF902B04C
:100A4000BDEC0C8B10BDDA48007A00F00F000D28C9
:100A500006D1D748007800F0010008B10D2070479A
:100A60000020FCE7D248007800F0100008B1002018
:100A700070470120FCE71CB54FF0804026F00CFBCE
:100A8000CC49096840EA01400C2190FBF1F000904C
:100A9000002418E04FF0804026F0FEFAC5490968AE
:100AA00040EA01400C2190FBF1F00190DDE90021CA
:100AB000881A002801DB014600E04142052900DADE
:100AC000641C01980090022CE4DB019840421CBD9C
:100AD0001CB5B94826F0E0FAB849096840EA014077
:100AE0000C2190FBF1F00090002417E0B24826F0B2
:100AF000D3FAB249096840EA01400C2190FBF1F0B9
:100B00000190DDE90021881A002801DB014600E0A0
:100B10004142052900DA641C01980090022CE5DBB3
:100B200001981CBD1CB5A64826F0B6FAA54909686F
:100B300040EA01400C2190FBF1F00090002417E006
:100B40009F4826F0A9FA9F49096840EA01400C2114
:100B500090FBF1F00190DDE90021881A002801DB0B
:100B6000014600E04142052900DA641C019800902A
:100B7000022CE5DB01981CBD1CB5934826F08CFACD
:100B80009249096840EA01400C2190FBF1F0009085
:100B9000002417E08C4826F07FFA8C49096840EA67
:100BA00001400C2190FBF1F00190DDE90021881A51
:100BB000002801DB014600E04142052900DA641CFF
:100BC00001980090022CE5DB01981CBD01B581B0B5
:100BD00000200090019800EBC0004000009002E06F
:100BE0000098401E009000980028F9D10CBD01B576
:100BF00081B00020009044F2506101984843009079
:100C000002E00098401E009000980028F9D10CBD29
:100C10001CB501211F2025F073FB4FF6FF700090DB
:100C200001208DF8040000208DF8060001208DF8C9
:100C3000070003208DF805006946654825F01AF97C
:100C40004FF6FF70009001208DF8040000208DF811
:100C5000060001208DF8070003208DF80500694685
:100C60005C4825F007F94FF6FF70009001208DF8E1
:100C7000040000208DF8060001208DF807000320F5
:100C80008DF805006946544825F0F4F81CBD1CB5E4
:100C900001217E2025F034FB4FF4CE50009000203F
:100CA0008DF8040001208DF8070002208DF8050062
:100CB00069464A4825F0DEF84FF6C740009000200C
:100CC0008DF8040001208DF8070002208DF8050042
:100CD00069463F4825F0CEF84FF47170009000202F
:100CE0008DF8040001208DF8070002208DF8050022
:100CF0006946384825F0BEF84CF6034000900020C5
:100D00008DF8040001208DF8070002208DF8050001
:100D10006946314825F0AEF84FF426600090002077
:100D20008DF8040001208DF8070002208DF80500E1
:100D300069462B4825F09EF81CBD1FB54FF4E060B6
:100D400024F0BAFF36208DF8000000208DF8010055
:100D50008DF8020001208DF80300684624F0B1FFF1
:100D60000121102025F0FFFA3220ADF8040040F2F6
:100D7000E73002900020ADF80C00ADF8060001A9A4
:100D8000184826F03CF90121164826F001FE012200
:100D90001146144826F0D4FD002125E0CC000020A7
:100DA000C800002000000080A9E781400048004002
:100DB000FF080020700000200004004074000020A4
:100DC0000008004088000020000C0040780000204F
:100DD0000004024000080240000C024000000240F3
:100DE0000010024000100040FE4826F051F9012199
:100DF000FC4826F08DF91FBD1FB54FF4E06024F0CC
:100E00005BFF37208DF8000000208DF801008DF881
:100E1000020001208DF80300684624F052FF0121F2
:100E2000202025F0A0FA3220ADF8040040F2E7308F
:100E300002900020ADF80C00ADF8060001A9EA48C8
:100E400026F0DDF80121E84826F0A2FD0122114636
:100E5000E54826F075FD0021E34826F019F9012147
:100E6000E14826F055F91FBD00B58BB001210220E5
:100E700025F08AFA01210C2025F042FA03220621EE
:100E8000DA4825F082F803220721D84825F07DF8BA
:100E900003220821D54825F078F803220921D348F8
:100EA00025F073F84FF47070069002208DF81C0046
:100EB00003208DF81D0000208DF81E0001208DF804
:100EC0001F0006A9C94824F0D5FFA420ADF82000D2
:100ED00040F6B83009904FF48070ADF8280000203B
:100EE000ADF8220008A9C24826F089F86020ADF8C4
:100EF00004000120ADF8060000200390ADF81000BA
:100F00000121BB4826F004F90021B94826F0C0F8B9
:100F100001A9B74826F008F901A9B54826F03DF91E
:100F200001A9B34826F086F901A9B14826F0E8F9ED
:100F30000121AF4826F0DDFC0BB000BD00B58BB041
:100F40000121082025F00FFA0121084625F0D8F9E3
:100F500002220021A74825F018F802220121A54805
:100F600025F013F802221146A24825F00EF80222BD
:100F70000321A04825F009F80F20069002208DF8E3
:100F80001C0003208DF81D0000208DF81E0001209C
:100F90008DF81F0006A9974824F06CFFBA20ADF821
:100FA000200042F2107009900020ADF82800ADF842
:100FB000220008A9904826F022F86020ADF804002D
:100FC0000120ADF8060000200390ADF810000121CB
:100FD000894826F09DF80021874826F059F801A994
:100FE000854826F0A1F801A9834826F0D6F801A982
:100FF000814826F01FF901A97F4826F081F90121D7
:101000007D4826F076FC0BB000BD00B58BB0012109
:10101000042025F0A8F901210D2025F071F9022204
:101020000C21764824F0B1FF02220D21734824F0F0
:10103000ACFF02220E21714824F0A7FF02220F21EB
:101040006E4824F0A2FF4FF47040069002208DF805
:101050001C0003208DF81D0000208DF81E000120CB
:101060008DF81F0006A9654824F004FFA420ADF800
:10107000200040F6B83009904FF48070ADF8280099
:101080000020ADF8220008A95D4825F0B8FF6020D7
:10109000ADF804000120ADF8060000200390ADF883
:1010A00010000121564826F033F80021544825F05D
:1010B000EFFF01A9524826F037F801A9504826F061
:1010C0006CF801A94E4826F0B5F801A94C4826F065
:1010D00017F90BB000BD00B589B00121080425F057
:1010E00053F90121084625F00BF903221146414826
:1010F00024F04BFF032202213E4824F046FF0C203F
:10110000019002208DF8080003208DF809000020CE
:101110008DF80A0001208DF80B0001A9354824F054
:10112000A9FE0020ADF818004FF6FF7007900020D0
:10113000ADF82000ADF81A0006A9324825F05FFF8F
:101140000420ADF80C000020ADF80E00C820ADF86A
:1011500014000120ADF8100003A92A4826F026FB50
:1011600000231A460321284826F0BDFC0121264809
:1011700026F00EFC01221146234826F0E1FB012156
:10118000204825F0C5FF00211F4825F081FF09B048
:1011900000BD00B589B00121084625F0E4F8012121
:1011A000022025F0E0F80121032025F0A9F8012212
:1011B0000F21104824F0E9FE01220321134824F0F6
:1011C000E4FE02220421114824F0DFFE0222052160
:1011D0000E4824F0DAFE3820019002208DF8080035
:1011E000032015E0001000400014004000080240F9
:1011F0000004014000000240000C0040000C0240CE
:10120000000800400000014000400140000402408E
:101210008DF8090000208DF80A0001208DF80B00E0
:1012200001A9FE4824F026FE4FF400400190022060
:101230008DF8080003208DF8090000208DF80A00C1
:1012400001208DF80B0001A9F54824F013FE0020C1
:10125000ADF818004FF6FF7007900020ADF82000A1
:10126000ADF81A0006A94FF0804025F0C8FE06A987
:10127000EC4825F0C4FE0420ADF80C000220ADF8C7
:101280000E001420ADF814000120ADF8100003A9E1
:10129000800726F08BFA03A9E24826F087FA02239A
:1012A0001A460321580726F01EFC02231A46032182
:1012B000DC4826F018FC0121880726F069FB012193
:1012C000D84826F065FB01221146900726F038FB2E
:1012D00001221146D34826F033FB0121880725F06F
:1012E00017FF0121CF4825F013FF00214FF0804068
:1012F00025F0CEFE0021CB4825F0CAFE4FF4C06099
:1013000024F0DAFC1D208DF8000003208DF8010088
:1013100000208DF8020001208DF80300684624F0BB
:10132000D0FC1C208DF8000004208DF80100002066
:101330008DF8020001208DF80300684624F0C1FCFE
:1013400009B000BD00B589B00121084625F01CF8A0
:101350000121102024F0D4FF4FF4206001900220DE
:101360008DF8080003208DF8090000208DF80A0090
:1013700001208DF80B0001A9AB4824F07BFD012270
:101380000921A94824F001FE01220B21A64824F0DE
:10139000FCFD0020ADF818004FF6FF70079000200C
:1013A000ADF82000ADF81A0006A9A04825F027FEE8
:1013B0000420ADF80C000020ADF80E000A20ADF8B6
:1013C00014000120ADF8100003A9984826F0EEF9AA
:1013D00000231A460321954826F085FB01219348F6
:1013E00026F0D6FA01221146904826F0A9FA0121EA
:1013F0008E4826F0CDFA012211468C4826F0A0FA3C
:1014000001218A4825F084FE0021884825F040FE0D
:101410004FF4C06024F050FC19208DF8000001202A
:101420008DF8010000208DF8020001208DF80300E6
:10143000684624F046FC09B000BD00B589B0012122
:10144000042024F090FF0121082024F059FF4FF4DC
:101450004050019002208DF8080003208DF809000B
:1014600000208DF80A0001208DF80B0001A97048BA
:1014700024F000FD0020ADF818004FF6FF70079033
:101480000020ADF82000ADF81A0006A9694825F043
:10149000B6FD02220C21664824F077FD02220D21C0
:1014A000634824F072FD0420ADF80C000220ADF872
:1014B0000E00C820ADF814000120ADF8100003A9FB
:1014C0005C4826F073F902231A460321594826F096
:1014D0000AFB0121574826F05BFA012211465548C4
:1014E00026F02EFA0121534825F012FE0021514822
:1014F00025F0CEFD00204F491431088001204D49D0
:1015000008804FF4C06024F0D7FB1E208DF8000047
:1015100004208DF8010000208DF8020001208DF8D4
:101520000300684624F0CDFB09B000BD00B589B0CA
:101530000121082024F017FF0121084624F0E0FED5
:101540000320019002208DF8080003208DF8090087
:1015500000208DF80A0001208DF80B0001A9304809
:1015600024F088FC0020ADF818004FF6FF700790BB
:101570000020ADF82000ADF81A0006A92E4825F08D
:101580003EFD02220021264824F0FFFC0222012118
:10159000234824F0FAFC0420ADF80C000220ADF83A
:1015A0000E00C820ADF814000120ADF8100003A90A
:1015B000214826F0FBF802231A4603211E4826F094
:1015C00092FA01211C4826F0E3F9012211461A483B
:1015D00026F0B6F90121184825F09AFD0021164899
:1015E00025F056FD002014491431088001201249CD
:1015F00008804FF4C06024F05FFB32208DF80000BB
:1016000004208DF8010000208DF8020001208DF8E3
:101610000300684624F055FB09B000BD00040240F9
:1016200000000240000400400010024000000140A1
:10163000000C024000080040000C004000B59BB0C8
:101640000121FE4824F05CFE0121080224F09CFEEA
:1016500000200290FA480390FA4804900020059078
:101660000E200690002007904FF480600890400004
:10167000099080000A9040110B9040020C900020CD
:101680000D9001200E9000200F90109002A9EE48BE
:1016900025F048FA0121EC4825F07EFAFC20009064
:1016A00003208DF8040000208DF807006946E74804
:1016B00024F0E0FB4FF44070009003208DF804000C
:1016C00000208DF807006946E14824F0D3FB3F2055
:1016D000009003208DF8040000208DF80700694673
:1016E000DC4824F0C7FB002011904FF440301290EA
:1016F00000201390149011A824F07AFF4FF080700E
:10170000159001208DF858008DF859000020179091
:10171000189019900E208DF8680015A9C8484C380B
:1017200024F037FF072301220221C5484C3824F05A
:10173000B6FF072302220321C1484C3824F0AFFF33
:10174000072303220421BE484C3824F0A8FF0723B6
:1017500004220521BA484C3824F0A1FF07230522B2
:101760000621B7484C3824F09AFF07230622194671
:10177000B3484C3824F093FF07231A460821B04899
:101780004C3824F08CFF072308220921AC484C3840
:1017900024F085FF072309220A21A9484C3824F0A8
:1017A0007EFF07230A220B21A5484C3824F077FF3F
:1017B00007230B220C21A2484C3824F070FF07238A
:1017C0000C220D219E484C3824F069FF07230D227E
:1017D0000E219B484C3824F062FF07230E220F2174
:1017E00097484C3824F05BFF012195484C3825F090
:1017F00001F8012192484C3824F0F1FF0121904872
:101800004C3824F00CFF8E484C3824F0A4FF1BB059
:1018100000BD08B54FF4E06024F04EFA25208DF8A5
:10182000000000208DF801008DF8020001208DF8E5
:101830000300684624F045FA08BD10B596B004468A
:101840000121102024F0A0FD0121084624F058FDBC
:101850000121880524F054FD4FF4C060009002205F
:101860008DF8040000208DF806008DF80700022096
:101870008DF805006946754824F0FCFA0722092115
:10188000724824F082FB07220A21704824F07DFB75
:1018900002940020ADF80C00ADF80E00ADF8100079
:1018A000ADF814000C20ADF8120002A96A4826F029
:1018B00099F90121684826F01DFA4FF4A06024F040
:1018C000FBF93A208DF8180000208DF819008DF8EA
:1018D0001A0001208DF81B0006A824F0F2F95A48DE
:1018E000303025F07DF84FF00060079000200A901E
:1018F0005A4809900A200B905748001D0890002074
:101900000C904FF480600D9000200E900F904FF4DB
:1019100080701090400211900420129003201390C8
:1019200000201490159007A94748303025F0FAF8A8
:1019300001224021484826F08AFA0122102142481B
:10194000303025F0B6F901213F48303025F024F938
:1019500016B010BD10B596B004460121480524F01C
:10196000CFFC0121480424F0FEFC0121082024F0D2
:10197000C7FC6020009002208DF8040000208DF844
:1019800006008DF8070002208DF8050069463448EE
:1019900024F070FA07220521314824F0F6FA0722D4
:1019A00006212F4824F0F1FA02940020ADF80C0033
:1019B000ADF80E00ADF81000ADF814000C20ADF835
:1019C000120002A9274826F00DF90121254826F02A
:1019D00091F94FF4A06024F06FF911208DF81800F0
:1019E00000208DF819008DF81A0001208DF81B00D9
:1019F00006A824F066F91C4824F0F2FF4FF00060BE
:101A0000079040200A901948099050200B901548E3
:101A1000001D089000200C904FF480600D90002075
:101A20000E900F904FF4807010904002119004209F
:101A30001290032013900020149019E0070040003A
:101A40004C200140A2080020106402400000024027
:101A5000000402400008024000100140BE080020BF
:101A6000000C024000440040A0600240040000203E
:101A7000159007A9FE4825F055F801228021FD4860
:101A800026F0E5F901228021FA4826F0E0F901224A
:101A90001021F74825F00DF90121F54825F07CF8D3
:101AA00016B010BD10B596B004460121880424F08C
:101AB0005AFC0121082024F023FC0121480524F0D0
:101AC0001FFC4FF44070009002208DF804000020AD
:101AD0008DF806008DF8070002208DF80500694694
:101AE000E54824F0C7F907220821E34824F04DFA1D
:101AF00007220921E04824F048FA02940020ADF8BA
:101B00000C00ADF80E00ADF81000ADF814000C207C
:101B1000ADF8120002A9D94826F064F80121D7488F
:101B200026F0E8F84FF4A06024F0C6F80C208DF8F9
:101B3000180000208DF819008DF81A0001208DF88A
:101B40001B0006A824F0BDF8C948783824F048FFE7
:101B50004FF00060079000200A90C94809900A20C1
:101B60000B90C648001D089000200C904FF4806038
:101B70000D9000200E900F904FF480701090400256
:101B800011900420129003201390002014901590BF
:101B900007A9B748783824F0C5FF01224021B7488B
:101BA00026F055F901224021B44826F050F90122CF
:101BB0001021AF48783825F07CF80121AC487838FE
:101BC00024F0EAFF16B010BD10B596B0044601210E
:101BD000C80424F0C8FB0121042024F091FB01215A
:101BE000480524F08DFB4FF44060009002208DF8F2
:101BF000040000208DF806008DF8070002208DF803
:101C0000050069469F4824F035F908220A219D48BD
:101C100024F0BBF908220B219A4824F0B6F902946B
:101C20000020ADF80C00ADF80E00ADF81000ADF8D6
:101C300014000C20ADF8120002A9934825F0D2FF41
:101C40000121914826F056F84FF4A06024F034F8B2
:101C50000D208DF8180003208DF8190001208DF853
:101C60001A008DF81B0006A824F02BF88048603875
:101C700024F0B6FE4FF00060079000200A908348E1
:101C8000099008200B908048001D089000200C90BF
:101C90004FF480600D9000200E900F9010904FF444
:101CA0000030119000201290032013900020149017
:101CB000159007A96E48603824F034FF01224021B6
:101CC000714826F0C4F8012280216F4826F0BFF841
:101CD000012210216648603824F0EBFF012164489E
:101CE000603824F059FF16B010BD70B5684C2468F8
:101CF000642C00DB70BD674C248804EB8404664DC3
:101D00002C446070634C248804EB84042C44A17040
:101D1000604C248804EB84042C44E2705D4C2488DD
:101D200004EB84042C4423715A4C2488641C6425DD
:101D300094FBF5F605FB1644564D2C80544C246854
:101D4000641C534D2C6000BFD4E701465048006826
:101D500008B9002070475148008800EB80004E4AC7
:101D6000104402680A60007908710120F2E7014618
:101D70004748006808B9002070474848008800EBD1
:101D80008000454A104402680A600079087143489F
:101D90000088401C642290FBF2F302FB13003F4AD0
:101DA00010803B480068401E394A10600120E3E77C
:101DB0000CB56846FFF7DBFF0020394908700CBD01
:101DC0000346012B03DB062B01DC18467047012973
:101DD00003DB062901DC0846F8E7012A03DB062AB3
:101DE00001DC1046F2E70020F0E710B52D48C07F77
:101DF00040F004002B49C8774FF4FA6027F09CFAB2
:101E00002848C07F40F008002649C8774FF4FA60A0
:101E100027F092FA2348C07F40F040002149C8775C
:101E20004FF4FA6027F088FA1E48C07F40F0100097
:101E30001C49C8774FF4FA6027F07EFA10BD10B540
:101E400012480078114949780844104989780844B3
:101E50000E49C97808440D49097908440B49497964
:101E60000844C4B20948007802281DD010BD000003
:101E7000A060024000440040000C024000480040C6
:101E8000FF08002000080240004C0040C302002070
:101E9000E0020020E40200200E090020E6020020FB
:101EA000E902002004000020FE48C079032800D089
:101EB00010BDFC488079A0427DD1FA484078FA49AB
:101EC0000870F8488078F9490870F648C078F849F1
:101ED0000870F4480079F7490870F2484079F649EB
:101EE0000870F1480078012808D1F04800780228ED
:101EF00004D108460078F149086028E1EA480078F2
:101F0000022807D1E9480078012803D10020EC49D4
:101F100008601CE1E448007802280AD1E348007810
:101F20000A2806D1E2480078012802D1E549086074
:101F30000DE1DD48007802280AD1DC4800780A2843
:101F400006D1DB480078022802D1DE490860FEE0B5
:101F5000D548007802280AD1D4480078092806D14B
:101F6000D3480078012802D1D7490860EFE0CE4875
:101F7000007802280AD1CD480078092806D1CC483B
:101F80000078022802D1D0490860E0E0C648007815
:101F9000022856D1C5480078022852D1C648037895
:101FA000C4480278C2480178C0480078FFF79DFE17
:101FB000C648C07F00E0C1E040F00200C349C877D6
:101FC000BB48007880B9BB480078012807D0B948E1
:101FD0000078022803D0B7480078032804D1BC4811
:101FE0000068401CBA490860B148007804280BD149
:101FF000B0480078052807D10120B6490860AE48EE
:102000000078B54908600CE0A9480078042808D198
:10201000A8480078062804D10020AE490860AF49DE
:102020000860A3480078052891D1A24800780528C7
:1020300006D10120A94908609F480078A649086098
:1020400085E09948007802281BD198480078032839
:1020500017D1994802789748017895480078FFF79A
:10206000AFFE9F4908609948C07F40F00200974941
:10207000C8779B480068002869D00120994908600A
:1020800065E089480078022823D188480078042830
:102090001FD18748007801280BD186480078012895
:1020A00007D1914908608948C07F40F00200874904
:1020B000C8777F4800788D4908607E4800788C4951
:1020C00008607D4800788B490860012086490860D7
:1020D0003DE075480078022821D174480078052831
:1020E0001DD173480078012809D172480078012871
:1020F00005D171480078012801D17F4908606C48FA
:102100000078022823D16B48007802281FD16A4842
:1021100000787849086001207849086017E0624833
:102120000078032813D16148007803280FD1604854
:10213000007803280BD1FFF758FE08E0FF205B4929
:1021400008705B4908705B4908705B49087000BF04
:10215000AEE65F480068022803D1012068490860A4
:1021600002E0002066490860704710B596B004464A
:102170000121480524F0C4F80121080524F0F3F8F2
:1021800001210C2024F0BCF80420009002208DF8DE
:10219000040000208DF806008DF8070002208DF85D
:1021A00005006946574823F065FE4FF480500090C3
:1021B00002208DF8040000208DF806008DF807003D
:1021C00002208DF8050069464F4823F053FE08228F
:1021D00002214C4823F0D9FE08220C214A4823F062
:1021E000D4FE4FF4A06023F067FD2F208DF8180077
:1021F00005208DF819008DF81A0001208DF81B00BC
:1022000006A823F05EFD0B208DF8180005208DF840
:1022100019008DF81A0001208DF81B0006A823F084
:1022200050FD02940020ADF80C00ADF80E00ADF8A2
:102230001000ADF814000C20ADF8120002A93348CC
:1022400025F0D0FC0121314825F054FD304824F020
:10225000C7FB4FF00060079040200A902D4809907E
:102260000A200B902948001D089000200C904FF484
:1022700080600D9000200E900F9010904FF4003071
:1022800011900020129003201390002014901590BC
:1022900007A91F4824F046FC1D48A83824F0A0FBDD
:1022A0003AE00000C3020020CB020020CC02002054
:1022B000CD020020CE020020CF020020FC02002030
:1022C000000300201C030020240300200400002041
:1022D0002C030020EC020020F8020020F402002071
:1022E000040300202803002020030020080300200E
:1022F0000C0300201003002014030020180300200A
:1023000050020020000C0240000802400050004033
:10231000B8600240760700204FF000600790002070
:102320000A90F748099005200B90F6480890002085
:102330000C904FF480600D9000200E900F90109044
:102340004FF40030119000201290032013900020D1
:102350001490159007A9EC4824F0E4FB0122802199
:10236000E848001F25F073FD01224021E548001FC9
:1023700025F06DFD01221021E348A83024F099FCDE
:1023800001221021E04824F094FC0121DE48A8300D
:1023900024F002FC0121DC4824F0FEFB16B010BD45
:1023A00010B596B004460121202023F0EDFF012155
:1023B000042023F0A5FF0121880523F0A1FFC02000
:1023C000009002208DF8040000208DF806008DF8A2
:1023D000070002208DF805006946CC4823F04AFD2D
:1023E00008220621C94823F0D0FD08220721C7484A
:1023F00023F0CBFD02940020ADF80C00ADF80E00E8
:10240000ADF81000ADF814000C20ADF8120002A9D0
:10241000BF4825F0E7FB0121BD4825F06BFC4FF4D8
:10242000A06023F049FC39208DF8180003208DF8B6
:10243000190001208DF81A008DF81B0006A823F062
:1024400040FCB44824F0CCFA4FF020600790002004
:102450000A90B148099008200B90AD48001D0890E3
:1024600000200C904FF480600D9000200E900F9093
:1024700010904FF400301190002012900320139020
:1024800000201490159007A9A24824F04BFB0122CC
:1024900040219F4825F0DBFC012280219C4825F04B
:1024A000D6FC012210219B4824F003FC012199480D
:1024B00024F072FB16B010BD97490978964A5278FD
:1024C0001144954A92781144934AD2781144924A21
:1024D00012791144904A52791144C8B28E49097850
:1024E000022900D070478C49C979032900D0F9E747
:1024F00089498979814218D187494978874A117079
:1025000085498978864A11708349C978854A11704E
:1025100081490979844A11707F494979834A117048
:1025200081490978824A117006E0FF217D4A1170C5
:102530007D4A11707D4A117000BFD3E700B585B0A8
:102540000121082023F0DCFE0121880323F01CFF79
:1025500000208DF8100001208DF813000C2003904E
:1025600003A9744823F086FC0221032025F008FD0E
:102570000420009000208DF8040010208DF8050044
:1025800001208DF80600684624F00CFC08208DF828
:10259000080000208DF809008DF80A0001208DF850
:1025A0000B0002A823F08DFB05B000BD70B50446FA
:1025B0000D46012C0BD129465F4825F0C6FB00BF14
:1025C00040215D4825F071FC0028F9D038E0032C4B
:1025D0000BD12946594825F0B8FB00BF4021574888
:1025E00025F063FC0028F9D02AE0042C0BD1294601
:1025F000534825F0AAFB00BF4021514825F055FC67
:102600000028F9D01CE0052C0DD129463D48001FBB
:1026100025F09BFB00BF40213A48001F25F045FCF8
:102620000028F8D00CE0062C0AD12946384825F0BD
:102630008CFB00BF4021364825F037FC0028F9D03C
:1026400070BD2DE9F04702240125022600274FF036
:1026500000084FF0030960193044384440443949B8
:102660000978084400F0FF0A21460420FFF79EFF86
:1026700029460420FFF79AFF31460420FFF796FF12
:1026800039460420FFF792FF41460420FFF78EFFF2
:102690002C4801780420FFF789FF51460420FFF7FA
:1026A00085FF49460420FFF781FFBDE8F087002041
:1026B0002549486225490860254908602549086080
:1026C0007047002020494862204908604FF080414F
:1026D00048622149086021490860214908601C4975
:1026E00008601C4908601F4908601F49086070475E
:1026F00000204FF080414862174908607047000091
:10270000020B00200450004010600240000802400C
:1027100000140140286402403003002038030020E8
:10272000390300203A0300203B0300203C03002033
:102730003D030020000C0240001001400048004012
:10274000004C0040FC020020000001406C00002012
:10275000240800408800002070000020240400406D
:1027600074000020240C0040780000200020FE4966
:102770000860FE490860704710B50020FC490870E9
:10278000002407E061210120FFF710FF3220FEF74F
:102790002EFA641C022CF5D30120F54908707A202A
:1027A000F449087010BD10B50020F34908700024EA
:1027B00007E061210320FFF7F9FE3220FEF717FA48
:1027C000641C022CF5D30120EB4908707A20EB49F8
:1027D000087010BD2DE9F14FAEB0E9A02D9000209A
:1027E0002C908DF888008DF860002E9829283DD215
:1027F000DFE800F0153D464D545B626970777E85D9
:102800008C939AA1A8FDFCFBFAF9F8F7F6F5F4F31E
:10281000F2F1F0EFEEEDECEBEAE9E8E7E600022199
:10282000E04823F089FB88B100224FF40041DE48E4
:1028300023F0A0FB4FF40041DB4823F08AFB044661
:1028400000222146D9A0FDF722FF0FE00122D1038B
:10285000D54823F08FFB4FF40041D34823F079FB98
:10286000044600222146D9A0FDF711FF3BE30122D7
:10287000DE48B0F900004142DDA0FDF708FF32E379
:102880000222DD480168DDA0FDF701FF2BE30322F2
:10289000DD480168DDA0FDF7FAFE24E30422E048EC
:1028A0000168E0A0FDF7F3FE1DE30522E0480168A2
:1028B000E0A0FDF7ECFE16E30622E2480168E2A084
:1028C000FDF7E5FE0FE30722E2480168E2A0FDF70D
:1028D000DEFE08E30822E4480168E4A0FDF7D7FE25
:1028E00001E30922E5480168E5A0FDF7D0FEFAE220
:1028F0000A22E7480168E7A0FDF7C9FEF3E20B22D0
:10290000E7480168E7A0FDF7C2FEECE20C22E948C7
:102910000168E9A0FDF7BBFEE5E20D22EB48016886
:10292000EBA0FDF7B4FEDEE20E22ED480168EDA05B
:10293000FDF7ADFED7E2EF4841890F22EEA0FDF78B
:10294000A6FED0E20121F04823F0F6FA4FF4005140
:102950001790954823F0F0FA04460221EA4823F044
:10296000EBFA05464FF480418F4823F0E5FA06461E
:102970000421E54823F0E0FA4FF400411690E248C4
:1029800023F0DAFA07460821DF4823F0D5FA80461B
:102990004FF48041DC4823F0CFFA81461021DA4819
:1029A00023F0CAFA4FF400511590D74823F0C4FA27
:1029B00082460821D54823F0BFFA4FF4805117E032
:1029C0008AE282E27AE272E266E25EE256E24AE29B
:1029D00040E236E22CE222E216E20AE2FDE1F1E117
:1029E000E4E1D7E1CFE1C2E1BAE1B2E1AAE13CE042
:1029F0001490C54823F0A0FA10211390C34823F087
:102A00009BFA4FF480611290BF4823F095FA8346F9
:102A10008021BD4823F090FA4FF480711190BA489C
:102A200023F08AFA10901798CDE90B65CDE90D4097
:102A30001698CDE90798CDE90970DDE913121598CC
:102A4000CDE9042A03910690DDE91101CDE901B138
:102A50000090AFA2282122A8109B27F021FC102271
:102A600022A9B4A0FDF766FE3DE280214D4823F087
:102A700063FA044601214B4823F05EFA05464021E3
:102A8000484823F059FA06464FF400419F4823F086
:102A900053FA07464FF48051A74823F04DFA804679
:102AA0004FF480613F4823F047FA81464FF40061BC
:102AB000A14823F041FA4FF400611790394823F000
:102AC0003BFA82464FF48061904823F035FA834602
:102AD0004FF48051334823F02FFA4FF400611690E1
:102AE0008A4823F029FA4FF4005115902D4823F01D
:102AF00023FA4FF480411490844823F01DFA4FF4D8
:102B000080411390274823F017FA4FF480711290F8
:102B1000894823F011FA4FF400411190214823F025
:102B20000BFACDE90B76CDE90D5410901798CDE94D
:102B300007A0CDE90998DDE915211498CDE9051B19
:102B4000CDE90302DDE911121398CDE900120290DC
:102B50006FA2282122A8109B27F0A2FB112222A9F4
:102B600076A0FDF7E7FDBEE12404004074000020DC
:102B7000910000209000002093000020920000208F
:102B80003131313131313131313131313131313135
:102B90003131313131313031313131313131313126
:102BA000000000000004024000080240524F424F63
:102BB0005420322044414E4720434841592053413C
:102BC0004E2058414E483A2020200000524F424F9C
:102BD0005420322044414E4720434841592053411C
:102BE0004E20444F3A202020000000008C0000209E
:102BF000494D553A00000000A40000204C617A6560
:102C00007220706861690000B800002054726F2063
:102C10006368616E205472756F633A200000000093
:102C2000A00000204C617A657220747261692000F6
:102C3000BC00002054726F206368616E2053617580
:102C40003A202000980000204C617A657220736160
:102C500075200000C000002054726F20646179204C
:102C600074617920312000009C0000204C617A655D
:102C700072207472756F632000000000C400002091
:102C800054726F20646179207461792032200000D1
:102C9000240300206D6F646520626163203320008F
:102CA000B000002054726F20786F617920746179D0
:102CB000200000001C0300206D6F64655F63686185
:102CC000795F72756E673A200000000010030020E3
:102CD0006E6861745F6461745F686F7020000000EB
:102CE000200300206D6F6465206E68617420686F3A
:102CF00070200000A20800205175616E675F747239
:102D00006F203A200000000000100240000C02403A
:102D1000256425642564256425642564256425646B
:102D2000256425642564256425642564256425645B
:102D300000000000493A000000000240696E323A8B
:102D4000000000001222F9480168F9A0FDF79FFC7D
:102D5000C9E01322FB480168FBA0FDF798FCC2E024
:102D60001422FC480168FCA0FDF791FCBBE04FF485
:102D70000061FE4823F0E0F8044615222146FCA03D
:102D8000FDF785FCAFE0FE48018A1622FDA0FDF7A5
:102D90007EFCA8E04FF40071F44823F0CDF804461F
:102DA00017222146FAA0FDF772FC9CE04FF4007157
:102DB000FB4823F0C1F8044618222146F9A0FDF78C
:102DC00066FC90E02021E94823F0B6F80446192279
:102DD0002146F8A0FDF75BFC85E04FF48071F048D8
:102DE00023F0AAF804461A222146F6A0FDF74FFC6C
:102DF00079E04021DD4823F09FF804461B2221465C
:102E0000F4A0FDF744FC6EE00121F64823F094F8AD
:102E100004461C222146F4A0FDF739FC63E0FDF7CF
:102E200057FE04461D222146F1A0FDF730FC5AE072
:102E3000FDF721FE04461E222146F1A0FDF727FCE6
:102E400051E0FDF799FE04461F222146F0A0FDF750
:102E50001EFC48E0FDF766FE044620222146F0A055
:102E6000FDF715FC3FE04021CD4823F065F804460E
:102E700021222146EEA0FDF70AFC34E02222F04890
:102E80000168F0A0FDF703FC2DE02322F048016863
:102E9000F0A0FDF7FCFB26E08021C14823F04CF8B0
:102EA000044624222146EEA0FDF7F1FB1BE025227B
:102EB000F0480168F0A0FDF7EAFB14E02622F24892
:102EC0000168F2A0FDF7E3FB0DE02722F34801685B
:102ED000F3A0FDF7DCFB06E02822F4480168F4A02B
:102EE000FDF7D5FB00BF00BF2FB0BDE8F08F10B5D8
:102EF0000121F24823F050FE10BD01B5F0480068F2
:102F00000099884203DD0020ED49086004E0EC48A8
:102F10000068401CEA490860E9480068FFF75AFC6D
:102F200008BD01B59DF80000052801DA002008BDA4
:102F30009DF80000FBE730B504461D4624B9E14882
:102F40000078E14BD87011E0002C07DDE0B2FFF70C
:102F5000E8FFDD4BD8700020987007E06342D8B2DC
:102F6000FFF7DFFFD84BD8700120987021B9D54802
:102F70000078D54BD87111E0002907DDC8B2FFF702
:102F8000D0FFD14BD8710120987107E04B42D8B2E5
:102F9000FFF7C7FFCC4BD8710020987122B9C94800
:102FA0000078C94BD87211E0002A07DDD0B2FFF7D4
:102FB000B8FFC54BD8720120987207E05342D8B2CF
:102FC000FFF7AFFFC04BD8720020987225B9BD48FB
:102FD0000078BD4BD87311E0002D07DDE8B2FFF794
:102FE000A0FFB94BD8730120987307E06B42D8B2A9
:102FF000FFF797FFB44BD8730020987330BDB24AE7
:10300000D070D071D072D0737047AF48C0780328A9
:103010000DDAAD48C079032809DAAB48C07A032835
:1030200005DAA948C07B032801DA01207047002097
:10303000FCE70120A54908607047A548006847F2F1
:103040003051884201D0012070470020FCE710B5C4
:10305000FFF792FB10BD9F48B0F900004042704757
:10306000B5EEC00AF1EE10FA09D29B48D0ED000A85
:1030700070EE600AFDEEE00A10EE900A7047964886
:10308000D0ED000A70EE200AFDEEE00A10EE900A84
:10309000F4E710B52DED0A8B044624B99FED8F0A95
:1030A000BDEC0A8B10BD002C25DA8D48006826F097
:1030B0004CFF41EC190B204626F047FF41EC1C0B5E
:1030C0009FED880B53EC102B26F05EFE41EC1B0BA2
:1030D0009FED860B53EC102B26F050FE41EC1A0BA3
:1030E00053EC192B26F0C2FE41EC180B26F088FF9A
:1030F00000EE100AD4E77A48006826F026FF41EC7B
:10310000190B204626F021FF41EC1C0B9FED750B9F
:1031100053EC102B26F038FE41EC1B0B9FED730B8C
:1031200053EC102B26F089FDE4E00000E0020020C3
:10313000636F756E745F646174615F75617274341E
:1031400020000000FC020020626C6F636B5F7068FF
:10315000613A2000F80200207365655F52315F74A8
:1031600072656E5F72756E6720000000001002408D
:1031700043425F4E616E675F7472616920000000B8
:10318000A20800205175616E675F74726F32200073
:1031900043425F4E616E675F7068616900000000C6
:1031A00000080240636865636B5F686F705F313A67
:1031B00000000000636865636B5F686F705F323AA0
:1031C00020000000636865636B5F686F705F333A6F
:1031D00020000000636865636B5F686F705F343A5E
:1031E00020000000000C0240537461727400000063
:1031F000454E434F4445525F465228292000000067
:10320000454E434F4445525F464C2829200000005C
:10321000454E434F4445525F52522829200000003A
:10322000454E434F4445525F524C28292000000030
:1032300063687579656E5F646F695F543320000061
:103240000403002069645F6461745F686F7020002C
:1032500008030020646F5F6C656368200000000055
:10326000636865636B5F6461745F686F705F54323D
:1032700020000000780200206E6861795F64656E4E
:103280005F6C616E5F312000DC0200206E67616E52
:10329000675F7175615F6F33200000004C02002092
:1032A0006B745F6C6162616E20000000440300205B
:1032B000636865636B5F74696D652000A0600240A0
:1032C000840000208C03002004000020F003002074
:1032D000B40300208C0000204C03002000000000FC
:1032E000A0030020333333333333C33F9A99999982
:1032F0009999C93F41EC1A0B53EC192B26F0B6FDF6
:1033000041EC180B26F07CFE00EE100AC8E6F0EE49
:10331000400AF5EEC00AF1EE10FA02DBB0EE600AE8
:103320007047B1EE600AFBE70146002901DB084661
:1033300070474842FCE70146FE48D0ED000AF1EE36
:10334000600AFD48D0ED001A80EEA11A00EE901A36
:10335000F8EEE01AF748D0ED000A41EE210AB0EE8F
:10336000600AFDEEC00A10EE900A7047B0EE402AE7
:10337000DFEDF22AB0EE620AB5EEC02AF1EE10FAE5
:1033800003D2F1EE422AB0EE622AF5EEC00AF1EE67
:1033900010FA03D2F1EE602AF0EE620AB5EEC01A1E
:1033A000F1EE10FA03D2F1EE412AB0EE621AF5EE18
:1033B000C01AF1EE10FA03D2F1EE612AF0EE621AB1
:1033C000B4EEC02AF1EE10FA01DDB0EE420AF4EEDE
:1033D000C00AF1EE10FA01DDB0EE600AB4EEC01AD8
:1033E000F1EE10FA01DDB0EE410AF4EEC01AF1EE92
:1033F00010FA01DDB0EE610A7047D14800687047ED
:10340000D0480068704710B52DED028BB0EE408AB1
:10341000CD48006847F2305188420ED11FED510A65
:10342000CA4880ED000ACA4880ED000AC94880ED0C
:10343000000AC94880ED000A4AE0C8480068C84947
:103440000968401AC0490968081A00EE100AB8EE67
:10345000C00AF0EE408AC348D0ED000A88EEA00A08
:10346000C148D0ED000A30EE200AC048D0ED000A75
:1034700020EE200AF0EE408AB0EE680A27F074FAD7
:10348000F0EE000A20EE200AB04880ED000AB0EE0F
:10349000680A27F0C1F9F0EE000A20EE200AAC48D5
:1034A00080ED000AA94890ED000AB148D0ED000A6D
:1034B00030EE200AA84880ED000AA54890ED000AE9
:1034C000AB48D0ED000A30EE600AA24880ED000A59
:1034D000B5EEC08AF1EE10FA73D0A6480068052850
:1034E00020D2DFE800F003203A546F009A4890EDB4
:1034F000000A30EE080A80ED000A964890ED000AB6
:1035000030EE480A80ED000A914890ED000A30EE56
:10351000080A80ED000A8D4890ED000A30EE480A56
:1035200080ED000A68E08B4890ED000A30EE480A12
:1035300080ED000A864890ED000A30EE080A80ED22
:10354000000A824890ED000A8B48D0ED000A08EE90
:10355000600A7E4880ED000A4EE07F4890ED000A48
:1035600030EE080A80ED000A794890ED000A8248A2
:10357000D0ED000A08EE200A754880ED000A734875
:1035800090ED000A30EE480A80ED000A34E07248FF
:1035900090ED000A30EE080A80ED000A6D4890EDCB
:1035A000000A7548D0ED000A08EE600A694880ED0F
:1035B000000A664890ED000A30EE480A80ED000AE5
:1035C0001AE01AE0644890ED000A6B48D0ED000A5A
:1035D00008EE200A604880ED000A5E4890ED000A7F
:1035E00030EE480A80ED000A594890ED000A30EEAE
:1035F000080A80ED000A00BF00BF5448D0ED001A51
:10360000534890ED001A5348D0ED000A524890ED0F
:10361000000AFFF7ABFE5948D0ED000AF8EEE00AC9
:1036200080EE801ABDEEC10A554880ED000A44487C
:10363000006853490968884203DD514800684049E1
:10364000086001204F490860BDEC028B10BD10B529
:10365000044600204C4908604C480460FCB9002036
:10366000374908601FEDE30A414880ED000A47F240
:10367000305035490860464908601FEDE80A454862
:1036800080ED000A00203B490860434908602D494D
:103690000860424908601FEDEF0AFFF7B4FE10BD55
:1036A00010B53C4890ED000AB5EEC00AF1EE10FAF4
:1036B00005D13048006810B93748006890B11FED57
:1036C000F90A344880ED000A00202A49086032498E
:1036D000086022480068224908602E4890ED000AE0
:1036E000FFF791FE10BD1348C0ED000A124880EDAF
:1036F000000A704770B52DED028B05460C46B0EE02
:10370000408A11480068A8420BD11F480068A042B7
:1037100007D1174890ED000AB4EE480AF1EE10FA0E
:103720004FD0194804600648006810B905200449C4
:10373000086035E084030020880300206F12833A7C
:10374000A0030020CC030020B4030020EC030020E1
:10375000E8030020E4030020E0030020D40300205D
:10376000C0030020640300207003002094030020A5
:10377000C80300209C0300205403002048030020BD
:10378000A803002098030020A4030020AC0300201D
:10379000B8030020C4030020BC030020F003002075
:1037A000FA480068FA490860FA4880ED008AFA4849
:1037B00005600020F9490860F94890ED000AFFF71C
:1037C00022FEBDEC028B70BD70B52DED028B044660
:1037D000B0EE408A0D46F3480068A0420BD1F04895
:1037E00090ED000AB4EE480AF1EE10FA03D1EE486B
:1037F0000068A8423AD0E848006847F23051884251
:1038000025D12820E9490860E948006810B90A2054
:10381000E749086047F23050844218DA0120E54950
:103820000860B5EEC08AF1EE10FA03DDD7480068F3
:10383000A04208DCB5EEC08AF1EE10FA07D2D348F8
:103840000068A04203DAB1EE480AB0EE408AD548DB
:103850000460D5480560D24880ED008A0020CF4939
:103860000860CF4890ED000AFFF7CDFDBDEC028B5C
:1038700070BD10B52DED028BB0EE408A0446214696
:10388000B0EE480A47F23050FFF79EFFBDEC028BC6
:1038900010BD70B504460D469FEDC70A2946204667
:1038A000FFF728FF70BD70B52DED088BF0EE408A54
:1038B0000446B0EE608AB0EE419AC04890ED000A2E
:1038C000B8EEC00AB4EE680AF1EE10FA0DD1B748AE
:1038D0000068A04209D1B34890ED000AB8EEC00AD2
:1038E000B4EE480AF1EE10FA5ED0BDEEE80AB34835
:1038F00080ED000AA54991ED000AB8EEC00A38EE45
:10390000C00ABDEEC00A10EE100A9FEDAB0A2146B8
:10391000FFF7F0FE9D4890ED000AB8EEC00A38EEC1
:10392000400ABDEEC00A10EE105A002D01DB2846F9
:1039300000E06842642814DD944890ED000AB8EE77
:10394000C00AB4EEC08AF1EE10FA02DDB0EE490A08
:1039500001E0B1EE490A10EE101A084626F025FBE8
:1039600013E08A4890ED000AB8EEC00A38EE400A2B
:1039700010EE101A084626F018FB41EC1B0B9FEDC9
:10398000900B53EC102B26F0FFF941EC1A0B26F0AC
:1039900037FB09EE900A0021B0EE690AFDEEC80A75
:1039A00010EE900AFFF710FFBDEC088B70BD10B54C
:1039B0008048006801283DDD7A490968734A126829
:1039C000881AFFF7B1FC0A280CDA7A480168006807
:1039D000401C784A1060B1F5FA7F2BDD0020FFF71C
:1039E00036FE10BD73480068FA2808DD05206F49CF
:1039F00008606F490860FB206E49086004E00520FC
:103A00006A4908606A490860604800686549096851
:103A1000884205DDBFEE000A614880ED000A04E03F
:103A2000B7EE000A5E4880ED000A5D4890ED000A9E
:103A3000FFF7E9FC00BFD4E710B52DED028B554828
:103A400090ED000AB5EEC00AF1EE10FA08D1584820
:103A5000006828B15348006847F23051884202DBC1
:103A6000BDEC028B10BD4E4890ED000AB5EEC00AC9
:103A7000F1EE10FA7ED04848006847F23051884293
:103A800079D1474890ED000AB5EEC00AF1EE10FA80
:103A900008DD444800684C490968401A3B490968F8
:103AA000884210DB3E4890ED000AB5EEC00AF1EE08
:103AB00010FA6AD23B480068434909680844334910
:103AC0000968884261DD3B48006803285CDA3549B3
:103AD00009682E4A1268881AFFF726FC082816DAA9
:103AE00030480068394908600020314908602F4992
:103AF00008609FED310A2A4880ED000A02202D4916
:103B00000860274890ED000AFFF77DFCA8E72548EC
:103B100000681E49096888425CDD254890ED000A6E
:103B2000B8EEC00A1E48D0ED000A60EE200A264812
:103B300090ED000AB8EEC00AC0EE801AB0EE611A2D
:103B4000B0EE410AFFF7E3FB164909680F4A126815
:103B5000881AFFF7E9FB00EE900AB8EEE01A1C485D
:103B6000D0ED000A40EE010A114890ED000AB8EECF
:103B7000C00A01E0CBE068E080EE801AB0EE418A36
:103B8000B0EE480AFFF73FFCC0E058E0D403002045
:103B9000C0030020C8030020B4030020B0030020AD
:103BA000C4030020BC0300209C030020A4030020C9
:103BB000A0030020CC03002000000000B803002078
:103BC0007B14AE47E17A743F80030020D0030020CD
:103BD00060030020FE4890ED000AB8EEC00AFD48E0
:103BE000D0ED000A60EE200AFB4890ED000AB8EE26
:103BF000C00AC0EE801AB0EE611AB0EE410AFFF7BB
:103C000086FBF6490968F64A1268881AFFF78CFBAA
:103C100000EE900AB8EEE01AF248D0ED000A50EE3D
:103C2000410AEB4890ED000AB8EEC00A80EE801A17
:103C3000B0EE418AB0EE480AFFF7E5FB66E0E548E2
:103C400090ED000AFFF7DFFB60E0E24890ED000A2C
:103C5000B5EEC00AF1EE10FA1FDDE04890ED000A63
:103C6000B8EEC00ADA48D0ED000AF8EEE00AD9480A
:103C700090ED001A00EEC10ADB48D0ED000AF8EE24
:103C8000E00A70EE600AD64890ED000AB8EEC00A6D
:103C9000F4EEC00AF1EE10FA27D3CE4890ED000AF8
:103CA000B5EEC00AF1EE10FA2BD2CC4890ED000A26
:103CB000B8EEC00AC648D0ED000AF8EEE00AC548E2
:103CC00090ED001A00EEC10AC748D0ED000AF8EEE8
:103CD000E00A70EE200AC24890ED000AB8EEC00A71
:103CE000F4EEC00AF1EE10FA0BDDBC490968BC4ADB
:103CF0001268881AFFF7CDF9B0EE408AFFF783FB10
:103D000004E0B44890ED000AFFF77DFBA8E6B74950
:103D10000968B34A1268881AFFF7BBF9B0EE408A07
:103D2000FFF771FB00BF9BE600B5B14800680228B1
:103D300015DA1FED5F0AAF4880ED000A1FED620A39
:103D4000A44880ED000A0020AB49086047F23050DB
:103D5000AA490860AA4908600020A0490860A9484B
:103D60000068401CA7490860A7490968884204DA2E
:103D7000A6480068FFF743F90EE0A3480068A14990
:103D80000860A348006820B1A0480068FFF737F931
:103D900002E00020FFF733F900BD9A4A1268521C76
:103DA000984B1A60824207DD894A12680A44884BA0
:103DB0001A600022934B1A6070472DE9F041FFF71B
:103DC0004AF987490860FFF7F2FD92480068002829
:103DD00021DD7F4800688F49096888422AD07C48E5
:103DE00000688C49096888420EDA794800688A4977
:103DF000096888421EDA76480068FFF79CFA044694
:103E00000121FFF7CAFF15E04FF0FF31834800683A
:103E1000FFF7C3FF0EE06E480068002806DD6FF074
:103E200001017F480068FFF7B8FF03E0FFF77CFF60
:103E3000BDE8F0817B48006869490968884205D07F
:103E4000FFF7FAFD66480068764908607648006822
:103E5000F0B35F48D0ED000AF8EEE00A734890ED49
:103E6000001A60EE810AB0EE600AFFF7F9F8044626
:103E70005748D0ED000AF8EEE00A6D4890ED001AC0
:103E800060EE810AB0EE600AFFF7EAF80546504896
:103E9000D0ED000AF8EEE00A664890ED001A60EEF8
:103EA000810AB0EE600AFFF7DBF806464848D0ED1D
:103EB000000AF8EEE00A604890ED001A60EE810A10
:103EC000B0EE600AFFF7CCF8074623462A4600E02A
:103ED00002E03146FFF72FF800BFA9E75748016815
:103EE0000068401C554A1060462907D25448408B50
:103EF000544909680844534908600BE05148006878
:103F00004621B0FBF1F05049086000204B490860A1
:103F10004C4908604D4801680068401C4B4A1060DD
:103F2000462907D24648008B494909680844484950
:103F300008600BE0464800684621B0FBF1F04549B7
:103F40000860002041490860414908604248016812
:103F50000068401C404A1060462907D23848808AD1
:103F60003E49096808443D4908600BE03B48006849
:103F70004621B0FBF1F03A4908600020364908605C
:103F800036490860374801680068401C354A1060AF
:103F9000462907D22A48C08A334909680844324969
:103FA00008600BE0304800684621B0FBF1F02F4973
:103FB000086000202B4908602B4908602C480168E4
:103FC0000068401C2A4A106032295AD21C4851E02D
:103FD000A0030020C403002080030020BC030020B5
:103FE000D4030020600300207C030020C0030020D5
:103FF000CC030020C80300209C030020B403002051
:10400000B8030020B0030020900300208C030020A0
:10401000F0030020A4030020A8030020DC030020FC
:10402000AC030020D803002098030020EC030020FC
:10403000E8030020E4030020E00300204005002006
:10404000A208002044050020980000204805002018
:104050004C0500209C000020500500205405002045
:10406000A4000020580500205C050020A0000020CE
:10407000600500204089FD4909680844FB49086043
:104080000BE0FA4800683221B0FBF1F0F849086013
:104090000020F8490860F5490860F74801680068A1
:1040A000401CF54A1060322907D2F448C088F44910
:1040B00009680844F24908600BE0F14800683221C1
:1040C000B0FBF1F0EF4908600020EB490860EC49D3
:1040D0000860ED4801680068401CEB4A1060322916
:1040E00007D2E6488088E94909680844E74908603A
:1040F0000BE0E64800683221B0FBF1F0E4490860CB
:104100000020E1490860E1490860E2480168006870
:10411000401CE04A1060462907D2D8480089DE4991
:1041200009680844DC4908600BE0DB480068462168
:10413000B0FBF1F0D94908600020D6490860D649A3
:104140000860D74801680068401CD54A10604629BD
:1041500007D2CA480088D34909680844D149086091
:104160000BE0D04800684621B0FBF1F0CE49086072
:104170000020CB490860CB490860CC480168006842
:10418000401CCA4A1060462907D2BC484088C8492A
:1041900009680844C64908600BE0C5480068462124
:1041A000B0FBF1F0C34908600020C0490860C04975
:1041B00008607047C0480068B5490968401A03EEB6
:1041C000100AB8EEC33AF0EE430ABC4890ED003A4C
:1041D00023EE203AF0EE432AB7480068B849096850
:1041E000884203DAB6480068B3490860B2480068FC
:1041F000B4490968884203DDB2480068AE490860E6
:10420000BDEEE03A13EE100A002801DB014600E0A3
:10421000414204297EDDAC4890ED003A33EE203A6D
:1042200080ED003A90ED003ADFEDA83AB4EEE33AC3
:10423000F1EE10FA03DD9FEDA53A80ED003AA248B9
:1042400090ED003ADFEDA23AB4EEE33AF1EE10FA67
:1042500003D29FED9F3A80ED003A9E4890ED003AE0
:104260009948D0ED003A23EE232A9B4890ED003A7E
:1042700030EEC33A9948D0ED003A63EE231A9648DF
:10428000C0ED000A32EE823A33EE213A944880EDD6
:10429000003AF5EEC00AF1EE10FA03D2012091497E
:1042A000887502E000208F4988758D4991ED003AAC
:1042B000BDEEC33A13EE100A002801DB014600E010
:1042C000414203EE101AB8EEC33AF0EE083A23EE7C
:1042D000230A854890ED003AB8EEC33AB4EEC30A1B
:1042E000F1EE10FA05DD90ED003AB8EEC33AB0EE0B
:1042F000430AB3EE043AB4EEC30AF1EE10FA03D265
:10430000B3EE043AB0EE430A784890ED003A30EE4E
:10431000431A00E029E09FED763AB4EEC31AF1EEBD
:1043200010FA08DD90ED003ADFED713A33EE233AF2
:10433000B0EE430A0FE09FED6F3AB4EEC31AF1EE10
:1043400010FA08D2694890ED003ADFED693A33EE91
:10435000633AB0EE430A654880ED000ABCEEC03A0D
:1043600013EE100A5F49C87513E09FED633A564893
:1043700080ED003A9FED603A574880ED003A022008
:104380005849C875002088759FED5B3A574880ED05
:10439000003A7047594800683A490968401A03EEE4
:1043A000100AB8EEC33AB0EE430A554890ED003A11
:1043B00023EE003AF0EE432A50480068514909685C
:1043C000884203DA4F4800684C4908604B4800684F
:1043D0004D490968884203DD4B4800684749086039
:1043E000BDEEC03A13EE100A002801DB014600E0E2
:1043F0004142042939DD454890ED003A33EE003A58
:1044000080ED003A90ED003ADFED303AB4EEE33A59
:10441000F1EE10FA03DD9FED2D3A80ED003A3B48B6
:1044200090ED003ADFED2A3AB4EEE33AF1EE10FAFD
:1044300003D29FED273A80ED003A354890ED003ADF
:104440003248D0ED003A23EE232A324890ED003A6C
:1044500030EE433A3048D0ED003A63EE231A2D484F
:1044600080ED000A32EE823A58E0C6E06405002092
:10447000A80000206005002078050020A208002088
:104480007C050020BC000020800500208405002061
:10449000B8000020880500208C050020B000002016
:1044A000A0050020A4050020C0000020A8050020D1
:1044B000AC050020C400002064040020C0040020DB
:1044C0005C04002060040020CC0400200000FA43BB
:1044D0000000FAC3C4040020D0040020C804002057
:1044E000D4040020040000209C040020D8040020F4
:1044F0009A99193F9A9919BF000000007004002092
:10450000DC040020680400206C040020E804002083
:10451000E0040020EC040020E404002033EE213A03
:10452000FB4880ED003AB5EEC00AF1EE10FA03D276
:104530000020F849887402E00120F6498874F449A3
:1045400091ED003ABDEEC33A13EE100A002801DBEC
:10455000014600E0414203EE101AB8EEC33AF0EE15
:10456000083A63EE230AEC4890ED003AB8EEC33AFD
:10457000F4EEC30AF1EE10FA05DD90ED003AB8EE64
:10458000C33AF0EE430AB3EE043AF4EEC30AF1EE96
:1045900010FA03D2B3EE043AF0EE430ADF4890ED8E
:1045A000003A30EEC31A1FED2E3AB4EEC31AF1EE04
:1045B00010FA08DD90ED003A5FED333A33EE233A1E
:1045C000F0EE430A0FE01FED353AB4EEC31AF1EEF8
:1045D00010FA08D2D14890ED003A5FED3B3A33EE45
:1045E000633AF0EE430ACD48C0ED000ABCEEE03A73
:1045F00013EE100AC749C87413E01FED413AC848CA
:1046000080ED003A1FED443AC64880ED003A0220A2
:10461000C049C874012088741FED493ABF4880ED35
:10462000003A7047C0480068C0490968884203DA08
:10463000BE480068BC490860BB480068BC490968BE
:10464000884203DDBA480068B7490860B94909687B
:10465000B54A1268881A002801DB014600E0414291
:10466000032931DDB3480068AF490968884203DD9A
:104670000020A849887602E00120A6498876AD4945
:104680000968A94A1268881A002801DB014600E07F
:104690004142C1EBC1018900A74A11601046006880
:1046A000A6490968884203DDA448006811460860ED
:1046B000A1480068282802DA28209F4908609E48FF
:1046C00000789449C87602E000209249C876704785
:1046D0009B4800689B490968884203DA994800684A
:1046E000974908609648006897490968884203DD41
:1046F000954800689249086094490968904A126890
:10470000881A002801DB014600E04142032934DD1C
:104710008E4800688A490968884204DD00207D4986
:1047200081F82A0003E001207A4981F82A008749AC
:104730000968834A1268881A002801DB014600E0F4
:104740004142C1EBC10189007B4A116010460068FB
:104750007F490968884203DD7D480068114608608A
:1047600075480068282802DA2820734908607248D2
:104770000078684981F82B0003E00020654981F842
:104780002B00704710B57348006873490968884268
:1047900003DA714800686F4908606E4800686F4925
:1047A0000968884203DD6D4800686A4908606C4BFF
:1047B0001B68684C24681A1B002A01DB134600E0C2
:1047C0005342022B4DDD5B4B1B68664C2468191B62
:1047D000002901DB0B4600E04B42142B41DA5B4B16
:1047E0001B68614C2468181B002801DB034600E0AD
:1047F0004342142B35DA5A48006856490968884202
:1048000004DD0120434981F8260003E000204149EE
:1048100081F82600524909684E4A1268881A002811
:1048200001DB014600E04142C900434A11601046E5
:1048300000684E490968884203DD4C48006811460B
:1048400008603D480068322802DA32203A490860A0
:10485000394800782F4981F8270000204449086032
:1048600006E000202B4981F827000120404908601C
:1048700010BD3220284908603E490860704750202A
:10488000254908603B49086070478C202249086030
:10489000384908607047E6201F49086035490860BC
:1048A000704700B50246FFF7F0FF33480260334817
:1048B000026000BD00B50246FFF7DBFF2E48026034
:1048C0002E48026000BD00B50246FFF7D8FF2A4817
:1048D00002602A48026000BD00B50246FFF7DBFF18
:1048E000254802602548026000BD70B5FA201349D2
:1048F00008601C4800680C490860FA2014490860E8
:10490000194800680E49086000201D4908606FE0E2
:10491000F00400200400002098040020F40400208B
:10492000E8040020EC04002088040020800400201B
:1049300084040020C0000020FC040020A404002007
:10494000940400208C04002090040020C400002067
:10495000A80400207C0400207404002078040020B7
:10496000B0000020B4010020B8010020A004002005
:10497000580400209C0400206404002070040020DF
:104980002004002006E0012024F0D6FCFCF76AF8A1
:1049900000B927E0F84B1B68F84C2468191B002964
:1049A00001DB0B4600E04B42F54C2468F54D2D68C9
:1049B000621B02EBD2746410A342E4DCF24B1B686E
:1049C000F24C24681B1B032493FBF4F4F04B1B688C
:1049D000F04D2D68581B002801DB034600E04342E0
:1049E0009C42D0DB00BFEC480068401CEA490860EC
:1049F000E94800683228C5DB70BD10B5E74800689B
:104A0000002850D1E648006800284CD1E5480068ED
:104A1000002848D1E4480068002844D123E004215C
:104A2000E24821F089FA70B98021E14821F084FA46
:104A300048B99FEDE01ADFEDE00A12209FEDDF0A92
:104A4000FEF731FF08E09FEDDB1ADFEDDB0A0E20F9
:104A50009FEDDB0AFEF727FF012024F06DFCFCF739
:104A600001F800B906E04FF48071D64821F064FAED
:104A70000028D4D000BF9FEDCF1ADFEDCF0A0A2067
:104A80009FEDD10AFEF70FFF06E0012024F054FC51
:104A9000FBF7E8FF00B905E00421C44821F04CFA17
:104AA0000028F2D000E1BD48006801284FD1BC4881
:104AB000006800284BD1BB480068C8BBBA480068F2
:104AC000B0BB23E00421B94821F036FA70B9802147
:104AD000B74821F031FA48B99FEDB61ADFEDB60AB2
:104AE00012209FEDB60AFEF7DEFE08E09FEDB11A38
:104AF000DFEDB10A0E209FEDB20AFEF7D4FE0120D1
:104B000024F01AFCFBF7AEFF00B906E04FF4807109
:104B1000AC4821F011FA0028D4D000BF9FEDA51AAF
:104B2000DFEDA50A0A209FEDA80AFEF7BCFE07E00C
:104B30000DE0012024F000FCFBF794FF00B905E034
:104B400004219A4821F0F8F90028F2D0ACE093480B
:104B50000068012851D19248006801284DD1914840
:104B60000068D0BB90480068B8BB24E04FF40061F7
:104B7000944821F0E1F970B901218D4821F0DCF968
:104B800048B99FED8C1ADFED8C0A12209FED8F0A39
:104B9000FEF789FE08E09FED871ADFED870A0C20FB
:104BA0009FED870AFEF77FFE012024F0C5FBFBF78F
:104BB00059FF00B906E04FF48071824821F0BCF93A
:104BC0000028D3D000BF9FED7B1ADFED7B0A0A20BF
:104BD0009FED7F0AFEF767FE07E00EE0012024F05C
:104BE000ABFBFBF73FFF00B906E04FF400617548EF
:104BF00021F0A2F90028F1D056E0684800680128A9
:104C000052D16748006801284ED1664800680128E3
:104C10004AD165480068B8BB24E04FF40061694898
:104C200021F08AF970B90121614821F085F948B96C
:104C30009FED601ADFED600A12209FED640AFEF717
:104C400032FE08E09FED5B1ADFED5B0A0C209FED62
:104C50005C0AFEF728FE012024F06EFBFBF702FF42
:104C600000B906E04FF48071564821F065F900283C
:104C7000D3D000BF9FED4F1ADFED4F0A0A209FED02
:104C8000540AFEF710FE07E00EE0012024F054FB6A
:104C9000FBF7E8FE00B906E04FF40061494821F057
:104CA0004BF90028F1D000BF0020FEF7D0FC10BD6A
:104CB0002DE9F04105460E46FFF7E7FD454800683F
:104CC000F5304549086045480068F53044490860BA
:104CD000002415E006E0012024F02EFBFBF7C2FEC5
:104CE00000B90BE03F4909683D4A1268881A00285C
:104CF00001DB014600E041420F29ECDC00BF641CEF
:104D0000322CE7DB9FED381A00EE106AF8EEC00A8D
:104D1000122000EE105AB8EEC00AFEF7C4FD0024BF
:104D200010E006E0012024F007FBFBF79BFE00B932
:104D300006E04FF48071234821F0FEF80128F1D0FD
:104D400000BF641C962CECDB9FED271A00EE106A66
:104D5000F8EEC00A0C2000EE105AB8EEC00AFEF7BA
:104D6000A2FD002452E041E0012024F0E5FAFBF727
:104D700079FE00B948E039E0C00000208804002036
:104D8000B401002080040020B80100208C04002021
:104D9000C4000020940400202004002050020020C1
:104DA00054020020580200205C0200200010024043
:104DB000000402403333333F000061440000C8C3A5
:104DC000000061C4000002400000164300C0C1C4DE
:104DD0000080D4445C0400206404002068040020A7
:104DE00070040020BC000020CDCC4C3F4FF48071FB
:104DF000F94821F0A1F80128B6D04FF48051F648C7
:104E000021F09AF80028AFD000BF641C962CAADBD2
:104E10000020FEF71CFCE620F0490860F04800681E
:104E2000401DF0490860002415E006E0012024F050
:104E300083FAFBF717FE00B90BE0EB490968E94A72
:104E40001268881A002801DB014600E041421E2951
:104E5000ECDC00BF641C322CE7DB4FF42F7024F035
:104E60006BFA1FED2C1A00EE106AF8EEC00A16203D
:104E700000EE105AB8EEC00AFEF715FD40F2A4602D
:104E800024F05AFA002415E006E0012024F054FA38
:104E9000FBF7E8FD00B90BE08021D44821F04CF885
:104EA000012805D10121D14821F046F80128ECD094
:104EB00000BF641CB4F57A7FE6DB40F2145024F0A6
:104EC0003BFA3220C5490860C5480068401DC54905
:104ED00008601FED3B1A00EE106AF8EEC00A1920B8
:104EE00000EE105AB8EEC00AFEF7DDFC00240FE019
:104EF00006E0022024F020FAFBF7B4FD00B905E03B
:104F00000121BB4821F018F80128F2D000BF641C31
:104F100040F226208442EBDB1FED4D1A00EE106AB2
:104F2000F8EEC00A0A2000EE105AB8EEC00AFEF7EA
:104F3000BAFC002410E006E0012024F0FDF9FBF7A4
:104F400091FD00B906E04FF40051A94820F0F4FFAC
:104F50000128F1D000BF641CB4F57A7FEBDB0020A0
:104F6000FEF775FBE620A3490860A3480068401DD2
:104F7000A249086032209949086099480068401D9C
:104F800098490860002415E006E0012024F0D4F9D7
:104F9000FBF768FD00B90BE099490968974A126868
:104FA000881A002801DB014600E041421429ECDCAC
:104FB00000BF641CFA2CE7DB9FED921A00EE106A2A
:104FC000F8EEC00A102000EE105AB8EEC00AFEF744
:104FD0006AFC002416E006E0012024F0ADF9FBF79E
:104FE00041FD00B90CE04FF400617B4820F0A4FFC4
:104FF000012805D104217E4820F09EFF0128EBD036
:1050000000BF641C40F6F6108442E4DBFDF759FB58
:1050100006E0052024F090F9FBF724FD00B914E028
:10502000FBF756FD8046FBF726FD071E01DB3846E1
:1050300000E07842B8F1000F01DB414601E0C8F121
:1050400000010844B0F5D27FE3DB00BF002410E08C
:1050500006E0012024F070F9FBF704FD00B906E03A
:105060004FF48041624820F067FF0128F1D000BF73
:10507000641C40F6F6108442EADBFFF70CFC40F2B9
:1050800009105E490860574908609FED5E1A00EEFE
:10509000106AF8EEC00A102000EE105AB8EEC00AEE
:1050A000FEF701FC00240FE006E0012024F044F9A3
:1050B000FBF7D8FC00B905E010214D4820F03CFF7B
:1050C0000128F2D000BF641C642CEDDB40F2DC5000
:1050D00024F032F90020FEF7BAFABDE8F08110B5ED
:1050E00005210420FDF762FA4748C07F40F0020026
:1050F0004549C87700204549086011E006E00120D5
:1051000024F01AF9FBF7AEFC00B903E04048006850
:105110000128F4D000BF3D480068401C3B490860AE
:105120003A480068FA28E9DB3748C07F00F0FD0004
:105130003549C877012036490860002035490860A4
:1051400010BD2DE9F0472DED028B81460F46164626
:1051500098469DED0A8ADDE90B451FEDEA1AF8EE47
:10516000C80A102000EE106AB8EEC00AFEF79BFBDA
:10517000404624F0E1F80020FEF769FA00219FED97
:10518000260A4846FEF720FB06E0012024F0D4F86A
:10519000FBF768FC00B903E0FEF732F90028F4D110
:1051A00000BF0020FEF753FAFFF76FFB12480068BC
:1051B000FA30124908600A480068FA300949086064
:1051C0000020124908603BE028E0012024F0B4F8F8
:1051D000FBF748FC10BB2DE00000024098040020C3
:1051E0006804002070040020BC000020000402407D
:1051F000001002409C0400205C0400206404002095
:10520000B80000206666663F0400002020040020ED
:10521000F4020020F00200209A99993FFD490968A4
:10522000FD4A1268881A002801DB014600E041426D
:105230000F29CADC00BFF9480068401CF749086024
:10524000F64800683228BFDB9FEDF51A00EE105AD1
:10525000F8EEC00A142000EE104AB8EEC00AFEF7BD
:1052600022FB0020ED49086014E006E0012024F054
:1052700063F8FBF7F7FB00B906E04FF48071E948EB
:1052800020F05AFE0128F1D000BFE4480068401C1D
:10529000E2490860E14800689628E6DB9FEDE01AE5
:1052A00000EE105AF8EEC00A0E2000EE104AB8EEDA
:1052B000C00AFEF7F8FA0020D84908601BE006E0B3
:1052C000012024F039F8FBF7CDFB00B90DE04FF4D5
:1052D0008071D44820F030FE0128F1D04FF4805185
:1052E000D04820F029FE0028EAD000BFCB48006853
:1052F000401CCA490860C94800689628DFDB0020C6
:10530000FEF7A5F9C8480068012801D1FFF7E7FEBC
:1053100029462046FFF7CCFC0020FEF798F9002133
:105320001FED430A3846FEF74FFA06E0012024F04D
:1053300003F8FBF797FB00B903E0FEF761F80028DC
:10534000F4D100BF0020FEF782F9BDEC028BBDE86E
:10535000F08770B505460E46B448006800287DD138
:10536000FFF799FAB24800680830B2490860B248BD
:1053700000680830A8490860002415E006E0012014
:1053800023F0DAFFFBF76EFB00B90BE0A1490968D7
:10539000A14A1268881A002801DB014600E0414258
:1053A0000A29ECDC00BF641C322CE7DBB7EE001AE4
:1053B00000EE106AF8EEC00A0E2000EE105AB8EEA9
:1053C000C00AFEF770FA002410E006E0012023F086
:1053D000B3FFFBF747FB00B906E04FF4807191483B
:1053E00020F0AAFD0028F1D000BF641CB4F57A7F3C
:1053F000EBDBB7EE001A00EE106AF8EEC00A0C20E4
:1054000000EE105AB8EEC00AFEF74DFA002421E073
:1054100006E0012023F090FFFBF724FB00B917E022
:105420004FF480717F4820F087FD0028F1D04021A3
:10543000824820F081FD0028EBD080217F4820F0B9
:105440007BFD28B901217D4820F076FD0028E0D0C1
:1054500000BF641CB4F57A7FDADB00E04BE04FF468
:10546000967023F069FF0020FEF7F1F8F0207449F0
:10547000086071480068FA3067490860002415E048
:1054800006E0012023F058FFFBF7ECFA00B90BE02F
:1054900060490968604A1268881A002801DB0146E1
:1054A00000E041421E29ECDC00BF641CFA2CE7DB63
:1054B000B7EE001A00EE106AF8EEC00A1E2000EEE9
:1054C000105AB8EEC00AFEF7EEF900240FE006E02D
:1054D000022023F031FFFBF7C5FA00B905E00121F6
:1054E000584820F029FD0028F2D000BF641C40F28B
:1054F00026208442EBDB00204C490860B7EE001AFE
:1055000000EE106AF8EEC00A102000EE105AB8EE55
:10551000C00AFEF7C8F9002410E006E0012023F0DD
:105520000BFFFBF79FFA00B906E04FF40051454826
:1055300020F002FD0028F1D000BF641C40F22620BC
:105540008442EADB3A480068401D3A490860B7EEF9
:10555000001A00EE106AF8EEC00A0C2000EE105A95
:10556000B8EEC00AFEF79FF9002410E006E0012023
:1055700023F0E2FEFBF776FA00B906E04FF4804133
:10558000304820F0D9FC0028F1D000BF641CB4F5ED
:10559000FA7FEBDB002417E006E0012023F0CCFECD
:1055A000FBF760FA00B90DE04FF48041254820F088
:1055B000C3FC0028F1D04FF40051224820F0BCFC7D
:1055C0000028EAD000BF641CB4F5FA7FE4DB0024B5
:1055D00010E006E0012023F0AFFEFBF743FA00B92C
:1055E00006E04FF48041174820F0A6FC0028F1D0D7
:1055F00000BF641CB4F5FA7FEBDB0020FEF727F850
:10560000F020114908600A480068FA30094908602A
:10561000002431E0BC0000207004002020040020A1
:10562000CDCC4C3F00000240F00200206802002078
:105630005C04002064040020680400200004024090
:1056400098040020001002409C04002006E0012085
:1056500023F072FEFBF706FA00B90BE0FE49096879
:10566000FE4A1268881A002801DB014600E0414228
:105670001E29ECDC00BF641C322CE7DBB7EE001AFD
:1056800000EE106AF8EEC00A0F2000EE105AB8EED5
:10569000C00AFEF708F906E0012023F04DFEFBF7F3
:1056A000E1F900B905E01021ED4820F045FC0028A3
:1056B000F2D000BF4FF4487023F03EFE1420FDF7F7
:1056C000C6FF70BD2DE9F0472DED028B81460F46D8
:1056D000144698469DED0A8ADDE90B564FF4AF70EB
:1056E000FFF7F1F80020FDF7B2FFB6EE001AF8EE72
:1056F000C80A102000EE104AB8EEC00AFEF7D3F830
:10570000404623F019FE0020FDF7A1FF00219FED88
:10571000D50A4846FEF758F806E0012023F00CFEB3
:10572000FBF7A0F900B903E0FDF76AFE0028F4D109
:1057300000BF0020FDF78BFF40F20910FFF7B1F822
:105740000020C949086019E006E0012023F0F4FDBB
:10575000FBF788F900B90BE0C4490968C44A12682C
:10576000881A002801DB014600E041420A29ECDCEE
:1057700000BFBD480068401CBB490860BA480068CB
:105780003228E1DBB7EE001A00EE106AF8EEC00A2C
:105790000F2000EE105AB8EEC00AFEF784F8002081
:1057A000B149086014E006E0012023F0C5FDFBF7D5
:1057B00059F900B906E04FF48071AE4820F0BCFB07
:1057C0000028F1D000BFA8480068401CA649086026
:1057D000A5480068B0F57A7FE5DB962023F0ACFDA4
:1057E0000020FDF734FFA4480068012801D1FFF72D
:1057F00076FC31462846FFF7ACFD0020FDF727FF79
:1058000000219FED980A3846FDF7DEFF06E00120F3
:1058100023F092FDFBF726F900B903E0FDF7F0FD58
:105820000028F4D100BF0020FDF711FFBDEC028B72
:10583000BDE8F08770B5914805689148066840F268
:105840003520FFF72EF88F48006800284DD18E488C
:105850000068002849D18D480068002845D18C484F
:105860000068002841D18049086037E01DE0894880
:105870000068A84209DD9FED881ADFED880A122032
:105880009FED870AFEF70FF808E09FED831ADFED22
:10589000830A0C209FED830AFEF705F8012023F010
:1058A0004BFDFBF7DFF800B912E04FF4805171486F
:1058B00020F042FB0028DAD06C4800686C49096887
:1058C000441A002C01DB204600E060421E28CEDC9A
:1058D00000BF65480068401C634908606248006872
:1058E00040F20E618842C1DB20E166480068012871
:1058F0004CD165480068C0BB64480068A8BB6448D8
:10590000006890BB00205849086038E01DE06148FD
:105910000068A84209DD9FED601ADFED600A1220E1
:105920009FED5F0AFDF7BFFF08E09FED5B1ADFED1B
:105930005B0A0C209FED5B0AFDF7B5FF012023F009
:10594000FBFCFBF78FF800B913E04FF48051494896
:1059500020F0F2FA0028DAD0444800684449096887
:10596000441A002C02DB204601E00FE060421E28B2
:10597000CDDC00BF3C480068401C3B4908603A4809
:10598000006840F20E618842C0DBCFE03D4800680D
:1059900001284DD13C480068012849D13B480068A6
:1059A000A8BB3B48006890BB00202F49086038E046
:1059B0001DE03D480068B04209DD9FED371ADFED7C
:1059C000370A12209FED390AFDF76DFF08E09FEDC1
:1059D000321ADFED320A0C209FED320AFDF763FF29
:1059E000012023F0A9FCFBF73DF800B913E04FF4C8
:1059F0008051204820F0A0FA0028DAD01B48006827
:105A00001B490968441A002C02DB204601E00FE024
:105A100060421E28CDDC00BF13480068401C1249BC
:105A200008601148006840F20E618842C0DB7DE0EA
:105A300014480068012879D113480068012875D1FD
:105A400012480068012871D11148006818B9002077
:105A50000549086064E069E0B800002064040020A3
:105A6000001002409A99993F20040020BC000020B9
:105A70007004002000000240F0020020A801002075
:105A8000B0010020500200205402002058020020E3
:105A90005C020020A00000203333333F000061444B
:105AA000008022C4000061C4A400002000C0C1C462
:105AB0001DE0F9480068B04209DD1FED091A5FEDED
:105AC000090A12201FED070AFDF7EDFE08E01FEDA1
:105AD0000E1A5FED0E0A0C201FED0E0AFDF7E3FE15
