:020000040800F2
:10000000A0A40120A97101084502000847020008C8
:100010004B0200084F0200085302000800000000D5
:100020000000000000000000000000009D0100082A
:100030005702000800000000E1010008C3A1010808
:10004000C3710108C3710108C3710108C3710108BC
:10005000C3710108C3710108C3710108C3710108AC
:10006000AB040008EF040008C37101081B0300087B
:10007000FD0200085D030008C37101087502000855
:10008000C371010881020008C3710108C37101082E
:10009000C3710108C3710108C3710108C37101086C
:1000A000C3710108C7030008F3030008C371010806
:1000B000F5030008230400084F040008C371010879
:1000C000C3710108C3710108C3710108A7040008C6
:1000D000C37101085D020008C3710108C371010802
:1000E000C3710108C3710108C3710108C37101081C
:1000F000C3710108C3710108C37101083903000805
:10010000C3710108C37101087B040008A904000839
:10011000C3710108C371010899030008A503000811
:10012000C37101089B020008CF020008C3710108D7
:10013000C3710108C3710108C3710108C3710108CB
:10014000C3710108C3710108C3710108C3710108BB
:10015000EF020008C3710108C3710108C3710108EF
:10016000C3710108C3710108C3710108C37101089B
:10017000C3710108C3710108C3710108C37101088B
:10018000C3710108C3710108DFF80CD01BF0BCFA81
:1001900000480047836E0108A0A40120234B196882
:1001A0000868B0E8F04F80F309884FF0000080F352
:1001B000118870470000000003480068006880F361
:1001C000088862B600DF00BF08ED00E0DFF80C0031
:1001D000016841F470010160704700BF88ED00E0E4
:1001E000EFF30980114B1A681EF0100F08BF20EDC5
:1001F000108A20E9F04F106008B54FF0140080F32A
:1002000011881AF0A6FB4FF0000080F31188BDE8BA
:10021000084019680868B0E8F04F1EF0100F08BFDA
:10022000B0EC108A80F30988704700BF30050020C9
:10023000EFF311804FF0140181F31188704780F3C0
:1002400011887047704700BFFEE700BFFEE700BFA0
:10025000FEE700BFFEE770477047704710B540F2F9
:100260002551A34819F0C1F818B12021A04819F070
:10027000B3F810BD10B59F499F4817F0EBFF10BDB4
:1002800010B59E499C48303017F0BAFF20B19B4909
:100290009948303017F0DEFF10BD10B598499948E5
:1002A00017F0AEFF90B19649964817F0D3FF02F0D1
:1002B0004BF800219048303817F0F8FE082191489B
:1002C00017F015FF01218F4817F0F0FE10BD10B593
:1002D0008D498C48183017F0BDFF8C4840788B4909
:1002E000097840EA012000B28949088010BD10B5A4
:1002F00088498448603017F0ADFF10BD10B58049C3
:100300007D48483817F07CFF30B17D497A4848383D
:1003100017F0A0FF00F0B8FA10BD10B57E4976487E
:10032000603817F06DFF30B17B497348603817F0C3
:1003300091FF02F009F810BD10B578496E484830B9
:1003400017F05EFF48B100216B48483017F0AEFE51
:1003500072496948483017F07DFF10BD10B56A49F1
:100360006548303817F04CFFA8B16749624830380B
:1003700017F070FF01F0C2FD00215F48303817F020
:1003800095FE08215C48303817F0B1FE01215A482B
:10039000303817F08BFE10BD10B50121604818F001
:1003A00081FD10BD10B501215E4818F07BFD7A205B
:1003B0004F49888001215C4818F026FF01215B48E5
:1003C00018F022FF10BD10B50121594818F06AFD40
:1003D0005748008800F0100028B156480068401EB9
:1003E0005449086004E053480068401C51490860C3
:1003F00010BD704710B50121880718F053FD4FF06C
:100400008040008800F0100028B14B480068401E72
:100410004949086004E048480068401C46490860B3
:1004200010BD10B50121454818F03CFD4348008837
:1004300000F0100028B142480068401E40490860A2
:1004400004E03F480068401C3D49086010BD10B5FD
:1004500001213C4818F026FD3A48008800F01000C1
:1004600028B139480068401E3749086004E0364822
:100470000068401C3449086010BD10B501213348A4
:1004800018F010FD3148008800F0100028B1304805
:100490000068401E2E49086004E02D480068401C9A
:1004A0002B49086010BD7047704710B5042017F045
:1004B00069FFD8B12021274816F0EDFF0421264816
:1004C00016F0C4FF012804D10021164818F06AF87C
:1004D00009E00421204816F0B9FF20B9114818F0AE
:1004E00065F81E49086004201D49086010BD70476A
:1004F0000010014020800020706002400080202019
:100500000088001028640240008020105807002056
:100510008C0000200088002020800010008000282F
:10052000001000400014004000480040001401404A
:10053000000001406C00002070000020000400401A
:10054000740000200008004088000020000C0040DB
:100550007800002000000240000C024068000020EB
:10056000143C014070B5044620461AF0DBFD0546F8
:100570002146F8481AF0DDFDA0B195222146F54844
:100580001AF0C4FD0021F44817F090FDF148F2493B
:100590000C310860F048B838C0F8BC500121EE4872
:1005A00017F084FD70BD70B50446002510E0605D55
:1005B00068B1615DE94818F052FE00BF8021E7484C
:1005C00018F0FDFE0028F9D0681CC5B200E070BD2F
:1005D000EDE770B5044600250FE05CB12146DF4829
:1005E00018F03DFE00BF8021DC4818F0E8FE00282E
:1005F000F9D000E070BD681CC5B2032DEDDB00BF73
:10060000F8E713B50C460020FFF7E3FFD4A0FFF78F
:10061000CAFF2346D3A29621D3481BF0B3F8D24891
:10062000FFF7C1FFD1A0FFF7BEFFCEA29621CE48B3
:10063000009B1BF0A7F8CC48FFF7B5FFCDA0FFF754
:10064000B2FFFF20FFF7C5FFFF20FFF7C2FFFF202B
:10065000FFF7BFFF1CBD70B505460C46C0A0FFF7F5
:10066000A2FF2246BFA1C0481BF0A4F8BE48FFF776
:100670009AFFBEA0FFF797FF2846FFF794FFBDA0A3
:10068000FFF791FFFF20FFF7A4FF70BD77B585B09E
:100690000546FF26B5A103C9CDE90301B5A0006851
:1006A0000290AFA00068019000240AE00020B24947
:1006B0000855B2490855AC490855A6490855601C6B
:1006C000C4B21E2CF2DB0A20A7490870FF20487034
:1006D0008870C870A3A1A948079A1BF06BF8A749B6
:1006E00001A81AF007FD01A99F481AF003FD03A90C
:1006F0009D481AF0FFFC29469B481AF0FBFC99A183
:100700009E48069A1BF056F89C4997481AF0F2FC4E
:1007100002A995481AF0EEFCFF209749087048702E
:10072000887091481AF0E6FC8F48FFF71BFF08B06D
:1007300070BDF7B584B005460E46FF278BA103C9EF
:10074000CDE902018BA00068019085A000680090AF
:10075000002408E000208849085588490855824946
:100760000855601CC4B20A2CF4DB0A207E490870CC
:10077000FF2048708870C8707AA18048069A1BF0E4
:1007800019F87E4968461AF0B5FC694676481AF0B1
:10079000B1FC02A974481AF0ADFC294672481AF05F
:1007A000A9FC314670481AF0A5FC01A96E481AF060
:1007B000A1FCFF2070490870487088700020C87044
:1007C000087169481AF096FC6748FFF7CBFE07B03E
:1007D000F0BD01B58EB06AA2322101A80E9B1AF0BD
:1007E000D1FF01A8FFF7BEFE0FB000BD73B584B006
:1007F0000546FF265DA103C9CDE902015DA00068A1
:10080000019057A00068009000240AE000205A4997
:1008100008555A490855544908554E490855601C11
:10082000C4B21E2CF2DB0A204F490870FF2048702A
:100830008870C8704BA15148059A1AF0BBFF4F4908
:1008400068461AF057FC694647481AF053FC02A95B
:1008500045481AF04FFC294643481AF04BFC4749DB
:1008600041481AF047FC01A93F481AF043FCFF2019
:1008700041490870487088703B481AF03BFC3A4880
:10088000FFF770FE06B070BD10B52DED0C8B82B079
:100890003E4800783D49497808443C4989780844F5
:1008A0003A49C978084439490979084437494979A6
:1008B00008443649897908443449C9790844334998
:1008C000097A0844C0B201903048007A00F00F0065
:1008D00000909FED2F0AB0EE40DA2C48407A019943
:1008E000884271D12948007A00F00F000D286BD1A1
:1008F00026488078C0F17F0000EE100AB8EEC08A6A
:100900002248C078813800EE100AF8EEC08AB5EEB1
:10091000C08AF1EE10FA03D1B7EE000AB0EE408AB9
:10092000F5EEC08AF1EE10FA03D1B7EE000AF0EE50
:10093000408ABDEEC80A10EE102A002A01DB1346D9
:1009400000E05342BDEEE80A10EE100A002821DB59
:10095000044620E0A6060020B86002400050004097
:100960007400000025640000700500202E74787467
:100970003D22000022000000560600202E06002026
:100980006A302E76616C3D256400000099070020D6
:10099000DB0F49404442191901EBD1735B10FE4C47
:1009A0002360BDEEE80A10EE101A002901DB0A46AA
:1009B00000E04A42322A0FDABDEEC80A10EE100AF1
:1009C000002802DB024601E02FE04242322A03DA2D
:1009D0000020F249086030E018EE900A1AF06FFD2E
:1009E00041EC1B0B18EE100A1AF069FD41EC1C0BD0
:1009F000B0EE4B1AF0EE6B1AB0EE4C0AF0EE6C0A49
:100A00001BF086F8B0EE40AAF0EE60AA9FEDE40B72
:100A100053EC102B51EC1A0B1AF040FC41EC190B63
:100A20001AF02EFDDD49086007E09DF800000D2852
:100A300003D00021DC4818F0E7FB02B0BDEC0C8BC2
:100A400010BDDA48007A00F00F000D2806D1D74813
:100A5000007800F0010008B10D2070470020FCE78D
:100A6000D248007800F0100008B100207047012043
:100A7000FCE71CB54FF0804017F098FDCC490968A1
:100A800040EA01400C2190FBF1F00090002418E0B6
:100A90004FF0804017F08AFDC549096840EA0140DF
:100AA0000C2190FBF1F00190DDE90021881A00286B
:100AB00001DB014600E04142052900DA641C01988F
:100AC0000090022CE4DB019840421CBD1CB5B948E3
:100AD00017F06CFDB849096840EA01400C2190FB11
:100AE000F1F00090002417E0B24817F05FFDB24922
:100AF000096840EA01400C2190FBF1F00190DDE92A
:100B00000021881A002801DB014600E04142052946
:100B100000DA641C01980090022CE5DB01981CBDF2
:100B20001CB5A64817F042FDA549096840EA0140F6
:100B30000C2190FBF1F00090002417E09F4817F083
:100B400035FD9F49096840EA01400C2190FBF1F016
:100B50000190DDE90021881A002801DB014600E050
:100B60004142052900DA641C01980090022CE5DB63
:100B700001981CBD1CB5934817F018FD92490968EF
:100B800040EA01400C2190FBF1F00090002417E0B6
:100B90008C4817F00BFD8C49096840EA01400C2194
:100BA00090FBF1F00190DDE90021881A002801DBBB
:100BB000014600E04142052900DA641C01980090DA
:100BC000022CE5DB01981CBD01B581B0002000902E
:100BD000019800EBC0004000009002E00098401E29
:100BE000009000980028F9D10CBD01B581B000201B
:100BF000009044F2506101984843009002E0009850
:100C0000401E009000980028F9D10CBD1CB50121B0
:100C10001F2016F0FFFD4FF6FF70009001208DF8A9
:100C2000040000208DF8060001208DF80700032045
:100C30008DF805006946654816F0A6FB4FF6FF7073
:100C4000009001208DF8040000208DF8060001209E
:100C50008DF8070003208DF8050069465C4816F002
:100C600093FB4FF6FF70009001208DF804000020E8
:100C70008DF8060001208DF8070003208DF805008F
:100C80006946544816F080FB1CBD1CB501217E202E
:100C900016F0C0FD4FF4CE50009000208DF80400F7
:100CA00001208DF8070002208DF8050069464A48AA
:100CB00016F06AFB4FF6C740009000208DF8040044
:100CC00001208DF8070002208DF8050069463F4895
:100CD00016F05AFB0420009000208DF8040001203B
:100CE0008DF8070002208DF805006946384816F097
:100CF0004BFB4CF60340009000208DF804000120CF
:100D00008DF8070002208DF805006946314816F07D
:100D10003BFB4FF42060009000208DF80400012080
:100D20008DF8070002208DF8050069462B4816F063
:100D30002BFB1CBD1FB54FF4E06016F047FA3620C0
:100D40008DF8000000208DF801008DF802000120D0
:100D50008DF80300684616F03EFA0121102016F0C7
:100D60008CFD3220ADF8040040F2E7300290002004
:100D7000ADF80C00ADF8060001A9194817F0C9FB41
:100D80000121174818F08EF801221146144818F076
:100D900061F80021124825E0CC000020C8000020A6
:100DA00000000080A9E7814000480040990700202A
:100DB0007000002000040040740000200008004083
:100DC00088000020000C0040780000200004024051
:100DD00000080240000C02400000024000100240E7
:100DE0000010004017F0DEFB0121FE4817F01AFC4E
:100DF0001FBD1FB54FF4E06016F0E8F937208DF8FD
:100E0000000000208DF801008DF8020001208DF80F
:100E10000300684616F0DFF90121202016F02DFDB1
:100E20003220ADF8040040F2E73002900020ADF827
:100E30000C00ADF8060001A9EB4817F06AFB012190
:100E4000E94818F02FF801221146E74818F002F897
:100E50000021E54817F0A6FB0121E34817F0E2FB6B
:100E60001FBD00B58BB00121022016F017FD012136
:100E70000C2016F0CFFC03220621DC4816F00FFBF5
:100E800003220721D94816F00AFB03220821D7487C
:100E900016F005FB03220921D44816F000FB4FF49D
:100EA0007070069002208DF81C0003208DF81D0044
:100EB00000208DF81E0001208DF81F0006A9CB48E8
:100EC00016F062FAA420ADF8200040F6B830099080
:100ED0004FF48070ADF828000020ADF8220008A97A
:100EE000C34817F016FB6020ADF804000120ADF8F0
:100EF000060000200390ADF810000121BC4817F057
:100F000091FB0021BA4817F04DFB01A9B84817F032
:100F100095FB01A9B64817F0CAFB01A9B44817F020
:100F200013FC01A9B24817F075FC0121B04817F075
:100F30006AFF0BB000BD00B58BB00121082016F090
:100F40009CFC0121084616F065FC02220021A948FC
:100F500016F0A5FA02220121A64816F0A0FA0222F4
:100F60001146A44816F09BFA02220321A14816F06C
:100F700096FA0F20069002208DF81C0003208DF8B1
:100F80001D0000208DF81E0001208DF81F0006A90D
:100F9000984816F0F9F9BA20ADF8200042F2107026
:100FA00009900020ADF82800ADF8220008A9924869
:100FB00017F0AFFA6020ADF804000120ADF806008C
:100FC00000200390ADF8100001218B4817F02AFB98
:100FD0000021894817F0E6FA01A9874817F02EFB8F
:100FE00001A9854817F063FB01A9834817F0ACFB02
:100FF00001A9814817F00EFC01217F4817F003FF7B
:101000000BB000BD00B58BB00121042016F035FCFB
:1010100001210D2016F0FEFB02220C21774816F06C
:101020003EFA02220D21754816F039FA02220E21ED
:10103000724816F034FA02220F21704816F02FFA87
:101040004FF47040069002208DF81C0003208DF8AC
:101050001D0000208DF81E0001208DF81F0006A93C
:10106000664816F091F9A420ADF8200040F6B8309B
:1010700009904FF48070ADF828000020ADF82200F0
:1010800008A95F4817F045FA6020ADF80400012078
:10109000ADF8060000200390ADF81000012158487B
:1010A00017F0C0FA0021564817F07CFA01A95448FD
:1010B00017F0C4FA01A9524817F0F9FA01A95048EB
:1010C00017F042FB01A94E4817F0A4FB0BB000BD7E
:1010D00000B589B00121080416F0E0FB01210846A3
:1010E00016F098FB03221146424816F0D8F9032265
:1010F0000221404816F0D3F90C20019002208DF80F
:10110000080003208DF8090000208DF80A00012056
:101110008DF80B0001A9374816F036F90020ADF81C
:1011200018004FF6FF7007900020ADF82000ADF8D2
:101130001A0006A9334817F0ECF90420ADF80C00AA
:101140000020ADF80E00C820ADF814000120ADF865
:10115000100003A92B4817F0B3FD00231A46032102
:10116000294817F04AFF0121274817F09BFE01226A
:101170001146254817F06EFE0121224817F052FA59
:101180000021214817F00EFA09B000BD00B589B062
:101190000121084616F071FB0121022016F06DFBBB
:1011A0000121032016F036FB01220F21114816F011
:1011B00076F901220321154816F071F90222042163
:1011C000124816F06CF902220521104816F067F952
:1011D0003820019002208DF8080003208DF80900C6
:1011E000002015E0001000400014004000080240FC
:1011F0000004014000000240000C0040000C0240CE
:10120000000800400000014000400140000402408E
:101210008DF80A0001208DF80B0001A9FE4816F098
:10122000B3F84FF40040019002208DF8080003202D
:101230008DF8090000208DF80A0001208DF80B00C0
:1012400001A9F64816F0A0F80020ADF818004FF6F6
:10125000FF7007900020ADF82000ADF81A0006A935
:101260004FF0804017F055F906A9ED4817F051F9F5
:101270000420ADF80C000220ADF80E001420ADF8EB
:1012800014000120ADF8100003A9800717F018FD25
:1012900003A9E34817F014FD02231A460321580757
:1012A00017F0ABFE02231A460321DD4817F0A5FE16
:1012B0000121880717F0F6FD0121D94817F0F2FD4A
:1012C00001221146900717F0C5FD01221146D448AE
:1012D00017F0C0FD0121880717F0A4F90121D048BB
:1012E00017F0A0F900214FF0804017F05BF90021C2
:1012F000CB4817F057F94FF4C06015F067FF1D2079
:101300008DF8000003208DF8010000208DF8020008
:1013100001208DF80300684615F05DFF1C208DF854
:10132000000004208DF8010000208DF8020001204B
:101330008DF80300684615F04EFF09B000BD00B5FA
:1013400089B00121084616F0A9FA0121102016F0F3
:1013500061FA4FF42060019002208DF8080003200C
:101360008DF8090000208DF80A0001208DF80B008F
:1013700001A9AC4816F008F801220921A94816F085
:101380008EF801220B21A74816F089F80020ADF84D
:1013900018004FF6FF7007900020ADF82000ADF860
:1013A0001A0006A9A04817F0B4F80420ADF80C0004
:1013B0000020ADF80E000A20ADF814000120ADF8B1
:1013C000100003A9984817F07BFC00231A4603215C
:1013D000954817F012FE0121934817F063FD012292
:1013E0001146914817F036FD01218F4817F05AFD3C
:1013F000012211468C4817F02DFD01218A4817F073
:1014000011F90021884817F0CDF84FF4C06015F0AD
:10141000DDFE19208DF8000001208DF8010000206C
:101420008DF8020001208DF80300684615F0D3FE08
:1014300009B000BD00B589B00121042016F01DFAE5
:101440000121082016F0E6F94FF4405001900220E7
:101450008DF8080003208DF8090000208DF80A009F
:1014600001208DF80B0001A9704815F08DFF0020B8
:10147000ADF818004FF6FF7007900020ADF820007F
:10148000ADF81A0006A96A4817F043F802220C21A9
:10149000664816F004F802220D21644815F0FFFF9B
:1014A0000420ADF80C000220ADF80E00C820ADF805
:1014B00014000120ADF8100003A95D4817F000FCEE
:1014C00002231A4603215A4817F097FD0121584874
:1014D00017F0E8FC01221146554817F0BBFC01212A
:1014E000534817F09FF80021514817F05BF800208F
:1014F0004F491431088001204D4908804FF4C060E5
:1015000015F064FE1E208DF8000004208DF8010007
:1015100000208DF8020001208DF80300684615F0C8
:101520005AFE09B000BD00B589B00121082016F0AF
:10153000A4F90121084616F06DF90320019002205C
:101540008DF8080003208DF8090000208DF80A00AE
:1015500001208DF80B0001A9304815F015FF00207F
:10156000ADF818004FF6FF7007900020ADF820008E
:10157000ADF81A0006A92F4816F0CBFF0222002171
:10158000264815F08CFF02220121244815F087FF20
:101590000420ADF80C000220ADF80E00C820ADF814
:1015A00014000120ADF8100003A9224817F088FBB1
:1015B00002231A4603211F4817F01FFD01211D4871
:1015C00017F070FC012211461A4817F043FC012164
:1015D000184817F027F80021164816F0E3FF0020FE
:1015E0001449143108800120124908804FF4C0606A
:1015F00015F0ECFD32208DF8000004208DF801007C
:1016000000208DF8020001208DF80300684615F0D7
:10161000E2FD09B000BD00000004024000000240ED
:10162000000400400010024000000140000C024095
:1016300000080040000C004000B59BB00121FE48AE
:1016400016F0E8F80121080216F028F900200290AF
:10165000FA480390FA480490002005900E20069066
:10166000002007904FF480600890400009908000AF
:101670000A9040110B9040020C9000200D90012028
:101680000E9000200F90109002A9EE4816F0D4FCA6
:101690000121EC4816F00AFDFC20009003208DF893
:1016A000040000208DF807006946E74815F06CFE3D
:1016B0004FF44070009003208DF8040000208DF856
:1016C00007006946E14815F05FFE3F2000900320C7
:1016D0008DF8040000208DF807006946DC4815F0FD
:1016E00053FE002011904FF44030129000201390D0
:1016F000149011A816F006FA4FF080701590012092
:101700008DF858008DF85900002017901890199006
:101710000E208DF8680015A9C8484C3816F0C3F99A
:10172000072301220221C5484C3816F042FA07234C
:1017300002220321C1484C3816F03BFA072303224A
:101740000421BE484C3816F034FA07230422052140
:10175000BA484C3816F02DFA072305220621B7485F
:101760004C3816F026FA072306221946B3484C389F
:1017700016F01FFA07231A460821B0484C3816F015
:1017800018FA072308220921AC484C3816F011FA40
:10179000072309220A21A9484C3816F00AFA072320
:1017A0000A220B21A5484C3816F003FA07230B2216
:1017B0000C21A2484C3816F0FCF907230C220D210D
:1017C0009E484C3816F0F5F907230D220E219B4850
:1017D0004C3816F0EEF907230E220F2197484C38AB
:1017E00016F0E7F9012195484C3816F08DFA0121E1
:1017F00092484C3816F07DFA012190484C3816F08A
:1018000098F98E484C3816F030FA1BB000BD08B578
:101810004FF4E06015F0DAFC25208DF80000002080
:101820008DF801008DF8020001208DF80300684654
:1018300015F0D1FC08BD10B596B00446012110206A
:1018400016F02CF80121084615F0E4FF0121880567
:1018500015F0E0FF4FF4C060009002208DF8040006
:1018600000208DF806008DF8070002208DF8050095
:101870006946754815F088FD07220921724815F060
:101880000EFE07220A21704815F009FE029400207E
:10189000ADF80C00ADF80E00ADF81000ADF8140076
:1018A0000C20ADF8120002A96A4817F025FC0121AE
:1018B000684817F0A9FC4FF4A06015F087FC3A20A7
:1018C0008DF8180000208DF819008DF81A000120FD
:1018D0008DF81B0006A815F07EFC5A48303016F033
:1018E00009FB4FF00060079000200A905A480990C9
:1018F0000A200B905748001D089000200C904FF4D0
:1019000080600D9000200E900F904FF4807010902A
:101910004002119004201290032013900020149094
:10192000159007A94748303016F086FB0122402168
:10193000484817F016FD012210214248303016F0B9
:1019400042FC01213F48303016F0B0FB16B010BD0C
:1019500010B596B004460121480515F05BFF012142
:10196000480415F08AFF0121082015F053FF60207C
:10197000009002208DF8040000208DF806008DF8FC
:10198000070002208DF805006946344815F0FCFC7C
:1019900007220521314815F082FD072206212F4834
:1019A00015F07DFD02940020ADF80C00ADF80E009E
:1019B000ADF81000ADF814000C20ADF8120002A92B
:1019C000274817F099FB0121254817F01DFC4FF41B
:1019D000A06015F0FBFB11208DF8180000208DF899
:1019E00019008DF81A0001208DF81B0006A815F0CB
:1019F000F2FB1C4816F07EFA4FF000600790402082
:101A00000A901948099050200B901548001D089025
:101A100000200C904FF480600D9000200E900F90ED
:101A20004FF4807010904002119004201290032017
:101A300013900020149019E0070040004C20014052
:101A40003C070020106402400000024000040240F5
:101A5000000802400010014058070020000C02401E
:101A600000440040A060024004000020159007A937
:101A7000F74816F0E1FA01228021F64817F071FCD0
:101A800001228021F34817F06CFC01221021F0485C
:101A900016F099FB0121EE4816F008FB16B010BDB8
:101AA00010B596B004460121880415F0E6FE012128
:101AB000082015F0AFFE0121480515F0ABFE4FF4EC
:101AC0004070009002208DF8040000208DF8060080
:101AD0008DF8070002208DF805006946DE4815F0F4
:101AE00053FC07220821DC4815F0D9FC0722092104
:101AF000D94815F0D4FC02940020ADF80C00ADF8E4
:101B00000E00ADF81000ADF814000C20ADF8120076
:101B100002A9D24817F0F0FA0121D04817F074FB5F
:101B20004FF4A06015F052FB0C208DF81800002037
:101B30008DF819008DF81A0001208DF81B0006A8F9
:101B400015F049FBC248783816F0D4F94FF0006020
:101B5000079000200A90C24809900A200B90BF48C5
:101B6000001D089000200C904FF480600D90002024
:101B70000E900F904FF4807010904002119004204E
:101B800012900320139000201490159007A9B048DC
:101B9000783816F051FA01224021B04817F0E1FBE5
:101BA00001224021AD4817F0DCFB01221021A8489A
:101BB000783816F008FB0121A548783816F076FA37
:101BC00016B010BD10B596B004460121C80415F03A
:101BD00054FE0121042015F01DFE0121480515F0D9
:101BE00019FE4FF44060009002208DF804000020A0
:101BF0008DF806008DF8070002208DF80500694673
:101C0000984815F0C1FB08220A21964815F047FCB8
:101C100008220B21934815F042FC02940020ADF8F5
:101C20000C00ADF80E00ADF81000ADF814000C205B
:101C3000ADF8120002A98C4817F05EFA01218A481B
:101C400017F0E2FA4FF4A06015F0C0FA0D208DF8FD
:101C5000180003208DF8190001208DF81A008DF866
:101C60001B0006A815F0B7FA7948603816F042F95B
:101C70004FF00060079000200A907C4809900820EF
:101C80000B907948001D089000200C904FF4806064
:101C90000D9000200E900F9010904FF40030119096
:101CA000002012900320139000201490159007A993
:101CB0006748603816F0C0F9012240216A4817F0E1
:101CC00050FB01228021684817F04BFB01221021B4
:101CD0005F48603816F077FA01215D48603816F0E9
:101CE000E5F916B010BD70B5614C2468642C00DBBA
:101CF00070BD604C248804EB84045F4D2C446070FC
:101D00005C4C248804EB84042C44A170594C248836
:101D100004EB84042C44E270564C248804EB8404C5
:101D20002C442371534C2488641C642594FBF5F6E1
:101D300005FB16444F4D2C804D4C2468641C4C4DC3
:101D40002C6000BFD4E701464948006808B900206C
:101D500070474A48008800EB8000474A10440268F8
:101D60000A60007908710120F2E7014640480068E6
:101D700008B9002070474148008800EB80003E4AC7
:101D8000104402680A60007908713C480088401CD1
:101D9000642290FBF2F302FB1300384A10803448AF
:101DA0000068401E324A10600120E3E70CB5684627
:101DB000FFF7DBFF0020324908700CBD70B5044608
:101DC0000D46012C0BD129462E4817F048FA00BFCA
:101DD00040212C4817F0F3FA0028F9D036E0032C04
:101DE0000BD129461D4817F03AFA00BF40211B4885
:101DF00017F0E5FA0028F9D028E0042C0BD1294689
:101E0000194817F02CFA00BF4021174817F0D7FAED
:101E10000028F9D01AE0052C0BD129461A4817F0F2
:101E20001EFA00BF4021184817F0C9FA0028F9D05F
:101E30000CE0062C0AD12946144817F010FA00BF0E
:101E40004021124817F0BBFA0028F9D070BD0000FD
:101E5000A060024000440040000C024000480040E6
:101E60009907002000080240004C00404702002073
:101E70005402002058020020A80700205A02002027
:101E80005D0200200010014000500040001401409D
:101E90002DE9F04702240125022600274FF0000813
:101EA0004FF003096019304438444044FE49097832
:101EB000084400F0FF0A21460620FFF77FFF29466D
:101EC0000620FFF77BFF31460620FFF777FF3946F4
:101ED0000620FFF773FF41460620FFF76FFFF24829
:101EE00001780620FFF76AFF51460620FFF766FFDC
:101EF00049460620FFF762FFBDE8F08710B5EB48C2
:101F00000078EA4949780844E84989780844E7496B
:101F1000C9780844E54909790844E44949790844FD
:101F2000C4B2E2480078022800D010BDDF48C07972
:101F3000032800D0F9E7DD488079A04263D1DB486F
:101F40004078DB490870D9488078DA490870D7486A
:101F5000C078D9490870D5480079D8490870D34865
:101F60004079D7490870D248007801280AD1D14871
:101F70000078022806D108460078CB490860FFF7B0
:101F800087FF49E0CA480078022807D1C94800788D
:101F9000012803D10020CB4908603DE0C448007807
:101FA00002280ED1C348007802280AD1C448037819
:101FB000C2480278C0480178BE480078FFF793FE17
:101FC0002AE0BB480078022808D1BA4800780328E4
:101FD00004D1BB480078BC4908601DE0B4480078D3
:101FE000022819D1B3480078042815D1B2480078E6
:101FF000B6490860B1480078B5490860B048007833
:10200000B449086008E0FF20AA490870AA4908708E
:10201000AA490870AA49087000BF86E710B596B0B3
:1020200004460121480515F0F5FB0121080515F0CE
:1020300024FC01210C2015F0EDFB0420009002206F
:102040008DF8040000208DF806008DF807000220AE
:102050008DF805006946A04815F096F94FF48050B8
:10206000009002208DF8040000208DF806008DF805
:10207000070002208DF805006946984815F084F99C
:1020800008220221944815F00AFA08220C219348EC
:1020900015F005FA4FF4A06015F098F82F208DF890
:1020A000180005208DF819008DF81A0001208DF810
:1020B0001B0006A815F08FF80B208DF818000520DE
:1020C0008DF819008DF81A0001208DF81B0006A864
:1020D00015F081F802940020ADF80C00ADF80E0068
:1020E000ADF81000ADF814000C20ADF8120002A9F4
:1020F0007B4817F001F80121794817F085F87948F5
:1021000015F0F8FE4FF00060079040200A907648E6
:1021100009900A200B907248001D089000200C9036
:102120004FF480600D9000200E900F9010904FF4AF
:102130000030119000201290032013900020149082
:10214000159007A9674815F077FF6648A83815F07D
:10215000D1FE4FF00060079000200A90634809907C
:1021600005200B905E48001D089000200C904FF455
:1021700080600D9000200E900F9010904FF4003072
:1021800011900020129003201390002014901590BD
:1021900007A95448A83815F04FFF01228021504864
:1021A00017F0DFF8012240214D4817F0DAF801223C
:1021B00010214C4816F007F8012210214948A83890
:1021C00016F001F80121474815F070FF012145483C
:1021D000A83815F06BFF16B010BD10B596B00446C8
:1021E0000121202015F05AFB0121042015F012FBDB
:1021F0000121880515F00EFBC020009002208DF80B
:10220000040000208DF806008DF8070002208DF8EC
:1022100005006946314815F0B7F8082206212F4815
:1022200015F03DF9082207212C4815F038F90294E1
:102230000020ADF80C00ADF80E00ADF81000ADF8C0
:1022400014000C20ADF8120002A9294816F054FF22
:102250000121274816F0D8FF4FF4A06014F0B6FF14
:1022600039208DF8180003208DF8190001208DF811
:102270001A008DF81B0006A814F0ADFF1D4815F0DC
:1022800039FE4FF02060079000200A901A4809900C
:1022900008200B901648001D089000200C904FF469
:1022A00080600D90002029E060020020470200209D
:1022B0004F02002050020020510200205202002054
:1022C0005302002064020020680200206C020020FB
:1022D0007002002074020020000C0240000802403E
:1022E00000500040B8600240A60600209C09002073
:1022F0000014014028640240780200200E900F90E4
:1023000010904FF400301190002012900320139091
:1023100000201490159007A9FD4815F08DFE0122AC
:102320004021FC4817F01DF801228021F94817F0E0
:1023300018F801221021F64815F045FF0121F44854
:1023400015F0B4FE16B010BDF3490978F24A527880
:102350001144F14A92781144EF4AD2781144EE4A7E
:1023600012791144EC4A52791144C8B2EA49097809
:10237000022900D07047E849C979032900D0F9E75C
:10238000E5498979814218D1E3494978E34A1170D6
:10239000E1498978E24A1170DF49C978E14A117050
:1023A000DD490979E04A1170DB494979DF4A11704A
:1023B000DD490978DE4A117006E0FF21D94A117023
:1023C000D94A1170D94A117000BFD3E700B585B062
:1023D0000121082015F01EFA0121880315F05EFA8C
:1023E00000208DF8100001208DF813000C200390C0
:1023F00003A9D04814F0C8FF0221032017F04AF8BF
:102400000420009000208DF8040010208DF80500B5
:1024100001208DF80600684615F04EFF08208DF863
:10242000080000208DF809008DF80A0001208DF8C1
:102430000B0002A814F0CFFE05B000BD0020BE497D
:102440004862BE490860BE490860BE4908607047DE
:102450000020B9494862B94908604FF0804148629C
:10246000B9490860B9490860B9490860B4490860C9
:10247000B4490860B7490860B74908607047002050
:102480004FF080414862B049086070470020AF4972
:102490000860AF490860704710B50020AF49087068
:1024A000002407E061210120FFF788FC3220FEF7BD
:1024B0009CFB641C022CF5D30120A84908707A20EB
:1024C000A749087010BD10B50020A6490870002467
:1024D00007E061210320FFF771FC3220FEF785FB46
:1024E000641C022CF5D301209E4908707A209E4975
:1024F000087010BD2DE9F14FAEB09CA02D900020CA
:102500002C908DF888008DF860002E98152833D215
:10251000DFE800F00B333C434A51585F666D747B33
:10252000828B979EA5FDFCFBFA000221984814F0CF
:102530008DFF88B100224FF40041964814F0A4FFAB
:102540004FF40041934814F08EFF044600222146C8
:1025500091A0FEF79BF80FE00122D1038D4814F003
:1025600093FF4FF400418B4814F07DFF0446002296
:10257000214691A0FEF78AF87BE201229648B0F945
:102580000000414295A0FEF781F872E202229548D0
:10259000016895A0FEF77AF86BE20322974801687C
:1025A00097A0FEF773F864E204229948016899A0A5
:1025B000FEF76CF85DE205229A4801689AA0FEF7E2
:1025C00065F856E206229C4801689CA0FEF75EF87A
:1025D0004FE207229D4801689DA0FEF757F848E2A8
:1025E00008229E4801689EA0FEF750F841E20922A9
:1025F0009E4801689EA0FEF749F83AE20A229F48E9
:1026000001689FA0FEF742F833E20B22A048016860
:10261000A0A0FEF73BF82CE2FEF72BFA04460C22B2
:102620002146A1A0FEF732F823E24FF40071A14841
:1026300014F00CFF04460D2221469FA0FEF726F859
:1026400017E2A148018A0E22A0A0FEF71FF810E2AF
:102650000F22A2480168A2A0FEF718F809E20121A2
:10266000944814F0F3FE4FF400511790494814F0C9
:10267000EDFE044602218F4814F0E8FE05464FF4B3
:102680008041444814F0E2FE06460421894814F0D3
:10269000DDFE4FF400411690864814F0D7FE074641
:1026A0000821844814F0D2FE80464FF480418148CE
:1026B00014F0CCFE814610217E4814F0C7FE4FF482
:1026C000005115907B4814F0C1FE8246082119483C
:1026D00014F0BCFE4FF480511490764814F0B6FE0E
:1026E00010211390134814F0B1FE4FF48061129042
:1026F000704814F0ABFE834680216E4814F0A6FEAD
:102700004FF480711190F3E0ABE19DE195E115E1AB
:10271000286402400014014078020020800200205A
:102720008102002082020020830200208402002017
:1027300085020020000C0240000001406C000020D7
:10274000240800408800002070000020240400407D
:1027500074000020240C004078000020910000202C
:102760009000002093000020920000203131313190
:102770003131313131313131313131313131313149
:1027800031313031313131313131313100000000FE
:102790000004024000080240524F424F54203220B1
:1027A00044414E4720434841592053414E2058410F
:1027B0004E483A2020200000524F424F54203220F1
:1027C00044414E4720434841592053414E20444FF5
:1027D0003A202020000000008C000020494D553A8E
:1027E00000000000B800002054726F206368616E22
:1027F000205472756F633A2000000000BC00002076
:1028000054726F206368616E205361753A20200016
:10281000B000002054726F20786F61792074617964
:1028200020000000C000002054726F2064617920F5
:102830007461792031200000C400002054726F20A0
:10284000646179207461792032200000A4000020A6
:102850004C617A657220706861690000A0000020F8
:102860004C617A65722074726169200098000020C2
:102870004C617A6572207361750000009C00002035
:102880004C617A6572207472756F632000000000DD
:1028900054020020636F756E745F646174615F75CC
:1028A0006172743420000000454E434F4445525F2E
:1028B000464C20000010024043425F4E616E675F4D
:1028C00070686169200000003C0700205175616E4E
:1028D000675F74726F5F322000000000AC0200205E
:1028E0006E6861795F64656E5F6C616E5F31200058
:1028F000F74814F0ABFD10901798CDE90B65CDE9C2
:102900000D401698CDE90798CDE90970DDE913125D
:102910001598CDE9042A03910690DDE91110CDE95F
:10292000001B0290EBA2282122A8109B18F02AFF7E
:10293000102222A9F0A0FDF7FCFE9AE08021EF48CA
:1029400014F084FD04460121EC4814F07FFD054697
:102950004021EA4814F07AFD06464FF40041E84869
:1029600014F074FD07464FF48051E64814F06EFDF4
:1029700080464FF48061E14814F068FD81464FF4D1
:102980000061E04814F062FD4FF400611790DB48ED
:1029900014F05CFD82464FF48061D94814F056FD76
:1029A00083464FF48051D54814F050FD4FF4006138
:1029B0001690D34814F04AFD4FF400511590CF48BB
:1029C00014F044FD4FF480411490CD4814F03EFDC6
:1029D0004FF480411390C94814F038FD4FF48071D2
:1029E0001290C84814F032FD4FF400411190C348D2
:1029F00014F02CFDCDE90B76CDE90D54109017980D
:102A0000CDE907A0CDE90998DDE914121698CDE9C2
:102A1000050BCDE90312DDE911121398CDE900127F
:102A20000290ACA2282122A8109B18F0ABFE112224
:102A300022A9B5A0FDF77DFE1BE0B5484189122211
:102A4000B4A0FDF723FE14E04FF40071A04814F089
:102A5000FDFC044613222146AFF2A410FDF716FE3A
:102A600007E01422AF480168AFF2EC10FDF70EFE4C
:102A700000BF00BF2FB0BDE8F08F10B50121AA48FC
:102A800015F014FB10BD01B5A848006800998842F4
:102A900003DD0020A549086004E0A4480068401C4C
:102AA000A2490860A1480068FFF724FD08BD01B5F0
:102AB0009DF80000052801DA002008BD9DF80000FF
:102AC000FBE730B504461D4624B999480078994B78
:102AD000D87011E0002C07DDE0B2FFF7E8FF954B5E
:102AE000D8700020987007E06342D8B2FFF7DFFF8C
:102AF000904BD8700120987021B98D4800788D4B8B
:102B0000D87111E0002907DDC8B2FFF7D0FF894B6B
:102B1000D8710120987107E04B42D8B2FFF7C7FF88
:102B2000844BD8710020987122B981480078814B7C
:102B3000D87211E0002A07DDD0B2FFF7B8FF7D4B55
:102B4000D8720120987207E05342D8B2FFF7AFFF66
:102B5000784BD8720020987225B975480078754B6B
:102B6000D87311E0002D07DDE8B2FFF7A0FF714B2D
:102B7000D8730120987307E06B42D8B2FFF797FF34
:102B80006C4BD8730020987330BD6A4AD070D071F6
:102B9000D072D07370476748C07803280DDA654853
:102BA000C079032809DA6348C07A032805DA614846
:102BB000C07B032801DA012070470020FCE70120D8
:102BC0005D49086070475D48006847F230518842AF
:102BD00001D0012070470020FCE710B5FFF75CFC36
:102BE00010BD5748B0F9000040427047B5EEC00A2A
:102BF000F1EE10FA09D25348D0ED000A70EE600AE7
:102C0000FDEEE00A10EE900A70474E48D0ED000A43
:102C100070EE200AFDEEE00A10EE900AF4E710B51F
:102C20002DED0A8B044624B99FED470ABDEC0A8BB3
:102C300010BD002C25DA4548006818F010FC41EC66
:102C4000190B204618F00BFC41EC1C0B9FED400BC0
:102C500053EC102B18F022FB41EC1B0B9FED3E0BAD
:102C600053EC102B18F014FB41EC1A0B53EC192BFE
:102C700018F086FB41EC180B18F034FC00EE100A3B
:102C8000D4E73248006818F0EAFB41EC190B204603
:102C900018F0E5FB41EC1C0B9FED2D0B53EC102BBA
:102CA00018F0FCFA41EC1B0B9FED2B0B53EC102B97
:102CB00018F04DFA41EC1A0B53EC192B18F060FB8D
:102CC00041EC180B18F00EFC00EE100AAEE7000005
:102CD000001002402564256425642564256425646C
:102CE000256425642564256425642564256425649C
:102CF0002564256400000000493A000000040240F9
:102D0000000C024000000240696E323A00000000F0
:102D10003C0700205175616E675F74726F203A2026
:102D2000000000009C000020A06002408400002001
:102D3000000300200400002064030020280300207A
:102D40008C000020C00200200000000014030020BE
:102D50009A9999999999B93F333333333333D33FA0
:102D6000F0EE400AF5EEC00AF1EE10FA02DBB0EE2A
:102D7000600A7047B1EE600AFBE70146002901DBFB
:102D8000084670474842FCE70146FE48D0ED000A7D
:102D9000F1EE600AFC48D0ED001A80EEA11A00EEB8
:102DA000901AF8EEE01AF748D0ED000A41EE210A39
:102DB000B0EE600AFDEEC00A10EE900A7047B0EE69
:102DC000402ADFEDF22AB0EE620AB5EEC02AF1EE3B
:102DD00010FA03D2F1EE422AB0EE622AF5EEC00AF2
:102DE000F1EE10FA03D2F1EE602AF0EE620AB5EECF
:102DF000C01AF1EE10FA03D2F1EE412AB0EE621AD7
:102E0000F5EEC01AF1EE10FA03D2F1EE612AF0EEFF
:102E1000621AB4EEC02AF1EE10FA01DDB0EE420AF9
:102E2000F4EEC00AF1EE10FA01DDB0EE600AB4EE85
:102E3000C01AF1EE10FA01DDB0EE410AF4EEC01A4C
:102E4000F1EE10FA01DDB0EE610A7047D04800687B
:102E50007047D0480068704710B52DED028BB0EE7A
:102E6000408ACD48006847F2305188420ED11FEDAC
:102E70004A0ACA4880ED000AC94880ED000AC948DC
:102E800080ED000AC84880ED000A4AE0C7480068A3
:102E9000C7490968401AC0490968081A00EE100AB3
:102EA000B8EEC00AF0EE408AC248D0ED000A88EEC3
:102EB000A00AC148D0ED000A30EE200ABF48D0ED8C
:102EC000000A20EE200AF0EE408AB0EE680A18F000
:102ED000BFFFF0EE000A20EE200AB04880ED000AA5
:102EE000B0EE680A18F00CFFF0EE000A20EE200A9F
:102EF000AB4880ED000AA94890ED000AB048D0ED3B
:102F0000000A30EE200AA84880ED000AA44890ED9F
:102F1000000AAB48D0ED000A30EE600AA14880ED0F
:102F2000000AB5EEC08AF1EE10FA73D0A548006829
:102F3000052820D2DFE800F003203A546F009A48B9
:102F400090ED000A30EE080A80ED000A954890EDF9
:102F5000000A30EE480A80ED000A914890ED000A20
:102F600030EE080A80ED000A8C4890ED000A30EE41
:102F7000480A80ED000A68E08A4890ED000A30EEC9
:102F8000480A80ED000A864890ED000A30EE080AF3
:102F900080ED000A814890ED000A8B48D0ED000AD0
:102FA00008EE600A7D4880ED000A4EE07E4890ED14
:102FB000000A30EE080A80ED000A794890ED000A18
:102FC0008148D0ED000A08EE200A754880ED000A1D
:102FD000724890ED000A30EE480A80ED000A34E0B5
:102FE000714890ED000A30EE080A80ED000A6D4845
:102FF00090ED000A7448D0ED000A08EE600A6948B6
:1030000080ED000A654890ED000A30EE480A80ED38
:10301000000A1AE01AE0644890ED000A6A48D0ED10
:10302000000A08EE200A604880ED000A5D4890ED35
:10303000000A30EE480A80ED000A594890ED000A77
:1030400030EE080A80ED000A00BF00BF5348D0ED03
:10305000001A534890ED001A5248D0ED000A524829
:1030600090ED000AFFF7ABFE5848D0ED000AF8EEED
:10307000E00A80EE801ABDEEC10A554880ED000AD4
:103080004348006852490968884203DD5048006897
:103090003F49086001204F490860BDEC028B10BD1C
:1030A00010B5044600204C4908604C480460FCB947
:1030B0000020374908601FEDDC0A414880ED000A16
:1030C00047F2305034490860454908601FEDE20A74
:1030D000444880ED000A00203A49086042490860EF
:1030E0002C490860414908601FEDE90AFFF7B4FE6A
:1030F00010BD10B53B4890ED000AB5EEC00AF1EEE8
:1031000010FA05D12F48006810B93748006890B10F
:103110001FEDF30A334880ED000A002029490860BA
:103120003149086021480068214908602D4890ED28
:10313000000AFFF791FE10BD1248C0ED000A1248C8
:1031400080ED000A704770B52DED028B05460C46E8
:10315000B0EE408A10480068A8420BD11E480068B3
:10316000A04207D1164890ED000AB4EE480AF1EEED
:1031700010FA50D01848046005480068C0BB05200C
:10318000034936E0F8020020FC0200206F12833A67
:1031900014030020400300202803002060030020C7
:1031A0005C03002058030020540300204803002043
:1031B00034030020D8020020E4020020080300208D
:1031C0003C03002010030020C8020020BC020020A5
:1031D0001C0300200C030020180300202003002003
:1031E0002C0300203803002030030020640300205B
:1031F00000E00860FA480068FA490860FA4880ED83
:10320000008AFA4805600020F9490860F94890ED05
:10321000000AFFF721FEBDEC028B70BD70B52DEDED
:10322000028B0446B0EE408A0D46F3480068A04287
:103230000BD1F04890ED000AB4EE480AF1EE10FA16
:1032400003D1EE480068A8423AD0E848006847F247
:103250003051884225D12820E9490860E9480068B2
:1032600010B90A20E749086047F23050844218DA62
:103270000120E5490860B5EEC08AF1EE10FA03DDE1
:10328000D7480068A04208DCB5EEC08AF1EE10FA1B
:1032900007D2D3480068A04203DAB1EE480AB0EE84
:1032A000408AD5480460D5480560D24880ED008A40
:1032B0000020CF490860CF4890ED000AFFF7CCFD11
:1032C000BDEC028B70BD10B52DED028BB0EE408AC7
:1032D00004462146B0EE480A47F23050FFF79EFF01
:1032E000BDEC028B10BD70B504460D469FEDC70ABC
:1032F00029462046FFF727FF70BD70B52DED088BDE
:10330000F0EE408A0446B0EE608AB0EE419AC048C2
:1033100090ED000AB8EEC00AB4EE680AF1EE10FAB9
:103320000DD1B7480068A04209D1B34890ED000A1A
:10333000B8EEC00AB4EE480AF1EE10FA5ED0BDEE67
:10334000E80AB34880ED000AA54991ED000AB8EEFD
:10335000C00A38EEC00ABDEEC00A10EE100A9FED9A
:10336000AB0A2146FFF7EFFE9D4890ED000AB8EE4C
:10337000C00A38EE400ABDEEC00A10EE105A002D09
:1033800001DB284600E06842642814DD944890ED93
:10339000000AB8EEC00AB4EEC08AF1EE10FA02DDFF
:1033A000B0EE490A01E0B1EE490A10EE101A0846E3
:1033B00018F085F813E08A4890ED000AB8EEC00ACC
:1033C00038EE400A10EE101A084618F078F841EC72
:1033D0001B0B9FED900B53EC102B17F05FFF41EC94
:1033E0001A0B18F07FF809EE900A0021B0EE690A76
:1033F000FDEEC80A10EE900AFFF710FFBDEC088B37
:1034000070BD10B58048006801283DDD7A49096823
:10341000734A1268881AFFF7B0FC06280CDA7A485B
:1034200001680068401C784A1060B1F5FA7F2BDD16
:103430000020FFF735FE10BD73480068FA2808DD4C
:1034400005206F4908606F490860FB206E490860DD
:1034500004E005206A4908606A490860604800681D
:1034600065490968884205DDBFEE000A614880EDC4
:10347000000A04E0B7EE000A5E4880ED000A5D48ED
:1034800090ED000AFFF7E8FC00BFD4E710B52DED82
:10349000028B554890ED000AB5EEC00AF1EE10FA25
:1034A00008D15848006828B15348006847F23051A5
:1034B000884202DBBDEC028B10BD4E4890ED000A45
:1034C000B5EEC00AF1EE10FA7ED04848006847F227
:1034D0003051884279D1474890ED000AB5EEC00AD4
:1034E000F1EE10FA08DD444800684C490968401ABA
:1034F0003B490968884210DB3E4890ED000AB5EE72
:10350000C00AF1EE10FA6AD23B48006843490968E4
:10351000084433490968884261DD3B480068032854
:103520005CDA354909682E4A1268881AFFF725FCCB
:103530000A2816DA30480068394908600020314905
:1035400008602F4908609FED310A2A4880ED000A83
:1035500002202D490860274890ED000AFFF77CFC07
:10356000A8E7254800681E49096888425CDD2548AF
:1035700090ED000AB8EEC00A1E48D0ED000A60EED9
:10358000200A264890ED000AB8EEC00AC0EE801A64
:10359000B0EE611AB0EE410AFFF7E2FB1649096886
:1035A0000F4A1268881AFFF7E8FB00EE900AB8EE9F
:1035B000E01A1C48D0ED000A40EE010A114890EDD7
:1035C000000AB8EEC00A01E0CBE068E080EE801AA5
:1035D000B0EE418AB0EE480AFFF73EFCC0E058E08A
:1035E00048030020340300203C030020280300206F
:1035F00024030020380300203003002010030020A3
:1036000018030020140300204003002000000000E5
:103610002C0300207B14AE47E17A743FF4020020B3
:1036200044030020D4020020FE4890ED000AB8EECA
:10363000C00AFD48D0ED000A60EE200AFB4890ED7C
:10364000000AB8EEC00AC0EE801AB0EE611AB0EE01
:10365000410AFFF785FBF6490968F64A1268881A9D
:10366000FFF78BFB00EE900AB8EEE01AF248D0EDBF
:10367000000A50EE410AEB4890ED000AB8EEC00A8D
:1036800080EE801AB0EE418AB0EE480AFFF7E4FB04
:1036900066E0E54890ED000AFFF7DEFB60E0E248F7
:1036A00090ED000AB5EEC00AF1EE10FA1FDDE04819
:1036B00090ED000AB8EEC00ADA48D0ED000AF8EE44
:1036C000E00AD94890ED001A00EEC10ADB48D0EDBF
:1036D000000AF8EEE00A70EE600AD64890ED000AA3
:1036E000B8EEC00AF4EEC00AF1EE10FA27D3CE48C5
:1036F00090ED000AB5EEC00AF1EE10FA2BD2CC48DC
:1037000090ED000AB8EEC00AC648D0ED000AF8EE07
:10371000E00AC54890ED001A00EEC10AC748D0ED96
:10372000000AF8EEE00A70EE200AC24890ED000AA6
:10373000B8EEC00AF4EEC00AF1EE10FA0BDDBC4997
:103740000968BC4A1268881AFFF769FAB0EE408A25
:10375000FFF782FB04E0B44890ED000AFFF77CFB22
:10376000A8E6B7490968B34A1268881AFFF757FAFA
:10377000B0EE408AFFF770FB00BF9BE600B5B14892
:103780000068022815DA1FED5F0AAF4880ED000AD5
:103790001FED620AA44880ED000A0020AB490860D2
:1037A00047F23050AA490860AA4908600020A049A1
:1037B0000860A9480068401CA7490860A749096833
:1037C000884204DAA6480068FFF7DFF90EE0A34854
:1037D0000068A1490860A348006820B1A0480068BB
:1037E000FFF7D3F902E00020FFF7CFF900BD9A4AB6
:1037F0001268521C984B1A60824207DD894A12688F
:103800000A44884B1A600022934B1A6070472DE9D6
:10381000F041FFF7E6F987490860FFF7F2FD9248AB
:103820000068002821DD7F4800688F4909688842C8
:103830002AD07C4800688C49096888420EDA7948A9
:1038400000688A49096888421EDA76480068FFF7EE
:103850009BFA04460121FFF7CAFF15E04FF0FF3144
:1038600083480068FFF7C3FF0EE06E480068002839
:1038700006DD4FF0FF317F480068FFF7B8FF03E037
:10388000FFF77CFFBDE8F0817B4800686949096863
:10389000884205D0FFF7FAFD66480068764908605F
:1038A00076480068F0B35F48D0ED000AF8EEE00A11
:1038B000734890ED001A60EE810AB0EE600AFFF7DF
:1038C00095F904465748D0ED000AF8EEE00A6D4835
:1038D00090ED001A60EE810AB0EE600AFFF786F9FB
:1038E00005465048D0ED000AF8EEE00A664890ED33
:1038F000001A60EE810AB0EE600AFFF777F906461B
:103900004848D0ED000AF8EEE00A604890ED001A51
:1039100060EE810AB0EE600AFFF768F907462346B9
:103920002A4600E002E03146FFF7CBF800BFA9E7E6
:10393000574801680068401C554A1060462907D264
:103940005448408B544909680844534908600BE0C7
:10395000514800684621B0FBF1F050490860002052
:103960004B4908604C4908604D4801680068401C9C
:103970004B4A1060462907D24648008B49490968DE
:103980000844484908600BE0464800684621B0FBFF
:10399000F1F045490860002041490860414908604C
:1039A000424801680068401C404A1060462907D21E
:1039B0003848808A3E49096808443D4908600BE060
:1039C0003B4800684621B0FBF1F03A49086000200E
:1039D0003649086036490860374801680068401C6D
:1039E000354A1060462907D22A48C08A33490968F7
:1039F0000844324908600BE0304800684621B0FBBB
:103A0000F1F02F49086000202B4908602B4908601D
:103A10002C4801680068401C2A4A106032295AD29A
:103A20001C4851E01403002038030020F402002059
:103A30003003002048030020D4020020F0020020C0
:103A400034030020400300203C030020100300202A
:103A5000280300202C03002024030020040300205E
:103A60000003002064030020180300201C03002032
:103A700050030020200300204C0300200C030020F2
:103A8000600300205C030020580300205403002042
:103A9000700400203C0700207404002098000020DF
:103AA000780400207C0400209C000020800400207A
:103AB00084040020A4000020880400208C0400203E
:103AC000A0000020900400204089FA4909680844B9
:103AD000F84908600BE0F74800683221B0FBF1F0CC
:103AE000F54908600020F5490860F2490860F4488B
:103AF00001680068401CF24A1060322907D2F14880
:103B0000C088F14909680844EF4908600BE0EE48B5
:103B100000683221B0FBF1F0EC4908600020E84970
:103B20000860E9490860EA4801680068401CE84A02
:103B30001060322907D2E3488088E64909680844C2
:103B4000E44908600BE0E34800683221B0FBF1F083
:103B5000E14908600020DE490860DE490860DF486E
:103B600001680068401CDD4A1060462907D2D5482C
:103B70000089DB4909680844D94908600BE0D84846
:103B800000684621B0FBF1F0D64908600020D34917
:103B90000860D3490860D44801680068401CD24AD4
:103BA0001060462907D2C7480088D04909680844F0
:103BB000CE4908600BE0CD4800684621B0FBF1F02B
:103BC000CB4908600020C8490860C8490860C94856
:103BD00001680068401CC74A1060462907D2B948EE
:103BE0004088C54909680844C34908600BE0C248D9
:103BF00000684621B0FBF1F0C04908600020BD49D3
:103C00000860BD4908607047BD480068BD49096843
:103C1000884203DABB480068B9490860B8480068C0
:103C2000B9490968884203DDB7480068B4490860AB
:103C3000A9490968B24A1268881A002801DB0146BE
:103C400000E04142022930DDA3480068AC49096820
:103C5000884203DD0120AD49887502E00020AB49B0
:103C600088759D490968A64A1268881A002801DBF0
:103C7000014600E0414201EB4101A54A11601046B6
:103C80000068A4490968884203DDA248006811461B
:103C900008609F4800681E2802DA1E209C490860C0
:103CA0009B4800789949C87502E000209749C8757B
:103CB00070479948006899490968884203DA97482B
:103CC00000689549086094480068954909688842E9
:103CD00003DD93480068904908607C4909688E4A72
:103CE0001268881A002801DB014600E041420229DF
:103CF00030DD7648006888490968884203DD002085
:103D00008249887402E00120804988746F490968FB
:103D1000814A1268881A002801DB014600E041420E
:103D200001EB41017A4A1160104600687D4909683B
:103D3000884203DD7B4800681146086074480068CB
:103D4000142802DA142072490860714800786F491B
:103D5000C87402E000206D49C8747047724800685A
:103D600072490968884203DA704800686E49086041
:103D70006D4800686E490968884203DD6C48006838
:103D8000694908605A490968674A1268881A002810
:103D900001DB014600E04142042931DD544800685E
:103DA00061490968884203DD00205849887602E0AD
:103DB0000120564988764E4909685B4A1268881A7C
:103DC000002801DB014600E0414201EB810189004E
:103DD0004F4A11601046006856490968884203DD61
:103DE000544800681146086049480068642802DAAF
:103DF000642047490860464800784449C87602E094
:103E000000204249C87670474B4800684B49096812
:103E1000884203DA49480068474908604648006814
:103E200047490968884203DD4548006842490860FF
:103E300032490968404A1268881A002801DB0146A5
:103E400000E0414204297FDD2C4800683A490968B6
:103E5000884204DD00202D4981F82A0003E001207A
:103E60002A4981F82A0025490968334A1268881AC4
:103E7000002801DB014600E0414201EB810189009D
:103E8000234A1160104600682E490968884203DD04
:103E90002C480068114608601D480068C82802DAEE
:103EA000C8201B4908601A480078184981F82B007F
:103EB0004EE049E094040020A80000209004002077
:103EC000A80400203C070020AC040020BC00002017
:103ED000B0040020B4040020B8000020B804002082
:103EE000BC040020B0000020D0040020D404002036
:103EF000C0000020D8040020DC040020C400002002
:103F0000D8030020D0030020D403002004000020A8
:103F10003804002010040020E4030020DC0300200B
:103F2000E00300200C040020FC030020F403002028
:103F3000F8030020180400200804002000040020DA
:103F4000040400201C0400200020FE4981F82B00FE
:103F5000704710B5FC480068FC490968884203DADC
:103F6000FA480068F8490860F7480068F8490968A5
:103F7000884203DDF6480068F3490860F54B1B688A
:103F8000F14C24681A1B002A01DB134600E053425F
:103F9000022B4CDDF04B1B68F04C2468191B0029E8
:103FA00001DB0B4600E04B42142B40DAEC4B1B6864
:103FB000EC4C2468181B002801DB034600E0434258
:103FC000142B34DAE3480068DF490968884204DDCD
:103FD0000120DC4981F8260003E00020D94981F85E
:103FE0002600DC490968D84A1268881A002801DBD3
:103FF000014600E04142DC4A116010460068DB499E
:104000000968884203DDD948006811460860D6482F
:104010000068322802DA3220D3490860D24800789A
:10402000C84981F827000020D149086006E0002037
:10403000C44981F827000120CD49086010BD252022
:10404000CC4908604420CC49086070473A20C949EF
:1040500008605820C849086070474320C549086077
:104060006420C549086070476E20C2490860A020DE
:10407000C1490860704700B50246FFF7F5FFBF4829
:104080000260BF48026000BD00B50246FFF7DEFFD8
:10409000BA480260BA48026000BD00B50246FFF7A8
:1040A000DCFFB6480260B648026000BD10B5FA20D9
:1040B000B4490860A9480068B3490860FA20B349C8
:1040C0000860A8480068B24908600020B14908604B
:1040D00035E006E0012016F0B9FBFCF7C1FC00B9A1
:1040E00027E09E4A1268AC4B1B68D21A032392FB4E
:1040F000F3F3994A1268A44C2468111B002901DBD0
:104100000A4600E04A429342E4DB964A1268A34B17
:104110001B68D21A032392FBF3F3914A12689C4C5A
:104120002468101B002801DB024600E04242934253
:10413000D0DB00BF97480068401C9649086095484E
:1041400000683228C5DB10BD10B501209449086015
:104150009448006890BB9448006878BB9348006816
:1041600060BB9348006848BBB6EE001ADFED910AC9
:1041700005209FED910AFFF7C0F8002085490860EF
:1041800014E006E0012016F061FBFCF769FC00B9C1
:1041900006E04FF48051894813F058F90028F1D017
:1041A00000BF7C480068401C7A4908607948006874
:1041B0009628E6DB0020FEF773FFA6E0FFE77948CC
:1041C0000068012833D17848006878BB77480068D8
:1041D00060BB7748006848BBB6EE001ADFED750A91
:1041E00005209FED750AFFF788F8002069490860EF
:1041F00014E006E0012016F029FBFCF731FC00B9C1
:1042000006E04FF480516D4813F020F90028F1D0FA
:1042100000BF60480068401C5E4908605D48006857
:104220009628E6DB0020FEF73BFF6EE0FFE75D48E7
:104230000068012832D15C48006801282ED15B4813
:10424000006858BB5A48006840BBB6EE001ADFED64
:10425000590A05209FED5A0AFFF74FF800204D49F3
:10426000086013E006E0012016F0F0FAFCF7F8FB16
:1042700000B905E00421534813F0E8F80028F2D013
:1042800000BF44480068401C42490860414800683B
:104290009628E7DB0020FEF703FF36E04148006880
:1042A000012832D14048006801282ED13F480068DB
:1042B00001282AD13E48006838BBB6EE001ADFED6F
:1042C0003D0A05209FED3E0AFFF717F8002031490F
:1042D000086013E006E0012016F0B8FAFCF7C0FB16
:1042E00000B905E00421374813F0B0F80028F2D0F7
:1042F00000BF28480068401C26490860254800681F
:104300009628E7DB0020FEF7CBFE10BD25480068AD
:10431000B0B92548006898B92448006880B9244895
:10432000006868B9AA201149086027480068064952
:1043300008600448C07F40F004000249C87798E054
:1043400044E0000004000020F0030020E803002007
:10435000EC030020B0000020C0000020BC010020C1
:10436000C4000020C00100203804002014040020F4
:10437000CC0300200C04002010040020D8030020EF
:10438000E403002018040020FC0300201C0400208B
:104390000804002094030020F403002000040020FF
:1043A000A0020020880200208C0200209002002041
:1043B0009402002000006144000000000000024060
:1043C0000000E1440010024080010020FA4800682B
:1043D000012816D1F948006898B9F948006880B9F1
:1043E000F848006868B9AA20F7490860F7480068EB
:1043F000F7490860F748C07F40F00800F549C877E2
:1044000037E0ED480068012817D1EC480068012822
:1044100013D1EB48006880B9EA48006868B9AA205F
:10442000E9490860EC480068E9490860E948C07F4C
:1044300040F04000E749C8771BE0DF4800680128EA
:1044400017D1DE480068012813D1DD480068012833
:104450000FD1DC48006860B9AA20DB490860DF485A
:104460000068DB490860DB48C07F40F01000D94994
:10447000C8777047D0480068B0B9D048006898B98C
:10448000CF48006880B9CF48006868B9AA20CE49F3
:104490000860D3480068CE490860CE48C07F40F02D
:1044A0000400CC49C87752E0C3480068012816D1FF
:1044B000C248006898B9C248006880B9C14800681D
:1044C00068B9AA20C0490860C6480068C0490860A9
:1044D000C048C07F40F00800BE49C87737E0B64802
:1044E0000068012817D1B5480068012813D1B448E5
:1044F000006880B9B348006868B9AA20B24908606A
:10450000B9480068B2490860B248C07F40F0400036
:10451000B049C8771BE0A8480068012817D1A74810
:104520000068012813D1A648006801280FD1A548CA
:10453000006860B9AA20A4490860AC480068A44992
:104540000860A448C07F40F01000A249C8777047B7
:104550009948006878B99948006860B99848006837
:1045600048B99848006830B99A48C07F40F00400C4
:104570009849C87754E090480068012816D18F48C0
:10458000006898B98E48006880B98E48006868B99C
:10459000AA208D490860964800688D4908608D48BA
:1045A000C07F40F008008B49C87739E08248006836
:1045B000012818D181480068012814D1804800687A
:1045C00088B98048006870B9AA207F490860884887
:1045D0000068401F7E4908607E48C07F40F0400070
:1045E0007C49C8771CE074480068012818D17348DA
:1045F0000068012814D172480068012810D1714860
:10460000006868B9AA20704908607A4800680838CC
:104610006F4908606F48C07F40F010006D49C8774F
:1046200070472DE9F04105460E46FFF71DFD724823
:104630000068FA307149086071480068FA307149C1
:104640000860002415E006E0012016F0FFF8FCF7F2
:1046500007FA00B90BE06C4909686A4A1268881ABF
:10466000002801DB014600E041420F29ECDC00BFDD
:10467000641C322CE7DB9FED651A00EE106AF8EE41
:10468000C00A0C2000EE105AB8EEC00AFEF735FE44
:10469000002416E006E0012016F0D8F8FCF7E0F957
:1046A00000B90CE04FF48071594812F0CFFE012898
:1046B000F1D08021574812F0C9FE0028EBD000BF8E
:1046C000641C40F21A408442E4DB0020FEF7E8FC60
:1046D0007820514908604A480068C01E494908606E
:1046E000002415E006E0012016F0B0F8FCF7B8F958
:1046F00000B90BE044490968424A1268881A002848
:1047000001DB014600E041420729ECDC00BF641CEC
:10471000322CE7DB4FF42F7016F098F89FED3F1A1C
:1047200000EE106AF8EEC00A0F2000EE105AB8EE44
:10473000C00AFEF7E2FD40F2A46016F087F80024FC
:1047400016E006E0012016F081F8FCF789F900B9BF
:104750000CE001212F4812F079FE0128F2D04FF42D
:1047600000612B4812F072FE0128EBD000BF641CE0
:1047700040F21A408442E4DBB42027490860204814
:1047800000681C301F4908609FED241A00EE106A73
:10479000F8EEC00A122000EE105AB8EEC00AFEF77A
:1047A000ACFD002444E03BE0022016F04FF8FCF79B
:1047B00057F900B93AE033E0880200208C0200206B
:1047C00090020020940200201404002084010020A4
:1047D000F003002004000020880100208C0100204C
:1047E000980100209C010020A0010020A4010020CD
:1047F0007C01002078010020D0030020D803002095
:10480000DC030020E4030020BC000020CDCCCCBEA3
:1048100000000240000402400C0400209A9999BE56
:104820000121FE4812F012FE0128BDD000BF641C19
:1048300040F226208442B6DBF9480068012802D104
:10484000FFF786FE0CE0F7480068012802D1FFF769
:1048500011FE05E0F4480068012801D1FFF756FD7C
:104860001FED121A00EE106AF8EEC00A0F2000EEDB
:10487000105AB8EEC00AFEF740FD002410E006E032
:10488000012015F0E3FFFCF7EBF800B906E04FF468
:104890000051E24812F0DAFD0128F1D000BF641C9B
:1048A000B4F57A7FEBDB0020FEF7FAFB3220DF491C
:1048B0000860DF480068C01CDE4908604FF47A7069
:1048C00015F0C4FF9620D9490860002415E006E0E1
:1048D000012015F0BBFFFCF7C3F800B90BE0D64987
:1048E0000968D44A1268881A002801DB014600E0F2
:1048F00041420729ECDC00BF641CFA2CE7DB4FF4D3
:104900007A7015F0A3FF1FED3F1A00EE106AF8EE63
:10491000C00A0C2000EE105AB8EEC00AFEF7EDFCFB
:1049200000240FE006E0012015F090FFFCF798F856
:1049300000B905E00121C14812F088FD0128F2D03C
:1049400000BF641CFA2CEDDBFDF782FD06E00520BC
:1049500015F07CFFFCF784F800B914E0FCF7B6F81A
:104960008046FCF786F8071E01DB384600E07842F7
:10497000B8F1000F01DB414601E0C8F10001084435
:10498000B0F5C87FE3DB00BFFFF76EFB4FF482702A
:10499000A8490860AA4908601FED641A00EE106A71
:1049A000F8EEC00A0C2000EE105AB8EEC00AFEF76E
:1049B000A4FC00240FE006E0012015F047FFFCF7FF
:1049C0004FF800B905E01021944812F03FFD01288E
:1049D000F2D000BF641C642CEDDB0020FEF760FB0E
:1049E000BDE8F08110B50246101E01DB044600E070
:1049F00044422146192900DD1921062901DA042043
:104A000010BDC1EBC1004000484340F2712490FB4F
:104A1000F4F0031D1846F3E72DE9F04104460D4676
:104A20000020884908603BE02AE087480068071BAF
:104A30003846FFF7D7FF064683480068001B00286A
:104A400009DD9FED821ADFED820A30469FED810A73
:104A5000FEF753FC10E07C480068001B09D59FED71
:104A60007B1ADFED7B0A30469FED7B0AFEF745FCA3
:104A700002E00020FEF714FBFBF7F2FF00B909E0AB
:104A800071490968081B002801DB014600E041422A
:104A90000129CADC00BF6B480068401C69490860F6
:104AA00068480068A842BFDBBDE8F08170B56B487C
:104AB00004686B4805684FF461714842FFF7B1FD27
:104AC000FFF7D2FA5A480068FA305A490860654838
:104AD0000068F0305A4908609FED631ADFED5C0A08
:104AE00008209FED620AFEF708FC00205549086087
:104AF0001AE006E0FBF7B4FF00B90FE0012015F063
:104B0000A5FE4FF480715A4812F0A0FC0128F1D0A4
:104B100080214A4812F09AFC0028EBD000BF494897
:104B20000068401C474908604648006840F20E6132
:104B30008842DEDB4FF4FA6015F088FE38480068E2
:104B4000012803D140F23520FFF795FA0020FEF747
:104B5000A7FA33480068012822D146490860464830
:104B60000068F0B945480068D8B945480068C0B940
:104B700044480068A8B99FED3C1ADFED350A0520CE
:104B80009FED3A0AFEF7B9FB4FF4FA6015F05EFEAE
:104B90004FF47A712046FFF73FFF0020FEF780FABE
:104BA000A3E03548006801281ED134480068D8B910
:104BB00033480068C0B933480068A8B99FED2A1A85
:104BC000DFED230A05209FED290AFEF796FB4FF43F
:104BD000FA6015F03BFE4FF47A712046FFF71CFF98
:104BE0000020FEF75DFA80E023480068012858D1D4
:104BF00022480068012854D12148006860B9214842
:104C0000006848B99FED181ADFED110A05209FEDE5
:104C1000170AFEF772FB37E043E000000010024085
:104C2000E8000020EC000020F0000020100400202C
:104C3000D0030020D8030020B80000200004024068
:104C4000E403002094030020A00000206666663F75
:104C500000006144000000000000E144B0010020B9
:104C6000B4010020DC0300203333333F000061C473
:104C700000000240A0020020880200208C020020D8
:104C800090020020940200204FF4FA6015F0DEFD3F
:104C90004FF47A712846FFF7BFFE0020FEF700FAB6
:104CA00023E0FE48006801281FD1FD480068012864
:104CB0001BD1FC480068012817D1FB480068A0B947
:104CC0001FED171A5FED1E0A05201FED180AFEF7EB
:104CD00014FB4FF4FA6015F0B9FD4FF47A712846D1
:104CE000FFF79AFE0020FEF7DBF90020FEF7D8F967
:104CF00070BD10B5E9480068002855D1E848006843
:104D0000002851D1E748006800284DD1E6480068E6
:104D1000002849D1E549086019E006E0012015F0B6
:104D200095FDFBF79DFE00B90BE0E1490968E14AFA
:104D30001268881A002801DB014600E041420A2976
:104D4000ECDC00BFD9480068401CD8490860D7484F
:104D50000068FA28E1DBB6EE001A5FED430A052091
:104D60001FED430AFEF7C9FA0020D049086013E09E
:104D700006E0012015F06AFDFBF772FE00B905E0C0
:104D80000421CD4812F062FB0028F2D000BFC748D2
:104D90000068401CC5490860C44800689628E7DBE5
:104DA0000020FEF77DF97BE0BC480068012877D140
:104DB000C2480068002873D1BC49086019E006E0C9
:104DC000012015F043FDFBF74BFE00B90BE0B8499D
:104DD0000968B84A1268881A002801DB014600E019
:104DE00041420A29ECDC00BFB0480068401CAF49D2
:104DF0000860AE480068FA28E1DBB6EE001A5FED05
:104E00006C0A05201FED670AFEF777FA0020A74914
:104E1000086014E006E0FBF723FE00B909E001207A
:104E200015F014FD4FF48071A54812F00FFB002817
:104E3000F1D000BF9D480068401C9C4908609B4819
:104E4000006840F20E618842E4DB0020FEF728F99A
:104E5000B6EE001A5FED820A05201FED810AFEF70B
:104E60004CFA00209149086013E006E0012015F09B
:104E7000EDFCFBF7F5FD00B905E004218E4812F0CA
:104E8000E5FA0028F2D000BF88480068401C874936
:104E90000860864800689628E7DB0020FEF700F9E6
:104EA00010BD00B5FFF7D9F8FF2086490860814999
:104EB000086000BD10B579480068002865D17848C1
:104EC0000068002861D17748006800285DD17648E5
:104ED0000068002859D1F0207B4908607B480068B1
:104EE0007B4908607B48C07F40F004007949C8775F
:104EF000FFF7D7FF00206D49086019E006E00120A8
:104F000015F0A4FCFBF7ACFD00B90BE0684909689B
:104F1000684A1268881A002801DB014600E0414215
:104F20000A29ECDC00BF61480068401C5F4908604A
:104F30005E480068FA28E1DBB6EE001A5FEDBC0AB5
:104F400005201FEDBC0AFEF7D8F90020574908607C
:104F500013E006E0012015F079FCFBF781FD00B9B4
:104F600005E001215C4812F071FA0028F2D000BF80
:104F70004E480068401C4D4908604C48006896281F
:104F8000E7DB0020FEF78CF886E044480068012843
:104F9000FAD14A48006800287ED1F0204A490860CA
:104FA0004E4800684A4908604A48C07F40F01000F7
:104FB0004849C877FFF775FF00203C49086019E0B1
:104FC00006E0012015F042FCFBF74AFD00B90BE0BA
:104FD00037490968374A1268881A002801DB0146F8
:104FE00000E041420A29ECDC00BF30480068401C68
:104FF0002E4908602D480068FA28E1DBB6EE001A59
:105000005FEDED0A05201FEDE70AFEF776F90020B7
:105010002649086014E006E0012015F017FCFBF7B4
:105020001FFD00B906E04FF48071254812F00EFA1A
:105030000028F1D000BF1D480068401C1B490860D3
:105040001A4800689628E6DBB6EE001ADFED240A5F
:1050500005209FED240AFEF750F90020134908604F
:1050600013E006E0012015F0F1FBFBF7F9FC00B9B5
:1050700005E00121184812F0E9F90028F2D000BF3C
:105080000A480068401C09490860084800689628DA
:10509000E7DB0020FEF704F8134827E08802002031
:1050A0008C02002090020020940200209403002033
:1050B000BC000020E4030020001002409802002001
:1050C00000000240D80300201404002090010020BA
:1050D000F00300200400002000040240940100209E
:1050E0000000614400000000E80000200068012882
:1050F00038D1FFF72DFAB6EE001A5FED070A082047
:105100009FEDF80AFEF7F9F80020F74908601AE069
:1051100006E0FBF7A5FC00B90FE0012015F096FBB7
:105120004021F24812F092F90028F2D04FF4807139
:10513000EF4812F08BF90028EBD000BFEA48006876
:10514000401CE9490860E848006840F20E61884266
:10515000DEDB0020FDF7A4FF4FF47A7015F076FB3C
:10516000FEF7F2FF10BD10B5E2480068002874D1C8
:10517000E14800680028FAD1E04800680028F6D12C
:10518000DF4800680028F2D1C820DE490860DE4808
:105190000068DE490860FFF784FE0020D2490860FD
:1051A00019E006E0012015F051FBFBF759FC00B9AE
:1051B0000BE0D7490968D74A1268881A002801DB32
:1051C000014600E041420A29ECDC00BFC648006805
:1051D000401CC5490860C4480068FA28E1DBB6EE07
:1051E000001A5FED410A05209FEDBE0AFEF785F823
:1051F000C948C07F40F00400C749C8770020BA49B9
:10520000086014E006E0FBF72BFC00B909E0012080
:1052100015F01CFB4FF48071B54812F017F9002807
:10522000F1D000BFB0480068401CAF490860AE48EC
:10523000006840F20E618842E4DB0020FDF730FF99
:10524000B6EE001A5FED5A0A05209FEDB40AFEF78C
:1052500054F80020A449086015E01CE006E0012095
:1052600015F0F4FAFBF7FCFB00B906E04FF400611F
:105270009F4812F0EBF80028F1D000BF9A48006870
:10528000401C99490860984800689628E6DB002091
:10529000FDF706FF61E09748006801285DD1A0484E
:1052A0000068002859D1F020964908609D480068A0
:1052B000964908609848C07F40F010009649C8772A
:1052C000FFF7EFFD00208849086019E006E00120A3
:1052D00015F0BCFAFBF7C4FB00B90BE08C49096878
:1052E0008C4A1268881A002801DB014600E041421E
:1052F0000A29ECDC00BF7C480068401C7A49086041
:1053000079480068FA28E1DBB6EE001A5FED8C0AF6
:1053100005209FED820AFDF7F0FF0020724908602A
:1053200014E006E0012015F091FAFBF799FB00B9B3
:1053300006E04FF400616E4812F088F80028F1D0C2
:1053400000BF69480068401C6749086066480068FB
:105350009628E6DB0020FDF7A3FE734800680128CD
:1053600038D1FFF7F5F8B6EE001A5FEDA30A082072
:105370009FED5C0AFDF7C1FF00205B4908601AE061
:1053800006E0FBF76DFB00B90FE0012015F05EFAB7
:105390004021564812F05AF80028F2D04FF480719C
:1053A000534812F053F80028EBD000BF4E48006875
:1053B000401C4D4908604C48006840F20E6188422C
:1053C000DEDB0020FDF76CFE4FF47A7015F03EFA3C
:1053D000FEF7BAFE10BD10B54FF461714842FFF7F9
:1053E00020F940F20910FEF746FE4F4800680028F9
:1053F0003CD14E480068C0BB4D480068A8BB9FED3B
:105400004D1A5FEDC90A0A209FED360AFDF775FFB8
:105410000020354908601AE006E0FBF721FB00B9DF
:105420000FE0012015F012FA4021304812F00EF87A
:105430000028F2D04FF480712D4812F007F80028B0
:10544000EBD000BF28480068401C27490860264868
:10545000006840F20E618842DEDB0020FDF720FE8E
:105460004FF47A7015F0F2F975E0FFE72E48006806
:10547000012863D19FED301A5FEDE70A08209FED08
:10548000190AFDF73AFF0020174908601AE006E004
:10549000FBF7E6FA00B90FE0012015F0D7F940213B
:1054A000124811F0D3FF0028F2D04FF48071104859
:1054B00011F0CCFF0028EBD000BF0B480068401C67
:1054C000094908600848006840F20E618842DEDB46
:1054D0000020FDF7E5FD4FF47A7015F0B7F9FEF7FF
:1054E00033FE38E0000061C4940300200004024051
:1054F00000000240880200208C0200209002002060
:105500009402002014040020A8010020F0030020D1
:10551000BC000020E4030020040000200000E1445F
:1055200098020020AC010020E8000020EC000020E0
:10553000F0000020CDCC4C3F3333333FFD480068B2
:10554000012802D1FFF70FFE05E0FB4800680128A3
:1055500001D1FFF7AFFC10BD2DE9F05F82460D468B
:1055600014461E46DDE90B9BDDF82880F3490968E7
:10557000881B002801DB014600E0414201FB0BF7DC
:105580004F4500DD4F46ED480068801B404510DA6E
:10559000E81B00EE900AF8EEE00AB0EE600A9FED1C
:1055A000E81A00EE904AF8EEE00A5046FDF7A5FE34
:1055B00022E0E2480068801B404510DDE81900EE5B
:1055C000900AF8EEE00AB0EE600A9FEDDD1A00EEF8
:1055D000904AF8EEE00A5046FDF78FFE0CE09FED92
:1055E000D81A00EE104AF8EEC00A504600EE105AE3
:1055F000B8EEC00AFDF781FEBDE8F09F3EB59A24E3
:105600004FF461714842FFF70CF80020CD49086063
:105610001CE011E0322040F2262102222346CDE98F
:1056200000210290C84AC84914390720FFF794FFA7
:10563000FBF716FA00B903E0C44800681928E9DC52
:1056400000BFC0480068401CBE490860BD480068F3
:10565000B0F57A7FDDDB0020BA4908601CE011E07C
:10566000322040F2262102222346CDE90021029079
:10567000B54AB54914390720FFF76EFFFBF7F0F97B
:1056800000B903E0B24800689428E9DC00BFAD48E7
:105690000068401CAB490860AA480068B0F57A7FF2
:1056A000DDDB0020FDF7FCFCFEF7DEFC4FF496701E
:1056B000A8490860A84908603EBD2DE9F0410546AB
:1056C0000E460120A54908600020A54981F82B005D
:1056D000FEF7CAFCA3480068401F9E490860A24824
:1056E0000068401F9C490860002415E006E0012086
:1056F00015F0ACF8FBF7B4F900B90BE09B49096869
:10570000954A1268881A002801DB014600E04142F0
:105710000A29ECDC00BF641CFA2CE7DB0020FDF753
:10572000BFFC9FED931A00EE106AF8EEC00A0C2041
:1057300000EE105AB8EEC00AFDF7DFFD00241CE0B1
:1057400006E0012015F082F8FBF78AF900B912E0B3
:105750004FF48071874811F079FE0128F1D0402183
:10576000854811F073FE0128EBD08021824811F0AA
:105770006DFE0028E5D000BF641C40F22620844264
:10578000DEDBFCF765FE06E0052015F05FF8FBF7B1
:1057900067F900B914E0FBF799F98046FBF769F95E
:1057A000071E01DB384600E07842B8F1000F01DB4C
:1057B000414601E0C8F100010844B0F5967FE3DB03
:1057C00000BF0020FDF76CFC78206C4908606C4835
:1057D000006861490860002415E006E0052015F026
:1057E00035F8FBF73DF900B90BE0604909685A4A02
:1057F0001268881A002801DB014600E041420A29AC
:10580000ECDC00BF641C322CE7DB40F6B83015F04E
:105810001DF8B6EE001A00EE106AF8EEC00A0F206E
:1058200000EE105AB8EEC00AFDF767FD40F2A46022
:1058300015F00CF8002416E006E0012015F006F83B
:10584000FBF70EF900B90CE001214B4811F0FEFD09
:105850000128F2D04FF40061464811F0F7FD01280D
:10586000EBD000BF641C40F21A408442E4DB962077
:1058700042490860424800681E3037490860B6EE69
:10588000001A00EE106AF8EEC00A0F2000EE105A5F
:10589000B8EEC00AFDF731FD00240FE006E002205B
:1058A00014F0D4FFFBF7DCF800B905E0012135481E
:1058B00011F0CCFD0128F2D000BF641C40F226207C
:1058C0008442EBDB002410E006E0012014F0BEFF70
:1058D000FBF7C6F800B906E04FF40051294811F073
:1058E000B5FD0128F1D000BF641CB4F57A7FEBDB75
:1058F00025480068012802D1FEF72AFE0CE00D4879
:105900000068012802D1FEF7B5FD05E00A480068ED
:10591000012801D1FEF7FAFC0020FDF7C1FBFA20B7
:105920001A4908601A480068C01C0A490860002427
:1059300046E00000EC000020F0000020A000002065
:105940009A99993E9403002090FCFFFF9C00002050
:10595000AC000020D8030020E40300206C040020E9
:1059600004000020D4030020E0030020BC0000203D
:10597000CDCC4C3E00000240000402400C0400204C
:10598000DC03002000100240E8000020100400208A
:10599000D003002006E0012014F058FFFBF760F868
:1059A00000B90BE0FA490968FA4A1268881A002817
:1059B00001DB014600E041420A29ECDC00BF641C27
:1059C000FA2CE7DB40F6B83014F040FF1FED181A50
:1059D00000EE106AF8EEC00A142000EE105AB8EE7D
:1059E000C00AFDF78AFC00240FE006E0012014F055
:1059F0002DFFFBF735F800B905E00121E64811F06D
:105A000025FD0128F2D000BF641CFA2CEDDBFCF769
:105A10001FFD06E0052014F019FFFBF721F800B97F
:105A200014E0FBF753F88046FBF723F8071E01DB71
:105A3000384600E07842B8F1000F01DB414601E052
:105A4000C8F100010844B0F5C87FE3DB00BFFEF7F2
:105A50000BFB40F20B10CF490860001FCF490860D4
:105A60001FED3D1A00EE106AF8EEC00A0C2000EEA1
:105A7000105AB8EEC00AFDF740FC00240FE006E023
:105A8000012014F0E3FEFAF7EBFF00B905E0102166
:105A9000C34811F0DBFC0128F2D000BF641C642C69
:105AA000EDDB0020BF490860FDF7FAFABDE8F081A0
:105AB00010B54FF461714842FFF7FFFD40F2091045
:105AC000FEF7D9FA0020B849086019E006E0012085
:105AD00014F0BCFEFAF7C4FF00B90BE0B349096843
