:020000040800F2
:1000000050EF0020214C020845020008470200087A
:100010004B0200084F0200085302000800000000D5
:100020000000000000000000000000009D0100082A
:100030005702000800000000E10100083B7C0208B4
:100040003B4C02083B4C02083B4C02083B4C02086C
:100050003B4C02083B4C02083B4C02083B4C02085C
:10006000BD040008010500083B4C02082D030008F0
:100070000F0300086F0300083B4C020875020008DC
:100080003B4C0208810200083B4C02083B4C020832
:100090003B4C02083B4C02083B4C02083B4C02081C
:1000A0003B4C0208D9030008050400083B4C020839
:1000B0000704000835040008610400083B4C0208EE
:1000C0003B4C02083B4C02083B4C0208B9040008B8
:1000D0003B4C02085D0200083B4C02083B4C020806
:1000E0003B4C02083B4C02083B4C02083B4C0208CC
:1000F0003B4C02083B4C02083B4C02084B030008F7
:100100003B4C02083B4C02088D040008BB0400086D
:100110003B4C02083B4C0208AB030008B703000845
:100120003B4C02089B020008CF0200083B4C02082F
:100130003B4C02083B4C02083B4C02083B4C02087B
:100140003B4C02083B4C02083B4C02083B4C02086B
:10015000010300083B4C02083B4C02083B4C0208E0
:100160003B4C02083B4C02083B4C02083B4C02084B
:100170003B4C02083B4C02083B4C02083B4C02083B
:100180003B4C02083B4C0208DFF80CD029F012F877
:1001900000480047C149020850EF0020234B19686E
:1001A0000868B0E8F04F80F309884FF0000080F352
:1001B000118870470000000003480068006880F361
:1001C000088862B600DF00BF08ED00E0DFF80C0031
:1001D000016841F470010160704700BF88ED00E0E4
:1001E000EFF30980114B1A681EF0100F08BF20EDC5
:1001F000108A20E9F04F106008B54FF0140080F32A
:10020000118828F0E2F84FF0000080F31188BDE873
:10021000084019680868B0E8F04F1EF0100F08BFDA
:10022000B0EC108A80F30988704700BF1C060020DC
:10023000EFF311804FF0140181F31188704780F3C0
:1002400011887047704700BFFEE700BFFEE700BFA0
:10025000FEE700BFFEE770477047704710B540F2F9
:100260002551A84826F0FDFD18B12021A54826F00B
:10027000EFFD10BD10B5A449A44825F027FD10BD21
:1002800010B5A349A148303025F0F6FC20B1A049B3
:100290009E48303025F01AFD10BD10B59D499E488E
:1002A00025F0EAFC90B19B499B4825F00FFD02F038
:1002B0005EF900219548303825F034FC0821964835
:1002C00025F051FC0121944825F02CFC10BD10B5FF
:1002D00092499148183025F0F9FC914840789049AE
:1002E000097840EA012000B28E4908808C484079A4
:1002F0008B49097940EA012000B28B49088010BD82
:1003000010B58A498448603025F0E0FC10BD10B576
:1003100080497E48483825F0AFFC30B17D497B48A4
:10032000483825F0D3FC00F0BCFA10BD10B5804968
:100330007648603825F0A0FC30B17D4973486038BC
:1003400025F0C4FC02F013F910BD10B579496F48CF
:10035000483025F091FC48B100216C48483025F028
:10036000E1FB74496948483025F0B0FC10BD10B578
:100370006A496648303825F07FFCA8B16749634870
:10038000303825F0A3FC01F0D5FD00215F4830385E
:1003900025F0C8FB08215D48303825F0E4FB012139
:1003A0005A48303825F0BEFB10BD10B50121624817
:1003B00026F0B4FA10BD10B50121604826F0AEFA5F
:1003C0007A205049888001215D4826F059FC01219E
:1003D0005C4826F055FC10BD10B501215A4826F0A6
:1003E0009DFA5948008800F0100028B1574800686D
:1003F000401E5649086004E054480068401C5349B8
:10040000086010BD704710B50121880726F086FAF4
:100410004FF08040008800F0100028B14C48006880
:10042000401E4B49086004E049480068401C4849A8
:10043000086010BD10B50121464826F06FFA454806
:10044000008800F0100028B143480068401E42496F
:10045000086004E040480068401C3F49086010BD47
:1004600010B501213D4826F059FA3C48008800F0BB
:10047000100028B13A480068401E3949086004E07D
:1004800037480068401C3649086010BD10B501218E
:10049000344826F043FA3348008800F0100028B1B1
:1004A00031480068401E3049086004E02E4800686A
:1004B000401C2D49086010BD7047704710B50420DE
:1004C00025F09CFCD8B12021284824F020FD0421EF
:1004D000274824F0F7FC012804D10021174825F013
:1004E0009DFD09E00421224824F0ECFC20B91348CA
:1004F00025F098FD1F49086004201F49086010BDC1
:100500007047000000100140208000207060024011
:100510000080202000880010286402400080201005
:10052000DA0800208C0000208E00002000880020C7
:1005300020800010008000280010004000140040BF
:100540000048004000140140000001406C00002001
:1005500070000020000400407400002000080040EB
:1005600088000020000C00407800002000000240BD
:10057000000C024068000020143C014070B50446A5
:10058000204628F00BFB05462146F94828F00DFBD4
:10059000A8B140F22B122146F54828F0F3FA0021C9
:1005A000F44825F0BFFAF248F2490C310860F148EE
:1005B000B838C0F8BC500121EE4825F0B3FA70BD40
:1005C00070B50446002510E0605D68B1615DEA48E1
:1005D00026F081FB00BF8021E74826F02CFC002894
:1005E000F9D0681CC5B200E070BDEDE770B50446F7
:1005F00000250FE05CB12146DF4826F06CFB00BF10
:100600008021DD4826F017FC0028F9D000E070BDFD
:10061000681CC5B2032DEDDB00BFF8E713B50C462F
:100620000020FFF7E3FFD5A0FFF7CAFF2346D4A2BF
:100630009621D44828F0FCFDD248FFF7C1FFD2A094
:10064000FFF7BEFFCEA29621CE48009B28F0F0FD1A
:10065000CC48FFF7B5FFCEA0FFF7B2FFFF20FFF7B2
:10066000C5FFFF20FFF7C2FFFF20FFF7BFFF1CBD44
:1006700070B505460C46C1A0FFF7A2FF2246C0A1F7
:10068000C04828F0EDFDBF48FFF79AFFBEA0FFF776
:1006900097FF2846FFF794FFBDA0FFF791FFFF20CB
:1006A000FFF7A4FF70BD77B585B00546FF26B6A15C
:1006B00003C9CDE90301B6A000680290AFA00068AD
:1006C000019000240AE00020B2490855B2490855BB
:1006D000AC490855A6490855601CC4B21E2CF2DB73
:1006E0000A20A8490870FF2048708870C870A4A12B
:1006F000A948079A28F0B4FDA74901A828F036FABE
:1007000001A9A04828F032FA03A99E4828F02EFA41
:1007100029469C4828F02AFA99A19F48069A28F071
:100720009FFD9D49974828F021FA02A9954828F095
:100730001DFAFF209749087048708870914828F08A
:1007400015FA9048FFF71AFF08B070BDF7B584B0EE
:1007500005460E46FF278CA103C9CDE902018CA0F6
:100760000068019085A000680090002408E0002047
:10077000884908558849085582490855601CC4B203
:100780000A2CF4DB0A207F490870FF20487088702B
:10079000C8707BA18048069A28F062FD7E496846B1
:1007A00028F0E4F96946774828F0E0F902A975488D
:1007B00028F0DCF92946734828F0D8F93146714809
:1007C00028F0D4F901A96F4828F0D0F9FF20714929
:1007D0000870487088700020C8700871694828F057
:1007E000C5F96848FFF7CAFE07B0F0BD01B58EB085
:1007F0006AA2322101A80E9B28F01AFD01A8FFF77A
:10080000BDFE0FB000BD73B584B00546FF265EA1E6
:1008100003C9CDE902015EA00068019057A00068FD
:10082000009000240AE000205A4908555A4908550A
:10083000544908554E490855601CC4B21E2CF2DBC1
:100840000A2050490870FF2048708870C8704CA179
:100850005148059A28F004FD4F49684628F086F96A
:100860006946484828F082F902A9464828F07EF9EE
:100870002946444828F07AF94749424828F076F951
:1008800001A9404828F072F9FF20424908704870D9
:1008900088703C4828F06AF93A48FFF76FFE06B0C6
:1008A00070BD10B52DED0C8B82B03F4800783E49ED
:1008B000497808443C49897808443B49C978084448
:1008C00039490979084438494979084436498979C8
:1008D00008443549C97908443349097A0844C0B203
:1008E00001903148007A00F00F0000909FED2F0A30
:1008F000B0EE40DA2C48407A0199884272D12A48F9
:10090000007A00F00F000D286CD127488078C0F1E4
:100910007F0000EE100AB8EEC08A2348C078813804
:1009200000EE100AF8EEC08AB5EEC08AF1EE10FAB9
:1009300003D1B7EE000AB0EE408AF5EEC08AF1EEC0
:1009400010FA03D1B7EE000AF0EE408ABDEEC80AF5
:1009500010EE102A002A01DB134600E05342BDEEE0
:10096000E80A10EE100A002822DB044621E000000D
:1009700092070020B8600240005000407400000060
:10098000256400005C0600202E7478743D2200006F
:1009900022000000420700201A0700206A302E764D
:1009A000616C3D25640000001B090020DB0F4940FD
:1009B0004442191901EBD1735B10FE4C2360BDEE6C
:1009C000E80A10EE101A002901DB0A4600E04A424C
:1009D000322A0FDABDEEC80A10EE100A002802DB38
:1009E000024601E02FE04242322A03DA0020F249B7
:1009F000086030E018EE900A28F09DFA41EC1B0BDD
:100A000018EE100A28F097FA41EC1C0BB0EE4B1AC6
:100A1000F0EE6B1AB0EE4C0AF0EE6C0A28F0CCFD4A
:100A2000B0EE40AAF0EE60AA9FEDE40B53EC102B61
:100A300051EC1A0B28F06EF941EC190B28F05CFA16
:100A4000DD49086007E09DF800000D2803D0002173
:100A5000DC4826F015F902B0BDEC0C8B10BDDA486D
:100A6000007A00F00F000D2806D1D748007800F07A
:100A7000010008B10D2070470020FCE7D248007843
:100A800000F0100008B1002070470120FCE71CB501
:100A90004FF0804025F0C6FACC49096840EA014091
:100AA0000C2190FBF1F00090002418E04FF0804002
:100AB00025F0B8FAC549096840EA01400C2190FBCD
:100AC000F1F00190DDE90021881A002801DB0146E0
:100AD00000E04142052900DA641C01980090022CD4
:100AE000E4DB019840421CBD1CB5B94825F09AFAD8
:100AF000B849096840EA01400C2190FBF1F00090F0
:100B0000002417E0B24825F08DFAB249096840EA9E
:100B100001400C2190FBF1F00190DDE90021881AE1
:100B2000002801DB014600E04142052900DA641C8F
:100B300001980090022CE5DB01981CBD1CB5A6486D
:100B400025F070FAA549096840EA01400C2190FBA4
:100B5000F1F00090002417E09F4825F063FA9F49C8
:100B6000096840EA01400C2190FBF1F00190DDE9B9
:100B70000021881A002801DB014600E041420529D6
:100B800000DA641C01980090022CE5DB01981CBD82
:100B90001CB5934825F046FA9249096840EA01409D
:100BA0000C2190FBF1F00090002417E08C4825F018
:100BB00039FA8C49096840EA01400C2190FBF1F0B8
:100BC0000190DDE90021881A002801DB014600E0E0
:100BD0004142052900DA641C01980090022CE5DBF3
:100BE00001981CBD01B581B000200090019800EB78
:100BF000C0004000009002E00098401E0090009865
:100C00000028F9D10CBD01B581B00020009044F25C
:100C1000506101984843009002E00098401E009007
:100C200000980028F9D10CBD1CB501211F2024F02B
:100C30002DFB4FF6FF70009001208DF8040000207E
:100C40008DF8060001208DF8070003208DF80500BF
:100C50006946654824F0D4F84FF6FF7000900120F3
:100C60008DF8040000208DF8060001208DF80700A3
:100C700003208DF8050069465C4824F0C1F84FF662
:100C8000FF70009001208DF8040000208DF8060010
:100C900001208DF8070003208DF8050069465448AF
:100CA00024F0AEF81CBD1CB501217E2024F0EEFA24
:100CB0004FF4CE50009000208DF8040001208DF8F4
:100CC000070002208DF8050069464A4824F098F88C
:100CD0004FF6C740009000208DF8040001208DF8E9
:100CE000070002208DF8050069463F4824F088F887
:100CF0004FF47170009000208DF8040001208DF8F1
:100D0000070002208DF805006946384824F078F87D
:100D10004CF60340009000208DF8040001208DF86F
:100D2000070002208DF805006946314824F068F874
:100D30004FF42660009000208DF8040001208DF80B
:100D4000070002208DF8050069462B4824F058F86A
:100D50001CBD1FB54FF4E06023F074FF36208DF802
:100D6000000000208DF801008DF8020001208DF8B0
:100D70000300684623F06BFF0121102024F0B9FA2C
:100D80003220ADF8040040F2E73002900020ADF8C8
:100D90000C00ADF8060001A9184825F0F6F801216D
:100DA000164825F0BBFD01221146144825F08EFDA2
:100DB000002125E0CC000020C800002000000080B9
:100DC000A9E78140004800401B0900207000002076
:100DD000000400407400002000080040880000204B
:100DE000000C00407800002000040240000802408F
:100DF000000C0240000002400010024000100040C1
:100E0000FE4825F00BF90121FC4825F047F91FBDEC
:100E10001FB54FF4E06023F015FF37208DF8000078
:100E200000208DF801008DF8020001208DF80300EC
:100E3000684623F00CFF0121202024F05AFA3220CA
:100E4000ADF8040040F2E73002900020ADF80C004D
:100E5000ADF8060001A9EA4825F097F80121E84815
:100E600025F05CFD01221146E54825F02FFD00210B
:100E7000E34825F0D3F80121E14825F00FF91FBD23
:100E800000B58BB00121022024F044FA01210C208E
:100E900024F0FCF903220621DA4824F03CF803226E
:100EA0000721D84824F037F803220821D54824F038
:100EB00032F803220921D34824F02DF84FF4707042
:100EC000069002208DF81C0003208DF81D000020E4
:100ED0008DF81E0001208DF81F0006A9C94823F0D7
:100EE0008FFFA420ADF8200040F6B83009904FF4F1
:100EF0008070ADF828000020ADF8220008A9C24893
:100F000025F043F86020ADF804000120ADF806009C
:100F100000200390ADF810000121BB4825F0BEF879
:100F20000021B94825F07AF801A9B74825F0C2F8A0
:100F300001A9B54825F0F7F801A9B34825F040F913
:100F400001A9B14825F0A2F90121AF4825F097FC8D
:100F50000BB000BD00B58BB00121082024F0C9F909
:100F60000121084624F092F902220021A74823F02B
:100F7000D2FF02220121A54823F0CDFF0222114613
:100F8000A24823F0C8FF02220321A04823F0C3FF98
:100F90000F20069002208DF81C0003208DF81D0004
:100FA00000208DF81E0001208DF81F0006A997482B
:100FB00023F026FFBA20ADF8200042F2107009900D
:100FC0000020ADF82800ADF8220008A9904824F0D0
:100FD000DCFF6020ADF804000120ADF80600002021
:100FE0000390ADF810000121894825F057F8002141
:100FF000874825F013F801A9854825F05BF801A979
:10100000834825F090F801A9814825F0D9F801A975
:101010007F4825F03BF901217D4825F030FC0BB0DD
:1010200000BD00B58BB00121042024F062F901213C
:101030000D2024F02BF902220C21764823F06BFFBF
:1010400002220D21734823F066FF02220E2171480F
:1010500023F061FF02220F216E4823F05CFF4FF462
:101060007040069002208DF81C0003208DF81D00B2
:1010700000208DF81E0001208DF81F0006A965488C
:1010800023F0BEFEA420ADF8200040F6B830099051
:101090004FF48070ADF828000020ADF8220008A9B8
:1010A0005D4824F072FF6020ADF804000120ADF827
:1010B000060000200390ADF810000121564824F0EE
:1010C000EDFF0021544824F0A9FF01A9524824F063
:1010D000F1FF01A9504825F026F801A94E4825F056
:1010E0006FF801A94C4825F0D1F80BB000BD00B550
:1010F00089B00121080424F00DF90121084624F0EB
:10110000C5F803221146414823F005FF03220221BE
:101110003E4823F000FF0C20019002208DF80800CB
:1011200003208DF8090000208DF80A0001208DF8B9
:101130000B0001A9354823F063FE0020ADF818002C
:101140004FF6FF7007900020ADF82000ADF81A00B0
:1011500006A9324824F019FF0420ADF80C00002045
:10116000ADF80E00C820ADF814000120ADF8100055
:1011700003A92A4825F0E0FA00231A46032128484B
:1011800025F077FC0121264825F0C8FB01221146F5
:10119000234825F09BFB0121204824F07FFF0021FC
:1011A0001F4824F03BFF09B000BD00B589B0012104
:1011B000084624F09EF80121022024F09AF801212B
:1011C000032024F063F801220F21104823F0A3FE2E
:1011D00001220321134823F09EFE0222042111481C
:1011E00023F099FE022205210E4823F094FE3820B8
:1011F000019002208DF80800032015E00010004047
:1012000000140040000802400004014000000240B9
:10121000000C0040000C02400008004000000140AB
:1012200000400140000402408DF8090000208DF8C4
:101230000A0001208DF80B0001A9FE4823F0E0FD13
:101240004FF40040019002208DF8080003208DF833
:10125000090000208DF80A0001208DF80B0001A97B
:10126000F54823F0CDFD0020ADF818004FF6FF70D3
:1012700007900020ADF82000ADF81A0006A94FF045
:10128000804024F082FE06A9EC4824F07EFE042073
:10129000ADF80C000220ADF80E001420ADF81400DB
:1012A0000120ADF8100003A9800725F045FA03A935
:1012B000E24825F041FA02231A460321580725F097
:1012C000D8FB02231A460321DC4825F0D2FB01217A
:1012D000880725F023FB0121D84825F01FFB0122B8
:1012E0001146900725F0F2FA01221146D34825F065
:1012F000EDFA0121880724F0D1FE0121CF4824F026
:10130000CDFE00214FF0804024F088FE0021CB4824
:1013100024F084FE4FF4C06023F094FC1D208DF86F
:10132000000003208DF8010000208DF8020001204C
:101330008DF80300684623F08AFC1C208DF800001D
:1013400004208DF8010000208DF8020001208DF8A6
:101350000300684623F07BFC09B000BD00B589B0EE
:101360000121084623F0D6FF0121102023F08EFF33
:101370004FF42060019002208DF8080003208DF8C2
:10138000090000208DF80A0001208DF80B0001A94A
:10139000AB4823F035FD01220921A94823F0BBFD0C
:1013A00001220B21A64823F0B6FD0020ADF818005D
:1013B0004FF6FF7007900020ADF82000ADF81A003E
:1013C00006A9A04824F0E1FD0420ADF80C0000209F
:1013D000ADF80E000A20ADF814000120ADF81000A1
:1013E00003A9984825F0A8F900231A460321954837
:1013F00025F03FFB0121934825F090FA0122114688
:10140000904825F063FA01218E4825F087FA0122E1
:1014100011468C4825F05AFA01218A4824F03EFEF4
:101420000021884824F0FAFD4FF4C06023F00AFC44
:1014300019208DF8000001208DF8010000208DF8A2
:10144000020001208DF80300684623F000FC09B07B
:1014500000BD00B589B00121042023F04AFF01211D
:10146000082023F013FF4FF44050019002208DF824
:10147000080003208DF8090000208DF80A000120E3
:101480008DF80B0001A9704823F0BAFC0020ADF8DC
:1014900018004FF6FF7007900020ADF82000ADF85F
:1014A0001A0006A9694824F070FD02220C21664842
:1014B00023F031FD02220D21634823F02CFD04208E
:1014C000ADF80C000220ADF80E00C820ADF81400F5
:1014D0000120ADF8100003A95C4825F02DF9022386
:1014E0001A460321594825F0C4FA0121574825F02E
:1014F00015FA01221146554825F0E8F90121534813
:1015000024F0CCFD0021514824F088FD00204F49F3
:101510001431088001204D4908804FF4C06023F049
:1015200091FB1E208DF8000004208DF801000020A2
:101530008DF8020001208DF80300684623F087FB38
:1015400009B000BD00B589B00121082023F0D1FE0B
:101550000121084623F09AFE0320019002208DF815
:10156000080003208DF8090000208DF80A000120F2
:101570008DF80B0001A9304823F042FC0020ADF8A3
:1015800018004FF6FF7007900020ADF82000ADF86E
:101590001A0006A92E4824F0F8FC02220021264851
:1015A00023F0B9FC02220121234823F0B4FC0420DB
:1015B000ADF80C000220ADF80E00C820ADF8140004
:1015C0000120ADF8100003A9214825F0B5F8022349
:1015D0001A4603211E4825F04CFA01211C4825F02B
:1015E0009DF9012211461A4825F070F90121184889
:1015F00024F054FD0021164824F010FD0020144969
:10160000143108800120124908804FF4C06023F093
:1016100019FB32208DF8000004208DF80100002015
:101620008DF8020001208DF80300684623F00FFBBF
:1016300009B000BD00040240000002400004004068
:101640000010024000000140000C02400008004071
:10165000000C004000B59BB00121FE4823F016FEAF
:101660000121080223F056FE00200290FA48039060
:10167000FA480490002005900E2006900020079064
:101680004FF4806008904000099080000A9040115B
:101690000B9040020C9000200D9001200E90002035
:1016A0000F90109002A9EE4824F002FA0121EC48B4
:1016B00024F038FAFC20009003208DF8040000206C
:1016C0008DF807006946E74823F09AFB4FF4407015
:1016D000009003208DF8040000208DF80700694673
:1016E000E14823F08DFB3F20009003208DF804009B
:1016F00000208DF807006946DC4823F081FB0020BC
:1017000011904FF44030129000201390149011A8C3
:1017100023F034FF4FF08070159001208DF85800B1
:101720008DF8590000201790189019900E208DF810
:10173000680015A9C8484C3823F0F1FE07230122A0
:101740000221C5484C3823F070FF072302220321F1
:10175000C1484C3823F069FF072303220421BE4807
:101760004C3823F062FF072304220521BA484C3885
:1017700023F05BFF072305220621B7484C3823F0EE
:1017800054FF072306221946B3484C3823F04DFF77
:1017900007231A460821B0484C3823F046FF072398
:1017A00008220921AC484C3823F03FFF07230922C7
:1017B0000A21A9484C3823F038FF07230A220B21BD
:1017C000A5484C3823F031FF07230B220C21A248F7
:1017D0004C3823F02AFF07230C220D219E484C3859
:1017E00023F023FF07230D220E219B484C3823F0C2
:1017F0001CFF07230E220F2197484C3823F015FFBA
:10180000012195484C3823F0BBFF012192484C3808
:1018100023F0ABFF012190484C3823F0C6FE8E48E0
:101820004C3823F05EFF1BB000BD08B54FF4E060FC
:1018300023F008FA25208DF8000000208DF8010023
:101840008DF8020001208DF80300684623F0FFF9AF
:1018500008BD10B596B004460121102023F05AFDB2
:101860000121084623F012FD0121880523F00EFD19
:101870004FF4C060009002208DF8040000208DF825
:1018800006008DF8070002208DF8050069467548AE
:1018900023F0B6FA07220921724823F03CFB072205
:1018A0000A21704823F037FB02940020ADF80C00A9
:1018B000ADF80E00ADF81000ADF814000C20ADF836
:1018C000120002A96A4825F053F90121684825F061
:1018D000D7F94FF4A06023F0B5F93A208DF818003D
:1018E00000208DF819008DF81A0001208DF81B00DA
:1018F00006A823F0ACF95A48303024F037F84FF0FE
:101900000060079000200A905A4809900A200B9026
:101910005748001D089000200C904FF480600D90F7
:1019200000200E900F904FF48070109040021190A4
:10193000042012900320139000201490159007A902
:101940004748303024F0B4F801224021484825F0BF
:1019500044FA012210214248303024F070F901216C
:101960003F48303024F0DEF816B010BD10B596B008
:1019700004460121480523F089FC0121480423F095
:10198000B8FC0121082023F081FC60200090022097
:101990008DF8040000208DF806008DF80700022065
:1019A0008DF805006946344823F02AFA07220521FC
:1019B000314823F0B0FA072206212F4823F0ABFA72
:1019C00002940020ADF80C00ADF80E00ADF8100048
:1019D000ADF814000C20ADF8120002A9274825F03C
:1019E000C7F80121254825F04BF94FF4A06023F0FA
:1019F00029F911208DF8180000208DF819008DF8B4
:101A00001A0001208DF81B0006A823F020F91C48BD
:101A100023F0ACFF4FF00060079040200A90194877
:101A2000099050200B901548001D089000200C9044
:101A30004FF480600D9000200E900F904FF4807056
:101A40001090400211900420129003201390002067
:101A5000149019E0070040004C200140BE0800200F
:101A600010640240000002400004024000080240EE
:101A700000100140DA080020000C02400044004041
:101A8000A060024004000020159007A9FE4824F041
:101A90000FF801228021FD4825F09FF901228021C5
:101AA000FA4825F09AF901221021F74824F0C7F8E6
:101AB0000121F54824F036F816B010BD10B596B0E7
:101AC00004460121880423F014FC0121082023F09E
:101AD000DDFB0121480523F0D9FB4FF44070009055
:101AE00002208DF8040000208DF806008DF8070014
:101AF00002208DF805006946E54823F081F90722A8
:101B00000821E34823F007FA07220921E04823F0DF
:101B100002FA02940020ADF80C00ADF80E00ADF80A
:101B20001000ADF814000C20ADF8120002A9D9483D
:101B300025F01EF80121D74825F0A2F84FF4A06047
:101B400023F080F80C208DF8180000208DF8190083
:101B50008DF81A0001208DF81B0006A823F077F8F5
:101B6000C948783823F002FF4FF00060079000204A
:101B70000A90C94809900A200B90C648001D089099
:101B800000200C904FF480600D9000200E900F907C
:101B90004FF48070109040021190042012900320A6
:101BA000139000201490159007A9B748783823F0B7
:101BB0007FFF01224021B74825F00FF90122402183
:101BC000B44825F00AF901221021AF48783824F0F2
:101BD00036F80121AC48783823F0A4FF16B010BDC8
:101BE00010B596B004460121C80423F082FB012100
:101BF000042023F04BFB0121480523F047FB4FF461
:101C00004060009002208DF8040000208DF806004E
:101C10008DF8070002208DF8050069469F4823F0E3
:101C2000EFF808220A219D4823F075F908220B21BC
:101C30009A4823F070F902940020ADF80C00ADF83A
:101C40000E00ADF81000ADF814000C20ADF8120035
:101C500002A9934824F08CFF0121914825F010F847
:101C60004FF4A06022F0EEFF0D208DF81800032045
:101C70008DF8190001208DF81A008DF81B0006A8B8
:101C800022F0E5FF8048603823F070FE4FF00060DE
:101C9000079000200A908348099008200B90804804
:101CA000001D089000200C904FF480600D900020E3
:101CB0000E900F9010904FF4003011900020129071
:101CC0000320139000201490159007A96E486038E7
:101CD00023F0EEFE01224021714825F07EF801221A
:101CE00080216F4825F079F801221021664860387C
:101CF00023F0A5FF01216448603823F013FF16B0DC
:101D000010BD70B5684C2468642C00DB70BD674C56
:101D1000248804EB8404664D2C446070634C248852
:101D200004EB84042C44A170604C248804EB8404EC
:101D30002C44E2705D4C248804EB84042C44237111
:101D40005A4C2488641C642594FBF5F605FB164464
:101D5000564D2C80544C2468641C534D2C6000BF9D
:101D6000D4E701465048006808B900207047514840
:101D7000008800EB80004E4A104402680A60007937
:101D800008710120F2E701464748006808B90020C1
:101D900070474848008800EB8000454A10440268BC
:101DA0000A600079087143480088401C642290FB57
:101DB000F2F302FB13003F4A10803B480068401ECC
:101DC000394A10600120E3E70CB56846FFF7DBFFF6
:101DD0000020394908700CBD0346012B03DB062B9C
:101DE00001DC18467047012903DB062901DC08469F
:101DF000F8E7012A03DB062A01DC1046F2E700209F
:101E0000F0E710B58C202D4908604FF496702C49EE
:101E100008608C202B4908604FF4FA702A4908604A
:101E200000BF2A4909682A4A1268881A002801DB7B
:101E3000014600E04142822905DB2648C07F40F090
:101E400004002449C87700BF4FF47A7026F03AFAAC
:101E500000BF1E4909681E4A1268881A002801DB63
:101E6000014600E04142822905DB1A48C07F40F06C
:101E700008001849C87700BF4FF47A7026F022FA9C
:101E800000BF1249096827E0A060024000440040FA
:101E9000000C0240004800401B09002000080240DE
:101EA000004C0040DB020020F8020020FC02002071
:101EB0002A090020FE02002001030020C0040020A7
:101EC000A4040020C4040020B0040020C0000020AE
:101ED000C400002004000020FE4A1268881A00286E
:101EE00001DB014600E04142822905DBFA48C07F60
:101EF00040F04000F849C87700BF4FF47A7026F0F0
:101F0000E1F900BFF5490968F24A1268881A002809
:101F100001DB014600E04142822905DBEE48C07F3B
:101F200040F01000EC49C87700BF4FF47A7026F0FB
:101F3000C9F910BD10B5EA480078E9494978084464
:101F4000E74989780844E649C9780844E4490979A9
:101F50000844E34949790844C4B2E14800780228BA
:101F600000D010BDDE48C079032800D0F9E7DC4876
:101F70008079A0427DD1DA484078DA490870D848A3
:101F80008078D9490870D648C078D8490870D448B4
:101F90000079D7490870D2484079D6490870D148AD
:101FA0000078012808D1D0480078022804D10846DA
:101FB0000078D149086028E1CA480078022807D192
:101FC000C9480078012803D10020CC4908601CE1F1
:101FD000C448007802280AD1C34800780A2806D1EC
:101FE000C2480078012802D1C54908600DE1BD480A
:101FF000007802280AD1BC4800780A2806D1BB48DC
:102000000078022802D1BE490860FEE0B548007899
:1020100002280AD1B4480078092806D1B3480078CC
:10202000012802D1B7490860EFE0AE4800780228E5
:102030000AD1AD480078092806D1AC4800780228BA
:1020400002D1B0490860E0E0A6480078022856D1E5
:10205000A5480078022852D1A6480378A4480278FF
:10206000A2480178A0480078FFF74BFE9A48C07F4D
:1020700000E0C1E040F002009749C8779B48007833
:1020800080B99B480078012807D099480078022839
:1020900003D097480078032804D19B480068401C6F
:1020A000994908609148007804280BD1904800783D
:1020B000052807D10120954908608E480078944989
:1020C00008600CE089480078042808D18848007826
:1020D000062804D100208D4908608E490860834895
:1020E0000078052891D182480078052806D1012082
:1020F000884908607F4800788549086085E079480C
:10210000007802281BD178480078032817D1794835
:1021100002787748017875480078FFF75DFE7E49C0
:1021200008606D48C07F40F002006B49C8777A486C
:102130000068002869D001207849086065E0694896
:102140000078022823D16848007804281FD1674806
:10215000007801280BD166480078012807D1704922
:1021600008605D48C07F40F002005B49C8775F4867
:1021700000786C4908605E4800786B4908605D48EB
:1021800000786A4908600120654908603DE05548CB
:102190000078022821D15448007805281DD15348E1
:1021A0000078012809D152480078012805D151480A
:1021B0000078012801D15E4908604C480078022867
:1021C00023D14B48007802281FD14A48007857494C
:1021D000086001205749086017E04248007803284A
:1021E00013D14148007803280FD1404800780328D4
:1021F0000BD1FFF706FE08E0FF203B4908703B4982
:1022000008703B4908703B49087000BFA9E63E488A
:102210000068022803D101204749086002E000203D
:1022200045490860704710B596B00446012148053D
:1022300023F02CF80121080523F05BF801210C2084
:1022400023F024F80420009002208DF804000020E0
:102250008DF806008DF8070002208DF8050069460C
:10226000364822F0CDFD4FF48050009002208DF8CA
:10227000040000208DF806008DF8070002208DF87C
:10228000050069462E4822F0BBFD082202212B489A
:1022900022F041FE08220C21294822F03CFE4FF496
:1022A000A06022F0CFFC2F208DF8180005208DF8BB
:1022B00019008DF81A0001208DF81B0006A822F0E5
:1022C000C6FC0B208DF8180005208DF819008DF83C
:1022D0001A0037E0C400002004000020C0000020E5
:1022E000DB020020E3020020E4020020E5020020DF
:1022F000E6020020E7020020140300201C03002057
:10230000380300204003002048030020040300207D
:10231000100300200C0300202003002044030020B1
:102320003C03002024030020280300202C0300206D
:1023300030030020340300205C020020000C024027
:102340000008024001208DF81B0006A822F07FFC47
:1023500002940020ADF80C00ADF80E00ADF81000AE
:10236000ADF814000C20ADF8120002A9FC4824F0CE
:10237000FFFB0121FA4824F083FCFA4823F0F6FA27
:102380004FF00060079040200A90F74809900A201B
:102390000B90F348001D089000200C904FF48060D3
:1023A0000D9000200E900F9010904FF4003011907F
:1023B000002012900320139000201490159007A97C
:1023C000E84823F075FBE748A83823F0CFFA4FF030
:1023D0000060079000200A90E448099005200B90C7
:1023E000DF48001D089000200C904FF480600D9095
:1023F00000200E900F9010904FF4003011900020AC
:1024000012900320139000201490159007A9D5482E
:10241000A83823F04DFB01228021D14824F0DDFCB7
:1024200001224021CE4824F0D8FC01221021CD48C1
:1024300023F005FC01221021CA48A83823F0FFFB35
:102440000121C84823F06EFB0121C648A83823F0BB
:1024500069FB16B010BD10B596B0044601212020CE
:1024600022F058FF0121042022F010FF01218805ED
:1024700022F00CFFC020009002208DF80400002004
:102480008DF806008DF8070002208DF805006946DA
:10249000B74822F0B5FC08220621B54822F03BFDE2
:1024A00008220721B24822F036FD02940020ADF840
:1024B0000C00ADF80E00ADF81000ADF814000C20C3
:1024C000ADF8120002A9AB4824F052FB0121A94843
:1024D00024F0D6FB4FF4A06022F0B4FB39208DF835
:1024E000180003208DF8190001208DF81A008DF8CE
:1024F0001B0006A822F0ABFB9F4823F037FA4FF0F1
:102500002060079000200A909C48099008200B90BA
:102510009848001D089000200C904FF480600D90AA
:1025200000200E900F9010904FF40030119000207A
:1025300012900320139000201490159007A98E4844
:1025400023F0B6FA012240218A4824F046FC0122F9
:102550008021884824F041FC01221021864823F084
:102560006EFB0121844823F0DDFA16B010BD8349CB
:102570000978824A52781144804A927811447F4AFD
:10258000D27811447D4A127911447C4A527911441F
:10259000C8B27A490978022900D070477749C979C9
:1025A000032900D0F9E775498979814218D1734927
:1025B0004978734A117071498978724A11706F496C
:1025C000C978714A11706D490979704A11706B4967
:1025D00049796F4A11706D4909786E4A117006E0A9
:1025E000FF21694A1170694A1170694A117000BF70
:1025F000D3E700B585B00121082022F047FE012174
:10260000880322F087FE00208DF8100001208DF84D
:1026100013000C20039003A95F4822F0F1FB022174
:10262000032024F073FC0420009000208DF80400A7
:1026300010208DF8050001208DF80600684623F073
:1026400077FB08208DF8080000208DF809008DF830
:102650000A0001208DF80B0002A822F0F8FA05B05C
:1026600000BD70B504460D46012C0BD129464B48E0
:1026700024F031FB00BF4021484824F0DCFB002857
:10268000F9D036E0032C0BD12946454824F023FB32
:1026900000BF4021424824F0CEFB0028F9D028E0BA
:1026A000042C0BD129463F4824F015FB00BF4021E4
:1026B0003C4824F0C0FB0028F9D01AE0052C0BD1CF
:1026C0002946274824F007FB00BF4021244824F076
:1026D000B2FB0028F9D00CE0062C0AD12946254887
:1026E00024F0F9FA00BF4021224824F0A4FB00287E
:1026F000F9D070BD2DE9F0470224012502260027FC
:102700004FF000084FF0030960193044384440444A
:1027100025490978084400F0FF0A21460420FFF704
:10272000A0FF29460420FFF79CFF31460420FFF755
:1027300098FF39460420FFF794FF41460420FFF735
:1027400090FF194801780420FFF78BFF51460420C1
:10275000FFF787FF49460420FFF783FFBDE8F087B6
:1027600000500040B8600240920700201E0B00207D
:102770000008024000140140286402404C0300207D
:102780005403002055030020560300205703002067
:102790005803002059030020000C024000100140A3
:1027A00000480040004C0040140300200020FE4977
:1027B0004862FE490860FE490860FE4908607047AB
:1027C0000020F9494862F94908604FF080414862A9
:1027D000F9490860F9490860F9490860F449086056
:1027E000F4490860F7490860F7490860704700201D
:1027F0004FF080414862F049086070470020EF497F
:102800000860EF490860704710B50020EF49087074
:10281000002407E061210120FFF723FF3220FEF7AB
:10282000F2F9641C022CF5D30120E84908707A20E3
:10283000E749087010BD10B50020E6490870002473
:1028400007E061210320FFF70CFF3220FEF7DBF9E0
:10285000641C022CF5D30120DE4908707A20DE4981
:10286000087010BD2DE9F14FAEB0DCA02D90002016
:102870002C908DF888008DF860002E9829283DD284
:10288000DFE800F0153D464D545B626970777E8548
:102890008C939AA1A8FDFCFBFAF9F8F7F6F5F4F38E
:1028A000F2F1F0EFEEEDECEBEAE9E8E7E600022109
:1028B000D34822F007FB88B100224FF40041D148F1
:1028C00022F01EFB4FF40041CE4822F008FB0446E4
:1028D00000222146CCA0FDF7E6FE0FE00122D10345
:1028E000C84822F00DFB4FF40041C64822F0F7FA29
:1028F000044600222146CCA0FDF7D5FE5AE3012272
:10290000D148B0F900004142D0A0FDF7CCFE51E320
:102910000222D0480168D0A0FDF7C5FE4AE3032299
:10292000D1480168D1A0FDF7BEFE43E30422D4489C
:102930000168D4A0FDF7B7FE3CE30522D548016845
:10294000D5A0FDF7B0FE35E30622D7480168D7A031
:10295000FDF7A9FE2EE30722D7480168D7A0FDF7AF
:10296000A2FE27E30822D9480168D9A0FDF79BFE03
:1029700020E30922DA480168DAA0FDF794FE19E3A2
:102980000A22DC480168DCA0FDF78DFE12E30B2271
:10299000DC480168DCA0FDF786FE0BE30C22DE4874
:1029A0000168DEA0FDF77FFE04E30D22E048016828
:1029B000E0A0FDF778FEFDE20E22E2480168E2A009
:1029C000FDF771FEF6E2E44841890F22E3A0FDF72E
:1029D0006AFEEFE20121E54822F074FA4FF400515B
:1029E0001790884822F06EFA04460221DF4822F050
:1029F00069FA05464FF48041824822F063FA0646A0
:102A00000421DA4822F05EFA4FF400411690D748CC
:102A100022F058FA07460821D44822F053FA80469B
:102A20004FF48041D14822F04DFA81461021CF4821
:102A300022F048FA4FF400511590CC4822F042FAA7
:102A400082460821CA4822F03DFA4FF4805117E02F
:102A5000A9E29CE28FE282E275E26CE264E258E273
:102A60004EE244E23AE230E224E218E20BE2FFE115
:102A7000F2E1E5E1DDE1D0E1C8E1C0E1B8E13CE04F
:102A80001490BA4822F01EFA10211390B84822F090
:102A900019FA4FF480611290B44822F013FA834679
:102AA0008021B24822F00EFA4FF480711190AF48A5
:102AB00022F008FA10901798CDE90B65CDE90D408A
:102AC0001698CDE90798CDE90970DDE9131215983C
:102AD000CDE9042A03910690DDE91101CDE901B1A8
:102AE0000090A4A2282122A8109B26F0A1FB10226E
:102AF00022A9A9A0FDF72AFE5CE28021404822F02D
:102B0000E1F9044601213E4822F0DCF90546402166
:102B10003B4822F0D7F906464FF40041944822F092
:102B2000D1F907464FF480519C4822F0CBF98046FA
:102B30004FF48061324822F0C5F981464FF40061BC
:102B4000964822F0BFF94FF4006117902C4822F00C
:102B5000B9F982464FF48061854822F0B3F9834683
:102B60004FF48051264822F0ADF94FF400611690E1
:102B70007F4822F0A7F94FF400511590204822F029
:102B8000A1F94FF480411490794822F09BF94FF459
:102B9000804113901A4822F095F94FF480711290F9
:102BA0007E4822F08FF9FBE0000001406C0000201D
:102BB0002408004088000020700000202404004009
:102BC00074000020240C00407800002091000020B8
:102BD000900000209300002092000020313131311C
:102BE00031313131313131313131313131313131D5
:102BF000313130313131313131313131000000008A
:102C00000004024000080240524F424F542032203C
:102C100044414E4720434841592053414E2058419A
:102C20004E483A2020200000524F424F542032207C
:102C300044414E4720434841592053414E20444F80
:102C40003A202020000000008C000020494D553A19
:102C500000000000A40000204C617A6572207068BA
:102C600061693A2000000000B800002054726F2013
:102C70006368616E205472756F633A200000000033
:102C8000A00000204C617A657220747261693A205C
:102C900000000000BC00002054726F206368616E69
:102CA000205361753A200000980000204C617A653D
:102CB00072207361753A2000C000002054726F20AA
:102CC0006461792074617920312000009C0000202B
:102CD0004C617A6572207472756F63200000000089
:102CE000C400002054726F206461792074617920DF
:102CF00032200000400300206D6F64652062616334
:102D000020332000B000002054726F20786F61796A
:102D10002074617920000000380300206D6F646525
:102D20005F636861795F72756E673A20000000002A
:102D30002C0300206E6861745F6461745F686F705B
:102D4000200000003C0300206D6F6465206E686108
:102D50007420686F70200000BE0800205175616EFD
:102D6000675F74726F203A2000000000001002407C
:102D7000000C0240256425642564256425642564CF
:102D800025642564256425642564256425642564FB
:102D90002564256400000000493A0000000002405C
:102DA0004FF400411190FE4822F08CF8CDE90B76EB
:102DB000CDE90D5410901798CDE907A0CDE90998F9
:102DC00014A807C803ABA3E80708DDE9111213989C
:102DD000CDE900120290AFF26402282122A8109BD4
:102DE00026F026FA112222A9EEA0FDF7AFFCE1E0C1
:102DF0001222EE480168EEA0FDF755FCDAE013223E
:102E0000F0480168F0A0FDF74EFCD3E01422F14831
:102E10000168F1A0FDF747FCCCE04FF40061F348F6
:102E200022F050F8044615222146F1A0FDF73BFCA4
:102E3000C0E0F348018A1622F2A0FDF734FCB9E0A5
:102E40004FF40071E94822F03DF80446172221466C
:102E5000EFA0FDF728FCADE04FF48071F04822F0C0
:102E600031F8044618222146EEA0FDF71CFCA1E033
:102E70002021DE4822F026F8044619222146EDA042
:102E8000FDF711FC96E04FF40071E54822F01AF8C6
:102E900004461A222146EBA0FDF705FC8AE04021FA
:102EA000D24822F00FF804461B222146E9A0FDF784
:102EB000FAFB7FE00121EB4822F004F804461C22D3
:102EC0002146E9A0FDF7EFFB74E0FDF70DFE044697
:102ED0001D222146E6A0FDF7E6FB6BE0FDF7D7FDDE
:102EE00004461E222146E6A0FDF7DDFB62E0FDF769
:102EF0004FFE04461F222146E5A0FDF7D4FB59E012
:102F0000FDF71CFE044620222146E5A0FDF7CBFB81
:102F100050E04021C24821F0D5FF0446212221463D
:102F2000E3A0FDF7C0FB45E02222E5480168E5A0EB
:102F3000FDF7B9FB3EE02322E548B0F90010E5A01B
:102F4000FDF7B1FB36E04FF40061C64821F0BAFF4F
:102F5000044624222146E2A0FDF7A5FB2AE04FF417
:102F60008061C04821F0AEFF044625222146DFA043
:102F7000FDF799FB1EE04FF48051894821F0A2FF34
:102F8000044626222146DCA0FDF78DFB12E04FF41B
:102F90000051834821F096FF044627222146D9A0FC
:102FA000FDF781FB06E02822D9480168D9A0FDF78A
:102FB0007AFB00BF00BF2FB0BDE8F08F10B5012134
:102FC000D74822F0AFFD10BD01B5D6480068009982
:102FD000884203DD0020D349086004E0D14800683E
:102FE000401CD0490860CF480068FFF73BFC08BD93
:102FF00001B59DF80000052801DA002008BD9DF804
:103000000000FBE730B504461D4624B9C6480078E9
:10301000C64BD87011E0002C07DDE0B2FFF7E8FFE7
:10302000C24BD8700020987007E06342D8B2FFF717
:10303000DFFFBE4BD8700120987021B9BA480078E4
:10304000BA4BD87111E0002907DDC8B2FFF7D0FFF5
:10305000B64BD8710120987107E04B42D8B2FFF708
:10306000C7FFB24BD8710020987122B9AE480078E2
:10307000AE4BD87211E0002A07DDD0B2FFF7B8FFDF
:10308000AA4BD8720120987207E05342D8B2FFF7DA
:10309000AFFFA64BD8720020987225B9A2480078DD
:1030A000A24BD87311E0002D07DDE8B2FFF7A0FFB7
:1030B0009E4BD8730020987307E06B42D8B2FFF79D
:1030C00097FF9A4BD8730120987330BD974AD07000
:1030D000D071D072D07370479448C07803280DDA4D
:1030E0009248C079032809DA9048C07A032805DAA3
:1030F0008E48C07B032801DA012070470020FCE7DE
:1031000001208B49086070478A48006847F23051B7
:10311000884201D0012070470020FCE710B5FFF77E
:1031200073FB10BD8448B0F9000040427047B5EE13
:10313000C00AF1EE10FA09D28048D0ED000A70EE14
:10314000600AFDEEE00A10EE900A70477B48D0ED71
:10315000000A70EE200AFDEEE00A10EE900AF4E795
:1031600010B52DED0A8B044624B99FED750ABDEC10
:103170000A8B10BD002C11DA7248006825F0ABFEF6
:1031800041EC190B204625F0A6FE41EC1C0B9FEDEF
:103190006E0B53EC102B25F0BDFDD9E0EDE00000E7
:1031A00000040240696E323A00000000F80200207C
:1031B000636F756E745F646174615F75617274349E
:1031C0002000000014030020626C6F636B5F706866
:1031D000613A2000100300207365655F52315F740F
:1031E00072656E5F72756E6720000000001002400D
:1031F00043425F4E616E675F747261692000000038
:10320000BE0800205175616E675F74726F322000D6
:1032100043425F4E616E675F706861690000000045
:1032200000080240636865636B5F686F705F313AE6
:1032300000000000636865636B5F686F705F323A1F
:1032400020000000636865636B5F686F705F333AEE
:1032500020000000636865636B5F686F705F343ADD
:1032600020000000000C02405374617274000000E2
:10327000454E434F4445525F4652282920000000E6
:10328000454E434F4445525F464C282920000000DC
:10329000454E434F4445525F5252282920000000BA
:1032A000454E434F4445525F524C282920000000B0
:1032B00063687579656E5F646F695F5433200000E1
:1032C0002003002069645F6461745F686F70200090
:1032D0008E000020494D55786F61793A000000005A
:1032E00043425F6B65705F345F31200043425F6B28
:1032F00065705F345F32200043425F6B65705F3200
:103300005F32200043425F6B65705F325F312000A7
:1033100060030020636865636B5F74696D652000FE
:10332000A060024084000020A803002004000020C8
:103330000C040020D00300208C0000206803002033
:1033400000000000BC030020333333333333C33F6A
:1033500041EC1B0B9FEDFE0B53EC102B25F0D4FC26
:1033600041EC1A0B53EC192B25F046FD41EC180BE0
:1033700025F00CFE00EE100AF9E6F748006825F08B
:10338000AAFD41EC190B204625F0A5FD41EC1C0BD4
:103390001FED130B53EC102B25F0BCFC41EC1B0B69
:1033A0009FEDEB0B53EC102B25F00DFC41EC1A0BB1
:1033B00053EC192B25F020FD41EC180B25F0E6FD10
:1033C00000EE100AD3E6F0EE400AF5EEC00AF1EE88
:1033D00010FA02DBB0EE600A7047B1EE600AFBE75C
:1033E0000146002901DB084670474842FCE70146D8
:1033F000DA48D0ED000AF1EE600AD948D0ED001AA3
:1034000080EEA11A00EE901AF8EEE01AD348D0ED43
:10341000000A41EE210AB0EE600AFDEEC00A10EE8D
:10342000900A7047B0EE402ADFEDCE2AB0EE620A75
:10343000B5EEC02AF1EE10FA03D2F1EE422AB0EE58
:10344000622AF5EEC00AF1EE10FA03D2F1EE602A1C
:10345000F0EE620AB5EEC01AF1EE10FA03D2F1EE08
:10346000412AB0EE621AF5EEC01AF1EE10FA03D25C
:10347000F1EE612AF0EE621AB4EEC02AF1EE10FA13
:1034800001DDB0EE420AF4EEC00AF1EE10FA01DD01
:10349000B0EE600AB4EEC01AF1EE10FA01DDB0EE43
:1034A000410AF4EEC01AF1EE10FA01DDB0EE610A45
:1034B0007047A94800687047AB480068704710B56E
:1034C0002DED028BB0EE408AA848006847F23051DB
:1034D00088420ED11FED660AA54880ED000AA54876
:1034E00080ED000AA44880ED000AA44880ED000A9F
:1034F0004AE0A3480068A3490968401A9B49096843
:10350000081A00EE100AB8EEC00AF0EE408A9E4893
:10351000D0ED000A88EEA00A9C48D0ED000A30EEFB
:10352000200A9B48D0ED000A20EE200AF0EE408AE7
:10353000B0EE680A26F012FDF0EE000A20EE200A36
:103540008B4880ED000AB0EE680A26F02DF9F0EE07
:10355000000A20EE200A874880ED000A844890ED9A
:10356000000A8C48D0ED000A30EE200A834880ED36
:10357000000A804890ED000A8648D0ED000A30EE3F
:10358000600A7D4880ED000AB5EEC08AF1EE10FABF
:1035900073D081480068052820D2DFE800F00320BE
:1035A0003A546F00754890ED000A30EE080A80ED3D
:1035B000000A714890ED000A30EE480A80ED000ADA
:1035C0006C4890ED000A30EE080A80ED000A684869
:1035D00090ED000A30EE480A80ED000A68E0664887
:1035E00090ED000A30EE480A80ED000A614890ED47
:1035F000000A30EE080A80ED000A5D4890ED000AEE
:103600006648D0ED000A08EE600A594880ED000ACD
:103610004EE05A4890ED000A30EE080A80ED000AAC
:10362000544890ED000A5D48D0ED000A08EE200AEB
:10363000504880ED000A4E4890ED000A30EE480AEE
:1036400080ED000A34E04D4890ED000A30EE080AA3
:1036500080ED000A484890ED000A5048D0ED000A7D
:1036600008EE600A444880ED000A414890ED000AE7
:1036700030EE480A80ED000A1AE01AE03F4890ED6B
:10368000000A4648D0ED000A08EE200A3B4880EDCB
:10369000000A394890ED000A30EE480A80ED000A31
:1036A000344890ED000A30EE080A80ED000A00BFB1
:1036B00000BF2F48D0ED001A2E4890ED001A2E487A
:1036C000D0ED000A2D4890ED000AFFF7ABFE34481C
:1036D000D0ED000AF8EEE00A80EE801ABDEEC10AD5
:1036E000304880ED000A1C4800682E49096888426D
:1036F00003DD2C4800681849086001202A49086049
:10370000BDEC028B10BD10B50446002027490860AF
:1037100027480460D4B900200F4908601FEDF80A5B
:103720001C4880ED000A47F23050104908602149DA
:1037300008609FED210A214880ED000A002016490B
:1037400008601F490860084908603BE040E000004D
:103750009A9999999999C93FBC030020A003002028
:10376000A40300206F12833AE8030020D003002056
:10377000080400200404002000040020FC030020B2
:10378000F0030020DC030020800300208C030020D5
:10379000B0030020E4030020B803002070030020E1
:1037A00064030020C4030020B4030020C0030020F1
:1037B000C8030020D403002000000000E003002024
:1037C000D8030020FE4908601FED050AFFF777FEC9
:1037D00010BD10B5FB4890ED000AB5EEC00AF1EE41
:1037E00010FA05D1F848006810B9F848006890B19F
:1037F0001FED0F0AF34880ED000A0020F24908602F
:10380000F2490860F2480068F2490860ED4890ED1E
:10381000000AFFF754FE10BDEF48C0ED000AEF4864
:1038200080ED000A704770B52DED028B05460C4601
:10383000B0EE408AEA480068A8420BD1E948006827
:10384000A04207D1E84890ED000AB4EE480AF1EE34
:1038500010FA18D0E3480460E448006810B9052065
:10386000E2490860DA480068DA490860DE4880ED1D
:10387000008ADB4805600020DD490860D14890EDF2
:10388000000AFFF71CFEBDEC028B70BD70B52DED7C
:10389000028B0446B0EE408A0D46CC480068A04238
:1038A0000BD1C84890ED000AB4EE480AF1EE10FAC8
:1038B00003D1C5480068A8423AD0C948006847F219
:1038C0003051884225D12820C6490860C748006881
:1038D00010B90A20C549086047F23050844218DA0E
:1038E0000120C4490860B5EEC08AF1EE10FA03DD8C
:1038F000B7480068A04208DCB5EEC08AF1EE10FAC5
:1039000007D2B3480068A04203DAB1EE480AB0EE2D
:10391000408AAE480460AC480560AA4880ED008A41
:103920000020B3490860A74890ED000AFFF7C7FDE3
:10393000BDEC028B70BD10B52DED028BB0EE408A50
:1039400004462146B0EE480A47F23050FFF79EFF8A
:10395000BDEC028B10BD70B504460D461FED6A0A22
:1039600029462046FFF75FFF70BD70B52DED088B2F
:10397000F0EE408A0446B0EE608AB0EE419A9E486E
:1039800090ED000AB8EEC00AB4EE680AF1EE10FA43
:103990000DD194480068A04209D18C4890ED000AEE
:1039A000B8EEC00AB4EE480AF1EE10FA5ED0BDEEF1
:1039B000E80A914880ED000A854991ED000AB8EEC9
:1039C000C00A38EEC00ABDEEC00A10EE100A1FEDA4
:1039D000860A2146FFF727FF7D4890ED000AB8EEE2
:1039E000C00A38EE400ABDEEC00A10EE105A002D93
:1039F00001DB284600E06842642814DD744890ED3D
:103A0000000AB8EEC00AB4EEC08AF1EE10FA02DD88
:103A1000B0EE490A01E0B1EE490A10EE101A08466C
:103A200025F089FA13E06A4890ED000AB8EEC00A62
:103A300038EE400A10EE101A084625F07CFA41ECE8
:103A40001B0B9FED6E0B53EC102B25F063F941EC33
:103A50001A0B25F09BFA09EE900A0021B0EE690AD4
:103A6000FDEEC80A10EE900AFFF710FFBDEC088BC0
:103A700070BD10B55F48006801283DDD53490968F5
:103A8000534A1268881AFFF7ABFC0A280CDA594827
:103A900001680068401C574A1060B1F5FA7F2BDDC1
:103AA0000020FFF730FE10BD52480068FA2808DDFC
:103AB00005204C4908604D490860FB204D490860CD
:103AC00004E005204749086048490860404800680C
:103AD0003E490968884205DDBFEE000A394880ED9D
:103AE000000A04E0B7EE000A364880ED000A3548C7
:103AF00090ED000AFFF7E3FC00BFD4E710B52DED11
:103B0000028B394890ED000AB5EEC00AF1EE10FACA
:103B100008D13648006828B12C48006847F2305177
:103B2000884202DBBDEC028B10BD264890ED000AF6
:103B3000B5EEC00AF1EE10FA41D02948006847F20C
:103B4000305188426FD11F4890ED000AB5EEC00A8F
:103B5000F1EE10FA08DD1D4800682A490968401A8C
:103B60001B490968884210DB164890ED000AB5EE43
:103B7000C00AF1EE10FA7CD21448006821490968A5
:103B8000084413490968884273DD1A48006803280D
:103B900070DA0E4909680E4A1268881AFFF720FC8D
:103BA000082841DA094800681749086000200F49D1
:103BB00008600C4908609FED150A024828E00EE1F4
:103BC0000C040020E0030020B8030020D8030020EC
:103BD000F0030020DC030020A0030020A403002049
:103BE000D0030020C0030020E4030020BC03002019
:103BF000CC030020E8030020D40300207B14AE4750
:103C0000E17A743F9C030020EC03002000000000D8
:103C100080ED000A0220FE490860FE4890ED000A8F
:103C2000FFF74DFC7EE778E0FB480068FB49096838
:103C3000884237DDFA4890ED000AB8EEC00AF54830
:103C4000D0ED000A60EE200AF64890ED000AB8EECA
:103C5000C00AC0EE801AB0EE611AB0EE410AFFF75A
:103C6000B2FBED490968ED4A1268881AFFF7B8FB04
:103C700001E04CE0B2E000EE900AB8EEE01AEA484B
:103C8000D0ED000A40EE010AE54890ED000AB8EEDA
:103C9000C00A80EE801AB0EE418AB0EE480AFFF703
:103CA0000EFC9BE0DE4890ED000AB8EEC00AD94851
:103CB000D0ED000A60EE200ADA4890ED000AB8EE76
:103CC000C00AC0EE801AB0EE611AB0EE410AFFF7EA
:103CD0007AFBD1490968D14A1268881AFFF780FB3C
:103CE00000EE900AB8EEE01ACF48D0ED000A50EE90
:103CF000410ACB4890ED000AB8EEC00A80EE801A67
:103D0000B0EE418AB0EE480AFFF7D9FB66E0C14841
:103D100090ED000AFFF7D3FB60E0BE4890ED000A8B
:103D2000B5EEC00AF1EE10FA1FDDBB4890ED000AB7
:103D3000B8EEC00ABA48D0ED000AF8EEE00AB5487D
:103D400090ED001A00EEC10AB848D0ED000AF8EE76
:103D5000E00A70EE600AB14890ED000AB8EEC00AC1
:103D6000F4EEC00AF1EE10FA27D3AA4890ED000A4B
:103D7000B5EEC00AF1EE10FA2BD2A74890ED000A7A
:103D8000B8EEC00AA648D0ED000AF8EEE00AA14855
:103D900090ED001A00EEC10AA448D0ED000AF8EE3A
:103DA000E00A70EE200A9D4890ED000AB8EEC00AC5
:103DB000F4EEC00AF1EE10FA0BDD97490968974A54
:103DC0001268881AFFF7CCF9B0EE408AFFF777FB4C
:103DD00004E0904890ED000AFFF771FBA2E69449D9
:103DE00009688E4A1268881AFFF7BAF9B0EE408A5D
:103DF000FFF765FB00BF95E600B58548006802281F
:103E000015DA1FED7E0A8B4880ED000A1FED810A4E
:103E1000804880ED000A00208749086047F2305052
:103E2000864908608649086000207B49086085480B
:103E30000068401C8349086083490968884204DAA5
:103E400082480068FFF742F90EE07F4800687D492C
:103E500008607F48006820B17C480068FFF736F9A9
:103E600002E00020FFF732F900BD764A1268521CCA
:103E7000744B1A60824207DD694A12680A44684B33
:103E80001A6000226F4B1A6070472DE9F041FFF76E
:103E900049F962490860FFF7ECFD6E4800680028A8
:103EA00021DD5F4800686B49096888422AD05C4878
:103EB00000686849096888420EDA5948006866490E
:103EC000096888421EDA56480068FFF790FA0446EF
:103ED0000121FFF7CAFF15E04FF0FF315F4800688E
:103EE000FFF7C3FF0EE04E480068002806DD6FF0C4
:103EF00001015B480068FFF7B8FF03E0FFF77CFFB4
:103F0000BDE8F0815748006844490968884205D0F7
:103F1000FFF7F4FD414800685249086052480068C4
:103F2000F0B33F48D0ED000AF8EEE00A4F4890EDBC
:103F3000001A60EE810AB0EE600AFFF7F8F8044656
:103F40003748D0ED000AF8EEE00A494890ED001A33
:103F500060EE810AB0EE600AFFF7E9F805463048E6
:103F6000D0ED000AF8EEE00A424890ED001A60EE4B
:103F7000810AB0EE600AFFF7DAF806462848D0ED6D
:103F8000000AF8EEE00A3C4890ED001A60EE810A63
:103F9000B0EE600AFFF7CBF8074623462A4600E05A
:103FA00002E03146FFF72EF800BFA9E72DE9F04106
:103FB0002DED028B0446F0EE408A0D461646FFF7C3
:103FC000B1F80746B0EE680AFFF7FDF9B0EE408A97
:103FD000E01BFFF705FAB04203DCBDEC028BBDE845
:103FE000F081BC4203DAB1EE480AB0EE408A01200B
:103FF00007490860084804600F480560054880EDDF
:10400000008A00200F4908600C48006836E0000074
:10401000E8030020E0030020D8030020F003002084
:10402000BC0300209C0300207C0300209803002098
:10403000DC030020E4030020B8030020D0030020AC
:10404000D4030020CC030020AC030020A8030020F0
:104050000C040020C0030020C4030020F80300204B
:10406000C8030020F4030020B4030020080400204B
:104070000404002000040020FC03002047F230511B
:10408000884208D11E20FE490860FE48006810B929
:104090000A20FC490860FC4890ED000AFFF70FFA7F
:1040A00000BFFFF709FA0028FBDC00BF95E72DE908
:1040B000F0472DED048B0646F0EE409A0F46B0EE29
:1040C000608A9046FFF72EF80546B0EE690AFFF7C2
:1040D0007AF9F0EE408AB0EE489AC1464FF0000AF5
:1040E000A6F11004601BFFF77BF90A2803DCBDEC86
:1040F000048BBDE8F087AC4218DA3846B1EE680AA6
:10410000FFF719FC0CE0BAF1000F09D1281B484554
:1041100006DC3846B1EE490AFFF70DFC4FF0010A04
:10412000FFF700F80546A042EDDC17E03846B0EE98
:10413000680AFFF700FC0CE0BAF1000F09D1601B20
:10414000484506DC3846B0EE490AFFF7F4FB4FF06D
:10415000010AFEF7E7FF0546A042EDDB0020FFF76E
:10416000D2FA00BFC3E7C94801680068401CC74ACB
:104170001060462907D2C648408BC64909680844E2
:10418000C44908600BE0C34800684621B0FBF1F069
:10419000C14908600020BD490860BE490860BF48A9
:1041A00001680068401CBD4A1060462907D2B84823
:1041B000008BBB4909680844B94908600BE0B8485E
:1041C00000684621B0FBF1F0B64908600020B34911
:1041D0000860B3490860B44801680068401CB24AEE
:1041E0001060462907D2AA48808AB0490968084465
:1041F000AE4908600BE0AD4800684621B0FBF1F025
:10420000AB4908600020A8490860A8490860A9488F
:1042100001680068401CA74A1060462907D29C48E4
:10422000C08AA54909680844A34908600BE0A24870
:1042300000684621B0FBF1F0A049086000209D49CC
:1042400008609D4908609E4801680068401C9C4ABF
:104250001060322907D28E4840899A49096808447B
:10426000984908600BE0974800683221B0FBF1F0F4
:104270009549086000209249086092490860934877
:1042800001680068401C914A1060322907D28048BA
:10429000C0888F49096808448D4908600BE08C4844
:1042A00000683221B0FBF1F08A490860002087499C
:1042B000086087490860884801680068401C864A91
:1042C0001060322907D272488088844909680844FE
:1042D000824908600BE0814800683221B0FBF1F0B0
:1042E0007F49086000207C4908607C4908607D485F
:1042F00001680068401C7B4A1060462907D2644868
:104300000089794909680844774908600BE07648D4
:1043100000684621B0FBF1F0744908600020714943
:10432000086071490860724801680068401C704A62
:104330001060462907D2564800886E49096808442B
:104340006C4908600BE06B4800684621B0FBF1F057
:104350006949086000206649086066490860674846
:1043600001680068401C654A1060462907D2484829
:104370004088634909680844614908600BE0604867
:1043800000684621B0FBF1F05E49086000205B49FF
:1043900008605B49086070475B48006850490968DD
:1043A000401A03EE100AB8EEC33AF0EE430A57483B
:1043B00090ED003A23EE203AF0EE432A524800688E
:1043C00053490968884203DA514800684E49086039
:1043D0004D4800684F490968884203DD4D48006830
:1043E00049490860BDEEE03A13EE100A002801DBEF
:1043F000014600E04142052940DD474890ED003A82
:1044000033EE203A80ED003A90ED003ADFED433A8A
:10441000B4EEE33AF1EE10FA03DD9FED403A80EDA1
:10442000003A3D4890ED003ADFED3D3AB4EEE33A14
:10443000F1EE10FA03D29FED3A3A80ED003A394896
:1044400090ED003A3448D0ED003A23EE232A364866
:1044500090ED003A30EEC33A3448D0ED003A63EEC6
:10446000231A3148C0ED000A32EE823A33EE213A87
:104470002F4880ED003AF5EEC00A5BE0C2E0000094
:10448000C0030020BC030020E00300205C050020E6
:10449000BE08002060050020980000206405002070
:1044A000680500209C0000206C050020700500209D
:1044B000A40000207405002078050020A000002042
:1044C0007C05002080050020A80000209405002025
:1044D00098050020BC0000209C050020A0050020BD
:1044E000B8000020A4050020A8050020B00000208E
:1044F000BC050020C0050020C0000020C40500202D
:10450000C8050020C400002080040020DC04002036
:10451000780400207C040020E80400200000FA4316
:104520000000FAC3E0040020EC040020E4040020B2
:10453000F0040020F1EE10FA03D20120FB49887547
:1045400002E00020F9498875F94991ED003ABDEE85
:10455000C33A13EE100A002801DB014600E0414295
:1045600003EE101AB8EEC33AF0EE083A23EE230A2F
:10457000F04890ED003AB8EEC33AB4EEC30AF1EE5B
:1045800010FA05DD90ED003AB8EEC33AB0EE430AFA
:10459000B3EE043AB4EEC30AF1EE10FA03D2B3EE6E
:1045A000043AB0EE430AE44890ED003A30EE431A84
:1045B000B1EE043AB4EEC31AF1EE10FA08DD90ED54
:1045C000003AF1EE043A33EE233AB0EE430A0FE03C
:1045D000B9EE043AB4EEC31AF1EE10FA08D2D64896
:1045E00090ED003AF1EE043A33EE633AB0EE430A4E
:1045F000D14880ED000ABCEEC03A13EE100ACB4958
:10460000C87513E09FEDCD3ACD4880ED003A9FED9F
:10461000CB3ACC4880ED003A0220C449C87500204E
:1046200088759FEDC63AC44880ED003A7047C64889
:104630000068C6490968401A03EE100AB8EEC33A8A
:10464000B0EE430AC24890ED003A23EE003AF0EE95
:10465000432ABD480068BF490968884203DABD485B
:104660000068B9490860B8480068BB4909688842D1
:1046700003DDB9480068B4490860BDEEC03A13EEE6
:10468000100A002801DB014600E0414205297CDDDB
:10469000B24890ED003A33EE003A80ED003A90EDEA
:1046A000003A5FED623AB4EEE33AF1EE10FA03DD60
:1046B0001FED663A80ED003AA84890ED003A5FEDB4
:1046C000683AB4EEE33AF1EE10FA03D21FED6C3A19
:1046D00080ED003AA24890ED003AA048D0ED003AB3
:1046E00023EE232A9F4890ED003A30EE433A9E484D
:1046F000D0ED003A63EE231A9A4880ED000A32EEBC
:10470000823A33EE213A994880ED003AB5EEC00A7C
:10471000F1EE10FA03D200208449887402E00120EF
:1047200082498874914991ED003ABDEEC33A13EE87
:10473000100A002801DB014600E0414203EE101A96
:10474000B8EEC33AF0EE083A63EE230A884890EDDB
:10475000003AB8EEC33AF4EEC30AF1EE10FA05DD02
:1047600090ED003AB8EEC33AF0EE430AB3EE043AE5
:10477000F4EEC30AF1EE10FA03D2B3EE043AF0EE0F
:10478000430A7C4890ED003A00E02BE030EEC31A7B
:10479000B1EE043AB4EEC31AF1EE10FA08DD90ED72
:1047A000003AF1EE043A33EE233AF0EE430A0FE01A
:1047B000B9EE043AB4EEC31AF1EE10FA08D26D481D
:1047C00090ED003AF1EE043A33EE633AF0EE430A2C
:1047D0006848C0ED000ABCEEE03A13EE100A5349F7
:1047E000C87413E09FED553A5C4880ED003A9FEDA8
:1047F000533A5C4880ED003A02204C49C8740120CD
:1048000088749FED4E3A5B4880ED003A70475A48F5
:1048100000685A490968884203DA584800685649CE
:1048200008605548006856490968884203DD5448C5
:10483000006851490860534909684F4A1268881A4C
:10484000002801DB014600E04142032932DD4D48EA
:10485000006849490968884203DD002033498876A9
:1048600002E001203149887646490968424A1268C7
:10487000881A002801DB014600E0414201EBC10239
:1048800002EB0111404A1160104600683F49096877
:10489000884203DD3D480068114608603A480068D8
:1048A000142802DA142038490860374800781F4974
:1048B000C87602E000201D49C87670473448006879
:1048C00034490968884203DA324800683049086090
:1048D0002F48006830490968884203DD2E48006887
:1048E0002B4908602D490968294A1268881A00284E
:1048F00001DB014600E04142032970DD27480068E2
:1049000023490968884204DD0020084981F82A000B
:1049100003E00120054981F82A00204909681C4A62
:104920001268881A00283BDB01463AE004000020A8
:10493000F0040020B8040020F4040020000000006F
:10494000E8040020EC0400208C040020BC000020BF
:10495000F8040020840400208804002004050020BE
:10496000FC04002008050020000500200C050020A4
:10497000B404002010050020A40400209C040020A2
:10498000A0040020C000002018050020C004002062
:10499000B0040020A8040020AC040020C4000020C3
:1049A000414201EBC10202EB0111F84A11601046CD
:1049B0000068F7490968884203DDF5480068114638
:1049C0000860F2480068142802DA1420EF490860F1
:1049D000EE480078EF4981F82B0004E0FFE7002063
:1049E000EC4981F82B00704710B5EB480068EB49A3
:1049F0000968884203DAE9480068E7490860E64840
:104A00000068E7490968884203DDE5480068E24933
:104A10000860E44B1B68E04C24681A1B002A01DB89
:104A2000134600E05342022B4EDDDF4B1B68DF4C88
:104A30002468191B002901DB0B4600E04B420F2BB9
:104A400042DADB4B1B68DB4C2468181B002801DBB7
:104A5000034600E043420F2B36DAD2480068CE49C5
:104A60000968884204DD0120CA4981F8260003E074
:104A70000020C84981F82600CA490968C64A126858
:104A8000881A002801DB014600E04142C1EB011118
:104A9000BE4A116010460068C7490968884203DDB4
:104AA000C548006811460860B84800683C2802DA2A
:104AB0003C20B6490860B5480078B64981F827001F
:104AC0000020BE49086006E00020B24981F82700B6
:104AD0000120BA49086010BD3220B9490860B949BF
:104AE000086070476420B6490860B649086070479E
:104AF000A020B3490860B34908607047E620B04978
:104B00000860B0490860704700B50246FFF7F0FF43
:104B1000AD480260AD48026000BD00B50246FFF737
:104B2000DBFFA9480260A948026000BD00B502464B
:104B3000FFF7D8FFA4480260A448026000BD00B59A
:104B40000246FFF7DBFFA0480260A048026000BDFC
:104B500070B5FA209E490860944800689D49086035
:104B6000FA208B490860934800689B490860002040
:104B70009A49086035E006E0012023F0A3FBFBF72B
:104B80007DFF00B927E0884B1B68924C2468191BF5
:104B9000002901DB0B4600E04B42844C2468904D19
:104BA0002D68621B02EBD2746410A342E4DC814BDB
:104BB0001B688C4C24681B1B032493FBF4F47C4B74
:104BC0001B68854D2D68581B002801DB034600E05B
:104BD00043429C42D0DB00BF80480068401C7F49B4
:104BE00008607E4800683228C5DB70BD70B57E481D
:104BF0000068002850D17D48006800284CD17C48CE
:104C00000068002848D17B480068002844D123E090
:104C10000421794820F056F970B98021774820F0B6
:104C200051F948B99FED761ADFED760A12209FED13
:104C3000760AFEF79AFE08E09FED711ADFED710A21
:104C400014209FED720AFEF790FE012023F03AFB3C
:104C5000FBF714FF00B906E04FF480716C4820F0B8
:104C600031F90028D4D000BF9FED651ADFED650A49
:104C70000A209FED680AFEF778FE06E0012023F087
:104C800021FBFBF7FBFE00B905E004215A4820F0A8
:104C900019F90028F2D049E15348006801284FD1A2
:104CA0005248006800284BD151480068C8BB5148A1
:104CB0000068B0BB23E004214F4820F003F970B92D
:104CC00080214E4820F0FEF848B99FED4D1ADFEDE7
:104CD0004D0A12209FED4C0AFEF747FE08E09FEDBB
:104CE000481ADFED480A14209FED480AFEF73DFE02
:104CF000012023F0E7FAFBF7C1FE00B906E04FF40C
:104D00008071434820F0DEF80028D4D000BF9FED2A
:104D10003C1ADFED3C0A0A209FED3E0AFEF725FE15
:104D200007E00DE0012023F0CDFAFBF7A7FE00B964
:104D300005E00421304820F0C5F80028F2D0F5E065
:104D40002948006801281FD12848006801281BD184
:104D500027480068C0B927480068A8B96EE04FF43A
:104D600000612B4820F0AEF878B90121234820F0EB
:104D7000A9F850B99FED221ADFED220A12209FED0B
:104D8000260AFEF7F2FD52E079E047E01805002020
:104D9000C404002004000020980400209004002097
:104DA00094040020B0000020C0000020B4010020C6
:104DB000C4000020B8010020BC04002074040020BE
:104DC000B4040020B8040020800400208C040020DB
:104DD000C0040020A4040020B00400203C040020F3
:104DE0009C040020A80400205C0200206002002037
:104DF000640200206802002000100240000402400B
:104E00003333333F000061440000C8C3000061C475
:104E1000000002400000164300C0C1C41FED081A84
:104E20005FED080A14201FED070AFEF79EFD012022
:104E300023F048FAFBF722FE00B906E04FF4807138
:104E4000F84820F03FF8002889D000BF1FED141A61
:104E50005FED140A0A209FEDF40AFEF786FD06E0D6
:104E6000012023F02FFAFBF709FE00B906E04FF40A
:104E70000061EC4820F026F80028F1D056E0EB481D
:104E80000068012852D1EA48006801284ED1E9485B
:104E9000006801284AD1E8480068B8BB24E04FF414
:104EA0000061E04820F00EF870B90121E34820F0DD
:104EB00009F848B91FED2E1A5FED2E0A12201FEDDA
:104EC0002A0AFEF752FD08E01FED331A5FED330AA0
:104ED00014201FED320AFEF748FD012023F0F2F9FD
:104EE000FBF7CCFD00B906E04FF48071CD481FF010
:104EF000E9FF0028D3D000BF1FED3F1A5FED3F0A46
:104F00000A209FEDC90AFEF730FD07E00EE0012000
:104F100023F0D8F9FBF7B2FD00B906E04FF40061C9
:104F2000C0481FF0CFFF0028F1D000BF1FED4C1A82
:104F30005FED4C0A0A201FED4B0AFEF716FDFDF748
:104F40003FFC06E0012023F0BDF9FBF797FD00B917
:104F500011E0FBF7C9FD0546FBF799FD041E01DBD7
:104F6000204600E06042002D01DB294600E0694256
:104F70000844C828E6DB00BF0020FEF7C4FB70BD74
:104F80002DE9F04105460E46AA20AD490860AD491D
:104F90000860AD480068F430AC490860AC4800686F
:104FA000F530AC490860002415E006E0012023F04C
:104FB00089F9FBF763FD00B90BE0A7490968A54A29
:104FC0001268881A002801DB014600E041423229BC
:104FD000ECDC00BF641C322CE7DB9FEDA01A00EE76
:104FE000106AF8EEC00A102000EE105AB8EEC00A9F
:104FF000FEF7BBFC002410E006E0012023F062F97C
:10500000FBF73CFD00B906E04FF4807185481FF0C6
:1050100059FF0128F1D000BF641C962CECDB9FEDFA
:105020008F1A00EE106AF8EEC00A0C2000EE105A3B
:10503000B8EEC00AFEF799FC002417E006E0012054
:1050400023F040F9FBF71AFD00B90DE04FF4807131
:1050500074481FF037FF0128F1D04FF48051714898
:105060001FF030FF0028EAD000BF641C962CE5DB5F
:105070000020FEF748FBFA20714908607448006878
:1050800074490860002415E006E0012023F01AF9B5
:10509000FBF7F4FC00B90BE06F4909686D4A126830
:1050A000881A002801DB014600E041420A29ECDCB5
:1050B00000BF641C322CE7DB9FED681A00EE106A1B
:1050C000F8EEC00A282000EE105AB8EEC00AFEF72B
:1050D0004CFC002415E006E0012023F0F3F8FBF778
:1050E000CDFC00B90BE0802154481FF0EBFE0128F5
:1050F00005D1012151481FF0E5FE0128ECD000BF89
:10510000641CB4F57A7FE6DB4FF42F7023F0DAF8F5
:1051100032204B4908604E4800680E304D49086007
:105120009FED4F1A00EE106AF8EEC00A1D2000EE47
:10513000105AB8EEC00AFEF718FC00240FE006E093
:10514000012023F0BFF8FBF799FC00B905E001212D
:1051500044481FF0B7FE0128F2D000BF641C40F2A3
:1051600026208442EBDB9FED3E1A00EE106AF8EE3B
:10517000C00A092000EE105AB8EEC00AFEF7F5FB8F
:10518000002410E006E0012023F09CF8FBF776FCF9
:1051900000B906E04FF4005132481FF093FE012899
:1051A000F1D000BF641CB4F57A7FEBDB0020FEF782
:1051B000AAFAFA202349086023480068C01D234941
:1051C0000860002415E006E0012023F07BF8FBF7DF
:1051D00055FC00B90BE0244909681C4A1268881A7A
:1051E000002801DB014600E041421929ECDC00BF48
:1051F000641CFA2CE7DB9FED1A1A00EE106AF8EE39
:10520000C00A122000EE105AB8EEC00AFEF7ADFB3D
:1052100000243AE02AE0012023F054F8FBF72EFCAA
:1052200020BB30E0000002400080D4445C0200203B
:105230006002002064020020680200200004024096
:10524000B4040020B804002078040020800400206A
:10525000840400208C040020BC000020CDCC4C3FF6
:10526000CDCCCC3E00100240B80000204FF40061CD
:10527000FE481FF027FE012805D10421FC481FF03D
:1052800021FE0128C7D000BF641C40F6F6108442FE
:10529000C0DBFDF795FA06E0012023F013F8FBF7D9
:1052A000EDFB00B914E0FBF71FFC8046FBF7EFFBBA
:1052B000071E01DB384600E07842B8F1000F01DB41
:1052C000414601E0C8F100010844B0F5D27FE3DBBC
:1052D00000BF002410E006E0012022F0F3FFFBF7FE
:1052E000CDFB00B906E04FF48041E1481FF0EAFD34
:1052F0000128F1D000BF641C40F6F6108442EADBBE
:10530000FFF7F6FB40F20910DA490860DA49086055
:105310001FED2D1A00EE106AF8EEC00A0C2000EE08
:10532000105AB8EEC00AFEF720FB00240FE006E09A
:10533000012022F0C7FFFBF7A1FB00B905E0102117
:10534000CB481FF0BFFD0128F2D000BF641C642CC5
:10535000EDDB0020FEF7D7F9BDE8F08110B50020A5
:10536000FEF7D1F905210420FDF77BF9C348C07F82
:1053700040F00200C149C8770020C149086011E02F
:1053800006E0012022F09EFFFBF778FB00B903E066
:10539000BC4800680128F4D000BFB9480068401C30
:1053A000B7490860B6480068FA28E9DBB348C07F0F
:1053B00000F0FD00B149C8770120B2490860002023
:1053C000B149086010BD2DE9F0472DED028B8146F3
:1053D0000F46164698469DED0A8ADDE90B450020EA
:1053E000FEF791F99FEDA91AF8EEC80A102000EE19
:1053F000106AB8EEC00AFEF7B8FA404622F062FF23
:105400000020FEF780F94FF49672DFEDA10A00212B
:10541000B7EE080A4846FEF74AFE0020FEF773F989
:10542000FFF766FB9B480068FA30924908609A488B
:105430000068FA309049086000209149086019E03E
:1054400006E0012022F03EFFFBF718FB00B90BE05D
:1054500092490968884A1268881A002801DB0146C7
:1054600000E041420F29ECDC00BF85480068401C89
:1054700083490860824800683228E1DB1FED891A01
:1054800000EE105AF8EEC00A142000EE104AB8EEF2
:10549000C00AFEF76AFA00207949086014E006E0C5
:1054A000012022F00FFFFBF7E9FA00B906E04FF404
:1054B00080716E481FF006FD0128F1D000BF7048D2
:1054C0000068401C6E4908606D4800689628E6DB5D
:1054D0001FED9E1A00EE105AF8EEC00A0E2000EEE4
:1054E000104AB8EEC00AFEF740FA0020644908608E
:1054F0001BE006E0012022F0E5FEFBF7BFFA00B951
:105500000DE04FF4807159481FF0DCFC0128F1D008
:105510004FF4805155481FF0D5FC0028EAD000BF59
:1055200057480068401C564908605548006896284E
:10553000DFDB0020FEF7E7F853480068012801D1BF
:10554000FFF70CFF29462046FFF71AFD0020FEF763
:10555000DAF84FF49672DFED4E0A0021B7EE080A32
:105560003846FEF7A4FD0020FEF7CDF8BDEC028B17
:10557000BDE8F0872DE9F04104460D46FFF7B8FA83
:10558000444800680D303B49086043480068C01C2F
:1055900039490860002615E006E0012022F092FE5D
:1055A000FBF76CFA00B90BE03C490968324A126813
:1055B000881A002801DB014600E041420A29ECDCA0
:1055C00000BF761C322EE7DB9FED301A00EE105A3A
:1055D000F8EEC00A142000EE104AB8EEC00AFEF73A
:1055E000C4F9002610E006E0012022F06BFEFBF774
:1055F00045FA00B906E04FF480711C481FF062FCC8
:105600000028F1D000BF761CB6F57A7FEBDB9FED6A
:105610001F1A00EE105AF8EEC00A0A2000EE104AD7
:10562000B8EEC00AFEF7A1F900261BE006E0012053
:1056300022F048FEFBF722FA00B911E04FF4807126
:105640000A481FF03FFC0028F1D0802114481FF0C9
:1056500039FC28B9012112481FF034FC0028E6D09B
:1056600000BF761CB6F57A7FE0DB1BE0000002404D
:1056700000100240800400208C0400200400002060
:105680003C0400200C030020080300203333333F88
:105690009A99993E7804002084040020BC000020E0
:1056A00000040240FA20F9490860F9480068F53022
:1056B000F84908601FED0A1A00EE105AF8EEC00A09
:1056C000202000EE104AB8EEC00AFEF74EF9002680
:1056D0000FE006E0012022F0F5FDFBF7CFF900B95D
:1056E00005E00121EC481FF0EDFB0028F2D000BFDF
:1056F000761C40F226208642EBDB1FED1B1A00EEE3
:10570000105AF8EEC00A1A2000EE104AB8EEC00A8D
:10571000FEF72BF9002610E006E0012022F0D2FD72
:10572000FBF7ACF900B906E04FF40051DA481FF07E
:10573000C9FB0028F1D000BF761C40F2262086422B
:10574000EADB1FED2D1A00EE105AF8EEC00A0A200F
:1057500000EE104AB8EEC00AFEF707F9002617E07F
:1057600006E0012022F0AEFDFBF788F900B90DE05C
:105770004FF48041C8481FF0A5FB0028F1D04FF43A
:105780000051C5481FF09EFB0028EAD000BF761CE0
:1057900040F2DC508642E3DBFA20C0490860C04892
:1057A0000068F530BF4908601FED471A00EE105A37
:1057B000F8EEC00A092000EE104AB8EEC00AFEF763
:1057C000D4F806E0012022F07DFDFBF757F900B97F
:1057D00005E01021B0481FF075FB0028F2D000BF93
:1057E000FCF7EEFF06E0012022F06CFDFBF746F926
:1057F00000B914E0FBF778F98046FBF748F9071E7B
:1058000001DB384600E07842B8F1000F01DB414689
:1058100001E0C8F100010844B0F5BE7FE3DB00BF42
:105820000020FDF770FFBDE8F0812DE9F0472DED78
:10583000028B81460F46144698469DED0A8ADDE9A3
:105840000B560020FDF75FFF4FF4AF70FFF76EF9C6
:105850000020FDF758FFB6EE001AF8EEC80A102037
:1058600000EE104AB8EEC00AFEF77FF8404622F07C
:1058700029FD0020FDF747FF4FF496725FED7C0A8B
:105880000021B7EE080A4846FEF711FC0020FDF79C
:105890003AFF40F20910FFF737F90020824908600B
:1058A00019E006E0012022F00DFDFBF7E7F800B952
:1058B0000BE07E490968774A1268881A002801DBE4
:1058C000014600E041420A29ECDC00BF764800684E
:1058D000401C75490860744800683228E1DBB7EE67
:1058E000001A00EE106AF8EEC00A0F2000EE105AFF
:1058F000B8EEC00AFEF739F800206B49086014E0E2
:1059000006E0012022F0DEFCFBF7B8F800B906E063
:105910004FF4807166481FF0D5FA0028F1D000BF1F
:1059200061480068401C604908605F480068B0F545
:105930007A7FE5DB962022F0C5FC0020FDF7E3FE30
:105940005C480068012801D1FFF708FD3146284670
:10595000FFF710FE0020FDF7D6FE4FF496725FEDC4
:10596000B40A0021B7EE080A3846FEF7A0FB002073
:10597000FDF7C9FEBDEC028BBDE8F08770B54E485F
:10598000006800F109054D48006800F1090640F281
:105990003520FFF7B9F84A480068002853D1494834
:1059A000006800284FD14848006800284BD147487C
:1059B0000068002847D13C4908603DE023E04448A6
:1059C0000068A84209DD1FEDCF1ADFED420A122060
:1059D0009FED410AFDF7C9FF0EE01FEDD41ADFED80
:1059E0003D0A0F209FED3D0AFDF7BFFF3C48C07FF9
:1059F00040F080003A49C877012022F063FCFBF7B1
:105A00003DF800B912E04FF4805129481FF05AFACE
:105A10000028D4D0254800681E490968441A002C83
:105A200001DB204600E060421E28C8DC00BF1E48A3
:105A30000068401C1C4908601B48006840F20E6169
:105A40008842BBDB34E11E48006801281CD11D4898
:105A5000006800287CD11C480068A8B91B48006871
:105A600090B90020104908606BE051E018480068C8
:105A7000A84237DD1FEDFB1ADFED160A12209FED5D
:105A8000160AFDF772FF3CE062E00000B40400205B
:105A9000840400208C04002000100240B804002080
:105AA00078040020800400203C040020BC0000207A
:105AB0000000024008030020A8010020B0010020DF
:105AC0005C020020600200206402002068020020C6
:105AD000A000002000006144008022C4000061C4D6
