:020000040800F2
:1000000050EF002059590208450200084702000835
:100010004B0200084F0200085302000800000000D5
:100020000000000000000000000000009D0100082A
:100030005702000800000000E1010008738902086F
:100040007359020873590208735902087359020858
:100050007359020873590208735902087359020848
:10006000CF04000813050008735902083F03000875
:100070002103000881030008735902087502000873
:100080007359020881020008735902087359020863
:100090007359020873590208735902087359020808
:1000A00073590208EB03000817040008735902088B
:1000B0001904000847040008730400087359020873
:1000C000735902087359020873590208CB040008D7
:1000D000735902085D020008735902087359020837
:1000E00073590208735902087359020873590208B8
:1000F0007359020873590208735902085D03000816
:1001000073590208735902089F040008CD040008BF
:100110007359020873590208BD030008C903000897
:10012000735902089B020008CF02000873590208A5
:100130007359020873590208735902087359020867
:100140007359020873590208735902087359020857
:1001500013030008735902087359020873590208FF
:100160007359020873590208735902087359020837
:100170007359020873590208735902087359020827
:100180007359020873590208DFF80CD029F0C6FE33
:10019000004800472B56020850EF0020234B1968F7
:1001A0000868B0E8F04F80F309884FF0000080F352
:1001B000118870470000000003480068006880F361
:1001C000088862B600DF00BF08ED00E0DFF80C0031
:1001D000016841F470010160704700BF88ED00E0E4
:1001E000EFF30980114B1A681EF0100F08BF20EDC5
:1001F000108A20E9F04F106008B54FF0140080F32A
:10020000118828F07EFF4FF0000080F31188BDE8D0
:10021000084019680868B0E8F04F1EF0100F08BFDA
:10022000B0EC108A80F30988704700BF1C060020DC
:10023000EFF311804FF0140181F31188704780F3C0
:1002400011887047704700BFFEE700BFFEE700BFA0
:10025000FEE700BFFEE770477047704710B540F2F9
:100260002551AC4827F099FC18B12021A94827F066
:100270008BFC10BD10B5A849A84826F0C3FB10BDE3
:1002800010B5A749A548303026F092FB20B1A4490B
:10029000A248303026F0B6FB10BD10B5A149A248E7
:1002A00026F086FB90B19F499F4826F0ABFB02F0F9
:1002B00068F900219948303826F0D0FA08219A4888
:1002C00026F0EDFA0121984826F0C8FA10BD10B5C5
:1002D00096499548183026F095FB95484078944902
:1002E000097840EA012000B2924908809048C0781D
:1002F0008F49897840EA012000B28F4908808C48F4
:1003000040798B49097940EA012000B28B49088085
:1003100010BD10B58A498448603026F073FB10BDCB
:1003200010B580497D48483826F042FB30B17D4900
:100330007A48483826F066FB00F0BDFA10BD10B5CB
:1003400080497648603826F033FB30B17D497348E8
:10035000603826F057FB02F014F910BD10B57A4949
:100360006E48483026F024FB48B100216B484830E5
:1003700026F074FA74496948483026F043FB10BDF2
:1003800010B56A496548303826F012FBA8B16749B4
:100390006248303826F036FB01F0D6FD00215F4878
:1003A000303826F05BFA08215C48303826F077FABE
:1003B00001215A48303826F051FA10BD10B50121FC
:1003C000624827F047F910BD10B50121604827F0B9
:1003D00041F97A204F49888001215E4827F0ECFAE4
:1003E00001215D4827F0E8FA10BD10B501215B48F6
:1003F00027F030F95948008800F0100028B158481B
:100400000068401E5649086004E055480068401CDA
:100410005349086010BD704710B50121880727F0C7
:1004200019F94FF08040008800F0100028B14D48C5
:100430000068401E4B49086004E04A480068401CC0
:100440004849086010BD10B50121474827F002F95E
:100450004548008800F0100028B144480068401E5C
:100460004249086004E041480068401C3F49086078
:1004700010BD10B501213E4827F0ECF83C4800883B
:1004800000F0100028B13B480068401E3949086060
:1004900004E038480068401C3649086010BD10B5BB
:1004A0000121354827F0D6F83348008800F01000C5
:1004B00028B132480068401E3049086004E02F48E7
:1004C0000068401C2D49086010BD7047704710B58A
:1004D000042026F02FFBD8B12021294825F0B3FBBA
:1004E0000421284825F08AFB012804D1002118485E
:1004F00026F030FC09E00421224825F07FFB20B9DA
:10050000134826F02BFC2049086004201F4908608E
:1005100010BD704700100140208000207060024034
:1005200000802020008800102864024000802010F5
:10053000DA0800208C000020900000208E000020AF
:10054000008800202080001000800028001000405B
:100550000014004000480040001401400000014029
:100560006C00002070000020000400407400002097
:100570000008004088000020000C004078000020A7
:1005800000000240000C024068000020143C0140C2
:1005900070B50446204629F09DF905462146F948E4
:1005A00029F09FF9A8B140F22B122146F54829F015
:1005B00085F90021F44826F051F9F248F2490C314E
:1005C0000860F148B838C0F8BC500121EE4826F068
:1005D00045F970BD70B50446002510E0605D68B156
:1005E000615DEA4827F013FA00BF8021E74827F051
:1005F000BEFA0028F9D0681CC5B200E070BDEDE776
:1006000070B5044600250FE05CB12146DF4827F0B5
:10061000FEF900BF8021DD4827F0A9FA0028F9D0B3
:1006200000E070BD681CC5B2032DEDDB00BFF8E72C
:1006300013B50C460020FFF7E3FFD5A0FFF7CAFF74
:100640002346D4A29621D44829F0A6FCD248FFF72D
:10065000C1FFD2A0FFF7BEFFCEA29621CE48009BDD
:1006600029F09AFCCC48FFF7B5FFCEA0FFF7B2FF08
:10067000FF20FFF7C5FFFF20FFF7C2FFFF20FFF7B6
:10068000BFFF1CBD70B505460C46C1A0FFF7A2FF19
:100690002246C0A1C04829F097FCBF48FFF79AFF47
:1006A000BEA0FFF797FF2846FFF794FFBDA0FFF716
:1006B00091FFFF20FFF7A4FF70BD77B585B0054619
:1006C000FF26B6A103C9CDE90301B6A000680290D8
:1006D000AFA00068019000240AE00020B24908554C
:1006E000B2490855AC490855A6490855601CC4B222
:1006F0001E2CF2DB0A20A8490870FF204870887081
:10070000C870A4A1A948079A29F05EFCA74901A8CE
:1007100029F0C8F801A9A04829F0C4F803A99E4807
:1007200029F0C0F829469C4829F0BCF899A19F48B7
:10073000069A29F049FC9D49974829F0B3F802A987
:10074000954829F0AFF8FF209749087048708870E5
:10075000914829F0A7F89048FFF71AFF08B070BD3C
:10076000F7B584B005460E46FF278CA103C9CDE935
:1007700002018CA00068019085A000680090002410
:1007800008E00020884908558849085582490855DD
:10079000601CC4B20A2CF4DB0A207F490870FF20D9
:1007A00048708870C8707BA18048069A29F00CFCBC
:1007B0007E49684629F076F86946774829F072F84C
:1007C00002A9754829F06EF82946734829F06AF89D
:1007D0003146714829F066F801A96F4829F062F89E
:1007E000FF2071490870487088700020C870087137
:1007F000694829F057F86848FFF7CAFE07B0F0BD0E
:1008000001B58EB06AA2322101A80E9B29F0C4FB6B
:1008100001A8FFF7BDFE0FB000BD73B584B005465B
:10082000FF265EA103C9CDE902015EA00068019028
:1008300057A00068009000240AE000205A4908559B
:100840005A490855544908554E490855601CC4B2C8
:100850001E2CF2DB0A2050490870FF204870887077
:10086000C8704CA15148059A29F0AEFB4F49684623
:1008700029F018F86946484829F014F802A94648B2
:1008800029F010F82946444829F00CF84749424815
:1008900029F008F801A9404829F004F8FF2042494E
:1008A0000870487088703C4828F0FCFF3A48FFF711
:1008B0006FFE06B070BD10B52DED0C8B82B03F48B9
:1008C00000783E49497808443C49897808443B49C6
:1008D000C9780844394909790844384949790844AC
:1008E0003649897908443549C97908443349097A30
:1008F0000844C0B201903148007A00F00F00009027
:100900009FED2F0AB0EE40DA2C48407A01998842D8
:1009100072D12A48007A00F00F000D286CD12748C8
:100920008078C0F17F0000EE100AB8EEC08A23483C
:10093000C078813800EE100AF8EEC08AB5EEC08AA1
:10094000F1EE10FA03D1B7EE000AB0EE408AF5EEF0
:10095000C08AF1EE10FA03D1B7EE000AF0EE408A39
:10096000BDEEC80A10EE102A002A01DB134600E093
:100970005342BDEEE80A10EE100A002822DB0446BE
:1009800021E0000092070020B860024000500040C3
:1009900074000000256400005C0600202E7478744A
:1009A0003D22000022000000420700201A0700201C
:1009B0006A302E76616C3D25640000001B09002022
:1009C000DB0F49404442191901EBD1735B10FE4C17
:1009D0002360BDEEE80A10EE101A002901DB0A467A
:1009E00000E04A42322A0FDABDEEC80A10EE100AC1
:1009F000002802DB024601E02FE04242322A03DAFD
:100A00000020F249086030E018EE900A29F02FF932
:100A100041EC1B0B18EE100A29F029F941EC1C0BD4
:100A2000B0EE4B1AF0EE6B1AB0EE4C0AF0EE6C0A18
:100A300029F076FCB0EE40AAF0EE60AA9FEDE40B40
:100A400053EC102B51EC1A0B29F000F841EC190B68
:100A500029F0EEF8DD49086007E09DF800000D2858
:100A600003D00021DC4826F0A7FF02B0BDEC0C8BC0
:100A700010BDDA48007A00F00F000D2806D1D748E3
:100A8000007800F0010008B10D2070470020FCE75D
:100A9000D248007800F0100008B100207047012013
:100AA000FCE71CB54FF0804026F058F9CC490968A6
:100AB00040EA01400C2190FBF1F00090002418E086
:100AC0004FF0804026F04AF9C549096840EA0140E4
:100AD0000C2190FBF1F00190DDE90021881A00283B
:100AE00001DB014600E04142052900DA641C01985F
:100AF0000090022CE4DB019840421CBD1CB5B948B3
:100B000026F02CF9B849096840EA01400C2190FB15
:100B1000F1F00090002417E0B24826F01FF9B24926
:100B2000096840EA01400C2190FBF1F00190DDE9F9
:100B30000021881A002801DB014600E04142052916
:100B400000DA641C01980090022CE5DB01981CBDC2
:100B50001CB5A64826F002F9A549096840EA0140FB
:100B60000C2190FBF1F00090002417E09F4826F044
:100B7000F5F89F49096840EA01400C2190FBF1F02B
:100B80000190DDE90021881A002801DB014600E020
:100B90004142052900DA641C01980090022CE5DB33
:100BA00001981CBD1CB5934826F0D8F892490968F5
:100BB00040EA01400C2190FBF1F00090002417E086
:100BC0008C4826F0CBF88C49096840EA01400C219A
:100BD00090FBF1F00190DDE90021881A002801DB8B
:100BE000014600E04142052900DA641C01980090AA
:100BF000022CE5DB01981CBD01B581B000200090FE
:100C0000019800EBC0004000009002E00098401EF8
:100C1000009000980028F9D10CBD01B581B00020EA
:100C2000009044F2506101984843009002E000981F
:100C3000401E009000980028F9D10CBD1CB5012180
:100C40001F2025F0BFF94FF6FF70009001208DF8AE
:100C5000040000208DF8060001208DF80700032015
:100C60008DF805006946654824F066FF4FF6FF7071
:100C7000009001208DF8040000208DF8060001206E
:100C80008DF8070003208DF8050069465C4824F0C4
:100C900053FF4FF6FF70009001208DF804000020F4
:100CA0008DF8060001208DF8070003208DF805005F
:100CB0006946544824F040FF1CBD1CB501217E202C
:100CC00025F080F94FF4CE50009000208DF80400FC
:100CD00001208DF8070002208DF8050069464A487A
:100CE00024F02AFF4FF6C740009000208DF8040042
:100CF00001208DF8070002208DF8050069463F4865
:100D000024F01AFF4FF47170009000208DF8040059
:100D100001208DF8070002208DF80500694638484B
:100D200024F00AFF4CF60340009000208DF80400E8
:100D300001208DF8070002208DF805006946314832
:100D400024F0FAFE4FF42660009000208DF8040095
:100D500001208DF8070002208DF8050069462B4818
:100D600024F0EAFE1CBD1FB54FF4E06024F006FE3F
:100D700036208DF8000000208DF801008DF802006B
:100D800001208DF80300684624F0FDFD01211020AC
:100D900025F04BF93220ADF8040040F2E730029024
:100DA0000020ADF80C00ADF8060001A9184825F0A8
:100DB00088FF0121164826F04DFC012211461448F7
:100DC00026F020FC002125E0CC000020C8000020F7
:100DD00000000080A9E78140004800401B09002076
:100DE0007000002000040040740000200008004053
:100DF00088000020000C0040780000200004024021
:100E000000080240000C02400000024000100240B6
:100E100000100040FE4825F09DFF0121FC4825F010
:100E2000D9FF1FBD1FB54FF4E06024F0A7FD3720A8
:100E30008DF8000000208DF801008DF802000120DF
:100E40008DF80300684624F09EFD0121202025F046
:100E5000ECF83220ADF8040040F2E73002900020B8
:100E6000ADF80C00ADF8060001A9EA4825F029FF0D
:100E70000121E84826F0EEFB01221146E54826F064
:100E8000C1FB0021E34825F065FF0121E14825F081
:100E9000A1FF1FBD00B58BB00121022025F0D6F8BF
:100EA00001210C2025F08EF803220621DA4824F0D7
:100EB000CEFE03220721D84824F0C9FE03220821D0
:100EC000D54824F0C4FE03220921D34824F0BFFEF4
:100ED0004FF47070069002208DF81C0003208DF8EE
:100EE0001D0000208DF81E0001208DF81F0006A9AE
:100EF000C94824F021FEA420ADF8200040F6B83007
:100F000009904FF48070ADF828000020ADF8220061
:100F100008A9C24825F0D5FE6020ADF804000120E4
:100F2000ADF8060000200390ADF810000121BB4889
:100F300025F050FF0021B94825F00CFF01A9B74862
:100F400025F054FF01A9B54825F089FF01A9B34850
:100F500025F0D2FF01A9B14826F034F80121AF48AD
:100F600026F029FB0BB000BD00B58BB00121082095
:100F700025F05BF80121084625F024F80222002123
:100F8000A74824F064FE02220121A54824F05FFE58
:100F900002221146A24824F05AFE02220321A04850
:100FA00024F055FE0F20069002208DF81C0003202F
:100FB0008DF81D0000208DF81E0001208DF81F0007
:100FC00006A9974824F0B8FDBA20ADF8200042F2F7
:100FD000107009900020ADF82800ADF8220008A993
:100FE000904825F06EFE6020ADF804000120ADF8B9
:100FF000060000200390ADF810000121894825F07B
:10100000E9FE0021874825F0A5FE01A9854825F0C5
:10101000EDFE01A9834825F022FF01A9814825F0B2
:101020006BFF01A97F4825F0CDFF01217D4826F007
:10103000C2FA0BB000BD00B58BB00121042024F032
:10104000F4FF01210D2024F0BDFF02220C2176487F
:1010500024F0FDFD02220D21734824F0F8FD022248
:101060000E21714824F0F3FD02220F216E4824F076
:10107000EEFD4FF47040069002208DF81C00032016
:101080008DF81D0000208DF81E0001208DF81F0036
:1010900006A9654824F050FDA420ADF8200040F6D4
:1010A000B83009904FF48070ADF828000020ADF8FA
:1010B000220008A95D4825F004FE6020ADF8040078
:1010C0000120ADF8060000200390ADF810000121CA
:1010D000564825F07FFE0021544825F03BFE01A92B
:1010E000524825F083FE01A9504825F0B8FE01A919
:1010F0004E4825F001FF01A94C4825F063FF0BB0D5
:1011000000BD00B589B00121080424F09FFF012132
:10111000084624F057FF03221146414824F097FD6A
:10112000032202213E4824F092FD0C20019002206F
:101130008DF8080003208DF8090000208DF80A00C2
:1011400001208DF80B0001A9354824F0F5FC0020A2
:10115000ADF818004FF6FF7007900020ADF82000A2
:10116000ADF81A0006A9324825F0ABFD0420ADF811
:101170000C000020ADF80E00C820ADF814000120CE
:10118000ADF8100003A92A4826F072F900231A4688
:101190000321284826F009FB0121264826F05AFAA7
:1011A00001221146234826F02DFA0121204825F07E
:1011B00011FE00211F4825F0CDFD09B000BD00B58E
:1011C00089B00121084624F030FF0121022024F0DB
:1011D0002CFF0121032024F0F5FE01220F211048ED
:1011E00024F035FD01220321134824F030FD0222B2
:1011F0000421114824F02BFD022205210E4824F081
:1012000026FD3820019002208DF80800032015E00B
:10121000001000400014004000080240000401409B
:1012200000000240000C0040000C0240000800409A
:101230000000014000400140000402408DF8090018
:1012400000208DF80A0001208DF80B0001A9FE484E
:1012500024F072FC4FF40040019002208DF8080049
:1012600003208DF8090000208DF80A0001208DF878
:101270000B0001A9F54824F05FFC0020ADF8180030
:101280004FF6FF7007900020ADF82000ADF81A006F
:1012900006A94FF0804025F014FD06A9EC4825F082
:1012A00010FD0420ADF80C000220ADF80E00142053
:1012B000ADF814000120ADF8100003A9800726F056
:1012C000D7F803A9E24826F0D3F802231A460321EF
:1012D000580726F06AFA02231A460321DC4826F052
:1012E00064FA0121880726F0B5F90121D84826F0D3
:1012F000B1F901221146900726F084F90122114626
:10130000D34826F07FF90121880725F063FD0121EC
:10131000CF4825F05FFD00214FF0804025F01AFDF9
:101320000021CB4825F016FD4FF4C06024F026FBC9
:101330001D208DF8000003208DF8010000208DF89D
:10134000020001208DF80300684624F01CFB1C20DD
:101350008DF8000004208DF8010000208DF80200B7
:1013600001208DF80300684624F00DFB09B000BD94
:1013700000B589B00121084624F068FE0121102043
:1013800024F020FE4FF42060019002208DF8080028
:1013900003208DF8090000208DF80A0001208DF847
:1013A0000B0001A9AB4824F0C7FB01220921A94881
:1013B00024F04DFC01220B21A64824F048FC00201B
:1013C000ADF818004FF6FF7007900020ADF8200030
:1013D000ADF81A0006A9A04825F073FC0420ADF86A
:1013E0000C000020ADF80E000A20ADF8140001201A
:1013F000ADF8100003A9984826F03AF800231A46E1
:101400000321954826F0D1F90121934826F022F9CD
:1014100001221146904826F0F5F801218E4826F069
:1014200019F9012211468C4826F0ECF801218A486E
:1014300025F0D0FC0021884825F08CFC4FF4C060DA
:1014400024F09CFA19208DF8000001208DF801008D
:1014500000208DF8020001208DF80300684624F07A
:1014600092FA09B000BD00B589B00121042024F032
:10147000DCFD0121082024F0A5FD4FF4405001902F
:1014800002208DF8080003208DF8090000208DF857
:101490000A0001208DF80B0001A9704824F04CFBD4
:1014A0000020ADF818004FF6FF7007900020ADF84F
:1014B0002000ADF81A0006A9694825F002FC0222B6
:1014C0000C21664824F0C3FB02220D21634824F05E
:1014D000BEFB0420ADF80C000220ADF80E00C820C1
:1014E000ADF814000120ADF8100003A95C4825F008
:1014F000BFFF02231A460321594826F056F901215D
:10150000574826F0A7F801221146554826F07AF8E8
:101510000121534825F05EFC0021514825F01AFCBA
:1015200000204F491431088001204D4908804FF4B4
:10153000C06024F023FA1E208DF8000004208DF8EE
:10154000010000208DF8020001208DF8030068469C
:1015500024F019FA09B000BD00B589B001210820B6
:1015600024F063FD0121084624F02CFD03200190A6
:1015700002208DF8080003208DF8090000208DF866
:101580000A0001208DF80B0001A9304824F0D4FA9C
:101590000020ADF818004FF6FF7007900020ADF85E
:1015A0002000ADF81A0006A92E4825F08AFB022279
:1015B0000021264824F04BFB02220121234824F07D
:1015C00046FB0420ADF80C000220ADF80E00C82048
:1015D000ADF814000120ADF8100003A9214825F052
:1015E00047FF02231A4603211E4826F0DEF8012198
:1015F0001C4826F02FF8012211461A4826F002F85E
:101600000121184825F0E6FB0021164825F0A2FB31
:1016100000201449143108800120124908804FF439
:10162000C06024F0ABF932208DF8000004208DF862
:10163000010000208DF8020001208DF803006846AB
:1016400024F0A1F909B000BD0004024000000240EE
:10165000000400400010024000000140000C024065
:1016600000080040000C004000B59BB00121FE487E
:1016700024F0A8FC0121080224F0E8FC00200290DC
:10168000FA480390FA480490002005900E20069036
:10169000002007904FF4806008904000099080007F
:1016A0000A9040110B9040020C9000200D900120F8
:1016B0000E9000200F90109002A9EE4825F094F8AB
:1016C0000121EC4825F0CAF8FC20009003208DF899
:1016D000040000208DF807006946E74824F02CFA42
:1016E0004FF44070009003208DF8040000208DF826
:1016F00007006946E14824F01FFA3F2000900320CC
:101700008DF8040000208DF807006946DC4824F0BD
:1017100013FA002011904FF44030129000201390E3
:10172000149011A824F0C6FD4FF080701590012090
:101730008DF858008DF859000020179018901990D6
:101740000E208DF8680015A9C8484C3824F083FD98
:10175000072301220221C5484C3824F002FE07234A
:1017600002220321C1484C3824F0FBFD0723032249
:101770000421BE484C3824F0F4FD0723042205213F
:10178000BA484C3824F0EDFD072305220621B7485E
:101790004C3824F0E6FD072306221946B3484C389E
:1017A00024F0DFFD07231A460821B0484C3824F006
:1017B000D8FD072308220921AC484C3824F0D1FD7C
:1017C000072309220A21A9484C3824F0CAFD07231F
:1017D0000A220B21A5484C3824F0C3FD07230B2215
:1017E0000C21A2484C3824F0BCFD07230C220D210B
:1017F0009E484C3824F0B5FD07230D220E219B484E
:101800004C3824F0AEFD07230E220F2197484C38A8
:1018100024F0A7FD012195484C3824F04DFE01210C
:1018200092484C3824F03DFE012190484C3824F079
:1018300058FD8E484C3824F0F0FD1BB000BD08B5B3
:101840004FF4E06024F09AF825208DF80000002085
:101850008DF801008DF8020001208DF80300684624
:1018600024F091F808BD10B596B00446012110206F
:1018700024F0ECFB0121084624F0A4FB012188059B
:1018800024F0A0FB4FF4C060009002208DF804000B
:1018900000208DF806008DF8070002208DF8050065
:1018A0006946754824F048F907220921724824F056
:1018B000CEF907220A21704824F0C9F902940020C9
:1018C000ADF80C00ADF80E00ADF81000ADF8140046
:1018D0000C20ADF8120002A96A4825F0E5FF0121AD
:1018E000684826F069F84FF4A06024F047F83A20E1
:1018F0008DF8180000208DF819008DF81A000120CD
:101900008DF81B0006A824F03EF85A48303024F029
:10191000C9FE4FF00060079000200A905A480990D5
:101920000A200B905748001D089000200C904FF49F
:1019300080600D9000200E900F904FF480701090FA
:101940004002119004201290032013900020149064
:10195000159007A94748303024F046FF0122402166
:10196000484826F0D6F8012210214248303025F0B0
:1019700002F801213F48303024F070FF16B010BD4E
:1019800010B596B004460121480524F01BFB012147
:10199000480424F04AFB0121082024F013FB6020B6
:1019A000009002208DF8040000208DF806008DF8CC
:1019B000070002208DF805006946344824F0BCF881
:1019C00007220521314824F042F9072206212F4839
:1019D00024F03DF902940020ADF80C00ADF80E00A3
:1019E000ADF81000ADF814000C20ADF8120002A9FB
:1019F000274825F059FF0121254825F0DDFF4FF448
:101A0000A06023F0BBFF11208DF8180000208DF896
:101A100019008DF81A0001208DF81B0006A823F08C
:101A2000B2FF1C4824F03EFE4FF0006007904020BB
:101A30000A901948099050200B901548001D0890F5
:101A400000200C904FF480600D9000200E900F90BD
:101A50004FF48070109040021190042012900320E7
:101A600013900020149019E0070040004C20014022
:101A7000BE08002010640240000002400004024042
:101A80000008024000100140DA080020000C02406B
:101A900000440040A060024004000020159007A907
:101AA000FE4824F0A1FE01228021FD4826F031F8F5
:101AB00001228021FA4826F02CF801221021F74853
:101AC00024F059FF0121F54824F0C8FE16B010BDDE
:101AD00010B596B004460121880424F0A6FA01212D
:101AE000082024F06FFA0121480524F06BFA4FF426
:101AF0004070009002208DF8040000208DF8060050
:101B00008DF8070002208DF805006946E54824F0AD
:101B100013F807220821E34824F099F80722092145
:101B2000E04824F094F802940020ADF80C00ADF8E1
:101B30000E00ADF81000ADF814000C20ADF8120046
:101B400002A9D94825F0B0FE0121D74825F034FF7D
:101B50004FF4A06023F012FF0C208DF81800002035
:101B60008DF819008DF81A0001208DF81B0006A8C9
:101B700023F009FFC948783824F094FD4FF0006045
:101B8000079000200A90C94809900A200B90C64887
:101B9000001D089000200C904FF480600D900020F4
:101BA0000E900F904FF4807010904002119004201E
:101BB00012900320139000201490159007A9B748A5
:101BC000783824F011FE01224021B74825F0A1FF0A
:101BD00001224021B44825F09CFF01221021AF488A
:101BE000783824F0C8FE0121AC48783824F036FE5D
:101BF00016B010BD10B596B004460121C80424F0FB
:101C000014FA0121042024F0DDF90121480524F013
:101C1000D9F94FF44060009002208DF804000020B4
:101C20008DF806008DF8070002208DF80500694642
:101C30009F4823F081FF08220A219D4824F007F8DD
:101C400008220B219A4824F002F802940020ADF8F3
:101C50000C00ADF80E00ADF81000ADF814000C202B
:101C6000ADF8120002A9934825F01EFE012191480B
:101C700025F0A2FE4FF4A06023F080FE0D208DF829
:101C8000180003208DF8190001208DF81A008DF836
:101C90001B0006A823F077FE8048603824F002FD80
:101CA0004FF00060079000200A90834809900820B8
:101CB0000B908048001D089000200C904FF480602D
:101CC0000D9000200E900F9010904FF40030119066
:101CD000002012900320139000201490159007A963
:101CE0006E48603824F080FD01224021714825F0C3
:101CF00010FF012280216F4825F00BFF01221021E7
:101D00006648603824F037FE01216448603824F0CA
:101D1000A5FD16B010BD70B5684C2468642C00DBBE
:101D200070BD674C248804EB8404664D2C446070BD
:101D3000634C248804EB84042C44A170604C2488F8
:101D400004EB84042C44E2705D4C248804EB84048E
:101D50002C4423715A4C2488641C642594FBF5F6AA
:101D600005FB1644564D2C80544C2468641C534D7E
:101D70002C6000BFD4E701465048006808B9002035
:101D800070475148008800EB80004E4A10440268BA
:101D90000A60007908710120F2E7014647480068AF
:101DA00008B9002070474848008800EB8000454A89
:101DB000104402680A600079087143480088401C9A
:101DC000642290FBF2F302FB13003F4A10803B4871
:101DD0000068401E394A10600120E3E70CB56846F0
:101DE000FFF7DBFF0020394908700CBD0346012BCB
:101DF00003DB062B01DC18467047012903DB0629AB
:101E000001DC0846F8E7012A03DB062A01DC10465C
:101E1000F2E70020F0E710B58C202D4908604FF460
:101E200096702C4908608C202B4908604FF4FA709A
:101E30002A49086000BF2A4909682A4A1268881A94
:101E4000002801DB014600E04142822905DB2648EB
:101E5000C07F40F004002449C87700BF4FF47A7077
:101E600027F0CCF800BF1E4909681E4A1268881A7C
:101E7000002801DB014600E04142822905DB1A48C7
:101E8000C07F40F008001849C87700BF4FF47A704F
:101E900027F0B4F800BF1249096827E0A0600240AB
:101EA00000440040000C0240004800401B09002094
:101EB00000080240004C0040DB020020F802002035
:101EC000FC0200202A090020FE020020010300205D
:101ED000C0040020A4040020C4040020B00400209A
:101EE000C0000020C400002004000020FE4A126848
:101EF000881A002801DB014600E04142822905DB07
:101F0000FA48C07F40F04000F849C87700BF4FF45E
:101F10007A7027F073F800BFF5490968F24A126831
:101F2000881A002801DB014600E04142822905DBD6
:101F3000EE48C07F40F01000EC49C87700BF4FF476
:101F40007A7027F05BF810BD10B5EA480078E949CF
:101F500049780844E74989780844E649C97808443B
:101F6000E44909790844E34949790844C4B2E1489D
:101F70000078022800D010BDDE48C079032800D0C8
:101F8000F9E7DC488079A0427DD1DA484078DA4927
:101F90000870D8488078D9490870D648C078D849A0
:101FA0000870D4480079D7490870D2484079D6499A
:101FB0000870D1480078012808D1D048007802285C
:101FC00004D108460078D149086028E1CA48007861
:101FD000022807D1C9480078012803D10020CC4944
:101FE00008601CE1C448007802280AD1C348007880
:101FF0000A2806D1C2480078012802D1C5490860E4
:102000000DE1BD48007802280AD1BC4800780A28B2
:1020100006D1BB480078022802D1BE490860FEE024
:10202000B548007802280AD1B4480078092806D1BA
:10203000B3480078012802D1B7490860EFE0AE4804
:10204000007802280AD1AD480078092806D1AC48AA
:102050000078022802D1B0490860E0E0A648007884
:10206000022856D1A5480078022852D1A648037804
:10207000A4480278A2480178A0480078FFF74BFEF8
:102080009A48C07F00E0C1E040F002009749C8775D
:102090009B48007880B99B480078012807D0994870
:1020A0000078022803D097480078032804D19B4881
:1020B0000068401C994908609148007804280BD1B9
:1020C00090480078052807D10120954908608E487E
:1020D0000078944908600CE089480078042808D109
:1020E00088480078062804D100208D4908608E4970
:1020F000086083480078052891D182480078052837
:1021000006D10120884908607F4800788549086029
:1021100085E07948007802281BD1784800780328A8
:1021200017D1794802787748017875480078FFF729
:102130005DFE7E4908606D48C07F40F002006B493B
:10214000C8777A480068002869D00120784908607B
:1021500065E069480078022823D16848007804289F
:102160001FD16748007801280BD166480078012804
:1021700007D1704908605D48C07F40F002005B49AC
:10218000C8775F4800786C4908605E4800786B4902
:1021900008605D4800786A49086001206549086068
:1021A0003DE055480078022821D1544800780528A0
:1021B0001DD153480078012809D1524800780128E0
:1021C00005D151480078012801D15E4908604C488A
:1021D0000078022823D14B48007802281FD14A48B2
:1021E00000785749086001205749086017E04248C5
:1021F0000078032813D14148007803280FD14048C4
:10220000007803280BD1FFF706FE08E0FF203B49CA
:1022100008703B4908703B4908703B49087000BF93
:10222000A9E63E480068022803D10120474908601A
:1022300002E0002045490860704710B596B004469A
:102240000121480523F0BEFE0121080523F0EDFE23
:1022500001210C2023F0B6FE0420009002208DF80E
:10226000040000208DF806008DF8070002208DF88C
:1022700005006946364823F05FFC4FF4805000901B
:1022800002208DF8040000208DF806008DF807006C
:1022900002208DF8050069462E4823F04DFC0822E7
:1022A00002212B4823F0D3FC08220C21294823F0DB
:1022B000CEFC4FF4A06023F061FB2F208DF81800B6
:1022C00005208DF819008DF81A0001208DF81B00EB
:1022D00006A823F058FB0B208DF8180005208DF878
:1022E00019008DF81A0037E0C40000200400002017
:1022F000C0000020DB020020E3020020E4020020F6
:10230000E5020020E6020020E7020020140300207E
:102310001C03002038030020400300204803002055
:1023200004030020100300200C03002020030020E1
:10233000440300203C030020240300202803002045
:102340002C03002030030020340300205C02002016
:10235000000C02400008024001208DF81B0006A876
:1023600023F011FB02940020ADF80C00ADF80E0034
:10237000ADF81000ADF814000C20ADF8120002A961
:10238000FC4825F091FA0121FA4825F015FBFA489E
:1023900024F088F94FF00060079040200A90F74839
:1023A00009900A200B90F348001D089000200C9023
:1023B0004FF480600D9000200E900F9010904FF41D
:1023C00000301190002012900320139000201490F0
:1023D000159007A9E84824F007FAE748A83824F040
:1023E00061F94FF00060079000200A90E4480990DE
:1023F00005200B90DF48001D089000200C904FF442
:1024000080600D9000200E900F9010904FF40030DF
:10241000119000201290032013900020149015902A
:1024200007A9D548A83824F0DFF901228021D14836
:1024300025F06FFB01224021CE4825F06AFB0122E6
:102440001021CD4824F097FA01221021CA48A8385B
:1024500024F091FA0121C84824F000FA0121C6486D
:10246000A83824F0FBF916B010BD10B596B004469C
:102470000121202023F0EAFD0121042023F0A2FD08
:102480000121880523F09EFDC020009002208DF8D8
:10249000040000208DF806008DF8070002208DF85A
:1024A00005006946B74823F047FB08220621B548D6
:1024B00023F0CDFB08220721B24823F0C8FB029489
:1024C0000020ADF80C00ADF80E00ADF81000ADF82E
:1024D00014000C20ADF8120002A9AB4825F0E4F975
:1024E0000121A94825F068FA4FF4A06023F046FACC
:1024F00039208DF8180003208DF8190001208DF87F
:102500001A008DF81B0006A823F03DFA9F4824F01E
:10251000C9F84FF02060079000200A909C4809906D
:1025200008200B909848001D089000200C904FF454
:1025300080600D9000200E900F9010904FF40030AE
:1025400011900020129003201390002014901590F9
:1025500007A98E4824F048F9012240218A4825F035
:10256000D8FA01228021884825F0D3FA01221021CF
:10257000864824F000FA0121844824F06FF916B04F
:1025800010BD83490978824A52781144804A927872
:1025900011447F4AD27811447D4A127911447C4A11
:1025A00052791144C8B27A490978022900D070479B
:1025B0007749C979032900D0F9E7754989798142BA
:1025C00018D173494978734A117071498978724AF0
:1025D00011706F49C978714A11706D490979704A53
:1025E00011706B4949796F4A11706D4909786E4ACB
:1025F000117006E0FF21694A1170694A1170694A39
:10260000117000BFD3E700B585B00121082023F089
:10261000D9FC0121880323F019FD00208DF810005A
:1026200001208DF813000C20039003A95F4823F0CC
:1026300083FA0221032025F005FB042000900020EE
:102640008DF8040010208DF8050001208DF806009B
:10265000684624F009FA08208DF8080000208DF85B
:1026600009008DF80A0001208DF80B0002A823F064
:102670008AF905B000BD70B504460D46012C0BD19A
:1026800029464B4825F0C3F900BF4021484825F0B2
:102690006EFA0028F9D036E0032C0BD129464548C4
:1026A00025F0B5F900BF4021424825F060FA002826
:1026B000F9D028E0042C0BD129463F4825F0A7F992
:1026C00000BF40213C4825F052FA0028F9D01AE01A
:1026D000052C0BD12946274825F099F900BF402148
:1026E000244825F044FA0028F9D00CE0062C0AD141
:1026F0002946254825F08BF900BF4021224825F0C6
:1027000036FA0028F9D070BD2DE9F04702240125E2
:10271000022600274FF000084FF0030960193044EB
:102720003844404425490978084400F0FF0A21460E
:102730000420FFF7A0FF29460420FFF79CFF314645
:102740000420FFF798FF39460420FFF794FF414625
:102750000420FFF790FF194801780420FFF78BFF52
:1027600051460420FFF787FF49460420FFF783FF07
:10277000BDE8F08700500040B8600240920700209A
:102780001E0B002000080240001401402864024093
:102790004C03002054030020550300205603002062
:1027A000570300205803002059030020000C02406A
:1027B0000010014000480040004C0040140300207D
:1027C0000020FE494862FE490860FE490860FE4953
:1027D000086070470020F9494862F94908604FF0E5
:1027E00080414862F9490860F9490860F949086080
:1027F000F4490860F4490860F7490860F74908603F
:10280000704700204FF080414862F04908607047EF
:102810000020EF490860EF490860704710B50020BC
:10282000EF490870002407E061210120FFF723FF32
:102830003220FEF7F2F9641C022CF5D30120E8499E
:1028400008707A20E749087010BD10B50020E649ED
:102850000870002407E061210320FFF70CFF3220FD
:10286000FEF7DBF9641C022CF5D30120DE49087069
:102870007A20DE49087010BD2DE9F14FAEB0DCA022
:102880002D9000202C908DF888008DF860002E98F7
:1028900029283DD2DFE800F0153D464D545B6269C2
:1028A00070777E858C939AA1A8FDFCFBFAF9F8F766
:1028B000F6F5F4F3F2F1F0EFEEEDECEBEAE9E8E730
:1028C000E6000221D34823F099F988B100224FF4A1
:1028D0000041D14823F0B0F94FF40041CE4823F035
:1028E0009AF9044600222146CCA0FDF7E6FE0FE04F
:1028F0000122D103C84823F09FF94FF40041C64894
:1029000023F089F9044600222146CCA0FDF7D5FE2C
:1029100059E30122D148B0F900004142D0A0FDF7AF
:10292000CCFE50E30222D0480168D0A0FDF7C5FEDE
:1029300049E30322D1480168D1A0FDF7BEFE42E37E
:102940000422D4480168D4A0FDF7B7FE3BE305227A
:10295000D5480168D5A0FDF7B0FE34E30622D7487C
:102960000168D7A0FDF7A9FE2DE30722D74801682B
:10297000D7A0FDF7A2FE26E30822D9480168D9A016
:10298000FDF79BFE1FE30922DA480168DAA0FDF794
:1029900094FE18E30A22DC480168DCA0FDF78DFEF6
:1029A00011E30B22DC480168DCA0FDF786FE0AE398
:1029B0000C22DE480168DEA0FDF77FFE03E30D2256
:1029C000E0480168E0A0FDF778FEFCE20E22E24854
:1029D0000168E2A0FDF771FEF5E2E44841890F22AB
:1029E000E3A0FDF76AFEEEE20121E54823F006F9D7
:1029F0004FF400511790884823F000F90446022153
:102A0000DF4823F0FBF805464FF48041824823F06D
:102A1000F5F806460421DA4823F0F0F84FF40041B7
:102A20001690D74823F0EAF807460821D44823F047
:102A3000E5F880464FF48041D14823F0DFF8814625
:102A40001021CF4823F0DAF84FF400511590CC480C
:102A500023F0D4F882460821CA4823F0CFF84FF477
:102A6000805117E0A8E29BE28EE281E274E26BE221
:102A700063E25AE250E246E23CE232E226E21AE245
:102A80000DE201E2F4E1E7E1DFE1D2E1CAE1C2E116
:102A9000BAE13CE01490BA4823F0B0F8102113904A
:102AA000B84823F0ABF84FF480611290B44823F09B
:102AB000A5F883468021B24823F0A0F84FF4807136
:102AC0001190AF4823F09AF810901798CDE90B6554
:102AD000CDE90D401698CDE90798CDE90970DDE9FB
:102AE00014211398CDE9042A06910390DDE9110120
:102AF000CDE901B10090A4A2282122A8109B27F0C3
:102B00004BFA102222A9A9A0FDF72AFE5BE2802140
:102B1000404823F073F8044601213E4823F06EF844
:102B2000054640213B4823F069F806464FF4004132
:102B3000944823F063F807464FF480519C4823F0F3
:102B40005DF880464FF48061324823F057F88146A3
:102B50004FF40061964823F051F84FF4006117904C
:102B60002C4823F04BF882464FF48061854823F0CF
:102B700045F883464FF48051264823F03FF84FF440
:102B8000006116907F4823F039F84FF400511590FA
:102B9000204823F033F84FF480411490794823F013
:102BA0002DF84FF4804113901A4823F027F84FF482
:102BB000807112907E4823F021F8FBE00000014074
:102BC0006C000020240800408800002070000020D5
:102BD0002404004074000020240C004078000020F1
:102BE0009300002092000020950000209400002017
:102BF00031313131313131313131313131313131C5
:102C000031313131313130313131313131313131B5
:102C1000000000000004024000080240524F424FF2
:102C20005420322044414E472043484159205341CB
:102C30004E2058414E483A2020200000524F424F2B
:102C40005420322044414E472043484159205341AB
:102C50004E20444F3A202020000000008C0000202D
:102C6000494D553A00000000A40000204C617A65EF
:102C70007220706861693A2000000000B8000020EE
:102C800054726F206368616E205472756F633A20CE
:102C900000000000A00000204C617A657220747270
:102CA00061693A2000000000BC00002054726F20CF
:102CB0006368616E205361753A200000980000201F
:102CC0004C617A6572207361753A2000C000002063
:102CD00054726F2064617920746179203120000082
:102CE0009C0000204C617A6572207472756F6320BD
:102CF00000000000C400002054726F20646179203D
:102D00007461792032200000400300206D6F6465FB
:102D10002062616320332000B000002054726F20D5
:102D2000786F6179207461792000000038030020F9
:102D30006D6F64655F636861795F72756E673A2075
:102D4000000000002C0300206E6861745F646174F1
:102D50005F686F70200000003C0300206D6F6465A9
:102D6000206E68617420686F70200000BE0800202B
:102D70005175616E675F74726F203A200000000029
:102D800000100240000C024025642564256425647F
:102D900025642564256425642564256425642564EB
:102DA000256425642564256400000000493A00007C
:102DB000000002404FF400411190FD4822F01EFF38
:102DC000CDE90B76CDE90D5410901798CDE907A009
:102DD000CDE90998DDE914121698CDE9050BCDE986
:102DE0000312DDE911121398CDE900120290AFF23F
:102DF0006802282122A8109B27F0CEF8112222A9D0
:102E0000ECA0FDF7ADFCDEE01222EC480168ECA07E
:102E1000FDF753FCD7E01322EE480168EEA0FDF762
:102E20004CFCD0E01422EF480168EFA0FDF745FC10
:102E3000C9E04FF40061F14822F0E0FE044615229B
:102E40002146EFA0FDF739FCBDE0F148018A1622CA
:102E5000F0A0FDF732FCB6E04FF40071E74822F035
:102E6000CDFE044617222146EDA0FDF726FCAAE080
:102E70004FF48071EE4822F0C1FE0446182221462C
:102E8000ECA0FDF71AFC9EE02021DC4822F0B6FE03
:102E9000044619222146EBA0FDF70FFC93E04FF406
:102EA0000071E34822F0AAFE04461A222146E9A056
:102EB000FDF703FC87E04021D04822F09FFE044646
:102EC0001B222146E7A0FDF7F8FB7CE00121E94841
:102ED00022F094FE04461C222146E7A0FDF7EDFBFC
:102EE00071E0FDF70BFE04461D222146E4A0FDF72C
:102EF000E4FB68E0FDF7D5FD04461E222146E4A070
:102F0000FDF7DBFB5FE0FDF74DFE04461F22214687
:102F1000E3A0FDF7D2FB56E0FDF71AFE044620229F
:102F20002146E3A0FDF7C9FB4DE02122E448B0F9BA
:102F30000010E4A0FDF7C1FB45E02222E44801684F
:102F4000E4A0FDF7BAFB3EE02322E548B0F900100B
:102F5000E4A0FDF7B2FB36E04FF40061C54822F073
:102F60004DFE044624222146E1A0FDF7A6FB2AE0FF
:102F70004FF48061BF4822F041FE044625222146DD
:102F8000DEA0FDF79AFB1EE04FF48051884822F046
:102F900035FE044626222146DBA0FDF78EFB12E01B
:102FA0004FF40051824822F029FE04462722214690
:102FB000D8A0FDF782FB06E02822D9480168D9A0F5
:102FC000FDF77BFB00BF00BF2FB0BDE8F08F10B551
:102FD0000121D74823F042FC10BD01B5D548006857
:102FE0000099884203DD0020D249086004E0D148FE
:102FF0000068401CCF490860CE480068FFF73CFCE1
:1030000008BD01B59DF80000052801DA002008BDC3
:103010009DF80000FBE730B504461D4624B9C648BC
:103020000078C64BD87011E0002C07DDE0B2FFF746
:10303000E8FFC24BD8700020987007E06342D8B216
:10304000FFF7DFFFBD4BD8700120987021B9BA4857
:103050000078BA4BD87111E0002907DDC8B2FFF73C
:10306000D0FFB64BD8710120987107E04B42D8B21F
:10307000FFF7C7FFB14BD8710020987122B9AE4855
:103080000078AE4BD87211E0002A07DDD0B2FFF70E
:10309000B8FFAA4BD8720120987207E05342D8B209
:1030A000FFF7AFFFA54BD8720020987225B9A24850
:1030B0000078A24BD87311E0002D07DDE8B2FFF7CE
:1030C000A0FF9E4BD8730020987307E06B42D8B2E4
:1030D000FFF797FF994BD8730120987330BD974A3B
:1030E000D070D071D072D07370479448C0780328E4
:1030F0000DDA9248C079032809DA9048C07A03288B
:1031000005DA8E48C07B032801DA012070470020D1
:10311000FCE701208A49086070478A48006847F246
:103120003051884201D0012070470020FCE710B5E3
:10313000FFF774FB10BD8448B0F9000040427047AF
:10314000B5EEC00AF1EE10FA09D28048D0ED000ABF
:1031500070EE600AFDEEE00A10EE900A70477B48C0
:10316000D0ED000A70EE200AFDEEE00A10EE900AA3
:10317000F4E710B52DED0A8B044624B99FED740ACF
:10318000BDEC0A8B10BD002C11DA7248006826F0E5
:103190003EFD41EC190B204626F039FD41EC1C0B9D
:1031A0009FED6D0B53EC102B26F050FCD8E0ECE0BB
:1031B00000040240696E323A00000000F80200206C
:1031C000636F756E745F646174615F75617274348E
:1031D0002000000014030020626C6F636B5F706856
:1031E000613A2000100300207365655F52315F74FF
:1031F00072656E5F72756E672000000000100240FD
:1032000043425F4E616E675F747261692000000027
:10321000BE0800205175616E675F74726F322000C6
:1032200043425F4E616E675F706861690000000035
:1032300000080240636865636B5F686F705F313AD6
:1032400000000000636865636B5F686F705F323A0F
:1032500020000000636865636B5F686F705F333ADE
:1032600020000000636865636B5F686F705F343ACD
:1032700020000000000C02405374617274000000D2
:10328000454E434F4445525F4652282920000000D6
:10329000454E434F4445525F464C282920000000CC
:1032A000454E434F4445525F5252282920000000AA
:1032B000454E434F4445525F524C282920000000A0
:1032C00090000020494D55786F6179446F6320006C
:1032D0002003002069645F6461745F686F70200080
:1032E0008E000020494D55786F61793A000000004A
:1032F00043425F6B65705F345F31200043425F6B18
:1033000065705F345F32200043425F6B65705F32EF
:103310005F32200043425F6B65705F325F31200097
:1033200060030020636865636B5F74696D652000EE
:10333000A060024084000020A803002004000020B8
:103340000C040020D00300208C0000206803002023
:1033500000000000BC030020333333333333C33F5A
:1033600041EC1B0B9FEDFE0B53EC102B26F068FB82
:1033700041EC1A0B53EC192B26F0DAFB41EC180B3D
:1033800026F0A0FC00EE100AFAE6F748006826F0E6
:103390003EFC41EC190B204626F039FC41EC1C0B9D
:1033A0001FED130B53EC102B26F050FB41EC1B0BC5
:1033B0009FEDEB0B53EC102B26F0A1FA41EC1A0B0E
:1033C00053EC192B26F0B4FB41EC180B26F07AFCD9
:1033D00000EE100AD4E6F0EE400AF5EEC00AF1EE77
:1033E00010FA02DBB0EE600A7047B1EE600AFBE74C
:1033F0000146002901DB084670474842FCE70146C8
:10340000DA48D0ED000AF1EE600AD948D0ED001A92
:1034100080EEA11A00EE901AF8EEE01AD348D0ED33
:10342000000A41EE210AB0EE600AFDEEC00A10EE7D
:10343000900A7047B0EE402ADFEDCE2AB0EE620A65
:10344000B5EEC02AF1EE10FA03D2F1EE422AB0EE48
:10345000622AF5EEC00AF1EE10FA03D2F1EE602A0C
:10346000F0EE620AB5EEC01AF1EE10FA03D2F1EEF8
:10347000412AB0EE621AF5EEC01AF1EE10FA03D24C
:10348000F1EE612AF0EE621AB4EEC02AF1EE10FA03
:1034900001DDB0EE420AF4EEC00AF1EE10FA01DDF1
:1034A000B0EE600AB4EEC01AF1EE10FA01DDB0EE33
:1034B000410AF4EEC01AF1EE10FA01DDB0EE610A35
:1034C0007047A94800687047AB480068704710B55E
:1034D0002DED028BB0EE408AA848006847F23051CB
:1034E00088420ED11FED660AA54880ED000AA54866
:1034F00080ED000AA44880ED000AA44880ED000A8F
:103500004AE0A3480068A3490968401A9B49096832
:10351000081A00EE100AB8EEC00AF0EE408A9E4883
:10352000D0ED000A88EEA00A9C48D0ED000A30EEEB
:10353000200A9B48D0ED000A20EE200AF0EE408AD7
:10354000B0EE680A27F06AFDF0EE000A20EE200ACD
:103550008B4880ED000AB0EE680A26F0D9FFF0EE45
:10356000000A20EE200A874880ED000A844890ED8A
:10357000000A8C48D0ED000A30EE200A834880ED26
:10358000000A804890ED000A8648D0ED000A30EE2F
:10359000600A7D4880ED000AB5EEC08AF1EE10FAAF
:1035A00073D081480068052820D2DFE800F00320AE
:1035B0003A546F00754890ED000A30EE080A80ED2D
:1035C000000A714890ED000A30EE480A80ED000ACA
:1035D0006C4890ED000A30EE080A80ED000A684859
:1035E00090ED000A30EE480A80ED000A68E0664877
:1035F00090ED000A30EE480A80ED000A614890ED37
:10360000000A30EE080A80ED000A5D4890ED000ADD
:103610006648D0ED000A08EE600A594880ED000ABD
:103620004EE05A4890ED000A30EE080A80ED000A9C
:10363000544890ED000A5D48D0ED000A08EE200ADB
:10364000504880ED000A4E4890ED000A30EE480ADE
:1036500080ED000A34E04D4890ED000A30EE080A93
:1036600080ED000A484890ED000A5048D0ED000A6D
:1036700008EE600A444880ED000A414890ED000AD7
:1036800030EE480A80ED000A1AE01AE03F4890ED5B
:10369000000A4648D0ED000A08EE200A3B4880EDBB
:1036A000000A394890ED000A30EE480A80ED000A21
:1036B000344890ED000A30EE080A80ED000A00BFA1
:1036C00000BF2F48D0ED001A2E4890ED001A2E486A
:1036D000D0ED000A2D4890ED000AFFF7ABFE34480C
:1036E000D0ED000AF8EEE00A80EE801ABDEEC10AC5
:1036F000304880ED000A1C4800682E49096888425D
:1037000003DD2C4800681849086001202A49086038
:10371000BDEC028B10BD10B504460020274908609F
:1037200027480460D4B900200F4908601FEDF80A4B
:103730001C4880ED000A47F23050104908602149CA
:1037400008609FED210A214880ED000A00201649FB
:1037500008601F490860084908603BE040E000003D
:103760009A9999999999C93FBC030020A403002014
:10377000A00300206F12833AE8030020D00300204A
:10378000080400200404002000040020FC030020A2
:10379000F0030020DC030020800300208C030020C5
:1037A000B0030020E4030020B803002070030020D1
:1037B00064030020C4030020B4030020C0030020E1
:1037C000C8030020D403002000000000E003002014
:1037D000D8030020FE4908601FED050AFFF777FEB9
:1037E00010BD10B5FB4890ED000AB5EEC00AF1EE31
:1037F00010FA05D1F848006810B9F848006890B18F
:103800001FED0F0AF34880ED000A0020F24908601E
:10381000F2490860F2480068F2490860ED4890ED0E
:10382000000AFFF754FE10BDEF48C0ED000AEF4854
:1038300080ED000A704770B52DED028B05460C46F1
:10384000B0EE408AEA480068A8420BD1E948006817
:10385000A04207D1E84890ED000AB4EE480AF1EE24
:1038600010FA18D0E3480460E448006810B9052055
:10387000E2490860DA480068DA490860DE4880ED0D
:10388000008ADB4805600020DD490860D14890EDE2
:10389000000AFFF71CFEBDEC028B70BD70B52DED6C
:1038A000028B0446B0EE408A0D46CC480068A04228
:1038B0000BD1C84890ED000AB4EE480AF1EE10FAB8
:1038C00003D1C5480068A8423AD0C948006847F209
:1038D0003051884225D12820C6490860C748006871
:1038E00010B90A20C549086047F23050844218DAFE
:1038F0000120C4490860B5EEC08AF1EE10FA03DD7C
:10390000B7480068A04208DCB5EEC08AF1EE10FAB4
:1039100007D2B3480068A04203DAB1EE480AB0EE1D
:10392000408AAE480460AC480560AA4880ED008A31
:103930000020B3490860A74890ED000AFFF7C7FDD3
:10394000BDEC028B70BD10B52DED028BB0EE408A40
:1039500004462146B0EE480A47F23050FFF79EFF7A
:10396000BDEC028B10BD70B504460D461FED6A0A12
:1039700029462046FFF75FFF70BD70B52DED088B1F
:10398000F0EE408A0446B0EE608AB0EE419A9E485E
:1039900090ED000AB8EEC00AB4EE680AF1EE10FA33
:1039A0000DD194480068A04209D18C4890ED000ADE
:1039B000B8EEC00AB4EE480AF1EE10FA5ED0BDEEE1
:1039C000E80A914880ED000A854991ED000AB8EEB9
:1039D000C00A38EEC00ABDEEC00A10EE100A1FED94
:1039E000860A2146FFF727FF7D4890ED000AB8EED2
:1039F000C00A38EE400ABDEEC00A10EE105A002D83
:103A000001DB284600E06842322814DD744890ED5E
:103A1000000AB8EEC00AB4EEC08AF1EE10FA02DD78
:103A2000B0EE490A01E0B1EE490A10EE101A08465C
:103A300026F01DF913E06A4890ED000AB8EEC00ABE
:103A400038EE400A10EE101A084626F010F941EC44
:103A50001B0B9FED6E0B53EC102B25F0F7FF41EC89
:103A60001A0B26F02FF909EE900A0021B0EE690A30
:103A7000FDEEC80A10EE900AFFF710FFBDEC088BB0
:103A800070BD10B55F48006801283DDD53490968E5
:103A9000534A1268881AFFF7ABFC0A280CDA594817
:103AA00001680068401C574A1060B1F5FA7F2BDDB1
:103AB0000020FFF730FE10BD52480068FA2808DDEC
:103AC00005204C4908604D490860FB204D490860BD
:103AD00004E00520474908604849086040480068FC
:103AE0003E490968884205DDBFEE000A394880ED8D
:103AF000000A04E0B7EE000A364880ED000A3548B7
:103B000090ED000AFFF7E3FC00BFD4E710B52DED00
:103B1000028B394890ED000AB5EEC00AF1EE10FABA
:103B200008D13648006828B12C48006847F2305167
:103B3000884202DBBDEC028B10BD264890ED000AE6
:103B4000B5EEC00AF1EE10FA41D02948006847F2FC
:103B5000305188426FD11F4890ED000AB5EEC00A7F
:103B6000F1EE10FA08DD1D4800682A490968401A7C
:103B70001B490968884210DB164890ED000AB5EE33
:103B8000C00AF1EE10FA7CD2144800682149096895
:103B9000084413490968884273DD1A4800680328FD
:103BA00070DA0E4909680E4A1268881AFFF720FC7D
:103BB000082841DA094800681749086000200F49C1
:103BC00008600C4908609FED150A024828E00EE1E4
:103BD0000C040020E0030020B8030020D8030020DC
:103BE000F0030020DC030020A4030020A003002039
:103BF000D0030020C0030020E4030020BC03002009
:103C0000CC030020E8030020D4030020FCA9F1D25B
:103C10004D62803F9C030020EC0300200000000068
:103C200080ED000A0220F7490860F74890ED000A8D
:103C3000FFF74DFC7EE778E0F4480068F449096836
:103C4000884237DDF34890ED000AB8EEC00AEE482E
:103C5000D0ED000A60EE200AEF4890ED000AB8EEC1
:103C6000C00AC0EE801AB0EE611AB0EE410AFFF74A
:103C7000B2FBE6490968E64A1268881AFFF7B8FB02
:103C800001E04CE0B2E000EE900AB8EEE01AE34842
:103C9000D0ED000A40EE010ADE4890ED000AB8EED1
:103CA000C00A80EE801AB0EE418AB0EE480AFFF7F3
:103CB0000EFC9BE0D74890ED000AB8EEC00AD2484F
:103CC000D0ED000A60EE200AD34890ED000AB8EE6D
:103CD000C00AC0EE801AB0EE611AB0EE410AFFF7DA
:103CE0007AFBCA490968CA4A1268881AFFF780FB3A
:103CF00000EE900AB8EEE01AC848D0ED000A50EE87
:103D0000410AC44890ED000AB8EEC00A80EE801A5D
:103D1000B0EE418AB0EE480AFFF7D9FB66E0BA4838
:103D200090ED000AFFF7D3FB60E0B74890ED000A82
:103D3000B5EEC00AF1EE10FA1FDDB44890ED000AAE
:103D4000B8EEC00AB348D0ED000AF8EEE00AAE487B
:103D500090ED001A00EEC10AB148D0ED000AF8EE6D
:103D6000E00A70EE600AAA4890ED000AB8EEC00AB8
:103D7000F4EEC00AF1EE10FA27D3A34890ED000A42
:103D8000B5EEC00AF1EE10FA2BD2A04890ED000A71
:103D9000B8EEC00A9F48D0ED000AF8EEE00A9A4853
:103DA00090ED001A00EEC10A9D48D0ED000AF8EE31
:103DB000E00A70EE200A964890ED000AB8EEC00ABC
:103DC000F4EEC00AF1EE10FA0BDD90490968904A52
:103DD0001268881AFFF7CDF9B0EE408AFFF777FB3B
:103DE00004E0894890ED000AFFF771FBA2E68D49D7
:103DF0000968874A1268881AFFF7BBF9B0EE408A53
:103E0000FFF765FB00BF95E600B57E480068022815
:103E100015DA1FED7E0A844880ED000A1FED810A45
:103E2000794880ED000A00208049086047F2305050
:103E30007F4908607F4908600020744908607E4817
:103E40000068401C7C4908607C490968884204DAA3
:103E50007B480068FFF743F90EE078480068764930
:103E600008607848006820B175480068FFF737F9A6
:103E700002E00020FFF733F900BD6F4A1268521CC0
:103E80006D4B1A60824207DD624A12680A44614B38
:103E90001A600022684B1A6070472DE9F041FFF765
:103EA0004AF95B490860FFF7ECFD674800680028A5
:103EB00021DD584800686449096888422AD055487D
:103EC00000686149096888420EDA524800685F4913
:103ED000096888421EDA4F480068FFF790FA0446E6
:103EE0000121FFF7CAFF15E04FF0FF315848006885
:103EF000FFF7C3FF0EE047480068002806DD6FF0BB
:103F0000010154480068FFF7B8FF03E0FFF77CFFAA
:103F1000BDE8F081504800683D490968884205D0F5
:103F2000FFF7F4FD3A4800684B4908604B480068C9
:103F3000F0B33848D0ED000AF8EEE00A484890EDBA
:103F4000001A60EE810AB0EE600AFFF7F9F8044645
:103F50003048D0ED000AF8EEE00A424890ED001A31
:103F600060EE810AB0EE600AFFF7EAF805462948DC
:103F7000D0ED000AF8EEE00A3B4890ED001A60EE42
:103F8000810AB0EE600AFFF7DBF806462148D0ED63
:103F9000000AF8EEE00A354890ED001A60EE810A5A
:103FA000B0EE600AFFF7CCF8074623462A4600E049
:103FB00002E03146FFF72FF800BFA9E72DE9F047EF
:103FC0002DED048B0646F0EE409A0F46B0EE608A67
:103FD0009046FFF7B0F80546B0EE690AFFF7FBF927
:103FE000F0EE408AB0EE489AC1464FF0000AA6F1C2
:103FF0001004601BFFF7FCF90A2839DCBDEC048BC8
:10400000BDE8F087E8030020E0030020D80300208B
:10401000F0030020BC0300209C0300207C03002050
:1040200098030020DC030020E4030020B8030020F4
:10403000D0030020D4030020CC030020AC030020D8
:10404000A80300200C040020C0030020C4030020AB
:10405000F8030020C8030020F4030020B40300206C
:10406000080400200404002000040020FC030020B9
:10407000AC4218DA3846B1EE680AFFF764FC0CE08F
:10408000BAF1000F09D1281B484506DC3846B1EECD
:10409000490AFFF758FC4FF0010AFFF74CF80546B4
:1040A000A042EDDC17E03846B0EE680AFFF74BFCA3
:1040B0000CE0BAF1000F09D1601B484506DC384618
:1040C000B0EE490AFFF73FFC4FF0010AFFF733F863
:1040D0000546A042EDDB0020FFF71DFB00BFBDEC55
:1040E000048BBDE8F0872DE9F0412DED0C8B0546E2
:1040F0000E4617461C46B54207DB00EE107AB8EEB6
:10410000C00ABDEC0C8BBDE8F081002D04DC00EE94
:10411000104AB8EEC00AF4E700EE105AF8EEC00AF2
:1041200000EE106AB8EEC00AC0EE808AB6EE000A51
:1041300038EEC00AF2EE080A20EE209AB1EE490AE3
:1041400010EE100A25F093FD41EC1D0BB0EE4D0A68
:10415000F0EE6D0A26F084FAB0EE40CAF0EE60CAC6
:104160009FEDFE0B53EC102B51EC1C0B25F0C7FB05
:1041700041EC1B0B53EC1B2B9FEDF80B51EC100B80
:1041800025F0D6FC41EC1A0B25F09CFD08EE100A38
:10419000381B00EE100AF8EEC00A00EE104AB8EE26
:1041A000C00AF0EE409A40EE889AB0EE690AA8E79D
:1041B0002DE9FF4F2DED028B83B004460F4690464C
:1041C000DDE91259A14500DDA146FEF703FB3FE002
:1041D000FCF794FCB0F1000A01DBD34601E0CAF120
:1041E000000BFCF75EFC061E01DB304600E070426F
:1041F000584402900298201A01902B464946089A8A
:104200000198FFF770FFB0EE408A00EE105AB8EE4A
:10421000C00AB4EEC08AF1EE10FA05D200EE105AD0
:10422000B8EEC00AB0EE408AB6EE001A00EE108A70
:10423000F8EEC00ABDEEC80A10EE100A00EE107AC1
:10424000B8EEC00AFFF799FBFCF722FC00B914E0B6
:10425000FCF754FCB0F1000A01DBD34601E0CAF1DF
:10426000000BFCF71EFC061E01DB304600E070422E
:104270005844211A14988142AADC00BF3220FFF76B
:104280004AFA03B0BDEC028BBDE8FF8FB548016868
:104290000068401CB34A1060462907D2B248408BE0
:1042A000B24909680844B14908600BE0AF480068AA
:1042B0004621B0FBF1F0AE4908600020A949086032
:1042C000AA490860AB4801680068401CA94A106010
:1042D000462907D2A448008BA74909680844A64983
:1042E00008600BE0A44800684621B0FBF1F0A34948
:1042F000086000209F4908609F490860A048016845
:104300000068401C9E4A1060462907D29648808A61
:104310009C49096808449B4908600BE0994800687B
:104320004621B0FBF1F098490860002094490860EC
:1043300094490860954801680068401C934A1060E1
:10434000462907D28848C08A91490968084490499B
:1043500008600BE08E4800684621B0FBF1F08D4903
:104360000860002089490860894908608A48016816
:104370000068401C884A1060322907D27A48408978
:10438000864909680844854908600BE0834800684D
:104390003221B0FBF1F08249086000207E490860BC
:1043A0007E4908607F4801680068401C7D4A1060B3
:1043B000322907D26C48C0887B49096808447A4989
:1043C00008600BE0784800683221B0FBF1F07749D3
:1043D00008600020734908607349086074480168E8
:1043E0000068401C724A1060322907D25E488088FB
:1043F0007049096808446F4908600BE06D4800681F
:104400003221B0FBF1F06C49086000206849086077
:1044100068490860694801680068401C674A106084
:10442000462907D25048008965490968084464490B
:1044300008600BE0624800684621B0FBF1F061497A
:10444000086000205D4908605D4908605E480168B9
:104450000068401C5C4A1060462907D24248008828
:104460005A4909680844594908600BE057480068F0
:104470004621B0FBF1F0564908600020524908601F
:1044800052490860534801680068401C514A106056
:10449000462907D2344840884F49096808444E49A4
:1044A00008600BE04C4800684621B0FBF1F04B4936
:1044B000086000204749086047490860704748483D
:1044C00000683D490968401A03EE100AB8EEC33A85
:1044D000F0EE430A434890ED003A23EE203AF0EE26
:1044E000432A3F48006840490968884203DA3E4849
:1044F00000683B4908603A4800683C4909688842BE
:1045000003DD3A48006836490860BDEEE03A13EE34
:10451000100A002801DB014600E0414206296DDD5A
:10452000334890ED003A33EE203A80ED003A90EDBA
:10453000003ADFED303AB4EEE33AF1EE10FA03DD83
:104540009FED2C3A80ED003A294890ED003ADFEDDE
:104550002A3AB4EEE33AF1EE10FA50E0000000001F
:104560000000F03F5C050020BE0800206005002030
:104570009800002064050020680500209C000020B1
:104580006C05002070050020A400002074050020A8
:1045900078050020A00000207C0500208005002078
:1045A000A80000209405002098050020BC000020F1
:1045B0009C050020A0050020B8000020A4050020D4
:1045C000A8050020B0000020BC050020C005002088
:1045D000C0000020C4050020C8050020C400002041
:1045E00080040020DC040020780400207C040020EB
:1045F000E804002000009643000096C38AE003D23E
:104600001FED033A80ED003AFE4890ED003AFE4877
:10461000D0ED003A23EE232AFC4890ED003A30EE2C
:10462000C33AFB48D0ED003A63EE231AF748C0EDD9
:10463000000A32EE823A33EE213AF64880ED003A33
:10464000F5EEC00AF1EE10FA03D20120F2498875A6
:1046500002E00020F0498875EE4991ED003ABDEE88
:10466000C33A13EE100A002801DB014600E0414284
:1046700003EE101AB8EEC33AF0EE083A23EE230A1E
:10468000E64890ED003AB8EEC33AB4EEC30AF1EE54
:1046900010FA05DD90ED003AB8EEC33AB0EE430AE9
:1046A000B3EE043AB4EEC30AF1EE10FA03D2B3EE5D
:1046B000043AB0EE430ADA4890ED003A30EE431A7D
:1046C000B1EE003AB4EEC31AF1EE10FA08DD90ED47
:1046D000003AF1EE003A33EE233AB0EE430A0FE02F
:1046E000B9EE003AB4EEC31AF1EE10FA08D2CC4893
:1046F00090ED003AF1EE003A33EE633AB0EE430A41
:10470000C74880ED000ABCEEC03A13EE100AC24959
:10471000C87513E09FEDC33ABB4880ED003A9FEDAA
:10472000C13ABA4880ED003A0220BB49C875002062
:1047300088759FEDBC3ABA4880ED003A7047BA4898
:104740000068BA490968401A03EE100AB8EEC33A85
:10475000B0EE430AB64890ED003A23EE003AF0EE90
:10476000432AB1480068B3490968884203DAB1486E
:104770000068AD490860AC480068AF4909688842E4
:1047800003DDAD480068A8490860BDEEC03A13EEED
:10479000100A002801DB014600E0414206297CDDC9
:1047A000A64890ED003A33EE003A80ED003A90EDE5
:1047B000003A5FED703AB4EEE33AF1EE10FA03DD41
:1047C0001FED743A80ED003A9C4890ED003A5FEDA1
:1047D000763AB4EEE33AF1EE10FA03D21FED7A3AEC
:1047E00080ED003A964890ED003A9448D0ED003ABA
:1047F00023EE232A934890ED003A30EE433A924854
:10480000D0ED003A63EE231A8E4880ED000A32EEB6
:10481000823A33EE213A8D4880ED003AB5EEC00A77
:10482000F1EE10FA03D200207B49887402E00120E7
:1048300079498874854991ED003ABDEEC33A13EE8B
:10484000100A002801DB014600E0414203EE101A85
:10485000B8EEC33AF0EE083A63EE230A7C4890EDD6
:10486000003AB8EEC33AF4EEC30AF1EE10FA05DDF1
:1048700090ED003AB8EEC33AF0EE430AB3EE043AD4
:10488000F4EEC30AF1EE10FA03D2B3EE043AF0EEFE
:10489000430A704890ED003A00E02BE030EEC31A76
:1048A000B1EE003AB4EEC31AF1EE10FA08DD90ED65
:1048B000003AF1EE003A33EE233AF0EE430A0FE00D
:1048C000B9EE003AB4EEC31AF1EE10FA08D261481C
:1048D00090ED003AF1EE003A33EE633AF0EE430A1F
:1048E0005C48C0ED000ABCEEE03A13EE100A4A49FB
:1048F000C87413E09FED4B3A504880ED003A9FEDAD
:10490000493A504880ED003A02204349C8740120DA
:1049100088749FED443A4F4880ED003A70474E4806
:1049200000684E490968884203DA4C4800684A49E1
:104930000860494800684A490968884203DD4848D8
:1049400000684549086047490968434A1268881A5F
:10495000002801DB014600E04142032932DD4148E5
:1049600000683D490968884203DD00202A498876AD
:1049700002E00120284988763A490968364A1268D7
:10498000881A002801DB014600E0414201EBC10228
:1049900002EB0111344A116010460068334909687E
:1049A000884203DD31480068114608602E480068DF
:1049B000142802DA14202C4908602B480078164984
:1049C000C87602E000201449C8767047284800687D
:1049D00028490968884203DA2648006824490860A3
:1049E0002348006824490968884203DD224800689A
:1049F0001F490860214909681D4A1268881A002861
:104A000040DB3DE0E0040020E8040020EC0400204E
:104A1000E4040020F004002004000020B80400207A
:104A2000F4040020000000008C040020BC000020E2
:104A3000F8040020840400208804002004050020DD
:104A4000FC04002008050020000500200C050020C3
:104A5000B404002010050020A40400209C040020C1
:104A6000A0040020C000002018050020C004002081
:104A7000B0040020A8040020AC040020C4000020E2
:104A8000014600E04142032935DDFB480068FB494F
:104A90000968884204DD0020F94981F82A0003E012
:104AA0000120F74981F82A00F3490968F34A12689E
:104AB000881A002801DB014600E0414201EBC102F7
:104AC00002EB0111EF4A116010460068EE490968D7
:104AD000884203DDEC48006811460860E948006838
:104AE000142802DA1420E7490860E6480078E4490F
:104AF00081F82B0003E00020E14981F82B0070478A
:104B000010B5E2480068E2490968884203DAE048E3
:104B10000068DE490860DD480068DE4909688842AF
:104B200003DDDC480068D9490860DB4B1B68D74CC3
:104B300024681A1B002A01DB134600E05342012BB4
:104B40004EDDD64B1B68D64C2468191B002901DBAF
:104B50000B4600E04B420F2B42DAC74B1B68D14C8F
:104B60002468181B002801DB034600E043420F2B9A
:104B700036DAC9480068C5490968884204DD012061
:104B8000BF4981F8260003E00020BD4981F82600D6
:104B9000C1490968BD4A1268881A002801DB01462C
:104BA00000E04142C1EB0111B64A116010460068B5
:104BB000BD490968884203DDBB48006811460860AA
:104BC000B04800683C2802DA3C20AE490860AD4895
:104BD0000078AB4981F827000020B449086006E05E
:104BE0000020A74981F827000120B049086010BDC6
:104BF0002820AF490860AF49086070475020AC4991
:104C00000860AC49086070478220A9490860A9493A
:104C100008607047AA20A6490860A6490860704746
:104C200000B50246FFF7F0FFA3480260A348026008
:104C300000BD00B50246FFF7DBFF9F4802609F48BA
:104C4000026000BD00B50246FFF7D8FF9A48026037
:104C50009A48026000BD00B50246FFF7DBFF9648A8
:104C600002609648026000BD70B5FA209449086061
:104C70008B48006893490860FA2083490860894896
:104C800000687E49086000208F49086035E006E032
:104C9000012024F0B3F9FBF7FBFE00B927E07F4BBE
:104CA0001B68884C2468191B002901DB0B4600E0B7
:104CB0004B427B4C2468854D2D68621B02EBD274FD
:104CC0006410A342E4DC774B1B68814C24681B1BF7
:104CD000032493FBF4F4684B1B68684D2D68581B44
:104CE000002801DB034600E043429C42D0DB00BFCA
:104CF00075480068401C7449086073480068322891
:104D0000C5DB70BD70B573480068002850D172488B
:104D1000006800284CD171480068002848D17048CC
:104D20000068002844D123E004216E4820F066FF8B
:104D300070B980216C4820F061FF48B99FED6B1A73
:104D4000DFED6B0A14209FED6B0AFEF716FE08E0FC
:104D50009FED661ADFED660A14209FED670AFEF7E5
:104D60000CFE012024F04AF9FBF792FE00B906E0A0
:104D70004FF48071614820F041FF0028D4D000BF7B
:104D80009FED5A1ADFED5A0A0A209FED5D0AFEF7E1
:104D9000F4FD06E0012024F031F9FBF779FE00B9BB
:104DA00005E004214F4820F029FF0028F2D046E119
:104DB0004848006801284FD14748006800284BD177
:104DC00046480068C8BB46480068B0BB23E00421E1
:104DD000444820F013FF70B98021434820F00EFFB3
:104DE00048B99FED421ADFED420A14209FED410AB7
:104DF000FEF7C3FD08E09FED3D1ADFED3D0A1420EC
:104E00009FED3D0AFEF7B9FD012024F0F7F8FBF70E
:104E10003FFE00B906E04FF48071384820F0EEFE06
:104E20000028D4D000BF9FED311ADFED310A0A20EF
:104E30009FED330AFEF7A1FD07E00DE0012024F00D
:104E4000DDF8FBF725FE00B905E00421254820F038
:104E5000D5FE0028F2D0F2E01E48006801280AD1F1
:104E60001D480068012806D11C48006818B91C4874
:104E7000006800B96BE08BE0C4000020B0040020A3
:104E80000400002018050020C4040020980400201D
:104E90009004002094040020B0000020C0000020F6
:104EA000B4010020B8010020BC04002074040020DC
:104EB000B4040020B8040020800400208C040020EA
:104EC000C0040020A40400203C0400209C04002016
:104ED000A80400205C020020600200206402002080
:104EE0006802002000100240000402403333333FC8
:104EF000000061440000C8C3000061C4000002401B
:104F0000000016434FF40061FE4820F077FE70B9B0
:104F10000121FD4820F072FE48B91FED0C1A5FED2B
:104F20000C0A14209FEDF90AFEF727FD08E01FED9B
:104F3000111A5FED110A14201FED110AFEF71DFD75
:104F4000012024F05BF8FBF7A3FD00B906E04FF465
:104F50008071EC4820F052FE0028D3D000BF1FED36
:104F60001D1A5FED1D0A0A209FEDE90AFEF705FDF7
:104F700006E0012024F042F8FBF78AFD00B906E0C4
:104F80004FF40061DF4820F039FE0028F1D056E0F0
:104F9000E0480068012852D1DF48006801284ED15E
:104FA000DE48006801284AD1DD480068B8BB24E02B
:104FB0004FF40061D34820F021FE70B90121D2489E
:104FC00020F01CFE48B91FED371A5FED370A142098
:104FD0009FEDCE0AFEF7D1FC08E01FED3C1A5FED15
:104FE0003C0A14201FED3C0AFEF7C7FC012024F008
:104FF00005F8FBF74DFD00B906E04FF48071C1489C
:1050000020F0FCFD0028D3D000BF1FED481A5FED53
:10501000480A0A209FEDBE0AFEF7AFFC07E00EE04B
:10502000012023F0EBFFFBF733FD00B906E04FF45E
:105030000061B44820F0E2FD0028F1D000BF1FED70
:10504000551A5FED550A0A201FED550AFEF795FC2B
:10505000FDF7C0FB06E0012023F0D0FFFBF718FDB1
:1050600000B911E0FBF74AFD0546FBF71AFD041EE7
:1050700001DB204600E06042002D01DB294600E014
:1050800069420844FA28E6DB00BF0020FEF743FB34
:1050900070BD2DE9F04105460E46E620A1490860A5
:1050A000A1490860A1480068F530A1490860A148FD
:1050B0000068F530A0490860002415E006E00120F2
:1050C00023F09CFFFBF7E4FC00B90BE09B49096867
:1050D000994A1268881A002801DB014600E0414223
:1050E0000829ECDC00BF641C322CE7DB9FED941A2E
:1050F00000EE106AF8EEC00A102000EE105AB8EE6A
:10510000C00AFEF73AFC002410E006E0012023F07C
:1051100075FFFBF7BDFC00B906E04FF480717948DC
:1051200020F06CFD0128F1D000BF641C322CECDBB8
:105130009FED831A00EE106AF8EEC00A042000EE1C
:10514000105AB8EEC00AFEF718FCFA20754908603C
:105150007848006878490860002415E006E00120DE
:1051600023F04CFFFBF794FC00B90BE0734909688E
:10517000714A1268881A002801DB014600E04142AA
:105180000829ECDC00BF641C322CE7DBDFED6D0A84
:105190009FED6D0AFEF748FB9FED691A00EE106A5D
:1051A000F8EEC00A322000EE105AB8EEC00AFEF740
:1051B000E4FB002415E006E0012023F01FFFFBF7CD
:1051C00067FC00B90BE080214F4820F017FD012853
:1051D00005D101214C4820F011FD0128ECD000BF81
:1051E000641CB4F57A7FE6DBB6EE001A00EE106AB6
:1051F000F8EEC00A1E2000EE105AB8EEC00AFEF704
:10520000BCFB00240FE006E0012023F0F7FEFBF7D3
:105210003FFC00B905E001214C4820F0EFFC0128DB
:10522000F2D000BF641C40F226208442EBDB282031
:105230003C4908603F4800680A303F490860DFED9C
:10524000440A9FED440AFEF7EFFAB6EE001A00EEAC
:10525000106AF8EEC00A082000EE105AB8EEC00A34
:10526000FEF78BFB002410E006E0012023F0C6FED1
:10527000FBF70EFC00B906E04FF40051334820F074
:10528000BDFC0128F1D000BF641CB4F57A7FEBDBD4
:10529000B6EE001A00EE106AF8EEC00A042000EE26
:1052A000105AB8EEC00AFEF768FBFA201E490860E3
:1052B0001E480068401D1E490860002415E006E0F5
:1052C000012023F09BFEFBF7E3FB00B90BE0224932
:1052D0000968174A1268881A002801DB014600E0B5
:1052E00041420829ECDC00BF641CFA2CE7DB9FED8F
:1052F0001B1A00EE106AF8EEC00A142000EE105AD5
:105300002EE00000000002400004024000C0C1C4C2
:105310000080D4445C02002060020020640200206F
:1053200068020020B4040020B804002078040020A3
:1053300080040020840400208C040020BC00002095
:10534000CDCC4C3F00005C420000484200100240BF
:105350000000AA420000F042B80000209A99193FCC
:10536000B8EEC00AFEF709FB002416E006E00120B3
:1053700023F044FEFBF78CFB00B90CE04FF4006116
:10538000FE4820F03BFC012805D10421FC4820F018
:1053900035FC0128EBD000BF641C40F6F6108442B7
:1053A000E4DBFDF717FA06E0012023F027FEFBF708
:1053B0006FFB00B914E0FBF7A1FB8046FBF771FB24
:1053C000071E01DB384600E07842B8F1000F01DB30
:1053D000414601E0C8F100010844B0F5D27FE3DBAB
:1053E00000BF002410E006E0012023F007FEFBF7D9
:1053F0004FFB00B906E04FF48041E14820F0FEFB8E
:105400000128F1D000BF641C40F6F6108442EADBAC
:10541000FFF7FAFB40F20910DA490860DA49086040
:105420001FED321A00EE106AF8EEC00A142000EEEA
:10543000105AB8EEC00AFEF7A0FA00240FE006E00A
:10544000012023F0DBFDFBF723FB00B905E0102171
:10545000CB4820F0D3FB0128F2D000BF641C642CA1
:10546000EDDB0020FEF757F9BDE8F08110B5002014
:10547000FEF751F905210420FDF7FDF8C348C07F70
:1054800040F00200C149C8770020C149086011E01E
:1054900006E0012023F0B2FDFBF7FAFA00B903E0C1
:1054A000BC4800680128F4D000BFB9480068401C1F
:1054B000B7490860B6480068FA28E9DBB348C07FFE
:1054C00000F0FD00B149C8770120B2490860002012
:1054D000B149086010BD2DE9F0472DED028B8146E2
:1054E0000F46164698469DED0A8ADDE90B450020D9
:1054F000FEF711F99FEDA91AF8EEC80A102000EE88
:10550000106AB8EEC00AFEF738FA404623F076FD7E
:105510000020FEF700F94FF49672DFEDA10A00219A
:105520009FEDA00A4846FEF749FD0020FEF7F3F87C
:10553000FFF76AFB9C480068FA30924908609B4874
:105540000068FA309049086000209149086019E02D
:1055500006E0012023F052FDFBF79AFA00B90BE0B8
:1055600093490968884A1268881A002801DB0146B5
:1055700000E041420F29ECDC00BF85480068401C78
:1055800083490860824800683228E1DB1FED941AE5
:1055900000EE105AF8EEC00A142000EE104AB8EEE1
:1055A000C00AFEF7EAF900207949086014E006E035
:1055B000012023F023FDFBF76BFA00B906E04FF45E
:1055C00080716E4820F01AFB0128F1D000BF7048AE
:1055D0000068401C6E4908606D4800689628E6DB4C
:1055E0001FEDA91A00EE105AF8EEC00A0E2000EEC8
:1055F000104AB8EEC00AFEF7C0F9002064490860FE
:105600001BE006E0012023F0F9FCFBF741FA00B9AA
:105610000DE04FF48071594820F0F0FA0128F1D0E4
:105620004FF48051554820F0E9FA0028EAD000BF35
:1056300057480068401C564908605548006896283D
:10564000DFDB55480068012801D1FFF70FFF29462D
:105650002046FFF71EFD0020FEF75DF84FF496721E
:10566000DFED4F0A00219FED4F0A3846FEF7A6FCFA
:105670000020FEF750F8BDEC028BBDE8F0872DE965
:10568000F04104460D46FFF7B9FA47480068C01CD0
:105690003C49086045480068C01C3B49086000263A
:1056A00015E006E0012023F0A9FCFBF7F1F900B9B1
:1056B0000BE03F490968344A1268881A002801DB68
:1056C000014600E041420A29ECDC00BF761C322E84
:1056D000E7DB9FED321A00EE105AF8EEC00A1920EF
:1056E00000EE104AB8EEC00AFEF747F9002610E0B7
:1056F00006E0012023F082FCFBF7CAF900B906E0BE
:105700004FF480711D4820F079FA0028F1D000BFD5
:10571000761CB6F57A7FEBDB9FED201A00EE105A6F
:10572000F8EEC00A0E2000EE104AB8EEC00AFEF7EE
:1057300024F900261BE006E0012023F05FFCFBF7C4
:10574000A7F900B911E04FF480710C4820F056FA27
:105750000028F1D08021174820F050FA28B9012103
:10576000144820F04BFA0028E6D000BF761CB6F5AE
:10577000FA7FE0DBFA20104908601FE000000240D9
:1057800000100240800400208C040020040000204F
:105790003C0400200C030020080300203333333F77
:1057A0009A99993ECDCCCC3F780400208404002007
:1057B000BC00002000040240B4040020FA48006845
:1057C000F530FA490860B6EE001A00EE105AF8EE0D
:1057D000C00A2D2000EE104AB8EEC00AFEF7CDF840
:1057E00000260FE006E0012023F008FCFBF750F94B
:1057F00000B905E00121EE4820F000FA0028F2D0BF
:1058000000BF761C40F226208642EBDB1FED1C1AFF
:1058100000EE105AF8EEC00A1E2000EE104AB8EE54
:10582000C00AFEF7AAF8002610E006E0012023F0E7
:10583000E5FBFBF72DF900B906E04FF40051DC4819
:1058400020F0DCF90028F1D000BF761C40F22620C1
:105850008642EADB1FED2E1A00EE105AF8EEC00A5F
:105860000E2000EE104AB8EEC00AFEF786F806E0F9
:10587000012023F0C3FBFBF70BF900B90DE04FF457
:105880008041CB4820F0BAF90028F1D04FF4005104
:10589000C74820F0B3F90028EAD000BFFA20C54974
:1058A0000860C5480068F530C4490860B6EE001AC3
:1058B00000EE105AF8EEC00A092000EE104AB8EEC9
:1058C000C00AFEF75AF800260FE006E0012023F098
:1058D00095FBFBF7DDF800B905E01021B44820F096
:1058E0008DF90028F2D000BF761C642EEDDBB6EEF9
:1058F000001A00EE105AF8EEC00A102000EE104A0E
:10590000B8EEC00AFEF739F8FCF764FF06E00120A4
:1059100023F074FBFBF7BCF800B914E0FBF7EEF8DA
:105920008046FBF7BEF8071E01DB384600E07842F0
:10593000B8F1000F01DB414601E0C8F10001084465
:10594000B0F5BE7FE3DB00BF0020FDF7E4FEBDE85D
:10595000F0812DE9F0472DED028B81460F4614466C
:1059600098469DED0A8ADDE90B560020FDF7D3FE2F
:105970004FF4AF70FFF766F90020FDF7CCFEB6EEEE
:10598000001AF8EEC80A102000EE104AB8EEC00A5D
:10599000FDF7F3FF404623F031FB0020FDF7BBFE8F
:1059A0004FF496725FED820A00211FED820A48468D
:1059B000FEF704FB0020FDF7AEFE40F20910FFF7F2
:1059C0002FF900207E49086019E006E0012023F04D
:1059D00015FBFBF75DF800B90BE07A490968734ADB
:1059E0001268881A002801DB014600E0414228299C
:1059F000ECDC00BF72480068401C714908607048C8
:105A000000683228E1DB1FED9B1A00EE106AF8EE09
:105A1000C00A122000EE105AB8EEC00AFDF7ADFF22
:105A200000206749086014E006E0012023F0E6FA50
:105A3000FBF72EF800B906E04FF48071624820F0C1
:105A4000DDF80028F1D000BF5D480068401C5C49CB
:105A500008605B480068B0F57A7FE5DB5B4800686A
:105A6000012801D1FFF702FD31462846FFF707FE66
:105A70000020FDF750FE4FF496725FEDB70A00214B
:105A80001FEDB80A3846FEF799FA0020FDF743FEED
:105A9000BDEC028BBDE8F08770B54D48006800F1A1
:105AA00009054C48006800F1090640F23520FFF76F
:105AB000B7F849480068002853D1484800680028D2
:105AC0004FD14748006800284BD14648006800285D
:105AD00047D13B4908603DE023E043480068A842C5
