:020000040800F2
:1000000058EF002059610208450200084702000825
:100010004B0200084F0200085302000800000000D5
:100020000000000000000000000000009D0100082A
:100030005702000800000000E10100087391020867
:100040007361020873610208736102087361020838
:100050007361020873610208736102087361020828
:10006000CF04000813050008736102083F0300086D
:10007000210300088103000873610208750200086B
:10008000736102088102000873610208736102084B
:1000900073610208736102087361020873610208E8
:1000A00073610208EB03000817040008736102087B
:1000B000190400084704000873040008736102086B
:1000C000736102087361020873610208CB040008BF
:1000D000736102085D02000873610208736102081F
:1000E0007361020873610208736102087361020898
:1000F0007361020873610208736102085D030008FE
:1001000073610208736102089F040008CD040008AF
:100110007361020873610208BD030008C903000887
:10012000736102089B020008CF0200087361020895
:100130007361020873610208736102087361020847
:100140007361020873610208736102087361020837
:1001500013030008736102087361020873610208E7
:100160007361020873610208736102087361020817
:100170007361020873610208736102087361020807
:100180007361020873610208DFF80CD02AF0C6FA26
:1001900000480047E15E020858EF0020234B196831
:1001A0000868B0E8F04F80F309884FF0000080F352
:1001B000118870470000000003480068006880F361
:1001C000088862B600DF00BF08ED00E0DFF80C0031
:1001D000016841F470010160704700BF88ED00E0E4
:1001E000EFF30980114B1A681EF0100F08BF20EDC5
:1001F000108A20E9F04F106008B54FF0140080F32A
:10020000118829F07EFB4FF0000080F31188BDE8D3
:10021000084019680868B0E8F04F1EF0100F08BFDA
:10022000B0EC108A80F30988704700BF20060020D8
:10023000EFF311804FF0140181F31188704780F3C0
:1002400011887047704700BFFEE700BFFEE700BFA0
:10025000FEE700BFFEE770477047704710B540F2F9
:100260002551AC4828F099F818B12021A94828F068
:100270008BF810BD10B5A849A84826F0C3FF10BDE3
:1002800010B5A749A548303026F092FF20B1A44907
:10029000A248303026F0B6FF10BD10B5A149A248E3
:1002A00026F086FF90B19F499F4826F0ABFF02F0F1
:1002B00068F900219948303826F0D0FE08219A4884
:1002C00026F0EDFE0121984826F0C8FE10BD10B5BD
:1002D00096499548183026F095FF954840789449FE
:1002E000097840EA012000B2924908809048C0781D
:1002F0008F49897840EA012000B28F4908808C48F4
:1003000040798B49097940EA012000B28B49088085
:1003100010BD10B58A498448603026F073FF10BDC7
:1003200010B580497D48483826F042FF30B17D49FC
:100330007A48483826F066FF00F0BDFA10BD10B5C7
:1003400080497648603826F033FF30B17D497348E4
:10035000603826F057FF02F014F910BD10B57A4945
:100360006E48483026F024FF48B100216B484830E1
:1003700026F074FE74496948483026F043FF10BDEA
:1003800010B56A496548303826F012FFA8B16749B0
:100390006248303826F036FF01F0D6FD00215F4874
:1003A000303826F05BFE08215C48303826F077FEB6
:1003B00001215A48303826F051FE10BD10B50121F8
:1003C000624827F047FD10BD10B50121604827F0B5
:1003D00041FD7A204F49888001215E4827F0ECFEDC
:1003E00001215D4827F0E8FE10BD10B501215B48F2
:1003F00027F030FD5948008800F0100028B1584817
:100400000068401E5649086004E055480068401CDA
:100410005349086010BD704710B50121880727F0C7
:1004200019FD4FF08040008800F0100028B14D48C1
:100430000068401E4B49086004E04A480068401CC0
:100440004849086010BD10B50121474827F002FD5A
:100450004548008800F0100028B144480068401E5C
:100460004249086004E041480068401C3F49086078
:1004700010BD10B501213E4827F0ECFC3C48008837
:1004800000F0100028B13B480068401E3949086060
:1004900004E038480068401C3649086010BD10B5BB
:1004A0000121354827F0D6FC3348008800F01000C1
:1004B00028B132480068401E3049086004E02F48E7
:1004C0000068401C2D49086010BD7047704710B58A
:1004D000042026F02FFFD8B12021294825F0B3FFB2
:1004E0000421284825F08AFF012804D1002118485A
:1004F00027F030F809E00421224825F07FFF20B9D9
:10050000134827F02BF82049086004201F49086091
:1005100010BD704700100140208000207060024034
:1005200000802020008800102864024000802010F5
:10053000DE0800208C000020900000208E000020AB
:10054000008800202080001000800028001000405B
:100550000014004000480040001401400000014029
:100560006C00002070000020000400407400002097
:100570000008004088000020000C004078000020A7
:1005800000000240000C024068000020143C0140C2
:1005900070B50446204629F09DFD05462146F948E0
:1005A00029F09FFDA8B140F22B122146F54829F011
:1005B00085FD0021F44826F051FDF248F2490C3146
:1005C0000860F148B838C0F8BC500121EE4826F068
:1005D00045FD70BD70B50446002510E0605D68B152
:1005E000615DEA4827F013FE00BF8021E74827F04D
:1005F000BEFE0028F9D0681CC5B200E070BDEDE772
:1006000070B5044600250FE05CB12146DF4827F0B5
:10061000FEFD00BF8021DD4827F0A9FE0028F9D0AB
:1006200000E070BD681CC5B2032DEDDB00BFF8E72C
:1006300013B50C460020FFF7E3FFD5A0FFF7CAFF74
:100640002346D4A29621D4482AF0A6F8D248FFF730
:10065000C1FFD2A0FFF7BEFFCEA29621CE48009BDD
:100660002AF09AF8CC48FFF7B5FFCEA0FFF7B2FF0B
:10067000FF20FFF7C5FFFF20FFF7C2FFFF20FFF7B6
:10068000BFFF1CBD70B505460C46C1A0FFF7A2FF19
:100690002246C0A1C0482AF097F8BF48FFF79AFF4A
:1006A000BEA0FFF797FF2846FFF794FFBDA0FFF716
:1006B00091FFFF20FFF7A4FF70BD77B585B0054619
:1006C000FF26B6A103C9CDE90301B6A000680290D8
:1006D000AFA00068019000240AE00020B24908554C
:1006E000B2490855AC490855A6490855601CC4B222
:1006F0001E2CF2DB0A20A8490870FF204870887081
:10070000C870A4A1A948079A2AF05EF8A74901A8D1
:1007100029F0C8FC01A9A04829F0C4FC03A99E48FF
:1007200029F0C0FC29469C4829F0BCFC99A19F48AF
:10073000069A2AF049F89D49974829F0B3FC02A986
:10074000954829F0AFFCFF209749087048708870E1
:10075000914829F0A7FC9048FFF71AFF08B070BD38
:10076000F7B584B005460E46FF278CA103C9CDE935
:1007700002018CA00068019085A000680090002410
:1007800008E00020884908558849085582490855DD
:10079000601CC4B20A2CF4DB0A207F490870FF20D9
:1007A00048708870C8707BA18048069A2AF00CF8BF
:1007B0007E49684629F076FC6946774829F072FC44
:1007C00002A9754829F06EFC2946734829F06AFC95
:1007D0003146714829F066FC01A96F4829F062FC96
:1007E000FF2071490870487088700020C870087137
:1007F000694829F057FC6848FFF7CAFE07B0F0BD0A
:1008000001B58EB06AA2322101A80E9B29F0C4FF67
:1008100001A8FFF7BDFE0FB000BD73B584B005465B
:10082000FF265EA103C9CDE902015EA00068019028
:1008300057A00068009000240AE000205A4908559B
:100840005A490855544908554E490855601CC4B2C8
:100850001E2CF2DB0A2050490870FF204870887077
:10086000C8704CA15148059A29F0AEFF4F4968461F
:1008700029F018FC6946484829F014FC02A94648AA
:1008800029F010FC2946444829F00CFC474942480D
:1008900029F008FC01A9404829F004FCFF20424946
:1008A0000870487088703C4829F0FCFB3A48FFF714
:1008B0006FFE06B070BD10B52DED0C8B82B03F48B9
:1008C00000783E49497808443C49897808443B49C6
:1008D000C9780844394909790844384949790844AC
:1008E0003649897908443549C97908443349097A30
:1008F0000844C0B201903148007A00F00F00009027
:100900009FED2F0AB0EE40DA2C48407A01998842D8
:1009100072D12A48007A00F00F000D286CD12748C8
:100920008078C0F17F0000EE100AB8EEC08A23483C
:10093000C078813800EE100AF8EEC08AB5EEC08AA1
:10094000F1EE10FA03D1B7EE000AB0EE408AF5EEF0
:10095000C08AF1EE10FA03D1B7EE000AF0EE408A39
:10096000BDEEC80A10EE102A002A01DB134600E093
:100970005342BDEEE80A10EE100A002822DB0446BE
:1009800021E0000096070020B860024000500040BF
:100990007400000025640000600600202E74787446
:1009A0003D22000022000000460700201E07002014
:1009B0006A302E76616C3D25640000001F0900201E
:1009C000DB0F49404442191901EBD1735B10FE4C17
:1009D0002360BDEEE80A10EE101A002901DB0A467A
:1009E00000E04A42322A0FDABDEEC80A10EE100AC1
:1009F000002802DB024601E02FE04242322A03DAFD
:100A00000020F249086030E018EE900A29F02FFD2E
:100A100041EC1B0B18EE100A29F029FD41EC1C0BD0
:100A2000B0EE4B1AF0EE6B1AB0EE4C0AF0EE6C0A18
:100A30002AF076F8B0EE40AAF0EE60AA9FEDE40B43
:100A400053EC102B51EC1A0B29F000FC41EC190B64
:100A500029F0EEFCDD49086007E09DF800000D2854
:100A600003D00021DC4827F0A7FB02B0BDEC0C8BC3
:100A700010BDDA48007A00F00F000D2806D1D748E3
:100A8000007800F0010008B10D2070470020FCE75D
:100A9000D248007800F0100008B100207047012013
:100AA000FCE71CB54FF0804026F058FDCC490968A2
:100AB00040EA01400C2190FBF1F00090002418E086
:100AC0004FF0804026F04AFDC549096840EA0140E0
:100AD0000C2190FBF1F00190DDE90021881A00283B
:100AE00001DB014600E04142052900DA641C01985F
:100AF0000090022CE4DB019840421CBD1CB5B948B3
:100B000026F02CFDB849096840EA01400C2190FB11
:100B1000F1F00090002417E0B24826F01FFDB24922
:100B2000096840EA01400C2190FBF1F00190DDE9F9
:100B30000021881A002801DB014600E04142052916
:100B400000DA641C01980090022CE5DB01981CBDC2
:100B50001CB5A64826F002FDA549096840EA0140F7
:100B60000C2190FBF1F00090002417E09F4826F044
:100B7000F5FC9F49096840EA01400C2190FBF1F027
:100B80000190DDE90021881A002801DB014600E020
:100B90004142052900DA641C01980090022CE5DB33
:100BA00001981CBD1CB5934826F0D8FC92490968F1
:100BB00040EA01400C2190FBF1F00090002417E086
:100BC0008C4826F0CBFC8C49096840EA01400C2196
:100BD00090FBF1F00190DDE90021881A002801DB8B
:100BE000014600E04142052900DA641C01980090AA
:100BF000022CE5DB01981CBD01B581B000200090FE
:100C0000019800EBC0004000009002E00098401EF8
:100C1000009000980028F9D10CBD01B581B00020EA
:100C2000009044F2506101984843009002E000981F
:100C3000401E009000980028F9D10CBD1CB5012180
:100C40001F2025F0BFFD4FF6FF70009001208DF8AA
:100C5000040000208DF8060001208DF80700032015
:100C60008DF805006946654825F066FB4FF6FF7074
:100C7000009001208DF8040000208DF8060001206E
:100C80008DF8070003208DF8050069465C4825F0C3
:100C900053FB4FF6FF70009001208DF804000020F8
:100CA0008DF8060001208DF8070003208DF805005F
:100CB0006946544825F040FB1CBD1CB501217E202F
:100CC00025F080FD4FF4CE50009000208DF80400F8
:100CD00001208DF8070002208DF8050069464A487A
:100CE00025F02AFB4FF6C740009000208DF8040045
:100CF00001208DF8070002208DF8050069463F4865
:100D000025F01AFB4FF47170009000208DF804005C
:100D100001208DF8070002208DF80500694638484B
:100D200025F00AFB4CF60340009000208DF80400EB
:100D300001208DF8070002208DF805006946314832
:100D400025F0FAFA4FF42660009000208DF8040098
:100D500001208DF8070002208DF8050069462B4818
:100D600025F0EAFA1CBD1FB54FF4E06025F006FA45
:100D700036208DF8000000208DF801008DF802006B
:100D800001208DF80300684625F0FDF901211020AF
:100D900025F04BFD3220ADF8040040F2E730029020
:100DA0000020ADF80C00ADF8060001A9184826F0A7
:100DB00088FB0121164827F04DF8012211461448FE
:100DC00027F020F8002125E0CC000020C8000020FA
:100DD00000000080A9E78140004800401F09002072
:100DE0007000002000040040740000200008004053
:100DF00088000020000C0040780000200004024021
:100E000000080240000C02400000024000100240B6
:100E100000100040FE4826F09DFB0121FC4826F012
:100E2000D9FB1FBD1FB54FF4E06025F0A7F93720AF
:100E30008DF8000000208DF801008DF802000120DF
:100E40008DF80300684625F09EF90121202025F049
:100E5000ECFC3220ADF8040040F2E73002900020B4
:100E6000ADF80C00ADF8060001A9EA4826F029FB10
:100E70000121E84826F0EEFF01221146E54826F060
:100E8000C1FF0021E34826F065FB0121E14826F07F
:100E9000A1FB1FBD00B58BB00121022025F0D6FCBF
:100EA00001210C2025F08EFC03220621DA4825F0D2
:100EB000CEFA03220721D84825F0C9FA03220821D7
:100EC000D54825F0C4FA03220921D34825F0BFFAFA
:100ED0004FF47070069002208DF81C0003208DF8EE
:100EE0001D0000208DF81E0001208DF81F0006A9AE
:100EF000C94825F021FAA420ADF8200040F6B8300A
:100F000009904FF48070ADF828000020ADF8220061
:100F100008A9C24826F0D5FA6020ADF804000120E7
:100F2000ADF8060000200390ADF810000121BB4889
:100F300026F050FB0021B94826F00CFB01A9B74868
:100F400026F054FB01A9B54826F089FB01A9B34856
:100F500026F0D2FB01A9B14826F034FC0121AF48AC
:100F600026F029FF0BB000BD00B58BB00121082091
:100F700025F05BFC0121084625F024FC022200211B
:100F8000A74825F064FA02220121A54825F05FFA5E
:100F900002221146A24825F05AFA02220321A04853
:100FA00025F055FA0F20069002208DF81C00032032
:100FB0008DF81D0000208DF81E0001208DF81F0007
:100FC00006A9974825F0B8F9BA20ADF8200042F2FA
:100FD000107009900020ADF82800ADF8220008A993
:100FE000904826F06EFA6020ADF804000120ADF8BC
:100FF000060000200390ADF810000121894826F07A
:10100000E9FA0021874826F0A5FA01A9854826F0CB
:10101000EDFA01A9834826F022FB01A9814826F0B8
:101020006BFB01A97F4826F0CDFB01217D4826F00E
:10103000C2FE0BB000BD00B58BB00121042025F02D
:10104000F4FB01210D2025F0BDFB02220C21764886
:1010500025F0FDF902220D21734825F0F8F902224E
:101060000E21714825F0F3F902220F216E4825F078
:10107000EEF94FF47040069002208DF81C0003201A
:101080008DF81D0000208DF81E0001208DF81F0036
:1010900006A9654825F050F9A420ADF8200040F6D7
:1010A000B83009904FF48070ADF828000020ADF8FA
:1010B000220008A95D4826F004FA6020ADF804007B
:1010C0000120ADF8060000200390ADF810000121CA
:1010D000564826F07FFA0021544826F03BFA01A931
:1010E000524826F083FA01A9504826F0B8FA01A91F
:1010F0004E4826F001FB01A94C4826F063FB0BB0DB
:1011000000BD00B589B00121080425F09FFB012135
:10111000084625F057FB03221146414825F097F970
:10112000032202213E4825F092F90C200190022072
:101130008DF8080003208DF8090000208DF80A00C2
:1011400001208DF80B0001A9354825F0F5F80020A5
:10115000ADF818004FF6FF7007900020ADF82000A2
:10116000ADF81A0006A9324826F0ABF90420ADF814
:101170000C000020ADF80E00C820ADF814000120CE
:10118000ADF8100003A92A4826F072FD00231A4684
:101190000321284826F009FF0121264826F05AFE9F
:1011A00001221146234826F02DFE0121204826F079
:1011B00011FA00211F4826F0CDF909B000BD00B595
:1011C00089B00121084625F030FB0121022025F0DD
:1011D0002CFB0121032025F0F5FA01220F211048F4
:1011E00025F035F901220321134825F030F90222B8
:1011F0000421114825F02BF9022205210E4825F083
:1012000026F93820019002208DF80800032015E00F
:10121000001000400014004000080240000401409B
:1012200000000240000C0040000C0240000800409A
:101230000000014000400140000402408DF8090018
:1012400000208DF80A0001208DF80B0001A9FE484E
:1012500025F072F84FF40040019002208DF808004C
:1012600003208DF8090000208DF80A0001208DF878
:101270000B0001A9F54825F05FF80020ADF8180033
:101280004FF6FF7007900020ADF82000ADF81A006F
:1012900006A94FF0804026F014F906A9EC4826F084
:1012A00010F90420ADF80C000220ADF80E00142057
:1012B000ADF814000120ADF8100003A9800726F056
:1012C000D7FC03A9E24826F0D3FC02231A460321E7
:1012D000580726F06AFE02231A460321DC4826F04E
:1012E00064FE0121880726F0B5FD0121D84826F0CB
:1012F000B1FD01221146900726F084FD012211461E
:10130000D34826F07FFD0121880726F063F90121EB
:10131000CF4826F05FF900214FF0804026F01AF9FF
:101320000021CB4826F016F94FF4C06024F026FFC8
:101330001D208DF8000003208DF8010000208DF89D
:10134000020001208DF80300684624F01CFF1C20D9
:101350008DF8000004208DF8010000208DF80200B7
:1013600001208DF80300684624F00DFF09B000BD90
:1013700000B589B00121084625F068FA0121102046
:1013800025F020FA4FF42060019002208DF808002B
:1013900003208DF8090000208DF80A0001208DF847
:1013A0000B0001A9AB4824F0C7FF01220921A9487D
:1013B00025F04DF801220B21A64825F048F8002021
:1013C000ADF818004FF6FF7007900020ADF8200030
:1013D000ADF81A0006A9A04826F073F80420ADF86D
:1013E0000C000020ADF80E000A20ADF8140001201A
:1013F000ADF8100003A9984826F03AFC00231A46DD
:101400000321954826F0D1FD0121934826F022FDC5
:1014100001221146904826F0F5FC01218E4826F065
:1014200019FD012211468C4826F0ECFC01218A4866
:1014300026F0D0F80021884826F08CF84FF4C060E0
:1014400024F09CFE19208DF8000001208DF8010089
:1014500000208DF8020001208DF80300684624F07A
:1014600092FE09B000BD00B589B00121042025F02D
:10147000DCF90121082025F0A5F94FF44050019036
:1014800002208DF8080003208DF8090000208DF857
:101490000A0001208DF80B0001A9704824F04CFFD0
:1014A0000020ADF818004FF6FF7007900020ADF84F
:1014B0002000ADF81A0006A9694826F002F80222B9
:1014C0000C21664824F0C3FF02220D21634824F05A
:1014D000BEFF0420ADF80C000220ADF80E00C820BD
:1014E000ADF814000120ADF8100003A95C4826F007
:1014F000BFFB02231A460321594826F056FD01215D
:10150000574826F0A7FC01221146554826F07AFCE0
:101510000121534826F05EF80021514826F01AF8C0
:1015200000204F491431088001204D4908804FF4B4
:10153000C06024F023FE1E208DF8000004208DF8EA
:10154000010000208DF8020001208DF8030068469C
:1015500024F019FE09B000BD00B589B001210820B2
:1015600025F063F90121084625F02CF903200190AC
:1015700002208DF8080003208DF8090000208DF866
:101580000A0001208DF80B0001A9304824F0D4FE98
:101590000020ADF818004FF6FF7007900020ADF85E
:1015A0002000ADF81A0006A92E4825F08AFF022275
:1015B0000021264824F04BFF02220121234824F079
:1015C00046FF0420ADF80C000220ADF80E00C82044
:1015D000ADF814000120ADF8100003A9214826F051
:1015E00047FB02231A4603211E4826F0DEFC012198
:1015F0001C4826F02FFC012211461A4826F002FC56
:101600000121184825F0E6FF0021164825F0A2FF29
:1016100000201449143108800120124908804FF439
:10162000C06024F0ABFD32208DF8000004208DF85E
:10163000010000208DF8020001208DF803006846AB
:1016400024F0A1FD09B000BD0004024000000240EA
:10165000000400400010024000000140000C024065
:1016600000080040000C004000B59BB00121FE487E
:1016700025F0A8F80121080225F0E8F800200290E2
:10168000FA480390FA480490002005900E20069036
:10169000002007904FF4806008904000099080007F
:1016A0000A9040110B9040020C9000200D900120F8
:1016B0000E9000200F90109002A9EE4825F094FCA7
:1016C0000121EC4825F0CAFCFC20009003208DF895
:1016D000040000208DF807006946E74824F02CFE3E
:1016E0004FF44070009003208DF8040000208DF826
:1016F00007006946E14824F01FFE3F2000900320C8
:101700008DF8040000208DF807006946DC4824F0BD
:1017100013FE002011904FF44030129000201390DF
:10172000149011A825F0C6F94FF080701590012093
:101730008DF858008DF859000020179018901990D6
:101740000E208DF8680015A9C8484C3825F083F99B
:10175000072301220221C5484C3825F002FA07234D
:1017600002220321C1484C3825F0FBF9072303224C
:101770000421BE484C3825F0F4F907230422052142
:10178000BA484C3825F0EDF9072305220621B74861
:101790004C3825F0E6F9072306221946B3484C38A1
:1017A00025F0DFF907231A460821B0484C3825F008
:1017B000D8F9072308220921AC484C3825F0D1F983
:1017C000072309220A21A9484C3825F0CAF9072322
:1017D0000A220B21A5484C3825F0C3F907230B2218
:1017E0000C21A2484C3825F0BCF907230C220D210E
:1017F0009E484C3825F0B5F907230D220E219B4851
:101800004C3825F0AEF907230E220F2197484C38AB
:1018100025F0A7F9012195484C3825F04DFA012112
:1018200092484C3825F03DFA012190484C3825F07B
:1018300058F98E484C3825F0F0F91BB000BD08B5BA
:101840004FF4E06024F09AFC25208DF80000002081
:101850008DF801008DF8020001208DF80300684624
:1018600024F091FC08BD10B596B00446012110206B
:1018700024F0ECFF0121084624F0A4FF0121880593
:1018800024F0A0FF4FF4C060009002208DF8040007
:1018900000208DF806008DF8070002208DF8050065
:1018A0006946754824F048FD07220921724824F052
:1018B000CEFD07220A21704824F0C9FD02940020C1
:1018C000ADF80C00ADF80E00ADF81000ADF8140046
:1018D0000C20ADF8120002A96A4826F0E5FB0121B0
:1018E000684826F069FC4FF4A06024F047FC3A20D9
:1018F0008DF8180000208DF819008DF81A000120CD
:101900008DF81B0006A824F03EFC5A48303025F024
:10191000C9FA4FF00060079000200A905A480990D9
:101920000A200B905748001D089000200C904FF49F
:1019300080600D9000200E900F904FF480701090FA
:101940004002119004201290032013900020149064
:10195000159007A94748303025F046FB0122402169
:10196000484826F0D6FC012210214248303025F0AC
:1019700002FC01213F48303025F070FB16B010BD4D
:1019800010B596B004460121480524F01BFF012143
:10199000480424F04AFF0121082024F013FF6020AE
:1019A000009002208DF8040000208DF806008DF8CC
:1019B000070002208DF805006946344824F0BCFC7D
:1019C00007220521314824F042FD072206212F4835
:1019D00024F03DFD02940020ADF80C00ADF80E009F
:1019E000ADF81000ADF814000C20ADF8120002A9FB
:1019F000274826F059FB0121254826F0DDFB4FF44E
:101A0000A06024F0BBFB11208DF8180000208DF899
:101A100019008DF81A0001208DF81B0006A824F08B
:101A2000B2FB1C4825F03EFA4FF0006007904020C2
:101A30000A901948099050200B901548001D0890F5
:101A400000200C904FF480600D9000200E900F90BD
:101A50004FF48070109040021190042012900320E7
:101A600013900020149019E0070040004C20014022
:101A7000C20800201064024000000240000402403E
:101A80000008024000100140DE080020000C024067
:101A900000440040A060024004000020159007A907
:101AA000FE4825F0A1FA01228021FD4826F031FCF4
:101AB00001228021FA4826F02CFC01221021F7484F
:101AC00025F059FB0121F54825F0C8FA16B010BDE4
:101AD00010B596B004460121880424F0A6FE012129
:101AE000082024F06FFE0121480524F06BFE4FF41E
:101AF0004070009002208DF8040000208DF8060050
:101B00008DF8070002208DF805006946E54824F0AD
:101B100013FC07220821E34824F099FC072209213D
:101B2000E04824F094FC02940020ADF80C00ADF8DD
:101B30000E00ADF81000ADF814000C20ADF8120046
:101B400002A9D94826F0B0FA0121D74826F034FB83
:101B50004FF4A06024F012FB0C208DF81800002038
:101B60008DF819008DF81A0001208DF81B0006A8C9
:101B700024F009FBC948783825F094F94FF000604B
:101B8000079000200A90C94809900A200B90C64887
:101B9000001D089000200C904FF480600D900020F4
:101BA0000E900F904FF4807010904002119004201E
:101BB00012900320139000201490159007A9B748A5
:101BC000783825F011FA01224021B74826F0A1FB10
:101BD00001224021B44826F09CFB01221021AF488D
:101BE000783825F0C8FA0121AC48783825F036FA63
:101BF00016B010BD10B596B004460121C80424F0FB
:101C000014FE0121042024F0DDFD0121480524F00B
:101C1000D9FD4FF44060009002208DF804000020B0
:101C20008DF806008DF8070002208DF80500694642
:101C30009F4824F081FB08220A219D4824F007FCDC
:101C400008220B219A4824F002FC02940020ADF8EF
:101C50000C00ADF80E00ADF81000ADF814000C202B
:101C6000ADF8120002A9934826F01EFA012191480E
:101C700026F0A2FA4FF4A06024F080FA0D208DF82F
:101C8000180003208DF8190001208DF81A008DF836
:101C90001B0006A824F077FA8048603825F002F986
:101CA0004FF00060079000200A90834809900820B8
:101CB0000B908048001D089000200C904FF480602D
:101CC0000D9000200E900F9010904FF40030119066
:101CD000002012900320139000201490159007A963
:101CE0006E48603825F080F901224021714826F0C5
:101CF00010FB012280216F4826F00BFB01221021EE
:101D00006648603825F037FA01216448603825F0CC
:101D1000A5F916B010BD70B5684C2468642C00DBC2
:101D200070BD674C248804EB8404664D2C446070BD
:101D3000634C248804EB84042C44A170604C2488F8
:101D400004EB84042C44E2705D4C248804EB84048E
:101D50002C4423715A4C2488641C642594FBF5F6AA
:101D600005FB1644564D2C80544C2468641C534D7E
:101D70002C6000BFD4E701465048006808B9002035
:101D800070475148008800EB80004E4A10440268BA
:101D90000A60007908710120F2E7014647480068AF
:101DA00008B9002070474848008800EB8000454A89
:101DB000104402680A600079087143480088401C9A
:101DC000642290FBF2F302FB13003F4A10803B4871
:101DD0000068401E394A10600120E3E70CB56846F0
:101DE000FFF7DBFF0020394908700CBD0346012BCB
:101DF00003DB062B01DC18467047012903DB0629AB
:101E000001DC0846F8E7012A03DB062A01DC10465C
:101E1000F2E70020F0E710B58C202D4908604FF460
:101E200096702C4908608C202B4908604FF4FA709A
:101E30002A49086000BF2A4909682A4A1268881A94
:101E4000002801DB014600E04142822905DB2648EB
:101E5000C07F40F004002449C87700BF4FF47A7077
:101E600027F0CCFC00BF1E4909681E4A1268881A78
:101E7000002801DB014600E04142822905DB1A48C7
:101E8000C07F40F008001849C87700BF4FF47A704F
:101E900027F0B4FC00BF1249096827E0A0600240A7
:101EA00000440040000C0240004800401F09002090
:101EB00000080240004C0040DB020020F802002035
:101EC000FC0200202E090020FE0200200103002059
:101ED000C4040020A8040020C8040020B40400208A
:101EE000C0000020C400002004000020FE4A126848
:101EF000881A002801DB014600E04142822905DB07
:101F0000FA48C07F40F04000F849C87700BF4FF45E
:101F10007A7027F073FC00BFF5490968F24A12682D
:101F2000881A002801DB014600E04142822905DBD6
:101F3000EE48C07F40F01000EC49C87700BF4FF476
:101F40007A7027F05BFC10BD10B5EA480078E949CB
:101F500049780844E74989780844E649C97808443B
:101F6000E44909790844E34949790844C4B2E1489D
:101F70000078022800D010BDDE48C079032800D0C8
:101F8000F9E7DC488079A0427DD1DA484078DA4927
:101F90000870D8488078D9490870D648C078D849A0
:101FA0000870D4480079D7490870D2484079D6499A
:101FB0000870D1480078012808D1D048007802285C
:101FC00004D108460078D149086028E1CA48007861
:101FD000022807D1C9480078012803D10020CC4944
:101FE00008601CE1C448007802280AD1C348007880
:101FF0000A2806D1C2480078012802D1C5490860E4
:102000000DE1BD48007802280AD1BC4800780A28B2
:1020100006D1BB480078022802D1BE490860FEE024
:10202000B548007802280AD1B4480078092806D1BA
:10203000B3480078012802D1B7490860EFE0AE4804
:10204000007802280AD1AD480078092806D1AC48AA
:102050000078022802D1B0490860E0E0A648007884
:10206000022856D1A5480078022852D1A648037804
:10207000A4480278A2480178A0480078FFF74BFEF8
:102080009A48C07F00E0C1E040F002009749C8775D
:102090009B48007880B99B480078012807D0994870
:1020A0000078022803D097480078032804D19B4881
:1020B0000068401C994908609148007804280BD1B9
:1020C00090480078052807D10120954908608E487E
:1020D0000078944908600CE089480078042808D109
:1020E00088480078062804D100208D4908608E4970
:1020F000086083480078052891D182480078052837
:1021000006D10120884908607F4800788549086029
:1021100085E07948007802281BD1784800780328A8
:1021200017D1794802787748017875480078FFF729
:102130005DFE7E4908606D48C07F40F002006B493B
:10214000C8777A480068002869D00120784908607B
:1021500065E069480078022823D16848007804289F
:102160001FD16748007801280BD166480078012804
:1021700007D1704908605D48C07F40F002005B49AC
:10218000C8775F4800786C4908605E4800786B4902
:1021900008605D4800786A49086001206549086068
:1021A0003DE055480078022821D1544800780528A0
:1021B0001DD153480078012809D1524800780128E0
:1021C00005D151480078012801D15E4908604C488A
:1021D0000078022823D14B48007802281FD14A48B2
:1021E00000785749086001205749086017E04248C5
:1021F0000078032813D14148007803280FD14048C4
:10220000007803280BD1FFF706FE08E0FF203B49CA
:1022100008703B4908703B4908703B49087000BF93
:10222000A9E63E480068022803D10120474908601A
:1022300002E0002045490860704710B596B004469A
:102240000121480524F0BEFA0121080524F0EDFA29
:1022500001210C2024F0B6FA0420009002208DF811
:10226000040000208DF806008DF8070002208DF88C
:1022700005006946364824F05FF84FF4805000901E
:1022800002208DF8040000208DF806008DF807006C
:1022900002208DF8050069462E4824F04DF80822EA
:1022A00002212B4824F0D3F808220C21294824F0DD
:1022B000CEF84FF4A06023F061FF2F208DF81800B6
:1022C00005208DF819008DF81A0001208DF81B00EB
:1022D00006A823F058FF0B208DF8180005208DF874
:1022E00019008DF81A0037E0C40000200400002017
:1022F000C0000020DB020020E3020020E4020020F6
:10230000E5020020E6020020E7020020140300207E
:102310001C03002038030020400300204803002055
:1023200004030020100300200C03002020030020E1
:10233000440300203C030020240300202803002045
:102340002C03002030030020340300205C02002016
:10235000000C02400008024001208DF81B0006A876
:1023600023F011FF02940020ADF80C00ADF80E0030
:10237000ADF81000ADF814000C20ADF8120002A961
:10238000FC4825F091FE0121FA4825F015FFFA4896
:1023900024F088FD4FF00060079040200A90F74835
:1023A00009900A200B90F348001D089000200C9023
:1023B0004FF480600D9000200E900F9010904FF41D
:1023C00000301190002012900320139000201490F0
:1023D000159007A9E84824F007FEE748A83824F03C
:1023E00061FD4FF00060079000200A90E4480990DA
:1023F00005200B90DF48001D089000200C904FF442
:1024000080600D9000200E900F9010904FF40030DF
:10241000119000201290032013900020149015902A
:1024200007A9D548A83824F0DFFD01228021D14832
:1024300025F06FFF01224021CE4825F06AFF0122DE
:102440001021CD4824F097FE01221021CA48A83857
:1024500024F091FE0121C84824F000FE0121C64865
:10246000A83824F0FBFD16B010BD10B596B0044698
:102470000121202024F0EAF90121042024F0A2F90E
:102480000121880524F09EF9C020009002208DF8DB
:10249000040000208DF806008DF8070002208DF85A
:1024A00005006946B74823F047FF08220621B548D2
:1024B00023F0CDFF08220721B24823F0C8FF029481
:1024C0000020ADF80C00ADF80E00ADF81000ADF82E
:1024D00014000C20ADF8120002A9AB4825F0E4FD71
:1024E0000121A94825F068FE4FF4A06023F046FEC4
:1024F00039208DF8180003208DF8190001208DF87F
:102500001A008DF81B0006A823F03DFE9F4824F01A
:10251000C9FC4FF02060079000200A909C48099069
:1025200008200B909848001D089000200C904FF454
:1025300080600D9000200E900F9010904FF40030AE
:1025400011900020129003201390002014901590F9
:1025500007A98E4824F048FD012240218A4825F031
:10256000D8FE01228021884825F0D3FE01221021C7
:10257000864824F000FE0121844824F06FFD16B047
:1025800010BD83490978824A52781144804A927872
:1025900011447F4AD27811447D4A127911447C4A11
:1025A00052791144C8B27A490978022900D070479B
:1025B0007749C979032900D0F9E7754989798142BA
:1025C00018D173494978734A117071498978724AF0
:1025D00011706F49C978714A11706D490979704A53
:1025E00011706B4949796F4A11706D4909786E4ACB
:1025F000117006E0FF21694A1170694A1170694A39
:10260000117000BFD3E700B585B00121082024F088
:10261000D9F80121880324F019F900208DF8100061
:1026200001208DF813000C20039003A95F4823F0CC
:1026300083FE0221032025F005FF042000900020E6
:102640008DF8040010208DF8050001208DF806009B
:10265000684624F009FE08208DF8080000208DF857
:1026600009008DF80A0001208DF80B0002A823F064
:102670008AFD05B000BD70B504460D46012C0BD196
:1026800029464B4825F0C3FD00BF4021484825F0AE
:102690006EFE0028F9D036E0032C0BD129464548C0
:1026A00025F0B5FD00BF4021424825F060FE00281E
:1026B000F9D028E0042C0BD129463F4825F0A7FD8E
:1026C00000BF40213C4825F052FE0028F9D01AE016
:1026D000052C0BD12946274825F099FD00BF402144
:1026E000244825F044FE0028F9D00CE0062C0AD13D
:1026F0002946254825F08BFD00BF4021224825F0C2
:1027000036FE0028F9D070BD2DE9F04702240125DE
:10271000022600274FF000084FF0030960193044EB
:102720003844404425490978084400F0FF0A21460E
:102730000420FFF7A0FF29460420FFF79CFF314645
:102740000420FFF798FF39460420FFF794FF414625
:102750000420FFF790FF194801780420FFF78BFF52
:1027600051460420FFF787FF49460420FFF783FF07
:10277000BDE8F08700500040B86002409607002096
:10278000220B00200008024000140140286402408F
:102790004C03002054030020550300205603002062
:1027A000570300205803002059030020000C02406A
:1027B0000010014000480040004C0040140300207D
:1027C0000020FE494862FE490860FE490860FE4953
:1027D000086070470020F9494862F94908604FF0E5
:1027E00080414862F9490860F9490860F949086080
:1027F000F4490860F4490860F7490860F74908603F
:10280000704700204FF080414862F04908607047EF
:102810000020EF490860EF490860704710B50020BC
:10282000EF490870002407E061210120FFF723FF32
:102830003220FEF7F2F9641C022CF5D30120E8499E
:1028400008707A20E749087010BD10B50020E649ED
:102850000870002407E061210320FFF70CFF3220FD
:10286000FEF7DBF9641C022CF5D30120DE49087069
:102870007A20DE49087010BD2DE9F14FAEB0DCA022
:102880002D9000202C908DF888008DF860002E98F7
:1028900029283DD2DFE800F0153D464D545B6269C2
:1028A00070777E858C939AA1A8FDFCFBFAF9F8F766
:1028B000F6F5F4F3F2F1F0EFEEEDECEBEAE9E8E730
:1028C000E6000221D34823F099FD88B100224FF49D
:1028D0000041D14823F0B0FD4FF40041CE4823F031
:1028E0009AFD044600222146CCA0FDF7E6FE0FE04B
:1028F0000122D103C84823F09FFD4FF40041C64890
:1029000023F089FD044600222146CCA0FDF7D5FE28
:1029100059E30122D148B0F900004142D0A0FDF7AF
:10292000CCFE50E30222D0480168D0A0FDF7C5FEDE
:1029300049E30322D1480168D1A0FDF7BEFE42E37E
:102940000422D4480168D4A0FDF7B7FE3BE305227A
:10295000D5480168D5A0FDF7B0FE34E30622D7487C
:102960000168D7A0FDF7A9FE2DE30722D74801682B
:10297000D7A0FDF7A2FE26E30822D9480168D9A016
:10298000FDF79BFE1FE30922DA480168DAA0FDF794
:1029900094FE18E30A22DC480168DCA0FDF78DFEF6
:1029A00011E30B22DC480168DCA0FDF786FE0AE398
:1029B0000C22DE480168DEA0FDF77FFE03E30D2256
:1029C000E0480168E0A0FDF778FEFCE20E22E24854
:1029D0000168E2A0FDF771FEF5E2E44841890F22AB
:1029E000E3A0FDF76AFEEEE20121E54823F006FDD3
:1029F0004FF400511790884823F000FD044602214F
:102A0000DF4823F0FBFC05464FF48041824823F069
:102A1000F5FC06460421DA4823F0F0FC4FF40041AF
:102A20001690D74823F0EAFC07460821D44823F043
:102A3000E5FC80464FF48041D14823F0DFFC81461D
:102A40001021CF4823F0DAFC4FF400511590CC4808
:102A500023F0D4FC82460821CA4823F0CFFC4FF46F
:102A6000805117E0A8E29BE28EE281E274E26BE221
:102A700063E25AE250E246E23CE232E226E21AE245
:102A80000DE201E2F4E1E7E1DFE1D2E1CAE1C2E116
:102A9000BAE13CE01490BA4823F0B0FC1021139046
:102AA000B84823F0ABFC4FF480611290B44823F097
:102AB000A5FC83468021B24823F0A0FC4FF480712E
:102AC0001190AF4823F09AFC10901798CDE90B6550
:102AD000CDE90D401698CDE90798CDE90970DDE9FB
:102AE00014211398CDE9042A06910390DDE9110120
:102AF000CDE901B10090A4A2282122A8109B27F0C3
:102B00004BFE102222A9A9A0FDF72AFE5BE280213C
:102B1000404823F073FC044601213E4823F06EFC3C
:102B2000054640213B4823F069FC06464FF400412E
:102B3000944823F063FC07464FF480519C4823F0EF
:102B40005DFC80464FF48061324823F057FC81469B
:102B50004FF40061964823F051FC4FF40061179048
:102B60002C4823F04BFC82464FF48061854823F0CB
:102B700045FC83464FF48051264823F03FFC4FF438
:102B8000006116907F4823F039FC4FF400511590F6
:102B9000204823F033FC4FF480411490794823F00F
:102BA0002DFC4FF4804113901A4823F027FC4FF47A
:102BB000807112907E4823F021FCFBE00000014070
:102BC0006C000020240800408800002070000020D5
:102BD0002404004074000020240C004078000020F1
:102BE0009300002092000020950000209400002017
:102BF00031313131313131313131313131313131C5
:102C000031313131313130313131313131313131B5
:102C1000000000000004024000080240524F424FF2
:102C20005420322044414E472043484159205341CB
:102C30004E2058414E483A2020200000524F424F2B
:102C40005420322044414E472043484159205341AB
:102C50004E20444F3A202020000000008C0000202D
:102C6000494D553A00000000A40000204C617A65EF
:102C70007220706861693A2000000000B8000020EE
:102C800054726F206368616E205472756F633A20CE
:102C900000000000A00000204C617A657220747270
:102CA00061693A2000000000BC00002054726F20CF
:102CB0006368616E205361753A200000980000201F
:102CC0004C617A6572207361753A2000C000002063
:102CD00054726F2064617920746179203120000082
:102CE0009C0000204C617A6572207472756F6320BD
:102CF00000000000C400002054726F20646179203D
:102D00007461792032200000400300206D6F6465FB
:102D10002062616320332000B000002054726F20D5
:102D2000786F6179207461792000000038030020F9
:102D30006D6F64655F636861795F72756E673A2075
:102D4000000000002C0300206E6861745F646174F1
:102D50005F686F70200000003C0300206D6F6465A9
:102D6000206E68617420686F70200000C208002027
:102D70005175616E675F74726F203A200000000029
:102D800000100240000C024025642564256425647F
:102D900025642564256425642564256425642564EB
:102DA000256425642564256400000000493A00007C
:102DB000000002404FF400411190FD4823F01EFB3B
:102DC000CDE90B76CDE90D5410901798CDE907A009
:102DD000CDE90998DDE914121698CDE9050BCDE986
:102DE0000312DDE911121398CDE900120290AFF23F
:102DF0006802282122A8109B27F0CEFC112222A9CC
:102E0000ECA0FDF7ADFCDEE01222EC480168ECA07E
:102E1000FDF753FCD7E01322EE480168EEA0FDF762
:102E20004CFCD0E01422EF480168EFA0FDF745FC10
:102E3000C9E04FF40061F14823F0E0FA044615229E
:102E40002146EFA0FDF739FCBDE0F148018A1622CA
:102E5000F0A0FDF732FCB6E04FF40071E74823F034
:102E6000CDFA044617222146EDA0FDF726FCAAE084
:102E70004FF48071EE4823F0C1FA0446182221462F
:102E8000ECA0FDF71AFC9EE02021DC4823F0B6FA06
:102E9000044619222146EBA0FDF70FFC93E04FF406
:102EA0000071E34823F0AAFA04461A222146E9A059
:102EB000FDF703FC87E04021D04823F09FFA044649
:102EC0001B222146E7A0FDF7F8FB7CE00121E94841
:102ED00023F094FA04461C222146E7A0FDF7EDFBFF
:102EE00071E0FDF70BFE04461D222146E4A0FDF72C
:102EF000E4FB68E0FDF7D5FD04461E222146E4A070
:102F0000FDF7DBFB5FE0FDF74DFE04461F22214687
:102F1000E3A0FDF7D2FB56E0FDF71AFE044620229F
:102F20002146E3A0FDF7C9FB4DE02122E448B0F9BA
:102F30000010E4A0FDF7C1FB45E02222E44801684F
:102F4000E4A0FDF7BAFB3EE02322E548B0F900100B
:102F5000E4A0FDF7B2FB36E04FF40061C54823F072
:102F60004DFA044624222146E1A0FDF7A6FB2AE003
:102F70004FF48061BF4823F041FA044625222146E0
:102F8000DEA0FDF79AFB1EE04FF48051884823F045
:102F900035FA044626222146DBA0FDF78EFB12E01F
:102FA0004FF40051824823F029FA04462722214693
:102FB000D8A0FDF782FB06E02822D9480168D9A0F5
:102FC000FDF77BFB00BF00BF2FB0BDE8F08F10B551
:102FD0000121D94824F042F810BD01B5D748006856
:102FE0000099884203DD0020D449086004E0D348FA
:102FF0000068401CD1490860D0480068FFF73CFCDD
:1030000008BD01B59DF80000052801DA002008BDC3
:103010009DF80000FBE730B504461D4624B9C848BA
:103020000078C84BD87011E0002C07DDE0B2FFF744
:10303000E8FFC44BD8700020987007E06342D8B214
:10304000FFF7DFFFBF4BD8700120987021B9BC4853
:103050000078BC4BD87111E0002907DDC8B2FFF73A
:10306000D0FFB84BD8710120987107E04B42D8B21D
:10307000FFF7C7FFB34BD8710020987122B9B04851
:103080000078B04BD87211E0002A07DDD0B2FFF70C
:10309000B8FFAC4BD8720120987207E05342D8B207
:1030A000FFF7AFFFA74BD8720020987225B9A4484C
:1030B0000078A44BD87311E0002D07DDE8B2FFF7CC
:1030C000A0FFA04BD8730020987307E06B42D8B2E2
:1030D000FFF797FF9B4BD8730120987330BD994A37
:1030E000D070D071D072D07370479648C0780328E2
:1030F0000DDA9448C079032809DA9248C07A032887
:1031000005DA9048C07B032801DA012070470020CF
:10311000FCE701208C49086070478C48006847F242
:103120003051884201D0012070470020FCE710B5E3
:10313000FFF774FB10BD8648B0F9000040427047AD
:10314000B5EEC00AF1EE10FA09D28248D0ED000ABD
:1031500070EE600AFDEEE00A10EE900A70477D48BE
:10316000D0ED000A70EE200AFDEEE00A10EE900AA3
:10317000F4E710B52DED0A8B044624B99FED760ACD
:10318000BDEC0A8B10BD002C11DA7448006827F0E2
:103190003EF941EC190B204627F039F941EC1C0BA4
:1031A0009FED6F0B53EC102B27F050F8DCE0F0E0B4
:1031B00000040240696E323A00000000F80200206C
:1031C000636F756E745F646174615F75617274348E
:1031D0002000000014030020626C6F636B5F706856
:1031E000613A2000100300207365655F52315F74FF
:1031F00072656E5F72756E672000000000100240FD
:1032000043425F4E616E675F747261692000000027
:10321000C20800205175616E675F74726F322000C2
:1032200043425F4E616E675F706861690000000035
:1032300000080240636865636B5F686F705F313AD6
:1032400000000000636865636B5F686F705F323A0F
:1032500020000000636865636B5F686F705F333ADE
:1032600020000000636865636B5F686F705F343ACD
:1032700020000000000C02405374617274000000D2
:10328000454E434F4445525F4652282920000000D6
:10329000454E434F4445525F464C282920000000CC
:1032A000454E434F4445525F5252282920000000AA
:1032B000454E434F4445525F524C282920000000A0
:1032C00090000020494D55786F6179446F6320006C
:1032D0002003002069645F6461745F686F70200080
:1032E0008E000020494D55786F61793A000000004A
:1032F00043425F6B65705F345F31200043425F6B18
:1033000065705F345F32200043425F6B65705F32EF
:103310005F32200043425F6B65705F325F31200097
:1033200064030020706861745F6869656E5F723164
:103330005F76332000000000A0600240840000207F
:10334000AC0300200400002010040020D40300205F
:103350008C0000206C03002000000000C00300204F
:10336000333333333333C33F41EC1B0B9FEDFE0B41
:1033700053EC102B26F064FF41EC1A0B53EC192B85
:1033800026F0D6FF41EC180B27F09CF800EE100A4F
:10339000F6E6F748006827F03AF841EC190B2046AA
:1033A00027F035F841EC1C0B1FED130B53EC102BE1
:1033B00026F04CFF41EC1B0B9FEDEB0B53EC102B5D
:1033C00026F09DFE41EC1A0B53EC192B26F0B0FFB2
:1033D00041EC180B27F076F800EE100AD0E6F0EE7C
:1033E000400AF5EEC00AF1EE10FA02DBB0EE600A18
:1033F0007047B1EE600AFBE70146002901DB084691
:1034000070474842FCE70146DA48D0ED000AF1EE89
:10341000600AD948D0ED001A80EEA11A00EE901A89
:10342000F8EEE01AD348D0ED000A41EE210AB0EEE2
:10343000600AFDEEC00A10EE900A7047B0EE402A16
:10344000DFEDCE2AB0EE620AB5EEC02AF1EE10FA38
:1034500003D2F1EE422AB0EE622AF5EEC00AF1EE96
:1034600010FA03D2F1EE602AF0EE620AB5EEC01A4D
:10347000F1EE10FA03D2F1EE412AB0EE621AF5EE47
:10348000C01AF1EE10FA03D2F1EE612AF0EE621AE0
:10349000B4EEC02AF1EE10FA01DDB0EE420AF4EE0D
:1034A000C00AF1EE10FA01DDB0EE600AB4EEC01A07
:1034B000F1EE10FA01DDB0EE410AF4EEC01AF1EEC1
:1034C00010FA01DDB0EE610A7047A9480068704744
:1034D000AB480068704710B52DED028BB0EE408A06
:1034E000A848006847F2305188420ED11FED660AA5
:1034F000A54880ED000AA54880ED000AA44880EDAB
:10350000000AA44880ED000A4AE0A3480068A349E5
:103510000968401A9B490968081A00EE100AB8EEBB
:10352000C00AF0EE408A9E48D0ED000A88EEA00A5C
:103530009C48D0ED000A30EE200A9B48D0ED000AEE
:1035400020EE200AF0EE408AB0EE680A28F066F914
:10355000F0EE000A20EE200A8B4880ED000AB0EE63
:10356000680A27F0D5FBF0EE000A20EE200A874813
:1035700080ED000A844890ED000A8C48D0ED000AE6
:1035800030EE200A834880ED000A804890ED000A62
:103590008648D0ED000A30EE600A7D4880ED000AD2
:1035A000B5EEC08AF1EE10FA73D0814800680528A4
:1035B00020D2DFE800F003203A546F00754890ED08
:1035C000000A30EE080A80ED000A714890ED000A0A
:1035D00030EE480A80ED000A6C4890ED000A30EEAB
:1035E000080A80ED000A684890ED000A30EE480AAB
:1035F00080ED000A68E0664890ED000A30EE480A67
:1036000080ED000A614890ED000A30EE080A80ED76
:10361000000A5D4890ED000A6648D0ED000A08EE09
:10362000600A594880ED000A4EE05A4890ED000AC1
:1036300030EE080A80ED000A544890ED000A5D481B
:10364000D0ED000A08EE200A504880ED000A4E48EE
:1036500090ED000A30EE480A80ED000A34E04D4853
:1036600090ED000A30EE080A80ED000A484890ED1F
:10367000000A5048D0ED000A08EE600A444880ED88
:10368000000A414890ED000A30EE480A80ED000A39
:103690001AE01AE03F4890ED000A4648D0ED000AD3
:1036A00008EE200A3B4880ED000A394890ED000AF8
:1036B00030EE480A80ED000A344890ED000A30EE02
:1036C000080A80ED000A00BF00BF2F48D0ED001AA5
:1036D0002E4890ED001A2E48D0ED000A2D4890EDAE
:1036E000000AFFF7ABFE3448D0ED000AF8EEE00A1E
:1036F00080EE801ABDEEC10A304880ED000A1C48F9
:1037000000682E490968884203DD2C480068184982
:10371000086001202A490860BDEC028B10BD10B57D
:10372000044600202749086027480460D4B90020D7
:103730000F4908601FEDF80A1C4880ED000A47F2A7
:10374000305010490860214908609FED210A214846
:1037500080ED000A0020164908601F4908600849EA
:1037600008603BE040E000009A9999999999C93F17
:10377000C0030020A8030020A40300206F12833A96
:10378000EC030020D40300200C04002008040020D7
:103790000404002000040020F4030020E0030020C3
:1037A0008403002090030020B4030020E8030020DD
:1037B000BC0300207403002068030020C80300201D
:1037C000B8030020C4030020CC030020D80300204D
:1037D00000000000E4030020DC030020FE49086034
:1037E0001FED050AFFF777FE10BD10B5FB4890ED01
:1037F000000AB5EEC00AF1EE10FA05D1F8480068EB
:1038000010B9F848006890B11FED0F0AF34880ED39
:10381000000A0020F2490860F2490860F248006896
:10382000F2490860ED4890ED000AFFF754FE10BD24
:10383000EF48C0ED000AEF4880ED000A704770B510
:103840002DED028B05460C46B0EE408AEA48006832
:10385000A8420BD1E9480068A04207D1E84890EDA2
:10386000000AB4EE480AF1EE10FA18D0E3480460FA
:10387000E448006810B90520E2490860DA480068A9
:10388000DA490860DE4880ED008ADB4805600020E8
:10389000DD490860D14890ED000AFFF71CFEBDEC41
:1038A000028B70BD70B52DED028B0446B0EE408AE0
:1038B0000D46CC480068A0420BD1C84890ED000AE4
:1038C000B4EE480AF1EE10FA03D1C5480068A842E8
:1038D0003AD0C948006847F23051884225D12820A3
:1038E000C6490860C748006810B90A20C549086081
:1038F00047F23050844218DA0120C4490860B5EE1E
:10390000C08AF1EE10FA03DDB7480068A04208DC77
:10391000B5EEC08AF1EE10FA07D2B3480068A042B3
:1039200003DAB1EE480AB0EE408AAE480460AC4813
:103930000560AA4880ED008A0020B3490860A748C6
:1039400090ED000AFFF7C7FDBDEC028B70BD10B50E
:103950002DED028BB0EE408A04462146B0EE480AB7
:1039600047F23050FFF79EFFBDEC028B10BD70B5E3
:1039700004460D461FED6A0A29462046FFF75FFF01
:1039800070BD70B52DED088BF0EE408A0446B0EEA8
:10399000608AB0EE419A9E4890ED000AB8EEC00AE7
:1039A000B4EE680AF1EE10FA0DD194480068A04216
:1039B00009D18C4890ED000AB8EEC00AB4EE480A6E
:1039C000F1EE10FA5ED0BDEEE80A914880ED000AF3
:1039D000854991ED000AB8EEC00A38EEC00ABDEE86
:1039E000C00A10EE100A1FED860A2146FFF727FFD6
:1039F0007D4890ED000AB8EEC00A38EE400ABDEEF0
:103A0000C00A10EE105A002D01DB284600E0684283
:103A1000462814DD744890ED000AB8EEC00AB4EEF2
:103A2000C08AF1EE10FA02DDB0EE490A01E0B1EE13
:103A3000490A10EE101A084626F019FD13E06A48EC
:103A400090ED000AB8EEC00A38EE400A10EE101AE7
:103A5000084626F00CFD41EC1B0B9FED6E0B53EC62
:103A6000102B26F0F3FB41EC1A0B26F02BFD09EE90
:103A7000900A0021B0EE690AFDEEC80A10EE900A25
:103A8000FFF710FFBDEC088B70BD10B55F480068F4
:103A900001283DDD53490968534A1268881AFFF727
:103AA000ABFC0A280CDA594801680068401C574AE8
:103AB0001060B1F5FA7F2BDD0020FFF730FE10BD5E
:103AC00052480068FA2808DD05204C4908604D4935
:103AD0000860FB204D49086004E005204749086064
:103AE00048490860404800683E490968884205DD49
:103AF000BFEE000A394880ED000A04E0B7EE000A84
:103B0000364880ED000A354890ED000AFFF7E3FCE7
:103B100000BFD4E710B52DED028B394890ED000AB7
:103B2000B5EEC00AF1EE10FA08D13648006828B1A7
:103B30002C48006847F23051884202DBBDEC028B12
:103B400010BD264890ED000AB5EEC00AF1EE10FA5D
:103B500041D02948006847F2305188426FD11F4850
:103B600090ED000AB5EEC00AF1EE10FA08DD1D482E
:103B700000682A490968401A1B490968884210DB15
:103B8000164890ED000AB5EEC00AF1EE10FA7CD2AC
:103B900014480068214909680844134909688842A3
:103BA00073DD1A480068032870DA0E4909680E4A66
:103BB0001268881AFFF720FC082841DA09480068D3
:103BC0001749086000200F4908600C4908609FED04
:103BD000150A024828E00EE110040020E40300204A
:103BE000BC030020DC030020F4030020E0030020DD
:103BF000A8030020A4030020D4030020C403002055
:103C0000E8030020C0030020D0030020EC030020C4
:103C1000D8030020FCA9F1D24D62803FA003002010
:103C2000F00300200000000080ED000A0220F749A8
:103C30000860F74890ED000AFFF74DFC7EE778E05A
:103C4000F4480068F4490968884237DDF34890ED8C
:103C5000000AB8EEC00AEE48D0ED000A60EE200A75
:103C6000EF4890ED000AB8EEC00AC0EE801AB0EE40
:103C7000611AB0EE410AFFF7B2FBE6490968E64A6D
:103C80001268881AFFF7B8FB01E04CE0B2E000EEE2
:103C9000900AB8EEE01AE348D0ED000A40EE010ABF
:103CA000DE4890ED000AB8EEC00A80EE801AB0EE51
:103CB000418AB0EE480AFFF70EFC9BE0D74890ED32
:103CC000000AB8EEC00AD248D0ED000A60EE200A21
:103CD000D34890ED000AB8EEC00AC0EE801AB0EEEC
:103CE000611AB0EE410AFFF77AFBCA490968CA4A6D
:103CF0001268881AFFF780FB00EE900AB8EEE01A0F
:103D0000C848D0ED000A50EE410AC44890ED000AC0
:103D1000B8EEC00A80EE801AB0EE418AB0EE480AD2
:103D2000FFF7D9FB66E0BA4890ED000AFFF7D3FB36
:103D300060E0B74890ED000AB5EEC00AF1EE10FA67
:103D40001FDDB44890ED000AB8EEC00AB348D0EDCC
:103D5000000AF8EEE00AAE4890ED001A00EEC10A43
:103D6000B148D0ED000AF8EEE00A70EE600AAA4809
:103D700090ED000AB8EEC00AF4EEC00AF1EE10FAB7
:103D800027D3A34890ED000AB5EEC00AF1EE10FA71
:103D90002BD2A04890ED000AB8EEC00A9F48D0EDA3
:103DA000000AF8EEE00A9A4890ED001A00EEC10A07
:103DB0009D48D0ED000AF8EEE00A70EE200A964821
:103DC00090ED000AB8EEC00AF4EEC00AF1EE10FA67
:103DD0000BDD90490968904A1268881AFFF7C9F903
:103DE000B0EE408AFFF777FB04E0894890ED000AC7
:103DF000FFF771FBA2E68D490968874A1268881AA5
:103E0000FFF7B7F9B0EE408AFFF765FB00BF95E614
:103E100000B57E480068022815DA1FED7E0A844846
:103E200080ED000A1FED810A794880ED000A00202C
:103E30008049086047F230507F4908607F49086038
:103E40000020744908607E480068401C7C49086076
:103E50007C490968884204DA7B480068FFF73FF92B
:103E60000EE078480068764908607848006820B11C
:103E700075480068FFF733F902E00020FFF72FF9DB
:103E800000BD6F4A1268521C6D4B1A60824207DDFA
:103E9000624A12680A44614B1A600022684B1A6039
:103EA00070472DE9F041FFF746F95B490860FFF7DD
:103EB000ECFD67480068002821DD58480068644927
:103EC000096888422AD055480068614909688842D3
:103ED0000EDA524800685F49096888421EDA4F4886
:103EE0000068FFF790FA04460121FFF7CAFF15E0CA
:103EF0004FF0FF3158480068FFF7C3FF0EE0474816
:103F00000068002806DD6FF0010154480068FFF7E3
:103F1000B8FF03E0FFF77CFFBDE8F0815048006880
:103F20003D490968884205D0FFF7F4FD3A4800682A
:103F30004B4908604B480068F0B33848D0ED000AA0
:103F4000F8EEE00A484890ED001A60EE810AB0EE03
:103F5000600AFFF7F5F804463048D0ED000AF8EEA5
:103F6000E00A424890ED001A60EE810AB0EE600A65
:103F7000FFF7E6F805462948D0ED000AF8EEE00A1A
:103F80003B4890ED001A60EE810AB0EE600AFFF740
:103F9000D7F806462148D0ED000AF8EEE00A354889
:103FA00090ED001A60EE810AB0EE600AFFF7C8F8E3
:103FB000074623462A4600E002E03146FFF72BF889
:103FC00000BFA9E72DE9F0472DED048B0646F0EE82
:103FD000409A0F46B0EE608A9046FFF7ACF805466F
:103FE000B0EE690AFFF7FBF9F0EE408AB0EE489AAE
:103FF000C1464FF0000AA6F11004601BFFF7FCF960
:104000000A2839DCBDEC048BBDE8F087EC03002006
:10401000E4030020DC030020F4030020C0030020A0
:10402000A0030020800300209C030020E003002068
:10403000E8030020BC030020D4030020D8030020A4
:10404000D0030020B0030020AC03002010040020A7
:10405000C4030020C8030020FC030020CC03002080
:10406000F8030020B80300200C04002008040020FE
:104070000404002000040020AC4218DA3846B1EEF7
:10408000680AFFF764FC0CE0BAF1000F09D1281BA5
:10409000484506DC3846B1EE490AFFF758FC4FF0B8
:1040A000010AFFF748F80546A042EDDC17E0384664
:1040B000B0EE680AFFF74BFC0CE0BAF1000F09D133
:1040C000601B484506DC3846B0EE490AFFF73FFC66
:1040D0004FF0010AFFF72FF80546A042EDDB002064
:1040E000FFF71DFB00BFBDEC048BBDE8F0872DE999
:1040F000F0412DED0C8B05460E4617461C46B54289
:1041000007DB00EE107AB8EEC00ABDEC0C8BBDE800
:10411000F081002D04DC00EE104AB8EEC00AF4E78E
:1041200000EE105AF8EEC00A00EE106AB8EEC00AAF
:10413000C0EE808AB6EE000A38EEC00AF2EE080A37
:1041400020EE209AB1EE490A10EE100A26F08FF9FF
:1041500041EC1D0BB0EE4D0AF0EE6D0A26F080FE2C
:10416000B0EE40CAF0EE60CA9FEDFE0B53EC102B90
:1041700051EC1C0B25F0C3FF41EC1B0B53EC1B2B2C
:104180009FEDF80B51EC100B26F0D2F841EC1A0B16
:1041900026F098F908EE100A381B00EE100AF8EE27
:1041A000C00A00EE104AB8EEC00AF0EE409A40EEA7
:1041B000889AB0EE690AA8E72DE9FF4F2DED028B32
:1041C00083B004460F469046DDE91259A14500DD53
:1041D000A146FEF7FFFA3FE0FCF790FCB0F1000AC1
:1041E00001DBD34601E0CAF1000BFCF75AFC061EC6
:1041F00001DB304600E07042584402900298201AD9
:1042000001902B464946089A0198FFF770FFB0EEDF
:10421000408A00EE105AB8EEC00AB4EEC08AF1EE41
:1042200010FA05D200EE105AB8EEC00AB0EE408A7D
:10423000B6EE001A00EE108AF8EEC00ABDEEC80A0B
:1042400010EE100A00EE107AB8EEC00AFFF799FBE4
:10425000FCF71EFC00B914E0FCF750FCB0F1000ABA
:1042600001DBD34601E0CAF1000BFCF71AFC061E85
:1042700001DB304600E070425844211A1498814214
:10428000AADC00BF3220FFF74AFA03B0BDEC028B74
:10429000BDE8FF8FB54801680068401CB34A106054
:1042A000462907D2B248408BB24909680844B1494F
:1042B00008600BE0AF4800684621B0FBF1F0AE4962
:1042C00008600020A9490860AA490860AB48016855
:1042D0000068401CA94A1060462907D2A448008BF8
:1042E000A74909680844A64908600BE0A44800688B
:1042F0004621B0FBF1F0A349086000209F49086007
:104300009F490860A04801680068401C9E4A1060F0
:10431000462907D29648808A9C49096808449B49E7
:1043200008600BE0994800684621B0FBF1F098491D
:104330000860002094490860944908609548016825
:104340000068401C934A1060462907D28848C08AFA
:10435000914909680844904908600BE08E4800685C
:104360004621B0FBF1F08D490860002089490860C2
:10437000894908608A4801680068401C884A1060C2
:10438000322907D27A484089864909680844854914
:1043900008600BE0834800683221B0FBF1F08249ED
:1043A000086000207E4908607E4908607F480168F7
:1043B0000068401C7D4A1060322907D26C48C088D2
:1043C0007B49096808447A4908600BE0784800682E
:1043D0003221B0FBF1F07749086000207349086092
:1043E00073490860744801680068401C724A106094
:1043F000322907D25E4880887049096808446F49AD
:1044000008600BE06D4800683221B0FBF1F06C49A8
:1044100008600020684908606849086069480168C8
:104420000068401C674A1060462907D2504800893E
:10443000654909680844644908600BE062480068FF
:104440004621B0FBF1F06149086000205D49086039
:104450005D4908605E4801680068401C5C4A106065
:10446000462907D2424800885A49096808445949F0
:1044700008600BE0574800684621B0FBF1F0564950
:10448000086000205249086052490860534801689A
:104490000068401C514A1060462907D234484088C1
:1044A0004F49096808444E4908600BE04C480068D1
:1044B0004621B0FBF1F04B490860002047490860F5
:1044C000474908607047484800683D490968401AF4
:1044D00003EE100AB8EEC33AF0EE430A434890EDFB
:1044E000003A23EE203AF0EE432A3F480068404964
:1044F0000968884203DA3E4800683B4908603A4848
:1045000000683C490968884203DD3A48006836493A
:104510000860BDEEE03A13EE100A002801DB014608
:1045200000E0414206296DDD334890ED003A33EE5C
:10453000203A80ED003A90ED003ADFED303AB4EEEB
:10454000E33AF1EE10FA03DD9FED2C3A80ED003AEC
:10455000294890ED003ADFED2A3AB4EEE33AF1EE65
:1045600010FA50E0000000000000F03F600500205D
:10457000C208002064050020980000206805002083
:104580006C0500209C0000207005002074050020B0
:10459000A4000020780500207C050020A000002059
:1045A0008005002084050020A80000209805002038
:1045B0009C050020BC000020A0050020A4050020D0
:1045C000B8000020A8050020AC050020B0000020A5
:1045D000C0050020C4050020C0000020C805002040
:1045E000CC050020C400002084040020E00400204A
:1045F0007C04002080040020EC040020000096438E
:10460000000096C38AE003D21FED033A80ED003A22
:10461000FE4890ED003AFE48D0ED003A23EE232A02
:10462000FC4890ED003A30EEC33AFB48D0ED003A3A
:1046300063EE231AF748C0ED000A32EE823A33EEF9
:10464000213AF64880ED003AF5EEC00AF1EE10FA94
:1046500003D20120F249887502E00020F0498875F4
:10466000EE4991ED003ABDEEC33A13EE100A002870
:1046700001DB014600E0414203EE101AB8EEC33AF6
:10468000DFEDE83A23EE230AE74890ED003AB8EE72
:10469000C33AB4EEC30AF1EE10FA05DD90ED003A2C
:1046A000B8EEC33AB0EE430AB3EE043AB4EEC30A2E
:1046B000F1EE10FA03D2B3EE043AB0EE430ADB484F
:1046C00090ED003A30EE431AB1EE003AB4EEC31A60
:1046D000F1EE10FA08DD90ED003AF1EE003A33EE1B
:1046E000233AB0EE430A0FE0B9EE003AB4EEC31A33
:1046F000F1EE10FA08D2CD4890ED003AF1EE003A12
:1047000033EE633AB0EE430AC84880ED000ABCEECF
:10471000C03A13EE100AC249C87513E09FEDC43ABF
:10472000BB4880ED003A9FEDC23ABA4880ED003AAE
:104730000220BB49C875002088759FEDBD3ABB4873
:1047400080ED003A7047BB480068BB490968401AD1
:1047500003EE100AB8EEC33AB0EE430AB74890ED44
:10476000003A23EE003AF0EE432AB2480068B4491A
:104770000968884203DAB2480068AE490860AD486B
:104780000068B0490968884203DDAE480068A9495D
:104790000860BDEEC03A13EE100A002801DB0146A6
:1047A00000E0414206297CDDA74890ED003A33EE57
:1047B000003A80ED003A90ED003A5FED703AB4EEC9
:1047C000E33AF1EE10FA03DD1FED743A80ED003AA2
:1047D0009D4890ED003A5FED763AB4EEE33AF1EEA3
:1047E00010FA03D21FED7A3A80ED003A974890ED27
:1047F000003A9548D0ED003A23EE232A944890EDF4
:10480000003A30EE433A9348D0ED003A63EE231A73
:104810008F4880ED000A32EE823A33EE213A8E481C
:1048200080ED003AB5EEC00AF1EE10FA03D2002096
:104830007B49887402E0012079498874864991EDAA
:10484000003ABDEEC33A13EE100A002801DB014620
:1048500000E0414203EE101AB8EEC33ADFED713AC0
:1048600063EE230A7D4890ED003AB8EEC33AF4EEC9
:10487000C30AF1EE10FA05DD90ED003AB8EEC33A46
:10488000F0EE430AB3EE043AF4EEC30AF1EE10FA86
:1048900003D2B3EE043AF0EE430A714890ED003AC9
:1048A00000E02BE030EEC31AB1EE003AB4EEC31ACA
:1048B000F1EE10FA08DD90ED003AF1EE003A33EE39
:1048C000233AF0EE430A0FE0B9EE003AB4EEC31A11
:1048D000F1EE10FA08D2624890ED003AF1EE003A9B
:1048E00033EE633AF0EE430A5D48C0ED000ABCEED9
:1048F000E03A13EE100A4A49C87413E09FED4C3AAF
:10490000514880ED003A9FED4A3A514880ED003A17
:1049100002204349C874012088749FED453A5048ED
:1049200080ED003A70474F4800684F490968884257
:1049300003DA4D4800684B4908604A4800684B4913
:104940000968884203DD49480068464908604849CB
:104950000968444A1268881A002801DB014600E011
:104960004142032932DD424800683E4909688842D5
:1049700003DD00202A49887602E001202849887654
:104980003B490968374A1268881A002801DB01464A
:1049900000E0414201EBC10202EB0111354A116016
:1049A0001046006834490968884203DD32480068CF
:1049B000114608602F480068142802DA14202D4997
:1049C00008602C4800781649C87602E00020144997
:1049D000C87670472948006829490968884203DA7F
:1049E0002748006825490860244800682549096867
:1049F000884203DD2348006820490860224909688D
:104A00001E4A1268881A002842DB3FE0E4040020B6
:104A1000EC040020F0040020E8040020F40400204E
:104A200004000020CDCC4C40BC040020F804002041
:104A30000000000090040020BC000020FC040020C6
:104A4000880400208C0400200805002000050020B8
:104A50000C0500200405002010050020B8040020EB
:104A600014050020A8040020A0040020A4040020B5
:104A7000C00000201C050020C4040020B404002055
:104A8000AC040020B0040020C4000020014600E077
:104A90004142032935DDF9480068F949096888422F
:104AA00004DD0020F74981F82A0003E00120F549E0
:104AB00081F82A00F1490968F14A1268881A002829
:104AC00001DB014600E0414201EBC10202EB0111B2
:104AD000ED4A116010460068EC490968884203DD20
:104AE000EA48006811460860E7480068142802DABE
:104AF0001420E5490860E4480078E24981F82B0079
:104B000003E00020DF4981F82B00704710B5E04832
:104B10000068E0490968884203DADE480068DC4939
:104B20000860DB480068DC490968884203DDDA4830
:104B30000068D7490860D94B1B68D54C24681A1BFC
:104B4000002A01DB134600E05342012B4EDDD44B1B
:104B50001B68D44C2468191B002901DB0B4600E0BC
:104B60004B420F2B42DAC54B1B68CF4C2468181BF5
:104B7000002801DB034600E043420F2B36DAC7482A
:104B80000068C3490968884204DD0120BD4981F8F5
:104B9000260003E00020BB4981F82600BF490968D0
:104BA000BB4A1268881A002801DB014600E0414236
:104BB000C1EB0111B44A116010460068BB49096895
:104BC000884203DDB948006811460860AE480068B5
:104BD0003C2802DA3C20AC490860AB480078A9497F
:104BE00081F827000020B249086006E00020A549AE
:104BF00081F827000120AE49086010BD1E20AD4994
:104C00000860AD49086070475020AA490860AA4969
:104C1000086070477320A7490860A749086070477B
:104C20009620A4490860A4490860704700B5024670
:104C3000FFF7F0FFA1480260A148026000BD00B587
:104C40000246FFF7DBFF9D4802609D48026000BD01
:104C500000B50246FFF7D8FF984802609848026006
:104C600000BD00B50246FFF7DBFF944802609448A0
:104C7000026000BD70B5FA2092490860894800685A
:104C800091490860FA2081490860874800687C499A
:104C9000086000208D49086035E006E0012024F01E
:104CA000ADFDFBF7F5FE00B927E07D4B1B68864C98
:104CB0002468191B002901DB0B4600E04B42794CAC
:104CC0002468834D2D68621B02EBD2746410A342EA
:104CD000E4DC754B1B687F4C24681B1B032493FB8F
:104CE000F4F4664B1B68664D2D68581B002801DBE9
:104CF000034600E043429C42D0DB00BF734800689B
:104D0000401C72490860714800683228C5DB70BDDC
:104D100070B540F20910FFF789FF6F48006800285E
:104D200056D16E480068002852D16D4800680028AE
:104D30004ED16C48006800284AD129E004216A4815
:104D400021F05CFB70B98021684821F057FB48B91D
:104D50009FED671ADFED670A14209FED670AFEF7E3
:104D600010FE0EE09FED621ADFED620A14209FED47
:104D7000630AFEF706FE4348C07F40F080004149C9
:104D8000C877012024F03AFDFBF782FE00B906E067
:104D90004FF480715A4821F031FB0028CED000BF7B
:104DA0009FED531ADFED530A0A209FED560AFEF7D6
:104DB000E8FD06E0012024F021FDFBF769FE00B9C3
:104DC00005E00421484821F019FB0028F2D05BE1FE
:104DD00041480068012847D140480068002843D175
:104DE0003F48006800283FD13E480068E0BB29E00A
:104DF00004213D4821F002FB70B980213B4821F09D
:104E0000FDFA48B99FED3A1ADFED3A0A14209FEDFA
:104E10003A0AFEF7B6FD0EE09FED351ADFED350AD2
:104E200014209FED360AFEF7ACFD1648C07F40F017
:104E300020001449C877012024F0E0FCFBF728FE8D
:104E400000B906E04FF480712D4821F0D7FA002810
:104E5000CED000BF9FED261ADFED260A0A209FED77
:104E6000290AFEF78EFD4FE055E0012024F0C6FC34
:104E7000FBF70EFE00B94DE046E00000C400002044
:104E8000B4040020040000201C050020C8040020F9
:104E90009C0400209404002098040020B00000200E
:104EA000C0000020B4010020B8010020C004002090
:104EB00078040020B8040020BC04002084040020F2
:104EC00090040020C4040020A80400204004002016
:104ED000A0040020AC0400205C020020600200203E
:104EE000640200206802002000100240000402401A
:104EF0003333333F000061440000C8C3000061C485
:104F000000000240000016430421FE4821F076FA1A
:104F10000028AAD0B8E0FC480068012857D1FB4817
:104F20000068012853D1FA48006870BBF94800684E
:104F300058BB2BE04FF40061F74821F05FFA70B9DD
:104F40000121F64821F05AFA48B91FED171A5FED12
:104F5000170A14209FEDF20AFEF713FD0EE01FED75
:104F60001C1A5FED1C0A14201FED1C0AFEF709FD38
:104F7000EC48C07F40F08000EA49C877012024F067
:104F80003DFCFBF785FD08B907E020E04FF4807198
:104F9000E14821F033FA0028CCD000BF1FED2C1AD5
:104FA0005FED2C0A0A209FEDE00AFEF7EAFC06E01E
:104FB000012024F023FCFBF76BFD00B906E04FF461
:104FC0000061D54821F01AFA0028F1D05CE0CE4803
:104FD0000068012858D1CD480068012854D1CC4838
:104FE0000068012850D1CB480068E8BB2AE04FF4A4
:104FF0000061C94821F002FA70B90121C74821F0C7
:10500000FDF948B91FED461A5FED460A14209FEDE1
:10501000C40AFEF7B6FC0EE01FED4B1A5FED4B0A1B
:1050200014201FED4A0AFEF7ACFCBE48C07F40F0DA
:105030002000BC49C877012024F0E0FBFBF728FDE5
:1050400000B906E04FF48071B34821F0D7F9002889
:10505000CDD000BF1FED5A1A5FED5A0A0A209FED0E
:10506000B20AFEF78EFC07E00EE0012024F0C6FB3A
:10507000FBF70EFD00B906E04FF40061A64821F0F1
:10508000BDF90028F1D000BF1FED671A5FED670A78
:105090000A201FED660AFEF774FCFDF79BFB06E095
:1050A000012024F0ABFBFBF7F3FC00B911E0FBF7A8
:1050B00025FD0546FBF7F5FC041E01DB204600E05C
:1050C0006042002D01DB294600E069420844C828FF
:1050D000E6DB00BF0020FEF722FB70BD2DE9F041AA
:1050E00005460E4664209149086091490860914840
:1050F0000068F7309049086090480068F5309049A2
:105100000860002415E006E0012024F077FBFBF79F
:10511000BFFC00B90BE08B490968894A1268881AFC
:10512000002801DB014600E041420829ECDC00BF19
:10513000641C322CE7DB9FED841A00EE106AF8EE57
:10514000C00A122000EE105AB8EEC00AFEF719FC91
:10515000002410E006E0012024F050FBFBF798FC4F
:1051600000B906E04FF480716B4821F047F901283F
:10517000F1D000BF641C322CECDB9FED731A00EE03
:10518000106AF8EEC00A042000EE105AB8EEC00A09
:10519000FEF7F7FBFA20654908606848006868492F
:1051A0000860002415E006E0012024F027FBFBF74F
:1051B0006FFC00B90BE063490968614A1268881AFC
:1051C000002801DB014600E041420829ECDC00BF79
:1051D000641C322CE7DBDFED5D0A9FED5D0AFEF714
:1051E00027FB9FED591A00EE106AF8EEC00A322034
:1051F00000EE105AB8EEC00AFEF7C3FB002415E01B
:1052000006E0012024F0FAFAFBF742FC00B90BE0BB
:105210008021424821F0F2F8012805D101213F48C0
:1052200021F0ECF80128ECD000BF641CB4F57A7FC3
:10523000E6DBB6EE001A00EE106AF8EEC00A1E2099
:1052400000EE105AB8EEC00AFEF79BFB00240FE0F8
:1052500006E0012024F0D2FAFBF71AFC00B905E0C1
:105260000121284821F0CAF80128F2D000BF641CAF
:1052700040F226208442EBDB28202C4908602F488E
:1052800000680E302E490860DFED320A9FED320AC9
:10529000FEF7CEFAB6EE001A00EE106AF8EEC00A7B
:1052A000082000EE105AB8EEC00AFEF76AFB002490
:1052B00010E006E0012024F0A1FAFBF7E9FB00B9B9
:1052C00006E04FF400510F4821F098F80128F1D082
:1052D00000BF641CB4F57A7FEBDBB6EE001A00EE7B
:1052E000106AF8EEC00A042000EE105AB8EEC00AA8
:1052F000FEF747FBFA200E4908600E480068401D83
:105300000D492BE0001002405C02002060020020EA
:1053100064020020680200200000024000040240F5
:1053200000C0C1C4040000200080D444B8040020A0
:10533000BC0400207C040020840400208804002099
:1053400090040020BC000020CDCC4C3F00008242E5
:10535000000048420000AA420000F0420860002419
:1053600015E006E0012024F049FAFBF791FB00B9B3
:105370000BE0FE490968FE4A1268881A002801DB22
:10538000014600E041420829ECDC00BF641CFA2C15
:10539000E7DB9FEDF81A00EE106AF8EEC00A142061
:1053A00000EE105AB8EEC00AFEF7EBFA002416E041
:1053B00006E0012024F022FAFBF76AFB00B90CE0BA
:1053C0004FF40061EC4821F019F8012805D10421BF
:1053D000EA4821F013F80128EBD000BF641C40F626
:1053E000F6108442E4DBFDF7F5F906E0012024F035
:1053F00005FAFBF74DFB00B914E0FBF77FFB804695
:10540000FBF74FFB071E01DB384600E07842B8F19E
:10541000000F01DB414601E0C8F100010844B0F58E
:10542000D27FE3DB00BF002410E006E0012024F07F
:10543000E5F9FBF72DFB00B906E04FF48041CF48BA
:1054400020F0DCFF0128F1D000BF641C40F6F6100C
:105450008442EADBFFF7DEFB40F20910C449086032
:10546000C74908609FEDC31A00EE106AF8EEC00A43
:10547000142000EE105AB8EEC00AFEF782FA00249B
:105480000FE006E0012024F0B9F9FBF701FB00B9B9
:1054900005E01021B94820F0B1FF0128F2D000BF8B
:1054A000641C642CEDDB0020FEF739F9BDE8F081C7
:1054B00010B50020FEF733F905210420FDF7DBF8D5
:1054C000B048C07F40F00200AE49C8770020AE4926
:1054D000086011E006E0012024F090F9FBF7D8FA0B
:1054E00000B903E0A94800680128F4D000BFA6482D
:1054F0000068401CA4490860A3480068FA28E9DB5A
:10550000A048C07F00F0FD009E49C87701209F4958
:10551000086000209E49086010BD2DE9F0472DED80
:10552000028B81460F46164698469DED0A8ADDE9B4
:105530000B450020FEF7F3F89FED961AF8EEC80A27
:10554000102000EE106AB8EEC00AFEF71AFA4046C4
:1055500024F054F90020FEF7E2F84FF49672DFEDE4
:105560008E0A00219FED8D0A4846FEF72BFD002094
:10557000FEF7D5F8FFF74EFB89480068FA307C4902
:10558000086088480068FA307D49086000207E493C
:10559000086019E006E0012024F030F9FBF778FA02
:1055A00000B90BE080490968754A1268881A00281A
:1055B00001DB014600E041420F29ECDC00BF7248EC
:1055C0000068401C704908606F4800683228E1DBC1
:1055D0001FEDA31A00EE105AF8EEC00A142000EED8
:1055E000104AB8EEC00AFEF7CCF900206649086000
:1055F00014E006E0012024F001F9FBF749FA00B9B4
:1056000006E04FF480715C4820F0F8FE0128F1D0EC
:1056100000BF5D480068401C5B4908605A4800684C
:105620009628E6DB1FEDB81A00EE105AF8EEC00A15
:105630000E2000EE104AB8EEC00AFEF7A2F90020D4
:10564000514908601BE006E0012024F0D7F8FBF781
:105650001FFA00B90DE04FF48071474820F0CEFEEC
:105660000128F1D04FF48051434820F0C7FE0028B4
:10567000EAD000BF44480068401C434908604248E3
:1056800000689628DFDB42480068012801D1FFF757
:105690000FFF29462046FFF721FD0020FEF73FF8C7
:1056A0004FF49672DFED3C0A00219FED3C0A38462C
:1056B000FEF788FC0020FEF732F8BDEC028BBDE857
:1056C000F0872DE9F04104460D46FFF79DFA344876
:1056D0000068401D2649086032480068C01C2849FF
:1056E0000860002615E006E0012024F087F8FBF7AB
:1056F000CFF900B90BE02C490968214A1268881AD1
:10570000002801DB014600E041420A29ECDC00BF31
:10571000761C322EE7DB9FED1F1A00EE105AF8EED2
:10572000C00A1C2000EE104AB8EEC00AFEF729F9A4
:10573000002610E006E0012024F060F8FBF7A8F94D
:1057400000B906E04FF480710B4820F057FE0028A6
:10575000F1D000BF761CB6F57A7FEBDB9FED0D1A1A
:1057600000EE105AF8EEC00A12201FE0B800002028
:10577000840400209A99193F000002400010024062
:105780009004002004000020400400200C030020AE
:10579000080300203333333F9A99993ECDCCCC3F58
:1057A0007C04002088040020BC00002000EE104A89
:1057B000B8EEC00AFEF7E5F800261BE006E001207F
:1057C00024F01CF8FBF764F900B911E04FF4807184
:1057D000FC4820F013FE0028F1D08021FA4820F088
:1057E0000DFE28B90121F84820F008FE0028E6D077
:1057F00000BF761CB6F5FA7FE0DBFA20F3490860BB
:10580000F3480068F530F3490860B6EE001A00EE80
:10581000105AF8EEC00A282000EE104AB8EEC00A6E
:10582000FEF7AFF800260FE006E0012023F0E6FFC8
:10583000FBF72EF900B905E00121E74820F0DEFD75
:105840000028F2D000BF761C40F226208642EBDB17
:10585000B6EE001A00EE105AF8EEC00A192000EE5B
:10586000104AB8EEC00AFEF78CF8002610E006E0F9
:10587000012023F0C3FFFBF70BF900B906E04FF45A
:105880000051D54820F0BAFD0028F1D000BF761CA9
:1058900040F226208642EADB9FEDD01A00EE105A35
:1058A000F8EEC00A0F2000EE104AB8EEC00AFEF76C
:1058B00068F806E0012023F0A1FFFBF7E9F800B942
:1058C0000DE04FF48041C44820F098FD0028F1D04D
:1058D0004FF40051C04820F091FD0028EAD000BFED
:1058E000FA20BF490860BF480068F530BE4908602B
:1058F000B6EE001A00EE105AF8EEC00A0A2000EECA
:10590000104AB8EEC00AFEF73CF800260FE006E0A9
:10591000012023F073FFFBF7BBF800B905E010216D
:10592000AD4820F06BFD0028F2D000BF761C642E3D
:10593000EDDBB6EE001A00EE105AF8EEC00A1020A9
:1059400000EE104AB8EEC00AFEF71BF8FCF742FF63
:1059500006E0012023F052FFFBF79AF800B914E0AB
:10596000FBF7CCF88046FBF79CF8071E01DB3846B6
:1059700000E07842B8F1000F01DB414601E0C8F1D8
:1059800000010844B0F5BE7FE3DB00BF0020FDF757
:10599000C6FEBDE8F0812DE9F0472DED028B814672
:1059A0000F46144698469DED0A8ADDE90B56002005
:1059B000FDF7B5FE0020FDF7B2FEB6EE001AF8EED8
:1059C000C80A102000EE104AB8EEC00AFDF7D9FF51
:1059D000404623F013FF0020FDF7A1FE4FF496721E
:1059E0005FED930A00211FED930A4846FEF7EAFA9D
:1059F0000020FDF794FE40F20910FFF717F9002090
:105A00007A49086019E006E0012023F0F7FEFBF771
:105A10003FF800B90BE0764909686E4A1268881AA7
:105A2000002801DB014600E041422829ECDC00BFF0
:105A30006E480068401C6D4908606C480068322858
:105A4000E1DB1FEDAC1A00EE106AF8EEC00A12207E
:105A500000EE105AB8EEC00AFDF793FF002063492C
:105A6000086014E006E0012023F0C8FEFBF710F800
:105A700000B906E04FF48071524820F0BFFC0028C6
:105A8000F1D000BF59480068401C58490860574889
:105A90000068B0F57A7FE5DB56480068012801D13F
:105AA000FFF706FD31462846FFF70BFE0020FDF705
:105AB00036FE4FF496725FEDC80A00211FEDC90A49
:105AC0003846FEF77FFA0020FDF729FEBDEC028B79
:105AD000BDE8F08770B54848006800F109054748FF
