:020000040800F2
:1000000020A601207580020845020008470200086A
:100010004B0200084F0200085302000800000000D5
:100020000000000000000000000000009D0100082A
:100030005702000800000000E10100088FB002082C
:100040008F8002088F8002088F8002088F8002084C
:100050008F8002088F8002088F8002088F8002083C
:10006000BD040008010500088F8002082D03000868
:100070000F0300086F0300088F8002087502000854
:100080008F800208810200088F8002088F8002089A
:100090008F8002088F8002088F8002088F800208FC
:1000A0008F800208D9030008050400088F80020829
:1000B0000704000835040008610400088F80020866
:1000C0008F8002088F8002088F800208B904000820
:1000D0008F8002085D0200088F8002088F8002086E
:1000E0008F8002088F8002088F8002088F800208AC
:1000F0008F8002088F8002088F8002084B0300085F
:100100008F8002088F8002088D040008BB0400085D
:100110008F8002088F800208AB030008B703000835
:100120008F8002089B020008CF0200088F8002081F
:100130008F8002088F8002088F8002088F8002085B
:100140008F8002088F8002088F8002088F8002084B
:10015000010300088F8002088F8002088F80020848
:100160008F8002088F8002088F8002088F8002082B
:100170008F8002088F8002088F8002088F8002081B
:100180008F8002088F800208DFF80CD02CF03CFA38
:1001900000480047777D020820A60120234B1968FC
:1001A0000868B0E8F04F80F309884FF0000080F352
:1001B000118870470000000003480068006880F361
:1001C000088862B600DF00BF08ED00E0DFF80C0031
:1001D000016841F470010160704700BF88ED00E0E4
:1001E000EFF30980114B1A681EF0100F08BF20EDC5
:1001F000108A20E9F04F106008B54FF0140080F32A
:1002000011882BF00CFB4FF0000080F31188BDE843
:10021000084019680868B0E8F04F1EF0100F08BFDA
:10022000B0EC108A80F30988704700BF18060020E0
:10023000EFF311804FF0140181F31188704780F3C0
:1002400011887047704700BFFEE700BFFEE700BFA0
:10025000FEE700BFFEE770477047704710B540F2F9
:100260002551A8482AF027F818B12021A5482AF0DE
:1002700019F810BD10B5A449A44828F051FF10BDCD
:1002800010B5A349A148303028F020FF20B1A04983
:100290009E48303028F044FF10BD10B59D499E485F
:1002A00028F014FF90B19B499B4828F039FF02F0D9
:1002B0000FF900219548303828F05EFE0821964855
:1002C00028F07BFE0121944828F056FE10BD10B5A1
:1002D00092499148183028F023FF9148407890497E
:1002E000097840EA012000B28E4908808C484079A4
:1002F0008B49097940EA012000B28B49088010BD82
:1003000010B58A498448603028F00AFF10BD10B546
:1003100080497E48483828F0D9FE30B17D497B4875
:10032000483828F0FDFE00F0BCFA10BD10B5804939
:100330007648603828F0CAFE30B17D49734860388D
:1003400028F0EEFE02F0C4F810BD10B579496F48F0
:10035000483028F0BBFE48B100216C48483028F0F6
:100360000BFE74496948483028F0DAFE10BD10B51C
:100370006A496648303828F0A9FEA8B16749634841
:10038000303828F0CDFE01F066FD00215F4830389E
:1003900028F0F2FD08215D48303828F00EFE0121DA
:1003A0005A48303828F0E8FD10BD10B501216248E8
:1003B00029F0DEFC10BD10B50121604829F0D8FC01
:1003C0007A205049888001215D4829F083FE01216F
:1003D0005C4829F07FFE10BD10B501215A4829F074
:1003E000C7FC5948008800F0100028B15748006841
:1003F000401E5649086004E054480068401C5349B8
:10040000086010BD704710B50121880729F0B0FCC5
:100410004FF08040008800F0100028B14C48006880
:10042000401E4B49086004E049480068401C4849A8
:10043000086010BD10B50121464829F099FC4548D7
:10044000008800F0100028B143480068401E42496F
:10045000086004E040480068401C3F49086010BD47
:1004600010B501213D4829F083FC3C48008800F08C
:10047000100028B13A480068401E3949086004E07D
:1004800037480068401C3649086010BD10B501218E
:10049000344829F06DFC3348008800F0100028B182
:1004A00031480068401E3049086004E02E4800686A
:1004B000401C2D49086010BD7047704710B50420DE
:1004C00028F0C6FED8B12021284827F04AFF042191
:1004D000274827F021FF012804D10021174828F0E0
:1004E000C7FF09E00421224827F016FF20B913486E
:1004F00028F0C2FF1F49086004201F49086010BD92
:100500007047000000100140208000207060024011
:100510000080202000880010286402400080201005
:10052000D60800208C0000208E00002000880020CB
:1005300020800010008000280010004000140040BF
:100540000048004000140140000001406C00002001
:1005500070000020000400407400002000080040EB
:1005600088000020000C00407800002000000240BD
:10057000000C024068000020143C014070B50446A5
:1005800020462BF035FD05462146F9482BF037FD76
:10059000A8B140F22B122146F5482BF01DFD002199
:1005A000F44828F0E9FCF248F2490C310860F148BF
:1005B000B838C0F8BC500121EE4828F0DDFC70BD11
:1005C00070B50446002510E0605D68B1615DEA48E1
:1005D00029F0ABFD00BF8021E74829F056FE002836
:1005E000F9D0681CC5B200E070BDEDE770B50446F7
:1005F00000250FE05CB12146DF4829F096FD00BFE1
:100600008021DD4829F041FE0028F9D000E070BDCE
:10061000681CC5B2032DEDDB00BFF8E713B50C462F
:100620000020FFF7E3FFD5A0FFF7CAFF2346D4A2BF
:100630009621D4482CF026F8D248FFF7C1FFD2A06B
:10064000FFF7BEFFCEA29621CE48009B2CF01AF8F1
:10065000CC48FFF7B5FFCEA0FFF7B2FFFF20FFF7B2
:10066000C5FFFF20FFF7C2FFFF20FFF7BFFF1CBD44
:1006700070B505460C46C1A0FFF7A2FF2246C0A1F7
:10068000C0482CF017F8BF48FFF79AFFBEA0FFF74D
:1006900097FF2846FFF794FFBDA0FFF791FFFF20CB
:1006A000FFF7A4FF70BD77B585B00546FF26B6A15C
:1006B00003C9CDE90301B6A000680290AFA00068AD
:1006C000019000240AE00020B2490855B2490855BB
:1006D000AC490855A6490855601CC4B21E2CF2DB73
:1006E0000A20A8490870FF2048708870C870A4A12B
:1006F000A948079A2BF0DEFFA74901A82BF060FC60
:1007000001A9A0482BF05CFC03A99E482BF058FCE3
:1007100029469C482BF054FC99A19F48069A2BF03F
:10072000C9FF9D4997482BF04BFC02A995482BF037
:1007300047FCFF20974908704870887091482BF05B
:100740003FFC9048FFF71AFF08B070BDF7B584B0C2
:1007500005460E46FF278CA103C9CDE902018CA0F6
:100760000068019085A000680090002408E0002047
:10077000884908558849085582490855601CC4B203
:100780000A2CF4DB0A207F490870FF20487088702B
:10079000C8707BA18048069A2BF08CFF7E49684682
:1007A0002BF00EFC694677482BF00AFC02A975482D
:1007B0002BF006FC294673482BF002FC31467148A9
:1007C0002BF0FEFB01A96F482BF0FAFBFF207149CB
:1007D0000870487088700020C870087169482BF054
:1007E000EFFB6848FFF7CAFE07B0F0BD01B58EB059
:1007F0006AA2322101A80E9B2BF044FF01A8FFF74B
:10080000BDFE0FB000BD73B584B00546FF265EA1E6
:1008100003C9CDE902015EA00068019057A00068FD
:10082000009000240AE000205A4908555A4908550A
:10083000544908554E490855601CC4B21E2CF2DBC1
:100840000A2050490870FF2048708870C8704CA179
:100850005148059A2BF02EFF4F4968462BF0B0FB0C
:10086000694648482BF0ACFB02A946482BF0A8FB90
:10087000294644482BF0A4FB474942482BF0A0FBF3
:1008800001A940482BF09CFBFF20424908704870AA
:1008900088703C482BF094FB3A48FFF76FFE06B097
:1008A00070BD10B52DED0C8B82B03F4800783E49ED
:1008B000497808443C49897808443B49C978084448
:1008C00039490979084438494979084436498979C8
:1008D00008443549C97908443349097A0844C0B203
:1008E00001903148007A00F00F0000909FED2F0A30
:1008F000B0EE40DA2C48407A0199884272D12A48F9
:10090000007A00F00F000D286CD127488078C0F1E4
:100910007F0000EE100AB8EEC08A2348C078813804
:1009200000EE100AF8EEC08AB5EEC08AF1EE10FAB9
:1009300003D1B7EE000AB0EE408AF5EEC08AF1EEC0
:1009400010FA03D1B7EE000AF0EE408ABDEEC80AF5
:1009500010EE102A002A01DB134600E05342BDEEE0
:10096000E80A10EE100A002822DB044621E000000D
:100970008E070020B8600240005000407400000064
:1009800025640000580600202E7478743D22000073
:10099000220000003E070020160700206A302E7655
:1009A000616C3D256400000017090020DB0F494001
:1009B0004442191901EBD1735B10FE4C2360BDEE6C
:1009C000E80A10EE101A002901DB0A4600E04A424C
:1009D000322A0FDABDEEC80A10EE100A002802DB38
:1009E000024601E02FE04242322A03DA0020F249B7
:1009F000086030E018EE900A2BF0C7FC41EC1B0BAE
:100A000018EE100A2BF0C1FC41EC1C0BB0EE4B1A97
:100A1000F0EE6B1AB0EE4C0AF0EE6C0A2BF0F8FF19
:100A2000B0EE40AAF0EE60AA9FEDE40B53EC102B61
:100A300051EC1A0B2BF098FB41EC190B2BF086FCB8
:100A4000DD49086007E09DF800000D2803D0002173
:100A5000DC4829F03FFB02B0BDEC0C8B10BDDA483E
:100A6000007A00F00F000D2806D1D748007800F07A
:100A7000010008B10D2070470020FCE7D248007843
:100A800000F0100008B1002070470120FCE71CB501
:100A90004FF0804028F0F0FCCC49096840EA014062
:100AA0000C2190FBF1F00090002418E04FF0804002
:100AB00028F0E2FCC549096840EA01400C2190FB9E
:100AC000F1F00190DDE90021881A002801DB0146E0
:100AD00000E04142052900DA641C01980090022CD4
:100AE000E4DB019840421CBD1CB5B94828F0C4FCA9
:100AF000B849096840EA01400C2190FBF1F00090F0
:100B0000002417E0B24828F0B7FCB249096840EA6F
:100B100001400C2190FBF1F00190DDE90021881AE1
:100B2000002801DB014600E04142052900DA641C8F
:100B300001980090022CE5DB01981CBD1CB5A6486D
:100B400028F09AFCA549096840EA01400C2190FB75
:100B5000F1F00090002417E09F4828F08DFC9F4999
:100B6000096840EA01400C2190FBF1F00190DDE9B9
:100B70000021881A002801DB014600E041420529D6
:100B800000DA641C01980090022CE5DB01981CBD82
:100B90001CB5934828F070FC9249096840EA01406E
:100BA0000C2190FBF1F00090002417E08C4828F015
:100BB00063FC8C49096840EA01400C2190FBF1F08C
:100BC0000190DDE90021881A002801DB014600E0E0
:100BD0004142052900DA641C01980090022CE5DBF3
:100BE00001981CBD01B581B000200090019800EB78
:100BF000C0004000009002E00098401E0090009865
:100C00000028F9D10CBD01B581B00020009044F25C
:100C1000506101984843009002E00098401E009007
:100C200000980028F9D10CBD1CB501211F2027F028
:100C300057FD4FF6FF70009001208DF80400002052
:100C40008DF8060001208DF8070003208DF80500BF
:100C50006946654827F0FEFA4FF6FF7000900120C4
:100C60008DF8040000208DF8060001208DF80700A3
:100C700003208DF8050069465C4827F0EBFA4FF633
:100C8000FF70009001208DF8040000208DF8060010
:100C900001208DF8070003208DF8050069465448AF
:100CA00027F0D8FA1CBD1CB501217E2027F018FDC5
:100CB0004FF4CE50009000208DF8040001208DF8F4
:100CC000070002208DF8050069464A4827F0C2FA5D
:100CD0004FF6C740009000208DF8040001208DF8E9
:100CE000070002208DF8050069463F4827F0B2FA58
:100CF0004FF47170009000208DF8040001208DF8F1
:100D0000070002208DF805006946384827F0A2FA4E
:100D10004CF60340009000208DF8040001208DF86F
:100D2000070002208DF805006946314827F092FA45
:100D30004FF42660009000208DF8040001208DF80B
:100D4000070002208DF8050069462B4827F082FA3B
:100D50001CBD1FB54FF4E06027F09EF936208DF8DA
:100D6000000000208DF801008DF8020001208DF8B0
:100D70000300684627F095F90121102027F0E3FCD5
:100D80003220ADF8040040F2E73002900020ADF8C8
:100D90000C00ADF8060001A9184828F020FB01213D
:100DA000164828F0E5FF01221146144828F0B8FF44
:100DB000002125E0CC000020C800002000000080B9
:100DC000A9E781400048004017090020700000207A
:100DD000000400407400002000080040880000204B
:100DE000000C00407800002000040240000802408F
:100DF000000C0240000002400010024000100040C1
:100E0000FE4828F035FB0121FC4828F071FB1FBD8E
:100E10001FB54FF4E06027F03FF937208DF8000050
:100E200000208DF801008DF8020001208DF80300EC
:100E3000684627F036F90121202027F084FC322073
:100E4000ADF8040040F2E73002900020ADF80C004D
:100E5000ADF8060001A9EA4828F0C1FA0121E848E6
:100E600028F086FF01221146E54828F059FF0021AD
:100E7000E34828F0FDFA0121E14828F039FB1FBDC5
:100E800000B58BB00121022027F06EFC01210C205F
:100E900027F026FC03220621DA4827F066FA03220F
:100EA0000721D84827F061FA03220821D54827F006
:100EB0005CFA03220921D34827F057FA4FF47070E7
:100EC000069002208DF81C0003208DF81D000020E4
:100ED0008DF81E0001208DF81F0006A9C94827F0D3
:100EE000B9F9A420ADF8200040F6B83009904FF4CD
:100EF0008070ADF828000020ADF8220008A9C24893
:100F000028F06DFA6020ADF804000120ADF806006D
:100F100000200390ADF810000121BB4828F0E8FA4A
:100F20000021B94828F0A4FA01A9B74828F0ECFA42
:100F300001A9B54828F021FB01A9B34828F06AFBB4
:100F400001A9B14828F0CCFB0121AF4828F0C1FE2F
:100F50000BB000BD00B58BB00121082027F0F3FBDA
:100F60000121084627F0BCFB02220021A74827F0F8
:100F7000FCF902220121A54827F0F7F902221146C7
:100F8000A24827F0F2F902220321A04827F0EDF948
:100F90000F20069002208DF81C0003208DF81D0004
:100FA00000208DF81E0001208DF81F0006A997482B
:100FB00027F050F9BA20ADF8200042F210700990E5
:100FC0000020ADF82800ADF8220008A9904828F0CC
:100FD00006FA6020ADF804000120ADF806000020FC
:100FE0000390ADF810000121894828F081FA002112
:100FF000874828F03DFA01A9854828F085FA01A91B
:10100000834828F0BAFA01A9814828F003FB01A916
:101010007F4828F065FB01217D4828F05AFE0BB07F
:1010200000BD00B58BB00121042027F08CFB01210D
:101030000D2027F055FB02220C21764827F095F968
:1010400002220D21734827F090F902220E217148E7
:1010500027F08BF902220F216E4827F086F94FF412
:101060007040069002208DF81C0003208DF81D00B2
:1010700000208DF81E0001208DF81F0006A965488C
:1010800027F0E8F8A420ADF8200040F6B830099029
:101090004FF48070ADF828000020ADF8220008A9B8
:1010A0005D4828F09CF96020ADF804000120ADF8FF
:1010B000060000200390ADF810000121564828F0EA
:1010C00017FA0021544828F0D3F901A9524828F012
:1010D0001BFA01A9504828F050FA01A94E4828F0FF
:1010E00099FA01A94C4828F0FBFA0BB000BD00B5F5
:1010F00089B00121080427F037FB0121084627F0B9
:10110000EFFA03221146414827F02FF9032202216A
:101110003E4827F02AF90C20019002208DF80800A3
:1011200003208DF8090000208DF80A0001208DF8B9
:101130000B0001A9354827F08DF80020ADF8180004
:101140004FF6FF7007900020ADF82000ADF81A00B0
:1011500006A9324828F043F90420ADF80C0000201D
:10116000ADF80E00C820ADF814000120ADF8100055
:1011700003A92A4828F00AFD00231A46032128481B
:1011800028F0A1FE0121264828F0F2FD0122114697
:10119000234828F0C5FD0121204828F0A9F90021A5
:1011A0001F4828F065F909B000BD00B589B00121DC
:1011B000084627F0C8FA0121022027F0C4FA0121CD
:1011C000032027F08DFA01220F21104827F0CDF8D7
:1011D00001220321134827F0C8F8022204211148F4
:1011E00027F0C3F8022205210E4827F0BEF8382068
:1011F000019002208DF80800032015E00010004047
:1012000000140040000802400004014000000240B9
:10121000000C0040000C02400008004000000140AB
:1012200000400140000402408DF8090000208DF8C4
:101230000A0001208DF80B0001A9FE4827F00AF8EA
:101240004FF40040019002208DF8080003208DF833
:10125000090000208DF80A0001208DF80B0001A97B
:10126000F54826F0F7FF0020ADF818004FF6FF70A4
:1012700007900020ADF82000ADF81A0006A94FF045
:10128000804028F0ACF806A9EC4828F0A8F8042023
:10129000ADF80C000220ADF80E001420ADF81400DB
:1012A0000120ADF8100003A9800728F06FFC03A906
:1012B000E24828F06BFC02231A460321580728F065
:1012C00002FE02231A460321DC4828F0FCFD01211E
:1012D000880728F04DFD0121D84828F049FD01225A
:1012E0001146900728F01CFD01221146D34828F032
:1012F00017FD0121880728F0FBF80121CF4828F0CD
:10130000F7F800214FF0804028F0B2F80021CB48D8
:1013100028F0AEF84FF4C06026F0BEFE1D208DF818
:10132000000003208DF8010000208DF8020001204C
:101330008DF80300684626F0B4FE1C208DF80000EE
:1013400004208DF8010000208DF8020001208DF8A6
:101350000300684626F0A5FE09B000BD00B589B0BF
:101360000121084627F000FA0121102027F0B8F9E2
:101370004FF42060019002208DF8080003208DF8C2
:10138000090000208DF80A0001208DF80B0001A94A
:10139000AB4826F05FFF01220921A94826F0E5FFAE
:1013A00001220B21A64826F0E0FF0020ADF818002E
:1013B0004FF6FF7007900020ADF82000ADF81A003E
:1013C00006A9A04828F00BF80420ADF80C00002076
:1013D000ADF80E000A20ADF814000120ADF81000A1
:1013E00003A9984828F0D2FB00231A460321954808
:1013F00028F069FD0121934828F0BAFC012211462A
:10140000904828F08DFC01218E4828F0B1FC012283
:1014100011468C4828F084FC01218A4828F068F89D
:101420000021884828F024F84FF4C06026F034FEEC
:1014300019208DF8000001208DF8010000208DF8A2
:10144000020001208DF80300684626F02AFE09B04C
:1014500000BD00B589B00121042027F074F90121F5
:10146000082027F03DF94FF44050019002208DF8FC
:10147000080003208DF8090000208DF80A000120E3
:101480008DF80B0001A9704826F0E4FE0020ADF8AD
:1014900018004FF6FF7007900020ADF82000ADF85F
:1014A0001A0006A9694827F09AFF02220C21664813
:1014B00026F05BFF02220D21634826F056FF042030
:1014C000ADF80C000220ADF80E00C820ADF81400F5
:1014D0000120ADF8100003A95C4828F057FB022357
:1014E0001A460321594828F0EEFC0121574828F0FC
:1014F0003FFC01221146554828F012FC01215348B7
:1015000027F0F6FF0021514827F0B2FF00204F4995
:101510001431088001204D4908804FF4C06026F046
:10152000BBFD1E208DF8000004208DF80100002076
:101530008DF8020001208DF80300684626F0B1FD09
:1015400009B000BD00B589B00121082027F0FBF8E3
:101550000121084627F0C4F80320019002208DF8ED
:10156000080003208DF8090000208DF80A000120F2
:101570008DF80B0001A9304826F06CFE0020ADF874
:1015800018004FF6FF7007900020ADF82000ADF86E
:101590001A0006A92E4827F022FF02220021264821
:1015A00026F0E3FE02220121234826F0DEFE04207D
:1015B000ADF80C000220ADF80E00C820ADF8140004
:1015C0000120ADF8100003A9214828F0DFFA02231A
:1015D0001A4603211E4828F076FC01211C4828F0F9
:1015E000C7FB012211461A4828F09AFB012118482E
:1015F00027F07EFF0021164827F03AFF002014490B
:10160000143108800120124908804FF4C06026F090
:1016100043FD32208DF8000004208DF801000020E9
:101620008DF8020001208DF80300684626F039FD90
:1016300009B000BD00040240000002400004004068
:101640000010024000000140000C02400008004071
:10165000000C004000B59BB00121FE4827F040F887
:101660000121080227F080F800200290FA48039038
:10167000FA480490002005900E2006900020079064
:101680004FF4806008904000099080000A9040115B
:101690000B9040020C9000200D9001200E90002035
:1016A0000F90109002A9EE4827F02CFC0121EC4885
:1016B00027F062FCFC20009003208DF8040000203D
:1016C0008DF807006946E74826F0C4FD4FF44070E6
:1016D000009003208DF8040000208DF80700694673
:1016E000E14826F0B7FD3F20009003208DF804006C
:1016F00000208DF807006946DC4826F0ABFD00208D
:1017000011904FF44030129000201390149011A8C3
:1017100027F05EF94FF08070159001208DF8580089
:101720008DF8590000201790189019900E208DF810
:10173000680015A9C8484C3827F01BF90723012277
:101740000221C5484C3827F09AF9072302220321C9
:10175000C1484C3827F093F9072303220421BE48DF
:101760004C3827F08CF9072304220521BA484C385D
:1017700027F085F9072305220621B7484C3827F0C2
:101780007EF9072306221946B3484C3827F077F92B
:1017900007231A460821B0484C3827F070F9072370
:1017A00008220921AC484C3827F069F9072309229F
:1017B0000A21A9484C3827F062F907230A220B2195
:1017C000A5484C3827F05BF907230B220C21A248CF
:1017D0004C3827F054F907230C220D219E484C3831
:1017E00027F04DF907230D220E219B484C3827F096
:1017F00046F907230E220F2197484C3827F03FF96E
:10180000012195484C3827F0E5F9012192484C38E0
:1018100027F0D5F9012190484C3827F0F0F88E4890
:101820004C3827F088F91BB000BD08B54FF4E060D4
:1018300026F032FC25208DF8000000208DF80100F4
:101840008DF8020001208DF80300684626F029FC7F
:1018500008BD10B596B004460121102026F084FF83
:101860000121084626F03CFF0121880526F038FFBB
:101870004FF4C060009002208DF8040000208DF825
:1018800006008DF8070002208DF8050069467548AE
:1018900026F0E0FC07220921724826F066FD0722A7
:1018A0000A21704826F061FD02940020ADF80C007A
:1018B000ADF80E00ADF81000ADF814000C20ADF836
:1018C000120002A96A4828F07DFB0121684828F02F
:1018D00001FC4FF4A06026F0DFFB3A208DF81800E1
:1018E00000208DF819008DF81A0001208DF81B00DA
:1018F00006A826F0D6FB5A48303027F061FA4FF0A0
:101900000060079000200A905A4809900A200B9026
:101910005748001D089000200C904FF480600D90F7
:1019200000200E900F904FF48070109040021190A4
:10193000042012900320139000201490159007A902
:101940004748303027F0DEFA01224021484828F08D
:101950006EFC012210214248303027F09AFB012111
:101960003F48303027F008FB16B010BD10B596B0D8
:1019700004460121480526F0B3FE0121480426F063
:10198000E2FE0121082026F0ABFE6020009002203C
:101990008DF8040000208DF806008DF80700022065
:1019A0008DF805006946344826F054FC07220521CD
:1019B000314826F0DAFC072206212F4826F0D5FC14
:1019C00002940020ADF80C00ADF80E00ADF8100048
:1019D000ADF814000C20ADF8120002A9274828F039
:1019E000F1FA0121254828F075FB4FF4A06026F09C
:1019F00053FB11208DF8180000208DF819008DF888
:101A00001A0001208DF81B0006A826F04AFB1C488E
:101A100027F0D6F94FF00060079040200A9019484F
:101A2000099050200B901548001D089000200C9044
:101A30004FF480600D9000200E900F904FF4807056
:101A40001090400211900420129003201390002067
:101A5000149019E0070040004C200140BA08002013
:101A600010640240000002400004024000080240EE
:101A700000100140D6080020000C02400044004045
:101A8000A060024004000020159007A9FE4827F03E
:101A900039FA01228021FD4828F0C9FB012280216A
:101AA000FA4828F0C4FB01221021F74827F0F1FA88
:101AB0000121F54827F060FA16B010BD10B596B0B8
:101AC00004460121880426F03EFE0121082026F06C
:101AD00007FE0121480526F003FE4FF440700090F8
:101AE00002208DF8040000208DF806008DF8070014
:101AF00002208DF805006946E54826F0ABFB072279
:101B00000821E34826F031FC07220921E04826F0AD
:101B10002CFC02940020ADF80C00ADF80E00ADF8DE
:101B20001000ADF814000C20ADF8120002A9D9483D
:101B300028F048FA0121D74828F0CCFA4FF4A060E9
:101B400026F0AAFA0C208DF8180000208DF8190054
:101B50008DF81A0001208DF81B0006A826F0A1FAC6
:101B6000C948783827F02CF94FF000600790002022
:101B70000A90C94809900A200B90C648001D089099
:101B800000200C904FF480600D9000200E900F907C
:101B90004FF48070109040021190042012900320A6
:101BA000139000201490159007A9B748783827F0B3
:101BB000A9F901224021B74828F039FB0122402130
:101BC000B44828F034FB01221021AF48783827F0C0
:101BD00060FA0121AC48783827F0CEF916B010BD74
:101BE00010B596B004460121C80426F0ACFD0121D1
:101BF000042026F075FD0121480526F071FD4FF403
:101C00004060009002208DF8040000208DF806004E
:101C10008DF8070002208DF8050069469F4826F0E0
:101C200019FB08220A219D4826F09FFB08220B2160
:101C30009A4826F09AFB02940020ADF80C00ADF80B
:101C40000E00ADF81000ADF814000C20ADF8120035
:101C500002A9934828F0B6F90121914828F03AFAF0
:101C60004FF4A06026F018FA0D208DF8180003201C
:101C70008DF8190001208DF81A008DF81B0006A8B8
:101C800026F00FFA8048603827F09AF84FF000608D
:101C9000079000200A908348099008200B90804804
:101CA000001D089000200C904FF480600D900020E3
:101CB0000E900F9010904FF4003011900020129071
:101CC0000320139000201490159007A96E486038E7
:101CD00027F018F901224021714828F0A8FA0122C2
:101CE00080216F4828F0A3FA01221021664860384D
:101CF00027F0CFF901216448603827F03DF916B08C
:101D000010BD70B5684C2468642C00DB70BD674C56
:101D1000248804EB8404664D2C446070634C248852
:101D200004EB84042C44A170604C248804EB8404EC
:101D30002C44E2705D4C248804EB84042C44237111
:101D40005A4C2488641C642594FBF5F605FB164464
:101D5000564D2C80544C2468641C534D2C6000BF9D
:101D6000D4E701465048006808B900207047514840
:101D7000008800EB80004E4A104402680A60007937
:101D800008710120F2E701464748006808B90020C1
:101D900070474848008800EB8000454A10440268BC
:101DA0000A600079087143480088401C642290FB57
:101DB000F2F302FB13003F4A10803B480068401ECC
:101DC000394A10600120E3E70CB56846FFF7DBFFF6
:101DD0000020394908700CBD0346012B03DB062B9C
:101DE00001DC18467047012903DB062901DC08469F
:101DF000F8E7012A03DB062A01DC1046F2E700209F
:101E0000F0E710B52D48C07F40F004002B49C8779B
:101E10004FF4FA6029F080FC2848C07F40F00800A9
:101E20002649C8774FF4FA6029F076FC2348C07F32
:101E300040F040002149C8774FF4FA6029F06CFC6B
:101E40001E48C07F40F010001C49C8774FF4FA606C
:101E500029F062FC10BD10B512480078114949788C
:101E600008441049897808440E49C97808440D4946
:101E7000097908440B4949790844C4B209480078F3
:101E800002281DD010BD0000A060024000440040A8
:101E9000000C0240004800401709002000080240E2
:101EA000004C0040DB020020F8020020FC02002071
:101EB00026090020FE02002001030020040000206B
:101EC000FE48C079032800D010BDFC488079A042AC
:101ED0007DD1FA484078FA490870F8488078F94985
:101EE0000870F648C078F8490870F4480079F74956
:101EF0000870F2484079F6490870F14800780128E6
:101F000008D1F0480078022804D108460078F14949
:101F1000086028E1EA480078022807D1E9480078FB
:101F2000012803D10020EC4908601CE1E448007856
:101F300002280AD1E34800780A2806D1E24800784E
:101F4000012802D1E54908600DE1DD48007802284A
:101F50000AD1DC4800780A2806D1DB48007802283C
:101F600002D1DE490860FEE0D548007802280AD197
:101F7000D4480078092806D1D3480078012802D136
:101F8000D7490860EFE0CE48007802280AD1CD4852
:101F90000078092806D1CC480078022802D1D0491F
:101FA0000860E0E0C6480078022856D1C5480078AD
:101FB000022852D1C6480378C4480278C248017842
:101FC000C0480078FFF79DFEC648C07F00E0C1E032
:101FD00040F00200C349C877BB48007880B9BB48CD
:101FE0000078012807D0B9480078022803D0B74804
:101FF0000078032804D1BC480068401CBA49086036
:10200000B148007804280BD1B0480078052807D1E2
:102010000120B6490860AE480078B54908600CE078
:10202000A9480078042808D1A8480078062804D1D7
:102030000020AE490860AF490860A3480078052831
:1020400091D1A2480078052806D10120A94908604D
:102050009F480078A649086085E0994800780228E2
:102060001BD198480078032817D1994802789748DF
:10207000017895480078FFF7AFFE9F4908609948BE
:10208000C07F40F002009749C8779B48006800284D
:1020900069D001209949086065E0894800780228E4
:1020A00023D18848007804281FD187480078012868
:1020B0000BD186480078012807D1914908608948EA
:1020C000C07F40F002008749C8777F4800788D497B
:1020D00008607E4800788C4908607D4800788B490C
:1020E00008600120864908603DE0754800780228B4
:1020F00021D17448007805281DD173480078012843
:1021000009D172480078012805D17148007801286A
:1021100001D17F4908606C480078022823D16B48C0
:10212000007802281FD16A480078784908600120A9
:102130007849086017E062480078032813D16148A5
:10214000007803280FD16048007803280BD1FFF7EF
:1021500058FE08E0FF205B4908705B4908705B4946
:1021600008705B49087000BFAEE65F48006802284F
:1021700003D101206849086002E000206649086038
:10218000704710B596B004460121480526F0A8FA1C
:102190000121080526F0D7FA01210C2026F0A0FA2B
:1021A0000420009002208DF8040000208DF8060025
:1021B0008DF8070002208DF805006946574826F083
:1021C00049F84FF48050009002208DF80400002060
:1021D0008DF806008DF8070002208DF8050069468D
:1021E0004F4826F037F8082202214C4826F0BDF867
:1021F00008220C214A4826F0B8F84FF4A06025F0D8
:102200004BFF2F208DF8180005208DF819008DF850
:102210001A0001208DF81B0006A825F042FF0B20B4
:102220008DF8180005208DF819008DF81A0001208E
:102230008DF81B0006A825F034FF02940020ADF8AD
:102240000C00ADF80E00ADF81000ADF814000C2035
:10225000ADF8120002A9334827F0B4FE012131483D
:1022600027F038FF304826F0ABFD4FF000600790B4
:1022700040200A902D4809900A200B902948001D03
:10228000089000200C904FF480600D9000200E907C
:102290000F9010904FF40030119000201290032006
:1022A000139000201490159007A91F4826F02AFECD
:1022B0001D48A83826F084FD3AE00000DB0200202B
:1022C000E3020020E4020020E5020020E6020020F4
:1022D000E70200201403002018030020340300202C
:1022E0003C030020040000204403002004030020DD
:1022F000100300200C0300201C03002040030020DA
:10230000380300202003002024030020280300209D
:102310002C0300203003002068020020000C024043
:102320000008024000500040B86002408E070020C4
:102330004FF00060079000200A90F74809900520B0
:102340000B90F648089000200C904FF480600D90A0
:1023500000200E900F9010904FF40030119000204C
:1023600012900320139000201490159007A9EC48B8
:1023700026F0C8FD01228021E848001F27F057FF02
:1023800001224021E548001F27F051FF01221021C2
:10239000E348A83026F07DFE01221021E04826F017
:1023A00078FE0121DE48A83026F0E6FD0121DC4858
:1023B00026F0E2FD16B010BD10B596B0044601211E
:1023C000202026F0D1F90121042026F089F90121ED
:1023D000880526F085F9C020009002208DF80400C1
:1023E00000208DF806008DF8070002208DF805000A
:1023F0006946CC4825F02EFF08220621C94825F061
:10240000B4FF08220721C74825F0AFFF029400203F
:10241000ADF80C00ADF80E00ADF81000ADF81400EA
:102420000C20ADF8120002A9BF4827F0CBFD012116
:10243000BD4827F04FFE4FF4A06025F02DFE392057
:102440008DF8180003208DF8190001208DF81A006E
:102450008DF81B0006A825F024FEB44826F0B0FC39
:102460004FF02060079000200A90B14809900820A2
:102470000B90AD48001D089000200C904FF4806038
:102480000D9000200E900F9010904FF4003011909E
:10249000002012900320139000201490159007A99B
:1024A000A24826F02FFD012240219F4827F0BFFEC1
:1024B000012280219C4827F0BAFE012210219B486E
:1024C00026F0E7FD0121994826F056FD16B010BD13
:1024D00097490978964A52781144954A927811445E
:1024E000934AD2781144924A12791144904A52790F
:1024F0001144C8B28E490978022900D070478C492E
:10250000C979032900D0F9E789498979814218D12D
:1025100087494978874A117085498978864A1170B8
:102520008349C978854A117081490979844A1170B3
:102530007F494979834A117081490978824A11702B
:1025400006E0FF217D4A11707D4A11707D4A1170AD
:1025500000BFD3E700B585B00121082026F0C0F800
:102560000121880326F000F900208DF810000120D9
:102570008DF813000C20039003A9744825F06AFE1F
:102580000221032027F0ECFE0420009000208DF8AB
:10259000040010208DF8050001208DF80600684623
:1025A00026F0F0FD08208DF8080000208DF80900C5
:1025B0008DF80A0001208DF80B0002A825F071FDAE
:1025C00005B000BD70B504460D46012C0BD129465F
:1025D0005F4827F0AAFD00BF40215D4827F055FE67
:1025E0000028F9D038E0032C0BD12946594827F0B0
:1025F0009CFD00BF4021574827F047FE0028F9D036
:102600002AE0042C0BD12946534827F08EFD00BF49
:102610004021514827F039FE0028F9D01CE0052C54
:102620000DD129463D48001F27F07FFD00BF402106
:102630003A48001F27F029FE0028F8D00CE0062CAD
:102640000AD12946384827F070FD00BF402136489E
:1026500027F01BFE0028F9D070BD2DE9F0470224B9
:102660000125022600274FF000084FF003096019EA
:1026700030443844404439490978084400F0FF0A9E
:1026800021460420FFF79EFF29460420FFF79AFF0A
:1026900031460420FFF796FF39460420FFF792FFEA
:1026A00041460420FFF78EFF2C4801780420FFF7F5
:1026B00089FF51460420FFF785FF49460420FFF7B4
:1026C00081FFBDE8F0870020254948622549086060
:1026D0002549086025490860704700202049486264
:1026E000204908604FF08041486221490860214933
:1026F0000860214908601C4908601C4908601F499E
:1027000008601F490860704700204FF08041486210
:1027100017490860704700001A0B00200450004061
:10272000106002400008024000140140286402408A
:1027300048030020500300205103002052030020D2
:10274000530300205403002055030020000C0240D6
:102750000010014000480040004C004014030020DD
:10276000000001406C000020240800408800002088
:10277000700000202404004074000020240C00405D
:10278000780000200020FE490860FE49086070477C
:1027900010B50020FC490870002407E061210120E9
:1027A000FFF710FF3220FEF72EFA641C022CF5D33F
:1027B0000120F54908707A20F449087010BD10B561
:1027C0000020F3490870002407E061210320FFF78F
:1027D000F9FE3220FEF717FA641C022CF5D3012013
:1027E000EB4908707A20EB49087010BD2DE9F14FD4
:1027F000AEB0E9A02D9000202C908DF888008DF8C7
:1028000060002E9829283DD2DFE800F0153D464DA6
:10281000545B626970777E858C939AA1A8FDFCFB5E
:10282000FAF9F8F7F6F5F4F3F2F1F0EFEEEDECEB80
:10283000EAE9E8E7E6000221E04825F06DFD88B10D
:1028400000224FF40041DE4825F084FD4FF40041A2
:10285000DB4825F06EFD044600222146D9A0FDF795
:1028600022FF0FE00122D103D54825F073FD4FF47C
:102870000041D34825F05DFD044600222146D9A041
:10288000FDF711FF3CE30122DE48B0F900004142B0
:10289000DDA0FDF708FF33E30222DD480168DDA07B
:1028A000FDF701FF2CE30322DD480168DDA0FDF701
:1028B000FAFE25E30422E0480168E0A0FDF7F3FEFC
:1028C0001EE30522E0480168E0A0FDF7ECFE17E3F7
:1028D0000622E2480168E2A0FDF7E5FE10E30722C8
:1028E000E2480168E2A0FDF7DEFE09E30822E448C1
:1028F0000168E4A0FDF7D7FE02E30922E54801687C
:10290000E5A0FDF7D0FEFBE20A22E7480168E7A058
:10291000FDF7C9FEF4E20B22E7480168E7A0FDF7E6
:10292000C2FEEDE20C22E9480168E9A0FDF7BBFE1A
:10293000E6E20D22EB480168EBA0FDF7B4FEDFE212
:102940000E22ED480168EDA0FDF7ADFED8E2EF489C
:1029500041890F22EEA0FDF7A6FED1E20121F04849
:1029600025F0DAFC4FF400511790954825F0D4FC7F
:1029700004460221EA4825F0CFFC05464FF4804189
:102980008F4825F0C9FC06460421E54825F0C4FC23
:102990004FF400411690E24825F0BEFC074608219E
:1029A000DF4825F0B9FC80464FF48041DC4825F033
:1029B000B3FC81461021DA4825F0AEFC4FF40051FB
:1029C0001590D74825F0A8FC82460821D54825F067
:1029D000A3FC4FF4805117E08BE283E27BE273E2C9
:1029E00067E25EE256E24AE240E236E22CE222E2AE
:1029F00016E20AE2FDE1F1E1E4E1D7E1CFE1C2E173
:102A0000BAE1B2E1AAE13CE01490C54825F084FCAB
:102A100010211390C34825F07FFC4FF48061129081
:102A2000BF4825F079FC83468021BD4825F074FC21
:102A30004FF480711190BA4825F06EFC10901798F1
:102A4000CDE90B65CDE90D401698CDE90798CDE9A4
:102A50000970DDE913121598CDE9042A0391069057
:102A6000DDE91101CDE901B10090AFA2282122A832
:102A7000109B29F007FE102222A9B4A0FDF766FEE4
:102A80003EE280214D4825F047FC044601214B4899
:102A900025F042FC05464021484825F03DFC06460D
:102AA0004FF400419F4825F037FC07464FF4805112
:102AB000A74825F031FC80464FF480613F4825F05F
:102AC0002BFC81464FF40061A14825F025FC4FF412
:102AD00000611790394825F01FFC82464FF4806151
:102AE000904825F019FC83464FF48051334825F077
:102AF00013FC4FF4006116908A4825F00DFC4FF44A
:102B0000005115902D4825F007FC4FF4804114909A
:102B1000844825F001FC4FF480411390274825F0AC
:102B2000FBFB4FF480711290894825F0F5FB4FF4C0
:102B300000411190214825F0EFFBCDE90B76CDE95E
:102B40000D5410901798CDE907A0CDE90998DDE95B
:102B500015211498CDE9051BCDE90302DDE9111219
:102B60001398CDE9001202906FA2282122A8109B91
:102B700029F088FD112222A976A0FDF7E7FDBFE12B
:102B800024040040740000209100002090000020E8
:102B90009300002092000020313131313131313148
:102BA0003131313131313131313131313131303116
:102BB0003131313131313131000000000004024047
:102BC00000080240524F424F5420322044414E47A9
:102BD00020434841592053414E2058414E483A2005
:102BE00020200000524F424F5420322044414E4793
:102BF00020434841592053414E20444F3A20202041
:102C0000000000008C000020494D553A00000000F3
:102C1000A40000204C617A65722070686169000030
:102C2000B800002054726F206368616E2054727582
:102C30006F633A2000000000A00000204C617A651C
:102C40007220747261692000BC00002054726F20F1
:102C50006368616E205361753A202000980000205F
:102C60004C617A657220736175200000C0000020FD
:102C700054726F20646179207461792031200000E2
:102C80009C0000204C617A6572207472756F63201D
:102C900000000000C400002054726F20646179209D
:102CA00074617920322000003C0300206D6F646560
:102CB0002062616320332000B000002054726F2036
:102CC000786F61792074617920000000340300205E
:102CD0006D6F64655F636861795F72756E673A20D6
:102CE00000000000280300206E6861745F64617456
:102CF0005F686F7020000000380300206D6F64650E
:102D0000206E68617420686F70200000BA0800208F
:102D10005175616E675F74726F203A200000000089
:102D200000100240000C02402564256425642564DF
:102D3000256425642564256425642564256425644B
:102D4000256425642564256400000000493A0000DC
:102D500000000240696E323A000000001222F94879
:102D60000168F9A0FDF79FFCCAE01322FB48016847
:102D7000FBA0FDF798FCC3E01422FC480168FCA00E
:102D8000FDF791FCBCE04FF40061FE4825F0C4FA69
:102D9000044615222146FCA0FDF785FCB0E0FE4864
:102DA000018A1622FDA0FDF77EFCA9E04FF4007118
:102DB000F44825F0B1FA044617222146FAA0FDF79F
:102DC00072FC9DE04FF40071FB4825F0A5FA044623
:102DD00018222146F9A0FDF766FC91E02021E94880
:102DE00025F09AFA044619222146F8A0FDF75BFC6B
:102DF00086E04FF48071F04825F08EFA04461A22DE
:102E00002146F6A0FDF74FFC7AE04021DD4825F091
:102E100083FA04461B222146F4A0FDF744FC6FE030
:102E20000121F64825F078FA04461C222146F4A038
:102E3000FDF739FC64E0FDF757FE04461D222146EC
:102E4000F1A0FDF730FC5BE0FDF721FE04461E22F9
:102E50002146F1A0FDF727FC52E0FDF799FE04465C
:102E60001F222146F0A0FDF71EFC49E0FDF766FE9B
:102E7000044620222146F0A0FDF715FC40E0402149
:102E8000CD4825F049FA044621222146EEA0FDF75F
:102E90000AFC35E02222F0480168F0A0FDF703FCAF
:102EA0002EE02322F048B0F90010F0A0FDF7FBFB64
:102EB00026E08021C04825F02FFA0446242221462E
:102EC000EDA0FDF7F0FB1BE02522F0480168F0A023
:102ED000FDF7E9FB14E02622F1480168F1A0FDF7B7
:102EE000E2FB0DE02722F3480168F3A0FDF7DBFBCE
:102EF00006E02822F3480168F3A0FDF7D4FB00BFE9
:102F000000BF2FB0BDE8F08F10B50121F14826F0C9
:102F100033F810BD01B5F04800680099884203DD20
:102F20000020ED49086004E0EB480068401CEA49D5
:102F30000860E9480068FFF759FC08BD01B59DF835
:102F40000000052801DA002008BD9DF80000FBE71D
:102F500030B504461D4624B9E0480078E04BD870EF
:102F600011E0002C07DDE0B2FFF7E8FFDC4BD87082
:102F70000020987007E06342D8B2FFF7DFFFD84B1C
:102F8000D8700120987021B9D4480078D44BD871FA
:102F900011E0002907DDC8B2FFF7D0FFD04BD87190
:102FA0000120987107E04B42D8B2FFF7C7FFCC4B26
:102FB000D8710020987122B9C8480078C84BD872DF
:102FC00011E0002A07DDD0B2FFF7B8FFC44BD8727A
:102FD0000120987207E05342D8B2FFF7AFFFC04B11
:102FE000D8720020987225B9BC480078BC4BD873C1
:102FF00011E0002D07DDE8B2FFF7A0FFB84BD87352
:103000000120987307E06B42D8B2FFF797FFB44BEB
:10301000D8730020987330BDB14AD070D071D0728F
:10302000D0737047AE48C07803280DDAAC48C07939
:10303000032809DAAA48C07A032805DAA848C07B21
:10304000032801DA012070470020FCE70120A54990
:1030500008607047A448006847F23051884201D0A8
:10306000012070470020FCE710B5FFF791FB10BD71
:103070009E48B0F9000040427047B5EEC00AF1EE3C
:1030800010FA09D29A48D0ED000A70EE600AFDEEFF
:10309000E00A10EE900A70479548D0ED000A70EEF5
:1030A000200AFDEEE00A10EE900AF4E710B52DEDCF
:1030B0000A8B044624B99FED8F0ABDEC0A8B10BD24
:1030C000002C25DA8C48006829F02FF941EC190B07
:1030D000204629F02AF941EC1C0B9FED880B53EC9C
:1030E000102B29F041F841EC1B0B9FED860B53ECA4
:1030F000102B29F033F841EC1A0B53EC192B29F063
:10310000A5F841EC180B29F06BF900EE100AD4E792
:103110007948006829F009F941EC190B204629F09B
:1031200004F941EC1C0B9FED750B53EC102B29F0AF
:103130001BF841EC1B0B9FED730B53EC102B28F08D
:103140006CFFE3E0F8020020636F756E745F6461EA
:1031500074615F75617274342000000014030020F4
:10316000626C6F636B5F7068613A2000100300202F
:103170007365655F52315F7472656E5F72756E67FD
:10318000200000000010024043425F4E616E675F06
:103190007472616920000000BA0800205175616EE8
:1031A000675F74726F32200043425F4E616E675FEB
:1031B0007068616900000000000802406368656390
:1031C0006B5F686F705F313A000000006368656391
:1031D0006B5F686F705F323A200000006368656360
:1031E0006B5F686F705F333A20000000636865634F
:1031F0006B5F686F705F343A20000000000C024083
:103200005374617274000000454E434F4445525F51
:103210004652282920000000454E434F4445525F46
:10322000464C282920000000454E434F4445525F3C
:103230005252282920000000454E434F4445525F1A
:10324000524C28292000000063687579656E5F6420
:103250006F695F54332000001C03002069645F64C1
:1032600061745F686F7020008E000020494D5578B2
:103270006F61793A00000000636865636B5F6461A9
:10328000745F686F705F543220000000900200206D
:103290006E6861795F64656E5F6C616E5F3120009E
:1032A000F40200206E67616E675F7175615F6F3356
:1032B00020000000640200206B745F6C6162616E2C
:1032C000200000005C030020636865636B5F746925
:1032D0006D652000A060024084000020A40300204F
:1032E0000400002008040020CC0300208C000020F3
:1032F0006403002000000000B803002033333333A0
:103300003333C33F9A9999999999C93F41EC1A0B64
:1033100053EC192B28F09AFF41EC180B29F060F8B8
:1033200000EE100AC9E6F0EE400AF5EEC00AF1EE32
:1033300010FA02DBB0EE600A7047B1EE600AFBE7FC
:103340000146002901DB084670474842FCE7014678
:10335000FE48D0ED000AF1EE600AFD48D0ED001AFB
:1033600080EEA11A00EE901AF8EEE01AF748D0EDC0
:10337000000A41EE210AB0EE600AFDEEC00A10EE2E
:10338000900A7047B0EE402ADFEDF22AB0EE620AF2
:10339000B5EEC02AF1EE10FA03D2F1EE422AB0EEF9
:1033A000622AF5EEC00AF1EE10FA03D2F1EE602ABD
:1033B000F0EE620AB5EEC01AF1EE10FA03D2F1EEA9
:1033C000412AB0EE621AF5EEC01AF1EE10FA03D2FD
:1033D000F1EE612AF0EE621AB4EEC02AF1EE10FAB4
:1033E00001DDB0EE420AF4EEC00AF1EE10FA01DDA2
:1033F000B0EE600AB4EEC01AF1EE10FA01DDB0EEE4
:10340000410AF4EEC01AF1EE10FA01DDB0EE610AE5
:103410007047D14800687047D0480068704710B5C1
:103420002DED028BB0EE408ACD48006847F2305156
:1034300088420ED11FED510ACA4880ED000ACA48E1
:1034400080ED000AC94880ED000AC94880ED000AF5
:103450004AE0C8480068C8490968401AC049096874
:10346000081A00EE100AB8EEC00AF0EE408AC3480F
:10347000D0ED000A88EEA00AC148D0ED000A30EE77
:10348000200AC048D0ED000A20EE200AF0EE408A63
:10349000B0EE680A29F08EFFF0EE000A20EE200A56
:1034A000B04880ED000AB0EE680A29F0A9FBF0EE02
:1034B000000A20EE200AAC4880ED000AA94890EDF1
:1034C000000AB148D0ED000A30EE200AA84880ED8D
:1034D000000AA54890ED000AAB48D0ED000A30EE96
:1034E000600AA24880ED000AB5EEC08AF1EE10FA3B
:1034F00073D0A6480068052820D2DFE800F003203A
:103500003A546F009A4890ED000A30EE080A80EDB8
:10351000000A964890ED000A30EE480A80ED000A55
:10352000914890ED000A30EE080A80ED000A8D48BF
:1035300090ED000A30EE480A80ED000A68E08B4802
:1035400090ED000A30EE480A80ED000A864890EDC2
:10355000000A30EE080A80ED000A824890ED000A69
:103560008B48D0ED000A08EE600A7E4880ED000A24
:103570004EE07F4890ED000A30EE080A80ED000A28
:10358000794890ED000A8248D0ED000A08EE200A42
:10359000754880ED000A734890ED000A30EE480A45
:1035A00080ED000A34E0724890ED000A30EE080A1F
:1035B00080ED000A6D4890ED000A7548D0ED000AD4
:1035C00008EE600A694880ED000A664890ED000A3E
:1035D00030EE480A80ED000A1AE01AE0644890EDE7
:1035E000000A6B48D0ED000A08EE200A604880ED22
:1035F000000A5E4890ED000A30EE480A80ED000AAD
:10360000594890ED000A30EE080A80ED000A00BF2C
:1036100000BF5448D0ED001A534890ED001A5348AB
:10362000D0ED000A524890ED000AFFF7ABFE594872
:10363000D0ED000AF8EEE00A80EE801ABDEEC10A75
:10364000554880ED000A444800685349096888429B
:1036500003DD514800684049086001204F49086077
:10366000BDEC028B10BD10B5044600204C4908602B
:103670004C480460FCB90020374908601FEDE30A9C
:10368000414880ED000A47F230503549086046490C
:1036900008601FEDE80A454880ED000A00203B491C
:1036A0000860434908602D490860424908601FEDE1
:1036B000EF0AFFF7B4FE10BD10B53C4890ED000ACC
:1036C000B5EEC00AF1EE10FA05D13048006810B925
:1036D0003748006890B11FEDF90A344880ED000AC0
:1036E00000202A49086032490860224800682249BF
:1036F00008602E4890ED000AFFF791FE10BD1348B8
:10370000C0ED000A124880ED000A704770B52DED3B
:10371000028B05460C46B0EE408A11480068A8426C
:103720000BD11F480068A04207D1174890ED000A4E
:10373000B4EE480AF1EE10FA4FD01948046006487A
:10374000006810B905200449086035E09C0300209A
:10375000A00300206F12833AB8030020E403002086
:10376000CC0300200404002000040020FC030020FF
:10377000F8030020EC030020D80300207C03002085
:1037800088030020AC030020E0030020B4030020E5
:103790006C03002060030020C0030020B003002061
:1037A000BC030020C4030020D0030020DC03002061
:1037B000D403002008040020FA480068FA49086091
:1037C000FA4880ED008AFA4805600020F94908604F
:1037D000F94890ED000AFFF722FEBDEC028B70BDA8
:1037E00070B52DED028B0446B0EE408A0D46F348CD
:1037F0000068A0420BD1F04890ED000AB4EE480AF0
:10380000F1EE10FA03D1EE480068A8423AD0E84839
:10381000006847F23051884225D12820E9490860E4
:10382000E948006810B90A20E749086047F23050BB
:10383000844218DA0120E5490860B5EEC08AF1EE4D
:1038400010FA03DDD7480068A04208DCB5EEC08A54
:10385000F1EE10FA07D2D3480068A04203DAB1EEC5
:10386000480AB0EE408AD5480460D5480560D24881
:1038700080ED008A0020CF490860CF4890ED000A13
:10388000FFF7CDFDBDEC028B70BD10B52DED028BA9
:10389000B0EE408A04462146B0EE480A47F2305066
:1038A000FFF79EFFBDEC028B10BD70B504460D46C0
:1038B0009FEDC70A29462046FFF728FF70BD70B567
:1038C0002DED088BF0EE408A0446B0EE608AB0EE33
:1038D000419AC04890ED000AB8EEC00AB4EE680AFA
:1038E000F1EE10FA0DD1B7480068A04209D1B348F3
:1038F00090ED000AB8EEC00AB4EE480AF1EE10FAF4
:103900005ED0BDEEE80AB34880ED000AA54991ED0E
:10391000000AB8EEC00A38EEC00ABDEEC00A10EECA
:10392000100A9FEDAB0A2146FFF7F0FE9D4890ED8F
:10393000000AB8EEC00A38EE400ABDEEC00A10EE2A
:10394000105A002D01DB284600E06842642814DD8F
:10395000944890ED000AB8EEC00AB4EEC08AF1EEC9
:1039600010FA02DDB0EE490A01E0B1EE490A10EEAC
:10397000101A084628F009FD13E08A4890ED000A65
:10398000B8EEC00A38EE400A10EE101A084628F0C9
:10399000FCFC41EC1B0B9FED900B53EC102B28F023
:1039A000E3FB41EC1A0B28F01BFD09EE900A002105
:1039B000B0EE690AFDEEC80A10EE900AFFF710FF9C
:1039C000BDEC088B70BD10B58048006801283DDD56
:1039D0007A490968734A1268881AFFF7B1FC0A2805
:1039E0000CDA7A4801680068401C784A1060B1F52A
:1039F000FA7F2BDD0020FFF736FE10BD734800680C
:103A0000FA2808DD05206F4908606F490860FB202F
:103A10006E49086004E005206A4908606A49086048
:103A20006048006865490968884205DDBFEE000A04
:103A3000614880ED000A04E0B7EE000A5E4880EDC0
:103A4000000A5D4890ED000AFFF7E9FC00BFD4E7EB
:103A500010B52DED028B554890ED000AB5EEC00A69
:103A6000F1EE10FA08D15848006828B153480068B0
:103A700047F23051884202DBBDEC028B10BD4E484C
:103A800090ED000AB5EEC00AF1EE10FA7ED048487B
:103A9000006847F23051884279D1474890ED000ADA
:103AA000B5EEC00AF1EE10FA08DD444800684C4952
:103AB0000968401A3B490968884210DB3E4890ED8E
:103AC000000AB5EEC00AF1EE10FA6AD23B4800686F
:103AD00043490968084433490968884261DD3B4825
:103AE000006803285CDA354909682E4A1268881A8A
:103AF000FFF726FC082816DA3048006839490860C4
:103B00000020314908602F4908609FED310A2A489A
:103B100080ED000A02202D490860274890ED000A38
:103B2000FFF77DFCA8E7254800681E490968884220
:103B30005CDD254890ED000AB8EEC00A1E48D0EDC5
:103B4000000A60EE200A264890ED000AB8EEC00A8E
:103B5000C0EE801AB0EE611AB0EE410AFFF7E3FB47
:103B6000164909680F4A1268881AFFF7E9FB00EE48
:103B7000900AB8EEE01A1C48D0ED000A40EE010AA7
:103B8000114890ED000AB8EEC00A01E0CBE068E011
:103B900080EE801AB0EE418AB0EE480AFFF73FFC93
:103BA000C0E058E0EC030020D8030020E003002030
:103BB000CC030020C8030020DC030020D403002035
:103BC000B4030020BC030020B8030020E40300205D
:103BD00000000000D00300207B14AE47E17A743F60
:103BE00098030020E803002078030020FE4890EDB1
:103BF000000AB8EEC00AFD48D0ED000A60EE200AC7
:103C0000FB4890ED000AB8EEC00AC0EE801AB0EE94
:103C1000611AB0EE410AFFF786FBF6490968F64AD9
:103C20001268881AFFF78CFB00EE900AB8EEE01AD3
:103C3000F248D0ED000A50EE410AEB4890ED000A40
:103C4000B8EEC00A80EE801AB0EE418AB0EE480AA3
:103C5000FFF7E5FB66E0E54890ED000AFFF7DFFBC4
:103C600060E0E24890ED000AB5EEC00AF1EE10FA0D
:103C70001FDDE04890ED000AB8EEC00ADA48D0ED4A
:103C8000000AF8EEE00AD94890ED001A00EEC10AE9
:103C9000DB48D0ED000AF8EEE00A70EE600AD64884
:103CA00090ED000AB8EEC00AF4EEC00AF1EE10FA88
:103CB00027D3CE4890ED000AB5EEC00AF1EE10FA17
:103CC0002BD2CC4890ED000AB8EEC00AC648D0ED21
:103CD000000AF8EEE00AC54890ED001A00EEC10AAD
:103CE000C748D0ED000AF8EEE00A70EE200AC2489C
:103CF00090ED000AB8EEC00AF4EEC00AF1EE10FA38
:103D00000BDDBC490968BC4A1268881AFFF7CEF976
:103D1000B0EE408AFFF783FB04E0B44890ED000A60
:103D2000FFF77DFBA8E6B7490968B34A1268881A0D
:103D3000FFF7BCF9B0EE408AFFF771FB00BF9BE6CE
:103D400000B5B1480068022815DA1FED5F0AAF48D8
:103D500080ED000A1FED620AA44880ED000A0020F1
:103D6000AB49086047F23050AA490860AA49086088
:103D70000020A0490860A9480068401CA7490860C5
:103D8000A7490968884204DAA6480068FFF744F9A1
:103D90000EE0A3480068A1490860A348006820B16C
:103DA000A0480068FFF738F902E00020FFF734F977
:103DB00000BD9A4A1268521C984B1A60824207DD75
:103DC000894A12680A44884B1A600022934B1A6091
:103DD00070472DE9F041FFF74BF987490860FFF77D
:103DE000F2FD92480068002821DD7F4800688F4975
:103DF000096888422AD07C4800688C490968884252
:103E00000EDA794800688A49096888421EDA7648DD
:103E10000068FFF79CFA04460121FFF7CAFF15E08E
:103E20004FF0FF3183480068FFF7C3FF0EE06E4894
:103E30000068002806DD6FF001017F480068FFF789
:103E4000B8FF03E0FFF77CFFBDE8F0817B48006826
:103E500069490968884205D0FFF7FAFD664800689D
:103E60007649086076480068F0B35F48D0ED000AF4
:103E7000F8EEE00A734890ED001A60EE810AB0EEA9
:103E8000600AFFF7FAF804465748D0ED000AF8EE4A
:103E9000E00A6D4890ED001A60EE810AB0EE600A0B
:103EA000FFF7EBF805465048D0ED000AF8EEE00ABF
:103EB000664890ED001A60EE810AB0EE600AFFF7E6
:103EC000DCF806464848D0ED000AF8EEE00A604803
:103ED00090ED001A60EE810AB0EE600AFFF7CDF8AF
:103EE000074623462A4600E002E03146FFF730F855
:103EF00000BFA9E7574801680068401C554A106098
:103F0000462907D25448408B54490968084453490C
:103F100008600BE0514800684621B0FBF1F05049C1
:103F2000086000204B4908604C4908604D48016812
:103F30000068401C4B4A1060462907D24648008B57
:103F4000494909680844484908600BE04648006848
:103F50004621B0FBF1F04549086000204149086066
:103F600041490860424801680068401C404A1060AE
:103F7000462907D23848808A3E49096808443D49A5
:103F800008600BE03B4800684621B0FBF1F03A497D
:103F900008600020364908603649086037480168E3
:103FA0000068401C354A1060462907D22A48C08A5A
:103FB000334909680844324908600BE0304800681A
:103FC0004621B0FBF1F02F49086000202B49086022
:103FD0002B4908602C4801680068401C2A4A106080
:103FE00032295AD21C4851E0B8030020DC030020DB
:103FF00098030020D4030020EC0300207803002065
:1040000094030020D8030020E4030020E0030020F4
:10401000B4030020CC030020D0030020C8030020FC
:10402000A8030020A403002008040020BC030020F3
:10403000C0030020F4030020C4030020F00300208C
:10404000B00300200404002000040020FC03002032
:10405000F803002058050020BA0800205C05002065
:104060009800002060050020640500209C000020CE
:10407000680500206C050020A400002070050020C9
:1040800074050020A0000020780500204089FD492B
:1040900009680844FB4908600BE0FA4800683221CF
:1040A000B0FBF1F0F84908600020F8490860F549D4
:1040B0000860F74801680068401CF54A1060322922
:1040C00007D2F448C088F44909680844F2490860F6
:1040D0000BE0F14800683221B0FBF1F0EF490860D5
:1040E0000020EB490860EC490860ED480168006871
:1040F000401CEB4A1060322907D2E6488088E94923
:1041000009680844E74908600BE0E6480068322186
:10411000B0FBF1F0E44908600020E1490860E149A2
:104120000860E24801680068401CE04A10604629C7
:1041300007D2D8480089DE4909680844DC4908608C
:104140000BE0DB4800684621B0FBF1F0D94908607C
:104150000020D6490860D6490860D7480168006841
:10416000401CD54A1060462907D2CA480088D34966
:1041700009680844D14908600BE0D048006846212E
:10418000B0FBF1F0CE4908600020CB490860CB4974
:104190000860CC4801680068401CCA4A1060462983
:1041A00007D2BC484088C84909680844C649086025
:1041B0000BE0C54800684621B0FBF1F0C349086038
:1041C0000020C0490860C04908607047C0480068C6
:1041D000B5490968401A03EE100AB8EEC33AF0EE8A
:1041E000430ABC4890ED003A23EE203AF0EE432A11
:1041F000B7480068B8490968884203DAB6480068D9
:10420000B3490860B2480068B4490968884203DDD0
:10421000B2480068AE490860BDEEE03A13EE100AFD
:10422000002801DB014600E0414204297EDDAC4864
:1042300090ED003A33EE203A80ED003A90ED003AEE
:10424000DFEDA83AB4EEE33AF1EE10FA03DD9FEDAC
:10425000A53A80ED003AA24890ED003ADFEDA23A8F
:10426000B4EEE33AF1EE10FA03D29FED9F3A80EDFF
:10427000003A9E4890ED003A9948D0ED003A23EE7E
:10428000232A9B4890ED003A30EEC33A9948D0ED8E
:10429000003A63EE231A9648C0ED000A32EE823AE5
:1042A00033EE213A944880ED003AF5EEC00AF1EE83
:1042B00010FA03D201209149887502E000208F494D
:1042C00088758D4991ED003ABDEEC33A13EE100AA0
:1042D000002801DB014600E0414203EE101AB8EE6F
:1042E000C33AF0EE083A23EE230A854890ED003AEF
:1042F000B8EEC33AB4EEC30AF1EE10FA05DD90ED64
:10430000003AB8EEC33AB0EE430AB3EE043AB4EE64
:10431000C30AF1EE10FA03D2B3EE043AB0EE430A48
:10432000784890ED003A30EE431A00E029E09FED26
:10433000763AB4EEC31AF1EE10FA08DD90ED003AC9
:10434000DFED713A33EE233AB0EE430A0FE09FED12
:104350006F3AB4EEC31AF1EE10FA08D2694890ED44
:10436000003ADFED693A33EE633AB0EE430A65484E
:1043700080ED000ABCEEC03A13EE100A5F49C87522
:1043800013E09FED633A564880ED003A9FED603AA6
:10439000574880ED003A02205849C87500208875BA
:1043A0009FED5B3A574880ED003A704759480068E6
:1043B0003A490968401A03EE100AB8EEC33AB0EE63
:1043C000430A554890ED003A23EE003AF0EE432AB6
:1043D0005048006851490968884203DA4F4800682C
:1043E0004C4908604B4800684D490968884203DD24
:1043F0004B48006847490860BDEEC03A13EE100A0A
:10440000002801DB014600E04142042939DD45482E
:1044100090ED003A33EE003A80ED003A90ED003A2C
:10442000DFED303AB4EEE33AF1EE10FA03DD9FED42
:104430002D3A80ED003A3B4890ED003ADFED2A3A04
:10444000B4EEE33AF1EE10FA03D29FED273A80ED95
:10445000003A354890ED003A3248D0ED003A23EE6C
:10446000232A324890ED003A30EE433A3048D0EDFE
:10447000003A63EE231A2D4880ED000A32EE823AAC
:1044800058E0C6E07C050020A80000207805002048
:1044900090050020BA08002094050020BC000020F0
:1044A000980500209C050020B8000020A0050020F1
:1044B000A4050020B0000020B8050020BC050020A5
:1044C000C0000020C0050020C4050020C40000205A
:1044D0007C040020D804002074040020780400200C
:1044E000E40400200000FA430000FAC3DC040020CA
:1044F000E8040020E0040020EC0400200400002078
:10450000B4040020F00400209A99193F9A9919BF29
:104510000000000088040020F40400208004002033
:104520008404002000050020F80400200405002079
:10453000FC04002033EE213AFD4880ED003AB5EE50
:10454000C00AF1EE10FA03D20020FA49887402E0A2
:104550000120F8498874F64991ED003ABDEEC33A5E
:1045600013EE100A002801DB014600E0414203EE91
:10457000101AB8EEC33AF0EE083A63EE230AEE489A
:1045800090ED003AB8EEC33AF4EEC30AF1EE10FA39
:1045900005DD90ED003AB8EEC33AF0EE430AB3EE13
:1045A000043AF4EEC30AF1EE10FA03D2B3EE043A81
:1045B000F0EE430AE14890ED003A30EEC31A1FEDE9
:1045C0002E3AB4EEC31AF1EE10FA08DD90ED003A7F
:1045D0005FED333A33EE233AF0EE430A0FE01FED7E
:1045E000353AB4EEC31AF1EE10FA08D2D34890ED82
:1045F000003A5FED3B3A33EE633AF0EE430ACF48C0
:10460000C0ED000ABCEEE03A13EE100AC949C874C6
:1046100013E01FED413ACA4880ED003A1FED443ADD
:10462000C84880ED003A0220C249C874012088744D
:104630001FED493AC14880ED003A7047C248006812
:10464000C2490968884203DAC0480068BE49086068
:10465000BD480068BE490968884203DDBC4800685F
:10466000B9490860BB490968B74A1268881A002826
:1046700001DB014600E04142032932DDB548006814
:10468000B1490968884203DD0020AA49887602E022
:104690000120A8498876AF490968AB4A1268881A90
:1046A000002801DB014600E0414201EBC10202EBC0
:1046B0000111A94A116010460068A849096888429A
:1046C00003DDA648006811460860A3480068192861
:1046D00002DA1920A04908609F4800789549C876F9
:1046E00002E000209349C87670479D4800689D49C4
:1046F0000968884203DA9B4800689949086098482D
:10470000006899490968884203DD97480068944920
:10471000086096490968924A1268881A002801DBE5
:10472000014600E04142032935DD904800688C498C
:104730000968884204DD00207E4981F82A0003E0F0
:1047400001207C4981F82A0088490968844A126856
:10475000881A002801DB014600E0414201EBC1025A
:1047600002EB01117C4A116010460068804909681B
:10477000884203DD7E48006811460860764800687C
:10478000192802DA192074490860734800786949C9
:1047900081F82B0003E00020664981F82B00704768
:1047A00010B57448006874490968884203DA724891
:1047B0000068704908606F4800687049096888425D
:1047C00003DD6E4800686B4908606D4B1B68694CDF
:1047D00024681A1B002A01DB134600E05342022B17
:1047E0004FDD5C4B1B68674C2468191B002901DBFB
:1047F0000B4600E04B42142B43DA5C4B1B68624CC7
:104800002468181B002801DB034600E04342142BF8
:1048100037DA5B48006857490968884204DD01209F
:10482000444981F8260003E00020424981F826002F
:10483000534909684F4A1268881A002801DB01466B
:1048400000E0414201EB81014900434A11601046FA
:1048500000684E490968884203DD4C4800681146EB
:1048600008603D480068462802DA46203A49086058
:10487000394800782F4981F8270000204449086012
:1048800006E000202B4981F82700012040490860FC
:1048900010BD3220284908603E49086070476420F6
:1048A000254908603B4908607047A02022490860FC
:1048B000384908607047E6201F490860354908609C
:1048C000704700B50246FFF7F0FF334802603348F7
:1048D000026000BD00B50246FFF7DBFF2E48026014
:1048E0002E48026000BD00B50246FFF7D8FF2A48F7
:1048F00002602A48026000BD00B50246FFF7DBFFF8
:10490000254802602548026000BD70B5FA201349B1
:1049100008601C4800680C490860FA2014490860C7
:10492000194800680E49086000201D4908606FE0C2
:104930000805002004000020B00400200C05002021
:104940000005002004050020A00400209804002099
:104950009C040020C000002014050020BC0400209E
:10496000AC040020A4040020A8040020C4000020FF
:10497000C0040020940400208C0400209004002037
:10498000B0000020B4010020B8010020B8040020CD
:1049900070040020B40400207C040020880400205F
:1049A0003804002006E0012026F0B6FEFCF766F889
:1049B00000B927E0F94B1B68F94C2468191B002942
:1049C00001DB0B4600E04B42F64C2468F64D2D68A7
:1049D000621B02EBD2746410A342E4DCF34B1B684D
:1049E000F34C24681B1B032493FBF4F4F14B1B686A
:1049F000F14D2D68581B002801DB034600E04342BF
:104A00009C42D0DB00BFED480068401CEB490860C9
:104A1000EA4800683228C5DB70BD10B5E848006878
:104A2000002850D1E748006800284CD1E6480068CB
:104A3000002848D1E5480068002844D123E004213B
:104A4000E34823F069FC70B98021E24823F064FC5C
:104A500048B99FEDE11ADFEDE10A12209FEDE00A6F
:104A6000FEF72DFF08E09FEDDC1ADFEDDC0A0F20DA
:104A70009FEDDC0AFEF723FF012026F04DFEFBF739
:104A8000FDFF00B906E04FF48071D74823F044FCE5
:104A90000028D4D000BF9FEDD01ADFEDD00A0A2045
:104AA0009FEDD20AFEF70BFF06E0012026F034FE50
:104AB000FBF7E4FF00B905E00421C54823F02CFC16
:104AC0000028F2D000E1BE48006801284FD1BD485F
:104AD000006800284BD1BC480068C8BBBB480068D0
:104AE000B0BB23E00421BA4823F016FC70B9802142
:104AF000B84823F011FC48B99FEDB71ADFEDB70AAB
:104B000012209FEDB70AFEF7DAFE08E09FEDB21A19
:104B1000DFEDB20A0F209FEDB30AFEF7D0FE0120B1
:104B200026F0FAFDFBF7AAFF00B906E04FF480710A
:104B3000AD4823F0F1FB0028D4D000BF9FEDA61AAA
:104B4000DFEDA60A0A209FEDA90AFEF7B8FE07E0EE
:104B50000DE0012026F0E0FDFBF790FF00B905E035
:104B600004219B4823F0D8FB0028F2D0ACE0944805
:104B70000068012851D19348006801284DD192481E
:104B80000068D0BB91480068B8BB24E04FF40061D6
:104B9000954823F0C1FB70B901218E4823F0BCFB7E
:104BA00048B99FED8D1ADFED8D0A12209FED900A16
:104BB000FEF785FE08E09FED881ADFED880A0F20DA
:104BC0009FED880AFEF77BFE012026F0A5FDFBF78E
:104BD00055FF00B906E04FF48071834823F09CFB39
:104BE0000028D3D000BF9FED7C1ADFED7C0A0A209D
:104BF0009FED800AFEF763FE07E00EE0012026F03D
:104C00008BFDFBF73BFF00B906E04FF400617648EF
:104C100023F082FB0028F1D056E0694800680128A3
:104C200052D16848006801284ED1674800680128C1
:104C30004AD166480068B8BB24E04FF400616A4876
:104C400023F06AFB70B90121624823F065FB48B983
:104C50009FED611ADFED610A12209FED650AFEF7F4
:104C60002EFE08E09FED5C1ADFED5C0A0F209FED41
:104C70005D0AFEF724FE012026F04EFDFBF7FEFE46
:104C800000B906E04FF48071574823F045FB002837
:104C9000D3D000BF9FED501ADFED500A0A209FEDE0
:104CA000550AFEF70CFE07E00EE0012026F034FD69
:104CB000FBF7E4FE00B906E04FF400614A4823F038
:104CC0002BFB0028F1D000BF0020FEF7CCFC10BD6C
:104CD0002DE9F04105460E46002047490860FFF7E0
:104CE000EAFD46480068F3304549086045480068D9
:104CF000F53045490860002415E006E0012026F063
:104D00000BFDFBF7BBFE00B90BE0404909683E4ACA
:104D10001268881A002801DB014600E041420F2991
:104D2000ECDC00BF641C322CE7DB9FED391A00EE8F
:104D3000106AF8EEC00A122000EE105AB8EEC00A4F
:104D4000FEF7BDFD002410E006E0012026F0E4FCA3
:104D5000FBF794FE00B906E04FF48071224823F07F
:104D6000DBFA0128F1D000BF641C962CECDB9FED30
:104D7000281A00EE106AF8EEC00A0D2000EE105A54
:104D8000B8EEC00AFEF79BFD002454E043E001208A
:104D900026F0C2FCFBF772FEE0BB4AE0C000002038
:104DA000A0040020B401002098040020B8010020D5
:104DB000A4040020C4000020AC040020380400201B
:104DC000680200206C0200207002002074020020A3
:104DD00000100240000402403333333F00006144BE
:104DE0000000C8C3000061C4000002400000164378
:104DF00000C0C1C40080D44480020020740400209C
:104E00007C0400208004002088040020BC000020D6
:104E1000CDCC4C3FFFE74FF48071F84823F07CFA8B
:104E20000128B4D04FF48051F44823F075FA0028DB
:104E3000ADD000BF641C962CA8DB0020FEF713FC4D
:104E4000F520EF490860EF480068401CEE49086013
:104E5000002415E006E0012026F05EFCFBF70EFEC4
:104E600000B90BE0E9490968E74A1268881A002886
:104E700001DB014600E041421429ECDC00BF641C68
:104E8000322CE7DB1FED1E1A00EE106AF8EEC00AA6
:104E9000242000EE105AB8EEC00AFEF710FD0024E0
:104EA00015E006E0012026F037FCFBF7E7FD00B92E
:104EB0000BE08021D64823F02FFA012805D10121EB
:104EC000D34823F029FA0128ECD000BF641CB4F5C4
:104ED0007A7FE6DB40F2145026F01EFC3220C849EF
:104EE0000860C8480068801DC74908601FED381A6F
:104EF00000EE106AF8EEC00A182000EE105AB8EE64
:104F0000C00AFEF7DCFC00240FE006E0012026F0DA
:104F100003FCFBF7B3FD00B905E00121BD4823F018
:104F2000FBF90128F2D000BF641C40F22620844225
:104F3000EBDB1FED491A00EE106AF8EEC00A0A20FA
:104F400000EE105AB8EEC00AFEF7B9FC002410E0DB
:104F500006E0012026F0E0FBFBF790FD00B906E03B
:104F60004FF40051AB4823F0D7F90128F1D000BF2E
:104F7000641CB4F57A7FEBDB0020FEF774FBF520B0
:104F8000A5490860A5480068801DA5490860322031
:104F90009B4908609B480068801D9B49086000246D
:104FA00015E006E0012026F0B7FBFBF767FD00B92E
:104FB0000BE09C4909689A4A1268881A002801DBAC
:104FC000014600E041421429ECDC00BF641CFA2CCD
:104FD000E7DB9FED951A00EE106AF8EEC00A12208A
:104FE00000EE105AB8EEC00AFEF769FC002416E085
:104FF00006E0012026F090FBFBF740FD00B90CE035
:105000004FF400617D4823F087F9012805D1042180
:10501000804823F081F90128EBD000BF641C40F6E2
:10502000F6108442E4DBFDF758FB06E0012026F091
:1050300073FBFBF723FD00B914E0FBF755FD804639
:10504000FBF725FD071E01DB384600E07842B8F18A
:10505000000F01DB414601E0C8F100010844B0F552
:10506000D27FE3DB00BF002410E006E0012026F041
:1050700053FBFBF703FD00B906E04FF480416548A0
:1050800023F04AF90128F1D000BF641C40F6F61065
:105090008442EADBFFF709FC40F20910604908602E
:1050A000594908609FED601A00EE106AF8EEC00AD8
:1050B0000A2000EE105AB8EEC00AFEF700FC0024E9
:1050C0000FE006E0012026F027FBFBF7D7FC00B934
:1050D00005E010214F4823F01FF90128F2D000BF4E
:1050E000641C642CEDDB0020FEF7BDFABDE8F08106
:1050F00010B505210420FDF765FA4C48C07F40F04B
:1051000002004A49C87700204949086011E006E0DA
:10511000012026F001FBFBF7B1FC00B903E0454894
:1051200000680128F4D000BF41480068401C404995
:1051300008603F480068FA28E9DB3C48C07F00F07F
:10514000FD003A49C87701203A49086000203A49F1
:10515000086010BD2DE9F0472DED028B81460F460A
:10516000164698469DED0A8ADDE90B451FEDE61AC5
:10517000F8EEC80A102000EE106AB8EEC00AFEF77A
:105180009EFB404626F0C8FA0020FEF76CFA00218C
:105190009FED2A0A4846FEF723FB06E0012026F091
:1051A000BBFAFBF76BFC00B903E0FEF735F900280A
:1051B000F4D100BF0020FEF756FAFFF776FB174840
:1051C0000068FA30164908600E480068FA300E4947
:1051D00008600020164908603BE006E0012026F048
:1051E0009BFAFBF74BFC00B92DE008490968064A19
:1051F0001268881A002823DB014622E000000240E2
:10520000B00400208004002088040020BC0000209E
:105210000004024000100240B40400207404002086
:105220007C040020B80000206666663F0400002071
:10523000380400200C030020080300209A99993FAD
:1052400041420F29CADC00BFF7480068401CF649FC
:105250000860F54800683228BFDB9FEDF41A00EEC5
:10526000105AF8EEC00A142000EE104AB8EEC00A38
:10527000FEF725FB0020EC49086014E006E0012061
:1052800026F04AFAFBF7FAFB00B906E04FF480710A
:10529000E74823F041F80128F1D000BFE248006858
:1052A000401CE1490860E04800689628E6DB9FED75
:1052B000DF1A00EE105AF8EEC00A0E2000EE104A77
:1052C000B8EEC00AFEF7FBFA0020D74908601BE0E1
:1052D00006E0012026F020FAFBF7D0FB00B90DE034
:1052E0004FF48071D24823F017F80128F1D04FF421
:1052F0008051CF4823F010F80028EAD000BFCA48F8
:105300000068401CC8490860C74800689628DFDB71
:105310000020FEF7A8F9C7480068012801D1FFF76F
:10532000E7FE29462046FFF7D3FC0020FEF79BF955
:1053300000211FED3E0A3846FEF752FA06E0012032
:1053400026F0EAF9FBF79AFB00B903E0FEF764F8F0
:105350000028F4D100BF0020FEF785F9BDEC028BD8
:10536000BDE8F0872DE9F04105460E46B2480068D9
:1053700000287DD1FFF79FFAB04800680830B04997
:105380000860B04800680830AF490860002415E0A4
:1053900006E0012026F0C0F9FBF770FB00B90BE036
:1053A000AA490968A84A1268881A002801DB014640
:1053B00000E041420A29ECDC00BF641C322CE7DB30
:1053C0009FEDA31A00EE106AF8EEC00A0E2000EE60
:1053D000105AB8EEC00AFEF772FA002410E006E098
:1053E000012026F099F9FBF749FB00B906E04FF4DC
:1053F00080718F4822F090FF0028F1D000BF641C1C
:10540000B4F57A7FEBDB9FED921A00EE106AF8EEAE
:10541000C00A0C2000EE105AB8EEC00AFEF74FFA90
:10542000002421E006E0012026F076F9FBF726FBB8
:1054300000B917E04FF480717D4822F06DFF00281D
:10544000F1D04021834822F067FF0028EBD0802173
:10545000804822F061FF28B901217E4822F05CFFDC
:105460000028E0D000BF641CB4F57A7FDADB00E0EE
:105470004BE04FF4967026F04FF90020FEF7F3F85A
:10548000F020754908606F480068F5306E49086083
:10549000002415E006E0012026F03EF9FBF7EEFAC5
:1054A00000B90BE069490968674A1268881A002840
:1054B00001DB014600E041420A29ECDC00BF641C2C
:1054C000FA2CE7DBB7EE001A00EE106AF8EEC00A1D
:1054D0001E2000EE105AB8EEC00AFEF7F0F90024C4
:1054E0000FE006E0022026F017F9FBF7C7FA00B933
:1054F00005E00121594822F00FFF0028F2D000BF3B
:10550000641C40F226208442EBDB00204A490860FC
:10551000B7EE001A00EE106AF8EEC00A192000EE8D
:10552000105AB8EEC00AFEF7CAF9002410E006E0EF
:10553000012026F0F1F8FBF7A1FA00B906E04FF4DC
:105540000051464822F0E8FE0028F1D000BF641C5C
:1055500040F226208442EADB38480068401D384982
:105560000860B7EE001A00EE106AF8EEC00A0920D3
:1055700000EE105AB8EEC00AFEF7A1F9002410E0C0
:1055800006E0012026F0C8F8FBF778FA00B906E03B
:105590004FF48041314822F0BFFE0028F1D000BF17
:1055A000641CB4F5FA7FEBDB002417E006E0012071
:1055B00026F0B2F8FBF762FA00B90DE04FF4804133
:1055C000264822F0A9FE0028F1D04FF400512348CC
:1055D00022F0A2FE0028EAD000BF641CB4F5FA7FD6
:1055E000E4DB002410E006E0012026F095F8FBF74C
:1055F00045FA00B906E04FF48041184822F08CFECD
:105600000028F1D000BF641CB4F5FA7FEBDB00206A
:10561000FEF729F8F0201249086008480068F530C4
:1056200007490860002433E038040020CDCC4C3F0B
:1056300000000240080300208002002074040020C3
:105640007C0400208004002088040020BC0000208E
:105650003333333F00040240B00400200010024006
:10566000B404002006E0012026F056F8FBF706FA05
:1056700000B90BE0FB490968FB4A1268881A002848
:1056800001DB014600E041421E29ECDC00BF641C46
:10569000322CE7DBB7EE001A00EE106AF8EEC00A13
:1056A000102000EE105AB8EEC00AFEF708F906E026
:1056B000012026F031F8FBF7E1F900B905E01021EF
:1056C000EA4822F029FE0028F2D000BFFDF705F8D5
:1056D00006E0052026F020F8FBF7D0F900B914E029
:1056E000FBF702FA8046FBF7D2F9071E01DB3846CA
:1056F00000E07842B8F1000F01DB414601E0C8F15B
:1057000000010844B0F5FA7FE3DB00BF0A20FDF793
:10571000AAFFBDE8F0812DE9F0472DED028B81460F
:105720000F46144698469DED0A8ADDE90B564FF464
:10573000AF70FFF7D8F80020FDF795FFB6EE001A1E
:10574000F8EEC80A102000EE104AB8EEC00AFEF7C4
:10575000B6F8404625F0E0FF0020FDF784FF002169
:105760009FEDC30A4846FEF73BF806E0012025F00E
:10577000D3FFFBF783F900B903E0FDF74DFE0028E6
:10578000F4D100BF0020FDF76EFF40F20910FFF7D3
:1057900098F80020B749086019E006E0012025F0DC
:1057A000BBFFFBF76BF900B90BE0B3490968B34ADB
:1057B0001268881A002801DB014600E041420A29EC
:1057C000ECDC00BFAB480068401CAA490860A9484F
:1057D00000683228E1DBB7EE001A00EE106AF8EE3E
:1057E000C00A0F2000EE105AB8EEC00AFEF767F8A4
:1057F0000020A049086014E006E0012025F08CFF9D
:10580000FBF73CF900B906E04FF480719C4822F0A8
:1058100083FD0028F1D000BF96480068401C9549E0
:10582000086094480068B0F57A7FE5DB962025F0A3
:1058300073FF0020FDF717FF92480068012801D18F
:10584000FFF756FC31462846FFF78CFD0020FDF798
:105850000AFF00219FED860A3846FDF7C1FF06E0EA
:10586000012025F059FFFBF709F900B903E0FDF726
:10587000D3FD0028F4D100BF0020FDF7F4FEBDECFD
:10588000028BBDE8F08770B57F4805687F480668E1
:1058900040F23520FFF715F87D48006800284DD10B
:1058A0007C480068002849D17B480068002845D121
:1058B0007A480068002841D16E49086037E01DE051
:1058C00077480068A84209DD1FED9F1ADFED750AD1
:1058D00012209FED750AFDF7F2FF08E01FEDA41AF4
:1058E000DFED700A0F209FED710AFDF7E8FF012040
:1058F00025F012FFFBF7C2F800B912E04FF4805117
:105900005F4822F009FD0028DAD05B4800685B4957
:105910000968441A002C01DB204600E060421E2882
:10592000CEDC00BF53480068401C52490860514813
:10593000006840F20E618842C1DB1FE154480068F4
:1059400001284CD153480068C0BB53480068A8BB2D
:105950005248006890BB00204649086038E01DE0CE
:105960004F480068A84209DD1FEDC71ADFED4D0A58
:1059700012209FED4D0AFDF7A2FF08E01FEDCC1AA3
:10598000DFED480A0F209FED490AFDF798FF01203F
:1059900025F0C2FEFBF772F800B913E04FF4805116
:1059A000374822F0B9FC0028DAD033480068334980
:1059B0000968441A002C02DB204601E00FE0604237
:1059C0001E28CDDC00BF2B480068401C2949086018
:1059D0002848006840F20E618842C0DBCEE02C48C7
:1059E0000068012878D12B480068012874D12A4822
:1059F0000068A8BB2948006890BB00201D490860CA
:105A000063E01DE02A480068B04209DD1FEDF01A8E
:105A1000DFED240A12209FED270AFDF750FF08E072
:105A20001FEDF51ADFED1F0A0F209FED200AFDF78D
:105A300046FF012025F070FEFBF720F800B93EE09C
:105A40004FF480510E4822F067FC0028DAD00A4853
:105A500000680A490968441A002C2DDB20462CE016
:105A60003AE00000B80000207C0400200010024052
:105A70009A99993F38040020BC0000208804002037
:105A80000000024008030020A8010020B00100200F
:105A9000680200206C0200207002002074020020C6
:105AA000A000002000006144008022C4000061C406
:105AB000A400002000C0C1C460421E28A2DC00BFB8
:105AC000F9480068401CF8490860F748006840F24F
:105AD0000E61884295DB51E0F448006801284DD101
