:020000040800F2
:1000000020A60120B9640208450200084702000842
:100010004B0200084F0200085302000800000000D5
:100020000000000000000000000000009D0100082A
:100030005702000800000000E1010008D394020804
:10004000D3640208D3640208D3640208D3640208AC
:10005000D3640208D3640208D3640208D36402089C
:10006000BD04000801050008D36402082D03000840
:100070000F0300086F030008D3640208750200082C
:10008000D364020881020008D3640208D364020822
:10009000D3640208D3640208D3640208D36402085C
:1000A000D3640208D903000805040008D3640208D9
:1000B000070400083504000861040008D36402083E
:1000C000D3640208D3640208D3640208B9040008A8
:1000D000D36402085D020008D3640208D3640208F6
:1000E000D3640208D3640208D3640208D36402080C
:1000F000D3640208D3640208D36402084B030008E7
:10010000D3640208D36402088D040008BB0400080D
:10011000D3640208D3640208AB030008B7030008E5
:10012000D36402089B020008CF020008D3640208CF
:10013000D3640208D3640208D3640208D3640208BB
:10014000D3640208D3640208D3640208D3640208AB
:1001500001030008D3640208D3640208D3640208D0
:10016000D3640208D3640208D3640208D36402088B
:10017000D3640208D3640208D3640208D36402087B
:10018000D3640208D3640208DFF80CD02AF05EFCC6
:1001900000480047B761020820A60120234B1968D8
:1001A0000868B0E8F04F80F309884FF0000080F352
:1001B000118870470000000003480068006880F361
:1001C000088862B600DF00BF08ED00E0DFF80C0031
:1001D000016841F470010160704700BF88ED00E0E4
:1001E000EFF30980114B1A681EF0100F08BF20EDC5
:1001F000108A20E9F04F106008B54FF0140080F32A
:10020000118829F02EFD4FF0000080F31188BDE821
:10021000084019680868B0E8F04F1EF0100F08BFDA
:10022000B0EC108A80F30988704700BF1C060020DC
:10023000EFF311804FF0140181F31188704780F3C0
:1002400011887047704700BFFEE700BFFEE700BFA0
:10025000FEE700BFFEE770477047704710B540F2F9
:100260002551A84828F049FA18B12021A54828F0BE
:100270003BFA10BD10B5A449A44827F073F910BD8E
:1002800010B5A349A148303027F042F920B1A04968
:100290009E48303027F066F910BD10B59D499E4844
:1002A00027F036F990B19B499B4827F05BF902F0A3
:1002B0000FF900219548303827F080F8082196483A
:1002C00027F09DF80121944827F078F810BD10B56B
:1002D00092499148183027F045F991484078904963
:1002E000097840EA012000B28E4908808C484079A4
:1002F0008B49097940EA012000B28B49088010BD82
:1003000010B58A498448603027F02CF910BD10B52B
:1003100080497E48483827F0FBF830B17D497B485A
:10032000483827F01FF900F0BCFA10BD10B580491D
:100330007648603827F0ECF830B17D497348603872
:1003400027F010F902F0C4F810BD10B579496F48D4
:10035000483027F0DDF848B100216C48483027F0DC
:100360002DF874496948483027F0FCF810BD10B5E5
:100370006A496648303827F0CBF8A8B16749634826
:10038000303827F0EFF801F066FD00215F48303883
:1003900027F014F808215D48303827F030F80121A3
:1003A0005A48303827F00AF810BD10B501216248CC
:1003B00027F000FF10BD10B50121604827F0FAFEBC
:1003C0007A205049888001215D4828F0A5F8012154
:1003D0005C4828F0A1F810BD10B501215A4827F05B
:1003E000E9FE5948008800F0100028B1574800681D
:1003F000401E5649086004E054480068401C5349B8
:10040000086010BD704710B50121880727F0D2FEA3
:100410004FF08040008800F0100028B14C48006880
:10042000401E4B49086004E049480068401C4849A8
:10043000086010BD10B50121464827F0BBFE4548B5
:10044000008800F0100028B143480068401E42496F
:10045000086004E040480068401C3F49086010BD47
:1004600010B501213D4827F0A5FE3C48008800F06A
:10047000100028B13A480068401E3949086004E07D
:1004800037480068401C3649086010BD10B501218E
:10049000344827F08FFE3348008800F0100028B160
:1004A00031480068401E3049086004E02E4800686A
:1004B000401C2D49086010BD7047704710B50420DE
:1004C00027F0E8F8D8B12021284826F06CF904215B
:1004D000274826F043F9012804D10021174827F0C6
:1004E000E9F909E00421224826F038F920B9134837
:1004F00027F0E4F91F49086004201F49086010BD77
:100500007047000000100140208000207060024011
:100510000080202000880010286402400080201005
:10052000DA0800208C0000208E00002000880020C7
:1005300020800010008000280010004000140040BF
:100540000048004000140140000001406C00002001
:1005500070000020000400407400002000080040EB
:1005600088000020000C00407800002000000240BD
:10057000000C024068000020143C014070B50446A5
:10058000204629F057FF05462146F94829F059FF32
:10059000A8B140F22B122146F54829F03FFF002177
:1005A000F44826F00BFFF248F2490C310860F1489C
:1005B000B838C0F8BC500121EE4826F0FFFE70BDEF
:1005C00070B50446002510E0605D68B1615DEA48E1
:1005D00027F0CDFF00BF8021E74828F078F80028F9
:1005E000F9D0681CC5B200E070BDEDE770B50446F7
:1005F00000250FE05CB12146DF4827F0B8FF00BFBF
:100600008021DD4828F063F80028F9D000E070BDB3
:10061000681CC5B2032DEDDB00BFF8E713B50C462F
:100620000020FFF7E3FFD5A0FFF7CAFF2346D4A2BF
:100630009621D4482AF048FAD248FFF7C1FFD2A049
:10064000FFF7BEFFCEA29621CE48009B2AF03CFACF
:10065000CC48FFF7B5FFCEA0FFF7B2FFFF20FFF7B2
:10066000C5FFFF20FFF7C2FFFF20FFF7BFFF1CBD44
:1006700070B505460C46C1A0FFF7A2FF2246C0A1F7
:10068000C0482AF039FABF48FFF79AFFBEA0FFF72B
:1006900097FF2846FFF794FFBDA0FFF791FFFF20CB
:1006A000FFF7A4FF70BD77B585B00546FF26B6A15C
:1006B00003C9CDE90301B6A000680290AFA00068AD
:1006C000019000240AE00020B2490855B2490855BB
:1006D000AC490855A6490855601CC4B21E2CF2DB73
:1006E0000A20A8490870FF2048708870C870A4A12B
:1006F000A948079A2AF000FAA74901A829F082FE22
:1007000001A9A04829F07EFE03A99E4829F07AFE9F
:1007100029469C4829F076FE99A19F48069A2AF01E
:10072000EBF99D49974829F06DFE02A9954829F0FB
:1007300069FEFF209749087048708870914829F039
:1007400061FE9048FFF71AFF08B070BDF7B584B09E
:1007500005460E46FF278CA103C9CDE902018CA0F6
:100760000068019085A000680090002408E0002047
:10077000884908558849085582490855601CC4B203
:100780000A2CF4DB0A207F490870FF20487088702B
:10079000C8707BA18048069A2AF0AEF97E49684667
:1007A00029F030FE6946774829F02CFE02A97548E9
:1007B00029F028FE2946734829F024FE3146714865
:1007C00029F020FE01A96F4829F01CFEFF20714985
:1007D0000870487088700020C8700871694829F056
:1007E00011FE6848FFF7CAFE07B0F0BD01B58EB034
:1007F0006AA2322101A80E9B2AF066F901A8FFF730
:10080000BDFE0FB000BD73B584B00546FF265EA1E6
:1008100003C9CDE902015EA00068019057A00068FD
:10082000009000240AE000205A4908555A4908550A
:10083000544908554E490855601CC4B21E2CF2DBC1
:100840000A2050490870FF2048708870C8704CA179
:100850005148059A2AF050F94F49684629F0D2FDCF
:100860006946484829F0CEFD02A9464829F0CAFD4C
:100870002946444829F0C6FD4749424829F0C2FDAF
:1008800001A9404829F0BEFDFF2042490870487088
:1008900088703C4829F0B6FD3A48FFF76FFE06B075
:1008A00070BD10B52DED0C8B82B03F4800783E49ED
:1008B000497808443C49897808443B49C978084448
:1008C00039490979084438494979084436498979C8
:1008D00008443549C97908443349097A0844C0B203
:1008E00001903148007A00F00F0000909FED2F0A30
:1008F000B0EE40DA2C48407A0199884272D12A48F9
:10090000007A00F00F000D286CD127488078C0F1E4
:100910007F0000EE100AB8EEC08A2348C078813804
:1009200000EE100AF8EEC08AB5EEC08AF1EE10FAB9
:1009300003D1B7EE000AB0EE408AF5EEC08AF1EEC0
:1009400010FA03D1B7EE000AF0EE408ABDEEC80AF5
:1009500010EE102A002A01DB134600E05342BDEEE0
:10096000E80A10EE100A002822DB044621E000000D
:1009700092070020B8600240005000407400000060
:10098000256400005C0600202E7478743D2200006F
:1009900022000000420700201A0700206A302E764D
:1009A000616C3D25640000001B090020DB0F4940FD
:1009B0004442191901EBD1735B10FE4C2360BDEE6C
:1009C000E80A10EE101A002901DB0A4600E04A424C
:1009D000322A0FDABDEEC80A10EE100A002802DB38
:1009E000024601E02FE04242322A03DA0020F249B7
:1009F000086030E018EE900A29F0E9FE41EC1B0B8C
:100A000018EE100A29F0E3FE41EC1C0BB0EE4B1A75
:100A1000F0EE6B1AB0EE4C0AF0EE6C0A2AF018FAFF
:100A2000B0EE40AAF0EE60AA9FEDE40B53EC102B61
:100A300051EC1A0B29F0BAFD41EC190B29F0A8FE74
:100A4000DD49086007E09DF800000D2803D0002173
:100A5000DC4827F061FD02B0BDEC0C8B10BDDA481C
:100A6000007A00F00F000D2806D1D748007800F07A
:100A7000010008B10D2070470020FCE7D248007843
:100A800000F0100008B1002070470120FCE71CB501
:100A90004FF0804026F012FFCC49096840EA01403F
:100AA0000C2190FBF1F00090002418E04FF0804002
:100AB00026F004FFC549096840EA01400C2190FB7B
:100AC000F1F00190DDE90021881A002801DB0146E0
:100AD00000E04142052900DA641C01980090022CD4
:100AE000E4DB019840421CBD1CB5B94826F0E6FE87
:100AF000B849096840EA01400C2190FBF1F00090F0
:100B0000002417E0B24826F0D9FEB249096840EA4D
:100B100001400C2190FBF1F00190DDE90021881AE1
:100B2000002801DB014600E04142052900DA641C8F
:100B300001980090022CE5DB01981CBD1CB5A6486D
:100B400026F0BCFEA549096840EA01400C2190FB53
:100B5000F1F00090002417E09F4826F0AFFE9F4977
:100B6000096840EA01400C2190FBF1F00190DDE9B9
:100B70000021881A002801DB014600E041420529D6
:100B800000DA641C01980090022CE5DB01981CBD82
:100B90001CB5934826F092FE9249096840EA01404C
:100BA0000C2190FBF1F00090002417E08C4826F017
:100BB00085FE8C49096840EA01400C2190FBF1F068
:100BC0000190DDE90021881A002801DB014600E0E0
:100BD0004142052900DA641C01980090022CE5DBF3
:100BE00001981CBD01B581B000200090019800EB78
:100BF000C0004000009002E00098401E0090009865
:100C00000028F9D10CBD01B581B00020009044F25C
:100C1000506101984843009002E00098401E009007
:100C200000980028F9D10CBD1CB501211F2025F02A
:100C300079FF4FF6FF70009001208DF8040000202E
:100C40008DF8060001208DF8070003208DF80500BF
:100C50006946654825F020FD4FF6FF7000900120A1
:100C60008DF8040000208DF8060001208DF80700A3
:100C700003208DF8050069465C4825F00DFD4FF610
:100C8000FF70009001208DF8040000208DF8060010
:100C900001208DF8070003208DF8050069465448AF
:100CA00025F0FAFC1CBD1CB501217E2025F03AFF81
:100CB0004FF4CE50009000208DF8040001208DF8F4
:100CC000070002208DF8050069464A4825F0E4FC3B
:100CD0004FF6C740009000208DF8040001208DF8E9
:100CE000070002208DF8050069463F4825F0D4FC36
:100CF0004FF47170009000208DF8040001208DF8F1
:100D0000070002208DF805006946384825F0C4FC2C
:100D10004CF60340009000208DF8040001208DF86F
:100D2000070002208DF805006946314825F0B4FC23
:100D30004FF42660009000208DF8040001208DF80B
:100D4000070002208DF8050069462B4825F0A4FC19
:100D50001CBD1FB54FF4E06025F0C0FB36208DF8B8
:100D6000000000208DF801008DF8020001208DF8B0
:100D70000300684625F0B7FB0121102025F005FF90
:100D80003220ADF8040040F2E73002900020ADF8C8
:100D90000C00ADF8060001A9184826F042FD01211B
:100DA000164827F007FA01221146144827F0DAF90D
:100DB000002125E0CC000020C800002000000080B9
:100DC000A9E78140004800401B0900207000002076
:100DD000000400407400002000080040880000204B
:100DE000000C00407800002000040240000802408F
:100DF000000C0240000002400010024000100040C1
:100E0000FE4826F057FD0121FC4826F093FD1FBD4A
:100E10001FB54FF4E06025F061FB37208DF800002E
:100E200000208DF801008DF8020001208DF80300EC
:100E3000684625F058FB0121202025F0A6FE32202F
:100E4000ADF8040040F2E73002900020ADF80C004D
:100E5000ADF8060001A9EA4826F0E3FC0121E848C4
:100E600027F0A8F901221146E54827F07BF9002177
:100E7000E34826F01FFD0121E14826F05BFD1FBD80
:100E800000B58BB00121022025F090FE01210C203D
:100E900025F048FE03220621DA4825F088FC0322CB
:100EA0000721D84825F083FC03220821D54825F0E6
:100EB0007EFC03220921D34825F079FC4FF47070A1
:100EC000069002208DF81C0003208DF81D000020E4
:100ED0008DF81E0001208DF81F0006A9C94825F0D5
:100EE000DBFBA420ADF8200040F6B83009904FF4A9
:100EF0008070ADF828000020ADF8220008A9C24893
:100F000026F08FFC6020ADF804000120ADF806004B
:100F100000200390ADF810000121BB4826F00AFD27
:100F20000021B94826F0C6FC01A9B74826F00EFDFD
:100F300001A9B54826F043FD01A9B34826F08CFD70
:100F400001A9B14826F0EEFD0121AF4827F0E3F8F2
:100F50000BB000BD00B58BB00121082025F015FEB7
:100F60000121084625F0DEFD02220021A74825F0D8
:100F70001EFC02220121A54825F019FC022211467F
:100F8000A24825F014FC02220321A04825F00FFC02
:100F90000F20069002208DF81C0003208DF81D0004
:100FA00000208DF81E0001208DF81F0006A997482B
:100FB00025F072FBBA20ADF8200042F210700990C3
:100FC0000020ADF82800ADF8220008A9904826F0CE
:100FD00028FC6020ADF804000120ADF806000020D8
:100FE0000390ADF810000121894826F0A3FC0021F0
:100FF000874826F05FFC01A9854826F0A7FC01A9D7
:10100000834826F0DCFC01A9814826F025FD01A9D2
:101010007F4826F087FD01217D4827F07CF80BB042
:1010200000BD00B58BB00121042025F0AEFD0121EB
:101030000D2025F077FD02220C21764825F0B7FB24
:1010400002220D21734825F0B2FB02220E217148C5
:1010500025F0ADFB02220F216E4825F0A8FB4FF4CE
:101060007040069002208DF81C0003208DF81D00B2
:1010700000208DF81E0001208DF81F0006A965488C
:1010800025F00AFBA420ADF8200040F6B830099006
:101090004FF48070ADF828000020ADF8220008A9B8
:1010A0005D4826F0BEFB6020ADF804000120ADF8DD
:1010B000060000200390ADF810000121564826F0EC
:1010C00039FC0021544826F0F5FB01A9524826F0CE
:1010D0003DFC01A9504826F072FC01A94E4826F0BB
:1010E000BBFC01A94C4826F01DFD0BB000BD00B5AE
:1010F00089B00121080425F059FD0121084625F099
:1011000011FD03221146414825F051FB0322022123
:101110003E4825F04CFB0C20019002208DF8080081
:1011200003208DF8090000208DF80A0001208DF8B9
:101130000B0001A9354825F0AFFA0020ADF81800E2
:101140004FF6FF7007900020ADF82000ADF81A00B0
:1011500006A9324826F065FB0420ADF80C000020FB
:10116000ADF80E00C820ADF814000120ADF8100055
:1011700003A92A4826F02CFF00231A4603212848F9
:1011800027F0C3F80121264827F014F80122114660
:10119000234826F0E7FF0121204826F0CBFB002161
:1011A0001F4826F087FB09B000BD00B589B00121BA
:1011B000084625F0EAFC0121022025F0E6FC012189
:1011C000032025F0AFFC01220F21104825F0EFFA93
:1011D00001220321134825F0EAFA022204211148D2
:1011E00025F0E5FA022205210E4825F0E0FA382024
:1011F000019002208DF80800032015E00010004047
:1012000000140040000802400004014000000240B9
:10121000000C0040000C02400008004000000140AB
:1012200000400140000402408DF8090000208DF8C4
:101230000A0001208DF80B0001A9FE4825F02CFAC8
:101240004FF40040019002208DF8080003208DF833
:10125000090000208DF80A0001208DF80B0001A97B
:10126000F54825F019FA0020ADF818004FF6FF7088
:1012700007900020ADF82000ADF81A0006A94FF045
:10128000804026F0CEFA06A9EC4826F0CAFA0420DF
:10129000ADF80C000220ADF80E001420ADF81400DB
:1012A0000120ADF8100003A9800726F091FE03A9E4
:1012B000E24826F08DFE02231A460321580727F044
:1012C00024F802231A460321DC4827F01EF80121E6
:1012D000880726F06FFF0121D84826F06BFF012216
:1012E0001146900726F03EFF01221146D34826F012
:1012F00039FF0121880726F01DFB0121CF4826F088
:1013000019FB00214FF0804026F0D4FA0021CB4891
:1013100026F0D0FA4FF4C06025F0E0F81D208DF8DB
:10132000000003208DF8010000208DF8020001204C
:101330008DF80300684625F0D6F81C208DF80000D3
:1013400004208DF8010000208DF8020001208DF8A6
:101350000300684625F0C7F809B000BD00B589B0A4
:101360000121084625F022FC0121102025F0DAFB9E
:101370004FF42060019002208DF8080003208DF8C2
:10138000090000208DF80A0001208DF80B0001A94A
:10139000AB4825F081F901220921A94825F007FA77
:1013A00001220B21A64825F002FA0020ADF8180012
:1013B0004FF6FF7007900020ADF82000ADF81A003E
:1013C00006A9A04826F02DFA0420ADF80C00002054
:1013D000ADF80E000A20ADF814000120ADF81000A1
:1013E00003A9984826F0F4FD00231A4603219548E6
:1013F00026F08BFF0121934826F0DCFE01221146E6
:10140000904826F0AFFE01218E4826F0D3FE01223F
:1014100011468C4826F0A6FE01218A4826F08AFA59
:101420000021884826F046FA4FF4C06025F056F8AF
:1014300019208DF8000001208DF8010000208DF8A2
:10144000020001208DF80300684625F04CF809B031
:1014500000BD00B589B00121042025F096FB0121D3
:10146000082025F05FFB4FF44050019002208DF8DA
:10147000080003208DF8090000208DF80A000120E3
:101480008DF80B0001A9704825F006F90020ADF891
:1014900018004FF6FF7007900020ADF82000ADF85F
:1014A0001A0006A9694826F0BCF902220C216648F8
:1014B00025F07DF902220D21634825F078F90420FA
:1014C000ADF80C000220ADF80E00C820ADF81400F5
:1014D0000120ADF8100003A95C4826F079FD022335
:1014E0001A460321594826F010FF0121574826F0DB
:1014F00061FE01221146554826F034FE0121534871
:1015000026F018FA0021514826F0D4F900204F495E
:101510001431088001204D4908804FF4C06024F048
:10152000DDFF1E208DF8000004208DF80100002052
:101530008DF8020001208DF80300684624F0D3FFE7
:1015400009B000BD00B589B00121082025F01DFBC0
:101550000121084625F0E6FA0320019002208DF8CB
:10156000080003208DF8090000208DF80A000120F2
:101570008DF80B0001A9304825F08EF80020ADF859
:1015800018004FF6FF7007900020ADF82000ADF86E
:101590001A0006A92E4826F044F902220021264806
:1015A00025F005F902220121234825F000F9042045
:1015B000ADF80C000220ADF80E00C820ADF8140004
:1015C0000120ADF8100003A9214826F001FD0223F7
:1015D0001A4603211E4826F098FE01211C4826F0D9
:1015E000E9FD012211461A4826F0BCFD01211848E8
:1015F00026F0A0F90021164826F05CF900201449D5
:10160000143108800120124908804FF4C06024F092
:1016100065FF32208DF8000004208DF801000020C5
:101620008DF8020001208DF80300684624F05BFF6E
:1016300009B000BD00040240000002400004004068
:101640000010024000000140000C02400008004071
:10165000000C004000B59BB00121FE4825F062FA65
:101660000121080225F0A2FA00200290FA48039016
:10167000FA480490002005900E2006900020079064
:101680004FF4806008904000099080000A9040115B
:101690000B9040020C9000200D9001200E90002035
:1016A0000F90109002A9EE4825F04EFE0121EC4863
:1016B00025F084FEFC20009003208DF8040000201B
:1016C0008DF807006946E74824F0E6FF4FF44070C4
:1016D000009003208DF8040000208DF80700694673
:1016E000E14824F0D9FF3F20009003208DF804004A
:1016F00000208DF807006946DC4824F0CDFF00206B
:1017000011904FF44030129000201390149011A8C3
:1017100025F080FB4FF08070159001208DF8580067
:101720008DF8590000201790189019900E208DF810
:10173000680015A9C8484C3825F03DFB0723012255
:101740000221C5484C3825F0BCFB072302220321A7
:10175000C1484C3825F0B5FB072303220421BE48BD
:101760004C3825F0AEFB072304220521BA484C383B
:1017700025F0A7FB072305220621B7484C3825F0A2
:10178000A0FB072306221946B3484C3825F099FBE5
:1017900007231A460821B0484C3825F092FB07234E
:1017A00008220921AC484C3825F08BFB072309227D
:1017B0000A21A9484C3825F084FB07230A220B2173
:1017C000A5484C3825F07DFB07230B220C21A248AD
:1017D0004C3825F076FB07230C220D219E484C380F
:1017E00025F06FFB07230D220E219B484C3825F076
:1017F00068FB07230E220F2197484C3825F061FB28
:10180000012195484C3825F007FC012192484C38BD
:1018100025F0F7FB012190484C3825F012FB8E484B
:101820004C3825F0AAFB1BB000BD08B54FF4E060B2
:1018300024F054FE25208DF8000000208DF80100D2
:101840008DF8020001208DF80300684624F04BFE5D
:1018500008BD10B596B004460121102025F0A6F968
:101860000121084625F05EF90121880525F05AF985
:101870004FF4C060009002208DF8040000208DF825
:1018800006008DF8070002208DF8050069467548AE
:1018900024F002FF07220921724824F088FF072262
:1018A0000A21704824F083FF02940020ADF80C0058
:1018B000ADF80E00ADF81000ADF814000C20ADF836
:1018C000120002A96A4826F09FFD0121684826F00F
:1018D00023FE4FF4A06024F001FE3A208DF818009A
:1018E00000208DF819008DF81A0001208DF81B00DA
:1018F00006A824F0F8FD5A48303025F083FC4FF05C
:101900000060079000200A905A4809900A200B9026
:101910005748001D089000200C904FF480600D90F7
:1019200000200E900F904FF48070109040021190A4
:10193000042012900320139000201490159007A902
:101940004748303025F000FD01224021484826F06C
:1019500090FE012210214248303025F0BCFD0121CB
:101960003F48303025F02AFD16B010BD10B596B0B6
:1019700004460121480525F0D5F80121480425F049
:1019800004F90121082025F0CDF860200090022004
:101990008DF8040000208DF806008DF80700022065
:1019A0008DF805006946344824F076FE07220521AB
:1019B000314824F0FCFE072206212F4824F0F7FED0
:1019C00002940020ADF80C00ADF80E00ADF8100048
:1019D000ADF814000C20ADF8120002A9274826F03B
:1019E00013FD0121254826F097FD4FF4A06024F057
:1019F00075FD11208DF8180000208DF819008DF864
:101A00001A0001208DF81B0006A824F06CFD1C486C
:101A100025F0F8FB4FF00060079040200A9019482D
:101A2000099050200B901548001D089000200C9044
:101A30004FF480600D9000200E900F904FF4807056
:101A40001090400211900420129003201390002067
:101A5000149019E0070040004C200140BE0800200F
:101A600010640240000002400004024000080240EE
:101A700000100140DA080020000C02400044004041
:101A8000A060024004000020159007A9FE4825F040
:101A90005BFC01228021FD4826F0EBFD0122802124
:101AA000FA4826F0E6FD01221021F74825F013FD43
:101AB0000121F54825F082FC16B010BD10B596B096
:101AC00004460121880425F060F80121082025F052
:101AD00029F80121480525F025F84FF440700090C1
:101AE00002208DF8040000208DF806008DF8070014
:101AF00002208DF805006946E54824F0CDFD072257
:101B00000821E34824F053FE07220921E04824F08D
:101B10004EFE02940020ADF80C00ADF80E00ADF8BA
:101B20001000ADF814000C20ADF8120002A9D9483D
:101B300026F06AFC0121D74826F0EEFC4FF4A060A5
:101B400024F0CCFC0C208DF8180000208DF8190032
:101B50008DF81A0001208DF81B0006A824F0C3FCA4
:101B6000C948783825F04EFB4FF000600790002000
:101B70000A90C94809900A200B90C648001D089099
:101B800000200C904FF480600D9000200E900F907C
:101B90004FF48070109040021190042012900320A6
:101BA000139000201490159007A9B748783825F0B5
:101BB000CBFB01224021B74826F05BFD01224021EA
:101BC000B44826F056FD01221021AF48783825F0A0
:101BD00082FC0121AC48783825F0F0FB16B010BD2E
:101BE00010B596B004460121C80424F0CEFF0121AF
:101BF000042024F097FF0121480524F093FF4FF4BF
:101C00004060009002208DF8040000208DF806004E
:101C10008DF8070002208DF8050069469F4824F0E2
:101C20003BFD08220A219D4824F0C1FD08220B211A
:101C30009A4824F0BCFD02940020ADF80C00ADF8E9
:101C40000E00ADF81000ADF814000C20ADF8120035
:101C500002A9934826F0D8FB0121914826F05CFCAC
:101C60004FF4A06024F03AFC0D208DF818000320FA
:101C70008DF8190001208DF81A008DF81B0006A8B8
:101C800024F031FC8048603825F0BCFA4FF0006049
:101C9000079000200A908348099008200B90804804
:101CA000001D089000200C904FF480600D900020E3
:101CB0000E900F9010904FF4003011900020129071
:101CC0000320139000201490159007A96E486038E7
:101CD00025F03AFB01224021714826F0CAFC01227E
:101CE00080216F4826F0C5FC01221021664860382B
:101CF00025F0F1FB01216448603825F05FFB16B048
:101D000010BD70B5684C2468642C00DB70BD674C56
:101D1000248804EB8404664D2C446070634C248852
:101D200004EB84042C44A170604C248804EB8404EC
:101D30002C44E2705D4C248804EB84042C44237111
:101D40005A4C2488641C642594FBF5F605FB164464
:101D5000564D2C80544C2468641C534D2C6000BF9D
:101D6000D4E701465048006808B900207047514840
:101D7000008800EB80004E4A104402680A60007937
:101D800008710120F2E701464748006808B90020C1
:101D900070474848008800EB8000454A10440268BC
:101DA0000A600079087143480088401C642290FB57
:101DB000F2F302FB13003F4A10803B480068401ECC
:101DC000394A10600120E3E70CB56846FFF7DBFFF6
:101DD0000020394908700CBD0346012B03DB062B9C
:101DE00001DC18467047012903DB062901DC08469F
:101DF000F8E7012A03DB062A01DC1046F2E700209F
:101E0000F0E710B52D48C07F40F004002B49C8779B
:101E10004FF4FA6027F0A2FE2848C07F40F0080087
:101E20002649C8774FF4FA6027F098FE2348C07F10
:101E300040F040002149C8774FF4FA6027F08EFE49
:101E40001E48C07F40F010001C49C8774FF4FA606C
:101E500027F084FE10BD10B512480078114949786A
:101E600008441049897808440E49C97808440D4946
:101E7000097908440B4949790844C4B209480078F3
:101E800002281DD010BD0000A060024000440040A8
:101E9000000C0240004800401B09002000080240DE
:101EA000004C0040DF020020FC0200200003002064
:101EB0002A0900200203002005030020040000205E
:101EC000FE48C079032800D010BDFC488079A042AC
:101ED0007DD1FA484078FA490870F8488078F94985
:101EE0000870F648C078F8490870F4480079F74956
:101EF0000870F2484079F6490870F14800780128E6
:101F000008D1F0480078022804D108460078F14949
:101F1000086028E1EA480078022807D1E9480078FB
:101F2000012803D10020EC4908601CE1E448007856
:101F300002280AD1E34800780A2806D1E24800784E
:101F4000012802D1E54908600DE1DD48007802284A
:101F50000AD1DC4800780A2806D1DB48007802283C
:101F600002D1DE490860FEE0D548007802280AD197
:101F7000D4480078092806D1D3480078012802D136
:101F8000D7490860EFE0CE48007802280AD1CD4852
:101F90000078092806D1CC480078022802D1D0491F
:101FA0000860E0E0C6480078022856D1C5480078AD
:101FB000022852D1C6480378C4480278C248017842
:101FC000C0480078FFF79DFEC648C07F00E0C1E032
:101FD00040F00200C349C877BB48007880B9BB48CD
:101FE0000078012807D0B9480078022803D0B74804
:101FF0000078032804D1BC480068401CBA49086036
:10200000B148007804280BD1B0480078052807D1E2
:102010000120B6490860AE480078B54908600CE078
:10202000A9480078042808D1A8480078062804D1D7
:102030000020AE490860AF490860A3480078052831
:1020400091D1A2480078052806D10120A94908604D
:102050009F480078A649086085E0994800780228E2
:102060001BD198480078032817D1994802789748DF
:10207000017895480078FFF7AFFE9F4908609948BE
:10208000C07F40F002009749C8779B48006800284D
:1020900069D001209949086065E0894800780228E4
:1020A00023D18848007804281FD187480078012868
:1020B0000BD186480078012807D1914908608948EA
:1020C000C07F40F002008749C8777F4800788D497B
:1020D00008607E4800788C4908607D4800788B490C
:1020E00008600120864908603DE0754800780228B4
:1020F00021D17448007805281DD173480078012843
:1021000009D172480078012805D17148007801286A
:1021100001D17F4908606C480078022823D16B48C0
:10212000007802281FD16A480078784908600120A9
:102130007849086017E062480078032813D16148A5
:10214000007803280FD16048007803280BD1FFF7EF
:1021500058FE08E0FF205B4908705B4908705B4946
:1021600008705B49087000BFAEE65F48006802284F
:1021700003D101206849086002E000206649086038
:10218000704710B596B004460121480524F0CAFCFA
:102190000121080524F0F9FC01210C2024F0C2FCE7
:1021A0000420009002208DF8040000208DF8060025
:1021B0008DF8070002208DF805006946574824F085
:1021C0006BFA4FF48050009002208DF8040000203C
:1021D0008DF806008DF8070002208DF8050069468D
:1021E0004F4824F059FA082202214C4824F0DFFA23
:1021F00008220C214A4824F0DAFA4FF4A06024F0B7
:102200006DF92F208DF8180005208DF819008DF834
:102210001A0001208DF81B0006A824F064F90B2099
:102220008DF8180005208DF819008DF81A0001208E
:102230008DF81B0006A824F056F902940020ADF892
:102240000C00ADF80E00ADF81000ADF814000C2035
:10225000ADF8120002A9334826F0D6F80121314822
:1022600026F05AF9304824F0CDFF4FF00060079077
:1022700040200A902D4809900A200B902948001D03
:10228000089000200C904FF480600D9000200E907C
:102290000F9010904FF40030119000201290032006
:1022A000139000201490159007A91F4825F04CF8B2
:1022B0001D48A83824F0A6FF3AE00000DF02002005
:1022C000E7020020E8020020E9020020EA020020E4
:1022D000EB020020180300201C030020380300201C
:1022E00040030020040000204803002008030020D1
:1022F00014030020100300202003002044030020CA
:102300003C03002024030020280300202C0300208D
:10231000300300203403002068020020000C02403B
:102320000008024000500040B860024092070020C0
:102330004FF00060079000200A90F74809900520B0
:102340000B90F648089000200C904FF480600D90A0
:1023500000200E900F9010904FF40030119000204C
:1023600012900320139000201490159007A9EC48B8
:1023700024F0EAFF01228021E848001F26F079F9C5
:1023800001224021E548001F26F073F901221021A7
:10239000E348A83025F09FF801221021E04825F0FD
:1023A0009AF80121DE48A83025F008F80121DC4820
:1023B00025F004F816B010BD10B596B00446012102
:1023C000202024F0F3FB0121042024F0ABFB0121A9
:1023D000880524F0A7FBC020009002208DF804009F
:1023E00000208DF806008DF8070002208DF805000A
:1023F0006946CC4824F050F908220621C94824F047
:10240000D6F908220721C74824F0D1F90294002008
:10241000ADF80C00ADF80E00ADF81000ADF81400EA
:102420000C20ADF8120002A9BF4825F0EDFF0121F4
:10243000BD4826F071F84FF4A06024F04FF8392021
:102440008DF8180003208DF8190001208DF81A006E
:102450008DF81B0006A824F046F8B44824F0D2FEFC
:102460004FF02060079000200A90B14809900820A2
:102470000B90AD48001D089000200C904FF4806038
:102480000D9000200E900F9010904FF4003011909E
:10249000002012900320139000201490159007A99B
:1024A000A24824F051FF012240219F4826F0E1F884
:1024B000012280219C4826F0DCF8012210219B4853
:1024C00025F009F80121994824F078FF16B010BDD5
:1024D00097490978964A52781144954A927811445E
:1024E000934AD2781144924A12791144904A52790F
:1024F0001144C8B28E490978022900D070478C492E
:10250000C979032900D0F9E789498979814218D12D
:1025100087494978874A117085498978864A1170B8
:102520008349C978854A117081490979844A1170B3
:102530007F494979834A117081490978824A11702B
:1025400006E0FF217D4A11707D4A11707D4A1170AD
:1025500000BFD3E700B585B00121082024F0E2FADE
:102560000121880324F022FB00208DF810000120B7
:102570008DF813000C20039003A9744824F08CF804
:102580000221032026F00EF90420009000208DF88F
:10259000040010208DF8050001208DF80600684623
:1025A00025F012F808208DF8080000208DF80900A9
:1025B0008DF80A0001208DF80B0002A823F093FF8C
:1025C00005B000BD70B504460D46012C0BD129465F
:1025D0005F4825F0CCFF00BF40215D4826F077F82A
:1025E0000028F9D038E0032C0BD12946594825F0B2
:1025F000BEFF00BF4021574826F069F80028F9D0F7
:102600002AE0042C0BD12946534825F0B0FF00BF27
:102610004021514826F05BF80028F9D01CE0052C39
:102620000DD129463D48001F25F0A1FF00BF4021E4
:102630003A48001F26F04BF80028F8D00CE0062C92
:102640000AD12946384825F092FF00BF402136487C
:1026500026F03DF80028F9D070BD2DE9F04702249E
:102660000125022600274FF000084FF003096019EA
:1026700030443844404439490978084400F0FF0A9E
:1026800021460420FFF79EFF29460420FFF79AFF0A
:1026900031460420FFF796FF39460420FFF792FFEA
:1026A00041460420FFF78EFF2C4801780420FFF7F5
:1026B00089FF51460420FFF785FF49460420FFF7B4
:1026C00081FFBDE8F0870020254948622549086060
:1026D0002549086025490860704700202049486264
:1026E000204908604FF08041486221490860214933
:1026F0000860214908601C4908601C4908601F499E
:1027000008601F490860704700204FF08041486210
:1027100017490860704700001E0B0020045000405D
:10272000106002400008024000140140286402408A
:102730004C030020540300205503002056030020C2
:10274000570300205803002059030020000C0240CA
:102750000010014000480040004C004018030020D9
:10276000000001406C000020240800408800002088
:10277000700000202404004074000020240C00405D
:10278000780000200020FE490860FE49086070477C
:1027900010B50020FC490870002407E061210120E9
:1027A000FFF710FF3220FEF72EFA641C022CF5D33F
:1027B0000120F54908707A20F449087010BD10B561
:1027C0000020F3490870002407E061210320FFF78F
:1027D000F9FE3220FEF717FA641C022CF5D3012013
:1027E000EB4908707A20EB49087010BD2DE9F14FD4
:1027F000AEB0E9A02D9000202C908DF888008DF8C7
:1028000060002E9829283DD2DFE800F0153D464DA6
:10281000545B626970777E858C939AA1A8FDFCFB5E
:10282000FAF9F8F7F6F5F4F3F2F1F0EFEEEDECEB80
:10283000EAE9E8E7E6000221E04823F08FFF88B1EB
:1028400000224FF40041DE4823F0A6FF4FF4004180
:10285000DB4823F090FF044600222146D9A0FDF773
:1028600022FF0FE00122D103D54823F095FF4FF45A
:102870000041D34823F07FFF044600222146D9A01F
:10288000FDF711FF40E30122DE48B0F900004142AC
:10289000DDA0FDF708FF37E30222DD480168DDA077
:1028A000FDF701FF30E30322DE480168DEA0FDF7FB
:1028B000FAFE29E30422E1480168E1A0FDF7F3FEF6
:1028C00022E30522E2480168E2A0FDF7ECFE1BE3EB
:1028D0000622E4480168E4A0FDF7E5FE14E30722C0
:1028E000E4480168E4A0FDF7DEFE0DE30822E648B7
:1028F0000168E6A0FDF7D7FE06E30922E748016874
:10290000E7A0FDF7D0FEFFE20A22E9480168E9A04E
:10291000FDF7C9FEF8E20B22E9480168E9A0FDF7DE
:10292000C2FEF1E20C22EB480168EBA0FDF7BBFE12
:10293000EAE20D22ED480168EDA0FDF7B4FEE3E206
:102940000E22EF480168EFA0FDF7ADFEDCE2F14892
:1029500041890F22F0A0FDF7A6FED5E20121F24841
:1029600023F0FCFE4FF400511790954823F0F6FE3B
:1029700004460221EC4823F0F1FE05464FF4804165
:102980008F4823F0EBFE06460421E74823F0E6FEDD
:102990004FF400411690E44823F0E0FE074608217A
:1029A000E14823F0DBFE80464FF48041DE4823F00F
:1029B000D5FE81461021DC4823F0D0FE4FF40051B3
:1029C0001590D94823F0CAFE82460821D74823F043
:1029D000C5FE4FF4805117E08FE287E27FE277E295
:1029E0006BE262E25AE24EE244E23AE230E226E28E
:1029F0001AE20EE201E2F5E1E8E1DBE1D3E1C6E152
:102A0000BEE1B6E1AEE13CE01490C74823F0A6FE7B
:102A100010211390C54823F0A1FE4FF4806112905D
:102A2000C14823F09BFE83468021BF4823F096FED9
:102A30004FF480711190BC4823F090FE10901798CD
:102A4000CDE90B65CDE90D401698CDE90798CDE9A4
:102A50000970DDE913121598CDE9042A0391069057
:102A6000DDE91101CDE901B10090B1A2282122A830
:102A7000109B28F029F8102222A9B6A0FDF766FEC7
:102A800042E280214D4823F069FE044601214B4873
:102A900023F064FE05464021484823F05FFE0646C9
:102AA0004FF40041A14823F059FE07464FF48051EE
:102AB000A94823F053FE80464FF480613F4823F03D
:102AC0004DFE81464FF40061A34823F047FE4FF4CA
:102AD00000611790394823F041FE82464FF480612F
:102AE000924823F03BFE83464FF48051334823F055
:102AF00035FE4FF4006116908C4823F02FFE4FF402
:102B0000005115902D4823F029FE4FF48041149078
:102B1000864823F023FE4FF480411390274823F08A
:102B20001DFE4FF4807112908B4823F017FE4FF476
:102B300000411190214823F011FECDE90B76CDE93B
:102B40000D5410901798CDE907A0CDE90998DDE95B
:102B500015211498CDE9051BCDE90302DDE9111219
:102B60001398CDE90012029071A2282122A8109B8F
:102B700027F0AAFF112222A978A0FDF7E7FDC3E103
:102B800024040040740000209100002090000020E8
:102B90009300002092000020313131313131313148
:102BA0003131313131313131313131313131303116
:102BB0003131313131313131000000000004024047
:102BC00000080240524F424F5420322044414E47A9
:102BD00020434841592053414E2058414E483A2005
:102BE00020200000524F424F5420322044414E4793
:102BF00020434841592053414E20444F3A20202041
:102C0000000000008C000020494D553A00000000F3
:102C1000A40000204C617A657220706861693A20D6
:102C200000000000B800002054726F206368616EDD
:102C3000205472756F633A2000000000A00000204D
:102C40004C617A657220747261693A20000000005C
:102C5000BC00002054726F206368616E2053617560
:102C60003A200000980000204C617A657220736160
:102C7000753A2000C000002054726F2064617920F2
:102C800074617920312000009C0000204C617A653D
:102C900072207472756F632000000000C400002071
:102CA00054726F20646179207461792032200000B1
:102CB000400300206D6F6465206261632033200053
:102CC000B000002054726F20786F617920746179B0
:102CD00020000000380300206D6F64655F63686149
:102CE000795F72756E673A20000000002C030020A7
:102CF0006E6861745F6461745F686F7020000000CB
:102D00003C0300206D6F6465206E68617420686FFD
:102D100070200000BE0800205175616E675F7472FC
:102D20006F203A200000000000100240000C02401A
:102D3000256425642564256425642564256425644B
:102D4000256425642564256425642564256425643B
:102D500000000000493A000000000240696E323A6B
:102D6000000000001222F9480168F9A0FDF79BFC61
:102D7000CAE01322FB480168FBA0FDF794FCC3E006
:102D80001422FC480168FCA0FDF78DFCBCE04FF468
:102D90000061FE4823F0E2FC044615222146FCA017
:102DA000FDF781FCB0E0FE48018A1622FDA0FDF788
:102DB0007AFCA9E04FF40071F44823F0CFFC0446FC
:102DC00017222146FAA0FDF76EFC9DE04FF48071BA
:102DD000FB4823F0C3FC044618222146F9A0FDF766
:102DE00062FC91E02021E94823F0B8FC0446192256
:102DF0002146F8A0FDF757FC86E04FF40071F0483B
:102E000023F0ACFC04461A222146F6A0FDF74BFC49
:102E10007AE04021DD4823F0A1FC04461B22214634
:102E2000F4A0FDF740FC6FE00121F64823F096FC8A
:102E300004461C222146F4A0FDF735FC64E0FDF7B2
:102E400053FE04461D222146F1A0FDF72CFC5BE059
:102E5000FDF71DFE04461E222146F1A0FDF723FCCE
:102E600052E0FDF795FE04461F222146F0A0FDF733
:102E70001AFC49E0FDF762FE044620222146F0A03C
:102E8000FDF711FC40E04021CD4823F067FC0446EB
:102E900021222146EEA0FDF706FC35E02222F04873
:102EA0000168F0A0FDF7FFFB2EE02322F048B0F907
:102EB0000010F0A0FDF7F7FB26E08021C04823F0CA
:102EC0004DFC044624222146EDA0FDF7ECFB1BE05F
:102ED0002522F0480168F0A0FDF7E5FB14E026226A
:102EE000F1480168F1A0FDF7DEFB0DE02722F34871
:102EF0000168F3A0FDF7D7FB06E02822F34801683C
:102F0000F3A0FDF7D0FB00BF00BF2FB0BDE8F08FEE
:102F100010B50121F14824F051FA10BD01B5F04877
:102F200000680099884203DD0020ED49086004E054
:102F3000EB480068401CEA490860E9480068FFF770
:102F400055FC08BD01B59DF80000052801DA0020F8
:102F500008BD9DF80000FBE730B504461D4624B9C6
:102F6000E0480078E04BD87011E0002C07DDE0B2BB
:102F7000FFF7E8FFDC4BD8700020987007E0634251
:102F8000D8B2FFF7DFFFD84BD8700120987021B975
:102F9000D4480078D44BD87111E0002907DDC8B2BD
:102FA000FFF7D0FFD04BD8710120987107E04B425A
:102FB000D8B2FFF7C7FFCC4BD8710020987122B967
:102FC000C8480078C84BD87211E0002A07DDD0B29B
:102FD000FFF7B8FFC44BD8720120987207E0534244
:102FE000D8B2FFF7AFFFC04BD8720020987225B956
:102FF000BC480078BC4BD87311E0002D07DDE8B267
:10300000FFF7A0FFB84BD8730020987307E06B421E
:10301000D8B2FFF797FFB44BD8730120987330BD37
:10302000B14AD070D071D072D0737047AE48C078BA
:1030300003280DDAAC48C079032809DAAA48C07A17
:10304000032805DAA848C07B032801DA012070476D
:103050000020FCE70120A54908607047A4480068EB
:1030600047F23051884201D0012070470020FCE730
:1030700010B5FFF78DFB10BD9E48B0F9000040422F
:103080007047B5EEC00AF1EE10FA09D29A48D0EDB9
:10309000000A70EE600AFDEEE00A10EE900A70473A
:1030A0009548D0ED000A70EE200AFDEEE00A10EE21
:1030B000900AF4E710B52DED0A8B044624B99FED74
:1030C0008F0ABDEC0A8B10BD002C25DA8C480068F5
:1030D00027F04DFB41EC190B204627F048FB41EC53
:1030E0001C0B9FED880B53EC102B27F05FFA41EC83
:1030F0001B0B9FED860B53EC102B27F051FA41EC84
:103100001A0B53EC192B27F0C3FA41EC180B27F0DC
:1031100089FB00EE100AD4E77948006827F027FB06
:1031200041EC190B204627F022FB41EC1C0B9FEDD4
:10313000750B53EC102B27F039FA41EC1B0B9FED6C
:10314000730B53EC102B27F08AF9E3E0FC0200200C
:10315000636F756E745F646174615F7561727434FE
:103160002000000018030020626C6F636B5F7068C2
:10317000613A2000140300207365655F52315F746B
:1031800072656E5F72756E6720000000001002406D
:1031900043425F4E616E675F747261692000000098
:1031A000BE0800205175616E675F74726F32200037
:1031B00043425F4E616E675F7068616900000000A6
:1031C00000080240636865636B5F686F705F313A47
:1031D00000000000636865636B5F686F705F323A80
:1031E00020000000636865636B5F686F705F333A4F
:1031F00020000000636865636B5F686F705F343A3E
:1032000020000000000C0240537461727400000042
:10321000454E434F4445525F465228292000000046
:10322000454E434F4445525F464C2829200000003C
:10323000454E434F4445525F52522829200000001A
:10324000454E434F4445525F524C28292000000010
:1032500063687579656E5F646F695F543320000041
:103260002003002069645F6461745F686F702000F0
:103270008E000020494D55786F61793A00000000BA
:10328000636865636B5F6461745F686F705F54321D
:1032900020000000940200206E6861795F64656E12
:1032A0005F6C616E5F312000F80200206E67616E16
:1032B000675F7175615F6F3320000000640200205A
:1032C0006B745F6C6162616E20000000600300201F
:1032D000636865636B5F74696D652000A060024080
:1032E00084000020A8030020040000200C0400201B
:1032F000D00300208C0000206803002000000000A4
:10330000BC030020333333333333C33F9A99999945
:103310009999C93F41EC1A0B53EC192B27F0B8F9D6
:1033200041EC180B27F07EFA00EE100AC9E6F0EE29
:10333000400AF5EEC00AF1EE10FA02DBB0EE600AC8
:103340007047B1EE600AFBE70146002901DB084641
:1033500070474842FCE70146FE48D0ED000AF1EE16
:10336000600AFD48D0ED001A80EEA11A00EE901A16
:10337000F8EEE01AF748D0ED000A41EE210AB0EE6F
:10338000600AFDEEC00A10EE900A7047B0EE402AC7
:10339000DFEDF22AB0EE620AB5EEC02AF1EE10FAC5
:1033A00003D2F1EE422AB0EE622AF5EEC00AF1EE47
:1033B00010FA03D2F1EE602AF0EE620AB5EEC01AFE
:1033C000F1EE10FA03D2F1EE412AB0EE621AF5EEF8
:1033D000C01AF1EE10FA03D2F1EE612AF0EE621A91
:1033E000B4EEC02AF1EE10FA01DDB0EE420AF4EEBE
:1033F000C00AF1EE10FA01DDB0EE600AB4EEC01AB8
:10340000F1EE10FA01DDB0EE410AF4EEC01AF1EE71
:1034100010FA01DDB0EE610A7047D14800687047CC
:10342000D0480068704710B52DED028BB0EE408A91
:10343000CD48006847F2305188420ED11FED510A45
:10344000CA4880ED000ACA4880ED000AC94880EDEC
:10345000000AC94880ED000A4AE0C8480068C84927
:103460000968401AC0490968081A00EE100AB8EE47
:10347000C00AF0EE408AC348D0ED000A88EEA00AE8
:10348000C148D0ED000A30EE200AC048D0ED000A55
:1034900020EE200AF0EE408AB0EE680A28F0AAF981
:1034A000F0EE000A20EE200AB04880ED000AB0EEEF
:1034B000680A27F0C5FDF0EE000A20EE200AAC48AD
:1034C00080ED000AA94890ED000AB148D0ED000A4D
:1034D00030EE200AA84880ED000AA54890ED000AC9
:1034E000AB48D0ED000A30EE600AA24880ED000A39
:1034F000B5EEC08AF1EE10FA73D0A6480068052830
:1035000020D2DFE800F003203A546F009A4890ED93
:10351000000A30EE080A80ED000A964890ED000A95
:1035200030EE480A80ED000A914890ED000A30EE36
:10353000080A80ED000A8D4890ED000A30EE480A36
:1035400080ED000A68E08B4890ED000A30EE480AF2
:1035500080ED000A864890ED000A30EE080A80ED02
:10356000000A824890ED000A8B48D0ED000A08EE70
:10357000600A7E4880ED000A4EE07F4890ED000A28
:1035800030EE080A80ED000A794890ED000A824882
:10359000D0ED000A08EE200A754880ED000A734855
:1035A00090ED000A30EE480A80ED000A34E07248DF
:1035B00090ED000A30EE080A80ED000A6D4890EDAB
:1035C000000A7548D0ED000A08EE600A694880EDEF
:1035D000000A664890ED000A30EE480A80ED000AC5
:1035E0001AE01AE0644890ED000A6B48D0ED000A3A
:1035F00008EE200A604880ED000A5E4890ED000A5F
:1036000030EE480A80ED000A594890ED000A30EE8D
:10361000080A80ED000A00BF00BF5448D0ED001A30
:10362000534890ED001A5348D0ED000A524890EDEF
:10363000000AFFF7ABFE5948D0ED000AF8EEE00AA9
:1036400080EE801ABDEEC10A554880ED000A44485C
:10365000006853490968884203DD514800684049C1
:10366000086001204F490860BDEC028B10BD10B509
:10367000044600204C4908604C480460FCB9002016
:10368000374908601FEDE30A414880ED000A47F220
:10369000305035490860464908601FEDE80A454842
:1036A00080ED000A00203B490860434908602D492D
:1036B0000860424908601FEDEF0AFFF7B4FE10BD35
:1036C00010B53C4890ED000AB5EEC00AF1EE10FAD4
:1036D00005D13048006810B93748006890B11FED37
:1036E000F90A344880ED000A00202A49086032496E
:1036F000086022480068224908602E4890ED000AC0
:10370000FFF791FE10BD1348C0ED000A124880ED8E
:10371000000A704770B52DED028B05460C46B0EEE1
:10372000408A11480068A8420BD11F480068A04297
:1037300007D1174890ED000AB4EE480AF1EE10FAEE
:103740004FD0194804600648006810B905200449A4
:10375000086035E0A0030020A40300206F12833A24
:10376000BC030020E8030020D00300200804002050
:103770000404002000040020FC030020F0030020CB
:10378000DC030020800300208C030020B003002015
:10379000E4030020B803002070030020640300202D
:1037A000C4030020B4030020C0030020C80300208D
:1037B000D4030020E0030020D80300200C040020E4
:1037C000FA480068FA490860FA4880ED008AFA4829
:1037D00005600020F9490860F94890ED000AFFF7FC
:1037E00022FEBDEC028B70BD70B52DED028B044640
:1037F000B0EE408A0D46F3480068A0420BD1F04875
:1038000090ED000AB4EE480AF1EE10FA03D1EE484A
:103810000068A8423AD0E848006847F23051884230
:1038200025D12820E9490860E948006810B90A2034
:10383000E749086047F23050844218DA0120E54930
:103840000860B5EEC08AF1EE10FA03DDD7480068D3
:10385000A04208DCB5EEC08AF1EE10FA07D2D348D8
:103860000068A04203DAB1EE480AB0EE408AD548BB
:103870000460D5480560D24880ED008A0020CF4919
:103880000860CF4890ED000AFFF7CDFDBDEC028B3C
:1038900070BD10B52DED028BB0EE408A0446214676
:1038A000B0EE480A47F23050FFF79EFFBDEC028BA6
:1038B00010BD70B504460D469FEDC70A2946204647
:1038C000FFF728FF70BD70B52DED088BF0EE408A34
:1038D0000446B0EE608AB0EE419AC04890ED000A0E
:1038E000B8EEC00AB4EE680AF1EE10FA0DD1B7488E
:1038F0000068A04209D1B34890ED000AB8EEC00AB2
:10390000B4EE480AF1EE10FA5ED0BDEEE80AB34814
:1039100080ED000AA54991ED000AB8EEC00A38EE24
:10392000C00ABDEEC00A10EE100A9FEDAB0A214698
:10393000FFF7F0FE9D4890ED000AB8EEC00A38EEA1
:10394000400ABDEEC00A10EE105A002D01DB2846D9
:1039500000E06842642814DD944890ED000AB8EE57
:10396000C00AB4EEC08AF1EE10FA02DDB0EE490AE8
:1039700001E0B1EE490A10EE101A084626F027FFC2
:1039800013E08A4890ED000AB8EEC00A38EE400A0B
:1039900010EE101A084626F01AFF41EC1B0B9FEDA3
:1039A000900B53EC102B26F001FE41EC1A0B26F085
:1039B00039FF09EE900A0021B0EE690AFDEEC80A4F
:1039C00010EE900AFFF710FFBDEC088B70BD10B52C
:1039D0008048006801283DDD7A490968734A126809
:1039E000881AFFF7B1FC0A280CDA7A4801680068E7
:1039F000401C784A1060B1F5FA7F2BDD0020FFF7FC
:103A000036FE10BD73480068FA2808DD05206F49AE
:103A100008606F490860FB206E49086004E00520DB
:103A20006A4908606A490860604800686549096831
:103A3000884205DDBFEE000A614880ED000A04E01F
:103A4000B7EE000A5E4880ED000A5D4890ED000A7E
:103A5000FFF7E9FC00BFD4E710B52DED028B554808
:103A600090ED000AB5EEC00AF1EE10FA08D1584800
:103A7000006828B15348006847F23051884202DBA1
:103A8000BDEC028B10BD4E4890ED000AB5EEC00AA9
:103A9000F1EE10FA7ED04848006847F23051884273
:103AA00079D1474890ED000AB5EEC00AF1EE10FA60
:103AB00008DD444800684C490968401A3B490968D8
:103AC000884210DB3E4890ED000AB5EEC00AF1EEE8
:103AD00010FA6AD23B4800684349096808443349F0
:103AE0000968884261DD3B48006803285CDA354993
:103AF00009682E4A1268881AFFF726FC082816DA89
:103B000030480068394908600020314908602F4971
:103B100008609FED310A2A4880ED000A02202D49F5
:103B20000860274890ED000AFFF77DFCA8E72548CC
:103B300000681E49096888425CDD254890ED000A4E
:103B4000B8EEC00A1E48D0ED000A60EE200A2648F2
:103B500090ED000AB8EEC00AC0EE801AB0EE611A0D
:103B6000B0EE410AFFF7E3FB164909680F4A1268F5
:103B7000881AFFF7E9FB00EE900AB8EEE01A1C483D
:103B8000D0ED000A40EE010A114890ED000AB8EEAF
:103B9000C00A01E0CBE068E080EE801AB0EE418A16
:103BA000B0EE480AFFF73FFCC0E058E0F003002009
:103BB000DC030020E4030020D0030020CC0300201D
:103BC000E0030020D8030020B8030020C003002039
:103BD000BC030020E803002000000000D403002004
:103BE0007B14AE47E17A743F9C030020EC03002075
:103BF0007C030020F84890ED000AB8EEC00AF748B0
:103C0000D0ED000A60EE200AF54890ED000AB8EE0B
:103C1000C00AC0EE801AB0EE611AB0EE410AFFF79A
:103C200086FBF0490968F04A1268881AFFF78CFB96
:103C300000EE900AB8EEE01AEC48D0ED000A50EE23
:103C4000410AE54890ED000AB8EEC00A80EE801AFD
:103C5000B0EE418AB0EE480AFFF7E5FB66E0DF48C8
:103C600090ED000AFFF7DFFB60E0DC4890ED000A12
:103C7000B5EEC00AF1EE10FA1FDDDA4890ED000A49
:103C8000B8EEC00AD448D0ED000AF8EEE00AD348F6
:103C900090ED001A00EEC10AD548D0ED000AF8EE0A
:103CA000E00A70EE600AD04890ED000AB8EEC00A53
:103CB000F4EEC00AF1EE10FA27D3C84890ED000ADE
:103CC000B5EEC00AF1EE10FA2BD2C64890ED000A0C
:103CD000B8EEC00AC048D0ED000AF8EEE00ABF48CE
:103CE00090ED001A00EEC10AC148D0ED000AF8EECE
:103CF000E00A70EE200ABC4890ED000AB8EEC00A57
:103D0000F4EEC00AF1EE10FA0BDDB6490968B64AC6
:103D10001268881AFFF7CEF9B0EE408AFFF783FBEE
:103D200004E0AE4890ED000AFFF77DFBA8E6B1493C
:103D30000968AD4A1268881AFFF7BCF9B0EE408AEC
:103D4000FFF771FB00BF9BE600B5AB480068022897
:103D500015DA1FED5F0AA94880ED000A1FED620A1F
:103D60009E4880ED000A0020A549086047F23050C7
:103D7000A4490860A449086000209A490860A34843
:103D80000068401CA1490860A1490968884204DA1A
:103D9000A0480068FFF744F90EE09D4800689B4981
:103DA00008609D48006820B19A480068FFF738F91C
:103DB00002E00020FFF734F900BD944A1268521C5B
:103DC000924B1A60824207DD834A12680A44824B92
:103DD0001A6000228D4B1A6070472DE9F041FFF701
:103DE0004BF981490860FFF7F2FD8C480068002814
:103DF00021DD794800688949096888422AD07648D7
:103E000000688649096888420EDA73480068844968
:103E1000096888421EDA70480068FFF79CFA044679
:103E20000121FFF7CAFF15E04FF0FF317D48006820
:103E3000FFF7C3FF0EE068480068002806DD6FF05A
:103E4000010179480068FFF7B8FF03E0FFF77CFF46
:103E5000BDE8F0817548006863490968884205D06B
:103E6000FFF7FAFD60480068704908607048006814
:103E7000F0B35948D0ED000AF8EEE00A6D4890ED35
:103E8000001A60EE810AB0EE600AFFF7FAF8044605
:103E90005148D0ED000AF8EEE00A674890ED001AAC
:103EA00060EE810AB0EE600AFFF7EBF805464A487B
:103EB000D0ED000AF8EEE00A604890ED001A60EEDE
:103EC000810AB0EE600AFFF7DCF806464248D0ED02
:103ED000000AF8EEE00A5A4890ED001A60EE810AF6
:103EE000B0EE600AFFF7CDF8074623462A4600E009
:103EF00002E03146FFF730F800BFA9E72DE9F041B5
:103F00002DED028B0446F0EE408A0D461646FFF773
:103F1000B3F80746B0EE680AFFF709FAB0EE408A38
:103F2000E01BFFF711FAB04203DCBDEC028BBDE8E9
:103F3000F081BC4203DAB1EE480AB0EE408A0120BB
:103F40002D490860274804602D480560234880ED0E
:103F5000008A00202D4908602A48006847F2305145
:103F6000884208D11E202D4908601B48006810B9FE
:103F70000A2019490860194890ED000AFFF753FA22
:103F800000BFFFF74DFA0028FBDC00BFCDE72DE9AD
:103F9000F0472DED048B0646F0EE409A0F46B0EE4A
:103FA000608A9046FFF768F80546B0EE690AFFF7A9
:103FB000BEF9F0EE408AB0EE489AC1464FF0000AD2
:103FC000A6F11004601BFFF7BFF90A283ADCBDEC2C
:103FD000048BBDE8F0870000BC030020E003002054
:103FE0009C030020D8030020F00300207C03002065
:103FF00098030020DC030020E8030020E4030020F5
:10400000B8030020D0030020D4030020CC030020FC
:10401000AC030020A80300200C040020C0030020F3
:10402000C4030020F8030020C8030020F40300208C
:10403000B403002008040020040400200004002031
:10404000FC030020AC4218DA3846B1EE680AFFF7EC
:1040500020FC0CE0BAF1000F09D1281B484506DC12
:104060003846B1EE490AFFF714FC4FF0010AFFF79A
:1040700003F80546A042EDDC17E03846B0EE680ACA
:10408000FFF707FC0CE0BAF1000F09D1601B4845AF
:1040900006DC3846B0EE490AFFF7FBFB4FF0010A99
:1040A000FEF7EAFF0546A042EDDB0020FFF7DFFA4E
:1040B00000BFBDEC048BBDE8F087FA4801680068DA
:1040C000401CF84A1060462907D2F748408BF74950
:1040D00009680844F54908600BE0F4480068462187
:1040E000B0FBF1F0F24908600020EE490860EF49AA
:1040F0000860F04801680068401CEE4A10604629DC
:1041000007D2E948008BEC4909680844EA4908608D
:104110000BE0E94800684621B0FBF1F0E749086090
:104120000020E4490860E4490860E5480168006847
:10413000401CE34A1060462907D2DB48808AE149E7
:1041400009680844DF4908600BE0DE480068462142
:10415000B0FBF1F0DC4908600020D9490860D9497A
:104160000860DA4801680068401CD84A1060462997
:1041700007D2CD48C08AD64909680844D4490860A6
:104180000BE0D34800684621B0FBF1F0D14908604C
:104190000020CE490860CE490860CF480168006819
:1041A000401CCD4A1060322907D2BF484089CB4914
:1041B00009680844C94908600BE0C8480068322112
:1041C000B0FBF1F0C64908600020C3490860C3494C
:1041D0000860C44801680068401CC24A1060322967
:1041E00007D2B148C088C04909680844BE49086080
:1041F0000BE0BD4800683221B0FBF1F0BB4908601C
:104200000020B8490860B8490860B94801680068EA
:10421000401CB74A1060322907D2A3488088B549AC
:1042200009680844B34908600BE0B24800683221CD
:10423000B0FBF1F0B04908600020AD490860AD491D
:104240000860AE4801680068401CAC4A106046290E
:1042500007D295480089AA4909680844A849086016
:104260000BE0A74800684621B0FBF1F0A5490860C3
:104270000020A2490860A2490860A34801680068BC
:10428000401CA14A1060462907D2874800889F49F0
:10429000096808449D4908600BE09C480068462175
:1042A000B0FBF1F09A4908600020974908609749EF
:1042B0000860984801680068401C964A10604629CA
:1042C00007D27948408894490968084492490860AF
:1042D0000BE0914800684621B0FBF1F08F4908607F
:1042E00000208C4908608C49086070478C48006841
:1042F00081490968401A03EE100AB8EEC33AF0EE9D
:10430000430A884890ED003A23EE203AF0EE432A23
:104310008348006884490968884203DA8248006853
:104320007F4908607E48006880490968884203DD4B
:104330007E4800687A490860BDEEE03A13EE100A44
:10434000002801DB014600E0414205297EDD784876
:1043500090ED003A33EE203A80ED003A90ED003ACD
:10436000DFED743AB4EEE33AF1EE10FA03DD9FEDBF
:10437000713A80ED003A6E4890ED003ADFED6E3A0A
:10438000B4EEE33AF1EE10FA03D29FED6B3A80ED12
:10439000003A6A4890ED003A6548D0ED003A23EEC5
:1043A000232A674890ED003A30EEC33A6548D0EDD5
:1043B000003A63EE231A6248C0ED000A32EE823AF8
:1043C00033EE213A604880ED003AF5EEC00AF1EE96
:1043D00010FA03D201205D49887502E000205B4994
:1043E0008875594991ED003ABDEEC33A13EE100AB3
:1043F000002801DB014600E0414203EE101AB8EE4E
:10440000C33AF0EE083A23EE230A514890ED003A01
:10441000B8EEC33AB4EEC30AF1EE10FA05DD90ED42
:10442000003AB8EEC33AB0EE430AB3EE043AB4EE43
:10443000C30AF1EE10FA03D2B3EE043AB0EE430A27
:10444000444890ED003A30EE431A00E084E0B1EECB
:10445000043AB4EEC31AF1EE10FA08DD90ED003A1A
:10446000F1EE043A33EE233AB0EE430A0FE0B9EE30
:10447000043AB4EEC31AF1EE10FA08D2354890EDC2
:10448000003AF1EE043A33EE633AB0EE430A3148B3
:1044900080ED000ABCEEC03A13EE100A2B49C87535
:1044A0006EE000005C050020BE08002060050020D2
:1044B0009800002064050020680500209C00002072
:1044C0006C05002070050020A40000207405002069
:1044D00078050020A00000207C0500208005002039
:1044E000A80000209405002098050020BC000020B2
:1044F0009C050020A0050020B8000020A405002095
:10450000A8050020B0000020BC050020C005002048
:10451000C0000020C4050020C8050020C400002001
:1045200080040020DC040020780400207C040020AB
:10453000E80400200000FA430000FAC3E004002071
:10454000EC040020E4040020F0040020040000201B
:10455000B8040020F40400209FEDFD3AFD4880EDF2
:10456000003A9FEDFB3AFC4880ED003A0220FB49FF
:10457000C875002088759FEDF63AF94880ED003A3D
:104580007047F8480068F8490968401A03EE100AB5
:10459000B8EEC33AB0EE430AF44890ED003A23EE89
:1045A000003AF0EE432AEF480068F1490968884272
:1045B00003DAEF480068EB490860EA480068ED4913
:1045C0000968884203DDEB480068E6490860BDEEF3
:1045D000C03A13EE100A002801DB014600E0414218
:1045E00005297CDDE44890ED003A33EE003A80ED99
:1045F000003A90ED003A5FED313AB4EEE33AF1EE75
:1046000010FA03DD1FED353A80ED003ADA4890EDFF
:10461000003A5FED373AB4EEE33AF1EE10FA03D226
:104620001FED3B3A80ED003AD44890ED003AD24875
:10463000D0ED003A23EE232AD14890ED003A30EE37
:10464000433AD048D0ED003A63EE231ACC4880EDCF
:10465000000A32EE823A33EE213ACB4880ED003A3E
:10466000B5EEC00AF1EE10FA03D20020BB498874FF
:1046700002E00120B9498874C34991ED003ABDEECA
:10468000C33A13EE100A002801DB014600E0414264
:1046900003EE101AB8EEC33AF0EE083A63EE230ABE
:1046A000BA4890ED003AB8EEC33AF4EEC30AF1EE20
:1046B00010FA05DD90ED003AB8EEC33AF0EE430A89
:1046C000B3EE043AF4EEC30AF1EE10FA03D2B3EEFD
:1046D000043AF0EE430AAE4890ED003A00E02BE0D9
:1046E00030EEC31AB1EE043AB4EEC31AF1EE10FA8A
:1046F00008DD90ED003AF1EE043A33EE233AF0EEA5
:10470000430A0FE0B9EE043AB4EEC31AF1EE10FA20
:1047100008D29F4890ED003AF1EE043A33EE633A46
:10472000F0EE430A9A48C0ED000ABCEEE03A13EE00
:10473000100A8A49C87413E09FED853A8E4880EDCF
:10474000003A9FED833A8E4880ED003A022083497B
:10475000C874012088749FED7E3A8D4880ED003A40
:1047600070478C4800688C490968884203DA8A4897
:104770000068884908608748006888490968884255
:1047800003DD864800688349086085490968814AD5
:104790001268881A002801DB014600E04142032923
:1047A00032DD7F4800687B490968884203DD0020CC
:1047B0006A49887602E00120684988767849096864
:1047C000744A1268881A002801DB014600E0414261
:1047D00001EBC10202EB0111724A11601046006840
:1047E00071490968884203DD6F4800681146086016
:1047F0006C480068142802DA14206A490860694885
:1048000000785649C87602E000205449C8767047BF
:104810006648006866490968884203DA64480068A7
:10482000624908606148006862490968884203DD9E
:10483000604800685D4908605F4909685B4A126822
:10484000881A002801DB014600E04142032935DDDA
:104850005948006855490968884204DD00203F49ED
:1048600081F82A0003E001203C4981F82A005249DE
:1048700009684E4A1268881A002801DB014600E0E8
:10488000414201EBC10202EB0111464A11601046A0
:1048900000684A490968884203DD484800681146B3
:1048A000086040480068142802DA14203D49086076
:1048B0003C480078294981F82B0003E00020274973
:1048C00081F82B00704710B53D4800683D490968E4
:1048D000884203DA3B480068394908603848006874
:1048E00039490968884203DD37480068344908605F
:1048F000364B1B68324C24681A1B002A01DB134616
:1049000000E05342022B22DD254B1B68304C24680B
:10491000191B002901DB0B4600E04B42142B16DA71
:10492000254B1B682B4C2468181B002801DB034611
:1049300000E04342142B7BDA2448006820490968D0
:10494000884249DD0120054981F8260048E06FE0F2
:1049500000000000E8040020EC0400200400002017
:10496000F40400208C040020BC000020F804002087
:10497000840400208804002004050020FC0400209A
:1049800008050020000500200C050020B4040020CC
:1049900010050020A40400209C040020A004002096
:1049A000C000002018050020C0040020B004002032
:1049B000A8040020AC040020C4000020C40400208F
:1049C000980400209004002094040020B0000020EF
:1049D000B4010020B80100200020FA4981F8260027
:1049E000F9490968F94A1268881A002801DB01466A
:1049F00000E0414201EB8101F54A11601046006878
:104A0000F4490968884203DDF248006811460860ED
:104A1000EF480068282802DA2820ED490860EC48B1
:104A20000078E84981F827000020EB49086006E09B
:104A30000020E44981F827000120E749086010BD03
:104A40003220E6490860E649086070476420E3497F
:104A50000860E34908607047A020E0490860E04929
:104A600008607047E620DD490860DD49086070474E
:104A700000B50246FFF7F0FFDA480260DA4802604C
:104A800000BD00B50246FFF7DBFFD6480260D648FE
:104A9000026000BD00B50246FFF7D8FFD1480260B2
:104AA000D148026000BD00B50246FFF7DBFFCD48EC
:104AB0000260CD48026000BD70B5FA20CB490860A5
:104AC000CB480068CB490860FA20CB490860CB4846
:104AD0000068CB4908600020CA49086035E006E05C
:104AE000012025F03BF8FBF7C9FF00B927E0C64BD2
:104AF0001B68C04C2468191B002901DB0B4600E031
:104B00004B42BB4C2468C14D2D68621B02EBD27432
:104B10006410A342E4DCB94B1B68BD4C24681B1B2A
:104B2000032493FBF4F4BB4B1B68B54D2D68581B55
:104B3000002801DB034600E043429C42D0DB00BF7B
:104B4000B0480068401CAF490860AE480068322891
:104B5000C5DB70BD10B5B0480068002850D1AF4823
:104B6000006800284CD1AE480068002848D1AD4804
:104B70000068002844D123E00421AB4821F0EEFD79
:104B800070B98021A94821F0E9FD48B99FEDA81A24
:104B9000DFEDA80A12209FEDA80AFEF794FE08E0B8
:104BA0009FEDA31ADFEDA30A14209FEDA40AFEF7E0
:104BB0008AFE012024F0D2FFFBF760FF00B906E077
:104BC0004FF480719E4821F0C9FD0028D4D000BF69
:104BD0009FED971ADFED970A0A209FED9A0AFEF7DC
:104BE00072FE06E0012024F0B9FFFBF747FF00B991
:104BF00005E004218C4821F0B1FD0028F2D048E105
:104C00008548006801284FD18448006800284BD1AE
:104C100083480068C8BB83480068B0BB23E0042118
:104C2000814821F09BFD70B98021804821F096FDDC
:104C300048B99FED7F1ADFED7F0A12209FED7E0AB3
:104C4000FEF741FE08E09FED7A1ADFED7A0A1420A4
:104C50009FED7A0AFEF737FE012024F07FFFFBF775
:104C60000DFF00B906E04FF48071754821F076FD24
:104C70000028D4D000BF9FED6E1ADFED6E0A0A2027
:104C80009FED700AFEF71FFE07E00DE0012024F003
:104C900065FFFBF7F3FE00B905E00421624821F04F
:104CA0005DFD0028F2D0F4E05B480068012851D196
:104CB0005A48006801284DD159480068D0BB59486E
:104CC0000068B8BB24E04FF400615D4821F046FD68
:104CD00070B90121554821F041FD48B99FED541AA2
:104CE000DFED540A12209FED580AFEF7ECFD08E0B4
:104CF0009FED4F1ADFED4F0A14209FED500AFEF78B
:104D0000E2FD012024F02AFFFBF7B8FE00B906E01F
:104D10004FF480714A4821F021FD0028D3D000BF14
:104D20009FED431ADFED430A0A209FED480AFEF784
:104D3000CAFD07E00EE0012024F010FFFBF79EFE05
:104D400000B906E04FF400613D4821F007FD00285E
:104D5000F1D09EE030480068012830D12F4800682B
:104D600001282CD12E480068012828D12D48006840
:104D700028BB6DE04FF40061314821F0EFFC70B9C1
:104D800001212A4821F0EAFC48B99FED291ADFEDFC
:104D9000290A12209FED2C0AFEF795FD08E09FEDF1
:104DA000241ADFED240A14209FED240AFEF78BFD60
:104DB000012024F0D3FEFBF761FE08B94FE068E064
:104DC00046E0000004000020B0000020980400200D
:104DD00018050020BC04002074040020B404002046
:104DE000B8040020800400208C040020C0040020AF
:104DF000B4010020A4040020C4040020B801002055
:104E0000B00400203C040020C00000209C040020CE
:104E1000A8040020C4000020680200206C020020CA
:104E200070020020740200200010024000040240C2
:104E30003333333F000061440000C8C3000061C445
:104E4000000002400000164300C0C1C40080D444EA
:104E50004FF48071F74821F081FC00288AD000BF10
:104E60001FED0D1A5FED0D0A0A201FED080AFEF76F
:104E70002AFD06E0012024F071FEFBF7FFFD00B9DA
:104E800006E04FF40061EB4821F068FC0028F1D007
:104E900000BF0020FEF7EBFB10BD2DE9F0410546F9
:104EA0000E460020E4490860C820E4490860E4494F
:104EB0000860E4480068F430E3490860E3480068AB
:104EC000F530E3490860002415E006E0012024F0F5
:104ED00045FEFBF7D3FD00B90BE0DE490968DC4A6B
:104EE0001268881A002801DB014600E0414232299D
:104EF000ECDC00BF641C322CE7DB9FEDD71A00EE20
:104F0000106AF8EEC00A102000EE105AB8EEC00A7F
:104F1000FEF7D9FC002410E006E0012024F01EFE7C
:104F2000FBF7ACFD00B906E04FF48071C14821F0F9
:104F300015FC0128F1D000BF641C962CECDB9FED22
:104F4000C61A00EE106AF8EEC00A0C2000EE105AE5
:104F5000B8EEC00AFEF7B7FC002417E006E0012017
:104F600024F0FCFDFBF78AFD00B90DE04FF48071E1
:104F7000B04821F0F3FB0128F1D04FF48051AD4847
:104F800021F0ECFB0028EAD000BF641C962CE5DB86
:104F90000020FEF76CFBFA20A8490860AB480068C7
:104FA000AB490860002415E006E0012024F0D6FD9E
:104FB000FBF764FD00B90BE0A6490968A44A126832
:104FC000881A002801DB014600E041420A29ECDC96
:104FD00000BF641C322CE7DB9FED9F1A00EE106AC5
:104FE000F8EEC00A282000EE105AB8EEC00AFEF70C
:104FF0006AFC002415E006E0012024F0AFFDFBF779
:105000003DFD00B90BE08021944821F0A7FB012869
:1050100005D10121914821F0A1FB0128ECD000BF6E
:10502000641CB4F57A7FE6DB4FF4FA7024F096FD49
:10503000322082490860854800680E308449086043
:105040009FED851A00EE106AF8EEC00A1D2000EEF2
:10505000105AB8EEC00AFEF736FC00240FE006E056
:10506000012024F07BFDFBF709FD00B905E00121DB
:105070007B4821F073FB0128F2D000BF641C40F292
:1050800026208442EBDB9FED741A00EE106AF8EEE6
:10509000C00A082000EE105AB8EEC00AFEF713FC52
:1050A000002410E006E0012024F058FDFBF7E6FCA8
:1050B00000B906E04FF40051694821F04FFB012888
:1050C000F1D000BF641CB4F57A7FEBDB0020FEF763
:1050D000CEFAFA205A4908605A480068C01D5A4959
:1050E0000860002415E006E0012024F037FDFBF7FE
:1050F000C5FC00B90BE05B490968534A1268881A7D
:10510000002801DB014600E041421929ECDC00BF28
:10511000641CFA2CE7DB9FED541A00EE106AF8EEDF
:10512000C00A122000EE105AB8EEC00AFEF7CBFB00
:10513000002416E006E0012024F010FDFBF79EFCA1
:1051400000B90CE04FF400613A4821F007FB012858
:1051500005D10421424821F001FB0128EBD000BF1A
:10516000641C40F6F6108442E4DBFDF7B6FA06E074
:10517000012024F0F3FCFBF781FC00B914E0FBF7FD
:10518000B3FC8046FBF783FC071E01DB384600E0DA
:105190007842B8F1000F01DB414601E0C8F100019F
:1051A0000844B0F5D27FE3DB00BF002410E006E046
:1051B000012024F0D3FCFBF761FC00B906E04FF4BA
:1051C0008041274821F0CAFA0128F1D000BF641CB1
:1051D00040F6F6108442EADBFFF73EFC40F209108D
:1051E000194908601A4908609FED1F1A00EE106AFD
:1051F000F8EEC00A0C2000EE105AB8EEC00AFEF716
:1052000062FB00240FE006E0012024F0A7FCFBF77E
:1052100035FC00B905E01021114821F09FFA012862
:10522000F2D000BF641C642CEDDB0020FEF71FFAF7
:10523000BDE8F0810000024084020020B404002098
:10524000B80400207804002080040020840400209A
:105250008C040020BC000020CDCC4C3F0004024058
:1052600000100240B80000206666663F10B50521B8
:105270000420FDF7A7F9F748C07F40F00200F54988
:10528000C8770020F449086011E006E0012024F00E
:1052900065FCFBF7F3FB00B903E0F0480068012868
:1052A000F4D000BFEC480068401CEB490860EA48B5
:1052B0000068FA28E9DBE748C07F00F0FD00E54917
:1052C000C8770120E54908600020E549086010BD65
:1052D0002DE9F0472DED028B81460F461646984684
:1052E0009DED0A8ADDE90B450020FEF7C0F99FED30
:1052F000DD1AF8EEC80A102000EE106AB8EEC00AF7
:10530000FEF7E1FA404624F029FC0020FEF7AFF951
:105310004FF49672DFEDD40A0021B7EE080A484632
:10532000FEF735FE0020FEF7A2F9FFF795FBCF4808
:105330000068FA30CE490860CE480068FA30CE499D
:1053400008600020C449086019E006E0012024F04C
:1053500005FCFBF793FB00B90BE0C8490968C64A96
:105360001268881A002801DB014600E041420F293B
:10537000ECDC00BFB8480068401CB7490860B6487C
:1053800000683228E1DB1FED4C1A00EE105AF8EEEF
:10539000C00A142000EE104AB8EEC00AFEF793FAD5
:1053A0000020AD49086014E006E0012024F0D6FB9F
:1053B000FBF764FB00B906E04FF48071B04821F0C0
:1053C000CDF90128F1D000BFA3480068401CA249D4
:1053D0000860A14800689628E6DB1FED611A00EE20
:1053E000105AF8EEC00A0E2000EE104AB8EEC00ABD
:1053F000FEF769FA0020984908601BE006E00120EA
:1054000024F0ACFBFBF73AFB00B90DE04FF48071E0
:105410009B4821F0A3F90128F1D04FF4805198481E
:1054200021F09CF90028EAD000BF8B480068401C9E
:1054300089490860884800689628DFDB0020FEF76D
:1054400016F987480068012801D1FFF70FFF2946A8
:105450002046FFF722FD0020FEF709F94FF496726F
:10546000DFED810A0021B7EE080A3846FEF78FFD0E
:105470000020FEF7FCF8BDEC028BBDE8F0872DE9BB
:10548000F04104460D467F48006800287ED1FFF7B2
:10549000E3FA764800680D30754908607548006881
:1054A000C01C75490860002615E006E0012024F0C4
:1054B00055FBFBF7E3FA00B90BE0704909686E4A47
:1054C0001268881A002801DB014600E041420A29DF
:1054D000ECDC00BF761C322EE7DB9FED621A00EE9B
:1054E000105AF8EEC00A142000EE104AB8EEC00AB6
:1054F000FEF7E9F9002610E006E0012024F02EFB7B
:10550000FBF7BCFA00B906E04FF480715C4821F06B
:1055100025F90028F1D000BF761CB6F57A7FEBDBC9
:105520009FED501A00EE105AF8EEC00A0B2000EE64
:10553000104AB8EEC00AFEF7C6F900261BE006E0E6
:10554000012024F00BFBFBF799FA00B911E04FF4AE
:1055500080714B4821F002F90028F1D080214A489F
:1055600021F0FCF828B90121474821F0F7F800287C
:10557000E6D000BF761CB6F57A7FE0DBFA2043491F
:1055800008603C480068F5303B4900E023E00860D3
:105590009FED3F1A00EE105AF8EEC00A232000EEED
:1055A000104AB8EEC00AFEF78EF900260FE006E0BA
:1055B000012024F0D3FAFBF761FA00B905E00121DC
:1055C000344821F0CBF80028F2D000BF761C40F21E
:1055D00026208642EBDB00202A4908609FED2C1A2A
:1055E00000EE105AF8EEC00A192000EE104AB8EE8C
:1055F000C00AFEF768F9002610E006E0012024F05A
:10560000ADFAFBF73BFA00B906E04FF40051214830
:1056100021F0A4F80028F1D000BF761C40F226202B
:105620008642EADB9FED1A1A00EE105AF8EEC00A25
:105630000B2000EE104AB8EEC00AFEF744F900262F
:105640003AE029E0012024F089FAFBF717FA00B9C3
:1056500030E021E0040000203C0400201003002082
:105660000C0300203333333FCDCC4C3E7804002074
:1056700080040020840400208C040020BC00002052
:10568000000002408402002000040240B404002014
:105690009A99993E001002404FF48041FB4821F056
:1056A0005DF80028CED04FF40051F84821F056F8AC
:1056B0000028C7D000BF761C40F2DC508642C0DB19
:1056C000FA20F3490860F3480068F530F2490860B1
:1056D0001FED111A00EE105AF8EEC00A0A2000EE73
:1056E000104AB8EEC00AFEF7EEF806E0012024F0FA
:1056F00035FAFBF7C3F900B905E01021E34821F0C2
:105700002DF80028F2D000BFFCF7E7FF06E00120EB
:1057100024F024FAFBF7B2F900B914E0FBF7E4F93E
:105720008046FBF7B4F9071E01DB384600E07842FB
:10573000B8F1000F01DB414601E0C8F10001084467
:10574000B0F5BE7FE3DB00BF0020FDF790FFBDE8B2
:10575000F0812DE9F0472DED028B81460F4614466E
:1057600098469DED0A8ADDE90B560020FDF77FFF84
:105770004FF4AF70FFF78EF90020FDF778FFB6EE1B
:10578000001AF8EEC80A102000EE104AB8EEC00A5F
:10579000FEF799F8404624F0E1F90020FDF767FF95
:1057A0004FF496725FED500A0021B7EE080A4846A2
:1057B000FEF7EDFB0020FDF75AFF40F20910FFF75E
:1057C00057F90020B549086019E006E0012024F0EF
:1057D000C5F9FBF753F900B90BE0B1490968B14AC3
:1057E0001268881A002801DB014600E041420A29BC
:1057F000ECDC00BFA9480068401CA8490860A74825
:1058000000683228E1DBB7EE001A00EE106AF8EE0D
:10581000C00A0F2000EE105AB8EEC00AFEF753F887
:1058200000209E49086014E006E0012024F096F96B
:10583000FBF724F900B906E04FF480719A4820F094
:105840008DFF0028F1D000BF94480068401C9349A8
:10585000086092480068B0F57A7FE5DB962024F076
:105860007DF90020FDF703FF90480068012801D171
:10587000FFF7FCFC31462846FFF701FE0020FDF74C
:10588000F6FE4FF496725FED880A0021B7EE080A23
:105890003846FEF77CFB0020FDF7E9FEBDEC028BED
:1058A000BDE8F08770B582480068451D81480068F2
:1058B000461D40F23520FFF7DBF87F4800680028DE
:1058C00053D17E48006800284FD17D4800680028E9
:1058D0004BD17C480068002847D1704908603DE002
:1058E00023E079480068A84209DD1FEDA21ADFED28
:1058F000770A12209FED760AFDF7E5FF0EE01FED17
:10590000A71ADFED720A0F209FED720AFDF7DBFF89
:105910007148C07F40F080006F49C877012024F0B3
:105920001DF9FBF7ABF800B912E04FF480515E4867
:1059300020F014FF0028D4D059480068594909685C
:10594000441A002C01DB204600E060421E28C8DC1F
:1059500000BF52480068401C504908604F4800682A
:1059600040F20E618842BBDB36E1534800680128F3
:1059700053D15248006800284FD151480068D8BB25
:1059800050480068C0BB0020444908603EE023E066
:105990004D480068A84209DD1FEDCE1ADFED4B0A25
:1059A00012209FED4B0AFDF78EFF0EE01FEDD31A7C
:1059B000DFED460A0F209FED470AFDF784FF4648BA
:1059C000C07F40F020004449C877012024F0C6F889
:1059D000FBF754F800B913E04FF48051324820F03F
:1059E000BDFE0028D4D02E4800682E490968441A0C
:1059F000002C02DB204601E00FE060421E28C7DCDD
:105A000000BF26480068401C2449086023480068FD
:105A100040F20E618842BADBDEE0274800680128C8
:105A200032D12648006801287ED12548006858BB3D
:105A30002448006840BB0020184908606DE053E02E
:105A400026480068B04209DD1FEDFA1ADFED1F0A93
:105A500012209FED230AFDF736FF0EE09FED211A7D
:105A6000DFED1A0A0F209FED1B0AFDF72CFF1A48E5
:105A7000C07F40F080001849C877012024F06EF8FC
:105A8000FAF7FCFF08B942E04EE02DE000100240BA
:105A9000B804002078040020800400203C0400208A
:105AA000BC0000208C040020000002400C030020F9
:105AB000A8010020B0010020680200206C02002034
:105AC0007002002074020020A00000200000614449
:105AD000008022C4000061C404000020A400002053
