:020000040800F2
:1000000048A5012091950108450200084702000813
:100010004B0200084F0200085302000800000000D5
:100020000000000000000000000000009D0100082A
:100030005702000800000000E1010008ABC50108FC
:10004000AB950108AB950108AB950108AB9501088C
:10005000AB950108AB950108AB950108AB9501087C
:10006000AB040008EF040008AB9501081B0300086F
:10007000FD0200085D030008AB9501087502000849
:10008000AB95010881020008AB950108AB9501080A
:10009000AB950108AB950108AB950108AB9501083C
:1000A000AB950108C7030008F3030008AB950108EE
:1000B000F5030008230400084F040008AB9501086D
:1000C000AB950108AB950108AB950108A7040008A2
:1000D000AB9501085D020008AB950108AB950108DE
:1000E000AB950108AB950108AB950108AB950108EC
:1000F000AB950108AB950108AB95010839030008E1
:10010000AB950108AB9501087B040008A904000821
:10011000AB950108AB95010899030008A5030008F9
:10012000AB9501089B020008CF020008AB950108BF
:10013000AB950108AB950108AB950108AB9501089B
:10014000AB950108AB950108AB950108AB9501088B
:10015000EF020008AB950108AB950108AB950108CB
:10016000AB950108AB950108AB950108AB9501086B
:10017000AB950108AB950108AB950108AB9501085B
:10018000AB950108AB950108DFF80CD01DF0C8FC59
:1001900000480047CF92010848A50120234B196869
:1001A0000868B0E8F04F80F309884FF0000080F352
:1001B000118870470000000003480068006880F361
:1001C000088862B600DF00BF08ED00E0DFF80C0031
:1001D000016841F470010160704700BF88ED00E0E4
:1001E000EFF30980114B1A681EF0100F08BF20EDC5
:1001F000108A20E9F04F106008B54FF0140080F32A
:1002000011881CF09AFD4FF0000080F31188BDE8C2
:10021000084019680868B0E8F04F1EF0100F08BFDA
:10022000B0EC108A80F30988704700BF44050020B5
:10023000EFF311804FF0140181F31188704780F3C0
:1002400011887047704700BFFEE700BFFEE700BFA0
:10025000FEE700BFFEE770477047704710B540F2F9
:100260002551A3481BF0B5FA18B12021A0481BF076
:10027000A7FA10BD10B59F499F481AF0DFF910BDCD
:1002800010B59E499C4830301AF0AEF920B19B4918
:10029000994830301AF0D2F910BD10B598499948F4
:1002A0001AF0A2F990B1964996481AF0C7F901F0F0
:1002B000CAFF0021904830381AF0ECF80821914824
:1002C0001AF009F901218F481AF0E4F810BD10B5B1
:1002D0008D498C4818301AF0B1F98C4840788B4918
:1002E000097840EA012000B28949088010BD10B5A4
:1002F0008849844860301AF0A1F910BD10B58049D2
:100300007D4848381AF070F930B17D497A4848384C
:100310001AF094F900F0B9FA10BD10B57E4976488C
:1003200060381AF061F930B17B49734860381AF0CF
:1003300085F901F088FF10BD10B578496E48483046
:100340001AF052F948B100216B4848301AF0A2F86F
:100350007249694848301AF071F910BD10B56A4900
:10036000654830381AF040F9A8B16749624830381A
:100370001AF064F901F024FD00215F4830381AF0CA
:1003800089F808215C4830381AF0A5F801215A484C
:1003900030381AF07FF810BD10B5012160481AF00E
:1003A00075FF10BD10B501215E481AF06FFF7A206D
:1003B0004F49888001215C481BF01AF901215B48F4
:1003C0001BF016F910BD10B5012159481AF05EFF57
:1003D0005748008800F0100028B156480068401EB9
:1003E0005449086004E053480068401C51490860C3
:1003F00010BD704710B5012188071AF047FF4FF074
:100400008040008800F0100028B14B480068401E72
:100410004949086004E048480068401C46490860B3
:1004200010BD10B5012145481AF030FF434800883F
:1004300000F0100028B142480068401E40490860A2
:1004400004E03F480068401C3D49086010BD10B5FD
:1004500001213C481AF01AFF3A48008800F01000C9
:1004600028B139480068401E3749086004E0364822
:100470000068401C3449086010BD10B501213348A4
:100480001AF004FF3148008800F0100028B130480D
:100490000068401E2E49086004E02D480068401C9A
:1004A0002B49086010BD7047704710B504201AF042
:1004B0005DF9D8B12021274819F0E1F90421264837
:1004C00019F0B8F9012804D1002116481AF05EFA93
:1004D00009E00421204819F0ADF920B911481AF0BB
:1004E00059FA1E49086004201D49086010BD704774
:1004F0000010014020800020706002400080202019
:1005000000880010286402400080201002080020AB
:100510008C0000200088002020800010008000282F
:10052000001000400014004000480040001401404A
:10053000000001406C00002070000020000400401A
:10054000740000200008004088000020000C0040DB
:100550007800002000000240000C024068000020EB
:10056000143C014070B5044620461CF0CFFF054600
:100570002146F9481CF0D1FFA8B140F22B122146C8
:10058000F5481CF0B7FF0021F44819F083FFF2484A
:10059000F2490C310860F148B838C0F8BC5001216C
:1005A000EE4819F077FF70BD70B50446002510E0E5
:1005B000605D68B1615DEA481BF045F800BF8021CD
:1005C000E7481BF0F0F80028F9D0681CC5B200E03D
:1005D00070BDEDE770B5044600250FE05CB1214623
:1005E000DF481BF030F800BF8021DD481BF0DBF84E
:1005F0000028F9D000E070BD681CC5B2032DEDDB0A
:1006000000BFF8E713B50C460020FFF7E3FFD5A0C5
:10061000FFF7CAFF2346D4A29621D4481DF0BEFAA4
:10062000D248FFF7C1FFD2A0FFF7BEFFCEA29621AE
:10063000CE48009B1DF0B2FACC48FFF7B5FFCEA024
:10064000FFF7B2FFFF20FFF7C5FFFF20FFF7C2FF54
:10065000FF20FFF7BFFF1CBD70B505460C46C1A0CB
:10066000FFF7A2FF2246C0A1C0481DF0AFFABF4865
:10067000FFF79AFFBEA0FFF797FF2846FFF794FF0A
:10068000BDA0FFF791FFFF20FFF7A4FF70BD77B576
:1006900085B00546FF26B6A103C9CDE90301B6A082
:1006A00000680290AFA00068019000240AE00020DA
:1006B000B2490855B2490855AC490855A6490855EC
:1006C000601CC4B21E2CF2DB0A20A8490870FF206F
:1006D00048708870C870A4A1A948079A1DF076FADE
:1006E000A74901A81CF0FAFE01A9A0481CF0F6FEDB
:1006F00003A99E481CF0F2FE29469C481CF0EEFE21
:1007000099A19F48069A1DF061FA9D4997481CF0EF
:10071000E5FE02A995481CF0E1FEFF20974908700C
:100720004870887091481CF0D9FE9048FFF71AFF76
:1007300008B070BDF7B584B005460E46FF278CA102
:1007400003C9CDE902018CA00068019085A0006872
:100750000090002408E00020884908558849085581
:1007600082490855601CC4B20A2CF4DB0A207F4978
:100770000870FF2048708870C8707BA18048069A76
:100780001DF024FA7E4968461CF0A8FE69467748A9
:100790001CF0A4FE02A975481CF0A0FE294673486F
:1007A0001CF09CFE314671481CF098FE01A96F4870
:1007B0001CF094FEFF20714908704870887000207A
:1007C000C870087169481CF089FE6848FFF7CAFEC6
:1007D00007B0F0BD01B58EB06AA2322101A80E9B10
:1007E0001DF0DCF901A8FFF7BDFE0FB000BD73B529
:1007F00084B00546FF265EA103C9CDE902015EA0D3
:100800000068019057A00068009000240AE00020D2
:100810005A4908555A490855544908554E490855EA
:10082000601CC4B21E2CF2DB0A2050490870FF2065
:1008300048708870C8704CA15148059A1DF0C6F9DF
:100840004F4968461CF04AFE694648481CF046FE7F
:1008500002A946481CF042FE294644481CF03EFED0
:10086000474942481CF03AFE01A940481CF036FEB8
:10087000FF2042490870487088703C481CF02EFEEA
:100880003A48FFF76FFE06B070BD10B52DED0C8B2A
:1008900082B03F4800783E49497808443C4989780D
:1008A00008443B49C978084439490979084438491A
:1008B000497908443649897908443549C979084451
:1008C0003349097A0844C0B201903148007A00F0F7
:1008D0000F0000909FED2F0AB0EE40DA2C48407ACE
:1008E0000199884272D12A48007A00F00F000D2841
:1008F0006CD127488078C0F17F0000EE100AB8EE76
:10090000C08A2348C078813800EE100AF8EEC08A09
:10091000B5EEC08AF1EE10FA03D1B7EE000AB0EEE0
:10092000408AF5EEC08AF1EE10FA03D1B7EE000A64
:10093000F0EE408ABDEEC80A10EE102A002A01DB54
:10094000134600E05342BDEEE80A10EE100A0028FC
:1009500022DB044621E00000BA060020B860024015
:100960000050004074000000256400008405002051
:100970002E7478743D220000220000006A060020D8
:10098000420600206A302E76616C3D25640000002E
:1009900043080020DB0F49404442191901EBD17391
:1009A0005B10FE4C2360BDEEE80A10EE101A002921
:1009B00001DB0A4600E04A42322A0FDABDEEC80ADD
:1009C00010EE100A002802DB024601E02FE042424E
:1009D000322A03DA0020F249086030E018EE900A6B
:1009E0001CF061FF41EC1B0B18EE100A1CF05BFFC2
:1009F00041EC1C0BB0EE4B1AF0EE6B1AB0EE4C0A49
:100A0000F0EE6C0A1DF090FAB0EE40AAF0EE60AA8B
:100A10009FEDE40B53EC102B51EC1A0B1CF032FE43
:100A200041EC190B1CF020FFDD49086007E09DF840
:100A300000000D2803D00021DC481AF0D9FD02B0D7
:100A4000BDEC0C8B10BDDA48007A00F00F000D28C9
:100A500006D1D748007800F0010008B10D2070479A
:100A60000020FCE7D248007800F0100008B1002018
:100A700070470120FCE71CB54FF0804019F08AFF59
:100A8000CC49096840EA01400C2190FBF1F000904C
:100A9000002418E04FF0804019F07CFFC549096838
:100AA00040EA01400C2190FBF1F00190DDE90021CA
:100AB000881A002801DB014600E04142052900DADE
:100AC000641C01980090022CE4DB019840421CBD9C
:100AD0001CB5B94819F05EFFB849096840EA014001
:100AE0000C2190FBF1F00090002417E0B24819F0BF
:100AF00051FFB249096840EA01400C2190FBF1F036
:100B00000190DDE90021881A002801DB014600E0A0
:100B10004142052900DA641C01980090022CE5DBB3
:100B200001981CBD1CB5A64819F034FFA5490968F9
:100B300040EA01400C2190FBF1F00090002417E006
:100B40009F4819F027FF9F49096840EA01400C219E
:100B500090FBF1F00190DDE90021881A002801DB0B
:100B6000014600E04142052900DA641C019800902A
:100B7000022CE5DB01981CBD1CB5934819F00AFF57
:100B80009249096840EA01400C2190FBF1F0009085
:100B9000002417E08C4819F0FDFE8C49096840EAF2
:100BA00001400C2190FBF1F00190DDE90021881A51
:100BB000002801DB014600E04142052900DA641CFF
:100BC00001980090022CE5DB01981CBD01B581B0B5
:100BD00000200090019800EBC0004000009002E06F
:100BE0000098401E009000980028F9D10CBD01B576
:100BF00081B00020009044F2506101984843009079
:100C000002E00098401E009000980028F9D10CBD29
:100C10001CB501211F2018F0F1FF4FF6FF70009066
:100C200001208DF8040000208DF8060001208DF8C9
:100C3000070003208DF805006946654818F098FD07
:100C40004FF6FF70009001208DF8040000208DF811
:100C5000060001208DF8070003208DF80500694685
:100C60005C4818F085FD4FF6FF70009001208DF86C
:100C7000040000208DF8060001208DF807000320F5
:100C80008DF805006946544818F072FD1CBD1CB56E
:100C900001217E2018F0B2FF4FF4CE5000900020CA
:100CA0008DF8040001208DF8070002208DF8050062
:100CB00069464A4818F05CFD4FF6C7400090002096
:100CC0008DF8040001208DF8070002208DF8050042
:100CD00069463F4818F04CFD0420009000208DF834
:100CE000040001208DF8070002208DF805006946F8
:100CF000384818F03DFD4CF60340009000208DF878
:100D0000040001208DF8070002208DF805006946D7
:100D1000314818F02DFD4FF42060009000208DF830
:100D2000040001208DF8070002208DF805006946B7
:100D30002B4818F01DFD1CBD1FB54FF4E06018F0E6
:100D400039FC36208DF8000000208DF801008DF868
:100D5000020001208DF80300684618F030FC0121E4
:100D6000102018F07EFF3220ADF8040040F2E7308A
:100D700002900020ADF80C00ADF8060001A919485A
:100D800019F0BBFD012117481AF080FA0122114623
:100D900014481AF053FA0021124825E0CC00002034
:100DA000C800002000000080A9E781400048004002
:100DB0004308002070000020000400407400002060
:100DC0000008004088000020000C0040780000204F
:100DD0000004024000080240000C024000000240F3
:100DE000001002400010004019F0D0FD0121FE4823
:100DF00019F00CFE1FBD1FB54FF4E06018F0DAFBD0
:100E000037208DF8000000208DF801008DF80200D9
:100E100001208DF80300684618F0D1FB0121202045
:100E200018F01FFF3220ADF8040040F2E7300290C6
:100E30000020ADF80C00ADF8060001A9EB4819F050
:100E40005CFD0121E9481AF021FA01221146E74828
:100E50001AF0F4F90021E54819F098FD0121E34862
:100E600019F0D4FD1FBD00B58BB00121022018F090
:100E700009FF01210C2018F0C1FE03220621DC48E5
:100E800018F001FD03220721D94818F0FCFC0322C9
:100E90000821D74818F0F7FC03220921D44818F09C
:100EA000F2FC4FF47070069002208DF81C000320B5
:100EB0008DF81D0000208DF81E0001208DF81F0008
:100EC00006A9CB4818F054FCA420ADF8200040F649
:100ED000B83009904FF48070ADF828000020ADF8CC
:100EE000220008A9C34819F008FD6020ADF80400ED
:100EF0000120ADF8060000200390ADF8100001219C
:100F0000BC4819F083FD0021BA4819F03FFD01A942
:100F1000B84819F087FD01A9B64819F0BCFD01A930
:100F2000B44819F005FE01A9B24819F067FE012185
:100F3000B0481AF05CF90BB000BD00B58BB00121D0
:100F4000082018F08EFE0121084618F057FE0222F4
:100F50000021A94818F097FC02220121A64818F0A8
:100F600092FC02221146A44818F08DFC02220321B3
:100F7000A14818F088FC0F20069002208DF81C0074
:100F800003208DF81D0000208DF81E0001208DF833
:100F90001F0006A9984818F0EBFBBA20ADF8200016
:100FA00042F2107009900020ADF82800ADF8220040
:100FB00008A9924819F0A1FC6020ADF804000120B6
:100FC000ADF8060000200390ADF8100001218B4819
:100FD00019F01CFD0021894819F0D8FC01A98748A7
:100FE00019F020FD01A9854819F055FD01A9834894
:100FF00019F09EFD01A9814819F000FE01217F48EA
:101000001AF0F5F80BB000BD00B58BB0012104203B
:1010100018F027FE01210D2018F0F0FD02220C210E
:10102000774818F030FC02220D21754818F02BFC8F
:1010300002220E21724818F026FC02220F2170486D
:1010400018F021FC4FF47040069002208DF81C002F
:1010500003208DF81D0000208DF81E0001208DF862
:101060001F0006A9664818F083FBA420ADF82000F5
:1010700040F6B83009904FF48070ADF82800002099
:10108000ADF8220008A95F4819F037FC6020ADF8E0
:1010900004000120ADF8060000200390ADF8100018
:1010A0000121584819F0B2FC0021564819F06EFC95
:1010B00001A9544819F0B6FC01A9524819F0EBFCFB
:1010C00001A9504819F034FD01A94E4819F096FDC8
:1010D0000BB000BD00B589B00121080418F0D2FDA5
:1010E0000121084618F08AFD03221146424818F0F3
:1010F000CAFB03220221404818F0C5FB0C200190D6
:1011000002208DF8080003208DF8090000208DF8DA
:101110000A0001208DF80B0001A9374818F028FBC0
:101120000020ADF818004FF6FF7007900020ADF8D2
:101130002000ADF81A0006A9334819F0DEFB0420A0
:10114000ADF80C000020ADF80E00C820ADF814007A
:101150000120ADF8100003A92B4819F0A5FF0023CA
:101160001A46032129481AF03CF9012127481AF0B0
:101170008DF80122114625481AF060F80121224815
:1011800019F044FC0021214819F000FC09B000BD11
:1011900000B589B00121084618F063FD0121022045
:1011A00018F05FFD0121032018F028FD01220F2116
:1011B000114818F068FB01220321154818F063FB61
:1011C00002220421124818F05EFB02220521104879
:1011D00018F059FB3820019002208DF808000320F8
:1011E0008DF80900002015E00010004000140040B8
:1011F000000802400004014000000240000C0040D2
:10120000000C024000080040000001400040014086
:10121000000402408DF80A0001208DF80B0001A99E
:10122000FE4818F0A5FA4FF40040019002208DF816
:10123000080003208DF8090000208DF80A00012025
:101240008DF80B0001A9F64818F092FA0020ADF8CD
:1012500018004FF6FF7007900020ADF82000ADF8A1
:101260001A0006A94FF0804019F047FB06A9ED4887
:1012700019F043FB0420ADF80C000220ADF80E007D
:101280001420ADF814000120ADF8100003A9800768
:1012900019F00AFF03A9E34819F006FF02231A46D2
:1012A000032158071AF09DF802231A460321DD484E
:1012B0001AF097F80121880719F0E8FF0121D948B1
:1012C00019F0E4FF01221146900719F0B7FF01223F
:1012D0001146D44819F0B2FF0121880719F096FB96
:1012E0000121D04819F092FB00214FF0804019F005
:1012F0004DFB0021CB4819F049FB4FF4C06018F0BA
:1013000059F91D208DF8000003208DF80100002000
:101310008DF8020001208DF80300684618F04FF99F
:101320001C208DF8000004208DF8010000208DF8AD
:10133000020001208DF80300684618F040F909B05A
:1013400000BD00B589B00121084618F09BFC0121C1
:10135000102018F053FC4FF42060019002208DF80B
:10136000080003208DF8090000208DF80A000120F4
:101370008DF80B0001A9AC4818F0FAF901220921F7
:10138000A94818F080FA01220B21A74818F07BFA2F
:101390000020ADF818004FF6FF7007900020ADF860
:1013A0002000ADF81A0006A9A04819F0A6FA0420FA
:1013B000ADF80C000020ADF80E000A20ADF81400C6
:1013C0000120ADF8100003A9984819F06DFE002324
:1013D0001A46032195481AF004F80121934819F0A0
:1013E00055FF01221146914819F028FF01218F482D
:1013F00019F04CFF012211468C4819F01FFF012102
:101400008A4819F003FB0021884819F0BFFA4FF40D
:10141000C06018F0CFF819208DF8000001208DF879
:10142000010000208DF8020001208DF803006846BD
:1014300018F0C5F809B000BD00B589B0012104203D
:1014400018F00FFC0121082018F0D8FB4FF4405091
:10145000019002208DF8080003208DF8090000207B
:101460008DF80A0001208DF80B0001A9704818F0D2
:101470007FF90020ADF818004FF6FF7007900020AC
:10148000ADF82000ADF81A0006A96A4819F035FA3F
:1014900002220C21664818F0F6F902220D21644858
:1014A00018F0F1F90420ADF80C000220ADF80E00A0
:1014B000C820ADF814000120ADF8100003A95D4864
:1014C00019F0F2FD02231A4603215A4819F089FF48
:1014D0000121584819F0DAFE01221146554819F049
:1014E000ADFE0121534819F091FA0021514819F03D
:1014F0004DFA00204F491431088001204D490880E1
:101500004FF4C06018F056F81E208DF8000004203B
:101510008DF8010000208DF8020001208DF80300F5
:10152000684618F04CF809B000BD00B589B001213B
:10153000082018F096FB0121084618F05FFB0320F5
:10154000019002208DF8080003208DF8090000208A
:101550008DF80A0001208DF80B0001A9304818F021
:1015600007F90020ADF818004FF6FF700790002033
:10157000ADF82000ADF81A0006A92F4819F0BDF902
:1015800002220021264818F07EF902220121244877
:1015900018F079F90420ADF80C000220ADF80E0027
:1015A000C820ADF814000120ADF8100003A92248AE
:1015B00019F07AFD02231A4603211F4819F011FF82
:1015C00001211D4819F062FE012211461A4819F046
:1015D00035FE0121184819F019FA0021164819F0B2
:1015E000D5F90020144914310880012012490880DF
:1015F0004FF4C06017F0DEFF32208DF800000420A9
:101600008DF8010000208DF8020001208DF8030004
:10161000684617F0D4FF09B000BD00000004024086
:1016200000000240000400400010024000000140A1
:10163000000C024000080040000C004000B59BB0C8
:101640000121FE4818F0DAFA0121080218F01AFB0D
:1016500000200290FA480390FA4804900020059078
:101660000E200690002007904FF480600890400004
:10167000099080000A9040110B9040020C900020CD
:101680000D9001200E9000200F90109002A9EE48BE
:1016900018F0C6FE0121EC4818F0FCFEFC2000907A
:1016A00003208DF8040000208DF807006946E74804
:1016B00018F05EF84FF44070009003208DF804009D
:1016C00000208DF807006946E14818F051F83F20E6
:1016D000009003208DF8040000208DF80700694673
:1016E000DC4818F045F8002011904FF4403012907B
:1016F00000201390149011A818F0F8FB4FF08070A0
:10170000159001208DF858008DF859000020179091
:10171000189019900E208DF8680015A9C8484C380B
:1017200018F0B5FB072301220221C5484C3818F0F8
:1017300034FC072302220321C1484C3818F02DFC49
:10174000072303220421BE484C3818F026FC072347
:1017500004220521BA484C3818F01FFC0723052243
:101760000621B7484C3818F018FC07230622194602
:10177000B3484C3818F011FC07231A460821B0482A
:101780004C3818F00AFC072308220921AC484C38D1
:1017900018F003FC072309220A21A9484C3818F045
:1017A000FCFB07230A220B21A5484C3818F0F5FB57
:1017B00007230B220C21A2484C3818F0EEFB07231C
:1017C0000C220D219E484C3818F0E7FB07230D2210
:1017D0000E219B484C3818F0E0FB07230E220F2106
:1017E00097484C3818F0D9FB012195484C3818F02F
:1017F0007FFC012192484C3818F06FFC0121904881
:101800004C3818F08AFB8E484C3818F022FC1BB07C
:1018100000BD08B54FF4E06017F0CCFE25208DF830
:10182000000000208DF801008DF8020001208DF8E5
:101830000300684617F0C3FE08BD10B596B0044615
:101840000121102018F01EFA0121084618F0D6F9DF
:101850000121880518F0D2F94FF4C06000900220F1
:101860008DF8040000208DF806008DF80700022096
:101870008DF805006946754817F07AFF072209219F
:10188000724818F000F807220A21704817F0FBFF91
:1018900002940020ADF80C00ADF80E00ADF8100079
:1018A000ADF814000C20ADF8120002A96A4819F036
:1018B00017FE0121684819F09BFE4FF4A06017F055
:1018C00079FE3A208DF8180000208DF819008DF867
:1018D0001A0001208DF81B0006A817F070FE5A4868
:1018E000303018F0FBFC4FF00060079000200A90A9
:1018F0005A4809900A200B905748001D0890002074
:101900000C904FF480600D9000200E900F904FF4DB
:1019100080701090400211900420129003201390C8
:1019200000201490159007A94748303018F078FD32
:1019300001224021484819F008FF012210214248A5
:10194000303018F034FE01213F48303018F0A2FD4D
:1019500016B010BD10B596B004460121480518F028
:101960004DF90121480418F07CF90121082018F0F4
:1019700045F96020009002208DF8040000208DF8C9
:1019800006008DF8070002208DF8050069463448EE
:1019900017F0EEFE07220521314817F074FF0722E9
:1019A00006212F4817F06FFF02940020ADF80C00BD
:1019B000ADF80E00ADF81000ADF814000C20ADF835
:1019C000120002A9274819F08BFD0121254819F0C2
:1019D0000FFE4FF4A06017F0EDFD11208DF81800F8
:1019E00000208DF819008DF81A0001208DF81B00D9
:1019F00006A817F0E4FD1C4818F070FC4FF00060DA
:101A0000079040200A901948099050200B901548E3
:101A1000001D089000200C904FF480600D90002075
:101A20000E900F904FF4807010904002119004209F
:101A30001290032013900020149019E0070040003A
:101A40004C200140E60700201064024000000240E4
:101A5000000402400008024000100140020800207B
:101A6000000C024000440040A0600240040000203E
:101A7000159007A9F94818F0D3FC01228021F848F5
:101A800019F063FE01228021F54819F05EFE012263
:101A90001021F24818F08BFD0121F04818F0FAFCF3
:101AA00016B010BD10B596B004460121880418F098
:101AB000D8F80121082018F0A1F80121480518F0F4
:101AC0009DF84FF44070009002208DF80400002033
:101AD0008DF806008DF8070002208DF80500694694
:101AE000E04817F045FE07220821DE4817F0CBFE3C
:101AF00007220921DB4817F0C6FE02940020ADF84A
:101B00000C00ADF80E00ADF81000ADF814000C207C
:101B1000ADF8120002A9D44819F0E2FC0121D24824
:101B200019F066FD4FF4A06017F044FD0C208DF80D
:101B3000180000208DF819008DF81A0001208DF88A
:101B40001B0006A817F03BFDC448783818F0C6FB08
:101B50004FF00060079000200A90C44809900A20C6
:101B60000B90C148001D089000200C904FF480603D
:101B70000D9000200E900F904FF480701090400256
:101B800011900420129003201390002014901590BF
:101B900007A9B248783818F043FC01224021B24826
:101BA00019F0D3FD01224021AF4819F0CEFD0122EA
:101BB0001021AA48783818F0FAFC0121A748783893
:101BC00018F068FC16B010BD10B596B0044601219F
:101BD000C80418F046F80121042018F00FF801217C
:101BE000480518F00BF84FF44060009002208DF883
:101BF000040000208DF806008DF8070002208DF803
:101C0000050069469A4817F0B3FD08220A21984852
:101C100017F039FE08220B21954817F034FE029484
:101C20000020ADF80C00ADF80E00ADF81000ADF8D6
:101C300014000C20ADF8120002A98E4819F050FCD7
:101C400001218C4819F0D4FC4FF4A06017F0B2FCCD
:101C50000D208DF8180003208DF8190001208DF853
:101C60001A008DF81B0006A817F0A9FC7B48603805
:101C700018F034FB4FF00060079000200A907E4877
:101C8000099008200B907B48001D089000200C90C4
:101C90004FF480600D9000200E900F9010904FF444
:101CA0000030119000201290032013900020149017
:101CB000159007A96948603818F0B2FB012240214D
:101CC0006C4819F042FD012280216A4819F03DFD5F
:101CD000012210216148603818F069FC01215F4839
:101CE000603818F0D7FB16B010BD70B5634C24688F
:101CF000642C00DB70BD624C248804EB8404614DCD
:101D00002C4460705E4C248804EB84042C44A17045
:101D10005B4C248804EB84042C44E270584C2488E7
:101D200004EB84042C442371554C2488641C6425E2
:101D300094FBF5F605FB1644514D2C804F4C24685E
:101D4000641C4E4D2C6000BFD4E701464B48006830
:101D500008B9002070474C48008800EB8000494AD1
:101D6000104402680A60007908710120F2E7014618
:101D70004248006808B9002070474348008800EBDB
:101D80008000404A104402680A60007908713E48A9
:101D90000088401C642290FBF2F302FB13003A4AD5
:101DA000108036480068401E344A10600120E3E786
:101DB0000CB56846FFF7DBFF0020344908700CBD06
:101DC00010B52D4800782C49497808442A4989786B
:101DD00008442949C978084427490979084426490B
:101DE00049790844C4B224480078022800D010BDC4
:101DF0002148C079032800D0F9E71F488079A04224
:101E000072D11D484078224908701B4880782149CA
:101E100008701948C07820490870174800791F4990
:101E20000870154840791E49087019480078012843
:101E300008D118480078022804D1084600781949CA
:101E4000086093E01248007802282FD111480078EA
:101E500001282BD100201449086087E0A0600240CF
:101E600000440040000C02400048004043080020AD
:101E700000080240004C00403702002054020020BD
:101E800058020020520800205A0200205D02002063
:101E90003F020020400200204102002042020020B8
:101EA000430200206002002064020020FE48007807
:101EB00002280AD1FD4800780A2806D1FC4800789B
:101EC000012802D1FB49086050E0F7480078022859
:101ED0000BD1F64800780A2807D1F5480078022887
:101EE00003D1F449086041E037E0EF480078022868
:101EF0000ED1EE48007802280AD1EF480378EF4867
:101F00000278EB480178E9480078FFF7EEFE2DE013
:101F1000E5480078022808D1E4480078032804D175
:101F2000E5480078E649086020E0DF4800780228AC
:101F30001CD1DE480078042818D1DD480078E1493A
:101F40000860DE480078E0490860DB480078DF4937
:101F500008600120DE49086008E0FF20D3490870CE
:101F6000D3490870D5490870D349087000BF3EE7CF
:101F700010B596B004460121480517F03FFE012137
:101F8000080517F06EFE01210C2017F037FE042023
:101F9000009002208DF8040000208DF806008DF8D6
:101FA000070002208DF805006946CA4817F0E0FBDB
:101FB0004FF48050009002208DF8040000208DF82E
:101FC00006008DF8070002208DF805006946C2481A
:101FD00017F0CEFB08220221BE4817F054FC08225D
:101FE0000C21BD4817F04FFC4FF4A06017F0E2FA47
:101FF0002F208DF8180005208DF819008DF81A0093
:1020000001208DF81B0006A817F0D9FA0B208DF8D7
:10201000180005208DF819008DF81A0001208DF8A0
:102020001B0006A817F0CBFA02940020ADF80C00B4
:10203000ADF80E00ADF81000ADF814000C20ADF8AE
:10204000120002A9A54819F04BFA0121A34819F082
:10205000CFFAA34818F042F94FF0006007904020F3
:102060000A90A04809900A200B909C48001D0890F7
:1020700000200C904FF480600D9000200E900F9087
:1020800010904FF400301190002012900320139014
:1020900000201490159007A9914818F0C1F99048B4
:1020A000A83818F01BF94FF00060079000200A9044
:1020B0008D48099005200B908848001D089000204D
:1020C0000C904FF480600D9000200E900F901090B7
:1020D0004FF4003011900020129003201390002044
:1020E0001490159007A97E48A83818F099F9012294
:1020F00080217A4819F029FB01224021774819F004
:1021000024FB01221021764818F051FA01221021F7
:102110007348A83818F04BFA0121714818F0BAF941
:1021200001216F48A83818F0B5F916B010BD10B5E8
:1021300096B004460121202017F0A4FD01210420BF
:1021400017F05CFD0121880517F058FDC0200090B4
:1021500002208DF8040000208DF806008DF807009D
:1021600002208DF8050069465B4817F001FB082244
:102170000621594817F087FB08220721564817F017
:1021800082FB02940020ADF80C00ADF80E00ADF813
:102190001000ADF814000C20ADF8120002A953484D
:1021A00019F09EF90121514819F022FA4FF4A0606C
:1021B00017F000FA39208DF8180003208DF8190067
:1021C00001208DF81A008DF81B0006A817F0F7F90A
:1021D000474818F083F84FF02060079000200A90DD
:1021E0004448099008200B904048001D08900020AA
:1021F0000C904FF480600D9000200E900F90109086
:102200004FF4003011900020129003201390002012
:102210001490159007A9364818F002F901224021C0
:10222000324819F092FA01228021304819F08DFAD3
:10223000012210212E4818F0BAF901212C4818F07B
:1022400029F916B010BD2B4909782A4A5278114451
:10225000284A92781144274AD2781144254A1279A3
:102260001144244A52791144C8B2224909780229FA
:1022700000D070471F49C979032900D0F9E71D49EB
:102280008979814249D11B4949781B4A1170194902
:1022900089781A4A11701749C978194A1170154975
:1022A0000979184A11702FE03F02002040020020F7
:1022B0004102002078020020430200204202002058
:1022C000680200206C0200207002002074020020CE
:1022D0007C020020000C0240000802400050004038
:1022E000B8600240BA060020460A002000140140EF
:1022F0002864024080020020880200208902002019
:102300008A0200208B020020FE494979FE4A1170A2
:10231000FE490978FE4A117006E0FF21FD4A11705E
:10232000FA4A1170F84A117000BFA2E700B585B0F3
:102330000121082017F062FC0121880317F0A2FC9C
:1023400000208DF8100001208DF813000C20039060
:1023500003A9F14817F00CFA0221032019F08EFAB4
:102360000420009000208DF8040010208DF8050056
:1023700001208DF80600684618F092F908208DF8C3
:10238000080000208DF809008DF80A0001208DF862
:102390000B0002A817F013F905B000BD70B5044694
:1023A0000D46012C0BD12946DC4819F04CF900BF31
:1023B0004021DA4819F0F7F90028F9D036E0032C6B
:1023C0000BD12946D64819F03EF900BF4021D44828
:1023D00019F0E9F90028F9D028E0042C0BD129469E
:1023E000D04819F030F900BF4021CE4819F0DBF990
:1023F0000028F9D01AE0052C0BD12946CA4819F05B
:1024000022F900BF4021C84819F0CDF90028F9D0C1
:102410000CE0062C0AD12946C44819F014F900BF73
:102420004021C24819F0BFF90028F9D070BD2DE94C
:10243000F04702240125022600274FF000084FF044
:1024400003096019304438444044B94909780844C4
:1024500000F0FF0A21460420FFF7A0FF29460420D0
:10246000FFF79CFF31460420FFF798FF3946042010
:10247000FFF794FF41460420FFF790FFAC48017836
:102480000420FFF78BFF51460420FFF787FF4946E2
:102490000420FFF783FFBDE8F0870020A5494862CC
:1024A000A5490860A5490860A54908607047002053
:1024B000A0494862A04908604FF080414862A149A4
:1024C0000860A1490860A14908609C4908609C49CE
:1024D00008609F4908609F490860704700204FF0DE
:1024E000804148629749086070470020964908601B
:1024F00096490860704710B500209749087000247D
:1025000007E061210120FFF749FF3220FEF76FFB52
:10251000641C022CF5D301208F4908707A208F4962
:10252000087010BD10B500208D490870002407E028
:1025300061210320FFF732FF3220FEF758FB641CB5
:10254000022CF5D30120864908707A20854908704D
:1025500010BD2DE9F14FAEB083A02D9000202C903E
:102560008DF888008DF860002E98182834D2DFE8A6
:1025700000F00C343D444B525960676E7580878E75
:10258000959CA3C7C6C5C4C3C2C102217F4817F02A
:1025900051F988B100224FF400417D4817F068F9E5
:1025A0004FF400417A4817F052F9044600222146C0
:1025B00078A0FEF76CF80FE00122D103744817F001
:1025C00057F94FF40041724817F041F904460022D0
:1025D000214678A0FEF75BF896E201227D48B0F92B
:1025E000000041427CA0FEF752F88DE202227C48B6
:1025F00001687CA0FEF74BF886E203227C48016864
:102600007CA0FEF744F87FE204227F4801687FA0A7
:10261000FEF73DF878E205227F4801687FA0FEF7CB
:1026200036F871E206228148016881A0FEF72FF892
:102630006AE207228148016881A0FEF728F863E278
:1026400008228348016883A0FEF721F85CE2092292
:102650008448016884A0FEF71AF855E201212E484B
:1026600017F0E8F804460A22214683A0FEF70FF887
:102670004AE20B228248016882A0FEF708F843E292
:102680000C228448016884A0FEF701F83CE28748E8
:10269000018A0D2286A0FDF7FAFF35E20E22884856
:1026A000016888A0FDF7F3FF2EE2804841890F22E0
:1026B00088A0FDF7ECFF27E201218A4817F0BAF85D
:1026C0004FF400511790324817F0B4F80446022135
:1026D000844817F0AFF805464FF480412C4817F0B6
:1026E000A9F8064604217F4817F0A4F84FF40041EA
:1026F0001690F9E0FCE1F4E1E7E1DFE1D7E1CFE1B9
:102700004FE10000800200208C0200208B0200209C
:102710008D0200208A020020000C024000100140BF
:1027200000480040004C00400050004000140140B0
:1027300060020020000001406C00002024080040DE
:102740008800002070000020240400407400002055
:10275000240C004078000020910000209000002010
:10276000930000209200002031313131313131317C
:10277000313131313131313131313131313130314A
:10278000313131313131313100000000000402407B
:1027900000080240524F424F5420322044414E47DD
:1027A00020434841592053414E2058414E483A2039
:1027B00020200000524F424F5420322044414E47C7
:1027C00020434841592053414E20444F3A20202075
:1027D000000000008C000020494D553A0000000028
:1027E000A40000204C617A65722070686169000065
:1027F000B800002054726F206368616E20547275B7
:102800006F633A2000000000A00000204C617A6550
:102810007220747261692000BC00002054726F2025
:102820006368616E205361753A2020009800002093
:102830004C617A657220736175200000C000002031
:1028400054726F2064617920746179203120000016
:102850009C0000204C617A6572207472756F632051
:1028600000000000C400002054726F2064617920D1
:10287000746179203220000053746172742000006A
:10288000B000002054726F20786F617920746179F4
:1028900020000000780200206D6F64655F6368614E
:1028A000795F72756E673A2000000000E60700202D
:1028B0005175616E672074726F2032200000000035
:1028C0007C0200206D6F6465206E68617420686F03
:1028D000702000005175616E675F74726F203A203E
:1028E0000000000000100240F84816F0A3FF074661
:1028F0000821F64816F09EFF80464FF48041F348C9
:1029000016F098FF81461021F04816F093FF4FF41F
:1029100000511590ED4816F08DFF82460821EC48D5
:1029200016F088FF4FF480511490E84816F082FFAB
:1029300010211390E64816F07DFF4FF4806112904D
:10294000E24816F077FF83468021E04816F072FFD8
:102950004FF480711190DD4816F06CFF10901798BD
:10296000CDE90B65CDE90D401698CDE90798CDE985
:102970000970DDE913121598CDE9042A0391069038
:10298000DDE91110CDE9001B0290D2A2282122A876
:10299000109B1BF003F9102222A9D7A0FDF7CAFE55
:1029A000B2E08021D54816F045FF04460121D34806
:1029B00016F040FF05464021D04816F03BFF064682
:1029C0004FF40041C24816F035FF07464FF48051DE
:1029D000CB4816F02FFF80464FF48061C74816F0B1
:1029E00029FF81464FF40061C54816F023FF4FF4DC
:1029F00000611790C14816F01DFF82464FF48061B8
:102A0000B34816F017FF83464FF48051BB4816F0C9
:102A100011FF4FF400611690AD4816F00BFF4FF414
:102A200000511590B54816F005FF4FF48041149001
:102A3000A74816F0FFFE4FF480411390AF4816F000
:102A4000F9FE4FF480711290AD4816F0F3FE4FF48A
:102A500000411190A94816F0EDFECDE90B76CDE9C5
:102A60000D5410901798CDE907A0CDE90998DDE93C
:102A700015211498CDE9051BCDE90302DDE91112FA
:102A80001398CDE90012029092A2282122A8109B4F
:102A90001BF084F8112222A99AA0FDF74BFE33E027
:102AA00012229A4801689AA0FDF7F1FD2CE013224A
:102AB0009C4801689CA0FDF7EAFD25E014229D4892
:102AC00001689DA0FDF7E3FD1EE04FF400617F4823
:102AD00016F0B0FE0446152221469BA0FDF7D7FD57
:102AE00012E016229C4801789CA0FDF7D0FD0BE077
:102AF0004FF40071754816F09DFE044617222146DA
:102B00009AA0FDF7C4FD00BF00BF2FB0BDE8F08F55
:102B100010B50121994817F0BDFC10BD01B59848CA
:102B200000680099884203DD00209549086004E0B0
:102B300093480068401C9249086091480068FFF77C
:102B400008FD08BD01B59DF80000052801DA002048
:102B500008BD9DF80000FBE730B504461D4624B9CA
:102B600088480078884BD87011E0002C07DDE0B26F
:102B7000FFF7E8FF844BD8700020987007E06342AD
:102B8000D8B2FFF7DFFF804BD8700120987021B9D1
:102B90007C4800787C4BD87111E0002907DDC8B271
:102BA000FFF7D0FF784BD8710120987107E04B42B6
:102BB000D8B2FFF7C7FF744BD8710020987122B9C3
:102BC00070480078704BD87211E0002A07DDD0B24F
:102BD000FFF7B8FF6C4BD8720120987207E05342A0
:102BE000D8B2FFF7AFFF684BD8720020987225B9B2
:102BF00064480078644BD87311E0002D07DDE8B21B
:102C0000FFF7A0FF604BD8730120987307E06B4279
:102C1000D8B2FFF797FF5C4BD8730020987330BD94
:102C2000594AD070D071D072D07370475648C0786E
:102C300003280DDA5448C079032809DA5248C07ACB
:102C4000032805DA5048C07B032801DA01207047C9
:102C50000020FCE701204D49086070474C4800689F
:102C600047F23051884201D0012070470020FCE734
:102C700010B5FFF740FC10BD4648B0F900004042D7
:102C80007047B5EEC00AF1EE10FA09D24248D0ED15
:102C9000000A70EE600AFDEEE00A10EE900A70473E
:102CA0003D48D0ED000A70EE200AFDEEE00A10EE7D
:102CB000900AF4E710B52DED0A8B044624B99FED78
:102CC000370ABDEC0A8B10BD6AE00000001002401C
:102CD000000C024025642564256425642564256470
:102CE000256425642564256425642564256425649C
:102CF0002564256400000000493A000000040240F9
:102D000000000240696E323A0000000054020020C8
:102D1000636F756E745F646174615F756172743442
:102D20002000000060020020626C6F636B5F7068BF
:102D3000613A2000B40200206E6861795F64656EBC
:102D40005F6C616E5F31200043425F4E616E675F72
:102D50007472616920000000C0020020726F626F0F
:102D6000745F706F736974696F6E000043425F4EE9
:102D7000616E675F7068616900000000A0600240DA
:102D80008400002008030020040000206C030020C1
:102D9000300300208C000020C8020020000000004A
:102DA000002C27DAF64800681AF04DFD41EC190BAB
:102DB00020461AF048FD41EC1C0B9FEDF20B53EC42
:102DC000102B1AF05FFC41EC1B0B9FEDF00B53EC4A
:102DD000102B1AF051FC41EC1A0B53EC192B1AF082
:102DE000C3FC41EC180B1AF089FD00EE100ABDEC93
:102DF0000A8B10BDE24800681AF025FD41EC190B62
:102E000020461AF020FD41EC1C0B9FEDDE0B53EC2D
:102E1000102B1AF037FC41EC1B0B9FEDDC0B53EC35
:102E2000102B1AF088FB41EC1A0B53EC192B1AF0FB
:102E30009BFC41EC180B1AF061FD00EE100AD6E77E
:102E4000F0EE400AF5EEC00AF1EE10FA02DBB0EE49
:102E5000600A7047B1EE600AFBE70146002901DB1A
:102E6000084670474842FCE70146CA48D0ED000AD0
:102E7000F1EE600AC848D0ED001A80EEA11A00EE0B
:102E8000901AF8EEE01AC348D0ED000A41EE210A8C
:102E9000B0EE600AFDEEC00A10EE900A7047B0EE88
:102EA000402ADFEDBE2AB0EE620AB5EEC02AF1EE8E
:102EB00010FA03D2F1EE422AB0EE622AF5EEC00A11
:102EC000F1EE10FA03D2F1EE602AF0EE620AB5EEEE
:102ED000C01AF1EE10FA03D2F1EE412AB0EE621AF6
:102EE000F5EEC01AF1EE10FA03D2F1EE612AF0EE1F
:102EF000621AB4EEC02AF1EE10FA01DDB0EE420A19
:102F0000F4EEC00AF1EE10FA01DDB0EE600AB4EEA4
:102F1000C01AF1EE10FA01DDB0EE410AF4EEC01A6B
:102F2000F1EE10FA01DDB0EE610A704794480068D6
:102F300070479B480068704710B52DED028BB0EECE
:102F4000408A9848006847F2305188420ED11FED00
:102F50006D0A954880ED000A944880ED000A944877
:102F600080ED000A934880ED000A4AE0924800682C
:102F700092490968401A8B490968081A00EE100A3C
:102F8000B8EEC00AF0EE408A8D48D0ED000A88EE17
:102F9000A00A8C48D0ED000A30EE200A8A48D0ED15
:102FA000000A20EE200AF0EE408AB0EE680A1BF01C
:102FB0005BF9F0EE000A20EE200A7B4880ED000A63
:102FC000B0EE680A1BF0A8F8F0EE000A20EE200A26
:102FD000764880ED000A744890ED000A7B48D0EDF9
:102FE000000A30EE200A734880ED000A6F4890ED29
:102FF000000A7648D0ED000A30EE600A6C4880ED99
:10300000000AB5EEC08AF1EE10FA73D0704800687D
:10301000052820D2DFE800F003203A546F0065480D
:1030200090ED000A30EE080A80ED000A604890ED4D
:10303000000A30EE480A80ED000A5C4890ED000A74
:1030400030EE080A80ED000A574890ED000A30EE95
:10305000480A80ED000A68E0554890ED000A30EE1D
:10306000480A80ED000A514890ED000A30EE080A47
:1030700080ED000A4C4890ED000A5648D0ED000A59
:1030800008EE600A484880ED000A4EE0494890ED9D
:10309000000A30EE080A80ED000A444890ED000A6C
:1030A0004C48D0ED000A08EE200A404880ED000AA6
:1030B0003D4890ED000A30EE480A80ED000A34E009
:1030C0003C4890ED000A30EE080A80ED000A3848CE
:1030D00090ED000A3F48D0ED000A08EE600A34483F
:1030E00080ED000A304890ED000A30EE480A80ED8D
:1030F000000A1AE01AE02F4890ED000A3548D0ED9A
:10310000000A08EE200A2B4880ED000A284890EDBE
:10311000000A30EE480A80ED000A244890ED000ACB
:1031200030EE080A80ED000A00BF00BF1E48D0ED57
:10313000001A1E4890ED001A1D48D0ED000A1D48E7
:1031400090ED000AFFF7ABFE2348D0ED000AF8EE41
:10315000E00A80EE801ABDEEC10A204880ED000A28
:10316000074800681D490968884203DD1B4800685C
:103170000349086001201A490860BDEC028B10BDAC
:103180001C0300209A9999999999B93F33333333A5
:103190003333D33F00030020040300206F12833A2F
:1031A000480300203003002068030020640300204F
:1031B000600300205C030020500300203C0300203B
:1031C000E0020020EC020020100300204403002055
:1031D00018030020D0020020C40200202403002095
:1031E0001403002010B504460020FE490860FE4884
:1031F0000460FCB90020FD4908609FEDFD0AFD4810
:1032000080ED000A47F23050FB490860FB49086036
:103210009FEDF70AFA4880ED000A0020F94908609E
:10322000F9490860F9490860F94908609FEDF00A1A
:10323000FFF782FE10BD10B5F14890ED000AB5EE23
:10324000C00AF1EE10FA05D1EE48006810B9EE4858
:10325000006890B19FEDE60AE94880ED000A002081
:10326000E8490860E8490860EA480068EA490860F7
:10327000E34890ED000AFFF75FFE10BDE748C0EDA0
:10328000000AE74880ED000A704770B52DED028B0B
:1032900005460C46B0EE408AD7480068A8420BD1DC
:1032A000D0480068A04207D1D24890ED000AB4EEA1
:1032B000480AF1EE10FA18D0CA480460CB480068FA
:1032C00010B90520C9490860D2480068D249086091
:1032D000C84880ED008AC84805600020D1490860D0
:1032E000C74890ED000AFFF727FEBDEC028B70BDCA
:1032F00070B52DED028B0446B0EE408A0D46C248F3
:103300000068A0420BD1BE4890ED000AB4EE480A16
:10331000F1EE10FA03D1BB480068A8423AD0B64893
:10332000006847F23051884225D12820AD49086015
:10333000AE48006810B90A20AC49086047F2305026
:10334000844218DA0120B1490860B5EEC08AF1EE76
:1033500010FA03DDAF480068A04208DCB5EEC08A71
:10336000F1EE10FA07D2AB480068A04203DAB1EEE2
:10337000480AB0EE408AA4480460A2480560A0480C
:1033800080ED008A0020A74908609D4890ED000A62
:10339000FFF7D2FDBDEC028B70BD10B52DED028B99
:1033A000B0EE408A04462146B0EE480A47F230505B
:1033B000FFF79EFFBDEC028B10BD70B504460D46B5
:1033C0009FED8B0A29462046FFF75FFF70BD70B561
:1033D0002DED088BF0EE408A0446B0EE608AB0EE28
:1033E000419A864890ED000AB8EEC00AB4EE680A29
:1033F000F1EE10FA0DD17B480068A04209D1824855
:1034000090ED000AB8EEC00AB4EE480AF1EE10FAE8
:103410005ED0BDEEE80A794880ED000A7D4991ED65
:10342000000AB8EEC00A38EEC00ABDEEC00A10EEBF
:10343000100A9FED6F0A2146FFF727FF754890EDB0
:10344000000AB8EEC00A38EE400ABDEEC00A10EE1F
:10345000105A002D01DB284600E06842642814DD84
:103460006C4890ED000AB8EEC00AB4EEC08AF1EEE6
:1034700010FA02DDB0EE490A01E0B1EE490A10EEA1
:10348000101A08461AF00FFA13E0624890ED000A8D
:10349000B8EEC00A38EE400A10EE101A08461AF0CC
:1034A00002FA41EC1B0B9FED600B53EC102B1AF052
:1034B000E9F841EC1A0B1AF021FA09EE900A002102
:1034C000B0EE690AFDEEC80A10EE900AFFF710FF91
:1034D000BDEC088B70BD10B54C48006801283DDD7F
:1034E000494909684B4A1268881AFFF7B6FC062852
:1034F0000CDA464801680068401C444A1060B1F587
:10350000FA7F2BDD0020FFF76DFE10BD3F480068FD
:10351000FA2808DD05203349086034490860FB209B
:103520003A49086004E005202E4908602F490860E8
:103530003848006834490968884205DDBFEE000A52
:103540002F4880ED000A04E0B7EE000A2C4880ED19
:10355000000A2B4890ED000AFFF7EEFC00BFD4E70D
:1035600010B52DED028B234890ED000AB5EEC00A90
:10357000F1EE10FA08D11D48006828B12248006811
:1035800047F23051884202DBBDEC028B10BD1C4873
:1035900090ED000AB5EEC00AF1EE10FA74D01648AC
:1035A000006847F2305188426FD1154890ED000A0B
:1035B000B5EEC00AF1EE10FA08DD134800681C49A8
:1035C0000968401A13490968884239DB0C4890EDB4
:1035D000000AB5EEC00AF1EE10FA7CD20A48006883
:1035E000134927E020030020280300201C030020AB
:1035F00000000000440300203003002034030020BA
:103600004003002018030020380300204803002056
:103610006C030020500300203C0300200003002026
:10362000040300202C0300207B14AE47E17A743F92
:10363000FC02002009680844FD49096888424ADD07
:10364000FC48006803285DDAFB490968F84A1268FB
:10365000881AFFF702FC0A2818DAF7480068F749C9
:1036600008600020F6490860F64908601FED200A4E
:10367000F54880ED000A0220EE490860F24890ED1E
:10368000000AFFF759FC7FE7DAE077E0EA480068D4
:10369000E7490968884236DDE94890ED000AB8EE4E
:1036A000C00AE948D0ED000A60EE200AE74890ED34
:1036B000000AB8EEC00AC0EE801AB0EE611AB0EE91
:1036C000410AFFF7BDFBDC490968D94A1268881A2C
:1036D000FFF7C3FB00E04BE000EE900AB8EEE01A03
:1036E000DB48D0ED000A40EE010AD54890ED000A13
:1036F000B8EEC00A80EE801AB0EE418AB0EE480AF9
:10370000FFF71AFC9BE0CE4890ED000AB8EEC00A25
:10371000CD48D0ED000A60EE200ACC4890ED000ABA
:10372000B8EEC00AC0EE801AB0EE611AB0EE410ADF
:10373000FFF786FBC0490968BD4A1268881AFFF77F
:103740008CFB00EE900AB8EEE01AC148D0ED000AFA
:1037500050EE410ABA4890ED000AB8EEC00A80EE79
:10376000801AB0EE418AB0EE480AFFF7E5FB66E04A
:10377000B54890ED000AFFF7DFFB60E0B24890ED3E
:10378000000AB5EEC00AF1EE10FA1FDDAA4890ED6E
:10379000000AB8EEC00AAA48D0ED000AF8EEE00A26
:1037A000A94890ED001A00EEC10AAA48D0ED000A1F
:1037B000F8EEE00A70EE600A9D4890ED000AB8EE5F
:1037C000C00AF4EEC00AF1EE10FA27D39E4890ED3D
:1037D000000AB5EEC00AF1EE10FA2BD2964890ED31
:1037E000000AB8EEC00A9648D0ED000AF8EEE00AEA
:1037F000954890ED001A00EEC10A9648D0ED000AF7
:10380000F8EEE00A70EE200A894890ED000AB8EE62
:10381000C00AF4EEC00AF1EE10FA0BDD8649096821
:10382000834A1268881AFFF745FAB0EE408AFFF71C
:1038300083FB04E0844890ED000AFFF77DFBA3E6DC
:10384000854909687A4A1268881AFFF733FAB0EE98
:10385000408AFFF771FB00BF96E600B57548006827
:10386000022815DA1FED9E0A7C4880ED000A1FED44
:10387000A00A754880ED000A00207949086047F2E7
:103880003050784908607849086000206A4908602B
:1038900076480068401C7549086075490968884287
:1038A00004DA74480068FFF7BBF90EE0704800685E
:1038B0006E4908607048006820B16E480068FFF7E4
:1038C000AFF902E00020FFF7ABF900BD674A1268CC
:1038D000521C664B1A60824207DD594A12680A443C
:1038E000574B1A600022614B1A6070472DE9F04176
:1038F000FFF7C2F94E490860FFF7EDFD5148006837
:10390000002821DD4E4800684E49096888422AD0C7
:103910004B4800684B49096888420EDA48480068FD
:103920005649096888421EDA45480068FFF79CFA44
:1039300004460121FFF7CAFF15E04FF0FF31504860
:103940000068FFF7C3FF0EE03D480068002806DD71
:103950004FF0FF314B480068FFF7B8FF03E0FFF777
:103960007CFFBDE8F0814848006831490968884219
:1039700005D0FFF7F5FD2E4800684349086043482D
:103980000068E8B32E48D0ED000AF8EEE00A40489F
:1039900090ED001A60EE810AB0EE600AFFF771F94F
:1039A00004462748D0ED000AF8EEE00A394890EDC9
:1039B000001A60EE810AB0EE600AFFF762F9054670
:1039C0001F48D0ED000AF8EEE00A334890ED001AE7
:1039D00060EE810AB0EE600AFFF753F90646184818
:1039E000D0ED000AF8EEE00A2C4890ED001A60EEE7
:1039F000810AB0EE600AFFF744F90746234600E06B
:103A000003E02A463146FFF7A7F800BFA9E724489C
:103A100001680068401C224A1060462946D22148AD
:103A2000408B2149096808441F4908604AE00000AA
:103A30005003002048030020380300204C030020DE
:103A40001C0300202003002040030020FC02002073
:103A5000DC020020F80200203C0300204403002088
:103A60001803002030030020340300202C03002022
:103A70000C030020080300206C0300202403002016
:103A800058030020280300205403002014030020C2
:103A90006803002064030020600300205C03002012
:103AA00084040020E607002088040020FE48006807
:103AB0004621B0FBF1F0FD4908600020FC49086098
:103AC000F9490860FB4801680068401CF94A106029
:103AD000462907D2F848008BF84909680844F74995
:103AE00008600BE0F54800684621B0FBF1F0F449AE
:103AF00008600020EF490860F0490860F14801685B
:103B00000068401CEF4A1060462907D2EA48808AC4
:103B1000ED4909680844EC4908600BE0EA48006890
:103B20004621B0FBF1F0E94908600020E549086052
:103B3000E5490860E64801680068401CE44A1060F6
:103B4000462907D2DC48C08AE24909680844E149AD
:103B500008600BE0DF4800684621B0FBF1F0DE4969
:103B600008600020DA490860DA490860DB4801682B
:103B70000068401CD94A1060322907D2CE484089DB
:103B8000D74909680844D64908600BE0D448006862
:103B90003221B0FBF1F0D34908600020CF49086022
:103BA000CF490860D04801680068401CCE4A1060C8
:103BB000322907D2C048C088CC4909680844CB499B
:103BC00008600BE0C94800683221B0FBF1F0C84939
:103BD00008600020C4490860C4490860C5480168FD
:103BE0000068401CC34A1060322907D2B24880885E
:103BF000C14909680844C04908600BE0BE48006834
:103C00003221B0FBF1F0BD4908600020B9490860DD
:103C1000B9490860BA4801680068401CB84A106099
:103C2000462907D2A4480089B64909680844B5491D
:103C300008600BE0B34800684621B0FBF1F0B249E0
:103C400008600020AE490860AE490860AF480168CE
:103C50000068401CAD4A1060462907D2964800888B
:103C6000AB4909680844AA4908600BE0A848006805
:103C70004621B0FBF1F0A74908600020A349086085
:103C8000A3490860A44801680068401CA24A10606B
:103C9000462907D288484088A049096808449F49B6
:103CA00008600BE09D4800684621B0FBF1F09C499C
:103CB0000860002098490860984908607047994852
:103CC000006899490968884203DA9748006895496D
:103CD00008609448006895490968884203DD934864
:103CE000006890490860854909688E4A1268881AF8
:103CF000002801DB014600E04142022930DD7F4817
:103D0000006888490968884203DD01208849887570
:103D100002E000208649887578490968814A12685E
:103D2000881A002801DB014600E0414201EB410115
:103D3000804A1160104600687F490968884203DDA7
:103D40007D480068114608607A4800681E2802DA3B
:103D50001E2078490860774800787549C87502E0E8
:103D600000207349C8757047744800687449096831
:103D7000884203DA72480068704908606F4800683A
:103D800070490968884203DD6E4800686B49086025
:103D900057490968694A1268881A002801DB0146F8
:103DA00000E04142022930DD51480068634909685A
:103DB000884203DD00205E49887402E001205C49EE
:103DC00088744B4909685D4A1268881A002801DB2B
:103DD000014600E0414201EB4101564A11601046A4
:103DE000006859490968884203DD57480068114650
:103DF000086050480068142802DA14204D49086011
:103E00004C4800784A49C87402E000204849C87408
:103E100070474E4800684E490968884203DA4C48AA
:103E200000684A490860494800684A490968884268
:103E300003DD484800684549086036490968434A37
:103E40001268881A002801DB014600E0414204297B
:103E500028DD304800683D490968884203DD0020BC
:103E60003349887602E0012031498876294909687A
:103E7000364A1268881A002801DB014600E04142F8
:103E800001EB810189002B4A11601046006832491C
:103E90000968884203DD30480068114608602548FB
:103EA00000685BE064E000008804002098000020C7
:103EB000840400208C040020E607002090040020E9
:103EC0009C0000209404002098040020A4000020FE
:103ED0009C040020A0040020A0000020A4040020D6
:103EE000A8040020A8000020BC040020C00400207A
:103EF000BC000020C4040020C8040020B80000203A
:103F0000CC040020D0040020B0000020E4040020F5
:103F1000E8040020C0000020EC040020F004002091
:103F2000C4000020E0030020D8030020DC030020B0
:103F3000040000204004002018040020EC030020AE
:103F4000E4030020E80300201404002004040020FF
:103F5000FC0300200004002020040020642802DA72
:103F60006420F7490860F6480078F649C87602E010
:103F70000020F449C8767047F3480068F34909689F
:103F8000884203DAF1480068EF490860EE480068AB
:103F9000EF490968884203DDED480068EA49086096
:103FA000EC490968E84A1268881A002801DB0146D2
:103FB00000E04142042934DDE6480068E24909682E
:103FC000884204DD0020DF4981F82A0003E0012057
:103FD000DC4981F82A00DF490968DB4A1268881A3F
:103FE000002801DB014600E0414201EB810189002C
:103FF000D34A116010460068D7490968884203DD3A
:10400000D548006811460860CD480068C82802DA23
:10401000C820CB490860CA480078CA4981F82B00FB
:1040200003E00020C74981F82B00704710B5CB484A
:104030000068CB490968884203DAC9480068C74963
:104040000860C6480068C7490968884203DDC5485A
:104050000068C2490860C44B1B68C04C24681A1B26
:10406000002A01DB134600E05342022B4CDDBF4B1C
:104070001B68BF4C2468191B002901DB0B4600E0BC
:104080004B42142B40DAB34B1B68BA4C2468181B04
:10409000002801DB034600E04342142B34DAB24827
:1040A0000068AE490968884204DD0120A54981F80D
:1040B000260003E00020A34981F82600AA490968E8
:1040C000A64A1268881A002801DB014600E0414236
:1040D0009B4A116010460068A7490968884203DDC1
:1040E000A54800681146086095480068322802DA41
:1040F00032209349086092480078924981F827005D
:1041000000209E49086006E000208E4981F82700C3
:1041100001209A49086010BD252099490860442073
:104120009849086070473A20954908605820954999
:10413000086070474E2092490860712091490860DC
:10414000704778208E490860AC208E49086070471F
:1041500000B50246FFF7F5FF8B4802608B4802600E
:1041600000BD00B50246FFF7DEFF874802608748C2
:10417000026000BD00B50246FFF7DCFF8248026026
:104180008248026000BD10B5FA2081490860784875
:10419000006880490860FA206F4908607548006827
:1041A0006949086000207C49086035E006E001208C
:1041B00018F040FDFCF756FC00B927E06C4A126885
:1041C000764B1B68D21A032392FBF3F3674A1268FB
:1041D000704C2468111B002901DB0A4600E04A42AA
:1041E0009342E4DB634A1268584B1B68D21A0323DC
:1041F00092FBF3F3574A1268534C2468101B0028B3
:1042000001DB024600E042429342D0DB00BF62483D
:104210000068401C604908605F4800683228C5DBC0
:1042200010BD10B55E480068002852D15D48006896
:1042300000284ED15C48006800284AD15B480068DD
:10424000002846D124E04FF48051594815F0F2FA85
:1042500070B90121574815F0EDFA48B99FED561A8B
:10426000DFED560A14209FED560AFFF7B0F808E07C
:104270009FED511ADFED510A0F209FED520AFFF713
:10428000A6F8012018F0D6FCFCF7ECFB00B906E01C
:104290004FF48071464815F0CDFA0028D3D000BF06
:1042A0009FED451ADFED450A0A209FED470AFFF70B
:1042B0008EF806E0012018F0BDFCFCF7D3FB00B936
:1042C00006E04FF480513A4815F0B4FA0028F1D0D6
:1042D00048E13348006801282FD13248006800289F
:1042E0002BD13148006840BB3048006828BB6DE0E6
:1042F0004FF480512E4815F09DFA70B901212D48D8
:1043000015F098FA48B99FED2C1ADFED2C0A14200D
:104310009FED2B0AFFF75BF808E09FED271ADFED12
:10432000270A0F209FED270AFFF751F8012018F008
:1043300081FCFCF797FB08B94FE068E046E000001D
:104340004004002004000020100400200804002085
:104350000C040020C400002024040020F8030020E6
:10436000F0030020F4030020B0000020C000002073
:10437000AC010020B00100201C040020D403002068
:104380001404002018040020E0030020EC030020A7
:1043900020040020040400209C030020FC030020D3
:1043A0009002002094020020980200209C0200202D
:1043B00000000240000402403333333F00006144F8
:1043C000008022C4000061C4000000004FF480712E
:1043D000F94815F02FFA00288AD000BF1FED0A1AFD
:1043E0005FED0A0A0A201FED080AFEF7F0FF06E05B
:1043F000012018F01FFCFCF735FB00B906E04FF474
:104400008051ED4815F016FA0028F1D0AAE0EB48EB
:104410000068012850D1EA48006801284CD1E948D9
:104420000068D0BBE8480068B8BB24E00421E74836
:1044300015F000FA78B94FF40061DF4815F0FAF989
:1044400048B91FED231A5FED230A14209FEDE00AFF
:10445000FEF7BDFF08E01FED281A5FED280A0F20C8
:104460001FED280AFEF7B3FF012018F0E3FBFCF76D
:10447000F9FA00B906E04FF48071CF4815F0DAF987
:104480000028D3D000BF1FED341A5FED340A0A2094
:104490009FEDD00AFEF79BFF07E00DE0012018F02A
:1044A000C9FBFCF7DFFA00B905E00421C74815F0A5
:1044B000C1F90028F2D055E0C0480068012851D168
:1044C000BF48006801284DD1BE480068012849D185
:1044D000BD480068B8BB24E00421BC4815F0AAF927
:1044E00078B94FF40061B44815F0A4F948B91FED4C
:1044F0004E1A5FED4E0A14209FEDB50AFEF767FFD6
:1045000008E01FED531A5FED530A0F201FED530A09
:10451000FEF75DFF012018F08DFBFCF7A3FA00B950
:1045200006E04FF48071A44815F084F90028D3D038
:1045300000BF1FED5F1A5FED5F0A0A209FEDA50A1D
:10454000FEF745FF07E00DE0012018F073FBFCF7D4
:1045500089FA00B905E004219C4815F06BF90028A0
:10456000F2D000BF0020FEF73DFE10BD2DE9F04166
:1045700005460E46FFF7E5FD9748006800F5827096
:10458000964908609648006800F582709549086071
:10459000002415E006E0012018F04CFBFCF762FA5D
:1045A00000B90BE0904909688E4A1268881A002801
:1045B00001DB014600E041420F29ECDC00BF641C36
:1045C000322CE7DB9FED891A00EE106AF8EEC00A84
:1045D0000E2000EE105AB8EEC00AFEF7F8FE0024D6
:1045E00016E006E0012018F025FBFCF73BFA00B9C5
:1045F0000CE04FF48071704815F01CF90128F1D0DF
:1046000080217B4815F016F90028EBD000BF641C10
:10461000962CE6DB0020FEF7E5FDFA2075490860E0
:104620006F4800680D306F490860002415E006E00F
:10463000012018F0FFFAFCF715FA00B90BE06A49FF
:104640000968684A1268881A002801DB014600E000
:1046500041420529ECDC00BF641C322CE7DB4FF43F
:104660002F7018F0E7FA1FEDAC1A00EE106AF8EEA2
:10467000C00A0E2000EE105AB8EEC00AFEF7A7FEE0
:1046800040F2A46018F0D6FA002415E006E00120FC
:1046900018F0D0FAFCF7E6F900B90BE00121544814
:1046A00015F0C8F8012805D1C102434815F0C2F839
:1046B0000128ECD000BF641CB4F57A7FE6DB40F241
:1046C000DC5018F0B7FAFA204A49086044480068FC
:1046D0003230444908601FEDC81A00EE106AF8EE47
:1046E000C00A0E2000EE105AB8EEC00AFEF76FFEA8
:1046F00000240FE006E0022018F09CFAFCF7B2F963
:1047000000B905E00121314815F094F80128F2D0F4
:1047100000BF641C40F226208442EBDB1FEDDA1A56
:1047200000EE106AF8EEC00A0E2000EE105AB8EE45
:10473000C00AFEF74CFE002410E006E0012018F04D
:1047400079FAFCF78FF900B906E04FF400511F48E1
:1047500015F070F80128F1D000BF641CB4F57A7F21
:10476000EBDB0020FEF73EFDFA20234908601A48E3
:104770000068C01C194908604FF47A7018F05AFAA2
:10478000C8201C49086016480068143015490860A4
:1047900000243AE006E0012018F04CFAFCF762F938
:1047A00000B930E0154909680C4A1268881A0028D7
:1047B00026DB014625E000000000024090020020B8
:1047C00094020020980200209C0200200010024069
:1047D00000C08FC40000E144D8030020E0030020A3
:1047E000E4030020EC030020BC000020CDCC4C3FB3
:1047F000000402401404002018040020B800002027
:1048000041420429C7DC00BF641CFA2CC2DB4FF410
:104810007A7018F00FFA9FEDFB1A00EE106AF8EEAE
:10482000C00A0C2000EE105AB8EEC00AFEF7CFFD09
:10483000002415E006E0012018F0FCF9FCF712F95D
:1048400000B90BE00421F04814F0F4FF012805D171
:104850000103EE4814F0EEFF0128ECD000BF641C09
:10486000FA2CE7DBFDF723FE06E0052018F0E2F95D
:10487000FCF7F8F800B914E0FCF72AF98046FCF7D9
:10488000FAF8071E01DB384600E07842B8F1000F65
:1048900001DB414601E0C8F100010844B0F5C87FE2
:1048A000E3DB00BFFFF74DFC4FF48270D84908608E
:1048B000D84908609FEDD31A00EE106AF8EEC00ADE
:1048C0000C2000EE105AB8EEC00AFEF780FD00245E
:1048D0000FE006E0012018F0ADF9FCF7C3F800B9CD
:1048E00005E01021C84814F0A5FF0128F2D000BF50
:1048F000641C642CEDDB0020FEF774FCBDE8F08145
:1049000010B50246101E01DB044600E04442214679
:104910003C2900DD3C21062901DA042010BDC1EB51
:10492000C10000EB400048434FF4616490FBF4F099
:10493000031D1846F2E72DE9F04104460D4600201C
:10494000B54908603BE02AE0B4480068071B3846D8
:10495000FFF7D6FF0646B1480068001B002809DDB6
:104960009FEDAF1ADFEDAF0A30469FEDAF0AFEF7BD
:104970002EFD10E0A9480068001B09D59FEDA81A7C
:10498000DFEDA80A30461FED6D0AFEF720FD02E0BC
:104990000020FEF727FCFCF765F800B909E09F4905
:1049A0000968081B002801DB014600E0414201299B
:1049B000CADC00BF98480068401C974908609648C8
:1049C0000068A842BFDBBDE8F08170B59748046875
:1049D000974805684FF461714842FFF7C7FDFFF73C
:1049E000B0FB94480068FA30894908609248006832
:1049F000FA308849086091480068002850D19FED3E
:104A0000811ADFED880A12209FED8D0AFEF7DFFC88
:104A100000208149086019E006E0012018F00AF939
:104A2000FCF720F800B90BE086490968794A12685A
:104A3000881A002801DB014600E041420A29ECDC2B
:104A400000BF75480068401C7349086072480068E0
:104A50009628E1DB0020704908601AE006E001209A
:104A600018F0E8F8FBF7FEFF00B90CE04FF4807196
:104A7000664814F0DFFE0128F1D08021724814F05E
:104A8000D9FE0028EBD000BF63480068401C624993
:104A900008606148006840F20E618842DEDB8BE10D
:104AA000664800680128FAD140F23520FFF750FB34
:104AB00066480068002850D165480068B8BB654862
:104AC0000068A0BB6448006888BB002052490860A9
:104AD00037E01DE051480068A04209DD9FED491A0A
:104AE000DFED500A0F209FED5D0AFEF770FC08E035
:104AF0009FED441ADFED4B0A0A209FED510AFEF7A5
:104B000066FC012018F096F8FBF7ACFF00B912E044
:104B100080214D4814F08EFE0028DBD04948006803
:104B20003C490968461A002E02DB304601E014E0D9
:104B300070420A28CEDC00BF37480068401C364966
:104B400008603548006840F20E618842C1DB4FF4CE
:104B50007A712046FFF7EFFE2EE13C4800680128FD
:104B60007ED13B480068B8BB3A480068A0BB3A48D1
:104B7000006888BB00202849086037E01DE027480E
:104B80000068A04209DD9FED1F1ADFED260A0F2005
:104B90009FED320AFEF71BFC08E09FED1A1ADFEDCD
:104BA000210A0A209FED260AFEF711FC012018F0C9
:104BB00041F8FBF757FF00B912E08021224814F0BA
:104BC00039FE0028DBD01F48006812490968461AE0
:104BD000002E02DB304601E042E070420A28CEDCC3
:104BE00000BF0D480068401C0B4908600A48006877
:104BF00040F20E618842C1DB4FF47A712046FFF724
:104C00009AFED9E03333333F0010024000000240E7
:104C1000E0030020EC0300209C030020A000002003
:104C20006666663F0000614400000000A0010020AD
:104C3000A8010020D8030020E4030020E8000020A1
:104C4000000061C4BC00002000040240900200206B
:104C500094020020980200209C020020008022C4C0
:104C6000F8480068012851D1F748006801284DD163
:104C7000F6480068A0BBF648006888BB0020F549EC
:104C8000086037E01DE0F4480068A84209DD1FED28
:104C9000231A5FED1C0A0F209FEDF00AFEF797FB29
:104CA00008E01FED281A5FED210A0A201FED1C0AFB
:104CB000FEF78DFB012017F0BDFFFBF7D3FE00B917
:104CC00012E08021E64814F0B5FD0028DBD0E5486D
:104CD0000068E5490968461A002E02DB304601E00B
:104CE00014E070420A28CEDC00BFDA480068401C9D
:104CF000D8490860D748006840F20E618842C1DB9D
:104D00004FF47A712846FFF716FE55E0CD4800684B
:104D1000012851D1CC48006801284DD1CB4800680A
:104D2000012849D1CA48006888BB0020C9490860E9
:104D300037E01DE0C8480068A84209DD1FED4F1AA2
:104D40005FED480A0F209FEDC50AFEF740FB08E023
:104D50001FED541A5FED4D0A0A201FED470AFEF7BA
:104D600036FB012017F066FFFBF77CFE00B912E06E
:104D70008021BB4814F05EFD0028DBD0B9480068F4
:104D8000B9490968461A002E02DB304601E013E0FB
:104D900070420A28CEDC00BFAE480068401CAD4916
:104DA0000860AC48006840F20E618842C1DB4FF4F5
:104DB0007A712846FFF7BFFD0020FEF713FA70BD99
:104DC00010B5A0480068002855D19F480068002809
:104DD00051D19E48006800284DD19D4800680028A8
:104DE00049D19C49086019E006E0012017F022FF34
:104DF000FBF738FE00B90BE09A4909689A4A126835
:104E0000881A002801DB014600E041420A29ECDC57
:104E100000BF90480068401C8E4908608D480068BB
:104E2000FA28E1DBB6EE001A5FED820A05209FED5D
:104E30008F0AFEF7CCFA00208649086013E006E0EE
:104E4000012017F0F7FEFBF70DFE00B905E0042185
:104E5000874814F0EFFC0028F2D000BF7D480068BE
:104E6000401C7C4908607B4800689628E7DB0020EE
:104E7000FEF7B8F97BE073480068012877D17D48D8
:104E80000068002873D17349086019E006E001202A
:104E900017F0D0FEFBF7E6FD00B90BE07149096899
:104EA000714A1268881A002801DB014600E041427D
:104EB0000A29ECDC00BF67480068401C65490860AF
:104EC00064480068FA28E1DBB6EE001A5FEDAB0A31
:104ED00005201FEDA50AFEF77AFA00205D4908605B
:104EE00014E006E0FBF7BEFD00B909E0012017F071
:104EF000A1FE4FF48071604814F09CFC0028F1D0B2
:104F000000BF54480068401C52490860514800687E
:104F100040F20E618842E4DB0020FEF763F9B6EE52
:104F2000001A5FEDC00A05209FED500AFEF74FFA08
:104F300000204849086013E006E0012017F07AFEDF
:104F4000FBF790FD00B905E00421494814F072FC1C
:104F50000028F2D000BF3F480068401C3D4908606F
:104F60003C4800689628E7DB0020FEF73BF910BDBF
:104F700000B5FFF7DFF8FF20404908603A490860B4
:104F800000BD10B52F48006800283ED12E480068AB
:104F900000283AD12D480068B0BB2D48006898BB66
:104FA000FFF7E6FF9FED361A5FEDE20A0A201FEDDC
:104FB000E20AFEF70CFA0020264908601FE006E02E
:104FC000012017F037FEFBF74DFD00B911E001217C
:104FD000234814F02FFC0028F2D022480068224910
:104FE0000968441A002C01DB204600E060420A28D0
:104FF000E6DC00BF17480068401C164908601548E9
:1050000000689628DBDB2DE1FFE70E4800680128E9
:1050100061D10D480068A0B90C48006888B90C48F7
:10502000006870B9FFF7A4FF9FED151ADFED150AB0
:105030000A209FED150AFEF7CAF90020054908600D
:1050400044E048E0900200209402002098020020F2
:105050009C0200209C030020A400002000C08FC4FC
:1050600000040240BC000020EC0300200000E144EA
:1050700000100240A002002000000240E0030020D7
:10508000CDCC4C3F000061440000000006E0012050
:1050900017F0D0FDFBF7E6FC00B911E00121F8485C
:1050A00014F0C8FB0028F2D0F6480068F6490968F9
:1050B000441A002C01DB204600E060420A28E6DCAE
:1050C00000BFF2480068401CF0490860EF480068E3
:1050D0009628DBDBC6E0EE48006801285ED1ED488B
:1050E000006801285AD1EC480068D0BBEB48006842
:1050F000B8BBFFF73DFF24E04FF48051E84814F0BF
:1051000099FB70B90121DE4814F094FB48B99FED7A
:10511000E51A5FED240A12209FEDE30AFEF757F926
:1051200008E09FEDE01A5FED290A0F209FEDDF0AEE
:10513000FEF74DF9012017F07DFDFBF793FC00B958
:1051400013E04FF48071D64814F074FB0028D3D0DC
:10515000CC480068CC490968441A002C02DB204680
:1051600001E01BE060420A28C6DC00BF9FEDCD1ABB
:105170005FED3C0A08201FED3C0AFEF728F906E027
:10518000012017F057FDFBF76DFC00B905E0012188
:10519000BB4814F04FFB0028F2D063E0BC48006825
:1051A00001285FD1BB48006801285BD1BA4800687C
:1051B000012857D1B9480068B8BBFFF7D9FE24E0F1
:1051C0004FF48051B64814F035FB70B90121AC485A
:1051D00014F030FB48B99FEDB31A5FED560A122068
:1051E0009FEDB10AFEF7F3F808E09FEDAE1A5FED10
:1051F0005B0A0F209FEDAD0AFEF7E9F8012017F0DA
:1052000019FDFBF72FFC00B913E04FF48071A4489F
:1052100014F010FB0028D3D09A4800689A49096816
:10522000441A002C02DB204601E01BE060420A2801
:10523000C6DC00BF9FED9B1A5FED6E0A08201FEDD4
:105240006E0AFEF7C4F806E0012017F0F3FCFBF746
:1052500009FC00B905E00121894814F0EBFA0028A7
:10526000F2D000BF0020FDF7BDFF10BD10B588488B
:105270000068002864D187480068002860D186480B
:10528000006800285CD185480068002858D1FFF7E5
:105290006FFE24E00421864814F0CCFA78B94FF46C
:1052A00000617F4814F0C6FA48B99FED7E1A5FEDA1
:1052B0008B0A12201FED970AFEF789F808E09FED90
:1052C000791A5FED900A0F209FED780AFEF77FF8BC
:1052D000012017F0AFFCFBF7C5FB00B912E04FF45B
:1052E00080716F4814F0A6FA0028D3D06548006892
:1052F00065490968441A002C01DB204600E0604241
:105300000A28C7DC00BF9FED671A5FEDA20A0720DD
:105310001FEDAA0AFEF75BF806E0012017F08AFCF1
:10532000FBF7A0FB00B906E04FF400615C4814F005
:1053300081FA0028F1D000BF0020FDF753FF0AE1F9
:1053400053480068012864D152480068002860D1A1
:105350005148006800285CD150480068002858D1A6
:10536000FFF706FE24E00421514814F063FA78B9EF
:105370004FF400614A4814F05DFA48B99FED491AAC
:105380005FEDC00A12201FEDCB0AFEF720F808E0FF
:105390009FED441A5FEDC50A0F209FED440AFEF70A
:1053A00016F8012017F046FCFBF75CFB00B912E091
:1053B0004FF480713A4814F03DFA0028D3D03148B8
:1053C000006831490968441A002C01DB204600E0DE
:1053D00060420A28C7DC00BF9FED321A5FEDD70A92
:1053E00007201FEDDE0AFDF7F2FF06E0012017F0AF
:1053F00021FCFBF737FB00B906E04FF400612848B9
:1054000014F018FA0028F1D000BF0020FDF7EAFEE2
:10541000A1E01F48006801285AD11E4800680128F1
:1054200056D11D48006848BB1C48006830BBFFF7D8
:105430009FFDB6EE001A5FEDED0A08201FEDF50A9C
:10544000FDF7C5FF0020114908603CE006E001209F
:1054500017F0F0FBFBF706FB00B92EE04FF40061FC
:105460000F4814F0E7F90028F1D006480068064913
:105470000968441A002C1DDB20461CE028E00000CF
:1054800000040240BC000020EC0300209C0300202C
:105490009002002094020020980200209C0200202C
:1054A000000002403333333F008022C4000061C457
:1054B0000010024060420A28C9DC00BFFE480068B4
:1054C000401CFD490860FC4800689628BEDB42E0AD
:1054D000FA48006801283ED1F948006801283AD10D
:1054E000F8480068012836D1F748006898BBFFF7F4
:1054F0003FFDB6EE001ADFEDF50A08209FEDF40A35
:10550000FDF765FF0020EC49086020E006E001207F
:1055100017F090FBFBF7A6FA00B912E04FF4006118
:10552000EC4814F087F90028F1D0EB480068EB490B
:105530000968441A002C01DB204600E060420A287A
:10554000E5DC00BFDC480068401CDB490860DA4845
:1055500000689628DADB0020FDF744FE10BD10B588
:105560004FF461714842FFF701F840F20910FEF76D
:10557000EFFDDB48006800286DD1DA48006800289C
:1055800069D1D9480068002865D11FED3A1ADFEDCE
:10559000CF0A12201FED3B0AFDF719FF0020C64974
:1055A000086020E006E0FBF75DFA00B915E0012095
:1055B00017F040FB4FF48071C64814F03BF9002807
:1055C000F1D0C5480068C5490968441A002C01DBC0
:1055D000204600E060420A28E5DC00BFB6480068CB
:1055E000401CB5490860B448006840F20E6188422A
:1055F000D8DB1FED541ADFEDB50A0A201FED550A5E
:10560000FDF7E5FE0020AC4908601AE006E0FBF774
:1056100029FA00B90FE0012017F00CFB4021B34834
:1056200014F008F90028F2D04FF48071A94814F062
:1056300001F90028EBD000BF9F480068401C9E493C
:1056400008609D48006840F20E618842DEDB002061
:10565000FDF7C8FD13E0A2480068012802D1FEF75B
:10566000E0FD0CE09F480068012802D1FFF7FEFD35
:1056700005E09D480068012801D1FFF782FC10BDBC
:105680002DE9F04105460E46FEF75BFD984800689F
:10569000C01F9849086098480068C01F8F4908607B
:1056A000002415E006E0012017F0C4FAFBF7DAF950
:1056B00000B90BE088490968884A1268881A0028EE
:1056C00001DB014600E041420A29ECDC00BF641C1A
:1056D000FA2CE7DB9FED891A00EE106AF8EEC00A9B
:1056E0000C2000EE105AB8EEC00AFDF770FE002440
:1056F0001CE006E0012017F09DFAFBF7B3F900B9B2
:1057000012E04FF48071734814F094F80128F1D03E
:105710004021764814F08EF80128EBD080217348A0
:1057200014F088F80028E5D000BF641C962CE0DB5C
:10573000FCF7BDFE06E0052017F07CFAFBF792F9B6
:1057400000B913E0FBF7C4F98046FBF794F9071E94
:1057500001DB384600E07842B8F1000F01DB41463A
:1057600001E0C8F100010844C828E4DB00BF0020C4
:10577000FDF738FD782062490860624800685749A3
:105780000860002415E006E0052017F053FAFBF747
:1057900069F900B90BE050490968504A1268881A43
:1057A000002801DB014600E041420429ECDC00BF97
:1057B000641C322CE7DB4FF42F7017F03BFAB6EE87
:1057C000001A00EE106AF8EEC00A0C2000EE105A23
:1057D000B8EEC00AFDF7FBFD40F2A46017F02AFA0C
:1057E000002415E006E0012017F024FAFBF73AF94F
:1057F00000B90BE001213D4814F01CF8012805D147
:10580000C102344814F016F80128ECD000BF641C23
:1058100040F21A408442E5DBFA20394908603948F1
:1058200000682D302D490860B6EE001A00EE106AAF
:10583000F8EEC00A0C2000EE105AB8EEC00AFDF7D0
:10584000C6FD00240FE006E0022017F0F3F9FBF795
:1058500009F900B905E001212B4813F0EBFF0128FD
:10586000F2D000BF641C40F226208442EBDB00240F
:1058700010E006E0012017F0DDF9FBF7F3F800B9BE
:1058800006E04FF40051204813F0D4FF0128F1D076
:1058900000BF641CB4F57A7FEBDB0020FDF7A2FCAF
:1058A000FA201A4908601A480068124908603C202A
:1058B0001349086013482DE09C030020900200204B
:1058C00094020020980200209C0200200000614405
:1058D0000000E14400000240BC000020EC03002076
:1058E000E8000020EC000020F0000020000402404E
:1058F000DC030020E0030020E8030020CDCC4C3E78
:1059000014040020E40300200010024018040020CA
:10591000D803002000681130F7490860002415E022
:1059200006E0012017F086F9FBF79CF800B90BE0C0
:10593000F2490968F24A1268881A002801DB014618
:1059400000E041420429ECDC00BF641CFA2CE7DBD8
:1059500040F2DC5017F06EF91FED181A00EE106AD5
:10596000F8EEC00A142000EE105AB8EEC00AFDF797
:105970002EFD002416E006E0012017F05BF9FBF78E
:1059800071F800B90CE00421DE4813F053FF012840
:10599000F2D04FF48051DC4813F04CFF0128EBD0DB
:1059A00000BF641CFA2CE6DBFCF781FD06E0052055
:1059B00017F040F9FBF756F800B914E0FBF788F848
:1059C0008046FBF758F8071E01DB384600E07842B6
:1059D000B8F1000F01DB414601E0C8F100010844C5
:1059E000B0F5C87FE3DB00BFFEF7ABFB40F2091068
:1059F000C3490860801EC04908601FED401A00EED0
:105A0000106AF8EEC00A0C2000EE105AB8EEC00A78
:105A1000FDF7DDFC00240FE006E0012017F00AF995
:105A2000FBF720F800B905E01021B64813F002FF9B
:105A30000128F2D000BF641C642CEDDB0020B349C8
:105A40000860FDF7CFFBBDE8F08110B54FF4617140
:105A50004842FFF715FE40F20910FEF779FBAC480B
:105A60000068002861D19FEDAB1A5FED680A142031
:105A70009FEDA90AFDF7ABFC0020A849086020E0D3
:105A800006E0012017F0D6F8FAF7ECFF00B912E0B3
:105A90004FF480719C4813F0CDFE0028F1D0A0484F
:105AA000006895490968441A002C01DB204600E093
:105AB00060420A28E5DC00BF98480068401C97490E
:105AC000086096480068FA28DADB9FED921A5FEDCD
:105AD000810A0A209FED900AFDF779FC00208F498A
