:020000040800F2
:10000000E8A50120814A02084502000847020008CD
:100010004B0200084F0200085302000800000000D5
:100020000000000000000000000000009D0100082A
:100030005702000800000000E10100089B7A020856
:100040009B4A02089B4A02089B4A02089B4A0208F4
:100050009B4A02089B4A02089B4A02089B4A0208E4
:10006000AB040008EF0400089B4A02081B030008C9
:10007000FD0200085D0300089B4A020875020008A3
:100080009B4A0208810200089B4A02089B4A020818
:100090009B4A02089B4A02089B4A02089B4A0208A4
:1000A0009B4A0208C7030008F30300089B4A0208A2
:1000B000F5030008230400084F0400089B4A0208C7
:1000C0009B4A02089B4A02089B4A0208A7040008B0
:1000D0009B4A02085D0200089B4A02089B4A0208EC
:1000E0009B4A02089B4A02089B4A02089B4A020854
:1000F0009B4A02089B4A02089B4A020839030008EF
:100100009B4A02089B4A02087B040008A9040008D5
:100110009B4A02089B4A020899030008A5030008AD
:100120009B4A02089B020008CF0200089B4A020873
:100130009B4A02089B4A02089B4A02089B4A020803
:100140009B4A02089B4A02089B4A02089B4A0208F3
:10015000EF0200089B4A02089B4A02089B4A0208D9
:100160009B4A02089B4A02089B4A02089B4A0208D3
:100170009B4A02089B4A02089B4A02089B4A0208C3
:100180009B4A02089B4A0208DFF80CD028F040FF87
:10019000004800471F480208E8A50120234B1968C2
:1001A0000868B0E8F04F80F309884FF0000080F352
:1001B000118870470000000003480068006880F361
:1001C000088862B600DF00BF08ED00E0DFF80C0031
:1001D000016841F470010160704700BF88ED00E0E4
:1001E000EFF30980114B1A681EF0100F08BF20EDC5
:1001F000108A20E9F04F106008B54FF0140080F32A
:10020000118828F012F84FF0000080F31188BDE843
:10021000084019680868B0E8F04F1EF0100F08BFDA
:10022000B0EC108A80F30988704700BFE405002015
:10023000EFF311804FF0140181F31188704780F3C0
:1002400011887047704700BFFEE700BFFEE700BFA0
:10025000FEE700BFFEE770477047704710B540F2F9
:100260002551A34826F02DFD18B12021A04826F0E5
:100270001FFD10BD10B59F499F4825F057FC10BDCC
:1002800010B59E499C48303025F026FC20B19B4992
:100290009948303025F04AFC10BD10B5984999486E
:1002A00025F01AFC90B19649964825F03FFC02F0E3
:1002B00003F900219048303825F064FB082191486B
:1002C00025F081FB01218F4825F05CFB10BD10B5A6
:1002D0008D498C48183025F029FC8C4840788B4992
:1002E000097840EA012000B28949088010BD10B5A4
:1002F00088498448603025F019FC10BD10B580494C
:100300007D48483825F0E8FB30B17D497A484838C7
:1003100025F00CFC00F0B9FA10BD10B57E49764806
:10032000603825F0D9FB30B17B497348603825F03F
:10033000FDFB02F0C1F810BD10B578496E48483099
:1003400025F0CAFB48B100216B48483025F01AFB64
:1003500072496948483025F0E9FB10BD10B56A497B
:100360006548303825F0B8FBA8B167496248303895
:1003700025F0DCFB01F063FD00215F48303825F0FB
:1003800001FB08215C48303825F01DFB01215A484B
:10039000303825F0F7FA10BD10B50121604826F07D
:1003A000EDF910BD10B501215E4826F0E7F97A207D
:1003B0004F49888001215C4826F092FB01215B486F
:1003C00026F08EFB10BD10B50121594826F0D6F954
:1003D0005748008800F0100028B156480068401EB9
:1003E0005449086004E053480068401C51490860C3
:1003F00010BD704710B50121880726F0BFF94FF0F6
:100400008040008800F0100028B14B480068401E72
:100410004949086004E048480068401C46490860B3
:1004200010BD10B50121454826F0A8F943480088C1
:1004300000F0100028B142480068401E40490860A2
:1004400004E03F480068401C3D49086010BD10B5FD
:1004500001213C4826F092F93A48008800F010004B
:1004600028B139480068401E3749086004E0364822
:100470000068401C3449086010BD10B501213348A4
:1004800026F07CF93148008800F0100028B130488F
:100490000068401E2E49086004E02D480068401C9A
:1004A0002B49086010BD7047704710B5042025F037
:1004B000D5FBD8B12021274824F059FC0421264837
:1004C00024F030FC012804D10021164825F0D6FC88
:1004D00009E00421204824F025FC20B9114825F02A
:1004E000D1FC1E49086004201D49086010BD7047FA
:1004F0000010014020800020706002400080202019
:10050000008800102864024000802010A20800200B
:100510008C0000200088002020800010008000282F
:10052000001000400014004000480040001401404A
:10053000000001406C00002070000020000400401A
:10054000740000200008004088000020000C0040DB
:100550007800002000000240000C024068000020EB
:10056000143C014070B50446204628F047FA054681
:100570002146F94828F049FAA8B140F22B12214649
:10058000F54828F02FFA0021F44825F0FBF9F2484D
:10059000F2490C310860F148B838C0F8BC5001216C
:1005A000EE4825F0EFF970BD70B50446002510E067
:1005B000605D68B1615DEA4826F0BDFA00BF802148
:1005C000E74826F068FB0028F9D0681CC5B200E0B7
:1005D00070BDEDE770B5044600250FE05CB1214623
:1005E000DF4826F0A8FA00BF8021DD4826F053FB43
:1005F0000028F9D000E070BD681CC5B2032DEDDB0A
:1006000000BFF8E713B50C460020FFF7E3FFD5A0C5
:10061000FFF7CAFF2346D4A29621D44828F036FD1E
:10062000D248FFF7C1FFD2A0FFF7BEFFCEA29621AE
:10063000CE48009B28F02AFDCC48FFF7B5FFCEA09E
:10064000FFF7B2FFFF20FFF7C5FFFF20FFF7C2FF54
:10065000FF20FFF7BFFF1CBD70B505460C46C1A0CB
:10066000FFF7A2FF2246C0A1C04828F027FDBF48DF
:10067000FFF79AFFBEA0FFF797FF2846FFF794FF0A
:10068000BDA0FFF791FFFF20FFF7A4FF70BD77B576
:1006900085B00546FF26B6A103C9CDE90301B6A082
:1006A00000680290AFA00068019000240AE00020DA
:1006B000B2490855B2490855AC490855A6490855EC
:1006C000601CC4B21E2CF2DB0A20A8490870FF206F
:1006D00048708870C870A4A1A948079A28F0EEFC59
:1006E000A74901A828F072F901A9A04828F06EF9DD
:1006F00003A99E4828F06AF929469C4828F066F923
:1007000099A19F48069A28F0D9FC9D49974828F05E
:100710005DF902A9954828F059F9FF20974908701A
:1007200048708870914828F051F99048FFF71AFFF7
:1007300008B070BDF7B584B005460E46FF278CA102
:1007400003C9CDE902018CA00068019085A0006872
:100750000090002408E00020884908558849085581
:1007600082490855601CC4B20A2CF4DB0A207F4978
:100770000870FF2048708870C8707BA18048069A76
:1007800028F09CFC7E49684628F020F969467748A5
:1007900028F01CF902A9754828F018F92946734871
:1007A00028F014F93146714828F010F901A96F4872
:1007B00028F00CF9FF2071490870487088700020FB
:1007C000C8700871694828F001F96848FFF7CAFE47
:1007D00007B0F0BD01B58EB06AA2322101A80E9B10
:1007E00028F054FC01A8FFF7BDFE0FB000BD73B5A3
:1007F00084B00546FF265EA103C9CDE902015EA0D3
:100800000068019057A00068009000240AE00020D2
:100810005A4908555A490855544908554E490855EA
:10082000601CC4B21E2CF2DB0A2050490870FF2065
:1008300048708870C8704CA15148059A28F03EFC59
:100840004F49684628F0C2F86946484828F0BEF883
:1008500002A9464828F0BAF82946444828F0B6F8D4
:100860004749424828F0B2F801A9404828F0AEF8BC
:10087000FF2042490870487088703C4828F0A6F86C
:100880003A48FFF76FFE06B070BD10B52DED0C8B2A
:1008900082B03F4800783E49497808443C4989780D
:1008A00008443B49C978084439490979084438491A
:1008B000497908443649897908443549C979084451
:1008C0003349097A0844C0B201903148007A00F0F7
:1008D0000F0000909FED2F0AB0EE40DA2C48407ACE
:1008E0000199884272D12A48007A00F00F000D2841
:1008F0006CD127488078C0F17F0000EE100AB8EE76
:10090000C08A2348C078813800EE100AF8EEC08A09
:10091000B5EEC08AF1EE10FA03D1B7EE000AB0EEE0
:10092000408AF5EEC08AF1EE10FA03D1B7EE000A64
:10093000F0EE408ABDEEC80A10EE102A002A01DB54
:10094000134600E05342BDEEE80A10EE100A0028FC
:1009500022DB044621E000005A070020B860024074
:1009600000500040740000002564000024060020B0
:100970002E7478743D220000220000000A07002037
:10098000E20600206A302E76616C3D25640000008E
:10099000E3080020DB0F49404442191901EBD173F1
:1009A0005B10FE4C2360BDEEE80A10EE101A002921
:1009B00001DB0A4600E04A42322A0FDABDEEC80ADD
:1009C00010EE100A002802DB024601E02FE042424E
:1009D000322A03DA0020F249086030E018EE900A6B
:1009E00028F0D9F941EC1B0B18EE100A28F0D3F9C6
:1009F00041EC1C0BB0EE4B1AF0EE6B1AB0EE4C0A49
:100A0000F0EE6C0A28F008FDB0EE40AAF0EE60AA05
:100A10009FEDE40B53EC102B51EC1A0B28F0AAF8C5
:100A200041EC190B28F098F9DD49086007E09DF8C2
:100A300000000D2803D00021DC4826F051F802B058
:100A4000BDEC0C8B10BDDA48007A00F00F000D28C9
:100A500006D1D748007800F0010008B10D2070479A
:100A60000020FCE7D248007800F0100008B1002018
:100A700070470120FCE71CB54FF0804025F002FADA
:100A8000CC49096840EA01400C2190FBF1F000904C
:100A9000002418E04FF0804025F0F4F9C5490968BA
:100AA00040EA01400C2190FBF1F00190DDE90021CA
:100AB000881A002801DB014600E04142052900DADE
:100AC000641C01980090022CE4DB019840421CBD9C
:100AD0001CB5B94825F0D6F9B849096840EA014083
:100AE0000C2190FBF1F00090002417E0B24825F0B3
:100AF000C9F9B249096840EA01400C2190FBF1F0C4
:100B00000190DDE90021881A002801DB014600E0A0
:100B10004142052900DA641C01980090022CE5DBB3
:100B200001981CBD1CB5A64825F0ACF9A54909687B
:100B300040EA01400C2190FBF1F00090002417E006
:100B40009F4825F09FF99F49096840EA01400C2120
:100B500090FBF1F00190DDE90021881A002801DB0B
:100B6000014600E04142052900DA641C019800902A
:100B7000022CE5DB01981CBD1CB5934825F082F9D9
:100B80009249096840EA01400C2190FBF1F0009085
:100B9000002417E08C4825F075F98C49096840EA73
:100BA00001400C2190FBF1F00190DDE90021881A51
:100BB000002801DB014600E04142052900DA641CFF
:100BC00001980090022CE5DB01981CBD01B581B0B5
:100BD00000200090019800EBC0004000009002E06F
:100BE0000098401E009000980028F9D10CBD01B576
:100BF00081B00020009044F2506101984843009079
:100C000002E00098401E009000980028F9D10CBD29
:100C10001CB501211F2024F069FA4FF6FF700090E7
:100C200001208DF8040000208DF8060001208DF8C9
:100C3000070003208DF805006946654824F010F888
:100C40004FF6FF70009001208DF8040000208DF811
:100C5000060001208DF8070003208DF80500694685
:100C60005C4823F0FDFF4FF6FF70009001208DF8E7
:100C7000040000208DF8060001208DF807000320F5
:100C80008DF805006946544823F0EAFF1CBD1CB5E9
:100C900001217E2024F02AFA4FF4CE50009000204B
:100CA0008DF8040001208DF8070002208DF8050062
:100CB00069464A4823F0D4FF4FF6C7400090002011
:100CC0008DF8040001208DF8070002208DF8050042
:100CD00069463F4823F0C4FF4FF471700090002034
:100CE0008DF8040001208DF8070002208DF8050022
:100CF0006946384823F0B4FF4CF6034000900020CA
:100D00008DF8040001208DF8070002208DF8050001
:100D10006946314823F0A4FF4FF42660009000207C
:100D20008DF8040001208DF8070002208DF80500E1
:100D300069462B4823F094FF1CBD1FB54FF4E060BB
:100D400023F0B0FE36208DF8000000208DF8010061
:100D50008DF8020001208DF80300684623F0A7FEFD
:100D60000121102024F0F5F93220ADF8040040F202
:100D7000E73002900020ADF80C00ADF8060001A9A4
:100D8000184825F032F80121164825F0F7FC012219
:100D90001146144825F0CAFC002125E0CC000020B3
:100DA000C800002000000080A9E781400048004002
:100DB000E3080020700000200004004074000020C0
:100DC0000008004088000020000C0040780000204F
:100DD0000004024000080240000C024000000240F3
:100DE0000010024000100040FE4825F047F80121A5
:100DF000FC4825F083F81FBD1FB54FF4E06023F0D9
:100E000051FE37208DF8000000208DF801008DF88C
:100E1000020001208DF80300684623F048FE0121FE
:100E2000202024F096F93220ADF8040040F2E7309B
:100E300002900020ADF80C00ADF8060001A9EA48C8
:100E400024F0D3FF0121E84825F098FC0122114647
:100E5000E54825F06BFC0021E34825F00FF801215F
:100E6000E14825F04BF81FBD00B58BB001210220F1
:100E700024F080F901210C2024F038F90322062106
:100E8000DA4823F078FF03220721D84823F073FFC4
:100E900003220821D54823F06EFF03220921D348FD
:100EA00023F069FF4FF47070069002208DF81C004B
:100EB00003208DF81D0000208DF81E0001208DF804
:100EC0001F0006A9C94823F0CBFEA420ADF82000DE
:100ED00040F6B83009904FF48070ADF8280000203B
:100EE000ADF8220008A9C24824F07FFF6020ADF8C9
:100EF00004000120ADF8060000200390ADF81000BA
:100F00000121BB4824F0FAFF0021B94824F0B6FFC4
:100F100001A9B74824F0FEFF01A9B54825F033F830
:100F200001A9B34825F07CF801A9B14825F0DEF805
:100F30000121AF4825F0D3FB0BB000BD00B58BB04D
:100F40000121082024F005F90121084624F0CEF8FB
:100F500002220021A74823F00EFF02220121A5480A
:100F600023F009FF02221146A24823F004FF0222C7
:100F70000321A04823F0FFFE0F20069002208DF8E9
:100F80001C0003208DF81D0000208DF81E0001209C
:100F90008DF81F0006A9974823F062FEBA20ADF82D
:100FA000200042F2107009900020ADF82800ADF842
:100FB000220008A9904824F018FF6020ADF8040032
:100FC0000120ADF8060000200390ADF810000121CB
:100FD000894824F093FF0021874824F04FFF01A99E
:100FE000854824F097FF01A9834824F0CCFF01A98C
:100FF000814825F015F801A97F4825F077F80121EF
:101000007D4825F06CFB0BB000BD00B58BB0012115
:10101000042024F09EF801210D2024F067F802221C
:101020000C21764823F0A7FE02220D21734823F0FD
:10103000A2FE02220E21714823F09DFE02220F2102
:101040006E4823F098FE4FF47040069002208DF811
:101050001C0003208DF81D0000208DF81E000120CB
:101060008DF81F0006A9654823F0FAFDA420ADF80D
:10107000200040F6B83009904FF48070ADF8280099
:101080000020ADF8220008A95D4824F0AEFE6020E3
:10109000ADF804000120ADF8060000200390ADF883
:1010A00010000121564824F029FF0021544824F063
:1010B000E5FE01A9524824F02DFF01A9504824F073
:1010C00062FF01A94E4824F0ABFF01A94C4825F06E
:1010D0000DF80BB000BD00B589B00121080424F063
:1010E00049F80121084624F001F80322114641483D
:1010F00023F041FE032202213E4823F03CFE0C2057
:10110000019002208DF8080003208DF809000020CE
:101110008DF80A0001208DF80B0001A9354823F055
:101120009FFD0020ADF818004FF6FF7007900020DB
:10113000ADF82000ADF81A0006A9324824F055FE9B
:101140000420ADF80C000020ADF80E00C820ADF86A
:1011500014000120ADF8100003A92A4825F01CFA5C
:1011600000231A460321284825F0B3FB0121264815
:1011700025F004FB01221146234825F0D7FA01216E
:10118000204824F0BBFE00211F4824F077FE09B060
:1011900000BD00B589B00121084623F0DAFF012126
:1011A000022023F0D6FF0121032023F09FFF01221C
:1011B0000F21104823F0DFFD01220321134823F003
:1011C000DAFD02220421114823F0D5FD0222052177
:1011D0000E4823F0D0FD3820019002208DF8080041
:1011E000032015E0001000400014004000080240F9
:1011F0000004014000000240000C0040000C0240CE
:10120000000800400000014000400140000402408E
:101210008DF8090000208DF80A0001208DF80B00E0
:1012200001A9FE4823F01CFD4FF40040019002206C
:101230008DF8080003208DF8090000208DF80A00C1
:1012400001208DF80B0001A9F54823F009FD0020CD
:10125000ADF818004FF6FF7007900020ADF82000A1
:10126000ADF81A0006A94FF0804024F0BEFD06A993
:10127000EC4824F0BAFD0420ADF80C000220ADF8D3
:101280000E001420ADF814000120ADF8100003A9E1
:10129000800725F081F903A9E24825F07DF90223B2
:1012A0001A460321580725F014FB02231A4603218E
:1012B000DC4825F00EFB0121880725F05FFA0121AB
:1012C000D84825F05BFA01221146900725F02EFA46
:1012D00001221146D34825F029FA0121880724F07C
:1012E0000DFE0121CF4824F009FE00214FF080407F
:1012F00024F0C4FD0021CB4824F0C0FD4FF4C060B1
:1013000023F0D0FB1D208DF8000003208DF8010094
:1013100000208DF8020001208DF80300684623F0BC
:10132000C6FB1C208DF8000004208DF80100002071
:101330008DF8020001208DF80300684623F0B7FB0A
:1013400009B000BD00B589B00121084623F012FFA5
:101350000121102023F0CAFE4FF4206001900220EA
:101360008DF8080003208DF8090000208DF80A0090
:1013700001208DF80B0001A9AB4823F071FC01227C
:101380000921A94823F0F7FC01220B21A64823F0EC
:10139000F2FC0020ADF818004FF6FF700790002017
:1013A000ADF82000ADF81A0006A9A04824F01DFDF4
:1013B0000420ADF80C000020ADF80E000A20ADF8B6
:1013C00014000120ADF8100003A9984825F0E4F8B6
:1013D00000231A460321954825F07BFA0121934802
:1013E00025F0CCF901221146904825F09FF9012102
:1013F0008E4825F0C3F9012211468C4825F096F954
:1014000001218A4824F07AFD0021884824F036FD25
:101410004FF4C06023F046FB19208DF80000012036
:101420008DF8010000208DF8020001208DF80300E6
:10143000684623F03CFB09B000BD00B589B001212E
:10144000042023F086FE0121082023F04FFE4FF4F4
:101450004050019002208DF8080003208DF809000B
:1014600000208DF80A0001208DF80B0001A97048BA
:1014700023F0F6FB0020ADF818004FF6FF70079040
:101480000020ADF82000ADF81A0006A9694824F044
:10149000ACFC02220C21664823F06DFC02220D21D7
:1014A000634823F068FC0420ADF80C000220ADF87E
:1014B0000E00C820ADF814000120ADF8100003A9FB
:1014C0005C4825F069F802231A460321594825F0A3
:1014D00000FA0121574825F051F9012211465548DB
:1014E00025F024F90121534824F008FD002151483A
:1014F00024F0C4FC00204F491431088001204D49DC
:1015000008804FF4C06023F0CDFA1E208DF8000053
:1015100004208DF8010000208DF8020001208DF8D4
:101520000300684623F0C3FA09B000BD00B589B0D6
:101530000121082023F00DFE0121084623F0D6FDED
:101540000320019002208DF8080003208DF8090087
:1015500000208DF80A0001208DF80B0001A9304809
:1015600023F07EFB0020ADF818004FF6FF700790C7
:101570000020ADF82000ADF81A0006A92E4824F08E
:1015800034FC02220021264823F0F5FB022201212F
:10159000234823F0F0FB0420ADF80C000220ADF846
:1015A0000E00C820ADF814000120ADF8100003A90A
:1015B000214824F0F1FF02231A4603211E4825F09A
:1015C00088F901211C4825F0D9F8012211461A4852
:1015D00025F0ACF80121184824F090FC00211648B1
:1015E00024F04CFC002014491431088001201249D9
:1015F00008804FF4C06023F055FA32208DF80000C7
:1016000004208DF8010000208DF8020001208DF8E3
:101610000300684623F04BFA09B000BD0004024005
:1016200000000240000400400010024000000140A1
:10163000000C024000080040000C004000B59BB0C8
:101640000121FE4823F052FD0121080223F092FD02
:1016500000200290FA480390FA4804900020059078
:101660000E200690002007904FF480600890400004
:10167000099080000A9040110B9040020C900020CD
:101680000D9001200E9000200F90109002A9EE48BE
:1016900024F03EF90121EC4824F074F9FC2000907C
:1016A00003208DF8040000208DF807006946E74804
:1016B00023F0D6FA4FF44070009003208DF8040018
:1016C00000208DF807006946E14823F0C9FA3F2061
:1016D000009003208DF8040000208DF80700694673
:1016E000DC4823F0BDFA002011904FF440301290F6
:1016F00000201390149011A823F070FE4FF080701A
:10170000159001208DF858008DF859000020179091
:10171000189019900E208DF8680015A9C8484C380B
:1017200023F02DFE072301220221C5484C3823F067
:10173000ACFE072302220321C1484C3823F0A5FE4A
:10174000072303220421BE484C3823F09EFE0723C2
:1017500004220521BA484C3823F097FE07230522BE
:101760000621B7484C3823F090FE0723062219467D
:10177000B3484C3823F089FE07231A460821B048A5
:101780004C3823F082FE072308220921AC484C384C
:1017900023F07BFE072309220A21A9484C3823F0B5
:1017A00074FE07230A220B21A5484C3823F06DFE56
:1017B00007230B220C21A2484C3823F066FE072396
:1017C0000C220D219E484C3823F05FFE07230D228A
:1017D0000E219B484C3823F058FE07230E220F2180
:1017E00097484C3823F051FE012195484C3823F09E
:1017F000F7FE012192484C3823F0E7FE0121904882
:101800004C3823F002FE8E484C3823F09AFE1BB071
:1018100000BD08B54FF4E06023F044F925208DF8B1
:10182000000000208DF801008DF8020001208DF8E5
:101830000300684623F03BF908BD10B596B0044696
:101840000121102023F096FC0121084623F04EFCD4
:101850000121880523F04AFC4FF4C060009002206B
:101860008DF8040000208DF806008DF80700022096
:101870008DF805006946754823F0F2F90722092121
:10188000724823F078FA07220A21704823F073FA8D
:1018900002940020ADF80C00ADF80E00ADF8100079
:1018A000ADF814000C20ADF8120002A96A4825F02A
:1018B0008FF80121684825F013F94FF4A06023F058
:1018C000F1F83A208DF8180000208DF819008DF8F5
:1018D0001A0001208DF81B0006A823F0E8F85A48EA
:1018E000303023F073FF4FF00060079000200A9023
:1018F0005A4809900A200B905748001D0890002074
:101900000C904FF480600D9000200E900F904FF4DB
:1019100080701090400211900420129003201390C8
:1019200000201490159007A94748303023F0F0FFAD
:1019300001224021484825F080F901221021424827
:10194000303024F0ACF801213F48303024F01AF850
:1019500016B010BD10B596B004460121480523F01D
:10196000C5FB0121480423F0F4FB0121082023F0EA
:10197000BDFB6020009002208DF8040000208DF84F
:1019800006008DF8070002208DF8050069463448EE
:1019900023F066F907220521314823F0ECF90722EC
:1019A00006212F4823F0E7F902940020ADF80C003F
:1019B000ADF80E00ADF81000ADF814000C20ADF835
:1019C000120002A9274825F003F80121254825F037
:1019D00087F84FF4A06023F065F811208DF8180007
:1019E00000208DF819008DF81A0001208DF81B00D9
:1019F00006A823F05CF81C4823F0E8FE4FF00060D6
:101A0000079040200A901948099050200B901548E3
:101A1000001D089000200C904FF480600D90002075
:101A20000E900F904FF4807010904002119004209F
:101A30001290032013900020149019E0070040003A
:101A40004C20014086080020106402400000024043
:101A5000000402400008024000100140A2080020DB
:101A6000000C024000440040A0600240040000203E
:101A7000159007A9FE4823F04BFF01228021FD4865
:101A800025F0DBF801228021FA4825F0D6F8012262
:101A90001021F74824F003F80121F54823F072FFE4
:101AA00016B010BD10B596B004460121880423F08D
:101AB00050FB0121082023F019FB0121480523F0E8
:101AC00015FB4FF44070009002208DF804000020B8
:101AD0008DF806008DF8070002208DF80500694694
:101AE000E54823F0BDF807220821E34823F043F935
:101AF00007220921E04823F03EF902940020ADF8C6
:101B00000C00ADF80E00ADF81000ADF814000C207C
:101B1000ADF8120002A9D94824F05AFF0121D74894
:101B200024F0DEFF4FF4A06022F0BCFF0C208DF803
:101B3000180000208DF819008DF81A0001208DF88A
:101B40001B0006A822F0B3FFC948783823F03EFEF8
:101B50004FF00060079000200A90C94809900A20C1
:101B60000B90C648001D089000200C904FF4806038
:101B70000D9000200E900F904FF480701090400256
:101B800011900420129003201390002014901590BF
:101B900007A9B748783823F0BBFE01224021B74897
:101BA00025F04BF801224021B44825F046F80122E7
:101BB0001021AF48783823F072FF0121AC48783803
:101BC00023F0E0FE16B010BD10B596B0044601211A
:101BD000C80423F0BEFA0121042023F087FA012172
:101BE000480523F083FA4FF44060009002208DF8FE
:101BF000040000208DF806008DF8070002208DF803
:101C0000050069469F4823F02BF808220A219D48C9
:101C100023F0B1F808220B219A4823F0ACF8029483
:101C20000020ADF80C00ADF80E00ADF81000ADF8D6
:101C300014000C20ADF8120002A9934824F0C8FE4D
:101C40000121914824F04CFF4FF4A06022F02AFFBC
:101C50000D208DF8180003208DF8190001208DF853
:101C60001A008DF81B0006A822F021FF804860387A
:101C700023F0ACFD4FF00060079000200A908348ED
:101C8000099008200B908048001D089000200C90BF
:101C90004FF480600D9000200E900F9010904FF444
:101CA0000030119000201290032013900020149017
:101CB000159007A96E48603823F02AFE01224021C2
:101CC000714824F0BAFF012280216F4824F0B5FF4B
:101CD000012210216648603823F0E1FE01216448AA
:101CE000603823F04FFE16B010BD70B5684C246804
:101CF000642C00DB70BD674C248804EB8404664DC3
:101D00002C446070634C248804EB84042C44A17040
:101D1000604C248804EB84042C44E2705D4C2488DD
:101D200004EB84042C4423715A4C2488641C6425DD
:101D300094FBF5F605FB1644564D2C80544C246854
:101D4000641C534D2C6000BFD4E701465048006826
:101D500008B9002070475148008800EB80004E4AC7
:101D6000104402680A60007908710120F2E7014618
:101D70004748006808B9002070474848008800EBD1
:101D80008000454A104402680A600079087143489F
:101D90000088401C642290FBF2F302FB13003F4AD0
:101DA00010803B480068401E394A10600120E3E77C
:101DB0000CB56846FFF7DBFF0020394908700CBD01
:101DC0000346012B03DB062B01DC18467047012973
:101DD00003DB062901DC0846F8E7012A03DB062AB3
:101DE00001DC1046F2E70020F0E710B52D48C07F77
:101DF00040F004002B49C8774FF4FA6026F092F9BE
:101E00002848C07F40F008002649C8774FF4FA60A0
:101E100026F088F92348C07F40F040002149C87768
:101E20004FF4FA6026F07EF91E48C07F40F01000A3
:101E30001C49C8774FF4FA6026F074F910BD10B54C
:101E400012480078114949780844104989780844B3
:101E50000E49C97808440D49097908440B49497964
:101E60000844C4B20948007802281DD010BD000003
:101E7000A060024000440040000C024000480040C6
:101E8000E308002000080240004C0040A7020020A8
:101E9000C4020020C8020020F2080020CA0200206C
:101EA000CD02002004000020FE48C079032800D0A5
:101EB00010BDFC488079A0427DD1FA484078FA49AB
:101EC0000870F8488078F9490870F648C078F849F1
:101ED0000870F4480079F7490870F2484079F649EB
:101EE0000870F1480078012808D1F04800780228ED
:101EF00004D108460078F149086028E1EA480078F2
:101F0000022807D1E9480078012803D10020EC49D4
:101F100008601CE1E448007802280AD1E348007810
:101F20000A2806D1E2480078012802D1E549086074
:101F30000DE1DD48007802280AD1DC4800780A2843
:101F400006D1DB480078022802D1DE490860FEE0B5
:101F5000D548007802280AD1D4480078092806D14B
:101F6000D3480078012802D1D7490860EFE0CE4875
:101F7000007802280AD1CD480078092806D1CC483B
:101F80000078022802D1D0490860E0E0C648007815
:101F9000022856D1C5480078022852D1C648037895
:101FA000C4480278C2480178C0480078FFF79DFE17
:101FB000C648C07F00E0C1E040F00200C349C877D6
:101FC000BB48007880B9BB480078012807D0B948E1
:101FD0000078022803D0B7480078032804D1BC4811
:101FE0000068401CBA490860B148007804280BD149
:101FF000B0480078052807D10120B6490860AE48EE
:102000000078B54908600CE0A9480078042808D198
:10201000A8480078062804D10020AE490860AF49DE
:102020000860A3480078052891D1A24800780528C7
:1020300006D10120A94908609F480078A649086098
:1020400085E09948007802281BD198480078032839
:1020500017D1994802789748017895480078FFF79A
:10206000AFFE9F4908609948C07F40F00200974941
:10207000C8779B480068002869D00120994908600A
:1020800065E089480078022823D188480078042830
:102090001FD18748007801280BD186480078012895
:1020A00007D1914908608948C07F40F00200874904
:1020B000C8777F4800788D4908607E4800788C4951
:1020C00008607D4800788B490860012086490860D7
:1020D0003DE075480078022821D174480078052831
:1020E0001DD173480078012809D172480078012871
:1020F00005D171480078012801D17F4908606C48FA
:102100000078022823D16B48007802281FD16A4842
:1021100000787849086001207849086017E0624833
:102120000078032813D16148007803280FD1604854
:10213000007803280BD1FFF758FE08E0FF205B4929
:1021400008705B4908705B4908705B49087000BF04
:10215000AEE65F480068022803D1012068490860A4
:1021600002E0002066490860704710B596B004464A
:102170000121480522F0BAFF0121080522F0E9FFFC
:1021800001210C2022F0B2FF0420009002208DF8E3
:10219000040000208DF806008DF8070002208DF85D
:1021A00005006946574822F05BFD4FF480500090CF
:1021B00002208DF8040000208DF806008DF807003D
:1021C00002208DF8050069464F4822F049FD08229B
:1021D00002214C4822F0CFFD08220C214A4822F06F
:1021E000CAFD4FF4A06022F05DFC2F208DF818008E
:1021F00005208DF819008DF81A0001208DF81B00BC
:1022000006A822F054FC0B208DF8180005208DF84C
:1022100019008DF81A0001208DF81B0006A822F085
:1022200046FC02940020ADF80C00ADF80E00ADF8AD
:102230001000ADF814000C20ADF8120002A93348CC
:1022400024F0C6FB0121314824F04AFC304823F039
:10225000BDFA4FF00060079040200A902D48099089
:102260000A200B902948001D089000200C904FF484
:1022700080600D9000200E900F9010904FF4003071
:1022800011900020129003201390002014901590BC
:1022900007A91F4823F03CFB1D48A83823F096FAF5
:1022A0003AE00000A7020020AF020020B0020020A8
:1022B000B1020020B2020020B3020020E0020020A0
:1022C000E402002000030020080300200400002096
:1022D00010030020D0020020DC020020D8020020E1
:1022E000E80200200C03002004030020EC02002080
:1022F000F0020020F4020020F8020020FC0200207E
:1023000038020020000C024000080240005000404B
:10231000B86002405A0700204FF00060079000208C
:102320000A90F748099005200B90F6480890002085
:102330000C904FF480600D9000200E900F90109044
:102340004FF40030119000201290032013900020D1
:102350001490159007A9EC4823F0DAFA01228021A5
:10236000E848001F24F069FC01224021E548001FD5
:1023700024F063FC01221021E348A83023F08FFBF6
:1023800001221021E04823F08AFB0121DE48A83019
:1023900023F0F8FA0121DC4823F0F4FA16B010BD5E
:1023A00010B596B004460121202022F0E3FE012161
:1023B000042022F09BFE0121880522F097FEC02018
:1023C000009002208DF8040000208DF806008DF8A2
:1023D000070002208DF805006946CC4822F040FC39
:1023E00008220621C94822F0C6FC08220721C74856
:1023F00022F0C1FC02940020ADF80C00ADF80E00F4
:10240000ADF81000ADF814000C20ADF8120002A9D0
:10241000BF4824F0DDFA0121BD4824F061FB4FF4F0
:10242000A06022F03FFB39208DF8180003208DF8C2
:10243000190001208DF81A008DF81B0006A822F063
:1024400036FBB44823F0C2F94FF02060079000201B
:102450000A90B148099008200B90AD48001D0890E3
:1024600000200C904FF480600D9000200E900F9093
:1024700010904FF400301190002012900320139020
:1024800000201490159007A9A24823F041FA0122D8
:1024900040219F4824F0D1FB012280219C4824F058
:1024A000CCFB012210219B4823F0F9FA0121994825
:1024B00023F068FA16B010BD97490978964A527809
:1024C0001144954A92781144934AD2781144924A21
:1024D00012791144904A52791144C8B28E49097850
:1024E000022900D070478C49C979032900D0F9E747
:1024F00089498979814218D187494978874A117079
:1025000085498978864A11708349C978854A11704E
:1025100081490979844A11707F494979834A117048
:1025200081490978824A117006E0FF217D4A1170C5
:102530007D4A11707D4A117000BFD3E700B585B0A8
:102540000121082022F0D2FD0121880322F012FE91
:1025500000208DF8100001208DF813000C2003904E
:1025600003A9744822F07CFB0221032024F0FEFB27
:102570000420009000208DF8040010208DF8050044
:1025800001208DF80600684623F002FB08208DF834
:10259000080000208DF809008DF80A0001208DF850
:1025A0000B0002A822F083FA05B000BD70B5044606
:1025B0000D46012C0BD129465F4824F0BCFA00BF20
:1025C00040215D4824F067FB0028F9D038E0032C57
:1025D0000BD12946594824F0AEFA00BF4021574894
:1025E00024F059FB0028F9D02AE0042C0BD129460D
:1025F000534824F0A0FA00BF4021514824F04BFB7F
:102600000028F9D01CE0052C0DD129463D48001FBB
:1026100024F091FA00BF40213A48001F24F03BFB10
:102620000028F8D00CE0062C0AD12946384824F0BE
:1026300082FA00BF4021364824F02DFB0028F9D053
:1026400070BD2DE9F04702240125022600274FF036
:1026500000084FF0030960193044384440443949B8
:102660000978084400F0FF0A21460420FFF79EFF86
:1026700029460420FFF79AFF31460420FFF796FF12
:1026800039460420FFF792FF41460420FFF78EFFF2
:102690002C4801780420FFF789FF51460420FFF7FA
:1026A00085FF49460420FFF781FFBDE8F087002041
:1026B0002549486225490860254908602549086080
:1026C0007047002020494862204908604FF080414F
:1026D00048622149086021490860214908601C4975
:1026E00008601C4908601F4908601F49086070475E
:1026F00000204FF080414862174908607047000091
:10270000E60A002004500040106002400008024029
:102710000014014028640240140300201C03002020
:102720001D0300201E0300201F03002020030020A3
:1027300021030020000C024000100140004800402E
:10274000004C0040E0020020000001406C0000202E
:10275000240800408800002070000020240400406D
:1027600074000020240C0040780000200020FE4966
:102770000860FE490860704710B50020FC490870E9
:10278000002407E061210120FFF710FF3220FEF74F
:102790002EFA641C022CF5D30120F54908707A202A
:1027A000F449087010BD10B50020F34908700024EA
:1027B00007E061210320FFF7F9FE3220FEF717FA48
:1027C000641C022CF5D30120EB4908707A20EB49F8
:1027D000087010BD2DE9F14FAEB0E9A02D9000209A
:1027E0002C908DF888008DF860002E9829283DD215
:1027F000DFE800F0153D464D545B626970777E85D9
:102800008C939AA1A8FDFCFBFAF9F8F7F6F5F4F31E
:10281000F2F1F0EFEEEDECEBEAE9E8E7E600022199
:10282000E04822F07FFA88B100224FF40041DE48F0
:1028300022F096FA4FF40041DB4822F080FA044679
:1028400000222146D9A0FDF722FF0FE00122D1038B
:10285000D54822F085FA4FF40041D34822F06FFAB0
:10286000044600222146D9A0FDF711FF37E30122DB
:10287000DE48B0F900004142DDA0FDF708FF2EE37D
:102880000222DD480168DDA0FDF701FF27E30322F6
:10289000DD480168DDA0FDF7FAFE20E30422E048F0
:1028A0000168E0A0FDF7F3FE19E30522E0480168A6
:1028B000E0A0FDF7ECFE12E30622E2480168E2A088
:1028C000FDF7E5FE0BE30722E2480168E2A0FDF711
:1028D000DEFE04E30822E4480168E4A0FDF7D7FE29
:1028E000FDE20922E5480168E5A0FDF7D0FEF6E229
:1028F0000A22E7480168E7A0FDF7C9FEEFE20B22D4
:10290000E7480168E7A0FDF7C2FEE8E20C22E948CB
:102910000168E9A0FDF7BBFEE1E20D22EB4801688A
:10292000EBA0FDF7B4FEDAE20E22ED480168EDA05F
:10293000FDF7ADFED3E2EF4841890F22EEA0FDF78F
:10294000A6FECCE20121F04822F0ECF94FF4005150
:102950001790954822F0E6F904460221EA4822F051
:10296000E1F905464FF480418F4822F0DBF9064635
:102970000421E54822F0D6F94FF400411690E248D0
:1029800022F0D0F907460821DF4822F0CBF9804633
:102990004FF48041DC4822F0C5F981461021DA4825
:1029A00022F0C0F94FF400511590D74822F0BAF93F
:1029B00082460821D54822F0B5F94FF4805117E03E
:1029C00086E27EE276E26EE266E25EE256E24AE2AB
:1029D00040E236E22CE222E216E20AE2FDE1F1E117
:1029E000E4E1D7E1CFE1C2E1BAE1B2E1AAE13CE042
:1029F0001490C54822F096F910211390C34822F094
:102A000091F94FF480611290BF4822F08BF9834610
:102A10008021BD4822F086F94FF480711190BA48A8
:102A200022F080F910901798CDE90B65CDE90D40A3
:102A30001698CDE90798CDE90970DDE913121598CC
:102A4000CDE9042A03910690DDE91110CDE9001BC0
:102A50000290AFA2282122A8109B26F017FB10227B
:102A600022A9B4A0FDF766FE39E280214D4822F08C
:102A700059F9044601214B4822F054F905464021FA
:102A8000484822F04FF906464FF400419F4822F093
:102A900049F907464FF48051A74822F043F9804690
:102AA0004FF480613F4822F03DF981464FF40061C8
:102AB000A14822F037F94FF400611790394822F00D
:102AC00031F982464FF48061904822F02BF9834619
:102AD0004FF48051334822F025F94FF400611690ED
:102AE0008A4822F01FF94FF4005115902D4822F02A
:102AF00019F94FF480411490844822F013F94FF4EF
:102B000080411390274822F00DF94FF48071129004
:102B1000894822F007F94FF400411190214822F032
:102B200001F9CDE90B76CDE90D5410901798CDE958
:102B300007A0CDE90998DDE915211498CDE9051B19
:102B4000CDE90302DDE911121398CDE900120290DC
:102B50006FA2282122A8109B26F098FA112222A900
:102B600076A0FDF7E7FDBAE12404004074000020E0
:102B7000910000209000002093000020920000208F
:102B80003131313131313131313131313131313135
:102B90003131313131313031313131313131313126
:102BA000000000000004024000080240524F424F63
:102BB0005420322044414E4720434841592053413C
:102BC0004E2058414E483A2020200000524F424F9C
:102BD0005420322044414E4720434841592053411C
:102BE0004E20444F3A202020000000008C0000209E
:102BF000494D553A00000000A40000204C617A6560
:102C00007220706861690000B800002054726F2063
:102C10006368616E205472756F633A200000000093
:102C2000A00000204C617A657220747261692000F6
:102C3000BC00002054726F206368616E2053617580
:102C40003A202000980000204C617A657220736160
:102C500075200000C000002054726F20646179204C
:102C600074617920312000009C0000204C617A655D
:102C700072207472756F632000000000C400002091
:102C800054726F20646179207461792032200000D1
:102C9000080300206D6F64652062616320332000AB
:102CA000B000002054726F20786F617920746179D0
:102CB00020000000000300206D6F64655F636861A1
:102CC000795F72756E673A2000000000F402002000
:102CD0006E6861745F6461745F686F7020000000EB
:102CE000040300206D6F6465206E68617420686F56
:102CF00070200000860800205175616E675F747255
:102D00006F203A200000000000100240000C02403A
:102D1000256425642564256425642564256425646B
:102D2000256425642564256425642564256425645B
:102D300000000000493A000000000240696E323A8B
:102D4000000000001222F9480168F9A0FDF79FFC7D
:102D5000C5E01322FB480168FBA0FDF798FCBEE02C
:102D60001422FC480168FCA0FDF791FCB7E04FF489
:102D70000061FE4821F0D6FF044615222146FCA042
:102D8000FDF785FCABE0FE48018A1622FDA0FDF7A9
:102D90007EFCA4E04FF40071F44821F0C3FF044628
:102DA00017222146FAA0FDF772FC98E04FF400715B
:102DB000FB4821F0B7FF044618222146F9A0FDF791
:102DC00066FC8CE02021E94821F0ACFF0446192282
:102DD0002146F8A0FDF75BFC81E04FF48071F048DC
:102DE00021F0A0FF04461A222146F6A0FDF74FFC71
:102DF00075E04021DD4821F095FF04461B22214665
:102E0000F4A0FDF744FC6AE00121F64821F08AFFB6
:102E100004461C222146F4A0FDF739FC5FE0FDF7D3
:102E200057FE04461D222146F1A0FDF730FC56E076
:102E3000FDF721FE04461E222146F1A0FDF727FCE6
:102E40004DE0FDF799FE04461F222146F0A0FDF754
:102E50001EFC44E0FDF766FE044620222146F0A059
:102E6000FDF715FC3BE04021CD4821F05BFF044617
:102E700021222146EEA0FDF70AFC30E02222F04894
:102E80000168F0A0FDF703FC29E02322F048016867
:102E9000F0A0FDF7FCFB22E02422F1480168F1A03C
:102EA000FDF7F5FB1BE02522F3480168F3A0FDF7D1
:102EB000EEFB14E02622F4480168F4A0FDF7E7FBDE
:102EC0000DE02722F5480168F5A0FDF7E0FB06E0DC
:102ED0002822F6480168F6A0FDF7D9FB00BF00BF25
:102EE0002FB0BDE8F08F10B50121F44822F04AFD63
:102EF00010BD01B5F24800680099884203DD00204A
:102F0000EF49086004E0EE480068401CEC490860A6
:102F1000EB480068FFF75EFC08BD01B59DF80000B6
:102F2000052801DA002008BD9DF80000FBE730B558
:102F300004461D4624B9E3480078E34BD87011E0FD
:102F4000002C07DDE0B2FFF7E8FFDF4BD870002070
:102F5000987007E06342D8B2FFF7DFFFDA4BD87012
:102F60000120987021B9D7480078D74BD87111E06B
:102F7000002907DDC8B2FFF7D0FFD34BD87101207D
:102F8000987107E04B42D8B2FFF7C7FFCE4BD8711C
:102F90000020987122B9CB480078CB4BD87211E051
:102FA000002A07DDD0B2FFF7B8FFC74BD872012067
:102FB000987207E05342D8B2FFF7AFFFC24BD87206
:102FC0000020987225B9BF480078BF4BD87311E034
:102FD000002D07DDE8B2FFF7A0FFBB4BD87301203F
:102FE000987307E06B42D8B2FFF797FFB64BD873E0
:102FF0000020987330BDB44AD070D071D072D073B5
:103000007047B148C07803280DDAAF48C07903286B
:1030100009DAAD48C07A032805DAAB48C07B03283B
:1030200001DA012070470020FCE70120A749086071
:103030007047A748006847F23051884201D001200C
:1030400070470020FCE710B5FFF796FB10BDA148C4
:10305000B0F9000040427047B5EEC00AF1EE10FA38
:1030600009D29D48D0ED000A70EE600AFDEEE00A3C
:1030700010EE900A70479848D0ED000A70EE200AD2
:10308000FDEEE00A10EE900AF4E710B52DED0A8B84
:10309000044624B99FED910ABDEC0A8B10BD002CAB
:1030A00025DA8F48006825F046FE41EC190B2046D2
:1030B00025F041FE41EC1C0B9FED8A0B53EC102BCD
:1030C00025F058FD41EC1B0B9FED880B53EC102BAA
:1030D00025F04AFD41EC1A0B53EC192B25F0BCFDF1
:1030E00041EC180B25F082FE00EE100AD4E77C4874
:1030F000006825F020FE41EC190B204625F01BFE50
:1031000041EC1C0B9FED770B53EC102B25F032FD9F
:1031100041EC1B0B9FED750B53EC102B25F083FC42
:1031200041EC1A0B53EC192BE4E00000C402002020
:10313000636F756E745F646174615F75617274341E
:1031400020000000E0020020626C6F636B5F70681B
:10315000613A2000DC0200207365655F52315F74C4
:1031600072656E5F72756E6720000000001002408D
:1031700043425F4E616E675F7472616920000000B8
:10318000860800205175616E675F74726F3220008F
:1031900043425F4E616E675F7068616900000000C6
:1031A00000080240636865636B5F686F705F313A67
:1031B00000000000636865636B5F686F705F323AA0
:1031C00020000000636865636B5F686F705F333A6F
:1031D00020000000636865636B5F686F705F343A5E
:1031E00020000000000C0240537461727400000063
:1031F000454E434F4445525F465228292000000067
:10320000454E434F4445525F464C2829200000005C
:10321000454E434F4445525F52522829200000003A
:10322000454E434F4445525F524C28292000000030
:1032300063687579656E5F646F695F543320000061
:10324000E802002069645F6461745F686F70200049
:10325000EC020020646F5F6C656368200000000072
:10326000D802002063686F5F72315F62656E5F43F2
:10327000616E682000000000E80000204761705483
:1032800068616E6720000000C00200206E67616EFA
:10329000675F7175615F6F332000000034020020AA
:1032A0006B745F6C6162616E200000002803002077
:1032B000636865636B5F74696D652000A0600240A0
:1032C000840000207003002004000020D4030020AC
:1032D000980300208C000020300300200000000034
:1032E00084030020333333333333C33F9A9999999E
:1032F0009999C93F25F0B0FC41EC180B25F076FDFB
:1033000000EE100AC8E6F0EE400AF5EEC00AF1EE53
:1033100010FA02DBB0EE600A7047B1EE600AFBE71C
:103320000146002901DB084670474842FCE7014698
:10333000FE48D0ED000AF1EE600AFD48D0ED001A1B
:1033400080EEA11A00EE901AF8EEE01AF748D0EDE0
:10335000000A41EE210AB0EE600AFDEEC00A10EE4E
:10336000900A7047B0EE402ADFEDF22AB0EE620A12
:10337000B5EEC02AF1EE10FA03D2F1EE422AB0EE19
:10338000622AF5EEC00AF1EE10FA03D2F1EE602ADD
:10339000F0EE620AB5EEC01AF1EE10FA03D2F1EEC9
:1033A000412AB0EE621AF5EEC01AF1EE10FA03D21D
:1033B000F1EE612AF0EE621AB4EEC02AF1EE10FAD4
:1033C00001DDB0EE420AF4EEC00AF1EE10FA01DDC2
:1033D000B0EE600AB4EEC01AF1EE10FA01DDB0EE04
:1033E000410AF4EEC01AF1EE10FA01DDB0EE610A06
:1033F0007047D14800687047D0480068704710B5E2
:103400002DED028BB0EE408ACD48006847F2305176
:1034100088420ED11FED4F0ACA4880ED000ACA4803
:1034200080ED000AC94880ED000AC94880ED000A15
:103430004AE0C8480068C8490968401AC049096894
:10344000081A00EE100AB8EEC00AF0EE408AC3482F
:10345000D0ED000A88EEA00AC148D0ED000A30EE97
:10346000200AC048D0ED000A20EE200AF0EE408A83
:10347000B0EE680A26F070F9F0EE000A20EE200A9D
:10348000B04880ED000AB0EE680A26F0BDF8F0EE14
:10349000000A20EE200AAC4880ED000AA94890ED11
:1034A000000AB148D0ED000A30EE200AA84880EDAD
:1034B000000AA54890ED000AAB48D0ED000A30EEB6
:1034C000600AA24880ED000AB5EEC08AF1EE10FA5B
:1034D00073D0A6480068052820D2DFE800F003205A
:1034E0003A546F009A4890ED000A30EE080A80EDD9
:1034F000000A964890ED000A30EE480A80ED000A76
:10350000914890ED000A30EE080A80ED000A8D48DF
:1035100090ED000A30EE480A80ED000A68E08B4822
:1035200090ED000A30EE480A80ED000A864890EDE2
:10353000000A30EE080A80ED000A824890ED000A89
:103540008B48D0ED000A08EE600A7E4880ED000A44
:103550004EE07F4890ED000A30EE080A80ED000A48
:10356000794890ED000A8248D0ED000A08EE200A62
:10357000754880ED000A734890ED000A30EE480A65
:1035800080ED000A34E0724890ED000A30EE080A3F
:1035900080ED000A6D4890ED000A7548D0ED000AF4
:1035A00008EE600A694880ED000A664890ED000A5E
:1035B00030EE480A80ED000A1AE01AE0644890ED07
:1035C000000A6B48D0ED000A08EE200A604880ED42
:1035D000000A5E4890ED000A30EE480A80ED000ACD
:1035E000594890ED000A30EE080A80ED000A00BF4D
:1035F00000BF5448D0ED001A534890ED001A5348CC
:10360000D0ED000A524890ED000AFFF7ABFE594892
:10361000D0ED000AF8EEE00A80EE801ABDEEC10A95
:10362000554880ED000A44480068534909688842BB
:1036300003DD514800684049086001204F49086097
:10364000BDEC028B10BD10B5044600204C4908604B
:103650004C480460FCB90020374908601FEDE10ABE
:10366000414880ED000A47F230503549086046492C
:1036700008601FEDE60A454880ED000A00203B493E
:103680000860434908602D490860424908601FED01
:10369000ED0AFFF7B4FE10BD10B53C4890ED000AEE
:1036A000B5EEC00AF1EE10FA05D13048006810B945
:1036B0003748006890B11FEDF70A344880ED000AE2
:1036C00000202A49086032490860224800682249DF
:1036D00008602E4890ED000AFFF791FE10BD1348D8
:1036E000C0ED000A124880ED000A704770B52DED5C
:1036F000028B05460C46B0EE408A11480068A8428D
:103700000BD11F480068A04207D1174890ED000A6E
:10371000B4EE480AF1EE10FA4FD01948046006489A
:10372000006810B905200449086035E068030020EE
:103730006C0300206F12833A84030020B003002042
:1037400098030020D0030020CC030020C8030020F1
:10375000C4030020B8030020A40300204803002075
:103760005403002078030020AC03002080030020D5
:10377000380300202C0300208C0300207C03002051
:1037800088030020900300209C030020A803002051
:10379000A0030020D4030020FA480068FA4908601A
:1037A000FA4880ED008AFA4805600020F94908606F
:1037B000F94890ED000AFFF722FEBDEC028B70BDC8
:1037C00070B52DED028B0446B0EE408A0D46F348ED
:1037D0000068A0420BD1F04890ED000AB4EE480A10
:1037E000F1EE10FA03D1EE480068A8423AD0E8485A
:1037F000006847F23051884225D12820E949086005
:10380000E948006810B90A20E749086047F23050DB
:10381000844218DA0120E5490860B5EEC08AF1EE6D
:1038200010FA03DDD7480068A04208DCB5EEC08A74
:10383000F1EE10FA07D2D3480068A04203DAB1EEE5
:10384000480AB0EE408AD5480460D5480560D248A1
:1038500080ED008A0020CF490860CF4890ED000A33
:10386000FFF7CDFDBDEC028B70BD10B52DED028BC9
:10387000B0EE408A04462146B0EE480A47F2305086
:10388000FFF79EFFBDEC028B10BD70B504460D46E0
:103890009FEDC70A29462046FFF728FF70BD70B587
:1038A0002DED088BF0EE408A0446B0EE608AB0EE53
:1038B000419AC04890ED000AB8EEC00AB4EE680A1A
:1038C000F1EE10FA0DD1B7480068A04209D1B34813
:1038D00090ED000AB8EEC00AB4EE480AF1EE10FA14
:1038E0005ED0BDEEE80AB34880ED000AA54991ED2F
:1038F000000AB8EEC00A38EEC00ABDEEC00A10EEEB
:10390000100A9FEDAB0A2146FFF7F0FE9D4890EDAF
:10391000000AB8EEC00A38EE400ABDEEC00A10EE4A
:10392000105A002D01DB284600E06842642814DDAF
:10393000944890ED000AB8EEC00AB4EEC08AF1EEE9
:1039400010FA02DDB0EE490A01E0B1EE490A10EECC
:10395000101A084625F01FFA13E08A4890ED000A75
:10396000B8EEC00A38EE400A10EE101A084625F0EC
:1039700012FA41EC1B0B9FED900B53EC102B25F032
:10398000F9F841EC1A0B25F031FA09EE900A002102
:10399000B0EE690AFDEEC80A10EE900AFFF710FFBC
:1039A000BDEC088B70BD10B58048006801283DDD76
:1039B0007A490968734A1268881AFFF7B1FC0A2825
:1039C0000CDA7A4801680068401C784A1060B1F54A
:1039D000FA7F2BDD0020FFF736FE10BD734800682C
:1039E000FA2808DD05206F4908606F490860FB2050
:1039F0006E49086004E005206A4908606A49086069
:103A00006048006865490968884205DDBFEE000A24
:103A1000614880ED000A04E0B7EE000A5E4880EDE0
:103A2000000A5D4890ED000AFFF7E9FC00BFD4E70B
:103A300010B52DED028B554890ED000AB5EEC00A89
:103A4000F1EE10FA08D15848006828B153480068D0
:103A500047F23051884202DBBDEC028B10BD4E486C
:103A600090ED000AB5EEC00AF1EE10FA7ED048489B
:103A7000006847F23051884279D1474890ED000AFA
:103A8000B5EEC00AF1EE10FA08DD444800684C4972
:103A90000968401A3B490968884210DB3E4890EDAE
:103AA000000AB5EEC00AF1EE10FA6AD23B4800688F
:103AB00043490968084433490968884261DD3B4845
:103AC000006803285CDA354909682E4A1268881AAA
:103AD000FFF726FC082816DA3048006839490860E4
:103AE0000020314908602F4908609FED310A2A48BB
:103AF00080ED000A02202D490860274890ED000A59
:103B0000FFF77DFCA8E7254800681E490968884240
:103B10005CDD254890ED000AB8EEC00A1E48D0EDE5
:103B2000000A60EE200A264890ED000AB8EEC00AAE
:103B3000C0EE801AB0EE611AB0EE410AFFF7E3FB67
:103B4000164909680F4A1268881AFFF7E9FB00EE68
:103B5000900AB8EEE01A1C48D0ED000A40EE010AC7
:103B6000114890ED000AB8EEC00A01E0CBE068E031
:103B700080EE801AB0EE418AB0EE480AFFF73FFCB3
:103B8000C0E058E0B8030020A4030020AC030020EC
:103B90009803002094030020A8030020A003002025
:103BA000800300208803002084030020B00300204D
:103BB000000000009C0300207B14AE47E17A743FB4
:103BC00064030020B403002044030020FE4890ED6D
:103BD000000AB8EEC00AFD48D0ED000A60EE200AE7
:103BE000FB4890ED000AB8EEC00AC0EE801AB0EEB5
:103BF000611AB0EE410AFFF786FBF6490968F64AFA
:103C00001268881AFFF78CFB00EE900AB8EEE01AF3
:103C1000F248D0ED000A50EE410AEB4890ED000A60
:103C2000B8EEC00A80EE801AB0EE418AB0EE480AC3
:103C3000FFF7E5FB66E0E54890ED000AFFF7DFFBE4
:103C400060E0E24890ED000AB5EEC00AF1EE10FA2D
:103C50001FDDE04890ED000AB8EEC00ADA48D0ED6A
:103C6000000AF8EEE00AD94890ED001A00EEC10A09
:103C7000DB48D0ED000AF8EEE00A70EE600AD648A4
:103C800090ED000AB8EEC00AF4EEC00AF1EE10FAA8
:103C900027D3CE4890ED000AB5EEC00AF1EE10FA37
:103CA0002BD2CC4890ED000AB8EEC00AC648D0ED41
:103CB000000AF8EEE00AC54890ED001A00EEC10ACD
:103CC000C748D0ED000AF8EEE00A70EE200AC248BC
:103CD00090ED000AB8EEC00AF4EEC00AF1EE10FA58
:103CE0000BDDBC490968BC4A1268881AFFF7CDF998
:103CF000B0EE408AFFF783FB04E0B44890ED000A81
:103D0000FFF77DFBA8E6B7490968B34A1268881A2D
:103D1000FFF7BBF9B0EE408AFFF771FB00BF9BE6EF
:103D200000B5B1480068022815DA1FED5F0AAF48F8
:103D300080ED000A1FED620AA44880ED000A002011
:103D4000AB49086047F23050AA490860AA490860A8
:103D50000020A0490860A9480068401CA7490860E5
:103D6000A7490968884204DAA6480068FFF743F9C2
:103D70000EE0A3480068A1490860A348006820B18C
:103D8000A0480068FFF737F902E00020FFF733F999
:103D900000BD9A4A1268521C984B1A60824207DD95
:103DA000894A12680A44884B1A600022934B1A60B1
:103DB00070472DE9F041FFF74AF987490860FFF79E
:103DC000F2FD92480068002821DD7F4800688F4995
:103DD000096888422AD07C4800688C490968884272
:103DE0000EDA794800688A49096888421EDA7648FE
:103DF0000068FFF79CFA04460121FFF7CAFF15E0AF
:103E00004FF0FF3183480068FFF7C3FF0EE06E48B4
:103E10000068002806DD6FF001017F480068FFF7A9
:103E2000B8FF03E0FFF77CFFBDE8F0817B48006846
:103E300069490968884205D0FFF7FAFD66480068BD
:103E40007649086076480068F0B35F48D0ED000A14
:103E5000F8EEE00A734890ED001A60EE810AB0EEC9
:103E6000600AFFF7F9F804465748D0ED000AF8EE6B
:103E7000E00A6D4890ED001A60EE810AB0EE600A2B
:103E8000FFF7EAF805465048D0ED000AF8EEE00AE0
:103E9000664890ED001A60EE810AB0EE600AFFF706
:103EA000DBF806464848D0ED000AF8EEE00A604824
:103EB00090ED001A60EE810AB0EE600AFFF7CCF8D0
:103EC000074623462A4600E002E03146FFF72FF876
:103ED00000BFA9E7574801680068401C554A1060B8
:103EE000462907D25448408B54490968084453492D
:103EF00008600BE0514800684621B0FBF1F05049E2
:103F0000086000204B4908604C4908604D48016832
:103F10000068401C4B4A1060462907D24648008B77
:103F2000494909680844484908600BE04648006868
:103F30004621B0FBF1F04549086000204149086086
:103F400041490860424801680068401C404A1060CE
:103F5000462907D23848808A3E49096808443D49C5
:103F600008600BE03B4800684621B0FBF1F03A499D
:103F70000860002036490860364908603748016803
:103F80000068401C354A1060462907D22A48C08A7A
:103F9000334909680844324908600BE0304800683A
:103FA0004621B0FBF1F02F49086000202B49086042
:103FB0002B4908602C4801680068401C2A4A1060A0
:103FC00032295AD21C4851E084030020A803002063
:103FD00064030020A0030020B80300204403002055
:103FE00060030020A4030020B0030020AC030020E5
:103FF00080030020980300209C03002094030020ED
:104000007403002070030020D403002088030020E4
:104010008C030020C003002090030020BC0300207C
:104020007C030020D0030020CC030020C803002024
:10403000C403002024050020860800202805002055
:10404000980000202C050020300500209C00002056
:104050003405002038050020A40000203C05002085
:1040600040050020A0000020440500204089FD49B3
:1040700009680844FB4908600BE0FA4800683221EF
:10408000B0FBF1F0F84908600020F8490860F549F4
:104090000860F74801680068401CF54A1060322942
:1040A00007D2F448C088F44909680844F249086016
:1040B0000BE0F14800683221B0FBF1F0EF490860F5
:1040C0000020EB490860EC490860ED480168006891
:1040D000401CEB4A1060322907D2E6488088E94943
:1040E00009680844E74908600BE0E64800683221A7
:1040F000B0FBF1F0E44908600020E1490860E149C3
:104100000860E24801680068401CE04A10604629E7
:1041100007D2D8480089DE4909680844DC490860AC
:104120000BE0DB4800684621B0FBF1F0D94908609C
:104130000020D6490860D6490860D7480168006861
:10414000401CD54A1060462907D2CA480088D34986
:1041500009680844D14908600BE0D048006846214E
:10416000B0FBF1F0CE4908600020CB490860CB4994
:104170000860CC4801680068401CCA4A10604629A3
:1041800007D2BC484088C84909680844C649086045
:104190000BE0C54800684621B0FBF1F0C349086058
:1041A0000020C0490860C04908607047C0480068E6
:1041B000B5490968401A03EE100AB8EEC33AF0EEAA
:1041C000430ABC4890ED003A23EE203AF0EE432A31
:1041D000B7480068B8490968884203DAB6480068F9
:1041E000B3490860B2480068B4490968884203DDF1
:1041F000B2480068AE490860BDEEE03A13EE100A1E
:10420000002801DB014600E0414204297EDDAC4884
:1042100090ED003A33EE203A80ED003A90ED003A0E
:10422000DFEDA83AB4EEE33AF1EE10FA03DD9FEDCC
:10423000A53A80ED003AA24890ED003ADFEDA23AAF
:10424000B4EEE33AF1EE10FA03D29FED9F3A80ED1F
:10425000003A9E4890ED003A9948D0ED003A23EE9E
:10426000232A9B4890ED003A30EEC33A9948D0EDAE
:10427000003A63EE231A9648C0ED000A32EE823A05
:1042800033EE213A944880ED003AF5EEC00AF1EEA3
:1042900010FA03D201209149887502E000208F496D
:1042A00088758D4991ED003ABDEEC33A13EE100AC0
:1042B000002801DB014600E0414203EE101AB8EE8F
:1042C000C33AF0EE083A23EE230A854890ED003A0F
:1042D000B8EEC33AB4EEC30AF1EE10FA05DD90ED84
:1042E000003AB8EEC33AB0EE430AB3EE043AB4EE85
:1042F000C30AF1EE10FA03D2B3EE043AB0EE430A69
:10430000784890ED003A30EE431A00E029E09FED46
:10431000763AB4EEC31AF1EE10FA08DD90ED003AE9
:10432000DFED713A33EE233AB0EE430A0FE09FED32
:104330006F3AB4EEC31AF1EE10FA08D2694890ED64
:10434000003ADFED693A33EE633AB0EE430A65486E
:1043500080ED000ABCEEC03A13EE100A5F49C87542
:1043600013E09FED633A564880ED003A9FED603AC6
:10437000574880ED003A02205849C87500208875DA
:104380009FED5B3A574880ED003A70475948006806
:104390003A490968401A03EE100AB8EEC33AB0EE83
:1043A000430A554890ED003A23EE003AF0EE432AD6
:1043B0005048006851490968884203DA4F4800684C
:1043C0004C4908604B4800684D490968884203DD44
:1043D0004B48006847490860BDEEC03A13EE100A2A
:1043E000002801DB014600E04142042939DD45484F
:1043F00090ED003A33EE003A80ED003A90ED003A4D
:10440000DFED303AB4EEE33AF1EE10FA03DD9FED62
:104410002D3A80ED003A3B4890ED003ADFED2A3A24
:10442000B4EEE33AF1EE10FA03D29FED273A80EDB5
:10443000003A354890ED003A3248D0ED003A23EE8C
:10444000232A324890ED003A30EE433A3048D0ED1E
:10445000003A63EE231A2D4880ED000A32EE823ACC
:1044600058E0C6E048050020A800002044050020D0
:104470005C0500208608002060050020BC000020AC
:104480006405002068050020B80000206C050020AD
:1044900070050020B0000020840500208805002061
:1044A000C00000208C05002090050020C4000020E2
:1044B00048040020A40400204004002044040020FC
:1044C000B00400200000FA430000FAC3A804002052
:1044D000B4040020AC040020B80400200400002034
:1044E00080040020BC0400209A99193F9A9919BFB2
:1044F0000000000054040020C00400204C040020F0
:1045000050040020CC040020C4040020D00400206B
:10451000C804002033EE213AFB4880ED003AB5EEA6
:10452000C00AF1EE10FA03D20020F849887402E0C4
:104530000120F6498874F44991ED003ABDEEC33A82
:1045400013EE100A002801DB014600E0414203EEB1
:10455000101AB8EEC33AF0EE083A63EE230AEC48BC
:1045600090ED003AB8EEC33AF4EEC30AF1EE10FA59
:1045700005DD90ED003AB8EEC33AF0EE430AB3EE33
:10458000043AF4EEC30AF1EE10FA03D2B3EE043AA1
:10459000F0EE430ADF4890ED003A30EEC31A1FED0B
:1045A0002E3AB4EEC31AF1EE10FA08DD90ED003A9F
:1045B0005FED333A33EE233AF0EE430A0FE01FED9E
:1045C000353AB4EEC31AF1EE10FA08D2D14890EDA4
:1045D000003A5FED3B3A33EE633AF0EE430ACD48E2
:1045E000C0ED000ABCEEE03A13EE100AC749C874E9
:1045F00013E01FED413AC84880ED003A1FED443A00
:10460000C64880ED003A0220C049C8740120887471
:104610001FED493ABF4880ED003A7047C048006836
:10462000C0490968884203DABE480068BC4908608E
:10463000BB480068BC490968884203DDBA48006885
:10464000B7490860B9490968B54A1268881A00284C
:1046500001DB014600E04142042931DDB348006836
:10466000AF490968884203DD0020A849887602E046
:104670000120A6498876AD490968A94A1268881AB6
:10468000002801DB014600E0414201EB8101890085
:10469000A74A116010460068A6490968884203DDF0
:1046A000A448006811460860A1480068642802DA3E
:1046B00064209F4908609E4800789449C87602E0CB
:1046C00000209249C87670479B4800689B4909685A
:1046D000884203DA9948006897490860964800685C
:1046E00097490968884203DD954800689249086047
:1046F00094490968904A1268881A002801DB01462B
:1047000000E04142042933DD8E4800688A49096887
:10471000884204DD00207D4981F82A0003E0012061
:104720007A4981F82A0087490968834A1268881AF9
:10473000002801DB014600E04142162251437C4A39
:1047400011601046006880490968884203DD7E4890
:1047500000681146086076480068322802DA322084
:104760007349086072480078684981F82B0003E0BB
:104770000020664981F82B00704710B57348006827
:1047800073490968884203DA714800686F49086014
:104790006E4800686F490968884203DD6D4800680B
:1047A0006A4908606C4B1B68684C24681A1B002A15
:1047B00001DB134600E05342022B4EDD5B4B1B68CE
:1047C000664C2468191B002901DB0B4600E04B42B4
:1047D000142B42DA5B4B1B68614C2468181B0028C1
:1047E00001DB034600E04342142B36DA5A480068E6
:1047F00056490968884204DD0120444981F82600B1
:1048000003E00020414981F82600534909684F4AD6
:104810001268881A002801DB014600E0414201EBE2
:104820004101434A1160104600684E4909688842B8
:1048300003DD4C480068114608603D480068322896
:1048400002DA32203A490860394800782F4981F865
:10485000270000204449086006E000202B4981F829
:10486000270001204049086010BD32202849086017
:104870003E49086070475020254908603B49086060
:1048800070478C2022490860384908607047E6204C
:104890001F49086035490860704700B50246FFF7B8
:1048A000F0FF334802603348026000BD00B50246A5
:1048B000FFF7DBFF2E4802602E48026000BD00B506
:1048C0000246FFF7D8FF2A4802602A48026000BD6E
:1048D00000B50246FFF7DBFF25480260254802606D
:1048E00000BD70B5FA20134908601C4800680C49E7
:1048F0000860FA2014490860194800680E490860E9
:1049000000201D4908606FE0D4040020040000204E
:104910007C040020D8040020CC040020D004002017
:104920006C0400206404002068040020C000002003
:10493000E004002088040020780400207004002097
:1049400074040020C40000208C04002060040020B7
:10495000580400205C040020B0000020B4010020B6
:10496000B8010020840400203C04002080040020C2
:1049700048040020540400200404002006E0012024
:1049800023F0D0FBFCF76EF800B927E0FC4B1B6866
:10499000FC4C2468191B002901DB0B4600E04B424C
:1049A000F94C2468F94D2D68621B02EBD274641037
:1049B000A342E4DCF64B1B68F64C24681B1B032463
:1049C00093FBF4F4F44B1B68F44D2D68581B00283E
:1049D00001DB034600E043429C42D0DB00BFF048CD
:1049E0000068401CEE490860ED4800683228C5DBCD
:1049F00070BDEC48006878B9EB48006860B9EB48D6
:104A0000006848B9EA48006830B9EA48C07F40F019
:104A10008000E849C8773DE0E248006801280FD1EE
:104A2000E148006860B9E148006848B9E0480068BA
:104A300030B9E048C07F40F02000DE49C87729E067
:104A4000D8480068012810D1D748006801280CD147
:104A5000D648006848B9D648006830B9D548C07F04
:104A600040F08000D349C87714E0CE4800680128A0
:104A700010D1CD48006801280CD1CC48006801282D
:104A800008D1CB48006828B9CA48C07F40F0200050
:104A9000C849C877704710B5C2480068002852D18D
:104AA000C148006800284ED1C048006800284AD19B
:104AB000BF480068002846D123E00421BE4820F00A
:104AC00031F970B98021BD4820F02CF948B99FED2B
:104AD000BC1ADFEDBC0A0E209FEDBB0AFEF7DFFE1D
:104AE00008E09FEDB71ADFEDB70A0F209FEDB70A78
:104AF000FEF7D5FE012023F015FBFBF7B3FF00B94D
:104B000006E04FF48071B24820F00CF90028D4D0B0
:104B100000BFFFF76EFF9FEDAA1ADFEDAA0A0A2079
:104B20009FEDAC0AFEF7BBFE06E0012023F0FAFA87
:104B3000FBF798FF00B905E004219F4820F0F2F848
:104B40000028F2D006E197480068012851D1964824
:104B5000006800284DD195480068D8BB944800688B
:104B6000C0BB23E00421944820F0DCF870B9802118
:104B7000924820F0D7F848B99FED911ADFED910ADD
:104B80000E209FED910AFEF78AFE08E09FED8C1A39
:104B9000DFED8C0A0F209FED8D0AFEF780FE0120CD
:104BA00023F0C0FAFBF75EFF00B906E04FF4807116
:104BB000874820F0B7F80028D4D000BFFFF719FFCE
:104BC0009FED7F1ADFED7F0A0A209FED820AFEF734
:104BD00066FE07E00DE0012023F0A4FAFBF742FF98
:104BE00000B905E00421744820F09CF80028F2D0B8
:104BF000B0E06C480068012853D16B480068012878
:104C00004FD16A480068E0BB69480068C8BB24E02F
:104C10004FF400616E4820F085F870B901216748B3
:104C200020F080F848B99FED661ADFED660A0E2085
:104C30009FED690AFEF733FE08E09FED611ADFED94
:104C4000610A0F209FED610AFEF729FE012023F083
:104C500069FAFBF707FF00B906E04FF480715C4882
:104C600020F060F80028D3D000BFFFF7C2FE9FED10
:104C7000541ADFED540A0A209FED580AFEF70FFE82
:104C800007E00EE0012023F04DFAFBF7EBFE00B940
:104C900006E04FF400614E4820F044F80028F1D0BF
:104CA00058E040480068012854D13F480068012876
:104CB00050D13E48006801284CD13D480068C8BB2F
:104CC00024E04FF40061424820F02CF870B9012133
:104CD0003A4820F027F848B99FED391ADFED390A34
:104CE0000E209FED3D0AFEF7DAFD08E09FED341A35
:104CF000DFED340A0F209FED350AFEF7D0FD0120CD
:104D000023F010FAFBF7AEFE00B906E04FF4807115
:104D10002F4820F007F80028D3D000BFFFF769FE26
:104D20009FED271ADFED270A0A209FED2C0AFEF7D8
:104D3000B6FD07E00EE0012023F0F4F9FBF792FE48
:104D400000B906E04FF4006121481FF0EBFF002896
:104D5000F1D000BF0020FEF776FC10BD2DE9F04138
:104D600005460E46FFF78DFD1D480068F5301D49CC
:104D700008601D480068F5301C49086000244DE0BB
:104D8000C00000206C040020B40100206404002056
:104D9000B801002070040020C40000207804002026
:104DA00004040020380200203C02002040020020C1
:104DB00044020020040000200010024000040240D1
:104DC0003333333F00006144008009C4000061C4F4
:104DD000000002400000164300C0C1C40080D4445B
:104DE00040040020480400204C040020540400200B
:104DF00006E0012023F096F9FBF734FE00B90BE042
:104E0000FE490968FE4A1268881A002801DB01463B
:104E100000E041420F29ECDC00BF641C322CE7DBD0
:104E20009FEDF81A00EE106AF8EEC00A0F2000EEAF
:104E3000105AB8EEC00AFEF732FD002410E006E07A
:104E4000012023F06FF9FBF70DFE00B906E04FF4E7
:104E50008071ED481FF066FF0128F1D000BF641C8F
:104E6000962CECDB9FEDE71A00EE106AF8EEC00A14
:104E70000C2000EE105AB8EEC00AFEF710FD002418
:104E800017E006E0012023F04DF9FBF7EBFD00B938
:104E90000DE04FF48071DC481FF044FF0128F1D091
:104EA0004FF48051D8481FF03DFF0028EAD000BFE2
:104EB000641C962CE5DB0020FEF7C5FBE620D349F9
:104EC0000860D3480068401DCD490860002415E003
:104ED00006E0012023F026F9FBF7C4FD00B90BE042
:104EE000C6490968C64A1268881A002801DB0146CB
:104EF00000E041421E29ECDC00BF641C322CE7DBE1
:104F00004FF42F7023F00EF91FED531A00EE106AC4
:104F1000F8EEC00A142000EE105AB8EEC00AFEF7F0
:104F2000BEFC40F2A46023F0FDF8002415E006E08A
:104F3000012023F0F7F8FBF795FD00B90BE0802185
:104F4000B4481FF0EFFE012805D10121B1481FF040
:104F5000E9FE0128ECD000BF641CB4F57A7FE6DBE3
:104F600040F2145023F0DEF83220A8490860A84827
:104F70000068401DA24908609FEDA21A00EE106A69
:104F8000F8EEC00A162000EE105AB8EEC00AFEF77E
:104F900086FC00240FE006E0022023F0C3F8FBF7B4
:104FA00061FD00B905E001219B481FF0BBFE01280F
:104FB000F2D000BF641C40F226208442EBDB9FED60
:104FC000911A00EE106AF8EEC00A0F2000EE105A97
:104FD000B8EEC00AFEF763FC002410E006E00120F2
:104FE00023F0A0F8FBF73EFD00B906E04FF40051B6
:104FF00089481FF097FE0128F1D000BF641CB4F56A
:105000007A7FEBDB0020FEF71EFBE6208349086079
:1050100083480068401D8349086032207B4908604E
:105020007B480068401D76490860002415E006E0D2
:10503000012023F077F8FBF715FD00B90BE07A4962
:105040000968784A1268881A002801DB014600E0E6
:1050500041421929ECDC00BF641CFA2CE7DB9FED10
:10506000731A00EE106AF8EEC00A102000EE105A13
:10507000B8EEC00AFEF713FC002416E006E001209B
:1050800023F050F8FBF7EEFC00B90CE04FF40061A0
:105090005D481FF047FE012805D104215E481FF03E
:1050A00041FE0128EBD000BF641C40F22620844260
:1050B000E4DBFDF706FB06E0052023F033F8FBF701
:1050C000D1FC00B914E0FBF703FD8046FBF7D3FCED
:1050D000071E01DB384600E07842B8F1000F01DB23
:1050E000414601E0C8F100010844B0F5D27FE3DB9E
:1050F00000BFFFF7C6FB40F209104A49086040496B
:1051000008609FED4A1A00EE106AF8EEC00A1020FF
:1051100000EE105AB8EEC00AFEF7C1FB00240FE003
:1051200006E0012022F0FEFFFBF79CFC00B905E041
:10513000102139481FF0F6FD0128F2D000BF641C91
:10514000642CEDDB40F2DC5022F0ECFF0020FEF797
:105150007AFABDE8F08110B505210420FDF726FAA2
:105160003348C07F40F002003149C8770020314900
:10517000086011E006E0012022F0D4FFFBF772FC8A
:1051800000B903E02C4800680128F4D000BF29488A
:105190000068401C2749086026480068FA28E9DBB7
:1051A0002348C07F00F0FD002149C8770120224933
:1051B000086000202149086010BD2DE9F0472DED61
:1051C000028B81460F46164698469DED0A8ADDE918
:1051D0000B45B6EE001AF8EEC80A102000EE106A71
:1051E000B8EEC00AFEF75BFB404622F09BFF0020B2
:1051F000FEF729FA00219FED120A23E0BC000020EF
:1052000054040020CDCC4C3F000002407C04002020
:105210004C040020000402400010024080040020E2
:105220004004002048040020B80000206666663F65
:105230000400002004040020D8020020D402002032
:105240009A99993F4846FEF7BBFA06E0012022F002
:1052500069FFFBF707FC00B903E0FEF7CDF8002873
:10526000F4D100BF0020FEF7EEF9FFF70AFBF84883
:105270000068FA30F7490860F7480068FA30F749E3
:1052800008600020F649086019E006E0012022F0DD
:1052900049FFFBF7E7FB00B90BE0F2490968EF4A69
:1052A0001268881A002801DB014600E041420F29FC
:1052B000ECDC00BFEA480068401CE9490860E848A7
:1052C00000683228E1DB1FED311A00EE105AF8EECB
:1052D000C00A142000EE104AB8EEC00AFEF7DFFA4A
:1052E0000020DF49086014E006E0012022F01AFFE8
:1052F000FBF7B8FB00B906E04FF48071DA481FF005
:1053000011FD0128F1D000BFD5480068401CD449E8
:105310000860D34800689628E6DB1FED461A00EEC9
:10532000105AF8EEC00A0E2000EE104AB8EEC00A7D
:10533000FEF7B5FA0020CA4908601BE006E001202C
:1053400022F0F0FEFBF78EFB00B90DE04FF4807108
:10535000C5481FF0E7FC0128F1D04FF48051C24846
:105360001FF0E0FC0028EAD000BFBD480068401CE8
:10537000BB490860BA4800689628DFDB0020FEF7CA
:1053800062F9BA480068012801D1FFF7E4FE294616
:105390002046FFF7E3FC0020FEF755F900211FED42
:1053A000580A3846FEF70CFA06E0012022F0BAFE51
:1053B000FBF758FB00B903E0FEF71EF80028F4D114
:1053C00000BF0020FEF73FF9BDEC028BBDE8F0877F
:1053D00070B505460E46FFF75AFA9D48006808303A
:1053E0009C4908609C48006808309C49086000247B
:1053F00015E006E0012022F095FEFBF733FB00B933
:105400000BE098490968954A1268881A002801DB60
:10541000014600E041420A29ECDC00BF641C322C4A
:10542000E7DBB7EE001A00EE106AF8EEC00A0F20B4
:1054300000EE105AB8EEC00AFEF731FA002410E070
:1054400006E0012022F06EFEFBF70CFB00B906E03F
:105450004FF4807184481FF065FC0028F1D000BF34
:10546000641CB4F57A7FEBDBB7EE001A00EE106A2D
:10547000F8EEC00A0A2000EE105AB8EEC00AFEF795
:105480000EFA002421E006E0012022F04BFEFBF79B
:10549000E9FA00B917E04FF4807173481FF042FC3D
:1054A0000028F1D0402172481FF03CFC0028EBD0CE
:1054B00080216F481FF036FC28B901216C481FF08D
:1054C00031FC0028E0D000BF641CB4F57A7FDADB41
:1054D0004FF4967022F026FE0020FEF7B4F8F0207C
:1054E000644908605C480068FA305C490860002440
:1054F00015E006E0012022F015FEFBF7B3FA00B933
:105500000BE058490968554A1268881A002801DBDF
:10551000014600E041421E29ECDC00BF641CFA2C6D
:10552000E7DBB7EE001A00EE106AF8EEC00A1E20A4
:1055300000EE105AB8EEC00AFEF7B1F900240FE0F1
:1055400006E0022022F0EEFDFBF78CFA00B905E040
:10555000012149481FF0E6FB0028F2D000BF641C7F
:1055600040F226208442EBDBB7EE001A00EE106A10
:10557000F8EEC00A102000EE105AB8EEC00AFEF78E
:105580008EF9002410E006E0012022F0CBFDFBF7AD
:1055900069FA00B906E04FF4005137481FF0C2FB2A
:1055A0000028F1D000BF641C40F226208442EADBD0
:1055B00027480068401D27490860B7EE001A00EE32
:1055C000106AF8EEC00A0A2000EE105AB8EEC00ABF
:1055D000FEF765F9002410E006E0012022F0A2FDAC
:1055E000FBF740FA00B906E04FF4804122481FF073
:1055F00099FB0028F1D000BF641CB4F5FA7FEBDB07
:10560000002417E006E0012022F08CFDFBF72AFAC7
:1056100000B90DE04FF4804117481FF083FB0028CC
:10562000F1D04FF4005114481FF07CFB0028EAD061
:1056300000BF641CB4F5FA7FE4DB002427E01DE022
:10564000012022F06FFDFBF70DFAB8B91DE0000054
:1056500040040020480400204C0400205404002092
:1056600004040020BC00002000000240D4020020FE
:10567000000402407C040020001002404FF48041EE
:10568000FC481FF04FFB0028DAD000BF641CB4F5C3
:10569000FA7FD4DB0020FDF7D6FFF020F649086042
:1056A000F6480068FA30F6490860002415E006E084
:1056B000012022F037FDFBF7D5F900B90BE0F149E5
:1056C0000968EF4A1268881A002801DB014600E0E9
:1056D00041421E29ECDC00BF641C322CE7DBB7EE34
:1056E000001A00EE106AF8EEC00A0F2000EE105A01
:1056F000B8EEC00AFEF7D3F806E0012022F012FD52
:10570000FBF7B0F900B905E01021DA481FF00AFBF9
:105710000028F2D000BF4FF4487022F003FD14209F
:10572000FDF791FF70BD2DE9F0472DED028B81460D
:105730000F46144698469DED0A8ADDE90B564FF454
:10574000AF70FFF7BCF80020FDF77DFFB6EE001A42
:10575000F8EEC80A102000EE104AB8EEC00AFEF7B4
:105760009EF8404622F0DEFC0020FDF76CFF002191
:105770009FEDC50A4846FEF723F806E0012022F017
:10578000D1FCFBF76FF900B903E0FDF735FE002807
:10579000F4D100BF0020FDF756FF40F20910FFF7DB
:1057A0007CF80020B949086019E006E0012022F0E9
:1057B000B9FCFBF757F900B90BE0B5490968B54AE0
:1057C0001268881A002801DB014600E041420A29DC
:1057D000ECDC00BFAD480068401CAC490860AB4839
:1057E00000683228E1DBB7EE001A00EE106AF8EE2E
:1057F000C00A0F2000EE105AB8EEC00AFEF74FF8AC
:105800000020A249086014E006E0012022F08AFC92
:10581000FBF728F900B906E04FF480719E481FF0AD
:1058200081FA0028F1D000BF98480068401C9749D1
:10583000086096480068B0F57A7FE5DB962022F094
:1058400071FC0020FDF7FFFE94480068012801D19B
:10585000FFF781FC31462846FFF7BAFD0020FDF72F
:10586000F2FE00219FED880A3846FDF7A9FF06E009
:10587000012022F057FCFBF7F5F800B903E0FDF733
:10588000BBFD0028F4D100BF0020FDF7DCFEBDEC1D
:10589000028BBDE8F08770B58148056881480668CD
:1058A00040F23520FEF7F9FF7F48006800284DD10F
:1058B0007E480068002849D17D480068002845D10D
:1058C0007C480068002841D17049086037E01DE03D
:1058D00079480068A84209DD9FED781ADFED780A63
:1058E0000E209FED780AFDF7DAFF08E09FED731AAE
:1058F000DFED730A0A209FED740AFDF7D0FF012047
:1059000022F010FCFBF7AEF800B912E04FF4805122
:1059100061481FF007FA0028DAD05D4800685D4949
:105920000968441A002C01DB204600E060421E2872
:10593000CEDC00BF55480068401C544908605348FD
:10594000006840F20E618842C1DB25E156480068DC
:1059500001284CD155480068C0BB55480068A8BB19
:105960005448006890BB00204849086038E01DE0BA
:1059700051480068A84209DD9FED501ADFED500A3A
:105980000E209FED500AFDF78AFF08E09FED4B1AAD
:10599000DFED4B0A0A209FED4C0AFDF780FF012046
:1059A00022F0C0FBFBF75EF800B913E04FF4805122
:1059B00039481FF0B7F90028DAD035480068354972
:1059C0000968441A002C02DB204601E00FE0604227
:1059D0001E28CDDC00BF2D480068401C2B49086004
:1059E0002A48006840F20E618842C0DBD4E02E48AD
:1059F000006801287ED12D48006801287AD12C4802
:105A00000068A8BB2B48006890BB00201F490860B5
:105A100069E01DE02D480068B04209DD9FED271ABE
:105A2000DFED270A0E209FED2A0AFDF738FF08E078
:105A30009FED221ADFED220A0A209FED230AFDF7CF
:105A40002EFF012022F06EFBFBF70CF800B944E0BA
:105A50004FF4805110481FF065F90028DAD00C4847
:105A600000680C490968441A002C33DB204632E0F8
:105A700040E00000001002408004002040040020AC
:105A800048040020B80000209A99993F040400209F
:105A9000BC0000205404002000000240D40200207A
:105AA000A8010020B0010020380200203C020020A4
:105AB0004002002044020020A00000203333333F86
:105AC00000006144008022C4000061C4A4000020E2
:105AD00000C0C1C460421E289CDC00BFF9480068B9
