:020000040800F2
:10000000D0A50120F51C020845020008470200089F
:100010004B0200084F0200085302000800000000D5
:100020000000000000000000000000009D0100082A
:100030005702000800000000E10100080F4D02080F
:100040000F1D02080F1D02080F1D02080F1D0208D8
:100050000F1D02080F1D02080F1D02080F1D0208C8
:10006000AB040008EF0400080F1D02081B03000882
:10007000FD0200085D0300080F1D0208750200085C
:100080000F1D0208810200080F1D02080F1D020843
:100090000F1D02080F1D02080F1D02080F1D020888
:1000A0000F1D0208C7030008F30300080F1D020814
:1000B000F5030008230400084F0400080F1D020880
:1000C0000F1D02080F1D02080F1D0208A7040008DB
:1000D0000F1D02085D0200080F1D02080F1D020817
:1000E0000F1D02080F1D02080F1D02080F1D020838
:1000F0000F1D02080F1D02080F1D0208390300081A
:100100000F1D02080F1D02087B040008A904000847
:100110000F1D02080F1D020899030008A50300081F
:100120000F1D02089B020008CF0200080F1D0208E5
:100130000F1D02080F1D02080F1D02080F1D0208E7
:100140000F1D02080F1D02080F1D02080F1D0208D7
:10015000EF0200080F1D02080F1D02080F1D020804
:100160000F1D02080F1D02080F1D02080F1D0208B7
:100170000F1D02080F1D02080F1D02080F1D0208A7
:100180000F1D02080F1D0208DFF80CD026F07AF8C8
:1001900000480047FF190208D0A50120234B196829
:1001A0000868B0E8F04F80F309884FF0000080F352
:1001B000118870470000000003480068006880F361
:1001C000088862B600DF00BF08ED00E0DFF80C0031
:1001D000016841F470010160704700BF88ED00E0E4
:1001E000EFF30980114B1A681EF0100F08BF20EDC5
:1001F000108A20E9F04F106008B54FF0140080F32A
:10020000118825F04CF94FF0000080F31188BDE80B
:10021000084019680868B0E8F04F1EF0100F08BFDA
:10022000B0EC108A80F30988704700BFCC0500202D
:10023000EFF311804FF0140181F31188704780F3C0
:1002400011887047704700BFFEE700BFFEE700BFA0
:10025000FEE700BFFEE770477047704710B540F2F9
:100260002551A34823F067FE18B12021A04823F0B0
:1002700059FE10BD10B59F499F4822F091FD10BD59
:1002800010B59E499C48303022F060FD20B19B495A
:100290009948303022F084FD10BD10B59849994836
:1002A00022F054FD90B19649964822F079FD02F073
:1002B0008AF800219048303822F09EFC08219148AD
:1002C00022F0BBFC01218F4822F096FC10BD10B536
:1002D0008D498C48183022F063FD8C4840788B495A
:1002E000097840EA012000B28949088010BD10B5A4
:1002F00088498448603022F053FD10BD10B5804914
:100300007D48483822F022FD30B17D497A4848388E
:1003100022F046FD00F0B9FA10BD10B57E497648CE
:10032000603822F013FD30B17B497348603822F009
:1003300037FD02F048F810BD10B578496E484830D6
:1003400022F004FD48B100216B48483022F054FCF3
:1003500072496948483022F023FD10BD10B56A4942
:100360006548303822F0F2FCA8B16749624830385D
:1003700022F016FD01F063FD00215F48303822F0C5
:100380003BFC08215C48303822F057FC01215A48D8
:10039000303822F031FC10BD10B50121604823F047
:1003A00027FB10BD10B501215E4823F021FB7A2008
:1003B0004F49888001215C4823F0CCFC01215B4837
:1003C00023F0C8FC10BD10B50121594823F010FBE3
:1003D0005748008800F0100028B156480068401EB9
:1003E0005449086004E053480068401C51490860C3
:1003F00010BD704710B50121880723F0F9FA4FF0BE
:100400008040008800F0100028B14B480068401E72
:100410004949086004E048480068401C46490860B3
:1004200010BD10B50121454823F0E2FA4348008889
:1004300000F0100028B142480068401E40490860A2
:1004400004E03F480068401C3D49086010BD10B5FD
:1004500001213C4823F0CCFA3A48008800F0100013
:1004600028B139480068401E3749086004E0364822
:100470000068401C3449086010BD10B501213348A4
:1004800023F0B6FA3148008800F0100028B1304857
:100490000068401E2E49086004E02D480068401C9A
:1004A0002B49086010BD7047704710B5042022F03A
:1004B0000FFDD8B12021274821F093FD04212648C3
:1004C00021F06AFD012804D10021164822F010FE17
:1004D00009E00421204821F05FFD20B9114822F0F5
:1004E0000BFE1E49086004201D49086010BD7047BE
:1004F0000010014020800020706002400080202019
:100500000088001028640240008020108A08002023
:100510008C0000200088002020800010008000282F
:10052000001000400014004000480040001401404A
:10053000000001406C00002070000020000400401A
:10054000740000200008004088000020000C0040DB
:100550007800002000000240000C024068000020EB
:10056000143C014070B50446204625F081FB054649
:100570002146F94825F083FBA8B140F22B12214611
:10058000F54825F069FB0021F44822F035FBF248DC
:10059000F2490C310860F148B838C0F8BC5001216C
:1005A000EE4822F029FB70BD70B50446002510E02E
:1005B000605D68B1615DEA4823F0F7FB00BF802110
:1005C000E74823F0A2FC0028F9D0681CC5B200E07F
:1005D00070BDEDE770B5044600250FE05CB1214623
:1005E000DF4823F0E2FB00BF8021DD4823F08DFCD3
:1005F0000028F9D000E070BD681CC5B2032DEDDB0A
:1006000000BFF8E713B50C460020FFF7E3FFD5A0C5
:10061000FFF7CAFF2346D4A29621D44825F070FEE6
:10062000D248FFF7C1FFD2A0FFF7BEFFCEA29621AE
:10063000CE48009B25F064FECC48FFF7B5FFCEA066
:10064000FFF7B2FFFF20FFF7C5FFFF20FFF7C2FF54
:10065000FF20FFF7BFFF1CBD70B505460C46C1A0CB
:10066000FFF7A2FF2246C0A1C04825F061FEBF48A7
:10067000FFF79AFFBEA0FFF797FF2846FFF794FF0A
:10068000BDA0FFF791FFFF20FFF7A4FF70BD77B576
:1006900085B00546FF26B6A103C9CDE90301B6A082
:1006A00000680290AFA00068019000240AE00020DA
:1006B000B2490855B2490855AC490855A6490855EC
:1006C000601CC4B21E2CF2DB0A20A8490870FF206F
:1006D00048708870C870A4A1A948079A25F028FE20
:1006E000A74901A825F0ACFA01A9A04825F0A8FA6D
:1006F00003A99E4825F0A4FA29469C4825F0A0FAB3
:1007000099A19F48069A25F013FE9D49974825F028
:1007100097FA02A9954825F093FAFF2097490870A7
:1007200048708870914825F08BFA9048FFF71AFFBF
:1007300008B070BDF7B584B005460E46FF278CA102
:1007400003C9CDE902018CA00068019085A0006872
:100750000090002408E00020884908558849085581
:1007600082490855601CC4B20A2CF4DB0A207F4978
:100770000870FF2048708870C8707BA18048069A76
:1007800025F0D6FD7E49684625F05AFA6946774835
:1007900025F056FA02A9754825F052FA2946734801
:1007A00025F04EFA3146714825F04AFA01A96F4802
:1007B00025F046FAFF2071490870487088700020C3
:1007C000C8700871694825F03BFA6848FFF7CAFE0F
:1007D00007B0F0BD01B58EB06AA2322101A80E9B10
:1007E00025F08EFD01A8FFF7BDFE0FB000BD73B56B
:1007F00084B00546FF265EA103C9CDE902015EA0D3
:100800000068019057A00068009000240AE00020D2
:100810005A4908555A490855544908554E490855EA
:10082000601CC4B21E2CF2DB0A2050490870FF2065
:1008300048708870C8704CA15148059A25F078FD21
:100840004F49684625F0FCF96946484825F0F8F913
:1008500002A9464825F0F4F92946444825F0F0F964
:100860004749424825F0ECF901A9404825F0E8F94C
:10087000FF2042490870487088703C4825F0E0F934
:100880003A48FFF76FFE06B070BD10B52DED0C8B2A
:1008900082B03F4800783E49497808443C4989780D
:1008A00008443B49C978084439490979084438491A
:1008B000497908443649897908443549C979084451
:1008C0003349097A0844C0B201903148007A00F0F7
:1008D0000F0000909FED2F0AB0EE40DA2C48407ACE
:1008E0000199884272D12A48007A00F00F000D2841
:1008F0006CD127488078C0F17F0000EE100AB8EE76
:10090000C08A2348C078813800EE100AF8EEC08A09
:10091000B5EEC08AF1EE10FA03D1B7EE000AB0EEE0
:10092000408AF5EEC08AF1EE10FA03D1B7EE000A64
:10093000F0EE408ABDEEC80A10EE102A002A01DB54
:10094000134600E05342BDEEE80A10EE100A0028FC
:1009500022DB044621E0000042070020B86002408C
:100960000050004074000000256400000C060020C8
:100970002E7478743D22000022000000F206002050
:10098000CA0600206A302E76616C3D2564000000A6
:10099000CB080020DB0F49404442191901EBD17309
:1009A0005B10FE4C2360BDEEE80A10EE101A002921
:1009B00001DB0A4600E04A42322A0FDABDEEC80ADD
:1009C00010EE100A002802DB024601E02FE042424E
:1009D000322A03DA0020F249086030E018EE900A6B
:1009E00025F013FB41EC1B0B18EE100A25F00DFB54
:1009F00041EC1C0BB0EE4B1AF0EE6B1AB0EE4C0A49
:100A0000F0EE6C0A25F040FEB0EE40AAF0EE60AACF
:100A10009FEDE40B53EC102B51EC1A0B25F0E4F98D
:100A200041EC190B25F0D2FADD49086007E09DF88A
:100A300000000D2803D00021DC4823F08BF902B020
:100A4000BDEC0C8B10BDDA48007A00F00F000D28C9
:100A500006D1D748007800F0010008B10D2070479A
:100A60000020FCE7D248007800F0100008B1002018
:100A700070470120FCE71CB54FF0804022F03CFBA2
:100A8000CC49096840EA01400C2190FBF1F000904C
:100A9000002418E04FF0804022F02EFBC549096881
:100AA00040EA01400C2190FBF1F00190DDE90021CA
:100AB000881A002801DB014600E04142052900DADE
:100AC000641C01980090022CE4DB019840421CBD9C
:100AD0001CB5B94822F010FBB849096840EA01404A
:100AE0000C2190FBF1F00090002417E0B24822F0B6
:100AF00003FBB249096840EA01400C2190FBF1F088
:100B00000190DDE90021881A002801DB014600E0A0
:100B10004142052900DA641C01980090022CE5DBB3
:100B200001981CBD1CB5A64822F0E6FAA549096843
:100B300040EA01400C2190FBF1F00090002417E006
:100B40009F4822F0D9FA9F49096840EA01400C21E8
:100B500090FBF1F00190DDE90021881A002801DB0B
:100B6000014600E04142052900DA641C019800902A
:100B7000022CE5DB01981CBD1CB5934822F0BCFAA1
:100B80009249096840EA01400C2190FBF1F0009085
:100B9000002417E08C4822F0AFFA8C49096840EA3B
:100BA00001400C2190FBF1F00190DDE90021881A51
:100BB000002801DB014600E04142052900DA641CFF
:100BC00001980090022CE5DB01981CBD01B581B0B5
:100BD00000200090019800EBC0004000009002E06F
:100BE0000098401E009000980028F9D10CBD01B576
:100BF00081B00020009044F2506101984843009079
:100C000002E00098401E009000980028F9D10CBD29
:100C10001CB501211F2021F0A3FB4FF6FF700090AF
:100C200001208DF8040000208DF8060001208DF8C9
:100C3000070003208DF805006946654821F04AF950
:100C40004FF6FF70009001208DF8040000208DF811
:100C5000060001208DF8070003208DF80500694685
:100C60005C4821F037F94FF6FF70009001208DF8B5
:100C7000040000208DF8060001208DF807000320F5
:100C80008DF805006946544821F024F91CBD1CB5B7
:100C900001217E2021F064FB4FF4CE500090002013
:100CA0008DF8040001208DF8070002208DF8050062
:100CB00069464A4821F00EF94FF6C74000900020DF
:100CC0008DF8040001208DF8070002208DF8050042
:100CD00069463F4821F0FEF84FF441700090002033
:100CE0008DF8040001208DF8070002208DF8050022
:100CF0006946384821F0EEF84CF603400090002099
:100D00008DF8040001208DF8070002208DF8050001
:100D10006946314821F0DEF84FF42660009000204B
:100D20008DF8040001208DF8070002208DF80500E1
:100D300069462B4821F0CEF81CBD1FB54FF4E0608A
:100D400020F0EAFF36208DF8000000208DF8010029
:100D50008DF8020001208DF80300684620F0E1FFC5
:100D60000121102021F02FFB3220ADF8040040F2C9
:100D7000E73002900020ADF80C00ADF8060001A9A4
:100D8000184822F06CF90121164822F031FE0122A8
:100D90001146144822F004FE002125E0CC0000207A
:100DA000C800002000000080A9E781400048004002
:100DB000CB080020700000200004004074000020D8
:100DC0000008004088000020000C0040780000204F
:100DD0000004024000080240000C024000000240F3
:100DE0000010024000100040FE4822F081F901216D
:100DF000FC4822F0BDF91FBD1FB54FF4E06020F0A4
:100E00008BFF37208DF8000000208DF801008DF851
:100E1000020001208DF80300684620F082FF0121C6
:100E2000202021F0D0FA3220ADF8040040F2E73063
:100E300002900020ADF80C00ADF8060001A9EA48C8
:100E400022F00DF90121E84822F0D2FD01221146DD
:100E5000E54822F0A5FD0021E34822F049F90121EF
:100E6000E14822F085F91FBD00B58BB001210220B9
:100E700021F0BAFA01210C2021F072FA0322062196
:100E8000DA4821F0B2F803220721D84821F0ADF862
:100E900003220821D54821F0A8F803220921D348CC
:100EA00021F0A3F84FF47070069002208DF81C001A
:100EB00003208DF81D0000208DF81E0001208DF804
:100EC0001F0006A9C94821F005F8A420ADF82000AC
:100ED00040F6B83009904FF48070ADF8280000203B
:100EE000ADF8220008A9C24822F0B9F86020ADF898
:100EF00004000120ADF8060000200390ADF81000BA
:100F00000121BB4822F034F90021B94822F0F0F861
:100F100001A9B74822F038F901A9B54822F06DF9C6
:100F200001A9B34822F0B6F901A9B14822F018FA94
:100F30000121AF4822F00DFD0BB000BD00B58BB014
:100F40000121082021F03FFA0121084621F008FA8A
:100F500002220021A74821F048F802220121A548D9
:100F600021F043F802221146A24821F03EF8022265
:100F70000321A04821F039F80F20069002208DF8B7
:100F80001C0003208DF81D0000208DF81E0001209C
:100F90008DF81F0006A9974820F09CFFBA20ADF8F5
:100FA000200042F2107009900020ADF82800ADF842
:100FB000220008A9904822F052F86020ADF8040001
:100FC0000120ADF8060000200390ADF810000121CB
:100FD000894822F0CDF80021874822F089F801A93C
:100FE000854822F0D1F801A9834822F006F901A929
:100FF000814822F04FF901A97F4822F0B1F901217F
:101000007D4822F0A6FC0BB000BD00B58BB00121DD
:10101000042021F0D8F901210D2021F0A1F90222AC
:101020000C21764820F0E1FF02220D21734820F0C8
:10103000DCFF02220E21714820F0D7FF02220F218F
:101040006E4820F0D2FF4FF47040069002208DF8D9
:101050001C0003208DF81D0000208DF81E000120CB
:101060008DF81F0006A9654820F034FFA420ADF8D4
:10107000200040F6B83009904FF48070ADF8280099
:101080000020ADF8220008A95D4821F0E8FF6020AB
:10109000ADF804000120ADF8060000200390ADF883
:1010A00010000121564822F063F80021544822F034
:1010B0001FF801A9524822F067F801A9504822F010
:1010C0009CF801A94E4822F0E5F801A94C4822F00D
:1010D00047F90BB000BD00B589B00121080421F02B
:1010E00083F90121084621F03BF9032211464148CA
:1010F00020F07BFF032202213E4820F076FF0C20E7
:10110000019002208DF8080003208DF809000020CE
:101110008DF80A0001208DF80B0001A9354820F058
:10112000D9FE0020ADF818004FF6FF7007900020A0
:10113000ADF82000ADF81A0006A9324821F08FFF63
:101140000420ADF80C000020ADF80E00C820ADF86A
:1011500014000120ADF8100003A92A4822F056FB24
:1011600000231A460321284822F0EDFC01212648DD
:1011700022F03EFC01221146234822F011FC0121FD
:10118000204821F0F5FF00211F4821F0B1FF09B0F0
:1011900000BD00B589B00121084621F014F90121F4
:1011A000022021F010F90121032021F0D9F80122B9
:1011B0000F21104820F019FF01220321134820F0CD
:1011C00014FF02220421114820F00FFF0222052102
:1011D0000E4820F00AFF3820019002208DF8080008
:1011E000032015E0001000400014004000080240F9
:1011F0000004014000000240000C0040000C0240CE
:10120000000800400000014000400140000402408E
:101210008DF8090000208DF80A0001208DF80B00E0
:1012200001A9FE4820F056FE4FF400400190022034
:101230008DF8080003208DF8090000208DF80A00C1
:1012400001208DF80B0001A9F54820F043FE002095
:10125000ADF818004FF6FF7007900020ADF82000A1
:10126000ADF81A0006A94FF0804021F0F8FE06A95B
:10127000EC4821F0F4FE0420ADF80C000220ADF89B
:101280000E001420ADF814000120ADF8100003A9E1
:10129000800722F0BBFA03A9E24822F0B7FA022342
:1012A0001A460321580722F04EFC02231A46032156
:1012B000DC4822F048FC0121880722F099FB01213B
:1012C000D84822F095FB01221146900722F068FBD6
:1012D00001221146D34822F063FB0121880721F047
:1012E00047FF0121CF4821F043FF00214FF080400C
:1012F00021F0FEFE0021CB4821F0FAFE4FF4C06041
:1013000020F00AFD1D208DF8000003208DF801005B
:1013100000208DF8020001208DF80300684620F0BF
:1013200000FD1C208DF8000004208DF80100002035
:101330008DF8020001208DF80300684620F0F1FCD2
:1013400009B000BD00B589B00121084621F04CF874
:101350000121102021F004F84FF4206001900220B8
:101360008DF8080003208DF8090000208DF80A0090
:1013700001208DF80B0001A9AB4820F0ABFD012244
:101380000921A94820F031FE01220B21A64820F0B6
:101390002CFE0020ADF818004FF6FF7007900020DB
:1013A000ADF82000ADF81A0006A9A04821F057FEBC
:1013B0000420ADF80C000020ADF80E000A20ADF8B6
:1013C00014000120ADF8100003A9984822F01EFA7D
:1013D00000231A460321954822F0B5FB01219348CA
:1013E00022F006FB01221146904822F0D9FA012191
:1013F0008E4822F0FDFA012211468C4822F0D0FAE4
:1014000001218A4821F0B4FE0021884821F070FEB5
:101410004FF4C06020F080FC19208DF800000120FE
:101420008DF8010000208DF8020001208DF80300E6
:10143000684620F076FC09B000BD00B589B00121F6
:10144000042020F0C0FF0121082020F089FF4FF484
:101450004050019002208DF8080003208DF809000B
:1014600000208DF80A0001208DF80B0001A97048BA
:1014700020F030FD0020ADF818004FF6FF70079007
:101480000020ADF82000ADF81A0006A9694821F047
:10149000E6FD02220C21664820F0A7FD02220D2164
:1014A000634820F0A2FD0420ADF80C000220ADF846
:1014B0000E00C820ADF814000120ADF8100003A9FB
:1014C0005C4822F0A3F902231A460321594822F06E
:1014D0003AFB0121574822F08BFA01221146554868
:1014E00022F05EFA0121534821F042FE00215148CA
:1014F00021F0FEFD00204F491431088001204D49A4
:1015000008804FF4C06020F007FC1E208DF800001A
:1015100004208DF8010000208DF8020001208DF8D4
:101520000300684620F0FDFB09B000BD00B589B09E
:101530000121082020F047FF0121084620F010FF7C
:101540000320019002208DF8080003208DF8090087
:1015500000208DF80A0001208DF80B0001A9304809
:1015600020F0B8FC0020ADF818004FF6FF7007908F
:101570000020ADF82000ADF81A0006A92E4821F091
:101580006EFD02220021264820F02FFD02220121BB
:10159000234820F02AFD0420ADF80C000220ADF80D
:1015A0000E00C820ADF814000120ADF8100003A90A
:1015B000214822F02BF902231A4603211E4822F06B
:1015C000C2FA01211C4822F013FA012211461A48DE
:1015D00022F0E6F90121184821F0CAFD0021164841
:1015E00021F086FD002014491431088001201249A1
:1015F00008804FF4C06020F08FFB32208DF800008F
:1016000004208DF8010000208DF8020001208DF8E3
:101610000300684620F085FB09B000BD00040240CD
:1016200000000240000400400010024000000140A1
:10163000000C024000080040000C004000B59BB0C8
:101640000121FE4820F08CFE0121080220F0CCFE92
:1016500000200290FA480390FA4804900020059078
:101660000E200690002007904FF480600890400004
:10167000099080000A9040110B9040020C900020CD
:101680000D9001200E9000200F90109002A9EE48BE
:1016900021F078FA0121EC4821F0AEFAFC2000900C
:1016A00003208DF8040000208DF807006946E74804
:1016B00020F010FC4FF44070009003208DF80400DF
:1016C00000208DF807006946E14820F003FC3F2028
:1016D000009003208DF8040000208DF80700694673
:1016E000DC4820F0F7FB002011904FF440301290BE
:1016F00000201390149011A820F0AAFF4FF08070E2
:10170000159001208DF858008DF859000020179091
:10171000189019900E208DF8680015A9C8484C380B
:1017200020F067FF072301220221C5484C3820F032
:10173000E6FF072302220321C1484C3820F0DFFFD7
:10174000072303220421BE484C3820F0D8FF07238A
:1017500004220521BA484C3820F0D1FF0723052286
:101760000621B7484C3820F0CAFF07230622194645
:10177000B3484C3820F0C3FF07231A460821B0486D
:101780004C3820F0BCFF072308220921AC484C3814
:1017900020F0B5FF072309220A21A9484C3820F080
:1017A000AEFF07230A220B21A5484C3820F0A7FFE3
:1017B00007230B220C21A2484C3820F0A0FF07235E
:1017C0000C220D219E484C3820F099FF07230D2252
:1017D0000E219B484C3820F092FF07230E220F2148
:1017E00097484C3820F08BFF012195484C3821F068
:1017F00031F8012192484C3821F021F8012190481C
:101800004C3820F03CFF8E484C3820F0D4FF1BB001
:1018100000BD08B54FF4E06020F07EFA25208DF879
:10182000000000208DF801008DF8020001208DF8E5
:101830000300684620F075FA08BD10B596B004465E
:101840000121102020F0D0FD0121084620F088FD64
:101850000121880520F084FD4FF4C0600090022033
:101860008DF8040000208DF806008DF80700022096
:101870008DF805006946754820F02CFB07220921E8
:10188000724820F0B2FB07220A21704820F0ADFB1D
:1018900002940020ADF80C00ADF80E00ADF8100079
:1018A000ADF814000C20ADF8120002A96A4822F02D
:1018B000C9F90121684822F04DFA4FF4A06020F0E8
:1018C0002BFA3A208DF8180000208DF819008DF8B9
:1018D0001A0001208DF81B0006A820F022FA5A48B1
:1018E000303021F0ADF84FF00060079000200A90F2
:1018F0005A4809900A200B905748001D0890002074
:101900000C904FF480600D9000200E900F904FF4DB
:1019100080701090400211900420129003201390C8
:1019200000201490159007A94748303021F02AF97B
:1019300001224021484822F0BAFA012210214248EF
:10194000303021F0E6F901213F48303021F054F9E0
:1019500016B010BD10B596B004460121480520F020
:10196000FFFC0121480420F02EFD0121082020F079
:10197000F7FC6020009002208DF8040000208DF814
:1019800006008DF8070002208DF8050069463448EE
:1019900020F0A0FA07220521314820F026FB07227B
:1019A00006212F4820F021FB02940020ADF80C0006
:1019B000ADF80E00ADF81000ADF814000C20ADF835
:1019C000120002A9274822F03DF90121254822F002
:1019D000C1F94FF4A06020F09FF911208DF8180094
:1019E00000208DF819008DF81A0001208DF81B00D9
:1019F00006A820F096F91C4821F022F84FF000606C
:101A0000079040200A901948099050200B901548E3
:101A1000001D089000200C904FF480600D90002075
:101A20000E900F904FF4807010904002119004209F
:101A30001290032013900020149019E0070040003A
:101A40004C2001406E08002010640240000002405B
:101A50000004024000080240001001408A080020F3
:101A6000000C024000440040A0600240040000203E
:101A7000159007A9FE4821F085F801228021FD4834
:101A800022F015FA01228021FA4822F010FA0122F0
:101A90001021F74821F03DF90121F54821F0ACF87B
:101AA00016B010BD10B596B004460121880420F090
:101AB0008AFC0121082020F053FC0121480520F078
:101AC0004FFC4FF44070009002208DF8040000207D
:101AD0008DF806008DF8070002208DF80500694694
:101AE000E54820F0F7F907220821E34820F07DFAC5
:101AF00007220921E04820F078FA02940020ADF88E
:101B00000C00ADF80E00ADF81000ADF814000C207C
:101B1000ADF8120002A9D94822F094F80121D74863
:101B200022F018F94FF4A06020F0F6F80C208DF8A0
:101B3000180000208DF819008DF81A0001208DF88A
:101B40001B0006A820F0EDF8C948783820F078FF8F
:101B50004FF00060079000200A90C94809900A20C1
:101B60000B90C648001D089000200C904FF4806038
:101B70000D9000200E900F904FF480701090400256
:101B800011900420129003201390002014901590BF
:101B900007A9B748783820F0F5FF01224021B7485F
:101BA00022F085F901224021B44822F080F9012277
:101BB0001021AF48783821F0ACF80121AC487838D2
:101BC00021F01AF816B010BD10B596B004460121E8
:101BD000C80420F0F8FB0121042020F0C1FB012102
:101BE000480520F0BDFB4FF44060009002208DF8C6
:101BF000040000208DF806008DF8070002208DF803
:101C0000050069469F4820F065F908220A219D4891
:101C100020F0EBF908220B219A4820F0E6F9029413
:101C20000020ADF80C00ADF80E00ADF81000ADF8D6
:101C300014000C20ADF8120002A9934822F002F81B
:101C40000121914822F086F84FF4A06020F064F85A
:101C50000D208DF8180003208DF8190001208DF853
:101C60001A008DF81B0006A820F05BF88048603849
:101C700020F0E6FE4FF00060079000200A908348B5
:101C8000099008200B908048001D089000200C90BF
:101C90004FF480600D9000200E900F9010904FF444
:101CA0000030119000201290032013900020149017
:101CB000159007A96E48603820F064FF012240218A
:101CC000714822F0F4F8012280216F4822F0EFF8E9
:101CD000012210216648603821F01BF80121644878
:101CE000603820F089FF16B010BD70B5684C2468CC
:101CF000642C00DB70BD674C248804EB8404664DC3
:101D00002C446070634C248804EB84042C44A17040
:101D1000604C248804EB84042C44E2705D4C2488DD
:101D200004EB84042C4423715A4C2488641C6425DD
:101D300094FBF5F605FB1644564D2C80544C246854
:101D4000641C534D2C6000BFD4E701465048006826
:101D500008B9002070475148008800EB80004E4AC7
:101D6000104402680A60007908710120F2E7014618
:101D70004748006808B9002070474848008800EBD1
:101D80008000454A104402680A600079087143489F
:101D90000088401C642290FBF2F302FB13003F4AD0
:101DA00010803B480068401E394A10600120E3E77C
:101DB0000CB56846FFF7DBFF0020394908700CBD01
:101DC0000346012B03DB062B01DC18467047012973
:101DD00003DB062901DC0846F8E7012A03DB062AB3
:101DE00001DC1046F2E70020F0E710B52D48C07F77
:101DF00040F004002B49C8774FF4FA6023F0CCFA86
:101E00002848C07F40F008002649C8774FF4FA60A0
:101E100023F0C2FA2348C07F40F040002149C87730
:101E20004FF4FA6023F0B8FA1E48C07F40F010006B
:101E30001C49C8774FF4FA6023F0AEFA10BD10B514
:101E400012480078114949780844104989780844B3
:101E50000E49C97808440D49097908440B49497964
:101E60000844C4B20948007802281DD010BD000003
:101E7000A060024000440040000C024000480040C6
:101E8000CB08002000080240004C0040A7020020C0
:101E9000C4020020C8020020DA080020CA02002084
:101EA000CD02002004000020FE48C079032800D0A5
:101EB00010BDFC488079A0427ED1FA484078FA49AA
:101EC0000870F8488078F9490870F648C078F849F1
:101ED0000870F4480079F7490870F2484079F649EB
:101EE0000870F1480078012808D1F04800780228ED
:101EF00004D108460078F1490860BAE0EA48007861
:101F0000022807D1E9480078012803D10020EC49D4
:101F10000860AEE0E448007802280AD1E34800787F
:101F20000A2806D1E2480078012802D1E549086074
:101F30009FE0DD48007802280AD1DC4800780A28B2
:101F400006D1DB480078022802D1DE49086090E023
:101F5000D548007802280AD1D4480078092806D14B
:101F6000D3480078012802D1D749086081E0CE48E3
:101F7000007802280AD1CD480078092806D1CC483B
:101F80000078022802D1D049086072E0C648007883
:101F9000022825D1C5480078022821D1C6480378F7
:101FA000C4480278C2480178C0480078FFF79DFE17
:101FB000BF480078002800E052E05AD1BD480078C0
:101FC000012807D0BB480078022803D0B948007820
:101FD00003284ED1BD480068401CBC49086048E059
:101FE000B1480078022814D1B0480078032810D1F5
:101FF000B1480278AF480178AD480078FFF7E0FEBD
:10200000B34908600846006848B30120B149086038
:102010002FE0A5480078022813D1A44800780428AE
:102020000FD1A3480078AC490860A2480078AB49BA
:102030000860A1480078AA4908600120A949086001
:1020400017E099480078032813D1984800780328AE
:102050000FD19748007803280BD1FFF7C6FE08E0A0
:10206000FF2092490870924908709249087092497D
:10207000087000BF1CE795480068022803D10120C2
:102080009949086002E0002097490860704710B540
:1020900096B004460121480520F062F901210805A7
:1020A00020F091F901210C2020F05AF90420009031
:1020B00002208DF8040000208DF806008DF807003E
:1020C00002208DF80500694688481FF003FF4FF491
:1020D0008050009002208DF8040000208DF806004A
:1020E0008DF8070002208DF80500694680481FF032
:1020F000F1FE082202217D481FF077FF08220C2103
:102100007B481FF072FF4FF4A0601FF005FE2F20E8
:102110008DF8180005208DF819008DF81A0001209F
:102120008DF81B0006A81FF0FCFD0B208DF8180091
:1021300005208DF819008DF81A0001208DF81B007C
:1021400006A81FF0EEFD02940020ADF80C00ADF8DB
:102150000E00ADF81000ADF814000C20ADF8120020
:1021600002A9644821F06EFD0121624821F0F2FDD0
:10217000614820F065FC4FF00060079040200A9015
:102180005E4809900A200B905A48001D08900020D4
:102190000C904FF480600D9000200E900F901090E6
:1021A0004FF4003011900020129003201390002073
:1021B0001490159007A9504820F0E4FC4E48A83828
:1021C00020F03EFC4FF00060079000200A904C4841
:1021D000099005200B904748001D089000200C90A6
:1021E0004FF480600D9000200E900F9010904FF4EF
:1021F00000301190002012900320139000201490C2
:10220000159007A93C48A83820F0BCFC0122802189
:10221000384821F04CFE01224021364821F047FE8B
:1022200001221021344820F074FD0122102132488F
:10223000A83820F06EFD01212F4820F0DDFC01219F
:102240002D48A83820F0D8FC16B010BD10B596B0B7
:1022500004460121202020F0C7F80121042020F0AD
:102260007FF80121880520F07BF8C0200090022033
:102270008DF8040000208DF806008DF8070002207C
:102280008DF8050069461A481FF024FE0822062131
:1022900017481FF0AAFE0822072115481FF0A5FEC7
:1022A00002942FE0A7020020AF020020B00200201D
:1022B000B1020020B2020020B3020020D0020020B0
:1022C000D4020020E8020020F0020020F8020020E2
:1022D000D8020020F4020020DC020020E0020020EE
:1022E000E4020020EC02002038020020000C024032
:1022F0000008024000500040B86002404207002041
:10230000CE0A00200020ADF80C00ADF80E00ADF8AC
:102310001000ADF814000C20ADF8120002A9FA4824
:1023200021F090FC0121F84821F014FD4FF4A06049
:102330001FF0F2FC39208DF8180003208DF81900E9
:1023400001208DF81A008DF81B0006A81FF0E9FC8B
:10235000EE4820F075FB4FF02060079000200A90B7
:10236000EB48099008200B90E748001D08900020DA
:102370000C904FF480600D9000200E900F90109004
:102380004FF4003011900020129003201390002091
:102390001490159007A9DD4820F0F4FB012240219C
:1023A000D94821F084FD01228021D74821F07FFD0A
:1023B00001221021D54820F0ACFC0121D34820F0A7
:1023C0001BFC16B010BDD2490978D14A527811448D
:1023D000CF4A92781144CE4AD2781144CC4A12792D
:1023E0001144CB4A52791144C8B2C949097802292B
:1023F00000D07047C649C979032900D0F9E7C4491C
:102400008979814218D1C2494978C24A1170C049BC
:102410008978C14A1170BE49C978C04A1170BC4957
:102420000979BF4A1170BA494979BE4A1170BC494D
:102430000978BD4A117006E0FF21B84A1170B84A08
:102440001170B84A117000BFD3E700B585B0012103
:1024500008201FF085FF012188031FF0C5FF002021
:102460008DF8100001208DF813000C20039003A9B3
:10247000AE481FF02FFD0221032021F0B1FD042002
:10248000009000208DF8040010208DF80500012038
:102490008DF80600684620F0B5FC08208DF808008D
:1024A00000208DF809008DF80A0001208DF80B003E
:1024B00002A81FF036FC05B000BD70B504460D46FD
:1024C000012C0BD129469A4821F06FFC00BF402116
:1024D000974821F01AFD0028F9D036E0032C0BD1E3
:1024E0002946944821F061FC00BF4021914821F029
:1024F0000CFD0028F9D028E0042C0BD129468E4889
:1025000021F053FC00BF40218B4821F0FEFC002845
:10251000F9D01AE0052C0BD12946884821F045FC5A
:1025200000BF4021854821F0F0FC0028F9D00CE0E4
:10253000062C0AD12946744821F037FC00BF4021FF
:10254000714821F0E2FC0028F9D070BD2DE9F04778
:1025500002240125022600274FF000084FF003094E
:10256000601930443844404475490978084400F003
:10257000FF0A21460420FFF7A0FF29460420FFF7A9
:102580009CFF31460420FFF798FF39460420FFF7EF
:1025900094FF41460420FFF790FF6948017804202A
:1025A000FFF78BFF51460420FFF787FF49460420C1
:1025B000FFF783FFBDE8F087002062494862624967
:1025C00008606249086062490860704700205D4900
:1025D00048625D4908604FF0804148625D4908608B
:1025E0005D4908605D4908605849086058490860BD
:1025F0005B4908605B490860704700204FF08041EC
:1026000048625449086070470020534908605349A4
:102610000860704710B5002053490870002407E097
:1026200061210120FFF749FF3220FEF7E0FA641C28
:10263000022CF5D301204C4908707A204B490870D0
:1026400010BD10B500204A490870002407E0612140
:102650000320FFF732FF3220FEF7C9FA641C022C78
:10266000F5D30120424908707A204249087010BD14
:102670002DE9F14FAEB040A02D9000202C908DF8A8
:1026800088008DF860002E9829283BD2DFE800F002
:10269000159EA7AEB5BCC3CAF2F9EFEEEDECEBEABE
:1026A000E9E8E7E6E5E4E3E2E1E0DFDEDDDCDBDA12
:1026B000D9D8D7D6D5D4D3D2D100022137481FF0EC
:1026C0006BFC88B100224FF4004135481FF082FCBA
:1026D0004FF4004132481FF06CFC044600222146B2
:1026E00030A0FDF7D4FF70E00122D1032C481FF089
:1026F00071FC4FF400412A481FF05BFC04460022A5
:1027000021465FE005E20000001401402864024019
:10271000FC02002004030020050300200603002023
:10272000070300200803002009030020000C0240DA
:102730000010014000480040004C004000500040A4
:10274000D0020020000001406C000020240800405E
:102750008800002070000020240400407400002045
:10276000240C004078000020910000209000002000
:10277000930000209200002031313131313131316C
:10278000313131313131313131313131313130313A
:10279000313131313131313100000000000402406B
:1027A00000080240524F424F5420322044414E47CD
:1027B00020434841592053414E2058414E483A2029
:1027C00020200000EEA0FDF762FF59E30122F4484B
:1027D000B0F900004142F3A0FDF759FF50E3022297
:1027E000F2480168F2A0FDF752FF49E30322F348E3
:1027F0000168F3A0FDF74BFF42E30422F5480168AE
:10280000F5A0FDF744FF3BE30522F6480168F6A07A
:10281000FDF73DFF34E30622F7480168F7A0FDF716
:1028200036FF2DE30722F8480168F8A0FDF72FFFD7
:1028300026E31EE316E30EE306E3FEE2F6E2EEE233
:10284000E6E2DCE2D2E2C8E2BEE2B2E2A6E28BE17C
:102850007FE172E165E15DE150E148E140E138E1AD
:10286000BAE03FE037E02FE027E01FE017E00FE09D
:1028700007E0FFE70822E9480168E9A0FDF707FF44
:10288000FEE20922EA480168EAA0FDF700FFF7E24C
:102890000A22EC480168ECA0FDF7F9FEF0E20B22F9
:1028A000EC480168ECA0FDF7F2FEE9E20C22EE48EC
:1028B0000168EEA0FDF7EBFEE2E20D22F0480168B0
:1028C000F0A0FDF7E4FEDBE20E22F2480168F2A080
:1028D000FDF7DDFED4E2F44841890F22F3A0FDF7B5
:1028E000D6FECDE20121F5481FF056FB4FF4005112
:1028F0001790F3481FF050FB04460221EF481FF0E9
:102900004BFB05464FF48041ED481FF045FB064662
:102910000421EA481FF040FB4FF400411690E748BD
:102920001FF03AFB07460821E4481FF035FB8046BC
:102930004FF48041E1481FF02FFB81461021DF4812
:102940001FF02AFB4FF400511590DC481FF024FBC8
:1029500082460821DB481FF01FFB4FF48051149082
:10296000D6481FF019FB10211390D6481FF014FB16
:102970004FF480611290D1481FF00EFB83468021F6
:10298000CE481FF009FB4FF480711190CB481FF027
:1029900003FB10901798CDE90B65CDE90D40169813
:1029A000CDE90798CDE90970DDE914211398CDE947
:1029B000042A06910390DDE91110CDE9001B029075
:1029C000C1A2282122A8109B23F09AFC102222A940
:1029D000C6A0FDF7AFFE53E28021C5481FF0DCFA28
:1029E00004460121C2481FF0D7FA05464021C048DD
:1029F0001FF0D2FA06464FF40041B2481FF0CCFA5D
:102A000007464FF48051BB481FF0C6FA80464FF48A
:102A10008061B7481FF0C0FA81464FF40061B548A5
:102A20001FF0BAFA4FF400611790B1481FF0B4FAE2
:102A300082464FF48061A3481FF0AEFA83464FF4FC
:102A40008051AB481FF0A8FA4FF4006116909D48E2
:102A50001FF0A2FA4FF400511590A5481FF09CFA00
:102A60004FF48041149097481FF096FA4FF480413C
:102A700013909F481FF090FA4FF4807112909D4878
:102A80001FF08AFA4FF40041119099481FF084FA20
:102A9000CDE90B76CDE90D5410901798CDE907A03C
:102AA000CDE9099814A807C803ABA3E80708DDE936
:102AB00011121398CDE90012029083A2282122A8B6
:102AC000109B23F01DFC112222A98BA0FDF732FEE2
:102AD000D6E112228A4801688AA0FDF7D8FDCFE12D
:102AE00013228D4801688DA0FDF7D1FDC8E11422A5
:102AF0008D4801688DA0FDF7CAFDC1E14FF400616A
:102B00006E481FF049FA0446152221468AA0FDF7B7
:102B1000BEFDB5E116228C4801788CA0FDF7B7FD0B
:102B2000AEE14FF4007165481FF036FA04461722F3
:102B300021468AA0FDF7ABFDA2E14FF40071604889
:102B40001FF02AFA04461822214688A0FDF79FFDAF
:102B500096E1202159481FF01FFA04461922214608
:102B600086A0FDF794FD8BE14FF4807154481FF06F
:102B700013FA04461A22214684A0FDF788FD7FE15E
:102B8000524F424F5420322044414E472043484147
:102B9000592053414E20444F3A202020000000008D
:102BA0008C000020494D553A00000000A400002090
:102BB0004C617A657220706861690000B80000207D
:102BC00054726F206368616E205472756F633A208F
:102BD00000000000A00000204C617A657220747231
:102BE00061692000BC00002054726F206368616E30
:102BF000205361753A202000980000204C617A65CE
:102C00007220736175200000C000002054726F2094
:102C10006461792074617920312000009C000020DB
:102C20004C617A6572207472756F63200000000039
:102C3000C400002054726F2064617920746179208F
:102C400032200000F00200206D6F64652062616335
:102C500020332000B000002054726F20786F61791B
:102C60002074617920000000E80200206D6F646527
:102C70005F636861795F72756E673A2000000000DB
:102C8000E40200206E6861745F6461745F686F7055
:102C900020000000EC0200206D6F6465206E68610A
:102CA0007420686F702000006E0800205175616EFE
:102CB000675F74726F203A2000000000001002402D
:102CC00000080240000C0240256425642564256448
:102CD00025642564256425642564256425642564AC
:102CE000256425642564256400000000493A00003D
:102CF0000004024000000240696E323A0000000009
:102D0000C4020020636F756E745F646174615F75E7
:102D10006172743420000000D0020020626C6F6386
:102D20006B5F7068613A2000D802002069645F64BC
:102D300061745F686F70200043425F4E616E675F31
:102D4000747261692000000068020020726F626F77
:102D5000745F706F736974696F6E000043425F4EF9
:102D6000616E675F70686169000000006368656399
:102D70006B5F686F705F313A0000000063686563E5
:102D80006B5F686F705F323A2000000063686563B4
:102D90006B5F686F705F333A200000004021FE488F
:102DA0001FF0FAF804461B222146FCA0FDF76FFC39
:102DB00066E00121FD481FF0EFF804461C22214681
:102DC000FBA0FDF764FC5BE0FDF782FE04461D22DC
:102DD0002146F9A0FDF75BFC52E0FDF74CFE0446EE
:102DE0001E222146F8A0FDF752FC49E0FDF7C4FE83
:102DF00004461F222146F8A0FDF749FC40E0FDF7FC
:102E000091FE044620222146F7A0FDF740FC37E062
:102E10002122F9480168F9A0FDF739FC30E02222AF
:102E2000FB480168FBA0FDF732FC29E02322FB48A8
:102E30000168FBA0FDF72BFC22E02422FB4801687F
:102E4000FBA0FDF724FC1BE02522FC480168FCA048
:102E5000FDF71DFC14E02622FC480168FCA0FDF7EC
:102E600016FC0DE02722FE480168FEA0FDF70FFCCE
:102E700006E02822FE480168FEA0FDF708FC00BF1E
:102E800000BF2FB0BDE8F08F10B50121FC481FF046
:102E9000B3FE10BD01B5FB4800680099884203DD10
:102EA0000020F849086004E0F6480068401CF54935
:102EB0000860F4480068FFF7DBFB08BD01B59DF82A
:102EC0000000052801DA002008BD9DF80000FBE79E
:102ED00030B504461D4624B9EB480078EB4BD8705A
:102EE00011E0002C07DDE0B2FFF7E8FFE74BD870F8
:102EF0000020987007E06342D8B2FFF7DFFFE34B92
:102F0000D8700120987021B9DF480078DF4BD87164
:102F100011E0002907DDC8B2FFF7D0FFDB4BD87105
:102F20000120987107E04B42D8B2FFF7C7FFD74B9B
:102F3000D8710020987122B9D3480078D34BD87249
:102F400011E0002A07DDD0B2FFF7B8FFCF4BD872EF
:102F50000120987207E05342D8B2FFF7AFFFCB4B86
:102F6000D8720020987225B9C7480078C74BD8732B
:102F700011E0002D07DDE8B2FFF7A0FFC34BD873C7
:102F80000120987307E06B42D8B2FFF797FFBF4B61
:102F9000D8730020987330BDBC4AD070D071D07205
:102FA000D0737047B948C07803280DDAB748C079A4
:102FB000032809DAB548C07A032805DAB348C07B8C
:102FC000032801DA012070470020FCE70120B04906
:102FD00008607047AF48006847F23051884201D01E
:102FE000012070470020FCE710B5FFF713FB10BD70
:102FF000A948B0F9000040427047B5EEC00AF1EEB2
:1030000010FA09D2A548D0ED000A70EE600AFDEE74
:10301000E00A10EE900A7047A048D0ED000A70EE6A
:10302000200AFDEEE00A10EE900AF4E710B52DED4F
:103030000A8B044624B99FED9A0ABDEC0A8B10BD99
:10304000002C25DA9748006822F0AFFF41EC190BFD
:10305000204622F0AAFF41EC1C0B9FED930B53EC92
:10306000102B22F0C1FE41EC1B0B9FED910B53EC9A
:10307000102B22F0B3FE41EC1A0B53EC192B22F06B
:1030800025FF41EC180B22F0EBFF00EE100AD4E70D
:103090008448006822F089FF41EC190B204622F099
:1030A00084FF41EC1C0B9FED800B53EC102B22F0A6
:1030B0009BFE41EC1B0B9FED7E0B53EC102B22F083
:1030C000ECFD41EC1A0B53EC192B22F0FFFE41EC06
:1030D000180B22F0C5FF00EE100AAEE7F0EE400A32
:1030E000F5EEC00AF1EE10FA02DBB0EE600A7047AE
:1030F000B1EE600AFBE70146002901DB0846704794
:103100004842FCE701466C48D0ED000AF1EE600A47
:103110006A48D0ED001A80EEA11A00EE901AF8EE7F
:10312000E01A6548D0ED000A41EE210AB0EE600ACF
:10313000FDEEC00A10EE900A7047B0EE402ADFEDB7
:10314000602AB0EE620AB5EEC02AF1EE10FA03D2A0
:10315000F1EE422AB0EE622AF5EEC00AF1EE10FA64
:1031600003D2F1EE602AF0EE620AB5EEC01AF1EE7B
:1031700010FA03D2F1EE412AB0EE621AF5EEC01A4F
:10318000F1EE10FA03D2F1EE612AF0EE621AB4EE1B
:10319000C02AF1EE10FA95E0001002406368656302
:1031A0006B5F686F705F343A20000000000C0240D3
:1031B0005374617274000000454E434F4445525FA2
:1031C0004652282920000000454E434F4445525F97
:1031D000464C282920000000454E434F4445525F8D
:1031E0005252282920000000454E434F4445525F6B
:1031F000524C282920000000F802002064656D5F11
:10320000676F695F74696E5F67617020000000001E
:103210000C0300206775692000000000EC0000200E
:10322000476170547261692000000000F0000020C6
:10323000476170506861692000000000E8000020CC
:103240004761705468616E6720000000C002002072
:103250006E67616E675F7175615F6F33200000009C
:10326000340200206B745F6C6162616E20000000AC
:1032700010030020636865636B5F74696D652000EF
:10328000A0600240840000205803002004000020B9
:10329000BC030020800300208C00002018030020C5
:1032A000000000006C030020333333333333C33F5B
:1032B0009A9999999999C93F500300205403002085
:1032C0006F12833A01DDB0EE420AF4EEC00AF1EE6D
:1032D00010FA01DDB0EE600AB4EEC01AF1EE10FA99
:1032E00001DDB0EE410AF4EEC01AF1EE10FA01DD94
:1032F000B0EE610A7047FE4800687047FD480068FC
:10330000704710B52DED028BB0EE408AFA48006888
:1033100047F2305188420ED11FED1F0AF74880ED69
:10332000000AF74880ED000AF64880ED000AF648EA
:1033300080ED000A4AE0F5480068F5490968401A3E
:10334000ED490968081A00EE100AB8EEC00AF0EE5E
:10335000408AF048D0ED000A88EEA00AEE48D0ED91
:10336000000A30EE200AED48D0ED000A20EE200AD7
:10337000F0EE408AB0EE680A23F026FBF0EE000A79
:1033800020EE200ADD4880ED000AB0EE680A23F046
:1033900073FAF0EE000A20EE200AD94880ED000A08
:1033A000D64890ED000ADE48D0ED000A30EE200A43
:1033B000D54880ED000AD24890ED000AD848D0EDFB
:1033C000000A30EE600ACF4880ED000AB5EEC08AF0
:1033D000F1EE10FA73D0D3480068052820D2DFE858
:1033E00000F003203A546F00C74890ED000A30EE19
:1033F000080A80ED000AC34890ED000A30EE480A42
:1034000080ED000ABE4890ED000A30EE080A80ED1B
:10341000000ABA4890ED000A30EE480A80ED000A32
:1034200068E0B84890ED000A30EE480A80ED000AE6
:10343000B34890ED000A30EE080A80ED000AAF486C
:1034400090ED000AB848D0ED000A08EE600AAB48DB
:1034500080ED000A4EE0AC4890ED000A30EE080A1C
:1034600080ED000AA64890ED000AAF48D0ED000AB2
:1034700008EE200AA24880ED000AA04890ED000A5C
:1034800030EE480A80ED000A34E09F4890ED000AD3
:1034900030EE080A80ED000A9A4890ED000AA24832
:1034A000D0ED000A08EE600A964880ED000A9348C5
:1034B00090ED000A30EE480A80ED000A1AE01AE0AA
:1034C000914890ED000A9848D0ED000A08EE200AD5
:1034D0008D4880ED000A8B4890ED000A30EE480AD6
:1034E00080ED000A864890ED000A30EE080A80ED73
:1034F000000A00BF00BF8148D0ED001A804890ED5F
:10350000001A8048D0ED000A7F4890ED000AFFF7CE
:1035100014FE8648D0ED000AF8EEE00A80EE801A2C
:10352000BDEEC10A824880ED000A714800688049FA
:103530000968884203DD7E4800686D490860012003
:103540007C490860BDEC028B10BD10B5044600201C
:103550007949086079480460FCB900206449086032
:103560001FEDB10A6E4880ED000A47F23050624903
:103570000860734908601FEDB60A724880ED000AC2
:10358000002068490860704908605A4908606F491E
:1035900008601FEDBD0AFFF7B4FE10BD10B5694805
:1035A00090ED000AB5EEC00AF1EE10FA05D15D48C3
:1035B000006810B96448006890B11FEDC70A6148FF
:1035C00080ED000A0020574908605F4908604F48B5
:1035D00000684F4908605B4890ED000AFFF791FED4
:1035E00010BD5B48C0ED000A5A4880ED000A7047E4
:1035F00070B52DED028B05460C46B0EE408A3E4874
:103600000068A8420BD14C480068A04207D144484A
:1036100090ED000AB4EE480AF1EE10FA18D04648D0
:1036200004603348006810B9052031490860374804
:103630000068374908603A4880ED008A2E480560E6
:103640000020454908603F4890ED000AFFF759FE09
:10365000BDEC028B70BD70B52DED028B0446B0EE53
:10366000408A0D4638480068A0420BD1354890ED9D
:10367000000AB4EE480AF1EE10FA03D129480068B6
:10368000A84272D01C48006847F23051884225D1C8
:103690002820294908601648006810B90A201449F2
:1036A000086047F23050844218DA0120114908605E
:1036B000B5EEC08AF1EE10FA03DD14480068A042AE
:1036C00008DCB5EEC08AF1EE10FA07D20F480068A8
:1036D000A04203DAB1EE480AB0EE408A1A4804600C
:1036E00010480560174880ED008A00201A4936E02E
:1036F0006C0300209803002080030020B803002002
:10370000B4030020B0030020AC030020A00300207D
:103710008C030020300300203C03002060030020C5
:1037200094030020680300202003002014030020DD
:10373000740300206403002070030020780300203D
:10374000840300209003002088030020BC03002095
:1037500050030020540300207C03002005E0086093
:10376000FE4890ED000AFFF7CCFDBDEC028B70BD6A
:1037700010B52DED028BB0EE408A04462146B0EE26
:10378000480A47F23050FFF766FFBDEC028B10BDD0
:1037900070B504460D469FEDF20A29462046FFF714
:1037A00027FF70BD70B52DED088BF0EE408A044602
:1037B000B0EE608AB0EE419AEA4890ED000AB8EEA9
:1037C000C00AB4EE680AF1EE10FA0DD1E6480068BE
:1037D000A04209D1E54890ED000AB8EEC00AB4EE67
:1037E000480AF1EE10FA5ED0BDEEE80ADD4880ED41
:1037F000000ADF4991ED000AB8EEC00A38EEC00AAF
:10380000BDEEC00A10EE100A9FEDD50A2146FFF763
:10381000EFFED74890ED000AB8EEC00A38EE400A35
:10382000BDEEC00A10EE105A002D01DB284600E064
:103830006842642814DDCE4890ED000AB8EEC00A54
:10384000B4EEC08AF1EE10FA02DDB0EE490A01E0F2
:10385000B1EE490A10EE101A084622F0D6FB13E02A
:10386000C34890ED000AB8EEC00A38EE400A10EEE8
:10387000101A084622F0C9FB41EC1B0B9FEDBD0B53
:1038800053EC102B22F0B0FA41EC1A0B22F0E8FBBB
:1038900009EE900A0021B0EE690AFDEEC80A10EEAA
:1038A000900AFFF7D8FEBDEC088B70BD10B5B34889
:1038B000006801283DDDAD490968AD4A1268881AE3
:1038C000FFF719FC0A280CDAAC4801680068401CB4
:1038D000AA4A1060B1F5FA7F2BDD0020FFF735FE14
:1038E00010BDA6480068FA2808DD05209E4908603A
:1038F000A3490860FB20A149086004E005209A491B
:1039000008609F4908609A48006898490968884299
:1039100005DDBFEE000A914880ED000A04E0B7EE35
:10392000000A8E4880ED000A8C4890ED000AFFF7EF
:10393000E8FC00BFD4E710B52DED028B914890ED67
:10394000000AB5EEC00AF1EE10FA08D18C48006802
:1039500028B18648006847F23051884202DBBDEC4E
:10396000028B10BD7D4890ED000AB5EEC00AF1EE65
:1039700010FA7CD08448006847F23051884277D1F1
:10398000764890ED000AB5EEC00AF1EE10FA08DDB7
:10399000764800687D490968401A75490968884277
:1039A00010DB6E4890ED000AB5EEC00AF1EE10FA99
:1039B0007ED26E4800687549096808446C490968F8
:1039C000884275DD6D48006803285CDA674909683C
:1039D000674A1268881AFFF78EFB082816DA6348D0
:1039E00000686B4908600020654908605E4908600E
:1039F0009FED5B0A594880ED000A02205F4908608C
:103A0000564890ED000AFFF77CFCA8E7574800688D
:103A100057490968884237DD594890ED000AB8EEE9
:103A2000C00A4E48D0ED000A60EE200A574890EDDB
:103A3000000AB8EEC00AC0EE801AB0EE611AB0EE0D
:103A4000410AFFF74BFB49490968494A1268881A3D
:103A5000FFF751FB00EE900AB8EEE01A4D48D0EDAA
:103A6000000A40EE010A464890ED000A01E0CCE071
:103A700047E0B8EEC00A80EE801AB0EE418AB0EEA0
:103A8000480AFFF73EFCBFE03D4890ED000AB8EE63
:103A9000C00A3248D0ED000A60EE200A3B4890EDA3
:103AA000000AB8EEC00AC0EE801AB0EE611A00E05B
:103AB00021E0B0EE410AFFF711FB2C4909682C4ABE
:103AC0001268881AFFF717FB00EE900AB8EEE01AAA
:103AD0003048D0ED000A50EE410A294890ED000A26
:103AE000B8EEC00A80EE801AB0EE418AB0EE480A05
:103AF000FFF707FC88E0194890ED000AFFF701FC8A
:103B000082E0164890ED000AB5EEC00AF1EE10FA18
:103B10001FDD164890ED000AB8EEC00A1848D0ED37
:103B2000000AF8EEE00A0D4890ED001A00EEC10A16
:103B30001948D0ED000AF8EEE00A70EE600A0C4871
:103B400090ED000AB8EEC00AF4EEC00AF1EE10FAE9
:103B500049D3024890ED000A20E0000090030020C5
:103B60000000000084030020700300208803002070
:103B7000A00300207B14AE47E17A743F9803002035
:103B80006C03002094030020800300204C030020DD
:103B90009C0300202C03002048030020B5EEC00A3F
:103BA000F1EE10FA2BD2FE4890ED000AB8EEC00AF2
:103BB000FC48D0ED000AF8EEE00AFB4890ED001A50
:103BC00000EEC10AF948D0ED000AF8EEE00A70EE06
:103BD000200AF74890ED000AB8EEC00AF4EEC00AD9
:103BE000F1EE10FA0BDDEE490968F14A1268881A05
:103BF000FFF71CFAB0EE408AFFF783FB04E0EA48C7
:103C000090ED000AFFF77DFBA9E6EA490968E84A5A
:103C10001268881AFFF70AFAB0EE408AFFF771FBC4
:103C200000BF9CE600B5E4480068022815DA1FEDE5
:103C3000340AE24880ED000A1FED370ADA4880EDC9
:103C4000000A0020DE49086047F23050DD49086074
:103C5000DD4908600020D2490860DC480068401C4B
:103C6000DA490860DA490968884204DAD948006804
:103C7000FFF792F90EE0D6480068D4490860D648AC
:103C8000006820B1D3480068FFF786F902E0002001
:103C9000FFF782F900BDCD4A1268521CCB4B1A6067
:103CA000824207DDBF4A12680A44BE4B1A600022F6
:103CB000C64B1A6070472DE9F041FFF799F9BC49EE
:103CC0000860FFF7F3FDC5480068002821DDB5480E
:103CD0000068C249096888422AD0B2480068BF49D2
:103CE000096888420EDAAF480068BD490968884211
:103CF0001EDAAC480068FFF705FA04460121FFF719
:103D0000CAFF15E04FF0FF31B6480068FFF7C3FF68
:103D10000EE0A4480068002806DD6FF00101B248FB
:103D20000068FFF7B8FF03E0FFF77CFFBDE8F08114
:103D3000AE4800689E490968884205D0FFF7FBFD40
:103D40009B480068A9490860A9480068F0B39548F5
:103D5000D0ED000AF8EEE00AA64890ED001A60EEF9
:103D6000810AB0EE600AFFF748F904468D48D0EDAD
:103D7000000AF8EEE00AA04890ED001A60EE810A11
:103D8000B0EE600AFFF739F905468648D0ED000A23
:103D9000F8EEE00A994890ED001A60EE810AB0EE64
:103DA000600AFFF72AF906467E48D0ED000AF8EED1
:103DB000E00A934890ED001A60EE810AB0EE600AC6
:103DC000FFF71BF9074623462A4600E002E031468A
:103DD000FFF77EF800BFA9E78A4801680068401C29
:103DE000884A1060462907D28748408B874909686E
:103DF0000844864908600BE0844800684621B0FB0F
:103E0000F1F08349086000207E4908607F4908601E
:103E1000804801680068401C7E4A1060462907D22D
:103E20007948008B7C49096808447B4908600BE0AD
:103E3000794800684621B0FBF1F07849086000201D
:103E40007449086074490860754801680068401C3E
:103E5000734A1060462907D26B48808A7149096805
:103E60000844704908600BE06E4800684621B0FBCA
:103E7000F1F06D49086000206949086069490860EF
:103E80006A4801680068401C684A1060462907D2E9
:103E90005D48C08A664909680844654908600BE0C6
:103EA000634800684621B0FBF1F0624908600020D9
:103EB0005E4908605E4908605F4801680068401C10
:103EC0005D4A1060322907D24F4840895B49096832
:103ED00008445A4908600BE0584800683221B0FB9A
:103EE000F1F05749086000205349086053490860C1
:103EF000544801680068401C524A1060322907D2B9
:103F00004148C0885049096808444F4908600BE09F
:103F10004D4800683221B0FBF1F04C4908600020A8
:103F20004849086048490860494801680068401CE1
:103F3000474A1060322907D23348808845490968CA
:103F40000844444908600BE0424800683221B0FB55
:103F5000F1F04149086000203D4908603D49086092
:103F60003E4801680068401C3C4A1060462907D260
:103F7000254800893A4909680844394908600BE036
:103F8000374800684621B0FBF1F036490860002050
:103F9000324908603249086033480168006865E0CA
:103FA000880300206C0300209003002048030020B9
:103FB000A00300208C03002098030020940300201D
:103FC0006803002080030020840300207C0300207D
:103FD0005C03002058030020BC0300207003002075
:103FE00074030020A803002078030020A40300200D
:103FF00064030020B8030020B4030020B0030020B5
:10400000AC0300200C0500206E08002010050020E5
:104010009800002014050020180500209C000020B6
:104020001C05002020050020A400002024050020FD
:1040300028050020A00000202C05002030050020CD
:10404000A80000204405002048050020BC000020F6
:104050004C05002050050020B80000205405002029
:1040600058050020B00000206C050020401CFE4ACE
:104070001060462907D2FD480088FD4909680844B8
:10408000FB4908600BE0FA4800684621B0FBF1F0FC
:10409000F84908600020F4490860F5490860F648CE
:1040A00001680068401CF44A1060462907D2EF48B6
:1040B0004088F24909680844F04908600BE0EF487D
:1040C00000684621B0FBF1F0ED4908600020EA49A4
:1040D0000860EA4908607047EA480068EA490968E8
:1040E000401A03EE100AB8EEC33AF0EE430AE7486E
:1040F00090ED003A23EE203AF0EE432AE1480068C2
:10410000E3490968884203DAE1480068DD4908604C
:10411000DC480068DF490968884203DDDD48006843
:10412000D8490860BDEEE03A13EE100A002801DB22
:10413000014600E0414204297EDDD74890ED003A77
:1041400033EE203A80ED003A90ED003ADFEDD33ABD
:10415000B4EEE33AF1EE10FA03DD9FEDD03A80EDD4
:10416000003ACD4890ED003ADFEDCD3AB4EEE33AB7
:10417000F1EE10FA03D29FEDCA3A80ED003AC94839
:1041800090ED003AC448D0ED003A23EE232AC64809
:1041900090ED003A30EEC33AC448D0ED003A63EEF9
:1041A000231AC148C0ED000A32EE823A33EE213ABA
:1041B000BF4880ED003AF5EEC00AF1EE10FA03D2E6
:1041C0000120BC49887502E00020BA498875B849C9
:1041D00091ED003ABDEEC33A13EE100A002801DB60
:1041E000014600E0414203EE101AB8EEC33AF0EE89
:1041F000083A23EE230AB04890ED003AB8EEC33AED
:10420000B4EEC30AF1EE10FA05DD90ED003AB8EE17
:10421000C33AB0EE430AB3EE043AB4EEC30AF1EE89
:1042200010FA03D2B3EE043AB0EE430AA34890ED7D
:10423000003A30EE431A00E029E09FEDA13AB4EED7
:10424000C31AF1EE10FA08DD90ED003ADFED9C3A6A
:1042500033EE233AB0EE430A0FE09FED9A3AB4EE04
:10426000C31AF1EE10FA08D2944890ED003ADFED4F
:10427000943A33EE633AB0EE430A904880ED000A78
:10428000BCEEC03A13EE100A8A49C87513E09FEDE0
:104290008E3A814880ED003A9FED8B3A824880ED5E
:1042A000003A02208349C875002088759FED863A40
:1042B000824880ED003A7047844800688449096864
:1042C000401A03EE100AB8EEC33AB0EE430A814832
:1042D00090ED003A23EE003AF0EE432A7B48006866
:1042E0007D490968884203DA7B480068774908609D
:1042F0007648006879490968884203DD7748006894
:1043000072490860BDEEC03A13EE100A002801DBC6
:10431000014600E0414204297EDD714890ED003AFB
:1043200033EE003A80ED003A90ED003ADFED5B3A73
:10433000B4EEE33AF1EE10FA03DD9FED583A80ED6A
:10434000003A674890ED003ADFED553AB4EEE33AB3
:10435000F1EE10FA03D29FED523A80ED003A614837
:1043600090ED003A5E48D0ED003A23EE232A5E48F5
:1043700090ED003A30EE433A5C48D0ED003A63EEFF
:10438000231A594880ED000A32EE823A33EE213A80
:10439000574880ED003AB5EEC00AF1EE10FA03D2AC
:1043A00000204449887402E0012042498874504941
:1043B00091ED003ABDEEC33A13EE100A002801DB7E
:1043C000014600E0414203EE101AB8EEC33AF0EEA7
:1043D000083A63EE230A474890ED003AB8EEC33A34
:1043E000F4EEC30AF1EE10FA05DD90ED003AB8EEF6
:1043F000C33AF0EE430AB3EE043AF4EEC30AF1EE28
:1044000010FA03D2B3EE043AF0EE430A3A4890EDC4
:10441000003A30EEC31A00E075E09FED293AB4EEA1
:10442000C31AF1EE10FA08DD90ED003ADFED243A00
:1044300033EE233AF0EE430A0FE09FED223AB4EE5A
:10444000C31AF1EE10FA08D22B4890ED003ADFEDD6
:104450001C3A33EE633AF0EE430A2748C0ED000AF7
:10446000BCEEE03A4AE000006C0500206E08002037
:1044700070050020C0000020740500207805002091
:10448000C400002030040020B80000208C0400206C
:10449000280400202C040020980400200000FA4387
:1044A0000000FAC3900400209C0400209404002023
:1044B000A00400200400002068040020A4040020C0
:1044C0009A99193F9A9919BF000000003C040020F6
:1044D000BC000020A8040020340400203804002080
:1044E000B4040020AC040020B8040020B004002074
:1044F000BC04002064040020C004002013EE100A55
:10450000F949C87413E01FED103AF84880ED003AFD
:104510001FED133AF64880ED003A0220F249C874C4
:10452000012088741FED183AF24880ED003A704778
:10453000F1480068F1490968884203DAEF480068E9
:10454000ED490860EC480068ED490968884203DDE0
:10455000EB480068E8490860EA490968E64A1268D9
:10456000881A002801DB014600E04142042931DDC0
:10457000E4480068E0490968884203DD0020DA4920
:10458000887602E00120D8498876DE490968DA4A4F
:104590001268881A002801DB014600E0414201EB65
:1045A00081018900D84A116010460068D74909681E
:1045B000884203DDD548006811460860D24800688B
:1045C000642802DA6420D0490860CF480078C649E0
:1045D000C87602E00020C449C8767047CC4800681D
:1045E000CC490968884203DACA480068C8490860AB
:1045F000C7480068C8490968884203DDC6480068A2
:10460000C3490860C5490968C14A1268881A002868
:1046100001DB014600E04142042933DDBF48006868
:10462000BB490968884204DD0020AF4981F82A00AF
:1046300003E00120AC4981F82A00B8490968B44A6E
:104640001268881A002801DB014600E04142162268
:104650005143AD4A116010460068B149096888426B
:1046600003DDAF48006811460860A748006832289B
:1046700002DA3220A4490860A34800789A4981F8F8
:104680002B0003E00020984981F82B00704710B5FB
:10469000A4480068A4490968884203DAA24800686F
:1046A000A04908609F480068A0490968884203DD66
:1046B0009E4800689B4908609D4B1B68994C246884
:1046C0001A1B002A01DB134600E05342022B4EDD89
:1046D0008C4B1B68974C2468191B002901DB0B4687
:1046E00000E04B42142B42DA8C4B1B68924C24683E
:1046F000181B002801DB034600E04342142B36DA86
:104700008B48006887490968884204DD01207649A2
:1047100081F8260003E00020734981F826008449CF
:104720000968804A1268881A002801DB014600E007
:10473000414201EB4101744A1160104600687F4913
:104740000968884203DD7D480068114608606E48AC
:104750000068322802DA32206B4908606A48007823
:10476000614981F8270000207549086006E00020B3
:104770005D4981F8270001207149086010BD322091
:104780007049086070490860704750206D490860A2
:1047900051206D4908607047B4206A490860B5200F
:1047A000694908607047E62066490860E720664965
:1047B0000860704700B50246FFF7EEFF63480260ED
:1047C0006348026000BD00B50246FFF7D8FF5F48AE
:1047D00002605F48026000BD00B50246FFF7D5FFEA
:1047E0005A4802605A48026000BD00B50246FFF711
:1047F000DAFF564802605648026000BD70B5FA20E4
:10480000424908604B4800683B490860FA20444927
:104810000860494800683E49086000204D4908602A
:1048200035E006E0012020F0B7FDFCF71BF900B9E8
:1048300027E0344B1B68304C2468191B002901DB2E
:104840000B4600E04B423B4C24682C4D2D68621B0C
:1048500002EBD2746410A342E4DC374B1B682D4C8E
:1048600024681B1B032493FBF4F42C4B1B68284D7A
:104870002D68581B002801DB034600E043429C42A0
:10488000D0DB00BF33480068401C32490860314823
:1048900000683228C5DB70BD2F48006878B92F4802
:1048A000006860B92E48006848B92E48006830B9E1
:1048B0000D48C07F40F080000B49C8777EE0264855
:1048C0000068012850D12548006860B92448006874
:1048D00048B92448006830B90348C07F40F0200040
:1048E0000149C8776AE03FE004000020B4040020DA
:1048F000B8040020C0040020540400204C04002010
:1049000050040020C0000020C804002070040020D3
:1049100060040020580400205C040020C400002033
:1049200074040020480400204004002044040020B7
:10493000B0000020B4010020B80100206C04002069
:1049400024040020640400206804002030040020B7
:104950003C040020EC030020380200203C02002030
:104960004002002044020020F8480068012810D1CD
:10497000F748006801280CD1F648006848B9F648A5
:10498000006830B9F548C07F40F08000F349C8772F
:1049900014E0EE480068012810D1ED4800680128B5
:1049A0000CD1EC480068012808D1EB48006828B910
:1049B000EA48C07F40F02000E849C877704710B54A
:1049C000E2480068002852D1E148006800284ED132
:1049D000E048006800284AD1DF480068002846D136
:1049E00023E00421DE481DF0D7FA70B98021DD48AC
:1049F0001DF0D2FA48B99FEDDC1ADFEDDC0A0E207B
:104A00009FEDDB0AFEF7CEFE08E09FEDD71ADFED43
:104A1000D70A0C209FEDD70AFEF7C4FE012020F034
:104A2000BBFCFCF71FF800B906E04FF48071D248D8
:104A30001DF0B2FA0028D4D000BFFFF72DFF9FED84
:104A4000CA1ADFEDCA0A0A209FEDCC0AFEF7AAFEB9
:104A500006E0012020F0A0FCFCF704F800B905E016
:104A60000421BF481DF098FA0028F2D006E1B748AB
:104A70000068012851D1B648006800284DD1B548DA
:104A80000068D8BBB4480068C0BB23E00421B44828
:104A90001DF082FA70B98021B2481DF07DFA48B944
:104AA0009FEDB11ADFEDB10A0E209FEDB10AFEF7BE
:104AB00079FE08E09FEDAC1ADFEDAC0A0C209FED0B
:104AC000AD0AFEF76FFE012020F066FCFBF7CAFF7F
:104AD00000B906E04FF48071A7481DF05DFA002888
:104AE000D4D000BFFFF7D8FE9FED9F1ADFED9F0ADD
:104AF0000A209FEDA20AFEF755FE07E00DE0012017
:104B000020F04AFCFBF7AEFF00B905E00421944811
:104B10001DF042FA0028F2D0B0E08C48006801286D
:104B200053D18B48006801284FD18A480068E0BB08
:104B300089480068C8BB24E04FF400618E481DF02E
:104B40002BFA70B9012187481DF026FA48B99FED6C
:104B5000861ADFED860A0E209FED890AFEF722FEF7
:104B600008E09FED811ADFED810A0C209FED810A9C
:104B7000FEF718FE012020F00FFCFBF773FF00B9D1
:104B800006E04FF480717C481DF006FA0028D3D06F
:104B900000BFFFF781FE9FED741ADFED740A0A2053
:104BA0009FED780AFEF7FEFD07E00EE0012020F001
:104BB000F3FBFBF757FF00B906E04FF400616E48C6
:104BC0001DF0EAF90028F1D058E06048006801289B
:104BD00054D15F480068012850D15E480068012820
:104BE0004CD15D480068C8BB24E04FF400616248C6
:104BF0001DF0D2F970B901215A481DF0CDF948B91C
:104C00009FED591ADFED590A0E209FED5D0AFEF760
:104C1000C9FD08E09FED541ADFED540A0C209FED0A
:104C2000550AFEF7BFFD012020F0B6FBFBF71AFF87
:104C300000B906E04FF480714F481DF0ADF900282F
:104C4000D3D000BFFFF728FE9FED471ADFED470ADC
:104C50000A209FED4C0AFEF7A5FD07E00EE00120BB
:104C600020F09AFBFBF7FEFE00B906E04FF400616E
:104C700041481DF091F90028F1D000BF0020FEF757
:104C800064FC10BD2DE9F04105460E46FFF784FD9A
:104C90003D480068FA303D4908603D480068FA30F8
:104CA0003C490860002415E006E0012020F074FB78
:104CB000FBF7D8FE00B90BE037490968354A12689E
:104CC000881A002801DB014600E041420F29ECDC94
:104CD00000BF641C322CE7DB9FED301A00EE106A37
:104CE000F8EEC00A142000EE105AB8EEC00AFEF723
:104CF00059FD002410E006E0012020F04DFBFBF7F9
:104D0000B1FE00B906E04FF480711B481DF044F974
:104D10000128F1D000BF641C962CECDB9FED1F1A1C
:104D200000EE106AF8EEC00A0E2000EE105AB8EE3F
:104D3000C00AFEF737FD002442E031E0012020F0F8
:104D40002BFBFBF78FFE00B938E029E0380200208A
:104D50003C02002040020020440200200400002009
:104D600000100240000402403333333F000061442E
:104D7000008009C4000061C4000002400000164326
:104D800000C0C1C40080D4442804002030040020A6
:104D9000340400203C040020BC000020CDCC4C3F5B
:104DA0004FF48071F8481DF0F7F80128C6D04FF491
:104DB0008051F5481DF0F0F80028BFD000BF641CFA
:104DC000962CBADB0020FEF7C0FBE620EF49086016
:104DD000EF480068401DEF490860002415E006E038
:104DE000012020F0D9FAFBF73DFE00B90BE0EA49BB
:104DF0000968E84A1268881A002801DB014600E0C9
:104E000041421E29ECDC00BF641C322CE7DB4FF46E
:104E10002F7020F0C1FA1FED2C1A00EE106AF8EE88
:104E2000C00A212000EE105AB8EEC00AFEF7BAFC04
:104E300040F2A46020F0B0FA002415E006E0012062
:104E400020F0AAFAFBF70EFE00B90BE08021D34850
:104E50001DF0A2F8012805D10121D0481DF09CF8D1
:104E60000128ECD000BF641CB4F57A7FE6DB40F289
:104E7000145020F091FA3220C4490860C4480068F8
:104E80000F30C44908601FED3B1A00EE106AF8EEBF
:104E9000C00A242000EE105AB8EEC00AFEF782FCC9
:104EA00000240FE006E0022020F076FAFBF7DAFD9E
:104EB00000B905E00121BA481DF06EF80128F2D0D2
:104EC00000BF641C40F226208442EBDB1FED4D1A2C
:104ED00000EE106AF8EEC00A0F2000EE105AB8EE8D
:104EE000C00AFEF75FFC002410E006E0012020F07D
:104EF00053FAFBF7B7FD00B906E04FF40051A8489C
:104F00001DF04AF80128F1D000BF641CB4F57A7F87
:104F1000EBDBC82020F040FA0020FEF716FBE6206D
:104F2000A0490860A0480068401DA049086078209A
:104F300096490860964800680A309649086000243F
:104F400015E006E0012020F027FAFBF78BFD00B901
:104F50000BE097490968954A1268881A002801DB16
:104F6000014600E041421E29ECDC00BF641CFA2C23
:104F7000E7DB9FED901A00EE106AF8EEC00A1220EF
:104F800000EE105AB8EEC00AFEF70CFC002416E042
:104F900006E0012020F000FAFBF764FD00B90CE008
:104FA0004FF4006178481CF0F7FF012805D1042177
:104FB0007B481CF0F1FF0128EBD000BF641CFA2CE9
:104FC000E6DBFDF703FB06E0052020F0E5F9FBF743
:104FD00049FD00B914E0FBF77BFD8046FBF74BFD74
:104FE000071E01DB384600E07842B8F1000F01DB14
:104FF000414601E0C8F100010844B0F5C87FE3DB99
:1050000000BFFFF7C9FB40F2091068490860614919
:1050100008609FED681A00EE106AF8EEC00A1020D2
:1050200000EE105AB8EEC00AFEF7BCFB00240FE0F9
:1050300006E0012020F0B0F9FBF714FD00B905E00F
:10504000102157481CF0A8FF0128F2D000BF641CB3
:10505000642CEDDB40F2DC5020F09EF90020FEF7DE
:1050600074FABDE8F0812DE9F0472DED028B07467B
:105070000D4614461E469DED0A8ADDE90B89B7EE02
:10508000001AF8EEC80A102000EE104AB8EEC00A66
:10509000FEF788FB304620F07FF90020FEF755FA36
:1050A0000021B7EE000A3846FEF7D5FA06E00120E7
:1050B00020F072F9FBF7D6FC00B903E0FEF71EF909
:1050C0000028F4D100BF3220FEF73FFA4FF47A7087
:1050D00020F062F949464046FFF7D4FD0020FEF774
:1050E00034FA0021B7EE000A2846FEF7B4FA06E0CB
:1050F000012020F051F9FBF7B5FC00B903E0FEF701
:10510000FDF80028F4D100BF0020FEF71EFABDEC28
:10511000028BBDE8F08770B505460E46FFF73CFBF5
:1051200021480068083021490860194800680830A3
:1051300018490860002415E006E0012020F02CF951
:10514000FBF790FC00B90BE013490968114A12689B
:10515000881A002801DB014600E041420A29ECDC04
:1051600000BF641C322CE7DBB7EE001A00EE106AB9
:10517000F8EEC00A0F2000EE105AB8EEC00AFEF793
:1051800011FB002429E0000000000240640400201C
:10519000340400203C040020BC0000200004024035
:1051A0000010024068040020280400203004002081
:1051B000B80000206666663F06E0012020F0ECF8AB
:1051C000FBF750FC00B906E04FF48071FD481CF07D
:1051D000E3FE0028F1D000BF641CB4F57A7FEBDB5E
:1051E000B7EE001A00EE106AF8EEC00A0A2000EED0
:1051F000105AB8EEC00AFEF7D5FA002421E006E006
:10520000012020F0C9F8FBF72DFC00B917E04FF49E
:105210008071EC481CF0C0FE0028F1D04021EA4823
:105220001CF0BAFE0028EBD08021E7481CF0B4FE49
:1052300028B90121E4481CF0AFFE0028E0D000BFEF
:10524000641CB4F57A7FDADB4FF4967020F0A4F892
:105250000020FEF77AF9F020DC490860DC4800689D
:10526000FA30DC490860002415E006E0012020F057
:1052700093F8FBF7F7FB00B90BE0D7490968D54A6B
:105280001268881A002801DB014600E041421E290D
:10529000ECDC00BF641CFA2CE7DBB7EE001A00EE72
:1052A000106AF8EEC00A1E2000EE105AB8EEC00ACE
:1052B000FEF778FA00240FE006E0022020F06CF8F8
:1052C000FBF7D0FB00B905E00121C4481CF064FEE7
:1052D0000028F2D000BF641C40F226208442EBDBA1
:1052E000B7EE001A00EE106AF8EEC00A102000EEC9
:1052F000105AB8EEC00AFEF755FA002410E006E096
:10530000012020F049F8FBF7ADFB00B906E04FF4AF
:105310000051B2481CF040FE0028F1D000BF641CD0
:1053200040F226208442EADBAD480068401DAD49CA
:105330000860B7EE001A00EE106AF8EEC00A0A2004
:1053400000EE105AB8EEC00AFEF72CFA002410E066
:1053500006E0012020F020F8FBF784FB00B906E00E
:105360004FF480419D481CF017FE0028F1D000BF8B
:10537000641CB4F5FA7FEBDB002417E006E00120A3
:1053800020F00AF8FBF76EFB00B90DE04FF4804106
:1053900092481CF001FE0028F1D04FF400518F48D4
:1053A0001CF0FAFD0028EAD000BF641CB4F5FA7FB7
:1053B000E4DB002410E006E001201FF0EDFFFBF726
:1053C00051FB00B906E04FF4804184481CF0E4FD35
:1053D0000028F1D000BF641CB4F5FA7FEBDB00209D
:1053E000FEF7B3F8F020804908607D480068FA3085
:1053F0007C490860002415E006E001201FF0CCFF86
:10540000FBF730FB00B90BE078490968754A126870
:10541000881A002801DB014600E041421E29ECDC2D
:1054200000BF641C322CE7DBB7EE001A00EE106AF6
:10543000F8EEC00A0F2000EE105AB8EEC00AFEF7D0
:10544000B1F906E001201FF0A7FFFBF70BFB00B945
:1054500005E0102161481CF09FFD0028F2D000BF3C
:105460004FF448701FF098FF0020FEF76EF870BDF3
:105470002DE9F0472DED028B07460D4614461E46DA
:105480009DED0A8ADDE90B894FF4AF70FFF7A4F9AF
:105490000020FEF75AF8B7EE001AF8EEC80A1020FE
:1054A00000EE104AB8EEC00AFEF77CF930461FF055
:1054B00073FF0020FEF749F80021B7EE000A3846D6
:1054C000FEF7C9F806E001201FF066FFFBF7CAFAF5
:1054D00000B903E0FDF712FF0028F4D100BF32202D
:1054E000FEF733F84FF47A701FF056FF49464046F6
:1054F000FFF711FE0020FEF728F80021B7EE000AA2
:105500002846FEF7A8F806E001201FF045FFFBF74C
:10551000A9FA00B903E0FDF7F1FE0028F4D100BFBD
:105520000020FEF712F8BDEC028BBDE8F08770B5E5
:105530002F4805682F48066840F23520FFF73AF9F2
:105540002D48006800287CD12C480068002878D1BC
:105550002B480068002874D12A480068002870D1C0
:105560002949086066E01DE028480068A84209DD76
:105570009FED271ADFED270A0E209FED270AFEF781
:1055800011F908E09FED221ADFED220A0A209FEDB3
:10559000230AFEF707F901201FF0FEFEFBF762FA6F
:1055A00000B941E04FF4805106481CF0F5FC00289A
:1055B000DAD00948006807490968441A002C30DB32
:1055C00020462FE000000240000402406404002056
:1055D000340400203C040020BC00002000100240E5
:1055E000280400203004002068040020B8000020B7
:1055F000A8010020B0010020380200203C02002059
:105600004002002044020020EC030020A000002003
:105610003333333F00006144008022C4000061C482
:105620000FE060421E289FDC00BFF6480068401C67
:10563000F4490860F348006840F20E61884292DB4A
:10564000F4E0F148006801284CD1F0480068C0BB84
:10565000EF480068A8BBEF48006890BB0020E9490C
:10566000086038E01DE0EC480068A84209DD1FED45
:10567000181A5FED180A0E201FED190AFEF792F8AE
:1056800008E01FED1D1A5FED1D0A0A201FED1D0A1F
:10569000FEF788F801201FF07FFEFBF7E3F900B961
:1056A00013E04FF48051DD481CF076FC0028DAD07E
:1056B000DB480068DB490968441A002C02DB2046FD
:1056C00001E00FE060421E28CDDC00BFCD4800683D
:1056D000401CCC490860CB48006840F20E6188420B
:1056E000C0DBA3E0C848006801284DD1C748006866
:1056F000012849D1C6480068A8BBC648006890BBCD
:105700000020C049086038E01DE0C7480068B0428A
:1057100009DD1FED411A5FED410A0E209FEDC30A1E
:10572000FEF740F808E01FED461A5FED460A0A2032
:105730001FED460AFEF736F801201FF02DFEFBF79D
:1057400091F900B913E04FF48051B4481CF024FCE7
:105750000028DAD0B2480068B2490968441A002C1F
:1057600002DB204601E00FE060421E28CDDC00BFD6
:10577000A4480068401CA3490860A248006840F2A1
:105780000E618842C0DB51E09F48006801284DD17E
:105790009E480068012849D19D480068012845D1EC
:1057A0009C48006890BB00209649086038E01DE0E6
:1057B0009D480068B04209DD1FED6B1A5FED6B0A72
:1057C0000E209FED9A0AFDF7EDFF08E01FED701A1D
:1057D0005FED700A0A201FED6F0AFDF7E3FF01205D
:1057E0001FF0DAFDFBF73EF900B913E04FF48051EA
:1057F0008A481CF0D1FB0028DAD089480068894922
:105800000968441A002C02DB204601E00EE06042E9
:105810001E28CDDC00BF7B480068401C7949086029
:105820007848006840F20E618842C0DB0020FDF736
:105830008CFE70BD10B57448006800286ED17348A6
:10584000006800286AD172480068002866D1714853
:105850000068002862D140F23520FEF7BDFF00202D
:10586000684908602AE01FE06F48006870490968CD
:10587000884209DD1FED9A1A5FED9A0A0E209FED0E
:105880006B0AFDF78FFF08E01FED9F1A5FED9F0A7F
:105890000A201FED9E0AFDF785FF01201FF07CFD09
:1058A000FBF7E0F800B903E0624800680128DBDCA0
:1058B00000BF54480068401C5249086051480068C5
:1058C00040F20E618842CEDB9FED5B1A5FEDAF0ABE
:1058D0000A209FED5A0AFDF765FF0020494908603C
:1058E00013E006E001201FF057FDFBF7BBF800B9FD
:1058F00005E04D4800684E4909688842F2DC00BF67
:1059000040480068401C3F4908603E4800689628AF
:10591000E7DB4FF4FA601FF03FFD1CE13A480068F6
:1059200001286ED13948006800286AD138480068DB
:10593000002866D137480068002862D140F235203F
:10594000FEF74AFF00202F4908602AE01FE0364892
:10595000006837490968884209DD1FEDD31A5FEDF9
:10596000D30A0E209FED310AFDF71CFF08E01FED62
:10597000D81A5FEDD80A0A201FEDD80AFDF712FFEA
:1059800001201FF009FDFBF76DF800B903E029487D
:1059900000680128DBDC00BF1A480068401C194978
:1059A00008601848006840F20E618842CEDB9FED27
:1059B000221A5FEDE80A0A209FED200AFDF7F2FEA9
:1059C00000201049086013E006E001201FF0E4FC0D
:1059D000FBF748F800B905E0134800681449096866
:1059E0008842F2DC00BF07480068401C0549086097
:1059F000044800689628E7DB4FF4FA601FF0CCFCFF
:105A0000A9E01DE0EC030020380200203C02002049
:105A10004002002044020020A000002000000240BC
:105A2000BC0000203C040020A400002000C0C1C431
:105A3000B001002098000020CDCCCC3D0000E14416
:105A4000FE480068012841D1FD48006801283DD189
:105A5000FC480068C8BBFC480068B0BB40F2352079
:105A6000FEF7BAFEB6EE001ADFEDF80A0A209FED47
:105A7000F80AFDF797FE0020F649086013E006E0FB
:105A800001201FF089FCFAF7EDFF00B905E0F248AC
:105A90000068F24909688842F2DC00BFED480068FE
:105AA000401CEC490860EB4800689628E7DBB6EE3E
:105AB000001ADFEDE60A0A201FED200AFDF772FE4C
:105AC0004FF4FA601FF068FC45E0FFE7DB48006830
:105AD000012840D1DA48006801283CD1D948006843
