:020000040800F2
:1000000058A501205D850108450200084702000847
:100010004B0200084F0200085302000800000000D5
:100020000000000000000000000000009D0100082A
:100030005702000800000000E101000877B5010840
:10004000778501087785010877850108778501089C
:10005000778501087785010877850108778501088C
:10006000AB040008EF040008778501081B030008B3
:10007000FD0200085D03000877850108750200088D
:1000800077850108810200087785010877850108D6
:10009000778501087785010877850108778501084C
:1000A00077850108C7030008F30300087785010876
:1000B000F5030008230400084F04000877850108B1
:1000C000778501087785010877850108A70400086E
:1000D000778501085D0200087785010877850108AA
:1000E00077850108778501087785010877850108FC
:1000F00077850108778501087785010839030008AD
:1001000077850108778501087B040008A9040008A9
:10011000778501087785010899030008A503000881
:10012000778501089B020008CF0200087785010847
:1001300077850108778501087785010877850108AB
:10014000778501087785010877850108778501089B
:10015000EF02000877850108778501087785010897
:10016000778501087785010877850108778501087B
:10017000778501087785010877850108778501086B
:100180007785010877850108DFF80CD01CF0AEFCFC
:10019000004800475F82010858A50120234B1968D9
:1001A0000868B0E8F04F80F309884FF0000080F352
:1001B000118870470000000003480068006880F361
:1001C000088862B600DF00BF08ED00E0DFF80C0031
:1001D000016841F470010160704700BF88ED00E0E4
:1001E000EFF30980114B1A681EF0100F08BF20EDC5
:1001F000108A20E9F04F106008B54FF0140080F32A
:1002000011881BF080FD4FF0000080F31188BDE8DD
:10021000084019680868B0E8F04F1EF0100F08BFDA
:10022000B0EC108A80F30988704700BF54050020A5
:10023000EFF311804FF0140181F31188704780F3C0
:1002400011887047704700BFFEE700BFFEE700BFA0
:10025000FEE700BFFEE770477047704710B540F2F9
:100260002551A3481AF09BFA18B12021A0481AF092
:100270008DFA10BD10B59F499F4819F0C5F910BD02
:1002800010B59E499C48303019F094F920B19B4933
:100290009948303019F0B8F910BD10B5984999480F
:1002A00019F088F990B19649964819F0ADF901F026
:1002B000CAFF00219048303819F0D2F8082191483F
:1002C00019F0EFF801218F4819F0CAF810BD10B5E8
:1002D0008D498C48183019F097F98C4840788B4933
:1002E000097840EA012000B28949088010BD10B5A4
:1002F00088498448603019F087F910BD10B58049ED
:100300007D48483819F056F930B17D497A48483867
:1003100019F07AF900F0B9FA10BD10B57E497648A7
:10032000603819F047F930B17B497348603819F0EB
:100330006BF901F088FF10BD10B578496E48483060
:1003400019F038F948B100216B48483019F088F8A5
:1003500072496948483019F057F910BD10B56A491B
:100360006548303819F026F9A8B167496248303835
:1003700019F04AF901F024FD00215F48303819F0E6
:100380006FF808215C48303819F08BF801215A4881
:10039000303819F065F810BD10B50121604819F02A
:1003A0005BFF10BD10B501215E4819F055FF7A20A2
:1003B0004F49888001215C481AF000F901215B480F
:1003C0001AF0FCF810BD10B50121594819F044FF8E
:1003D0005748008800F0100028B156480068401EB9
:1003E0005449086004E053480068401C51490860C3
:1003F00010BD704710B50121880719F02DFF4FF08F
:100400008040008800F0100028B14B480068401E72
:100410004949086004E048480068401C46490860B3
:1004200010BD10B50121454819F016FF434800885A
:1004300000F0100028B142480068401E40490860A2
:1004400004E03F480068401C3D49086010BD10B5FD
:1004500001213C4819F000FF3A48008800F01000E4
:1004600028B139480068401E3749086004E0364822
:100470000068401C3449086010BD10B501213348A4
:1004800019F0EAFE3148008800F0100028B1304829
:100490000068401E2E49086004E02D480068401C9A
:1004A0002B49086010BD7047704710B5042019F043
:1004B00043F9D8B12021274818F0C7F9042126486C
:1004C00018F09EF9012804D10021164819F044FAC9
:1004D00009E00421204818F093F920B9114819F0D7
:1004E0003FFA1E49086004201D49086010BD70478E
:1004F0000010014020800020706002400080202019
:10050000008800102864024000802010120800209B
:100510008C0000200088002020800010008000282F
:10052000001000400014004000480040001401404A
:10053000000001406C00002070000020000400401A
:10054000740000200008004088000020000C0040DB
:100550007800002000000240000C024068000020EB
:10056000143C014070B5044620461BF0B5FF05461B
:100570002146F9481BF0B7FFA8B140F22B122146E3
:10058000F5481BF09DFF0021F44818F069FFF24880
:10059000F2490C310860F148B838C0F8BC5001216C
:1005A000EE4818F05DFF70BD70B50446002510E000
:1005B000605D68B1615DEA481AF02BF800BF8021E8
:1005C000E7481AF0D6F80028F9D0681CC5B200E058
:1005D00070BDEDE770B5044600250FE05CB1214623
:1005E000DF481AF016F800BF8021DD481AF0C1F884
:1005F0000028F9D000E070BD681CC5B2032DEDDB0A
:1006000000BFF8E713B50C460020FFF7E3FFD5A0C5
:10061000FFF7CAFF2346D4A29621D4481CF0A4FABF
:10062000D248FFF7C1FFD2A0FFF7BEFFCEA29621AE
:10063000CE48009B1CF098FACC48FFF7B5FFCEA03F
:10064000FFF7B2FFFF20FFF7C5FFFF20FFF7C2FF54
:10065000FF20FFF7BFFF1CBD70B505460C46C1A0CB
:10066000FFF7A2FF2246C0A1C0481CF095FABF4880
:10067000FFF79AFFBEA0FFF797FF2846FFF794FF0A
:10068000BDA0FFF791FFFF20FFF7A4FF70BD77B576
:1006900085B00546FF26B6A103C9CDE90301B6A082
:1006A00000680290AFA00068019000240AE00020DA
:1006B000B2490855B2490855AC490855A6490855EC
:1006C000601CC4B21E2CF2DB0A20A8490870FF206F
:1006D00048708870C870A4A1A948079A1CF05CFAF9
:1006E000A74901A81BF0E0FE01A9A0481BF0DCFE11
:1006F00003A99E481BF0D8FE29469C481BF0D4FE57
:1007000099A19F48069A1CF047FA9D4997481BF00B
:10071000CBFE02A995481BF0C7FEFF209749087041
:100720004870887091481BF0BFFE9048FFF71AFF91
:1007300008B070BDF7B584B005460E46FF278CA102
:1007400003C9CDE902018CA00068019085A0006872
:100750000090002408E00020884908558849085581
:1007600082490855601CC4B20A2CF4DB0A207F4978
:100770000870FF2048708870C8707BA18048069A76
:100780001CF00AFA7E4968461BF08EFE69467748DF
:100790001BF08AFE02A975481BF086FE29467348A5
:1007A0001BF082FE314671481BF07EFE01A96F48A6
:1007B0001BF07AFEFF207149087048708870002095
:1007C000C870087169481BF06FFE6848FFF7CAFEE1
:1007D00007B0F0BD01B58EB06AA2322101A80E9B10
:1007E0001CF0C2F901A8FFF7BDFE0FB000BD73B544
:1007F00084B00546FF265EA103C9CDE902015EA0D3
:100800000068019057A00068009000240AE00020D2
:100810005A4908555A490855544908554E490855EA
:10082000601CC4B21E2CF2DB0A2050490870FF2065
:1008300048708870C8704CA15148059A1CF0ACF9FA
:100840004F4968461BF030FE694648481BF02CFEB5
:1008500002A946481BF028FE294644481BF024FE06
:10086000474942481BF020FE01A940481BF01CFEEE
:10087000FF2042490870487088703C481BF014FE05
:100880003A48FFF76FFE06B070BD10B52DED0C8B2A
:1008900082B03F4800783E49497808443C4989780D
:1008A00008443B49C978084439490979084438491A
:1008B000497908443649897908443549C979084451
:1008C0003349097A0844C0B201903148007A00F0F7
:1008D0000F0000909FED2F0AB0EE40DA2C48407ACE
:1008E0000199884272D12A48007A00F00F000D2841
:1008F0006CD127488078C0F17F0000EE100AB8EE76
:10090000C08A2348C078813800EE100AF8EEC08A09
:10091000B5EEC08AF1EE10FA03D1B7EE000AB0EEE0
:10092000408AF5EEC08AF1EE10FA03D1B7EE000A64
:10093000F0EE408ABDEEC80A10EE102A002A01DB54
:10094000134600E05342BDEEE80A10EE100A0028FC
:1009500022DB044621E00000CA060020B860024005
:100960000050004074000000256400009405002041
:100970002E7478743D220000220000007A060020C8
:10098000520600206A302E76616C3D25640000001E
:1009900053080020DB0F49404442191901EBD17381
:1009A0005B10FE4C2360BDEEE80A10EE101A002921
:1009B00001DB0A4600E04A42322A0FDABDEEC80ADD
:1009C00010EE100A002802DB024601E02FE042424E
:1009D000322A03DA0020F249086030E018EE900A6B
:1009E0001BF047FF41EC1B0B18EE100A1BF041FFF8
:1009F00041EC1C0BB0EE4B1AF0EE6B1AB0EE4C0A49
:100A0000F0EE6C0A1CF074FAB0EE40AAF0EE60AAA8
:100A10009FEDE40B53EC102B51EC1A0B1BF018FE5E
:100A200041EC190B1BF006FFDD49086007E09DF85B
:100A300000000D2803D00021DC4819F0BFFD02B0F2
:100A4000BDEC0C8B10BDDA48007A00F00F000D28C9
:100A500006D1D748007800F0010008B10D2070479A
:100A60000020FCE7D248007800F0100008B1002018
:100A700070470120FCE71CB54FF0804018F070FF74
:100A8000CC49096840EA01400C2190FBF1F000904C
:100A9000002418E04FF0804018F062FFC549096853
:100AA00040EA01400C2190FBF1F00190DDE90021CA
:100AB000881A002801DB014600E04142052900DADE
:100AC000641C01980090022CE4DB019840421CBD9C
:100AD0001CB5B94818F044FFB849096840EA01401C
:100AE0000C2190FBF1F00090002417E0B24818F0C0
:100AF00037FFB249096840EA01400C2190FBF1F050
:100B00000190DDE90021881A002801DB014600E0A0
:100B10004142052900DA641C01980090022CE5DBB3
:100B200001981CBD1CB5A64818F01AFFA549096814
:100B300040EA01400C2190FBF1F00090002417E006
:100B40009F4818F00DFF9F49096840EA01400C21B9
:100B500090FBF1F00190DDE90021881A002801DB0B
:100B6000014600E04142052900DA641C019800902A
:100B7000022CE5DB01981CBD1CB5934818F0F0FE73
:100B80009249096840EA01400C2190FBF1F0009085
:100B9000002417E08C4818F0E3FE8C49096840EA0D
:100BA00001400C2190FBF1F00190DDE90021881A51
:100BB000002801DB014600E04142052900DA641CFF
:100BC00001980090022CE5DB01981CBD01B581B0B5
:100BD00000200090019800EBC0004000009002E06F
:100BE0000098401E009000980028F9D10CBD01B576
:100BF00081B00020009044F2506101984843009079
:100C000002E00098401E009000980028F9D10CBD29
:100C10001CB501211F2017F0D7FF4FF6FF70009081
:100C200001208DF8040000208DF8060001208DF8C9
:100C3000070003208DF805006946654817F07EFD22
:100C40004FF6FF70009001208DF8040000208DF811
:100C5000060001208DF8070003208DF80500694685
:100C60005C4817F06BFD4FF6FF70009001208DF887
:100C7000040000208DF8060001208DF807000320F5
:100C80008DF805006946544817F058FD1CBD1CB589
:100C900001217E2017F098FF4FF4CE5000900020E5
:100CA0008DF8040001208DF8070002208DF8050062
:100CB00069464A4817F042FD4FF6C74000900020B1
:100CC0008DF8040001208DF8070002208DF8050042
:100CD00069463F4817F032FD0420009000208DF84F
:100CE000040001208DF8070002208DF805006946F8
:100CF000384817F023FD4CF60340009000208DF893
:100D0000040001208DF8070002208DF805006946D7
:100D1000314817F013FD4FF42060009000208DF84B
:100D2000040001208DF8070002208DF805006946B7
:100D30002B4817F003FD1CBD1FB54FF4E06017F002
:100D40001FFC36208DF8000000208DF801008DF882
:100D5000020001208DF80300684617F016FC0121FF
:100D6000102017F064FF3220ADF8040040F2E730A5
:100D700002900020ADF80C00ADF8060001A919485A
:100D800018F0A1FD0121174819F066FA0122114659
:100D9000144819F039FA0021124825E0CC0000204F
:100DA000C800002000000080A9E781400048004002
:100DB0005308002070000020000400407400002050
:100DC0000008004088000020000C0040780000204F
:100DD0000004024000080240000C024000000240F3
:100DE000001002400010004018F0B6FD0121FE483E
:100DF00018F0F2FD1FBD1FB54FF4E06017F0C0FB07
:100E000037208DF8000000208DF801008DF80200D9
:100E100001208DF80300684617F0B7FB0121202060
:100E200017F005FF3220ADF8040040F2E7300290E1
:100E30000020ADF80C00ADF8060001A9EB4818F051
:100E400042FD0121E94819F007FA01221146E7485D
:100E500019F0DAF90021E54818F07EFD0121E34898
:100E600018F0BAFD1FBD00B58BB00121022017F0AC
:100E7000EFFE01210C2017F0A7FE03220621DC481B
:100E800017F0E7FC03220721D94817F0E2FC032200
:100E90000821D74817F0DDFC03220921D44817F0B8
:100EA000D8FC4FF47070069002208DF81C000320CF
:100EB0008DF81D0000208DF81E0001208DF81F0008
:100EC00006A9CB4817F03AFCA420ADF8200040F664
:100ED000B83009904FF48070ADF828000020ADF8CC
:100EE000220008A9C34818F0EEFC6020ADF8040009
:100EF0000120ADF8060000200390ADF8100001219C
:100F0000BC4818F069FD0021BA4818F025FD01A978
:100F1000B84818F06DFD01A9B64818F0A2FD01A966
:100F2000B44818F0EBFD01A9B24818F04DFE0121BC
:100F3000B04819F042F90BB000BD00B58BB00121EB
:100F4000082017F074FE0121084617F03DFE02222A
:100F50000021A94817F07DFC02220121A64817F0C4
:100F600078FC02221146A44817F073FC02220321E8
:100F7000A14817F06EFC0F20069002208DF81C008F
:100F800003208DF81D0000208DF81E0001208DF833
:100F90001F0006A9984817F0D1FBBA20ADF8200031
:100FA00042F2107009900020ADF82800ADF8220040
:100FB00008A9924818F087FC6020ADF804000120D1
:100FC000ADF8060000200390ADF8100001218B4819
:100FD00018F002FD0021894818F0BEFC01A98748DD
:100FE00018F006FD01A9854818F03BFD01A98348CA
:100FF00018F084FD01A9814818F0E6FD01217F4821
:1010000019F0DBF80BB000BD00B58BB00121042056
:1010100017F00DFE01210D2017F0D6FD02220C2144
:10102000774817F016FC02220D21754817F011FCC5
:1010300002220E21724817F00CFC02220F21704888
:1010400017F007FC4FF47040069002208DF81C004A
:1010500003208DF81D0000208DF81E0001208DF862
:101060001F0006A9664817F069FBA420ADF8200010
:1010700040F6B83009904FF48070ADF82800002099
:10108000ADF8220008A95F4818F01DFC6020ADF8FB
:1010900004000120ADF8060000200390ADF8100018
:1010A0000121584818F098FC0021564818F054FCCB
:1010B00001A9544818F09CFC01A9524818F0D1FC31
:1010C00001A9504818F01AFD01A94E4818F07CFDFE
:1010D0000BB000BD00B589B00121080417F0B8FDC0
:1010E0000121084617F070FD03221146424817F00F
:1010F000B0FB03220221404817F0ABFB0C2001900B
:1011000002208DF8080003208DF8090000208DF8DA
:101110000A0001208DF80B0001A9374817F00EFBDB
:101120000020ADF818004FF6FF7007900020ADF8D2
:101130002000ADF81A0006A9334818F0C4FB0420BB
:10114000ADF80C000020ADF80E00C820ADF814007A
:101150000120ADF8100003A92B4818F08BFF0023E5
:101160001A460321294819F022F90121274819F0CC
:1011700073F801221146254819F046F8012122484A
:1011800018F02AFC0021214818F0E6FB09B000BD48
:1011900000B589B00121084617F049FD0121022060
:1011A00017F045FD0121032017F00EFD01220F214C
:1011B000114817F04EFB01220321154817F049FB97
:1011C00002220421124817F044FB02220521104894
:1011D00017F03FFB3820019002208DF80800032013
:1011E0008DF80900002015E00010004000140040B8
:1011F000000802400004014000000240000C0040D2
:10120000000C024000080040000001400040014086
:10121000000402408DF80A0001208DF80B0001A99E
:10122000FE4817F08BFA4FF40040019002208DF831
:10123000080003208DF8090000208DF80A00012025
:101240008DF80B0001A9F64817F078FA0020ADF8E8
:1012500018004FF6FF7007900020ADF82000ADF8A1
:101260001A0006A94FF0804018F02DFB06A9ED48A2
:1012700018F029FB0420ADF80C000220ADF80E0098
:101280001420ADF814000120ADF8100003A9800768
:1012900018F0F0FE03A9E34818F0ECFE02231A460A
:1012A0000321580719F083F802231A460321DD4869
:1012B00019F07DF80121880718F0CEFF0121D948E7
:1012C00018F0CAFF01221146900718F09DFF012275
:1012D0001146D44818F098FF0121880718F07CFBCC
:1012E0000121D04818F078FB00214FF0804018F021
:1012F00033FB0021CB4818F02FFB4FF4C06017F0F0
:101300003FF91D208DF8000003208DF8010000201A
:101310008DF8020001208DF80300684617F035F9BA
:101320001C208DF8000004208DF8010000208DF8AD
:10133000020001208DF80300684617F026F909B075
:1013400000BD00B589B00121084617F081FC0121DC
:10135000102017F039FC4FF42060019002208DF826
:10136000080003208DF8090000208DF80A000120F4
:101370008DF80B0001A9AC4817F0E0F90122092112
:10138000A94817F066FA01220B21A74817F061FA65
:101390000020ADF818004FF6FF7007900020ADF860
:1013A0002000ADF81A0006A9A04818F08CFA042015
:1013B000ADF80C000020ADF80E000A20ADF81400C6
:1013C0000120ADF8100003A9984818F053FE00233F
:1013D0001A460321954818F0EAFF0121934818F0B6
:1013E0003BFF01221146914818F00EFF01218F4862
:1013F00018F032FF012211468C4818F005FF012138
:101400008A4818F0E9FA0021884818F0A5FA4FF444
:10141000C06017F0B5F819208DF8000001208DF894
:10142000010000208DF8020001208DF803006846BD
:1014300017F0ABF809B000BD00B589B00121042058
:1014400017F0F5FB0121082017F0BEFB4FF44050C8
:10145000019002208DF8080003208DF8090000207B
:101460008DF80A0001208DF80B0001A9704817F0D3
:1014700065F90020ADF818004FF6FF7007900020C6
:10148000ADF82000ADF81A0006A96A4818F01BFA5A
:1014900002220C21664817F0DCF902220D21644873
:1014A00017F0D7F90420ADF80C000220ADF80E00BB
:1014B000C820ADF814000120ADF8100003A95D4864
:1014C00018F0D8FD02231A4603215A4818F06FFF7E
:1014D0000121584818F0C0FE01221146554818F065
:1014E00093FE0121534818F077FA0021514818F073
:1014F00033FA00204F491431088001204D490880FB
:101500004FF4C06017F03CF81E208DF80000042056
:101510008DF8010000208DF8020001208DF80300F5
:10152000684617F032F809B000BD00B589B0012156
:10153000082017F07CFB0121084617F045FB03202B
:10154000019002208DF8080003208DF8090000208A
:101550008DF80A0001208DF80B0001A9304817F022
:10156000EDF80020ADF818004FF6FF70079000204E
:10157000ADF82000ADF81A0006A92F4818F0A3F91D
:1015800002220021264817F064F902220121244892
:1015900017F05FF90420ADF80C000220ADF80E0042
:1015A000C820ADF814000120ADF8100003A92248AE
:1015B00018F060FD02231A4603211F4818F0F7FEB9
:1015C00001211D4818F048FE012211461A4818F062
:1015D0001BFE0121184818F0FFF90021164818F0E9
:1015E000BBF90020144914310880012012490880F9
:1015F0004FF4C06016F0C4FF32208DF800000420C4
:101600008DF8010000208DF8020001208DF8030004
:10161000684616F0BAFF09B000BD000000040240A1
:1016200000000240000400400010024000000140A1
:10163000000C024000080040000C004000B59BB0C8
:101640000121FE4817F0C0FA0121080217F000FB43
:1016500000200290FA480390FA4804900020059078
:101660000E200690002007904FF480600890400004
:10167000099080000A9040110B9040020C900020CD
:101680000D9001200E9000200F90109002A9EE48BE
:1016900017F0ACFE0121EC4817F0E2FEFC200090B0
:1016A00003208DF8040000208DF807006946E74804
:1016B00017F044F84FF44070009003208DF80400B8
:1016C00000208DF807006946E14817F037F83F2001
:1016D000009003208DF8040000208DF80700694673
:1016E000DC4817F02BF8002011904FF44030129096
:1016F00000201390149011A817F0DEFB4FF08070BB
:10170000159001208DF858008DF859000020179091
:10171000189019900E208DF8680015A9C8484C380B
:1017200017F09BFB072301220221C5484C3817F014
:101730001AFC072302220321C1484C3817F013FC7E
:10174000072303220421BE484C3817F00CFC072362
:1017500004220521BA484C3817F005FC072305225E
:101760000621B7484C3817F0FEFB0723062219461E
:10177000B3484C3817F0F7FB07231A460821B04846
:101780004C3817F0F0FB072308220921AC484C38ED
:1017900017F0E9FB072309220A21A9484C3817F062
:1017A000E2FB07230A220B21A5484C3817F0DBFB8C
:1017B00007230B220C21A2484C3817F0D4FB072337
:1017C0000C220D219E484C3817F0CDFB07230D222B
:1017D0000E219B484C3817F0C6FB07230E220F2121
:1017E00097484C3817F0BFFB012195484C3817F04B
:1017F00065FC012192484C3817F055FC01219048B6
:101800004C3817F070FB8E484C3817F008FC1BB0B2
:1018100000BD08B54FF4E06016F0B2FE25208DF84B
:10182000000000208DF801008DF8020001208DF8E5
:101830000300684616F0A9FE08BD10B596B0044630
:101840000121102017F004FA0121084617F0BCF915
:101850000121880517F0B8F94FF4C060009002200C
:101860008DF8040000208DF806008DF80700022096
:101870008DF805006946754816F060FF07220921BA
:10188000724816F0E6FF07220A21704816F0E1FFC1
:1018900002940020ADF80C00ADF80E00ADF8100079
:1018A000ADF814000C20ADF8120002A96A4818F037
:1018B000FDFD0121684818F081FE4FF4A06016F08C
:1018C0005FFE3A208DF8180000208DF819008DF881
:1018D0001A0001208DF81B0006A816F056FE5A4883
:1018E000303017F0E1FC4FF00060079000200A90C4
:1018F0005A4809900A200B905748001D0890002074
:101900000C904FF480600D9000200E900F904FF4DB
:1019100080701090400211900420129003201390C8
:1019200000201490159007A94748303017F05EFD4D
:1019300001224021484818F0EEFE012210214248C1
:10194000303017F01AFE01213F48303017F088FD83
:1019500016B010BD10B596B004460121480517F029
:1019600033F90121480417F062F90121082017F02A
:101970002BF96020009002208DF8040000208DF8E3
:1019800006008DF8070002208DF8050069463448EE
:1019900016F0D4FE07220521314816F05AFF07221F
:1019A00006212F4816F055FF02940020ADF80C00D8
:1019B000ADF80E00ADF81000ADF814000C20ADF835
:1019C000120002A9274818F071FD0121254818F0DE
:1019D000F5FD4FF4A06016F0D3FD11208DF818002E
:1019E00000208DF819008DF81A0001208DF81B00D9
:1019F00006A816F0CAFD1C4817F056FC4FF0006010
:101A0000079040200A901948099050200B901548E3
:101A1000001D089000200C904FF480600D90002075
:101A20000E900F904FF4807010904002119004209F
:101A30001290032013900020149019E0070040003A
:101A40004C200140F60700201064024000000240D4
:101A5000000402400008024000100140120800206B
:101A6000000C024000440040A0600240040000203E
:101A7000159007A9F94817F0B9FC01228021F84810
:101A800018F049FE01228021F54818F044FE012299
:101A90001021F24817F071FD0121F04817F0E0FC29
:101AA00016B010BD10B596B004460121880417F099
:101AB000BEF80121082017F087F80121480517F02A
:101AC00083F84FF44070009002208DF8040000204D
:101AD0008DF806008DF8070002208DF80500694694
:101AE000E04816F02BFE07220821DE4816F0B1FE72
:101AF00007220921DB4816F0ACFE02940020ADF865
:101B00000C00ADF80E00ADF81000ADF814000C207C
:101B1000ADF8120002A9D44818F0C8FC0121D2483F
:101B200018F04CFD4FF4A06016F02AFD0C208DF843
:101B3000180000208DF819008DF81A0001208DF88A
:101B40001B0006A816F021FDC448783817F0ACFB3E
:101B50004FF00060079000200A90C44809900A20C6
:101B60000B90C148001D089000200C904FF480603D
:101B70000D9000200E900F904FF480701090400256
:101B800011900420129003201390002014901590BF
:101B900007A9B248783817F029FC01224021B24841
:101BA00018F0B9FD01224021AF4818F0B4FD012220
:101BB0001021AA48783817F0E0FC0121A7487838AE
:101BC00017F04EFC16B010BD10B596B004460121BA
:101BD000C80417F02CF80121042016F0F5FF0121AC
:101BE000480516F0F1FF4FF44060009002208DF898
:101BF000040000208DF806008DF8070002208DF803
:101C0000050069469A4816F099FD08220A2198486D
:101C100016F01FFE08220B21954816F01AFE0294BA
:101C20000020ADF80C00ADF80E00ADF81000ADF8D6
:101C300014000C20ADF8120002A98E4818F036FCF2
:101C400001218C4818F0BAFC4FF4A06016F098FC03
:101C50000D208DF8180003208DF8190001208DF853
:101C60001A008DF81B0006A816F08FFC7B48603820
:101C700017F01AFB4FF00060079000200A907E4892
:101C8000099008200B907B48001D089000200C90C4
:101C90004FF480600D9000200E900F9010904FF444
:101CA0000030119000201290032013900020149017
:101CB000159007A96948603817F098FB0122402168
:101CC0006C4818F028FD012280216A4818F023FD95
:101CD000012210216148603817F04FFC01215F4854
:101CE000603817F0BDFB16B010BD70B5634C2468AA
:101CF000642C00DB70BD624C248804EB8404614DCD
:101D00002C4460705E4C248804EB84042C44A17045
:101D10005B4C248804EB84042C44E270584C2488E7
:101D200004EB84042C442371554C2488641C6425E2
:101D300094FBF5F605FB1644514D2C804F4C24685E
:101D4000641C4E4D2C6000BFD4E701464B48006830
:101D500008B9002070474C48008800EB8000494AD1
:101D6000104402680A60007908710120F2E7014618
:101D70004248006808B9002070474348008800EBDB
:101D80008000404A104402680A60007908713E48A9
:101D90000088401C642290FBF2F302FB13003A4AD5
:101DA000108036480068401E344A10600120E3E786
:101DB0000CB56846FFF7DBFF0020344908700CBD06
:101DC00010B52D4800782C49497808442A4989786B
:101DD00008442949C978084427490979084426490B
:101DE00049790844C4B224480078022800D010BDC4
:101DF0002148C079032800D0F9E71F488079A04224
:101E000072D11D484078224908701B4880782149CA
:101E100008701948C07820490870174800791F4990
:101E20000870154840791E49087019480078012843
:101E300008D118480078022804D1084600781949CA
:101E4000086093E01248007802282FD111480078EA
:101E500001282BD100201449086087E0A0600240CF
:101E600000440040000C024000480040530800209D
:101E700000080240004C004047020020640200209D
:101E800068020020620800206A0200206D02002023
:101E90004F02002050020020510200205202002078
:101EA000530200207002002074020020FE480078D7
:101EB00002280AD1FD4800780A2806D1FC4800789B
:101EC000012802D1FB49086050E0F7480078022859
:101ED0000BD1F64800780A2807D1F5480078022887
:101EE00003D1F449086041E037E0EF480078022868
:101EF0000ED1EE48007802280AD1EF480378EF4867
:101F00000278EB480178E9480078FFF7EEFE2DE013
:101F1000E5480078022808D1E4480078032804D175
:101F2000E5480078E649086020E0DF4800780228AC
:101F30001CD1DE480078042818D1DD480078E1493A
:101F40000860DE480078E0490860DB480078DF4937
:101F500008600120DE49086008E0FF20D3490870CE
:101F6000D3490870D5490870D349087000BF3EE7CF
:101F700010B596B004460121480516F025FE012152
:101F8000080516F054FE01210C2016F01DFE042059
:101F9000009002208DF8040000208DF806008DF8D6
:101FA000070002208DF805006946CA4816F0C6FBF6
:101FB0004FF48050009002208DF8040000208DF82E
:101FC00006008DF8070002208DF805006946C2481A
:101FD00016F0B4FB08220221BE4816F03AFC082293
:101FE0000C21BD4816F035FC4FF4A06016F0C8FA7D
:101FF0002F208DF8180005208DF819008DF81A0093
:1020000001208DF81B0006A816F0BFFA0B208DF8F2
:10201000180005208DF819008DF81A0001208DF8A0
:102020001B0006A816F0B1FA02940020ADF80C00CF
:10203000ADF80E00ADF81000ADF814000C20ADF8AE
:10204000120002A9A54818F031FA0121A34818F09E
:10205000B5FAA34817F028F94FF000600790402028
:102060000A90A04809900A200B909C48001D0890F7
:1020700000200C904FF480600D9000200E900F9087
:1020800010904FF400301190002012900320139014
:1020900000201490159007A9914817F0A7F99048CF
:1020A000A83817F001F94FF00060079000200A905F
:1020B0008D48099005200B908848001D089000204D
:1020C0000C904FF480600D9000200E900F901090B7
:1020D0004FF4003011900020129003201390002044
:1020E0001490159007A97E48A83817F07FF90122AF
:1020F00080217A4818F00FFB01224021774818F020
:102100000AFB01221021764817F037FA012210212C
:102110007348A83817F031FA0121714817F0A0F977
:1021200001216F48A83817F09BF916B010BD10B503
:1021300096B004460121202016F08AFD01210420DA
:1021400016F042FD0121880516F03EFDC0200090EA
:1021500002208DF8040000208DF806008DF807009D
:1021600002208DF8050069465B4816F0E7FA082260
:102170000621594816F06DFB08220721564816F033
:1021800068FB02940020ADF80C00ADF80E00ADF82D
:102190001000ADF814000C20ADF8120002A953484D
:1021A00018F084F90121514818F008FA4FF4A060A2
:1021B00016F0E6F939208DF8180003208DF8190083
:1021C00001208DF81A008DF81B0006A816F0DDF925
:1021D000474817F069F84FF02060079000200A90F8
:1021E0004448099008200B904048001D08900020AA
:1021F0000C904FF480600D9000200E900F90109086
:102200004FF4003011900020129003201390002012
:102210001490159007A9364817F0E8F801224021DC
:10222000324818F078FA01228021304818F073FA09
:10223000012210212E4817F0A0F901212C4817F097
:102240000FF916B010BD2B4909782A4A527811446B
:10225000284A92781144274AD2781144254A1279A3
:102260001144244A52791144C8B2224909780229FA
:1022700000D070471F49C979032900D0F9E71D49EB
:102280008979814249D11B4949781B4A1170194902
:1022900089781A4A11701749C978194A1170154975
:1022A0000979184A11702FE04F02002050020020D7
:1022B0005102002088020020530200205202002018
:1022C000780200207C02002080020020840200208E
:1022D0008C020020000C0240000802400050004028
:1022E000B8600240CA060020560A002000140140CF
:1022F00028640240900200209802002099020020E9
:102300009A0200209B020020FE494979FE4A117082
:10231000FE490978FE4A117006E0FF21FD4A11705E
:10232000FA4A1170F84A117000BFA2E700B585B0F3
:102330000121082016F048FC0121880316F088FCD2
:1023400000208DF8100001208DF813000C20039060
:1023500003A9F14816F0F2F90221032018F074FAEB
:102360000420009000208DF8040010208DF8050056
:1023700001208DF80600684617F078F908208DF8DE
:10238000080000208DF809008DF80A0001208DF862
:102390000B0002A816F0F9F805B000BD70B50446B0
:1023A0000D46012C0BD12946DC4818F032F900BF4C
:1023B0004021DA4818F0DDF90028F9D036E0032C86
:1023C0000BD12946D64818F024F900BF4021D44843
:1023D00018F0CFF90028F9D028E0042C0BD12946B9
:1023E000D04818F016F900BF4021CE4818F0C1F9C6
:1023F0000028F9D01AE0052C0BD12946CA4818F05C
:1024000008F900BF4021C84818F0B3F90028F9D0F6
:102410000CE0062C0AD12946C44818F0FAF800BF8F
:102420004021C24818F0A5F90028F9D070BD2DE967
:10243000F04702240125022600274FF000084FF044
:1024400003096019304438444044B94909780844C4
:1024500000F0FF0A21460420FFF7A0FF29460420D0
:10246000FFF79CFF31460420FFF798FF3946042010
:10247000FFF794FF41460420FFF790FFAC48017836
:102480000420FFF78BFF51460420FFF787FF4946E2
:102490000420FFF783FFBDE8F0870020A5494862CC
:1024A000A5490860A5490860A54908607047002053
:1024B000A0494862A04908604FF080414862A149A4
:1024C0000860A1490860A14908609C4908609C49CE
:1024D00008609F4908609F490860704700204FF0DE
:1024E000804148629749086070470020964908601B
:1024F00096490860704710B500209749087000247D
:1025000007E061210120FFF749FF3220FEF76FFB52
:10251000641C022CF5D301208F4908707A208F4962
:10252000087010BD10B500208D490870002407E028
:1025300061210320FFF732FF3220FEF758FB641CB5
:10254000022CF5D30120864908707A20854908704D
:1025500010BD2DE9F14FAEB083A02D9000202C903E
:102560008DF888008DF860002E98182834D2DFE8A6
:1025700000F00C343D444B525960676E7580878E75
:10258000959CA3C7C6C5C4C3C2C102217F4816F02B
:1025900037F988B100224FF400417D4816F04EF91A
:1025A0004FF400417A4816F038F9044600222146DB
:1025B00078A0FEF76CF80FE00122D103744816F002
:1025C0003DF94FF40041724816F027F90446002205
:1025D000214678A0FEF75BF896E201227D48B0F92B
:1025E000000041427CA0FEF752F88DE202227C48B6
:1025F00001687CA0FEF74BF886E203227C48016864
:102600007CA0FEF744F87FE204227F4801687FA0A7
:10261000FEF73DF878E205227F4801687FA0FEF7CB
:1026200036F871E206228148016881A0FEF72FF892
:102630006AE207228148016881A0FEF728F863E278
:1026400008228348016883A0FEF721F85CE2092292
:102650008448016884A0FEF71AF855E201212E484B
:1026600016F0CEF804460A22214683A0FEF70FF8A2
:102670004AE20B228248016882A0FEF708F843E292
:102680000C228448016884A0FEF701F83CE28748E8
:10269000018A0D2286A0FDF7FAFF35E20E22884856
:1026A000016888A0FDF7F3FF2EE2804841890F22E0
:1026B00088A0FDF7ECFF27E201218A4816F0A0F878
:1026C0004FF400511790324816F09AF80446022150
:1026D000844816F095F805464FF480412C4816F0D2
:1026E0008FF8064604217F4816F08AF84FF400411F
:1026F0001690F9E0FCE1F4E1E7E1DFE1D7E1CFE1B9
:102700004FE10000900200209C0200209B0200206C
:102710009D0200209A020020000C0240001001409F
:1027200000480040004C00400050004000140140B0
:1027300070020020000001406C00002024080040CE
:102740008800002070000020240400407400002055
:10275000240C004078000020910000209000002010
:10276000930000209200002031313131313131317C
:10277000313131313131313131313131313130314A
:10278000313131313131313100000000000402407B
:1027900000080240524F424F5420322044414E47DD
:1027A00020434841592053414E2058414E483A2039
:1027B00020200000524F424F5420322044414E47C7
:1027C00020434841592053414E20444F3A20202075
:1027D000000000008C000020494D553A0000000028
:1027E000A40000204C617A65722070686169000065
:1027F000B800002054726F206368616E20547275B7
:102800006F633A2000000000A00000204C617A6550
:102810007220747261692000BC00002054726F2025
:102820006368616E205361753A2020009800002093
:102830004C617A657220736175200000C000002031
:1028400054726F2064617920746179203120000016
:102850009C0000204C617A6572207472756F632051
:1028600000000000C400002054726F2064617920D1
:10287000746179203220000053746172742000006A
:10288000B000002054726F20786F617920746179F4
:1028900020000000880200206D6F64655F6368613E
:1028A000795F72756E673A2000000000F60700201D
:1028B0005175616E672074726F2032200000000035
:1028C0008C0200206D6F6465206E68617420686FF3
:1028D000702000005175616E675F74726F203A203E
:1028E0000000000000100240F84815F089FF07467C
:1028F0000821F64815F084FF80464FF48041F348E4
:1029000015F07EFF81461021F04815F079FF4FF455
:1029100000511590ED4815F073FF82460821EC48F0
:1029200015F06EFF4FF480511490E84815F068FFE1
:1029300010211390E64815F063FF4FF48061129068
:10294000E24815F05DFF83468021E04815F058FF0E
:102950004FF480711190DD4815F052FF10901798D8
:10296000CDE90B65CDE90D401698CDE90798CDE985
:102970000970DDE913121598CDE9042A0391069038
:10298000DDE91110CDE9001B0290D2A2282122A876
:10299000109B1AF0E9F8102222A9D7A0FDF7CAFE71
:1029A000B2E08021D54815F02BFF04460121D34821
:1029B00015F026FF05464021D04815F021FF0646B8
:1029C0004FF40041C24815F01BFF07464FF48051F9
:1029D000CB4815F015FF80464FF48061C74815F0CD
:1029E0000FFF81464FF40061C54815F009FF4FF411
:1029F00000611790C14815F003FF82464FF48061D3
:102A0000B34815F0FDFE83464FF48051BB4815F0E6
:102A1000F7FE4FF400611690AD4815F0F1FE4FF44B
:102A200000511590B54815F0EBFE4FF4804114901D
:102A3000A74815F0E5FE4FF480411390AF4815F01C
:102A4000DFFE4FF480711290AD4815F0D9FE4FF4BF
:102A500000411190A94815F0D3FECDE90B76CDE9E0
:102A60000D5410901798CDE907A0CDE90998DDE93C
:102A700015211498CDE9051BCDE90302DDE91112FA
:102A80001398CDE90012029092A2282122A8109B4F
:102A90001AF06AF8112222A99AA0FDF74BFE33E042
:102AA00012229A4801689AA0FDF7F1FD2CE013224A
:102AB0009C4801689CA0FDF7EAFD25E014229D4892
:102AC00001689DA0FDF7E3FD1EE04FF400617F4823
:102AD00015F096FE0446152221469BA0FDF7D7FD72
:102AE00012E016229C4801789CA0FDF7D0FD0BE077
:102AF0004FF40071754815F083FE044617222146F5
:102B00009AA0FDF7C4FD00BF00BF2FB0BDE8F08F55
:102B100010B50121994816F0A3FC10BD01B59848E5
:102B200000680099884203DD00209549086004E0B0
:102B300093480068401C9249086091480068FFF77C
:102B400008FD08BD01B59DF80000052801DA002048
:102B500008BD9DF80000FBE730B504461D4624B9CA
:102B600088480078884BD87011E0002C07DDE0B26F
:102B7000FFF7E8FF844BD8700020987007E06342AD
:102B8000D8B2FFF7DFFF804BD8700120987021B9D1
:102B90007C4800787C4BD87111E0002907DDC8B271
:102BA000FFF7D0FF784BD8710120987107E04B42B6
:102BB000D8B2FFF7C7FF744BD8710020987122B9C3
:102BC00070480078704BD87211E0002A07DDD0B24F
:102BD000FFF7B8FF6C4BD8720120987207E05342A0
:102BE000D8B2FFF7AFFF684BD8720020987225B9B2
:102BF00064480078644BD87311E0002D07DDE8B21B
:102C0000FFF7A0FF604BD8730120987307E06B4279
:102C1000D8B2FFF797FF5C4BD8730020987330BD94
:102C2000594AD070D071D072D07370475648C0786E
:102C300003280DDA5448C079032809DA5248C07ACB
:102C4000032805DA5048C07B032801DA01207047C9
:102C50000020FCE701204D49086070474C4800689F
:102C600047F23051884201D0012070470020FCE734
:102C700010B5FFF740FC10BD4648B0F900004042D7
:102C80007047B5EEC00AF1EE10FA09D24248D0ED15
:102C9000000A70EE600AFDEEE00A10EE900A70473E
:102CA0003D48D0ED000A70EE200AFDEEE00A10EE7D
:102CB000900AF4E710B52DED0A8B044624B99FED78
:102CC000370ABDEC0A8B10BD6AE00000001002401C
:102CD000000C024025642564256425642564256470
:102CE000256425642564256425642564256425649C
:102CF0002564256400000000493A000000040240F9
:102D000000000240696E323A0000000064020020B8
:102D1000636F756E745F646174615F756172743442
:102D20002000000070020020626C6F636B5F7068AF
:102D3000613A2000C40200206E6861795F64656EAC
:102D40005F6C616E5F31200043425F4E616E675F72
:102D50007472616920000000D0020020726F626FFF
:102D6000745F706F736974696F6E000043425F4EE9
:102D7000616E675F7068616900000000A0600240DA
:102D80008400002018030020040000207C030020A1
:102D9000400300208C000020D8020020000000002A
:102DA000002C27DAF648006819F033FD41EC190BC6
:102DB000204619F02EFD41EC1C0B9FEDF20B53EC5D
:102DC000102B19F045FC41EC1B0B9FEDF00B53EC65
:102DD000102B19F037FC41EC1A0B53EC192B19F09E
:102DE000A9FC41EC180B19F06FFD00EE100ABDECC8
:102DF0000A8B10BDE248006819F00BFD41EC190B7D
:102E0000204619F006FD41EC1C0B9FEDDE0B53EC48
:102E1000102B19F01DFC41EC1B0B9FEDDC0B53EC50
:102E2000102B19F06EFB41EC1A0B53EC192B19F017
:102E300081FC41EC180B19F047FD00EE100AD6E7B3
:102E4000F0EE400AF5EEC00AF1EE10FA02DBB0EE49
:102E5000600A7047B1EE600AFBE70146002901DB1A
:102E6000084670474842FCE70146CA48D0ED000AD0
:102E7000F1EE600AC848D0ED001A80EEA11A00EE0B
:102E8000901AF8EEE01AC348D0ED000A41EE210A8C
:102E9000B0EE600AFDEEC00A10EE900A7047B0EE88
:102EA000402ADFEDBE2AB0EE620AB5EEC02AF1EE8E
:102EB00010FA03D2F1EE422AB0EE622AF5EEC00A11
:102EC000F1EE10FA03D2F1EE602AF0EE620AB5EEEE
:102ED000C01AF1EE10FA03D2F1EE412AB0EE621AF6
:102EE000F5EEC01AF1EE10FA03D2F1EE612AF0EE1F
:102EF000621AB4EEC02AF1EE10FA01DDB0EE420A19
:102F0000F4EEC00AF1EE10FA01DDB0EE600AB4EEA4
:102F1000C01AF1EE10FA01DDB0EE410AF4EEC01A6B
:102F2000F1EE10FA01DDB0EE610A704794480068D6
:102F300070479B480068704710B52DED028BB0EECE
:102F4000408A9848006847F2305188420ED11FED00
:102F50006D0A954880ED000A944880ED000A944877
:102F600080ED000A934880ED000A4AE0924800682C
:102F700092490968401A8B490968081A00EE100A3C
:102F8000B8EEC00AF0EE408A8D48D0ED000A88EE17
:102F9000A00A8C48D0ED000A30EE200A8A48D0ED15
:102FA000000A20EE200AF0EE408AB0EE680A1AF01D
:102FB0003FF9F0EE000A20EE200A7B4880ED000A7F
:102FC000B0EE680A1AF08CF8F0EE000A20EE200A43
:102FD000764880ED000A744890ED000A7B48D0EDF9
:102FE000000A30EE200A734880ED000A6F4890ED29
:102FF000000A7648D0ED000A30EE600A6C4880ED99
:10300000000AB5EEC08AF1EE10FA73D0704800687D
:10301000052820D2DFE800F003203A546F0065480D
:1030200090ED000A30EE080A80ED000A604890ED4D
:10303000000A30EE480A80ED000A5C4890ED000A74
:1030400030EE080A80ED000A574890ED000A30EE95
:10305000480A80ED000A68E0554890ED000A30EE1D
:10306000480A80ED000A514890ED000A30EE080A47
:1030700080ED000A4C4890ED000A5648D0ED000A59
:1030800008EE600A484880ED000A4EE0494890ED9D
:10309000000A30EE080A80ED000A444890ED000A6C
:1030A0004C48D0ED000A08EE200A404880ED000AA6
:1030B0003D4890ED000A30EE480A80ED000A34E009
:1030C0003C4890ED000A30EE080A80ED000A3848CE
:1030D00090ED000A3F48D0ED000A08EE600A34483F
:1030E00080ED000A304890ED000A30EE480A80ED8D
:1030F000000A1AE01AE02F4890ED000A3548D0ED9A
:10310000000A08EE200A2B4880ED000A284890EDBE
:10311000000A30EE480A80ED000A244890ED000ACB
:1031200030EE080A80ED000A00BF00BF1E48D0ED57
:10313000001A1E4890ED001A1D48D0ED000A1D48E7
:1031400090ED000AFFF7ABFE2348D0ED000AF8EE41
:10315000E00A80EE801ABDEEC10A204880ED000A28
:10316000074800681D490968884203DD1B4800685C
:103170000349086001201A490860BDEC028B10BDAC
:103180002C0300209A9999999999B93F3333333395
:103190003333D33F10030020140300206F12833A0F
:1031A000580300204003002078030020740300200F
:1031B000700300206C030020600300204C030020FB
:1031C000F0020020FC020020200300205403002015
:1031D00028030020E0020020D40200203403002055
:1031E0002403002010B504460020FE490860FE4874
:1031F0000460FCB90020FD4908609FEDFD0AFD4810
:1032000080ED000A47F23050FB490860FB49086036
:103210009FEDF70AFA4880ED000A0020F94908609E
:10322000F9490860F9490860F94908609FEDF00A1A
:10323000FFF782FE10BD10B5F14890ED000AB5EE23
:10324000C00AF1EE10FA05D1EE48006810B9EE4858
:10325000006890B19FEDE60AE94880ED000A002081
:10326000E8490860E8490860EA480068EA490860F7
:10327000E34890ED000AFFF75FFE10BDE748C0EDA0
:10328000000AE74880ED000A704770B52DED028B0B
:1032900005460C46B0EE408AD7480068A8420BD1DC
:1032A000D0480068A04207D1D24890ED000AB4EEA1
:1032B000480AF1EE10FA18D0CA480460CB480068FA
:1032C00010B90520C9490860D2480068D249086091
:1032D000C84880ED008AC84805600020D1490860D0
:1032E000C74890ED000AFFF727FEBDEC028B70BDCA
:1032F00070B52DED028B0446B0EE408A0D46C248F3
:103300000068A0420BD1BE4890ED000AB4EE480A16
:10331000F1EE10FA03D1BB480068A8423AD0B64893
:10332000006847F23051884225D12820AD49086015
:10333000AE48006810B90A20AC49086047F2305026
:10334000844218DA0120B1490860B5EEC08AF1EE76
:1033500010FA03DDAF480068A04208DCB5EEC08A71
:10336000F1EE10FA07D2AB480068A04203DAB1EEE2
:10337000480AB0EE408AA4480460A2480560A0480C
:1033800080ED008A0020A74908609D4890ED000A62
:10339000FFF7D2FDBDEC028B70BD10B52DED028B99
:1033A000B0EE408A04462146B0EE480A47F230505B
:1033B000FFF79EFFBDEC028B10BD70B504460D46B5
:1033C0009FED8B0A29462046FFF75FFF70BD70B561
:1033D0002DED088BF0EE408A0446B0EE608AB0EE28
:1033E000419A864890ED000AB8EEC00AB4EE680A29
:1033F000F1EE10FA0DD17B480068A04209D1824855
:1034000090ED000AB8EEC00AB4EE480AF1EE10FAE8
:103410005ED0BDEEE80A794880ED000A7D4991ED65
:10342000000AB8EEC00A38EEC00ABDEEC00A10EEBF
:10343000100A9FED6F0A2146FFF727FF754890EDB0
:10344000000AB8EEC00A38EE400ABDEEC00A10EE1F
:10345000105A002D01DB284600E06842642814DD84
:103460006C4890ED000AB8EEC00AB4EEC08AF1EEE6
:1034700010FA02DDB0EE490A01E0B1EE490A10EEA1
:10348000101A084619F0F5F913E0624890ED000AA9
:10349000B8EEC00A38EE400A10EE101A084619F0CD
:1034A000E8F941EC1B0B9FED600B53EC102B19F06E
:1034B000CFF841EC1A0B19F007FA09EE900A002137
:1034C000B0EE690AFDEEC80A10EE900AFFF710FF91
:1034D000BDEC088B70BD10B54C48006801283DDD7F
:1034E000494909684B4A1268881AFFF7B6FC062852
:1034F0000CDA464801680068401C444A1060B1F587
:10350000FA7F2BDD0020FFF76DFE10BD3F480068FD
:10351000FA2808DD05203349086034490860FB209B
:103520003A49086004E005202E4908602F490860E8
:103530003848006834490968884205DDBFEE000A52
:103540002F4880ED000A04E0B7EE000A2C4880ED19
:10355000000A2B4890ED000AFFF7EEFC00BFD4E70D
:1035600010B52DED028B234890ED000AB5EEC00A90
:10357000F1EE10FA08D11D48006828B12248006811
:1035800047F23051884202DBBDEC028B10BD1C4873
:1035900090ED000AB5EEC00AF1EE10FA74D01648AC
:1035A000006847F2305188426FD1154890ED000A0B
:1035B000B5EEC00AF1EE10FA08DD134800681C49A8
:1035C0000968401A13490968884239DB0C4890EDB4
:1035D000000AB5EEC00AF1EE10FA7CD20A48006883
:1035E000134927E030030020380300202C0300207B
:1035F000000000005403002040030020440300208A
:103600005003002028030020480300205803002016
:103610007C030020600300204C03002010030020E6
:10362000140300203C0300207B14AE47E17A743F72
:103630000C03002009680844FD49096888424ADDF6
:10364000FC48006803285DDAFB490968F84A1268FB
:10365000881AFFF702FC0A2818DAF7480068F749C9
:1036600008600020F6490860F64908601FED200A4E
:10367000F54880ED000A0220EE490860F24890ED1E
:10368000000AFFF759FC7FE7DAE077E0EA480068D4
:10369000E7490968884236DDE94890ED000AB8EE4E
:1036A000C00AE948D0ED000A60EE200AE74890ED34
:1036B000000AB8EEC00AC0EE801AB0EE611AB0EE91
:1036C000410AFFF7BDFBDC490968D94A1268881A2C
:1036D000FFF7C3FB00E04BE000EE900AB8EEE01A03
:1036E000DB48D0ED000A40EE010AD54890ED000A13
:1036F000B8EEC00A80EE801AB0EE418AB0EE480AF9
:10370000FFF71AFC9BE0CE4890ED000AB8EEC00A25
:10371000CD48D0ED000A60EE200ACC4890ED000ABA
:10372000B8EEC00AC0EE801AB0EE611AB0EE410ADF
:10373000FFF786FBC0490968BD4A1268881AFFF77F
:103740008CFB00EE900AB8EEE01AC148D0ED000AFA
:1037500050EE410ABA4890ED000AB8EEC00A80EE79
:10376000801AB0EE418AB0EE480AFFF7E5FB66E04A
:10377000B54890ED000AFFF7DFFB60E0B24890ED3E
:10378000000AB5EEC00AF1EE10FA1FDDAA4890ED6E
:10379000000AB8EEC00AAA48D0ED000AF8EEE00A26
:1037A000A94890ED001A00EEC10AAA48D0ED000A1F
:1037B000F8EEE00A70EE600A9D4890ED000AB8EE5F
:1037C000C00AF4EEC00AF1EE10FA27D39E4890ED3D
:1037D000000AB5EEC00AF1EE10FA2BD2964890ED31
:1037E000000AB8EEC00A9648D0ED000AF8EEE00AEA
:1037F000954890ED001A00EEC10A9648D0ED000AF7
:10380000F8EEE00A70EE200A894890ED000AB8EE62
:10381000C00AF4EEC00AF1EE10FA0BDD8649096821
:10382000834A1268881AFFF745FAB0EE408AFFF71C
:1038300083FB04E0844890ED000AFFF77DFBA3E6DC
:10384000854909687A4A1268881AFFF733FAB0EE98
:10385000408AFFF771FB00BF96E600B57548006827
:10386000022815DA1FED9E0A7C4880ED000A1FED44
:10387000A00A754880ED000A00207949086047F2E7
:103880003050784908607849086000206A4908602B
:1038900076480068401C7549086075490968884287
:1038A00004DA74480068FFF7BBF90EE0704800685E
:1038B0006E4908607048006820B16E480068FFF7E4
:1038C000AFF902E00020FFF7ABF900BD674A1268CC
:1038D000521C664B1A60824207DD594A12680A443C
:1038E000574B1A600022614B1A6070472DE9F04176
:1038F000FFF7C2F94E490860FFF7EDFD5148006837
:10390000002821DD4E4800684E49096888422AD0C7
:103910004B4800684B49096888420EDA48480068FD
:103920005649096888421EDA45480068FFF79CFA44
:1039300004460121FFF7CAFF15E04FF0FF31504860
:103940000068FFF7C3FF0EE03D480068002806DD71
:103950004FF0FF314B480068FFF7B8FF03E0FFF777
:103960007CFFBDE8F0814848006831490968884219
:1039700005D0FFF7F5FD2E4800684349086043482D
:103980000068E8B32E48D0ED000AF8EEE00A40489F
:1039900090ED001A60EE810AB0EE600AFFF771F94F
:1039A00004462748D0ED000AF8EEE00A394890EDC9
:1039B000001A60EE810AB0EE600AFFF762F9054670
:1039C0001F48D0ED000AF8EEE00A334890ED001AE7
:1039D00060EE810AB0EE600AFFF753F90646184818
:1039E000D0ED000AF8EEE00A2C4890ED001A60EEE7
:1039F000810AB0EE600AFFF744F90746234600E06B
:103A000003E02A463146FFF7A7F800BFA9E724489C
:103A100001680068401C224A1060462946D22148AD
:103A2000408B2149096808441F4908604AE00000AA
:103A30006003002058030020480300205C0300209E
:103A40002C03002030030020500300200C03002032
:103A5000EC020020080300204C0300205403002047
:103A60002803002040030020440300203C030020E2
:103A70001C030020180300207C03002034030020D6
:103A80006803002038030020640300202403002082
:103A90007803002074030020700300206C030020D2
:103AA00094040020F607002098040020FE480068D7
:103AB0004621B0FBF1F0FD4908600020FC49086098
:103AC000F9490860FB4801680068401CF94A106029
:103AD000462907D2F848008BF84909680844F74995
:103AE00008600BE0F54800684621B0FBF1F0F449AE
:103AF00008600020EF490860F0490860F14801685B
:103B00000068401CEF4A1060462907D2EA48808AC4
:103B1000ED4909680844EC4908600BE0EA48006890
:103B20004621B0FBF1F0E94908600020E549086052
:103B3000E5490860E64801680068401CE44A1060F6
:103B4000462907D2DC48C08AE24909680844E149AD
:103B500008600BE0DF4800684621B0FBF1F0DE4969
:103B600008600020DA490860DA490860DB4801682B
:103B70000068401CD94A1060322907D2CE484089DB
:103B8000D74909680844D64908600BE0D448006862
:103B90003221B0FBF1F0D34908600020CF49086022
:103BA000CF490860D04801680068401CCE4A1060C8
:103BB000322907D2C048C088CC4909680844CB499B
:103BC00008600BE0C94800683221B0FBF1F0C84939
:103BD00008600020C4490860C4490860C5480168FD
:103BE0000068401CC34A1060322907D2B24880885E
:103BF000C14909680844C04908600BE0BE48006834
:103C00003221B0FBF1F0BD4908600020B9490860DD
:103C1000B9490860BA4801680068401CB84A106099
:103C2000462907D2A4480089B64909680844B5491D
:103C300008600BE0B34800684621B0FBF1F0B249E0
:103C400008600020AE490860AE490860AF480168CE
:103C50000068401CAD4A1060462907D2964800888B
:103C6000AB4909680844AA4908600BE0A848006805
:103C70004621B0FBF1F0A74908600020A349086085
:103C8000A3490860A44801680068401CA24A10606B
:103C9000462907D288484088A049096808449F49B6
:103CA00008600BE09D4800684621B0FBF1F09C499C
:103CB0000860002098490860984908607047994852
:103CC000006899490968884203DA9748006895496D
:103CD00008609448006895490968884203DD934864
:103CE000006890490860854909688E4A1268881AF8
:103CF000002801DB014600E04142022930DD7F4817
:103D0000006888490968884203DD01208849887570
:103D100002E000208649887578490968814A12685E
:103D2000881A002801DB014600E0414201EB410115
:103D3000804A1160104600687F490968884203DDA7
:103D40007D480068114608607A4800681E2802DA3B
:103D50001E2078490860774800787549C87502E0E8
:103D600000207349C8757047744800687449096831
:103D7000884203DA72480068704908606F4800683A
:103D800070490968884203DD6E4800686B49086025
:103D900057490968694A1268881A002801DB0146F8
:103DA00000E04142022930DD51480068634909685A
:103DB000884203DD00205E49887402E001205C49EE
:103DC00088744B4909685D4A1268881A002801DB2B
:103DD000014600E0414201EB4101564A11601046A4
:103DE000006859490968884203DD57480068114650
:103DF000086050480068142802DA14204D49086011
:103E00004C4800784A49C87402E000204849C87408
:103E100070474E4800684E490968884203DA4C48AA
:103E200000684A490860494800684A490968884268
:103E300003DD484800684549086036490968434A37
:103E40001268881A002801DB014600E0414204297B
:103E500028DD304800683D490968884203DD0020BC
:103E60003349887602E0012031498876294909687A
:103E7000364A1268881A002801DB014600E04142F8
:103E800001EB810189002B4A11601046006832491C
:103E90000968884203DD30480068114608602548FB
:103EA00000685BE064E000009804002098000020B7
:103EB000940400209C040020F6070020A0040020A9
:103EC0009C000020A4040020A8040020A4000020DE
:103ED000AC040020B0040020A0000020B4040020A6
:103EE000B8040020A8000020CC040020D00400204A
:103EF000BC000020D4040020D8040020B80000201A
:103F0000DC040020E0040020B0000020F4040020C5
:103F1000F8040020C0000020FC0400200005002060
:103F2000C4000020F0030020E8030020EC03002080
:103F3000040000205004002028040020FC0300207E
:103F4000F4030020F80300202404002014040020BF
:103F50000C0400201004002030040020642802DA41
:103F60006420F7490860F6480078F649C87602E010
:103F70000020F449C8767047F3480068F34909689F
:103F8000884203DAF1480068EF490860EE480068AB
:103F9000EF490968884203DDED480068EA49086096
:103FA000EC490968E84A1268881A002801DB0146D2
:103FB00000E04142042934DDE6480068E24909682E
:103FC000884204DD0020DF4981F82A0003E0012057
:103FD000DC4981F82A00DF490968DB4A1268881A3F
:103FE000002801DB014600E0414201EB810189002C
:103FF000D34A116010460068D7490968884203DD3A
:10400000D548006811460860CD480068C82802DA23
:10401000C820CB490860CA480078CA4981F82B00FB
:1040200003E00020C74981F82B00704710B5CB484A
:104030000068CB490968884203DAC9480068C74963
:104040000860C6480068C7490968884203DDC5485A
:104050000068C2490860C44B1B68C04C24681A1B26
:10406000002A01DB134600E05342022B4CDDBF4B1C
:104070001B68BF4C2468191B002901DB0B4600E0BC
:104080004B42142B40DAB34B1B68BA4C2468181B04
:10409000002801DB034600E04342142B34DAB24827
:1040A0000068AE490968884204DD0120A54981F80D
:1040B000260003E00020A34981F82600AA490968E8
:1040C000A64A1268881A002801DB014600E0414236
:1040D0009B4A116010460068A7490968884203DDC1
:1040E000A54800681146086095480068322802DA41
:1040F00032209349086092480078924981F827005D
:1041000000209E49086006E000208E4981F82700C3
:1041100001209A49086010BD252099490860442073
:104120009849086070473A20954908605820954999
:1041300008607047482092490860712091490860E2
:10414000704776208E490860AC208E490860704721
:1041500000B50246FFF7F5FF8B4802608B4802600E
:1041600000BD00B50246FFF7DEFF874802608748C2
:10417000026000BD00B50246FFF7DCFF8248026026
:104180008248026000BD10B5FA2081490860784875
:10419000006880490860FA206F4908607548006827
:1041A0006949086000207C49086035E006E001208C
:1041B00017F026FDFCF756FC00B927E06C4A1268A0
:1041C000764B1B68D21A032392FBF3F3674A1268FB
:1041D000704C2468111B002901DB0A4600E04A42AA
:1041E0009342E4DB634A1268584B1B68D21A0323DC
:1041F00092FBF3F3574A1268534C2468101B0028B3
:1042000001DB024600E042429342D0DB00BF62483D
:104210000068401C604908605F4800683228C5DBC0
:1042200010BD10B501205E4908605E48006890BB73
:104230005D48006878BB5D48006860BB5C4800680A
:1042400048BBB6EE001ADFED5B0A05209FED5A0A67
:10425000FFF7BDF800205049086014E006E0012097
:1042600017F0CEFCFCF7FEFB00B906E04FF48051DE
:10427000524814F0C5FA0028F1D000BF4648006843
:10428000401C45490860444800689628E6DB002049
:10429000FEF7A8FFE9E0FFE742480068012833D1B4
:1042A0004148006878BB4148006860BB40480068EE
:1042B00048BBB6EE001ADFED3F0A05209FED3E0A2F
:1042C000FFF785F800203449086014E006E001207B
:1042D00017F096FCFCF7C6FB00B906E04FF48051DE
:1042E000364814F08DFA0028F1D000BF2A48006843
:1042F000401C29490860284800689628E6DB002011
:10430000FEF770FFB1E0FFE726480068012875D18D
:1043100025480068012871D12448006878B92448EC
:10432000006860B9B6EE001ADFED220A05209FEDA5
:10433000240AFFF74CF800201749086056E05DE0BA
:104340005004002004000020200400201804002055
:104350001C040020C40000203404002008040020B5
:104360000004002004040020B0000020C000002051
:10437000BC010020C00100202C040020E403002028
:104380002404002028040020F0030020FC03002067
:104390003004002014040020AC0300200C04002092
:1043A000B8020020A0020020A4020020A8020020E1
:1043B000AC02002000006144000000000000024048
:1043C0000000E14406E0012017F01AFCFCF74AFB6C
:1043D00000B905E00421F74814F012FA0028F2D0E1
:1043E00000BFF5480068401CF3490860F2480068C7
:1043F0009628E7DB0020FEF7F5FE36E0EF48006880
:10440000012832D1EE48006801282ED1ED4800681D
:1044100001282AD1EC48006838BBB6EE001A5FEDDF
:104420001B0A05201FED1A0AFEF7D1FF0020E24902
:10443000086013E006E0012017F0E2FBFCF712FB36
:1044400000B905E00421DB4814F0DAF90028F2D0C5
:1044500000BFD9480068401CD7490860D6480068AA
:104460009628E7DB0020FEF7BDFE10BDD3480068AC
:10447000B0B9D348006898B9D248006880B9D2482A
:10448000006868B95020D1490860D1480068D14916
:104490000860D148C07F40F00400CF49C87752E09F
:1044A000C6480068012816D1C548006898B9C548B3
:1044B000006880B9C448006868B95020C3490860E2
:1044C000C6480068C3490860C348C07F40F0080080
:1044D000C149C87737E0B9480068012817D1B84802
:1044E0000068012813D1B748006880B9B648006851
:1044F00068B95020B5490860B9480068B5490860F6
:10450000B548C07F40F04000B349C8771BE0AB48D6
:104510000068012817D1AA480068012813D1A948CA
:10452000006801280FD1A848006860B95020A74949
:104530000860AC480068A7490860A748C07F40F001
:104540001000A549C87770479C480068B0B99C48DE
:10455000006898B99B48006880B99B48006868B9B2
:1045600050209A490860A04800689A4908609A4813
:10457000C07F40F004009849C87752E08F48006837
:10458000012816D18E48006898B98E48006880B915
:104590008D48006868B950208C49086093480068CD
:1045A0008C4908608C48C07F40F008008A49C87771
:1045B00037E082480068012817D181480068012847
:1045C00013D18048006880B97F48006868B95020DE
:1045D0007E490860864800687E4908607E48C07F42
:1045E00040F040007C49C8771BE07448006801280F
:1045F00017D173480068012813D172480068012858
:104600000FD17148006860B950207049086079483E
:104610000068704908607048C07F40F010006E4923
:10462000C87770476548006878B96548006860B920
:104630006448006848B96448006830B96648C07F7B
:1046400040F004006449C87755E05C4800680128E0
:1046500017D15B480068A0B95A48006888B95A4821
:10466000006870B950205949086063480068C01C50
:10467000584908605848C07F40F008005649C8773C
:1046800039E04E480068012818D14D4800680128DB
:1046900014D14C48006888B94B48006870B9502064
:1046A0004A49086054480068401F4A4908604A481F
:1046B000C07F40F040004849C8771CE03F48006890
:1046C000012818D13E480068012814D13D480068EF
:1046D000012810D13C48006868B950203B49086067
:1046E00046480068401F3B4908603B48C07F40F097
:1046F00010003949C87770472DE9F04105460E464C
:10470000FFF71FFD3E480068FA303E4908603E480A
:104710000068FA303D490860002415E006E00120F9
:1047200017F06EFAFCF79EF900B90BE038490968FA
:10473000364A1268881A002801DB014600E041422F
:104740000F29ECDC00BF641C322CE7DB9FED311A33
:1047500000EE106AF8EEC00A0E2000EE105AB8EE15
:10476000C00AFEF734FE002416E006E0012017F030
:1047700047FAFCF777F900B90CE04FF4807126484E
:1047800014F03EF80128F1D08021244814F038F8C4
:104790000028EBD000BF641C962CE6DB0020FEF75F
:1047A00021FD78201E4908601748006817490860F5
:1047B00000244DE000100240AC030020A0020020C5
:1047C000A4020020A8020020AC0200202C0400203B
:1047D0008001002008040020040000208401002043
:1047E000880100208C010020980100209C010020FD
:1047F000A0010020A40100207C01002078010020FD
:10480000E8030020F0030020F4030020FC03002054
:10481000BC000020CDCCCC3E000002400004024091
:104820002404002006E0012017F0EAF9FCF71AF949
:1048300000B90BE0FE490968FE4A1268881A002890
:1048400001DB014600E041420729ECDC00BF641CAB
:10485000322CE7DB4FF42F7017F0D2F91FED131A4B
:1048600000EE106AF8EEC00A0F2000EE105AB8EE03
:10487000C00AFEF7ACFD40F2A46017F0C1F90024B5
:1048800016E006E0012017F0BBF9FCF7EBF800B9E1
:104890000CE00121E84813F0B3FF0128F2D04FF4F7
:1048A0000061E64813F0ACFF0128EBD000BF641CA8
:1048B00040F21A408442E4DBFA20E1490860E14812
:1048C00000681E30DB4908601FED2E1A00EE106AEA
:1048D000F8EEC00A122000EE105AB8EEC00AFEF739
:1048E00076FD00240FE006E0022017F089F9FCF7BE
:1048F000B9F800B905E00121D34813F081FF012880
:10490000F2D000BF641C40F226208442EBDBCF488B
:104910000068012802D1FFF785FE0CE0CC48006852
:10492000012802D1FFF710FE05E0CA4800680128FF
:1049300001D1FFF79BFD1FED491A00EE106AF8EE5A
:10494000C00A0F2000EE105AB8EEC00AFEF73FFD75
:10495000002410E006E0012017F052F9FCF782F87D
:1049600000B906E04FF40051B74813F049FF0128A1
:10497000F1D000BF641CB4F57A7FEBDB0020FEF7BA
:1049800031FCFA20B4490860B4480068C01CB4493E
:1049900008604FF47A7017F033F9C820A84908600E
:1049A000A84800681130A3490860002415E006E01B
:1049B000012017F025F9FCF755F800B90BE0A949DB
:1049C0000968A74A1268881A002801DB014600E03E
:1049D00041420429ECDC00BF641CFA2CE7DB4FF4F5
:1049E0007A7017F00DF91FED751A00EE106AF8EEE7
:1049F000C00A0C2000EE105AB8EEC00AFEF7E7FC21
:104A0000002416E006E0012017F0FAF8FCF72AF877
:104A100000B90CE004218C4813F0F2FE0128F2D01A
:104A20004FF48051854813F0EBFE0128EBD000BF16
:104A3000641CFA2CE6DBFDF73AFD06E0052017F0D2
:104A4000DFF8FCF70FF800B914E0FCF741F88046F6
:104A5000FCF711F8071E01DB384600E07842B8F198
:104A6000000F01DB414601E0C8F100010844B0F548
:104A7000C87FE3DB00BFFFF764FB4FF48270784927
:104A800008606C4908601FED9D1A00EE106AF8EE90
:104A9000C00A0C2000EE105AB8EEC00AFEF797FCD0
:104AA00000240FE006E0012017F0AAF8FBF7DAFF78
:104AB00000B905E01021644813F0A2FE0128F2D0ED
:104AC00000BF641C642CEDDB0020FEF78BFBBDE80F
:104AD000F08110B50246101E01DB044600E044429E
:104AE00021463C2900DD3C21062901DA042010BDC5
:104AF000C1EBC10000EB400048434FF4616490FB00
:104B0000F4F0031D1846F2E72DE9F04104460D4686
:104B10000020554908603BE02AE054480068071B24
:104B20003846FFF7D6FF064650480068001B0028AD
:104B300009DD9FED4F1ADFED4F0A30469FED4E0A1B
:104B4000FEF745FC10E049480068001B09D59FEDC1
:104B5000481ADFED480A30469FED480AFEF737FC59
:104B600002E00020FEF73EFBFBF77CFF00B909E006
:104B70003E490968081B002801DB014600E041426C
:104B80000129CADC00BF38480068401C364908606B
:104B900035480068A842BFDBBDE8F08170B53848F1
:104BA0000468384805684FF461714842FFF7A4FD76
:104BB000FFF7C7FA29480068FA30294908602148F8
:104BC0000068F0301B4908609FED2F1ADFED290ABD
:104BD0000F209FED2E0AFEF7FAFB00202249086005
:104BE0001AE006E0FBF73EFF00B90FE0012017F0E6
:104BF00007F84FF48071114813F002FE0128F1D03C
:104C000080210D4813F0FCFD0028EBD000BF1648B2
:104C10000068401C144908601348006840F20E61A7
:104C20008842DEDB4FF4FA6016F0EAFF07482FE017
:104C3000BC000020FC0300200004024000000240F1
:104C400024040020F403002000100240E8000020AB
:104C5000EC000020F000002028040020E8030020E1
:104C6000F0030020B8000020AC030020A0000020CA
:104C70006666663F00006144000000000000E144F9
:104C8000B0010020B40100203333333F000061C481
:104C90000068012803D140F23520FFF759FA0020BF
:104CA000FEF7A0FAFE480068012822D1FD490860FD
:104CB000FD480068F0B9FD480068D8B9FC480068B4
:104CC000C0B9FC480068A8B91FED111A5FED170ABA
:104CD00005201FED120AFEF77AFB4FF4FA6016F07A
:104CE0008FFF4FF47A712046FFF70EFF0020FEF78A
:104CF00079FA6AE0EC48006801281ED1EB480068A8
:104D0000D8B9EB480068C0B9EA480068A8B91FEDF7
:104D1000221A5FED280A05201FED240AFEF757FB33
:104D20004FF4FA6016F06CFF4FF47A712046FFF7EB
:104D3000EBFE0020FEF756FA47E0DB48006801284A
:104D40001FD1DA48006801281BD1D9480068C0B9D2
:104D5000D8480068A8B91FED341A5FED3A0A05205B
:104D60001FED360AFEF733FB4FF4FA6016F048FFEA
:104D70004FF47A712846FFF7C7FE0020FEF732FA9B
:104D800023E0C948006801281FD1C84800680128ED
:104D90001BD1C7480068012817D1C6480068A0B9D0
:104DA0001FED471A5FED4D0A05201FED480AFEF77B
:104DB0000EFB4FF4FA6016F023FF4FF47A71284689
:104DC000FFF7A2FE0020FEF70DFA0020FEF70AFA18
:104DD00070BD10B5B4480068002855D1B3480068CC
:104DE000002851D1B248006800284DD1B148006870
:104DF000002849D1B049086019E006E0012016F00A
:104E0000FFFEFBF72FFE00B90BE0AC490968AC4A86
:104E10001268881A002801DB014600E041420A2995
:104E2000ECDC00BFA4480068401CA3490860A2480D
:104E30000068FA28E1DBB6EE001A5FED720A052081
:104E40001FED720AFEF7C3FA00209B49086013E0C9
:104E500006E0012016F0D4FEFBF704FE00B905E0E1
:104E60000421984813F0CCFC0028F2D000BF9248EF
:104E70000068401C904908608F4800689628E7DB6E
:104E80000020FEF7AFF97BE087480068012877D162
:104E90008D480068002873D18749086019E006E052
:104EA000012016F0ADFEFBF7DDFD00B90BE08349F4
:104EB0000968834A1268881A002801DB014600E06D
:104EC00041420A29ECDC00BF7B480068401C7A495B
:104ED000086079480068FA28E1DBB6EE001A5FED59
:104EE0009B0A05201FED970AFEF771FA0020724910
:104EF000086014E006E0FBF7B5FD00B909E0012009
:104F000016F07EFE4FF48071704813F079FC002893
:104F1000F1D000BF68480068401C674908606648D7
:104F2000006840F20E618842E4DB0020FEF75AF987
:104F3000B6EE001A5FEDB10A05201FEDB00AFEF7CC
:104F400046FA00205C49086013E006E0012016F0F4
:104F500057FEFBF787FD00B905E00421594813F01F
:104F60004FFC0028F2D000BF53480068401C524953
:104F70000860514800689628E7DB0020FEF732F908
:104F800010BD00B5FFF7D6F8FF20514908604C4925
:104F9000086000BD10B544480068002865D143484A
:104FA0000068002861D14248006800285DD141486E
:104FB0000068002859D1F02046490860464800683A
:104FC000464908604648C07F40F004004449C8771D
:104FD000FFF7D7FF00203849086019E006E00120FC
:104FE00016F00EFEFBF73EFD00B90BE033490968F1
:104FF000334A1268881A002801DB014600E041426A
:105000000A29ECDC00BF2C480068401C2A490860D3
:1050100029480068FA28E1DBB6EE001A5FEDEB0ADA
:1050200005201FEDEB0AFEF7D2F9002022490860A7
:1050300013E006E0012016F0E3FDFBF713FD00B9D5
:1050400005E00121274813F0DBFB0028F2D000BF68
:1050500019480068401C18490860174800689628DD
:10506000E7DB0020FEF7BEF8ACE00F48006801283F
:10507000FAD1154800680028F6D1F02015490860DB
:1050800019480068154908601548C07F40F01000B5
:105090001349C877FFF775FF0020074908603FE014
:1050A000E8000020B8020020A0020020A402002096
:1050B000A8020020AC020020AC030020BC000020AD
:1050C000FC03002000100240B0020020000002405B
:1050D000F00300202C040020900100200804002090
:1050E00004000020000402409401002006E001209A
:1050F00016F086FDFBF7B6FC00B90BE0FE49096827
:10510000FE4A1268881A002801DB014600E041428D
:105110000A29ECDC00BFFA480068401CF849086026
:10512000F7480068FA28E1DBB6EE001ADFEDF50A71
:1051300005209FEDF50AFEF74AF90020F0490860C6
:1051400014E006E0012016F05BFDFBF78BFC00B9D4
:1051500006E04FF48071ED4813F052FB0028F1D0C7
:1051600000BFE7480068401CE5490860E448006863
:105170009628E6DBB6EE001ADFEDE20A05209FED89
:10518000E40AFEF724F90020DD49086013E006E098
:10519000012016F035FDFBF765FC00B905E00121A3
:1051A000DC4813F02DFB0028F2D000BFD448006883
:1051B000401CD3490860D24800689628E7DB0020ED
:1051C000FEF710F8D4480068012838D1FFF72AFA12
:1051D000B6EE001ADFEDCB0A0A209FEDCB0AFEF7F0
:1051E000F6F80020C64908601AE006E0FBF73AFC32
:1051F00000B90FE0012016F003FD4021C54813F06F
:10520000FFFA0028F2D04FF48071C04813F0F8FA8A
:105210000028EBD000BFBA480068401CB8490860BD
:10522000B748006840F20E618842DEDB0020FDF7DF
:10523000D9FF4FF47A7016F0E3FCFEF7F2FF10BDD1
:1052400010B5B6480068002874D1B5480068002839
:10525000FAD1B44800680028F6D1B34800680028A5
:10526000F2D1C820B1490860B1480068B14908606E
:10527000FFF787FE0020A249086019E006E0012040
:1052800016F0BEFCFBF7EEFB00B90BE09A4909688B
:105290009A4A1268881A002801DB014600E0414260
:1052A0000A29ECDC00BF96480068401C944908605D
:1052B00093480068FA28E1DBB6EE001ADFED910AA8
:1052C00005209FED910AFEF782F89B48C07F40F0D1
:1052D00004009949C87700208949086014E006E075
:1052E000FBF7C0FB00B909E0012016F089FC4FF480
:1052F0008071864813F084FA0028F1D000BF8048FE
:105300000068401C7E4908607D48006840F20E61DC
:105310008842E4DB0020FDF765FFB6EE001ADFED02
:10532000790A05209FED850AFEF751F8002074499F
:10533000086015E01CE006E0012016F061FCFBF7B8
:1053400091FB00B906E04FF40061704813F058FA81
:105350000028F1D000BF6A480068401C6849086016
:10536000674800689628E6DB0020FDF73BFF61E018
:105370006A48006801285DD171480068002859D149
:10538000F0206A4908606F4800686A4908606A4806
:10539000C07F40F010006849C877FFF7F2FD002099
:1053A0005749086019E006E0012016F029FCFBF7D8
:1053B00059FB00B90BE050490968504A1268881A35
:1053C000002801DB014600E041420A29ECDC00BF75
:1053D0004B480068401C4A49086049480068FA2860
:1053E000E1DBB6EE001ADFED470A05209FED530A18
:1053F000FDF7EDFF00204249086014E006E00120BF
:1054000016F0FEFBFBF72EFB00B906E04FF400613F
:105410003E4813F0F5F90028F1D000BF3848006885
:10542000401C37490860364800689628E6DB0020B3
:10543000FDF7D8FE3848006801283CD1FFF7F2F8A4
:1054400041F6583016F0DCFBB6EE001ADFED2D0AFF
:105450000A209FED2D0AFDF7BAFF002028490860B9
:105460001AE006E0FBF7FEFA00B90FE0012016F0A3
:10547000C7FB4021274813F0C3F90028F2D04FF4AE
:105480008071224813F0BCF90028EBD000BF1C4803
:105490000068401C1A4908601948006840F20E6113
:1054A0008842DEDB0020FDF79DFE4FF47A7016F097
:1054B000A7FBFEF7B6FE10BD10B54FF46171484270
:1054C000FFF71AF940F20910FEF742FE1248006891
:1054D00000286BD11C480068E0BB1C480068C8BBB2
:1054E0009FED1B1ADFED070A11209FED070AFDF75C
:1054F0006EFF002002492EE0BC000020FC030020CB
:10550000AC03002000006144000061C400000240C0
:105510000000000000040240E8000020A00200207B
:10552000A4020020A8020020AC0200202C040020CD
:10553000A801002008040020040000200000E1442D
:10554000B0020020AC010020EC000020F0000020A0
:10555000CDCC4C3F2AE008601AE006E0FBF782FA67
:1055600000B90FE0012016F04BFB4021FE4813F07C
:1055700047F90028F2D04FF48071FC4813F040F94D
:105580000028EBD000BFFA480068401CF8490860CA
:10559000F748006840F20E618842DEDB0020FDF72C
:1055A00021FE4FF47A7016F02BFB48E0F1480068BA
:1055B000012837D19FEDF01A5FED2E0A0A201FED6A
:1055C0002E0AFDF704FF0020E94908601AE006E012
:1055D000FBF748FA00B90FE0012016F011FB40215B
:1055E000E14813F00DF90028F2D04FF48071DF4844
:1055F00013F006F90028EBD000BFDD480068401C1E
:10560000DB490860DA48006840F20E618842DEDB60
:105610000020FDF7E7FD4FF47A7016F0F1FAFEF77F
:1056200000FE0CE0D5480068012802D1FFF708FE13
:1056300005E0D3480068012801D1FFF7ABFC10BD9D
:105640002DE9F05F82460D4614461E46DDE90B9BB0
:10565000DDF82880CB490968881B002801DB01465A
:1056600000E0414201FB0BF74F4500DD4F46C548C6
:105670000068801B404510DAE81B00EE900AF8EE47
:10568000E00AB0EE600A9FEDC01A00EE904AF8EE14
:10569000E00A5046FDF79BFE22E0BA480068801BF6
:1056A000404510DDE81900EE900AF8EEE00AB0EE91
:1056B000600A9FEDB51A00EE904AF8EEE00A5046F7
:1056C000FDF785FE0CE09FEDB01A00EE104AF8EEF3
:1056D000C00A504600EE105AB8EEC00AFDF777FE39
:1056E000BDE8F09F3EB59A244FF461714842FFF740
:1056F00003F800209E4908601CE011E0322040F2CF
:10570000262102222346CDE9002102909F4A9F498B
:1057100014390720FFF794FFFBF7A4F900B903E061
:105720009B4800681928E9DC00BF91480068401CCC
:105730008F4908608E480068B0F57A7FDDDB002075
:105740008B4908601CE011E0322040F22621022241
:105750002346CDE9002102908C4A8C491439072058
:10576000FFF76EFFFBF77EF900B903E08948006898
:105770009428E9DC00BF7E480068401C7C49086032
:105780007B480068B0F57A7FDDDB0020FDF72AFD5D
:10579000FEF7D7FC4FF496707F4908607F49086098
:1057A0003EBD2DE9F04105460E46FEF7CAFC7C4899
:1057B0000068C01F784908607A480068C01F7749B0
:1057C0000860002415E006E0012016F019FAFBF746
:1057D00049F900B90BE074490968704A1268881ADF
:1057E000002801DB014600E041420A29ECDC00BF51
:1057F000641CFA2CE7DB0020FDF7F4FC9FED6B1A2C
:1058000000EE106AF8EEC00A0C2000EE105AB8EE56
:10581000C00AFDF7DCFD00241CE006E0012016F0C4
:10582000EFF9FBF71FF900B912E04FF480714F4810
:1058300012F0E6FF0128F1D040214B4812F0E0FFC2
:105840000128EBD08021484812F0DAFF0028E5D08B
:1058500000BF641C962CE0DBFCF729FE06E0052067
:1058600016F0CEF9FBF7FEF800B913E0FBF730F9BC
:105870008046FBF700F9071E01DB384600E078425E
:10588000B8F1000F01DB414601E0C8F10001084416
:10589000C828E4DB00BF0020FDF7A4FC78204449C1
:1058A0000860444800683D490860002415E006E0AF
:1058B000052016F0A5F9FBF7D5F800B90BE03A4939
:1058C0000968364A1268881A002801DB014600E0A0
:1058D00041420429ECDC00BF641C322CE7DB40F2BF
:1058E000DC5016F08DF9B6EE001A00EE106AF8EEF4
:1058F000C00A0F2000EE105AB8EEC00AFDF767FD8F
:1059000040F2A46016F07CF9002416E006E00120C5
:1059100016F076F9FBF7A6F800B90CE00121124861
:1059200012F06EFF0128F2D04FF400610F4812F020
:1059300067FF0128EBD000BF641C40F21A4084428C
:10594000E4DBFA201A4908601A4800681E3013493F
:105950000860B6EE001A00EE106AF8EEC00A0F20DA
:1059600000EE105A28E0000000040240000002404F
:10597000AC030020E80000203333333FEC0000206C
:10598000F0000020A00000209A99993E90FCFFFFB3
:105990009C000020AC000020F0030020FC0300204D
:1059A000EC030020F8030020BC000020CDCC4C3ECE
:1059B00024040020F4030020B8EEC00AFDF707FD20
:1059C00000240FE006E0022016F01AF9FBF74AF86F
:1059D00000B905E00121F74812F012FF0128F2D0CA
:1059E00000BF641C40F226208442EBDB002410E060
:1059F00006E0012016F004F9FBF734F800B906E0E0
:105A00004FF40051EB4812F0FBFE0128F1D000BF2B
:105A1000641CB4F57A7FEBDBE7480068012802D10B
:105A2000FEF700FE0CE0E5480068012802D1FEF711
:105A30008BFD05E0E2480068012801D1FEF716FD64
:105A40000020FDF7CFFBFA20DE490860DE48006841
:105A5000DE4908603C20DE490860DE4800681130FD
:105A6000DD490860002415E006E0012016F0C8F8C2
:105A7000FAF7F8FF00B90BE0D8490968D34A126871
:105A8000881A002801DB014600E041420429ECDCD1
:105A900000BF641CFA2CE7DB40F2DC5016F0B0F8D3
:105AA0001FED3E1A00EE106AF8EEC00A142000EE58
:105AB000105AB8EEC00AFDF78AFC002416E006E092
:105AC000012016F09DF8FAF7CDFF00B90CE0042193
:105AD000B84812F095FE0128F2D04FF48051C0482A
