:020000040800F2
:1000000080A50120599B010845020008470200080D
:100010004B0200084F0200085302000800000000D5
:100020000000000000000000000000009D0100082A
:100030005702000800000000E101000873CB01082E
:10004000739B0108739B0108739B0108739B010854
:10005000739B0108739B0108739B0108739B010844
:10006000AB040008EF040008739B01081B030008A1
:10007000FD0200085D030008739B0108750200087B
:10008000739B010881020008739B0108739B0108A0
:10009000739B0108739B0108739B0108739B010804
:1000A000739B0108C7030008F3030008739B010852
:1000B000F5030008230400084F040008739B01089F
:1000C000739B0108739B0108739B0108A704000838
:1000D000739B01085D020008739B0108739B010874
:1000E000739B0108739B0108739B0108739B0108B4
:1000F000739B0108739B0108739B01083903000877
:10010000739B0108739B01087B040008A904000885
:10011000739B0108739B010899030008A50300085D
:10012000739B01089B020008CF020008739B010823
:10013000739B0108739B0108739B0108739B010863
:10014000739B0108739B0108739B0108739B010853
:10015000EF020008739B0108739B0108739B010861
:10016000739B0108739B0108739B0108739B010833
:10017000739B0108739B0108739B0108739B010823
:10018000739B0108739B0108DFF80CD01DF0ACFFD6
:10019000004800476998010880A50120234B196891
:1001A0000868B0E8F04F80F309884FF0000080F352
:1001B000118870470000000003480068006880F361
:1001C000088862B600DF00BF08ED00E0DFF80C0031
:1001D000016841F470010160704700BF88ED00E0E4
:1001E000EFF30980114B1A681EF0100F08BF20EDC5
:1001F000108A20E9F04F106008B54FF0140080F32A
:1002000011881DF07EF84FF0000080F31188BDE8E2
:10021000084019680868B0E8F04F1EF0100F08BFDA
:10022000B0EC108A80F30988704700BF7805002081
:10023000EFF311804FF0140181F31188704780F3C0
:1002400011887047704700BFFEE700BFFEE700BFA0
:10025000FEE700BFFEE770477047704710B540F2F9
:100260002551A3481BF099FD18B12021A0481BF08F
:100270008BFD10BD10B59F499F481AF0C3FC10BDFF
:1002800010B59E499C4830301AF092FC20B19B4931
:10029000994830301AF0B6FC10BD10B5984999480D
:1002A0001AF086FC90B1964996481AF0ABFC01F022
:1002B000CAFF0021904830381AF0D0FB082191483D
:1002C0001AF0EDFB01218F481AF0C8FB10BD10B5E4
:1002D0008D498C4818301AF095FC8C4840788B4931
:1002E000097840EA012000B28949088010BD10B5A4
:1002F0008849844860301AF085FC10BD10B58049EB
:100300007D4848381AF054FC30B17D497A48483865
:100310001AF078FC00F0B9FA10BD10B57E497648A5
:1003200060381AF045FC30B17B49734860381AF0E8
:1003300069FC01F088FF10BD10B578496E4848305F
:100340001AF036FC48B100216B4848301AF086FBA1
:100350007249694848301AF055FC10BD10B56A4919
:10036000654830381AF024FCA8B167496248303833
:100370001AF048FC01F024FD00215F4830381AF0E3
:100380006DFB08215C4830381AF089FB01215A487E
:1003900030381AF063FB10BD10B5012160481BF026
:1003A00059FA10BD10B501215E481BF053FA7A20AE
:1003B0004F49888001215C481BF0FEFB01215B480E
:1003C0001BF0FAFB10BD10B5012159481BF042FA91
:1003D0005748008800F0100028B156480068401EB9
:1003E0005449086004E053480068401C51490860C3
:1003F00010BD704710B5012188071BF02BFA4FF094
:100400008040008800F0100028B14B480068401E72
:100410004949086004E048480068401C46490860B3
:1004200010BD10B5012145481BF014FA434800885F
:1004300000F0100028B142480068401E40490860A2
:1004400004E03F480068401C3D49086010BD10B5FD
:1004500001213C481BF0FEF93A48008800F01000EA
:1004600028B139480068401E3749086004E0364822
:100470000068401C3449086010BD10B501213348A4
:100480001BF0E8F93148008800F0100028B130482E
:100490000068401E2E49086004E02D480068401C9A
:1004A0002B49086010BD7047704710B504201AF042
:1004B00041FCD8B12021274819F0C5FC0421264869
:1004C00019F09CFC012804D1002116481AF042FDC5
:1004D00009E00421204819F091FC20B911481AF0D4
:1004E0003DFD1E49086004201D49086010BD70478D
:1004F0000010014020800020706002400080202019
:100500000088001028640240008020103608002077
:100510008C0000200088002020800010008000282F
:10052000001000400014004000480040001401404A
:10053000000001406C00002070000020000400401A
:10054000740000200008004088000020000C0040DB
:100550007800002000000240000C024068000020EB
:10056000143C014070B5044620461DF0B3FA054620
:100570002146F9481DF0B5FAA8B140F22B122146E8
:10058000F5481DF09BFA0021F4481AF067FAF2488A
:10059000F2490C310860F148B838C0F8BC5001216C
:1005A000EE481AF05BFA70BD70B50446002510E005
:1005B000605D68B1615DEA481BF029FB00BF8021E6
:1005C000E7481BF0D4FB0028F9D0681CC5B200E056
:1005D00070BDEDE770B5044600250FE05CB1214623
:1005E000DF481BF014FB00BF8021DD481BF0BFFB80
:1005F0000028F9D000E070BD681CC5B2032DEDDB0A
:1006000000BFF8E713B50C460020FFF7E3FFD5A0C5
:10061000FFF7CAFF2346D4A29621D4481DF0A2FDBD
:10062000D248FFF7C1FFD2A0FFF7BEFFCEA29621AE
:10063000CE48009B1DF096FDCC48FFF7B5FFCEA03D
:10064000FFF7B2FFFF20FFF7C5FFFF20FFF7C2FF54
:10065000FF20FFF7BFFF1CBD70B505460C46C1A0CB
:10066000FFF7A2FF2246C0A1C0481DF093FDBF487E
:10067000FFF79AFFBEA0FFF797FF2846FFF794FF0A
:10068000BDA0FFF791FFFF20FFF7A4FF70BD77B576
:1006900085B00546FF26B6A103C9CDE90301B6A082
:1006A00000680290AFA00068019000240AE00020DA
:1006B000B2490855B2490855AC490855A6490855EC
:1006C000601CC4B21E2CF2DB0A20A8490870FF206F
:1006D00048708870C870A4A1A948079A1DF05AFDF7
:1006E000A74901A81DF0DEF901A9A0481DF0DAF91B
:1006F00003A99E481DF0D6F929469C481DF0D2F961
:1007000099A19F48069A1DF045FD9D4997481DF007
:10071000C9F902A995481DF0C5F9FF20974908704D
:100720004870887091481DF0BDF99048FFF71AFF96
:1007300008B070BDF7B584B005460E46FF278CA102
:1007400003C9CDE902018CA00068019085A0006872
:100750000090002408E00020884908558849085581
:1007600082490855601CC4B20A2CF4DB0A207F4978
:100770000870FF2048708870C8707BA18048069A76
:100780001DF008FD7E4968461DF08CF969467748E2
:100790001DF088F902A975481DF084F929467348AF
:1007A0001DF080F9314671481DF07CF901A96F48B0
:1007B0001DF078F9FF20714908704870887000209A
:1007C000C870087169481DF06DF96848FFF7CAFEE6
:1007D00007B0F0BD01B58EB06AA2322101A80E9B10
:1007E0001DF0C0FC01A8FFF7BDFE0FB000BD73B542
:1007F00084B00546FF265EA103C9CDE902015EA0D3
:100800000068019057A00068009000240AE00020D2
:100810005A4908555A490855544908554E490855EA
:10082000601CC4B21E2CF2DB0A2050490870FF2065
:1008300048708870C8704CA15148059A1DF0AAFCF8
:100840004F4968461DF02EF9694648481DF02AF9BF
:1008500002A946481DF026F9294644481DF022F910
:10086000474942481DF01EF901A940481DF01AF9F8
:10087000FF2042490870487088703C481DF012F90A
:100880003A48FFF76FFE06B070BD10B52DED0C8B2A
:1008900082B03F4800783E49497808443C4989780D
:1008A00008443B49C978084439490979084438491A
:1008B000497908443649897908443549C979084451
:1008C0003349097A0844C0B201903148007A00F0F7
:1008D0000F0000909FED2F0AB0EE40DA2C48407ACE
:1008E0000199884272D12A48007A00F00F000D2841
:1008F0006CD127488078C0F17F0000EE100AB8EE76
:10090000C08A2348C078813800EE100AF8EEC08A09
:10091000B5EEC08AF1EE10FA03D1B7EE000AB0EEE0
:10092000408AF5EEC08AF1EE10FA03D1B7EE000A64
:10093000F0EE408ABDEEC80A10EE102A002A01DB54
:10094000134600E05342BDEEE80A10EE100A0028FC
:1009500022DB044621E00000EE060020B8600240E1
:10096000005000407400000025640000B80500201D
:100970002E7478743D220000220000009E060020A4
:10098000760600206A302E76616C3D2564000000FA
:1009900077080020DB0F49404442191901EBD1735D
:1009A0005B10FE4C2360BDEEE80A10EE101A002921
:1009B00001DB0A4600E04A42322A0FDABDEEC80ADD
:1009C00010EE100A002802DB024601E02FE042424E
:1009D000322A03DA0020F249086030E018EE900A6B
:1009E0001DF045FA41EC1B0B18EE100A1DF03FFA02
:1009F00041EC1C0BB0EE4B1AF0EE6B1AB0EE4C0A49
:100A0000F0EE6C0A1DF074FDB0EE40AAF0EE60AAA4
:100A10009FEDE40B53EC102B51EC1A0B1DF016F963
:100A200041EC190B1DF004FADD49086007E09DF860
:100A300000000D2803D00021DC481BF0BDF802B0F7
:100A4000BDEC0C8B10BDDA48007A00F00F000D28C9
:100A500006D1D748007800F0010008B10D2070479A
:100A60000020FCE7D248007800F0100008B1002018
:100A700070470120FCE71CB54FF080401AF06EFA79
:100A8000CC49096840EA01400C2190FBF1F000904C
:100A9000002418E04FF080401AF060FAC549096858
:100AA00040EA01400C2190FBF1F00190DDE90021CA
:100AB000881A002801DB014600E04142052900DADE
:100AC000641C01980090022CE4DB019840421CBD9C
:100AD0001CB5B9481AF042FAB849096840EA014021
:100AE0000C2190FBF1F00090002417E0B2481AF0BE
:100AF00035FAB249096840EA01400C2190FBF1F057
:100B00000190DDE90021881A002801DB014600E0A0
:100B10004142052900DA641C01980090022CE5DBB3
:100B200001981CBD1CB5A6481AF018FAA549096819
:100B300040EA01400C2190FBF1F00090002417E006
:100B40009F481AF00BFA9F49096840EA01400C21BE
:100B500090FBF1F00190DDE90021881A002801DB0B
:100B6000014600E04142052900DA641C019800902A
:100B7000022CE5DB01981CBD1CB593481AF0EEF978
:100B80009249096840EA01400C2190FBF1F0009085
:100B9000002417E08C481AF0E1F98C49096840EA12
:100BA00001400C2190FBF1F00190DDE90021881A51
:100BB000002801DB014600E04142052900DA641CFF
:100BC00001980090022CE5DB01981CBD01B581B0B5
:100BD00000200090019800EBC0004000009002E06F
:100BE0000098401E009000980028F9D10CBD01B576
:100BF00081B00020009044F2506101984843009079
:100C000002E00098401E009000980028F9D10CBD29
:100C10001CB501211F2019F0D5FA4FF6FF70009086
:100C200001208DF8040000208DF8060001208DF8C9
:100C3000070003208DF805006946654819F07CF827
:100C40004FF6FF70009001208DF8040000208DF811
:100C5000060001208DF8070003208DF80500694685
:100C60005C4819F069F84FF6FF70009001208DF88C
:100C7000040000208DF8060001208DF807000320F5
:100C80008DF805006946544819F056F81CBD1CB58E
:100C900001217E2019F096FA4FF4CE5000900020EA
:100CA0008DF8040001208DF8070002208DF8050062
:100CB00069464A4819F040F84FF6C74000900020B6
:100CC0008DF8040001208DF8070002208DF8050042
:100CD00069463F4819F030F84FF441700090002009
:100CE0008DF8040001208DF8070002208DF8050022
:100CF0006946384819F020F84CF60340009000206F
:100D00008DF8040001208DF8070002208DF8050001
:100D10006946314819F010F84FF426600090002021
:100D20008DF8040001208DF8070002208DF80500E1
:100D300069462B4819F000F81CBD1FB54FF4E06060
:100D400018F01CFF36208DF8000000208DF80100FF
:100D50008DF8020001208DF80300684618F013FF9B
:100D60000121102019F061FA3220ADF8040040F2A0
:100D7000E73002900020ADF80C00ADF8060001A9A4
:100D800018481AF09EF8012116481AF063FD012256
:100D9000114614481AF036FD002125E0CC00002051
:100DA000C800002000000080A9E781400048004002
:100DB000770800207000002000040040740000202C
:100DC0000008004088000020000C0040780000204F
:100DD0000004024000080240000C024000000240F3
:100DE0000010024000100040FE481AF0B3F8012144
:100DF000FC481AF0EFF81FBD1FB54FF4E06018F083
:100E0000BDFE37208DF8000000208DF801008DF820
:100E1000020001208DF80300684618F0B4FE01219D
:100E2000202019F002FA3220ADF8040040F2E73039
:100E300002900020ADF80C00ADF8060001A9EA48C8
:100E40001AF03FF80121E8481AF004FD012211468A
:100E5000E5481AF0D7FC0021E3481AF07BF801219D
:100E6000E1481AF0B7F81FBD00B58BB00121022090
:100E700019F0ECF901210C2019F0A4F90322062144
:100E8000DA4818F0E4FF03220721D84818F0DFFF02
:100E900003220821D54818F0DAFF03220921D3489C
:100EA00018F0D5FF4FF47070069002208DF81C00EA
:100EB00003208DF81D0000208DF81E0001208DF804
:100EC0001F0006A9C94818F037FFA420ADF820007C
:100ED00040F6B83009904FF48070ADF8280000203B
:100EE000ADF8220008A9C24819F0EBFF6020ADF868
:100EF00004000120ADF8060000200390ADF81000BA
:100F00000121BB481AF066F80021B9481AF022F80E
:100F100001A9B7481AF06AF801A9B5481AF09FF874
:100F200001A9B3481AF0E8F801A9B1481AF04AF942
:100F30000121AF481AF03FFC0BB000BD00B58BB0EB
:100F40000121082019F071F90121084619F03AF938
:100F500002220021A74818F07AFF02220121A548A9
:100F600018F075FF02221146A24818F070FF022205
:100F70000321A04818F06BFF0F20069002208DF887
:100F80001C0003208DF81D0000208DF81E0001209C
:100F90008DF81F0006A9974818F0CEFEBA20ADF8CC
:100FA000200042F2107009900020ADF82800ADF842
:100FB000220008A9904819F084FF6020ADF80400D1
:100FC0000120ADF8060000200390ADF810000121CB
:100FD000894819F0FFFF0021874819F0BBFF01A9DC
:100FE00085481AF003F801A983481AF038F801A9D6
:100FF00081481AF081F801A97F481AF0E3F801212D
:101000007D481AF0D8FB0BB000BD00B58BB00121B4
:10101000042019F00AF901210D2019F0D3F8022259
:101020000C21764818F013FF02220D21734818F0A6
:101030000EFF02220E21714818F009FF02220F2133
:101040006E4818F004FF4FF47040069002208DF8AF
:101050001C0003208DF81D0000208DF81E000120CB
:101060008DF81F0006A9654818F066FEA420ADF8AB
:10107000200040F6B83009904FF48070ADF8280099
:101080000020ADF8220008A95D4819F01AFF602081
:10109000ADF804000120ADF8060000200390ADF883
:1010A00010000121564819F095FF0021544819F00D
:1010B00051FF01A9524819F099FF01A9504819F0B0
:1010C000CEFF01A94E481AF017F801A94C481AF0B2
:1010D00079F80BB000BD00B589B00121080419F002
:1010E000B5F80121084619F06DF803221146414870
:1010F00018F0ADFE032202213E4818F0A8FE0C2095
:10110000019002208DF8080003208DF809000020CE
:101110008DF80A0001208DF80B0001A9354818F060
:101120000BFE0020ADF818004FF6FF70079000206E
:10113000ADF82000ADF81A0006A9324819F0C1FE3A
:101140000420ADF80C000020ADF80E00C820ADF86A
:1011500014000120ADF8100003A92A481AF088FAFB
:1011600000231A46032128481AF01FFC01212648B3
:101170001AF070FB0122114623481AF043FB0121AB
:10118000204819F027FF00211F4819F0E3FE09B09D
:1011900000BD00B589B00121084619F046F80121CB
:1011A000022019F042F80121032019F00BF8012266
:1011B0000F21104818F04BFE01220321134818F0AC
:1011C00046FE02220421114818F041FE02220521A8
:1011D0000E4818F03CFE3820019002208DF80800DF
:1011E000032015E0001000400014004000080240F9
:1011F0000004014000000240000C0040000C0240CE
:10120000000800400000014000400140000402408E
:101210008DF8090000208DF80A0001208DF80B00E0
:1012200001A9FE4818F088FD4FF40040019002200B
:101230008DF8080003208DF8090000208DF80A00C1
:1012400001208DF80B0001A9F54818F075FD00206C
:10125000ADF818004FF6FF7007900020ADF82000A1
:10126000ADF81A0006A94FF0804019F02AFE06A931
:10127000EC4819F026FE0420ADF80C000220ADF871
:101280000E001420ADF814000120ADF8100003A9E1
:1012900080071AF0EDF903A9E2481AF0E9F90223F0
:1012A0001A46032158071AF080FB02231A4603212D
:1012B000DC481AF07AFB012188071AF0CBFA0121E9
:1012C000D8481AF0C7FA0122114690071AF09AFA84
:1012D00001221146D3481AF095FA0121880719F026
:1012E00079FE0121CF4819F075FE00214FF08040B2
:1012F00019F030FE0021CB4819F02CFE4FF4C060ED
:1013000018F03CFC1D208DF8000003208DF8010032
:1013100000208DF8020001208DF80300684618F0C7
:1013200032FC1C208DF8000004208DF80100002004
:101330008DF8020001208DF80300684618F023FCA8
:1013400009B000BD00B589B00121084618F07EFF44
:101350000121102018F036FF4FF420600190022088
:101360008DF8080003208DF8090000208DF80A0090
:1013700001208DF80B0001A9AB4818F0DDFC01221B
:101380000921A94818F063FD01220B21A64818F095
:101390005EFD0020ADF818004FF6FF7007900020AA
:1013A000ADF82000ADF81A0006A9A04819F089FD93
:1013B0000420ADF80C000020ADF80E000A20ADF8B6
:1013C00014000120ADF8100003A998481AF050F954
:1013D00000231A46032195481AF0E7FA01219348A1
:1013E0001AF038FA0122114690481AF00BFA01213E
:1013F0008E481AF02FFA012211468C481AF002FA90
:1014000001218A4819F0E6FD0021884819F0A2FD63
:101410004FF4C06018F0B2FB19208DF800000120D5
:101420008DF8010000208DF8020001208DF80300E6
:10143000684618F0A8FB09B000BD00B589B00121CD
:10144000042018F0F2FE0121082018F0BBFE4FF432
:101450004050019002208DF8080003208DF809000B
:1014600000208DF80A0001208DF80B0001A97048BA
:1014700018F062FC0020ADF818004FF6FF700790DE
:101480000020ADF82000ADF81A0006A9694819F04F
:1014900018FD02220C21664818F0D9FC02220D2109
:1014A000634818F0D4FC0420ADF80C000220ADF81D
:1014B0000E00C820ADF814000120ADF8100003A9FB
:1014C0005C481AF0D5F802231A46032159481AF04D
:1014D0006CFA012157481AF0BDF90122114655480E
:1014E0001AF090F90121534819F074FD0021514878
:1014F00019F030FD00204F491431088001204D497A
:1015000008804FF4C06018F039FB1E208DF80000F1
:1015100004208DF8010000208DF8020001208DF8D4
:101520000300684618F02FFB09B000BD00B589B074
:101530000121082018F079FE0121084618F042FE2A
:101540000320019002208DF8080003208DF8090087
:1015500000208DF80A0001208DF80B0001A9304809
:1015600018F0EAFB0020ADF818004FF6FF70079066
:101570000020ADF82000ADF81A0006A92E4819F099
:10158000A0FC02220021264818F061FC0222012161
:10159000234818F05CFC0420ADF80C000220ADF8E4
:1015A0000E00C820ADF814000120ADF8100003A90A
:1015B00021481AF05DF802231A4603211E481AF04A
:1015C000F4F901211C481AF045F9012211461A4884
:1015D0001AF018F90121184819F0FCFC00211648EE
:1015E00019F0B8FC00201449143108800120124978
:1015F00008804FF4C06018F0C1FA32208DF8000066
:1016000004208DF8010000208DF8020001208DF8E3
:101610000300684618F0B7FA09B000BD00040240A4
:1016200000000240000400400010024000000140A1
:10163000000C024000080040000C004000B59BB0C8
:101640000121FE4818F0BEFD0121080218F0FEFD40
:1016500000200290FA480390FA4804900020059078
:101660000E200690002007904FF480600890400004
:10167000099080000A9040110B9040020C900020CD
:101680000D9001200E9000200F90109002A9EE48BE
:1016900019F0AAF90121EC4819F0E0F9FC200090BA
:1016A00003208DF8040000208DF807006946E74804
:1016B00018F042FB4FF44070009003208DF80400B6
:1016C00000208DF807006946E14818F035FB3F20FF
:1016D000009003208DF8040000208DF80700694673
:1016E000DC4818F029FB002011904FF44030129094
:1016F00000201390149011A818F0DCFE4FF08070B9
:10170000159001208DF858008DF859000020179091
:10171000189019900E208DF8680015A9C8484C380B
:1017200018F099FE072301220221C5484C3818F011
:1017300018FF072302220321C1484C3818F011FF7B
:10174000072303220421BE484C3818F00AFF072360
:1017500004220521BA484C3818F003FF072305225C
:101760000621B7484C3818F0FCFE0723062219461C
:10177000B3484C3818F0F5FE07231A460821B04844
:101780004C3818F0EEFE072308220921AC484C38EB
:1017900018F0E7FE072309220A21A9484C3818F05F
:1017A000E0FE07230A220B21A5484C3818F0D9FE89
:1017B00007230B220C21A2484C3818F0D2FE072335
:1017C0000C220D219E484C3818F0CBFE07230D2229
:1017D0000E219B484C3818F0C4FE07230E220F211F
:1017E00097484C3818F0BDFE012195484C3818F048
:1017F00063FF012192484C3818F053FF01219048B3
:101800004C3818F06EFE8E484C3818F006FF1BB0AE
:1018100000BD08B54FF4E06018F0B0F925208DF850
:10182000000000208DF801008DF8020001208DF8E5
:101830000300684618F0A7F908BD10B596B0044635
:101840000121102018F002FD0121084618F0BAFC11
:101850000121880518F0B6FC4FF4C060009002200A
:101860008DF8040000208DF806008DF80700022096
:101870008DF805006946754818F05EFA07220921BF
:10188000724818F0E4FA07220A21704818F0DFFACB
:1018900002940020ADF80C00ADF80E00ADF8100079
:1018A000ADF814000C20ADF8120002A96A481AF035
:1018B000FBF8012168481AF07FF94FF4A06018F096
:1018C0005DF93A208DF8180000208DF819008DF888
:1018D0001A0001208DF81B0006A818F054F95A4888
:1018E000303018F0DFFF4FF00060079000200A90C2
:1018F0005A4809900A200B905748001D0890002074
:101900000C904FF480600D9000200E900F904FF4DB
:1019100080701090400211900420129003201390C8
:1019200000201490159007A94748303019F05CF852
:101930000122402148481AF0ECF9012210214248C6
:10194000303019F018F901213F48303019F086F88D
:1019500016B010BD10B596B004460121480518F028
:1019600031FC0121480418F060FC0121082018F026
:1019700029FC6020009002208DF8040000208DF8E2
:1019800006008DF8070002208DF8050069463448EE
:1019900018F0D2F907220521314818F058FA072229
:1019A00006212F4818F053FA02940020ADF80C00DD
:1019B000ADF80E00ADF81000ADF814000C20ADF835
:1019C000120002A927481AF06FF8012125481AF0E1
:1019D000F3F84FF4A06018F0D1F811208DF818003A
:1019E00000208DF819008DF81A0001208DF81B00D9
:1019F00006A818F0C8F81C4818F054FF4FF0006013
:101A0000079040200A901948099050200B901548E3
:101A1000001D089000200C904FF480600D90002075
:101A20000E900F904FF4807010904002119004209F
:101A30001290032013900020149019E0070040003A
:101A40004C2001401A0800201064024000000240AF
:101A50000004024000080240001001403608002047
:101A6000000C024000440040A0600240040000203E
:101A7000159007A9F94818F0B7FF01228021F8480E
:101A80001AF047F901228021F5481AF042F90122A3
:101A90001021F24819F06FF80121F04818F0DEFF2C
:101AA00016B010BD10B596B004460121880418F098
:101AB000BCFB0121082018F085FB0121480518F026
:101AC00081FB4FF44070009002208DF8040000204C
:101AD0008DF806008DF8070002208DF80500694694
:101AE000E04818F029F907220821DE4818F0AFF97C
:101AF00007220921DB4818F0AAF902940020ADF86A
:101B00000C00ADF80E00ADF81000ADF814000C207C
:101B1000ADF8120002A9D44819F0C6FF0121D2483D
:101B20001AF04AF84FF4A06018F028F80C208DF84D
:101B3000180000208DF819008DF81A0001208DF88A
:101B40001B0006A818F01FF8C448783818F0AAFE41
:101B50004FF00060079000200A90C44809900A20C6
:101B60000B90C148001D089000200C904FF480603D
:101B70000D9000200E900F904FF480701090400256
:101B800011900420129003201390002014901590BF
:101B900007A9B248783818F027FF01224021B2483F
:101BA0001AF0B7F801224021AF481AF0B2F801222A
:101BB0001021AA48783818F0DEFF0121A7487838AC
:101BC00018F04CFF16B010BD10B596B004460121B8
:101BD000C80418F02AFB0121042018F0F3FA0121AF
:101BE000480518F0EFFA4FF44060009002208DF89D
:101BF000040000208DF806008DF8070002208DF803
:101C0000050069469A4818F097F808220A21984872
:101C100018F01DF908220B21954818F018F90294C4
:101C20000020ADF80C00ADF80E00ADF81000ADF8D6
:101C300014000C20ADF8120002A98E4819F034FFF0
:101C400001218C4819F0B8FF4FF4A06017F096FFFF
:101C50000D208DF8180003208DF8190001208DF853
:101C60001A008DF81B0006A817F08DFF7B4860381E
:101C700018F018FE4FF00060079000200A907E4890
:101C8000099008200B907B48001D089000200C90C4
:101C90004FF480600D9000200E900F9010904FF444
:101CA0000030119000201290032013900020149017
:101CB000159007A96948603818F096FE0122402166
:101CC0006C481AF026F8012280216A481AF021F89F
:101CD000012210216148603818F04DFF01215F4852
:101CE000603818F0BBFE16B010BD70B5634C2468A8
:101CF000642C00DB70BD624C248804EB8404614DCD
:101D00002C4460705E4C248804EB84042C44A17045
:101D10005B4C248804EB84042C44E270584C2488E7
:101D200004EB84042C442371554C2488641C6425E2
:101D300094FBF5F605FB1644514D2C804F4C24685E
:101D4000641C4E4D2C6000BFD4E701464B48006830
:101D500008B9002070474C48008800EB8000494AD1
:101D6000104402680A60007908710120F2E7014618
:101D70004248006808B9002070474348008800EBDB
:101D80008000404A104402680A60007908713E48A9
:101D90000088401C642290FBF2F302FB13003A4AD5
:101DA000108036480068401E344A10600120E3E786
:101DB0000CB56846FFF7DBFF0020344908700CBD06
:101DC00010B52D4800782C49497808442A4989786B
:101DD00008442949C978084427490979084426490B
:101DE00049790844C4B224480078022800D010BDC4
:101DF0002148C079032800D0F9E71F488079A04224
:101E000072D11D484078224908701B4880782149CA
:101E100008701948C07820490870174800791F4990
:101E20000870154840791E49087019480078012843
:101E300008D118480078022804D1084600781949CA
:101E4000086093E01248007802282FD111480078EA
:101E500001282BD100201449086087E0A0600240CF
:101E600000440040000C0240004800407708002079
:101E700000080240004C00403B02002058020020B5
:101E80005C020020860800205E0200206102002023
:101E900043020020440200204502002046020020A8
:101EA000470200206402002068020020FE480078FB
:101EB00002280AD1FD4800780A2806D1FC4800789B
:101EC000012802D1FB49086050E0F7480078022859
:101ED0000BD1F64800780A2807D1F5480078022887
:101EE00003D1F449086041E037E0EF480078022868
:101EF0000ED1EE48007802280AD1EF480378EF4867
:101F00000278EB480178E9480078FFF7EEFE2DE013
:101F1000E5480078022808D1E4480078032804D175
:101F2000E5480078E649086020E0DF4800780228AC
:101F30001CD1DE480078042818D1DD480078E1493A
:101F40000860DE480078E0490860DB480078DF4937
:101F500008600120DE49086008E0FF20D3490870CE
:101F6000D3490870D5490870D349087000BF3EE7CF
:101F700010B596B004460121480518F023F9012157
:101F8000080518F052F901210C2018F01BF9042063
:101F9000009002208DF8040000208DF806008DF8D6
:101FA000070002208DF805006946CA4817F0C4FEF4
:101FB0004FF48050009002208DF8040000208DF82E
:101FC00006008DF8070002208DF805006946C2481A
:101FD00017F0B2FE08220221BE4817F038FF08228F
:101FE0000C21BD4817F033FF4FF4A06017F0C6FD79
:101FF0002F208DF8180005208DF819008DF81A0093
:1020000001208DF81B0006A817F0BDFD0B208DF8F0
:10201000180005208DF819008DF81A0001208DF8A0
:102020001B0006A817F0AFFD02940020ADF80C00CD
:10203000ADF80E00ADF81000ADF814000C20ADF8AE
:10204000120002A9A54819F02FFD0121A34819F09B
:10205000B3FDA34818F026FC4FF000600790402025
:102060000A90A04809900A200B909C48001D0890F7
:1020700000200C904FF480600D9000200E900F9087
:1020800010904FF400301190002012900320139014
:1020900000201490159007A9914818F0A5FC9048CD
:1020A000A83818F0FFFB4FF00060079000200A905E
:1020B0008D48099005200B908848001D089000204D
:1020C0000C904FF480600D9000200E900F901090B7
:1020D0004FF4003011900020129003201390002044
:1020E0001490159007A97E48A83818F07DFC0122AD
:1020F00080217A4819F00DFE01224021774819F01D
:1021000008FE01221021764818F035FD0122102129
:102110007348A83818F02FFD0121714818F09EFC73
:1021200001216F48A83818F099FC16B010BD10B501
:1021300096B004460121202018F088F801210420DF
:1021400018F040F80121880518F03CF8C0200090F4
:1021500002208DF8040000208DF806008DF807009D
:1021600002208DF8050069465B4817F0E5FD08225E
:102170000621594817F06BFE08220721564817F030
:1021800066FE02940020ADF80C00ADF80E00ADF82C
:102190001000ADF814000C20ADF8120002A953484D
:1021A00019F082FC0121514819F006FD4FF4A0609E
:1021B00017F0E4FC39208DF8180003208DF8190081
:1021C00001208DF81A008DF81B0006A817F0DBFC23
:1021D000474818F067FB4FF02060079000200A90F6
:1021E0004448099008200B904048001D08900020AA
:1021F0000C904FF480600D9000200E900F90109086
:102200004FF4003011900020129003201390002012
:102210001490159007A9364818F0E6FB01224021DA
:10222000324819F076FD01228021304819F071FD05
:10223000012210212E4818F09EFC01212C4818F094
:102240000DFC16B010BD2B4909782A4A527811446A
:10225000284A92781144274AD2781144254A1279A3
:102260001144244A52791144C8B2224909780229FA
:1022700000D070471F49C979032900D0F9E71D49EB
:102280008979814249D11B4949781B4A1170194902
:1022900089781A4A11701749C978194A1170154975
:1022A0000979184A11702FE04302002044020020EF
:1022B000450200207C020020470200204602002048
:1022C0006C020020700200207402002078020020BE
:1022D00080020020000C0240000802400050004034
:1022E000B8600240EE0600207A0A00200014014087
:1022F00028640240840200208C0200208D0200200D
:102300008E0200208F020020FE494979FE4A11709A
:10231000FE490978FE4A117006E0FF21FD4A11705E
:10232000FA4A1170F84A117000BFA2E700B585B0F3
:102330000121082017F046FF0121880317F086FFCE
:1023400000208DF8100001208DF813000C20039060
:1023500003A9F14817F0F0FC0221032019F072FDE7
:102360000420009000208DF8040010208DF8050056
:1023700001208DF80600684618F076FC08208DF8DC
:10238000080000208DF809008DF80A0001208DF862
:102390000B0002A817F0F7FB05B000BD70B50446AE
:1023A0000D46012C0BD12946DC4819F030FC00BF4A
:1023B0004021DA4819F0DBFC0028F9D036E0032C84
:1023C0000BD12946D64819F022FC00BF4021D44841
:1023D00019F0CDFC0028F9D028E0042C0BD12946B7
:1023E000D04819F014FC00BF4021CE4819F0BFFCC2
:1023F0000028F9D01AE0052C0BD12946CA4819F05B
:1024000006FC00BF4021C84819F0B1FC0028F9D0F3
:102410000CE0062C0AD12946C44819F0F8FB00BF8D
:102420004021C24819F0A3FC0028F9D070BD2DE965
:10243000F04702240125022600274FF000084FF044
:1024400003096019304438444044B94909780844C4
:1024500000F0FF0A21460420FFF7A0FF29460420D0
:10246000FFF79CFF31460420FFF798FF3946042010
:10247000FFF794FF41460420FFF790FFAC48017836
:102480000420FFF78BFF51460420FFF787FF4946E2
:102490000420FFF783FFBDE8F0870020A5494862CC
:1024A000A5490860A5490860A54908607047002053
:1024B000A0494862A04908604FF080414862A149A4
:1024C0000860A1490860A14908609C4908609C49CE
:1024D00008609F4908609F490860704700204FF0DE
:1024E000804148629749086070470020964908601B
:1024F00096490860704710B500209749087000247D
:1025000007E061210120FFF749FF3220FEF76FFB52
:10251000641C022CF5D301208F4908707A208F4962
:10252000087010BD10B500208D490870002407E028
:1025300061210320FFF732FF3220FEF758FB641CB5
:10254000022CF5D30120864908707A20854908704D
:1025500010BD2DE9F14FAEB083A02D9000202C903E
:102560008DF888008DF860002E981D2837D2DFE89E
:1025700000F00F3740474E555C636A7178838A914B
:10258000989FA6C8C7C6C5C4C3C2C1C0BFBEBD0050
:1025900002217E4817F032FC88B100224FF400413E
:1025A0007B4817F049FC4FF40041794817F033FCA1
:1025B00004460022214677A0FEF769F80FE00122C9
:1025C000D103734817F038FC4FF40041704817F0FE
:1025D00022FC04460022214676A0FEF758F8CFE2FE
:1025E00001227C48B0F9000041427BA0FEF74FF881
:1025F000C6E202227A4801687AA0FEF748F8BFE2F4
:1026000003227B4801687BA0FEF741F8B8E2042270
:102610007D4801687DA0FEF73AF8B1E205227E48C8
:1026200001687EA0FEF733F8AAE206227F4801681F
:102630007FA0FEF72CF8A3E207228048016880A063
:10264000FEF725F89CE208228148016881A0FEF788
:102650001EF895E209228348016883A0FEF717F867
:102660008EE201212C4817F0C9FB04460A222146BC
:1026700081A0FEF70CF883E20B228148016881A05B
:10268000FEF705F87CE20C228248016882A0FDF783
:10269000FEFF75E28548018A0D2285A0FDF7F7FF50
:1026A0006EE20E228648016886A0FDF7F0FF67E221
:1026B0007E4841890F2287A0FDF7E9FF60E20121F2
:1026C000884817F09BFB4FF400511790304817F0E3
:1026D00095FB04460221834817F090FB05464FF412
:1026E00080412B4817F08AFB0646FDE041E235E2C7
:1026F00028E21CE20FE202E2FAE1EDE1E5E1DDE1D0
:10270000D5E155E184020020900200208F020020D4
:10271000910200208E020020000C024000100140B7
:1027200000480040004C00400050004000140140B0
:1027300064020020000001406C00002024080040DA
:102740008800002070000020240400407400002055
:10275000240C004078000020910000209000002010
:10276000930000209200002031313131313131317C
:10277000313131313131313131313131313130314A
:10278000313131313131313100000000000402407B
:1027900000080240524F424F5420322044414E47DD
:1027A00020434841592053414E2058414E483A2039
:1027B00020200000524F424F5420322044414E47C7
:1027C00020434841592053414E20444F3A20202075
:1027D000000000008C000020494D553A0000000028
:1027E000A40000204C617A65722070686169000065
:1027F000B800002054726F206368616E20547275B7
:102800006F633A2000000000A00000204C617A6550
:102810007220747261692000BC00002054726F2025
:102820006368616E205361753A2020009800002093
:102830004C617A657220736175200000C000002031
:1028400054726F2064617920746179203120000016
:102850009C0000204C617A6572207472756F632051
:1028600000000000C400002054726F2064617920D1
:10287000746179203220000053746172742000006A
:10288000B000002054726F20786F617920746179F4
:10289000200000007C0200206D6F64655F6368614A
:1028A000795F72756E673A20000000001A080020F8
:1028B0005175616E672074726F2032200000000035
:1028C000800200206D6F6465206E68617420686FFF
:1028D000702000005175616E675F74726F203A203E
:1028E00000000000001002400421F84817F086FAAA
:1028F0004FF400411690F54817F080FA074608217A
:10290000F24817F07BFA80464FF48041EF4817F009
:1029100075FA81461021ED4817F070FA4FF4005116
:102920001590EA4817F06AFA82460821E84817F03D
:1029300065FA4FF480511490E44817F05FFA1021C3
:102940001390E34817F05AFA4FF480611290DF4871
:1029500017F054FA83468021DC4817F04FFA4FF401
:1029600080711190D94817F049FA10901798CDE965
:102970000B65CDE90D401698CDE90798CDE90970B2
:10298000DDE913121598CDE9042A03910690DDE9DB
:102990001110CDE9001B0290CEA2282122A8109B85
:1029A0001BF0E0FB102222A9D3A0FDF7C3FEE7E055
:1029B0008021D24817F022FA04460121CF4817F0AF
:1029C0001DFA05464021CD4817F018FA06464FF487
:1029D0000041BF4817F012FA07464FF48051C8482B
:1029E00017F00CFA80464FF48061C44817F006FADD
:1029F00081464FF40061C24817F000FA4FF40061BD
:102A00001790BE4817F0FAF982464FF48061B0483B
:102A100017F0F4F983464FF48051B84817F0EEF9F7
:102A20004FF400611690AA4817F0E8F94FF40051EE
:102A30001590B24817F0E2F94FF480411490A44881
:102A400017F0DCF94FF480411390AC4817F0D6F939
:102A50004FF480711290AA4817F0D0F94FF400415A
:102A60001190A64817F0CAF9CDE90B76CDE90D54BF
:102A700010901798CDE907A0CDE90998DDE9141267
:102A80001698CDE9050BCDE90312DDE91112139873
:102A9000CDE9001202908FA2282122A8109B1BF0E2
:102AA00061FB112222A997A0FDF744FE68E01222E3
:102AB0009648016896A0FDF7EAFD61E01322994867
:102AC000016899A0FDF7E3FD5AE0142299480168D6
:102AD00099A0FDF7DCFD53E04FF400617B4817F04F
:102AE0008DF904461522214697A0FDF7D0FD47E059
:102AF00016229948017899A0FDF7C9FD40E04FF4EE
:102B00000071724817F07AF904461722214697A0FF
:102B1000FDF7BDFD34E04FF40071984817F06EF9F1
:102B200004461822214696A0FDF7B1FD28E0202199
:102B3000664817F063F904461922214694A0FDF770
:102B4000A6FD1DE04FF480718C4817F057F904463C
:102B50001A22214692A0FDF79AFD11E040215B4820
:102B600017F04CF904461B22214691A0FDF78FFD7A
:102B700006E09348C17C1C2292A0FDF788FD00BFAF
:102B800000BF2FB0BDE8F08F10B50121914817F0BC
:102B900065FF10BD01B5904800680099884203DDCB
:102BA00000208D49086004E08B480068401C8A4979
:102BB000086089480068FFF7CCFC08BD01B59DF8A6
:102BC0000000052801DA002008BD9DF80000FBE7A1
:102BD00030B504461D4624B980480078784BD8703B
:102BE00011E0002C07DDE0B2FFF7E8FF744BD8706E
:102BF0000020987007E06342D8B2FFF7DFFF704B08
:102C0000D8700120987021B9744800786C4BD87145
:102C100011E0002907DDC8B2FFF7D0FF684BD8717B
:102C20000120987107E04B42D8B2FFF7C7FF644B11
:102C3000D8710020987122B968480078604BD8722A
:102C400011E0002A07DDD0B2FFF7B8FF5C4BD87265
:102C50000120987207E05342D8B2FFF7AFFF584BFC
:102C6000D8720020987225B95C480078544BD8730C
:102C700011E0002D07DDE8B2FFF7A0FF504BD8733D
:102C80000120987307E06B42D8B2FFF797FF4C4BD7
:102C9000D8730020987330BD494AD070D071D0727B
:102CA000D07370474648C07803280DDA4448C0798D
:102CB000032809DA4248C07A032805DA4048C07B75
:102CC000032801DA012070478AE00000001002406A
:102CD000000C024025642564256425642564256470
:102CE000256425642564256425642564256425649C
:102CF0002564256400000000493A000000040240F9
:102D000000000240696E323A0000000058020020C4
:102D1000636F756E745F646174615F756172743442
:102D20002000000064020020626C6F636B5F7068BB
:102D3000613A2000B80200206E6861795F64656EB8
:102D40005F6C616E5F31200043425F4E616E675F72
:102D50007472616920000000C4020020726F626F0B
:102D6000745F706F736974696F6E000043425F4EE9
:102D7000616E675F706861690000000000080240D2
:102D8000636865636B5F686F705F313A00000000D5
:102D9000636865636B5F686F705F323A20000000A4
:102DA000636865636B5F686F705F333A2000000093
:102DB000636865636B5F686F705F343A2000000082
:102DC000040000206D6F725F6C6966745F726561EC
:102DD00072000000A0600240840000200C0300206C
:102DE000002070470120FE4908607047FD480068D8
:102DF00047F23051884201D0012070470020FCE7A3
:102E000010B5FFF778FB10BDF748B0F9000040425D
:102E10007047B5EEC00AF1EE10FA09D2F348D0EDD2
:102E2000000A70EE600AFDEEE00A10EE900A7047AC
:102E3000EE48D0ED000A70EE200AFDEEE00A10EE3A
:102E4000900AF4E710B52DED0A8B044624B99FEDE6
:102E5000E80ABDEC0A8B10BD002C25DAE5480068B5
:102E60001AF0D5FF41EC190B20461AF0D0FF41ECC7
:102E70001C0B9FEDE10B53EC102B1AF0E7FE41EC1D
:102E80001B0B9FEDDF0B53EC102B1AF0D9FE41EC1E
:102E90001A0B53EC192B1AF04BFF41EC180B1BF0DB
:102EA00011F800EE100AD4E7D24800681AF0AFFF1C
:102EB00041EC190B20461AF0AAFF41EC1C0B9FEDC8
:102EC000CE0B53EC102B1AF0C1FE41EC1B0B9FED07
:102ED000CC0B53EC102B1AF012FE41EC1A0B53ECF6
:102EE000192B1AF025FF41EC180B1AF0EBFF00EE3E
:102EF000100AAEE7F0EE400AF5EEC00AF1EE10FA65
:102F000002DBB0EE600A7047B1EE600AFBE70146F3
:102F1000002901DB084670474842FCE70146BA48F1
:102F2000D0ED000AF1EE600AB848D0ED001A80EE4C
:102F3000A11A00EE901AF8EEE01AB348D0ED000A9C
:102F400041EE210AB0EE600AFDEEC00A10EE900AD2
:102F50007047B0EE402ADFEDAE2AB0EE620AB5EE61
:102F6000C02AF1EE10FA03D2F1EE422AB0EE622A44
:102F7000F5EEC00AF1EE10FA03D2F1EE602AF0EE9F
:102F8000620AB5EEC01AF1EE10FA03D2F1EE412A50
:102F9000B0EE621AF5EEC01AF1EE10FA03D2F1EEBD
:102FA000612AF0EE621AB4EEC02AF1EE10FA01DDE9
:102FB000B0EE420AF4EEC00AF1EE10FA01DDB0EE16
:102FC000600AB4EEC01AF1EE10FA01DDB0EE410A6B
:102FD000F4EEC01AF1EE10FA01DDB0EE610A7047AE
:102FE0008448006870478B480068704710B52DED25
:102FF000028BB0EE408A7B48006847F2305188422D
:103000000ED19FED7B0A844880ED000A834880ED55
:10301000000A834880ED000A824880ED000A4AE0F9
:103020008148006881490968401A6E490968081A90
:1030300000EE100AB8EEC00AF0EE408A7C48D0EDEF
:10304000000A88EEA00A7B48D0ED000A30EE200A84
:103050007948D0ED000A20EE200AF0EE408AB0EE6A
:10306000680A1BF0E5FBF0EE000A20EE200A6A4831
:1030700080ED000AB0EE680A1BF032FBF0EE000AA9
:1030800020EE200A654880ED000A634890ED000AB2
:103090006A48D0ED000A30EE200A624880ED000A4E
:1030A0005E4890ED000A6548D0ED000A30EE600AF7
:1030B0005B4880ED000AB5EEC08AF1EE10FA73D0DD
:1030C0005F480068052820D2DFE800F003203A546A
:1030D0006F00544890ED000A30EE080A80ED000AB7
:1030E0004F4890ED000A30EE480A80ED000A4B4848
:1030F00090ED000A30EE080A80ED000A464890ED97
:10310000000A30EE480A80ED000A68E0444890ED7D
:10311000000A30EE480A80ED000A404890ED000AAF
:1031200030EE080A80ED000A3B4890ED000A454861
:10313000D0ED000A08EE600A374880ED000A4EE044
:10314000384890ED000A30EE080A80ED000A334856
:1031500090ED000A3B48D0ED000A08EE200A2F4807
:1031600080ED000A2C4890ED000A30EE480A80ED10
:10317000000A34E02B4890ED000A30EE080A80ED9A
:10318000000A274890ED000A2E48D0ED000A08EE0C
:10319000600A234880ED000A1F4890ED000A30EED7
:1031A000480A80ED000A1AE04FE01E4890ED000A40
:1031B0002448D0ED000A08EE200A1A4880ED000AE3
:1031C000174890ED000A30EE480A80ED000A1348D7
:1031D00090ED000A30EE080A80ED000A00BF33E0EF
:1031E00070030020340300208C000020CC0200205B
:1031F00000000000200300209A9999999999B93FFD
:10320000333333333333D33F040300200803002028
:103210006F12833A4C0300206C03002068030020E7
:1032200064030020600300205403002040030020BA
:10323000E4020020F00200201403002048030020D4
:103240001C030020D402002000BFFE48D0ED001A6D
:10325000FD4890ED001AFD48D0ED000AFC4890EDC5
:10326000000AFFF776FEFB48D0ED000AF8EEE00A10
:1032700080EE801ABDEEC10AF74880ED000AF748DB
:103280000068F5490968884203DDF3480068F3499E
:1032900008600120F2490860BDEC028B10BD10B53A
:1032A00004460020EF490860EF480460FCB90020A4
:1032B000EA4908601FED320AEC4880ED000A47F247
:1032C0003050EB490860EB4908601FED370AEA48C7
:1032D00080ED000A0020E9490860E9490860E949F1
:1032E0000860E94908601FED3E0AFFF77FFE10BD48
:1032F00010B5E14890ED000AB5EEC00AF1EE10FA03
:1033000005D1DE48006810B9DD48006890B11FEDB6
:10331000480AD94880ED000A0020D8490860D849F9
:103320000860DA480068DA490860D34890ED000A7E
:10333000FFF75CFE10BDD748C0ED000AD64880ED0F
:10334000000A704770B52DED028B05460C46B0EEB5
:10335000408AC7480068A8420BD1C2480068A04212
:1033600007D1C24890ED000AB4EE480AF1EE10FA17
:1033700018D0BC480460B948006810B90520B749A6
:103380000860C2480068C2490860B84880ED008AF9
:10339000B74805600020C1490860B74890ED000AB1
:1033A000FFF724FEBDEC028B70BD70B52DED028BD6
:1033B0000446B0EE408A0D46B1480068A0420BD1E9
:1033C000AD4890ED000AB4EE480AF1EE10FA03D1D0
:1033D000AA480068A8423AD0A548006847F2305190
:1033E000884225D128209F4908609C48006810B970
:1033F0000A209A49086047F23050844218DA0120C6
:10340000A0490860B5EEC08AF1EE10FA03DD9F48CE
:103410000068A04208DCB5EEC08AF1EE10FA07D2CF
:103420009A480068A04203DAB1EE480AB0EE408A3A
:1034300093480460914805608F4880ED008A002021
:10344000964908608C4890ED000AFFF7CFFDBDEC6F
:10345000028B70BD10B52DED028BB0EE408A044694
:103460002146B0EE480A47F23050FFF79EFFBDEC10
:10347000028B10BD70B504460D461FEDA30A294608
:103480002046FFF75FFF70BD70B52DED088BF0EEA5
:10349000408A0446B0EE608AB0EE419A754890EDDD
:1034A000000AB8EEC00AB4EE680AF1EE10FA0DD1C7
:1034B0006C480068A04209D1714890ED000AB8EE4E
:1034C000C00AB4EE480AF1EE10FA5ED0BDEEE80A8A
:1034D000684880ED000A6D4991ED000AB8EEC00A17
:1034E00038EEC00ABDEEC00A10EE100A1FEDC00A89
:1034F0002146FFF727FF654890ED000AB8EEC00AA5
:1035000038EE400ABDEEC00A10EE105A002D01DB65
:10351000284600E06842642814DD5C4890ED000A0B
:10352000B8EEC00AB4EEC08AF1EE10FA02DDB0EED9
:10353000490A01E0B1EE490A10EE101A08461AF0E5
:1035400096FC13E0514890ED000AB8EEC00A38EE40
:10355000400A10EE101A08461AF089FC41EC1B0BC9
:103560009FED4F0B53EC102B1AF070FB41EC1A0B34
:103570001AF0A8FC09EE900A0021B0EE690AFDEEEF
:10358000C80A10EE900AFFF710FFBDEC088B70BD63
:1035900010B53C48006801283DDD394909683B4ABF
:1035A0001268881AFFF7B3FC06280CDA3548016860
:1035B0000068401C334A1060B1F5FA7F2BDD002013
:1035C000FFF76DFE10BD2F480068FA2808DD0520C2
:1035D0002449086021490860FB202A49086004E06A
:1035E0000520204908601D490860284800682449D2
:1035F0000968884205DDBFEE000A1F4880ED000A19
:1036000004E0B7EE000A1C4880ED000A1A4890ED6D
:10361000000AFFF7EBFC00BFD4E710B52DED028BDD
:10362000124890ED000AB5EEC00AF1EE10FA08D18A
:103630000A48006828B11248006847F230518842B1
:1036400035DB31E06C0300206803002064030020B8
:1036500060030020C802002028030020200300206F
:1036600018030020240300202C030020480300201E
:103670003403002038030020440300201C030020F2
:103680003C0300204C030020700300205403002062
:103690004003002004030020080300203003002022
:1036A0007B14AE47E17A743FBDEC028B10BDFD4840
:1036B00090ED000AB5EEC00AF1EE10FA7ED0FA489D
:1036C000006847F23051884279D1F64890ED000AFF
:1036D000B5EEC00AF1EE10FA08DDF4480068F449CE
:1036E0000968401AF3490968884210DBED4890EDFB
:1036F000000AB5EEC00AF1EE10FA7CD2EB48006881
:10370000EB4909680844EB490968884273DDEA48D7
:10371000006803285EDAE5490968E64A1268881AF3
:10372000FFF7F5FB0A2818DAE0480068E34908606B
:103730000020E3490860E34908609FEDE30AD948A7
:1037400080ED000A0220DC490860D64890ED000AAE
:10375000FFF74CFCBDEC028B10BDD4480068D54986
:103760000968884237DDD64890ED000AB8EEC00AF5
:10377000CC48D0ED000A60EE200ACD4890ED000A5A
:10378000B8EEC00AC0EE801AB0EE611AB0EE410A7F
:10379000FFF7B0FBC5490968C64A1268881AFFF7E7
:1037A000B6FB00EE900AB8EEE01AC848D0ED000A69
:1037B00040EE010AC24890ED000A01E0AAE047E0AD
:1037C000B8EEC00A80EE801AB0EE418AB0EE480A28
:1037D000FFF70CFC9DE0BA4890ED000AB8EEC00A75
:1037E000B048D0ED000A60EE200AB14890ED000A22
:1037F000B8EEC00A00E025E0C0EE801AB0EE611A13
:10380000B0EE410AFFF776FBA8490968A94A126899
:10381000881AFFF77CFB00EE900AB8EEE01AAB487E
:10382000D0ED000A50EE410AA54890ED000AB8EE2E
:10383000C00A80EE801AB0EE418AB0EE480AFFF767
:10384000D5FB66E0974890ED000AFFF7CFFB60E0FC
:10385000944890ED000AB5EEC00AF1EE10FA1FDDB3
:10386000924890ED000AB8EEC00A9548D0ED000AE3
:10387000F8EEE00A8B4890ED001A00EEC10A944879
:10388000D0ED000AF8EEE00A70EE600A894890ED8B
:10389000000AB8EEC00AF4EEC00AF1EE10FA27D31F
:1038A000804890ED000AB5EEC00AF1EE10FA2BD276
:1038B0007E4890ED000AB8EEC00A8148D0ED000ABB
:1038C000F8EEE00A774890ED001A00EEC10A804851
:1038D000D0ED000AF8EEE00A70EE200A754890ED8F
:1038E000000AB8EEC00AF4EEC00AF1EE10FA0BDDE1
:1038F0006E4909686F4A1268881AFFF7A3FAB0EE9A
:10390000408AFFF773FB04E0664890ED000AFFF77A
:103910006DFB1FE76F490968664A1268881AFFF74E
:1039200091FAB0EE408AFFF761FB00BF12E700B5E5
:1039300061480068022815DA9FED630A664880ED49
:10394000000A9FED610A574880ED000A0020634994
:10395000086047F23050544908606149086000200F
:10396000524908605F480068401C5E4908605E4933
:103970000968884204DA5D480068FFF78DF90EE0B7
:1039800059480068574908605948006820B15748AD
:103990000068FFF781F902E00020FFF77DF900BD24
:1039A000504A1268521C4F4B1A60824207DD444A4B
:1039B00012680A44424B1A6000224A4B1A60704750
:1039C0002DE9F041FFF720FA3A490860FFF7E0FDE2
:1039D0003C480068002821DD3948006839490968F9
:1039E00088422AD0364800683649096888420EDA8B
:1039F000334800683F49096888421EDA3048006849
:103A0000FFF78CFA04460121FFF7CAFF15E04FF0DB
:103A1000FF3139480068FFF7C3FF0EE0284800680F
:103A2000002806DD4FF0FF3134480068FFF7B8FF8B
:103A300003E0FFF77CFFBDE8F081314800681D49D5
:103A40000968884205D0FFF7E8FD1A4800682C494C
:103A500008602C48006820B31948D0ED000AF8EE41
:103A6000E00A294890ED001A60EE810AB0EE600A83
:103A7000FFF7CFF904461248D0ED000AF8EEE00A4D
:103A8000224890ED001A60EE810AB0EE600AFFF75E
:103A9000C0F905460A48D0ED000AF8EEE00A1C48D5
:103AA00038E054E044030020340300203C030020AD
:103AB00000030020540300204C030020500300208A
:103AC000200300202403002000000000E00200206A
:103AD000FC02002040030020480300201C030020BB
:103AE0003803002030030020100300200C030020C6
:103AF00070030020280300205C0300202C0300201A
:103B000058030020180300206C03002068030020E5
:103B10006403002090ED001A60EE810AB0EE600AA6
:103B2000FFF777F90646FE48D0ED000AF8EEE00A06
:103B3000FC4890ED001A60EE810AB0EE600AFFF7D3
:103B400068F9074623462A463146FFF741F800BF89
:103B500071E7F54801680068401CF34A1060462987
:103B600007D2F248408BF24909680844F0490860DE
:103B70000BE0EF4800684621B0FBF1F0ED4908602A
:103B80000020E9490860EA490860EB4801680068DC
:103B9000401CE94A1060462907D2E448008BE749F7
:103BA00009680844E54908600BE0E44800684621DC
:103BB000B0FBF1F0E24908600020DF490860DF490E
:103BC0000860E04801680068401CDE4A1060462931
:103BD00007D2D648808ADC4909680844DA49086077
:103BE0000BE0D94800684621B0FBF1F0D7490860E6
:103BF0000020D4490860D4490860D54801680068AD
:103C0000401CD34A1060462907D2C848C08AD1490F
:103C100009680844CF4908600BE0CE480068462197
:103C2000B0FBF1F0CC4908600020C9490860C949DF
:103C30000860CA4801680068401CC84A1060322900
:103C400007D2BA484089C64909680844C44908608F
:103C50000BE0C34800683221B0FBF1F0C1490860B5
:103C60000020BE490860BE490860BF48016800687E
:103C7000401CBD4A1060322907D2AC48C088BB49FD
:103C800009680844B94908600BE0B8480068322167
:103C9000B0FBF1F0B64908600020B3490860B349B1
:103CA0000860B44801680068401CB24A10603229BC
:103CB00007D29E488088B04909680844AE49086028
:103CC0000BE0AD4800683221B0FBF1F0AB49086071
:103CD0000020A8490860A8490860A9480168006850
:103CE000401CA74A1060462907D290480089A54980
:103CF00009680844A34908600BE0A248006846210F
:103D0000B0FBF1F0A049086000209D4908609D4982
:103D100008609E4801680068401C9C4A1060462963
:103D200007D2824800889A4909680844984908607F
:103D30000BE0974800684621B0FBF1F09549086018
:103D40000020924908609249086093480168006821
:103D5000401C914A1060462907D2744840888F4918
:103D6000096808448D4908600BE08C4800684621CA
:103D7000B0FBF1F08A490860002087490860874954
:103D800008607047874800687C490968401A02EE5D
:103D9000100AB8EEC22AB0EE420A834890ED002A1B
:103DA00022EE002AF0EE421A7E4800687F49096838
:103DB000884203DA7D4800687A49086079480068DB
:103DC0007B490968884203DD7948006875490860C5
:103DD000BDEEC02A12EE100A002801DB014600E009
:103DE0004142042971DD734890ED002A32EE002A29
:103DF00080ED002A90ED002ADFED6F2AB4EEE22A72
:103E0000F1EE10FA03DD9FED6C2A80ED002A69487F
:103E100090ED002ADFED692AB4EEE22AF1EE10FA05
:103E200003D29FED662A80ED002A654890ED002AB6
:103E30006048D0ED002A62EE220A624890ED002A26
:103E400030EE422A6048D0ED002A22EE221A5D4868
:103E500080ED000A31EEA02A32EE012A5B4880EDA7
:103E6000002AB5EEC00AF1EE10FA03D2012058493B
:103E7000887502E0002056498875544991ED002A62
:103E8000BDEEC22A12EE100A002801DB014600E056
:103E9000414289B201EB41014E4A1160104600686F
:103EA0004D490968884203DD4B48006811460860A7
:103EB00048480068142802DA14204649086045483A
:103EC00000784349C8750FE0FFE79FED442A394861
:103ED00080ED002A9FED412A3A4880ED002A022019
:103EE0003B49C8750020887570473D4800682049E7
:103EF0000968401A02EE100AB8EEC22AB0EE420A71
:103F0000384890ED002A22EE002AF0EE421A34489A
:103F100000683549096888426BDA3348006866E012
:103F20002003002060030020B80400201A080020AD
:103F3000BC04002098000020C0040020C40400201D
:103F40009C000020C8040020CC040020A400002015
:103F5000D0040020D4040020A0000020D8040020B9
:103F6000DC040020A8000020F0040020F40400205D
:103F7000BC000020F8040020FC040020B800002051
:103F80000005002004050020B000002018050020D6
:103F90001C050020C0000020200500202405002072
:103FA000C4000020E403002040040020DC030020C3
:103FB000E00300204C0400200000FA430000FAC394
:103FC0004404002050040020480400205404002031
:103FD00004000020740400201C04002000000000E5
:103FE000F003002058040020E803002001E0F94914
:103FF0000860F8480068F8490968884203DDF64817
:104000000068F4490860BDEEC02A12EE100A0028CC
:1040100001DB014600E04142042971DDEF4890EDEB
:10402000002A32EE002A80ED002A90ED002A5FED92
:104030001E2AB4EEE22AF1EE10FA03DD1FED222A69
:1040400080ED002AE54890ED002A5FED242AB4EEC9
:10405000E22AF1EE10FA03D21FED282A80ED002AA1
:10406000DF4890ED002ADD48D0ED002A62EE220AFA
:10407000DC4890ED002A30EE422ADB48D0ED002AE1
:1040800022EE221AD74880ED000A31EEA02A32EE45
:10409000012AD64880ED002AB5EEC00AF1EE10FAEA
:1040A00003D20020D249887402E00120D0498874EC
:1040B000CE4991ED002ABDEEC22A12EE100A002868
:1040C00001DB014600E0414289B201EB4101C94AEE
:1040D000116010460068C8490968884203DDC64877
:1040E000006811460860C3480068142802DA1420EA
:1040F000C0490860BF480078BD49C8740FE0FFE7B9
:104100001FED4A2AB54880ED002A1FED4C2AB5481C
:1041100080ED002A0220B649C874012088747047D7
:10412000B54A1060B54A11607047B5480068B54996
:104130000968884203DAB3480068B1490860B048AA
:104140000068B1490968884203DDAF480068AC499E
:104150000860AE490968AA4A1268881A002801DB7B
:10416000014600E04142042931DDA8480068A44925
:104170000968884203DD00209D49887602E001201D
:104180009B498876A14909689D4A1268881A0028C7
:1041900001DB014600E0414201EB81018900954AC3
:1041A0001160104600689A490968884203DD984802
:1041B0000068114608608F480068642802DA6420AD
:1041C0008C4908608B4800788949C87602E0002055
:1041D0008749C87670478F4800688F4909688842C8
:1041E00003DA8D4800688B4908608A4800688B496B
:1041F0000968884203DD8948006886490860884963
:104200000968844A1268881A002801DB014600E028
:104210004142042934DD824800687E4909688842A9
:1042200004DD0020724981F82A0003E00120704972
:1042300081F82A007A490968764A1268881A0028A3
:1042400001DB014600E0414201EB81018900694A3E
:1042500011601046006873490968884203DD71489F
:1042600000681146086063480068642802DA642028
:10427000604908605F4800785D4981F82B0003E0E1
:1042800000205B4981F82B00704710B56648006834
:1042900066490968884203DA644800686249086030
:1042A0006148006862490968884203DD6048006827
:1042B0005D4908605F4B1B685B4C24681A1B002A31
:1042C00001DB134600E05342022B4CDD4F4B1B68D1
:1042D000594C2468191B002901DB0B4600E04B42B6
:1042E000142B40DA4E4B1B68544C2468181B0028D2
:1042F00001DB034600E04342142B34DA4D480068EA
:1043000049490968884204DD0120394981F82600BD
:1043100003E00020364981F8260046490968424AF0
:104320001268881A002801DB014600E04142314A48
:1043300011601046006842490968884203DD404820
:104340000068114608602B480068322802DA3220E3
:104350002849086027480078254981F8270000206F
:104360003849086006E00020214981F82700012033
:104370003449086010BD32201F490860342032499A
:10438000086070476E201C49086070202E49086044
:104390007047D22018490860D4202B490860704724
:1043A000F52015490860F72027490860704700B5D7
:1043B0000246FFF7EEFF114802600648026000BDAA
:1043C00000B50246FFF7DEFF0C48026001480260BC
:1043D00000BD0000F0030020EC0300206404002076
:1043E0005C04002068040020600400206C040020AD
:1043F000040000207404002018040020E4030020BE
:10440000080400200004002004040020C000002054
:1044100024040020140400200C04002010040020B8
:10442000C400002028040020FC030020F403002026
:10443000F8030020B0000020AC010020B0010020F3
:1044400020040020D80300201C04002000B50246F0
:10445000FFF7A6FFF8480260F848026000BD70B59B
:10446000FA20F7490860F7480068F7490860FA2021
:10447000F6490860F6480068F64908600020F649E9
:10448000086035E006E0012018F0B8FEFCF7EAFA13
:1044900000B927E0F14B1B68EB4C2468191B00297D
:1044A00001DB0B4600E04B42E64C2468EC4D2D68E6
:1044B000621B02EBD2746410A342E4DCE44B1B6881
:1044C000E84C24681B1B032493FBF4F4E64B1B68A5
:1044D000E04D2D68581B002801DB034600E04342F5
:1044E0009C42D0DB00BFDC480068401CDA49086011
:1044F000D94800683228C5DB70BD10B5DB480068BC
:10450000002852D1DA48006800284ED1D948006806
:1045100000284AD1D8480068002846D124E04FF44A
:104520008051D64815F06AFC70B90121D44815F0C5
:1045300065FC48B99FEDD31ADFEDD30A0E209FED3D
:10454000D30AFEF7A1FF08E09FEDCE1ADFEDCE0AF9
:104550000A209FEDCF0AFEF797FF012018F04EFECC
:10456000FCF780FA00B906E04FF48071C34815F0FB
:1045700045FC0028D3D000BF9FEDC21ADFEDC20A70
:104580000A209FEDC40AFEF77FFF06E0012018F025
:1045900035FEFCF767FA00B906E04FF48051B748E2
:1045A00015F02CFC0028F1D000E1B048006801288B
:1045B00051D1AF48006800284DD1AE480068D0BB4B
:1045C000AD480068B8BB24E04FF48051AB4815F00B
:1045D00015FC70B90121AA4815F010FC48B99FEDEF
:1045E000A91ADFEDA90A0E209FEDA80AFEF74CFFDD
:1045F00008E09FEDA41ADFEDA40A0A209FEDA40AAB
:10460000FEF742FF012018F0F9FDFCF72BFA00B984
:1046100006E04FF48071994815F0F0FB0028D3D0E4
:1046200000BF9FED981ADFED980A0A209FED990AC6
:10463000FEF72AFF07E00EE0012018F0DFFDFCF78F
:1046400011FA00B906E04FF480518C4815F0D6FB02
:104650000028F1D0AAE085480068012850D184489C
:10466000006801284CD183480068D0BB82480068AC
:10467000B8BB24E00421884815F0C0FB78B94FF49A
:1046800000617E4815F0BAFB48B99FED7E1ADFED58
:104690007E0A0E209FED810AFEF7F6FE08E09FEDF0
:1046A000791ADFED790A0A209FED790AFEF7ECFE10
:1046B000012018F0A3FDFCF7D5F900B906E04FF48E
:1046C00080716E4815F09AFB0028D3D000BF9FED93
:1046D0006D1ADFED6D0A0A209FED710AFEF7D4FE18
:1046E00007E00DE0012018F089FDFCF7BBF900B9E7
:1046F00005E00421684815F081FB0028F2D055E060
:104700005A480068012851D15948006801284DD104
:1047100058480068012849D157480068B8BB24E0D0
:1047200004215D4815F06AFB78B94FF400615348E5
:1047300015F064FB48B99FED531ADFED530A0E20C4
:104740009FED560AFEF7A0FE08E09FED4E1ADFED42
:104750004E0A0A209FED4E0AFEF796FE012018F041
:104760004DFDFCF77FF900B906E04FF48071434836
:1047700015F044FB0028D3D000BF9FED421ADFEDB7
:10478000420A0A209FED460AFEF77EFE07E00DE092
:10479000012018F033FDFCF765F900B905E00421AC
:1047A0003D4815F02BFB0028F2D000BF0020FEF79B
:1047B00076FD10BD2DE9F04105460E46FFF7F0FDF0
:1047C00038480068FA301C49086037480068FA30F9
:1047D0001A490860002415E006E0012018F00EFDDB
:1047E000FCF740F900B90BE030490968134A126838
:1047F000881A002801DB014600E041420F29ECDC69
:1048000000BF641C322CE7DB9FED291A00EE106A12
:10481000F8EEC00A0E2000EE105AB8EEC00AFEF7FD
:1048200033FE002455E045E0012018F0E7FCFCF7DA
:1048300019F900B94BE03DE0E4030020F00300204B
:1048400024040020AC0100200804002028040020DB
:10485000B001002014040020A0030020C0000020AC
:10486000000400200C040020C4000020940200205A
:10487000980200209C020020A002002000000240BC
:10488000000402403333333F00006144008022C4FF
:10489000000061C4000000000010024000409CC401
:1048A0000000E144DC030020E8030020BC000020FD
:1048B000CDCC4C3F4FF48071F64815F09FFA01289B
:1048C000B2D08021F44815F099FA0028ACD000BF8E
:1048D000641C962CA7DB0020FEF7E1FCE620EF49E4
:1048E0000860EF480068401DEE490860002415E0AC
:1048F00006E0012018F082FCFCF7B4F800B90BE0E8
:10490000E9490968E74A1268881A002801DB01466C
:1049100000E041420529ECDC00BF641C322CE7DBDF
:104920004FF42F7018F06AFC1FED2A1A00EE106A7F
:10493000F8EEC00A0E2000EE105AB8EEC00AFEF7DC
:10494000A3FD40F2A46018F059FC002415E006E035
:10495000012018F053FCFCF785F800B90BE00121A9
:10496000CD4815F04BFA012805D1C102C94815F010
:1049700045FA0128ECD000BF641CB4F57A7FE6DB71
:1049800040F2DC5018F03AFC9620C4490860C44854
:1049900000681E30C34908601FED3B1A00EE106A24
:1049A000F8EEC00A0E2000EE105AB8EEC00AFEF76C
:1049B0006BFD00240FE006E0022018F01FFCFCF75E
:1049C00051F800B905E00121B84815F017FA01289F
:1049D000F2D000BF641C40F226208442EBDB1FEDC6
:1049E0004C1A00EE106AF8EEC00A0E2000EE105AC3
:1049F000B8EEC00AFEF748FD002410E006E00120F2
:104A000018F0FCFBFCF72EF800B906E04FF400515B
:104A1000A64815F0F3F90128F1D000BF641CB4F5E5
:104A20007A7FEBDB0020FEF73AFCF020A04908601B
:104A3000A0480068C01CA04908604FF47A7018F0C4
:104A4000DDFBB4209549086095480068143095490D
:104A50000860002415E006E0012018F0CFFBFCF709
:104A600001F800B90BE095490968934A1268881A61
:104A7000002801DB014600E041420429ECDC00BFD4
:104A8000641CFA2CE7DB4FF47A7018F0B7FB9FED4B
:104A90008C1A00EE106AF8EEC00A0C2000EE105AD4
:104AA000B8EEC00AFEF7F0FC002415E006E0012095
:104AB00018F0A4FBFBF7D6FF00B90BE004217B48FC
:104AC00015F09CF9012805D10103724815F096F9FB
:104AD0000128ECD000BF641CFA2CE7DBFDF7E7FCF3
:104AE00006E0052018F08AFBFBF7BCFF00B914E0D4
:104AF000FBF7EEFF8046FBF7BEFF071E01DB3846E3
:104B000000E07842B8F1000F01DB414601E0C8F156
:104B100000010844B0F5C87FE3DB00BFFFF739FCB4
:104B20004FF48270644908605E4908609FED641A22
:104B300000EE106AF8EEC00A0C2000EE105AB8EE33
:104B4000C00AFEF7A1FC00240FE006E0012018F0E7
:104B500055FBFBF787FF00B905E01021534815F01E
:104B60004DF90128F2D000BF641C642CEDDB00205D
:104B7000FEF795FBBDE8F08170B5524805685248D4
:104B800006684FF461714842FFF714FEFFF708FC16
:104B900048480068FA304849086041480068FA30DF
:104BA0004049086049480068D0BB1FEDCA1A5FED54
:104BB000CA0A12201FEDCA0AFEF766FC002044490B
:104BC000086026E006E0012018F018FBFBF74AFF1A
:104BD00000B918E04FF480712E4815F00FF9012844
:104BE000F1D080212C4815F009F90028EBD02E488F
:104BF00000682C490968441A002C01DB204600E0BB
:104C000060420A28DFDC00BF31480068401C3049A0
:104C100008602F48006840F20E618842D2DB75E1DF
:104C2000FFE72A4800680128F9D140F23520FFF754
:104C3000BEFB28480068002876D12748006840BBA2
:104C40002648006828BB2648006810BB0020204981
:104C5000086062E049E023480068A84209DD1FEDD2
:104C6000F71A5FEDF70A0E201FEDF80AFEF70CFCAD
:104C700008E01FEDFC1A5FEDFC0A0A201FEDFC0A9C
:104C8000FEF702FC012018F0B9FAFBF7EBFE58BB67
:104C90003DE049E00000024000040240180400200A
:104CA000E8030020F0030020BC00002000100240B8
:104CB0001C040020DC030020E4030020B8000020D6
:104CC0006666663FA0010020A8010020E8000020E1
:104CD000A003002094020020980200209C020020E3
:104CE000A0020020A0000020FFE78021FA4815F074
:104CF00085F80028AFD0F9480068F9490968441AD6
:104D0000002C01DB204600E060420A28A3DC00BF43
:104D1000F4480068401CF3490860F248006840F21B
:104D20000E61884296DBF1E0EF48006801284BD124
:104D3000EE480068B8BBEE480068A0BBED480068CC
:104D400088BB0020E749086037E01DE0EA480068BA
:104D5000A84209DD9FEDE91ADFEDE90A0E209FED7B
:104D6000E90AFEF791FB08E09FEDE41ADFEDE40AA3
:104D70000A209FEDE50AFEF787FB012018F03EFAB6
:104D8000FBF770FE00B912E08021D34815F036F829
:104D90000028DBD0D1480068D1490968441A002CAA
:104DA00002DB204601E00FE060420A28CEDC00BFB3
:104DB000CC480068401CCB490860CA48006840F2F3
:104DC0000E618842C1DBA1E0C748006801284CD1D0
:104DD000C6480068012848D1C5480068A0BBC5483E
:104DE000006888BB0020BF49086037E01DE0C74865
:104DF0000068B04209DD9FEDC11ADFEDC10A0E2047
:104E00009FEDC30AFEF740FB08E09FEDBC1ADFED03
:104E1000BC0A0A209FEDBC0AFEF736FB012018F001
:104E2000EDF9FBF71FFE00B912E08021AA4814F04B
:104E3000E5FF0028DBD0A9480068A9490968441AA1
:104E4000002C02DB204601E00FE060420A28CEDCA5
:104E500000BFA4480068401CA2490860A14800683F
:104E600040F20E618842C1DB50E09F480068012893
:104E70004CD19E480068012848D19D48006801280F
:104E800044D19C48006888BB00209649086037E000
:104E90001DE09E480068B04209DD9FED981ADFEDE5
:104EA000980A0E209FED9A0AFEF7EEFA08E09FEDB1
:104EB000931ADFED930A0A209FED930AFEF7E4FAB6
:104EC000012018F09BF9FBF7CDFD00B912E080211D
:104ED000814814F093FF0028DBD0804800688049A7
:104EE0000968441A002C02DB204601E00EE0604213
:104EF0000A28CEDC00BF7B480068401C7949086066
:104F00007848006840F20E618842C1DB0020FEF75D
:104F1000C6F970BD10B574480068002855D17348B3
:104F20000068002851D17248006800284DD17148AE
:104F30000068002849D16B49086019E006E00120AB
:104F400018F05CF9FBF78EFD00B90BE063490968C6
:104F5000634A1268881A002801DB014600E04142DA
:104F60000A29ECDC00BF5F480068401C5D4908600E
:104F70005C480068FA28E1DBB6EE001ADFED600A53
:104F800005209FED640AFEF77FFA0020554908606E
:104F900013E006E0012018F031F9FBF763FD00B9DA
:104FA00005E004215C4814F029FF0028F2D000BF7E
:104FB0004C480068401C4B4908604A4800689628E5
:104FC000E7DB0020FEF76BF97BE04748006801282B
:104FD00077D152480068002873D14249086019E02F
:104FE00006E0012018F00AF9FBF73CFD00B90BE0E0
:104FF0003A4909683A4A1268881A002801DB0146D2
:1050000000E041420A29ECDC00BF36480068401C41
:105010003449086033480068FA28E1DBB6EE001A2C
:10502000DFED370A05209FED380AFEF72DFA002044
:105030002C49086014E006E0FBF714FD00B909E014
:10504000012018F0DBF84FF48071354814F0D6FEDB
:105050000028F1D000BF23480068401C21490860A7
:105060002048006840F20E618842E4DB0020FEF731
:1050700016F9B6EE001ADFED220A05209FED250A8B
:10508000FEF702FA00201749086013E006E001204D
:1050900018F0B4F8FBF7E6FC00B905E004211E485F
:1050A00014F0ACFE0028F2D000BF0E480068401C8F
:1050B0000C4908600B4800689628E7DB0020FEF7E3
:1050C000EEF810BD00B5FFF764F9FF201549086040
:1050D0000349086000BD000000040240BC0000203D
:1050E000F0030020A003002094020020980200207A
:1050F0009C020020A0020020A00000203333333F98
:1051000000006144008022C4000061C4A4000020AB
:1051100000409CC40000E14400100240A4020020B2
:1051200000000240E403002010B5F94800680028A0
:105130003ED1F848006800283AD1F7480068B0BB73
:10514000F648006898BBFFF7BDFF9FEDF51A5FEDCD
:10515000140A0A209FEDF30AFEF796F90020F2499F
:1051600008601FE006E0012018F048F8FBF77AFC21
:1051700000B911E00121ED4814F040FE0028F2D002
:10518000EB480068EB490968441A002C01DB204613
:1051900000E060421428E6DC00BFE3480068401CE1
:1051A000E1490860E04800689628DBDB09E1FFE799
:1051B000D748006801283DD1D6480068C8BBD6480A
:1051C0000068B0BBD548006898BBFFF77BFF9FED38
:1051D000D41A5FED350A0A209FEDD20AFEF754F982
:1051E0000020D14908601FE006E0012018F006F811
:1051F000FBF738FC00B911E00121CC4814F0FEFDAA
:105200000028F2D0CA480068CA490968441A002C2C
:1052100001DB204600E060421428E6DC00BFC24803
:105220000068401CC0490860BF4800689628DBDB66
:10523000C7E0FFE7B648006801285ED1B5480068BE
:1052400001285AD1B4480068D0BBB4480068B8BB44
:10525000FFF738FF24E04FF48051B74814F0CEFD3B
:1052600070B90121B14814F0C9FD48B91FED5D1AAC
:105270005FED5D0A0E201FED5D0AFEF705F908E0FF
:105280001FED621A5FED620A0A201FED610AFEF748
:10529000FBF8012017F0B2FFFBF7E4FB00B913E0C5
:1052A0004FF48071A44814F0A9FD0028D3D0A04881
:1052B0000068A0490968441A002C02DB204601E07E
:1052C0001BE060421428C6DC00BF1FED741A5FEDBE
:1052D000740A08209FED930AFEF7D6F806E0012035
:1052E00017F08CFFFBF7BEFB00B905E001218F48EA
:1052F00014F084FD0028F2D063E08548006801289E
:105300005FD18448006801285BD183480068012888
:1053100057D182480068B8BBFFF7D4FE24E04FF4B1
:105320008051854814F06AFD70B901217F4814F05E
:1053300065FD48B91FED8F1A5FED8F0A0E201FED36
:105340008F0AFEF7A1F808E01FED941A5FED940AAA
:105350000A201FED930AFEF797F8012017F04EFF81
:10536000FBF780FB00B913E04FF48071724814F032
:1053700045FD0028D3D06E4800686E490968441A7C
:10538000002C02DB204601E01BE060421428C6DC52
:1053900000BF1FEDA61A5FEDA60A08209FED610A67
:1053A000FEF772F806E0012017F028FFFBF75AFB22
:1053B00000B905E001215D4814F020FD0028F2D07D
:1053C00000BF0020FDF76BFF10BD10B5504800680E
:1053D000002864D14F480068002860D14E4800681A
:1053E00000285CD14D480068002858D1FFF76AFEBC
:1053F00024E00421514814F001FD78B94FF4006114
:105400004D4814F0FBFC48B91FEDC41A5FEDC40A07
:105410000E201FEDC10AFEF737F808E01FEDC91A8C
:105420005FEDC90A0A201FEDC80AFEF72DF801201A
:1054300017F0E4FEFBF716FB00B912E04FF48071A1
:105440003D4814F0DBFC0028D3D0394800683949C6
:105450000968441A002C01DB204600E06042142851
:10546000C7DC00BF1FEDDB1A5FEDDB0A07201FED75
:10547000D70AFEF709F806E0012017F0BFFEFBF798
:10548000F1FA00B906E04FF400612B4814F0B6FCC5
:105490000028F1D000BF0020FDF701FF0DE11C48FE
:1054A0000068012875D11B48006800287ED11A4881
:1054B000006800287AD119480068002876D1FFF7E3
:1054C00001FE41E004211D4814F098FC78B94FF426
:1054D0000061194814F092FC48B91FEDF81A5FED0D
:1054E000F80A0E201FEDF60AFDF7CEFF08E09FED4B
:1054F000141ADFED140A0A201FEDFD0AFDF7C4FFA0
:10550000012017F07BFEFBF7ADFAE8B92FE00000B1
:1055100094020020980200209C020020A00200209B
:10552000CDCC4C3F00000000A0030020000402404E
:10553000BC000020F00300200000024000100240E8
:105540003333333F000061444FF48071FE4814F060
:1055500055FC0028B6D0FD480068FD490968441A8A
:10556000002C01DB204600E060421428AADC00BFCA
:105570001FED0D1A5FED0D0A08209FEDF60AFDF7ED
:1055800083FF07E0012017F039FEFBF76BFA08B93B
:1055900007E00BE04FF40061EB4814F02FFC00280B
:1055A000F0D000BF0020FDF77AFE86E0EA480068F0
:1055B00001283FD1E948006801283BD1E84800684C
:1055C000B8BBE8480068A0BBFFF77CFD1FED2C1AB4
:1055D0005FED240A08209FEDDF0AFDF755FF00204C
:1055E000E149086020E006E0012017F007FEFBF724
:1055F00039FA00B912E04FF40061D34814F0FEFB11
:105600000028F1D0D1480068D1490968441A002C1B
:1056100001DB204600E060421428E5DC00BFD248F0
:105620000068401CD0490860CF4800689628DADB43
:1056300043E0FFE7C848006801283ED1C74800683A
:1056400001283AD1C6480068012836D1C54800680B
:1056500098BBFFF737FD1FED4E1A5FED460A082095
:105660009FEDBC0AFDF710FF0020BF49086020E055
:1056700006E0012017F0C2FDFBF7F4F900B912E0D3
:105680004FF40061B04814F0B9FB0028F1D0AF48E6
:105690000068AF490968441A002C01DB204600E08D
:1056A00060421428E5DC00BFAF480068401CAE49EA
:1056B0000860AD4800689628DADB0020FDF7EFFDB2
:1056C00010BD10B54FF461714842FFF773F840F216
:1056D0000910FEF76CFEA548006800286DD1A448AB
:1056E0000068002869D1A3480068002865D11FED33
:1056F0006C1A5FED6C0A12209FED9F0AFDF7C4FE45
:1057000000209949086020E006E0FBF7ABF900B9FA
:1057100015E0012017F072FD4FF480718A4814F0F3
:105720006DFB0028F1D08948006889490968441A4E
:10573000002C01DB204600E060420A28E5DC00BFC7
:1057400089480068401C884908608748006840F222
:105750000E618842D8DB1FED861A5FED860A0A20AB
:105760009FED850AFDF790FE00207F4908601AE052
:1057700006E0FBF777F900B90FE0012017F03EFDD6
:1057800040217E4814F03AFB0028F2D04FF480719B
:105790006D4814F033FB0028EBD000BF724800685E
:1057A000401C714908607048006840F20E618842F0
:1057B000DEDB0020FDF773FD13E06C480068012874
:1057C00002D1FEF79AFE0CE069480068012802D178
:1057D000FFF7FBFD05E067480068012801D1FFF7EE
:1057E000A3FC10BD2DE9F04105460E46FEF7D8FD9D
:1057F00063480068C01F6349086063480068C01FB1
:1058000053490860002415E006E0012017F0F6FC7B
:10581000FBF728F900B90BE04C4909684C4A1268BB
:10582000881A002801DB014600E041420A29ECDC2D
:1058300000BF641CFA2CE7DB1FEDC71A00EE106AEC
:10584000F8EEC00A0C2000EE105AB8EEC00AFDF7C0
:105850001BFE00241CE006E0012017F0CFFCFBF744
:1058600001F900B912E04FF48071374814F0C6FA1C
:105870000128F1D04021414814F0C0FA0128EBD0B2
:1058800080213E4814F0BAFA0028E5D000BF641C1D
:10589000962CE0DBFCF70BFE06E0052017F0AEFCD3
:1058A000FBF7E0F800B913E0FBF712F98046FBF7CD
:1058B000E2F8071E01DB384600E07842B8F1000F3D
:1058C00001DB414601E0C8F100010844C828E4DBDF
:1058D00000BF0020FDF7E3FCF0202C4908602C48B5
:1058E00000681B490860002415E006E0052017F059
:1058F00085FCFBF7B7F800B90BE014490968144AB6
:105900001268881A002801DB014600E041420A299A
:10591000ECDC00BF641C322CE7DB4FF42F7017F077
:105920006DFC9FED1C1A00EE106AF8EEC00A0C2008
:1059300000EE105AB8EEC00AFDF7A6FD40F2A460D2
:1059400017F05CFC00243DE000000240BC00002099
:10595000F00300200000E14494020020980200209F
:105960009C020020A0020020A0030020E8000020EC
:10597000EC000020F0000020000061C400040240A0
:10598000E0030020E4030020EC03002018040020C2
:10599000E8030020CDCC4C3F06E0012017F02EFCA0
:1059A000FBF760F800B90BE00121FE4814F026FA7D
:1059B000012805D1C102FC4814F020FA0128ECD0DE
:1059C00000BF641C40F21A408442E5DBC820F7495E
:1059D0000860F74800681E30F64908601FED131A8A
:1059E00000EE106AF8EEC00A0C2000EE105AB8EE75
:1059F000C00AFDF749FD00240FE006E0022017F081
:105A0000FDFBFBF72FF800B905E00121EA4814F08F
:105A1000F5F90128F2D000BF641C40F22620844230
:105A2000EBDB002410E006E0012017F0E7FBFBF7BA
:105A300019F800B906E04FF40051DF4814F0DEF920
:105A40000128F1D000BF641CB4F57A7FEBDB4FF482
:105A5000167017F0D3FB0020FDF721FCF020D7498A
:105A60000860D7480068D74908603220CF490860ED
:105A7000CF4800681130CF490860002415E006E0E7
:105A8000012017F0BBFBFAF7EDFF00B90BE0CE49A0
:105A90000968CC4A1268881A002801DB014600E038
:105AA00041420429ECDC00BF641CFA2CE7DB40F225
:105AB000DC5017F0A3FB1FED491A00EE106AF8EE58
:105AC000C00A142000EE105AB8EEC00AFDF7DCFC44
:105AD000002416E006E0012017F090FBFAF7C2FF61
